:020000040800F2
:1000000000000320D1A40008895500088B55000882
:100010008D5500088F55000891550008000000001C
:1000200000000000000000000000000051850008F2
:100030009355000800000000F185000829810008A0
:1000400021A5000821A5000821A5000821A5000878
:1000500021A5000821A5000821A5000821A5000868
:1000600021A5000821A5000821A5000821A5000858
:100070009555000821A50008A555000821A50008F0
:1000800021A5000821A5000821A5000821A5000838
:10009000B555000821A5000821A5000821A50008E4
:1000A00021A5000821A5000821A5000821A5000818
:1000B00021A5000821A5000821A5000821A5000808
:1000C00021A5000821A5000821A5000821A50008F8
:1000D00021A5000821A5000821A5000821A50008E8
:1000E00021A5000821A5000821A5000821A50008D8
:1000F00021A5000821A5000821A5000821A50008C8
:1001000021A5000821A50008C555000821A5000863
:1001100021A5000821A5000821A50008D555000843
:1001200021A50008E555000821A5000821A5000823
:1001300021A5000821A5000821A5000821A5000887
:10014000F555000821A5000821A5000821A50008F3
:1001500021A5000821A5000821A5000821A5000867
:1001600021A5000821A5000821A5000821A5000857
:1001700021A5000821A5000821A500080000000015
:1001800021A5000821A5000821A5000821A5000837
:1001900021A5000821A5000821A5000821A5000827
:0C01A000000000000000000021A5000885
:1001B00081F0004102E000BF83F0004330B54FEA18
:1001C00041044FEA430594EA050F08BF90EA020F85
:1001D0001FBF54EA000C55EA020C7FEA645C7FEA18
:1001E000655C00F0E2804FEA5454D4EB5555B8BF3B
:1001F0006D420CDD2C4480EA020281EA030382EAAC
:10020000000083EA010180EA020281EA0303362D3D
:1002100088BF30BD11F0004F4FEA01314FF4801C10
:100220004CEA113102D0404261EB410113F0004F22
:100230004FEA03334CEA133302D0524263EB4303D9
:1002400094EA050F00F0A780A4F10104D5F1200E77
:100250000DDB02FA0EFC22FA05F2801841F10001D2
:1002600003FA0EF2801843FA05F359410EE0A5F1A6
:1002700020050EF1200E012A03FA0EFC28BF4CF0D7
:10028000020C43FA05F3C01851EBE37101F000458D
:1002900007D54FF0000EDCF1000C7EEB00006EEB9A
:1002A0000101B1F5801F1BD3B1F5001F0CD3490824
:1002B0005FEA30004FEA3C0C04F101044FEA44527B
:1002C00012F5800F80F09A80BCF1004F08BF5FEA02
:1002D000500C50F1000041EB045141EA050130BDE2
:1002E0005FEA4C0C404141EB0101013C28BFB1F5F4
:1002F000801FE9D291F0000F04BF01460020B1FA3F
:1003000081F308BF2033A3F10B03B3F120020CDA11
:100310000C3208DD02F1140CC2F10C0201FA0CF0EF
:1003200021FA02F10CE002F11402D8BFC2F1200C54
:1003300001FA02F120FA0CFCDCBF41EA0C0190400A
:10034000E41AA2BF01EB0451294330BD6FEA040453
:100350001F3C1CDA0C340EDC04F11404C4F120023E
:1003600020FA04F001FA02F340EA030021FA04F350
:1003700045EA030130BDC4F10C04C4F1200220FAA7
:1003800002F001FA04F340EA0300294630BD21FAE5
:1003900004F0294630BD94F0000F83F4801306BFAB
:1003A00081F480110134013D4EE77FEA645C18BF9F
:1003B0007FEA655C29D094EA050F08BF90EA020F36
:1003C00005D054EA000C04BF1946104630BD91EA2E
:1003D000030F1EBF0021002030BD5FEA545C05D131
:1003E0004000494128BF41F0004130BD14F5800470
:1003F0003CBF01F5801130BD01F0004545F0FE41E4
:1004000041F470014FF0000030BD7FEA645C1ABF18
:10041000194610467FEA655C1CBF0B46024650EA4F
:10042000013406BF52EA033591EA030F41F400217B
:1004300030BD00BF90F0000F04BF0021704730B501
:100440004FF4806404F132044FF000054FF00001D6
:1004500050E700BF90F0000F04BF0021704730B597
:100460004FF4806404F1320410F0004548BF40426C
:100470004FF000013EE700BF42004FEAE2014FEAC1
:1004800031014FEA02701FBF12F07F4393F07F4F9C
:1004900081F06051704732F07F4208BF704793F09F
:1004A0007F4F04BF41F40021704730B54FF46074B2
:1004B00001F0004521F000411CE700BF50EA0102B5
:1004C00008BF704730B54FF000050AE050EA01025E
:1004D00008BF704730B511F0004502D5404261EBCE
:1004E00041014FF4806404F132045FEA915C3FF40F
:1004F000D8AE4FF003025FEADC0C18BF03325FEAAC
:10050000DC0C18BF033202EBDC02C2F1200300FA5C
:1005100003FC20FA02F001FA03FE40EA0E0021FA81
:1005200002F11444BDE600BF70B54FF0FF0C4CF46F
:10053000E06C1CEA11541DBF1CEA135594EA0C0F21
:1005400095EA0C0F00F0DEF82C4481EA030621EA5C
:100550004C5123EA4C5350EA013518BF52EA033597
:1005600041F4801143F4801338D0A0FB02CE4FF049
:100570000005E1FB02E506F00042E0FB03E54FF079
:100580000006E1FB03569CF0000F18BF4EF0010E71
:10059000A4F1FF04B6F5007F64F5407404D25FEA6D
:1005A0004E0E6D4146EB060642EAC62141EA555120
:1005B0004FEAC52040EA5E504FEACE2EB4F1FD0C62
:1005C00088BFBCF5E06F1ED8BEF1004F08BF5FEAE0
:1005D000500E50F1000041EB045170BD06F0004692
:1005E00046EA010140EA020081EA0301B4EB5C043F
:1005F000C2BFD4EB0C0541EA045170BD41F4801137
:100600004FF0000E013C00F3AB8014F1360FDEBF5B
:10061000002001F0004170BDC4F10004203C35DA37
:100620000C341BDC04F11404C4F1200500FA05F3BA
:1006300020FA04F001FA05F240EA020001F000425B
:1006400021F0004110EBD37021FA04F642EB0601D1
:100650005EEA430E08BF20EAD37070BDC4F10C04FB
:10066000C4F1200500FA04F320FA05F001FA04F2BF
:1006700040EA020001F0004110EBD37041F10001AB
:100680005EEA430E08BF20EAD37070BDC4F12005B6
:1006900000FA05F24EEA020E20FA04F301FA05F21E
:1006A00043EA020321FA04F001F0004121FA04F2C6
:1006B00020EA020000EBD3705EEA430E08BF20EA96
:1006C000D37070BD94F0000F0FD101F000464000D0
:1006D00041EB010111F4801F08BF013CF7D041EA52
:1006E000060195F0000F18BF704703F00046520056
:1006F00043EB030313F4801F08BF013DF7D043EA27
:100700000603704794EA0C0F0CEA135518BF95EADC
:100710000C0F0CD050EA410618BF52EA4306D1D163
:1007200081EA030101F000414FF0000070BD50EA82
:10073000410606BF1046194652EA430619D094EA0C
:100740000C0F02D150EA013613D195EA0C0F05D1F6
:1007500052EA03361CBF104619460AD181EA03014A
:1007600001F0004141F0FE4141F470014FF0000002
:1007700070BD41F0FE4141F4780170BD70B54FF09D
:10078000FF0C4CF4E06C1CEA11541DBF1CEA13551D
:1007900094EA0C0F95EA0C0F00F0A7F8A4EB0504FF
:1007A00081EA030E52EA03354FEA013100F08880F6
:1007B0004FEA03334FF0805545EA131343EA1263BF
:1007C0004FEA022245EA111545EA10654FEA002674
:1007D0000EF000419D4208BF964244F1FD0404F52D
:1007E000407402D25B084FEA3202B61A65EB030589
:1007F0005B084FEA32024FF480104FF4002CB6EB46
:10080000020E75EB030E22BFB61A754640EA0C00C5
:100810005B084FEA3202B6EB020E75EB030E22BF05
:10082000B61A754640EA5C005B084FEA3202B6EB46
:10083000020E75EB030E22BFB61A754640EA9C0005
:100840005B084FEA3202B6EB020E75EB030E22BFD5
:10085000B61A754640EADC0055EA060E18D04FEA93
:10086000051545EA16754FEA06164FEAC30343EA33
:1008700052734FEAC2025FEA1C1CC0D111F4801F00
:100880000BD141EA00014FF000004FF0004CB6E7F9
:1008900011F4801F04BF01430020B4F1FD0C88BF98
:1008A000BCF5E06F3FF6AFAEB5EB030C04BFB6EBA3
:1008B000020C5FEA500C50F1000041EB045170BD96
:1008C0000EF0004E4EEA113114EB5C04C2BFD4EBC3
:1008D0000C0541EA045170BD41F480114FF0000E47
:1008E000013C90E645EA060E8DE60CEA135594EAC3
:1008F0000C0F08BF95EA0C0F3FF43BAF94EA0C0FC6
:100900000AD150EA01347FF434AF95EA0C0F7FF43A
:1009100025AF104619462CE795EA0C0F06D152EA8E
:1009200003353FF4FDAE1046194622E750EA410672
:1009300018BF52EA43067FF4C5AE50EA41047FF483
:100940000DAF52EA43057FF4EBAE12E74FF0FF3CE8
:1009500006E000BF4FF0010C02E000BF4FF0010CB9
:100960004DF804CD4FEA410C7FEA6C5C4FEA430C32
:1009700018BF7FEA6C5C1BD001B050EA410C0CBF81
:1009800052EA430C91EA030F02BF90EA020F0020E3
:10099000704710F1000F91EA030F58BF994208BF4A
:1009A00090422CBFD8176FEAE37040F00100704707
:1009B0004FEA410C7FEA6C5C02D150EA013C07D15E
:1009C0004FEA430C7FEA6C5CD6D152EA033CD3D0A9
:1009D0005DF8040B704700BF8446104662468C46A3
:1009E0001946634600E000BF01B5FFF7B7FF0028D6
:1009F00048BF10F1000F01BD4DF808EDFFF7F4FFFF
:100A00000CBF012000205DF808FB00BF4DF808ED89
:100A1000FFF7EAFF34BF012000205DF808FB00BFAC
:100A20004DF808EDFFF7E0FF94BF012000205DF8CE
:100A300008FB00BF4DF808EDFFF7CEFF94BF012083
:100A400000205DF808FB00BF4DF808EDFFF7C4FF7C
:100A500034BF012000205DF808FB00BF4FEA410CC5
:100A60007FEA6C5C02D150EA013C0AD14FEA430CA8
:100A70007FEA6C5C02D152EA033C02D14FF00000E5
:100A800070474FF0010070474FEA410212F5001223
:100A900015D211D56FF47873B3EB625212D94FEAC5
:100AA000C12343F0004343EA505311F0004F23FAAF
:100AB00002F018BF404270474FF00000704750EA04
:100AC000013005D111F0004008BF6FF000407047C1
:100AD0004FF00000704700BF4FEA4102B2F1E0431F
:100AE00024BFB3F5001CDCF1FE5C0DD901F0004C15
:100AF0004FEAC0024CEA5070B2F1004F40EB830065
:100B000008BF20F00100704711F0804F21D113F190
:100B10003872BCBF01F00040704741F480114FEAC9
:100B20005252C2F11802C2F1200C10FA0CF320FA52
:100B300002F018BF40F001004FEAC1234FEAD3236F
:100B400003FA0CFC40EA0C0023FA02F34FEA4303D9
:100B5000CCE77FEA625307D150EA01331EBF4FF062
:100B6000FE4040F44000704701F0004040F0FE407D
:100B700040F40000704700BF53B94AB9002908BFCC
:100B800000281CBF4FF0FF314FF0FF3000F00CB8D1
:100B9000ADF1080C6DE904CE0AF050FFDDF804E079
:100BA000DDE9022304B07047704700BF0000000079
:100BB00001F0FF01102A2BDB10F0070F08D010F80E
:100BC000013B013A8B422DD010F0070F42B3F6D112
:100BD000F0B441EA012141EA014122F007047FF02B
:100BE00000070023F0E80256083C85EA010586EA82
:100BF000010685FA47F5A3FA87F586FA47F6A5FABE
:100C000087F68EB9EED1F0BC01F0FF0102F00702C9
:100C100032B110F8013B013A83EA010313B1F8D174
:100C20000020704701387047002D06BF3546033855
:100C3000073815F0010F07D1013015F4807F02BF8E
:100C4000013015F4C03F0130F0BC0138704700BFDF
:100C5000034613F8012B002AFBD1181A01387047FC
:100C60000348044B834202D0034B03B1184770473B
:100C7000AC020020AC020020000000000548064B3A
:100C80001B1AD90F01EBA301491002D0034B03B18A
:100C900018477047AC020020AC02002000000000A2
:100CA00010B5064C237843B9FFF7DAFF044B13B1B4
:100CB0000448AFF300800123237010BDAC02002074
:100CC0000000000060E6000808B5054B1BB10549AF
:100CD0000548AFF30080BDE80840FFF7CFBF00BF75
:100CE00000000000B002002060E6000808B501F036
:100CF00081FB01F087FB02F011FA02F031FB02F0F8
:100D000053FA08BD08B5084802F036FA02F0C2FDF1
:100D10000649074802F068FD002002F0AFFD4FF4DD
:100D2000487007F095FA08BD9A998940000040C1C3
:100D30000000404310B52DED028B0138052875D811
:100D4000DFE810F006007700E0002601D6013F0240
:100D5000C749C84802F048FD02F0C2FD0024204601
:100D600002F08CFD4FF4FA7007F072FAC24802F0FC
:100D700003FA4FF4AF7007F06BFA02F08BFD4FF4FB
:100D8000FA7007F065FABD4802F0F6F9BC4802F0C7
:100D900075FD4FF4FA7007F05BFABA49BA4802F0F1
:100DA00023FD4FF4F07007F053FAB84802F0E4F96D
:100DB0004FF4C87007F04CFA204602F05FFD4FF484
:100DC000AF7007F045FAB249B24802F00DFD4FF49A
:100DD0002F7007F03DFAB04802F0CEF94FF4C8701A
:100DE00007F036FA02F07CFD4FF4967007F030FA07
:100DF000AA4802F0C1F94FF4C87007F029FAA84CCC
:100E0000D4ED0A7AB0EE088A77EE887AC4ED0A7AD1
:100E1000A449A54802F0E8FC4FF4FA7007F018FA6C
:100E2000D4ED0A7A77EEC87AC4ED0A7ABDEC028B6B
:100E300010BD8F498F4802F0D7FC002002F01EFD44
:100E400002F04EFD4FF4167007F002FA974802F0D8
:100E500093F94FF4AF7007F0FBF902F01BFD4FF46C
:100E6000FA7007F0F5F9924802F086F9642007F06D
:100E7000EFF99049904802F0B7FC4FF4FA7007F090
:100E8000E7F98C498D4802F0AFFC4FF42A7007F067
:100E9000DFF98B4B186807F076FA8A4802F06CF994
:100EA0004FF4E67007F0D4F902F01AFD4FF4967093
:100EB00007F0CEF9844802F05FF94FF4967007F01E
:100EC000C7F9774CD4ED0A7AB0EE088A77EE887AC3
:100ED000C4ED0A7A7D497E4802F086FC4FF4FA7030
:100EE00007F0B6F9D4ED0A7A77EEC87AC4ED0A7A3B
:100EF000624802F041F902F0CDFC4FF4167007F0A1
:100F0000A7F993E75A495B4802F06EFC002420469B
:100F100002F0B4FC02F0E4FC4FF4FA7007F098F928
:100F2000554802F029F94FF4AF7007F091F902F03B
:100F3000B1FC4FF4FA7007F08BF9504802F01CF93D
:100F40004F4802F09BFC4FF4FA7007F081F96149B9
:100F5000614802F049FC4FF42A7007F079F95F48C4
:100F600002F00AF98C2007F073F902F0B9FC4FF493
:100F7000967007F06DF9494802F0FEF802F08AFC1D
:100F8000204602F07BFC4FF4487007F061F94DE712
:100F90003749384802F028FC0024204602F06EFC55
:100FA00002F09EFC4FF4FA7007F052F9324802F05A
:100FB000E3F84FF4AF7007F04BF902F06BFC4FF41D
:100FC000FA7007F045F92D4802F0D6F82C4802F0E7
:100FD00055FC4FF4FA7007F03BF93E493E4802F0E9
:100FE00003FC4FF4FA7007F033F93D4802F0C4F8FF
:100FF00040F28A2007F02CF9204602F03FFC4FF423
:10100000967007F025F93749374802F0EDFB4FF4A9
:101010002F7007F01DF9354802F0AEF84FF4C87094
:1010200007F016F902F05CFC4FF4967007F010F927
:101030001A4802F0A1F84FF4967007F009F9184C1D
:10104000D4ED0A7AB0EE088A77EE887AC4ED0A7A8F
:101050001449154802F0C8FB4FF4FA7007F0F8F88D
:10106000D4ED0A7A77EEC87AC4ED0A7ADEE600BFDC
:101070000000484200000243CDCC1C409A997940C0
:101080000000B442000058C10080414366660E4132
:101090000000E6C200004D43CDCCDC4000005041D2
:1010A000480300200000A0C1000048437B142E41EB
:1010B000000038410000F0C10000524300008B43A3
:1010C000A40600200000E0409A990941000040C1B8
:1010D00000004043000050C1000041439A9959402C
:1010E0009A9939410000ECC200004F439A9921417E
:1010F0005B495C4802F078FB002002F0BFFB02F085
:10110000EFFB40F2262007F0A3F8574802F034F82E
:101110004FF4AF7007F09CF802F0BCFB4FF4FA708C
:1011200007F096F8514802F027F8642007F090F88D
:101130004F49504802F058FB4FF4FA7007F088F816
:101140004D4B186807F01FF949494C4802F04CFB19
:101150004FF4FA7007F07CF8494802F00DF840F2BD
:10116000B22007F075F802F0BBFB4FF4967007F061
:101170006FF8444802F000F84FF4967007F068F8F2
:10118000414CD4ED0A7AB0EE088A77EE887AC4ED45
:101190000A7A3E493E4802F027FB4FF4167007F0EA
:1011A00057F8D4ED0A7A77EEC87AC4ED0A7A39484E
:1011B00001F0E2FF02F06EFB4FF4167007F048F802
:1011C00034E62749274802F00FFB0024204602F0AE
:1011D00055FB02F085FB40F2262007F039F8224843
:1011E00001F0CAFF4FF4AF7007F032F802F052FB83
:1011F0004FF4FA7007F02CF8274801F0BDFF642087
:1012000007F026F82149224802F0EEFA4FF4E17087
:1012100007F01EF8214802F031FB962007F018F87D
:101220001F4801F0A9FF40F28A2007F011F8124B85
:10123000186807F0A8F802F053FB4FF4967007F017
:1012400007F8184801F098FFC82007F001F8204679
:1012500002F014FB4FF4C87006F0FAFFE6E500BF99
:1012600000004842000002437B142E41CDCC6C416B
:101270000000F0C100005243A406002000008B4390
:101280009A9921410000404148030020000040C1DC
:10129000000040439A997940000038410000B44270
:1012A0000000D0400000504110B50446142006F064
:1012B000CFFF601E05281ED8DFE800F0031E39535B
:1012C0006E895049504802F08FFA02F009FB002065
:1012D00002F0D4FA4FF4C37006F0BAFF4B4801F0A5
:1012E0004BFF4FF4C87006F0B3FF02F0D3FA4FF48F
:1012F000FA7006F0ADFF10BD4549464802F074FA99
:1013000002F0EEFA002002F0B9FA4FF4C37006F0D2
:101310009FFF3E4801F030FF4FF4C87006F098FF81
:1013200002F0B8FA4FF4FA7006F092FFE3E73A4998
:101330003A4802F059FA02F0D3FA394802F09EFA1C
:10134000962006F085FF374801F016FF4FF42F7006
:1013500006F07EFF02F09EFA4FF4C87006F078FFA8
:10136000C9E72849284802F03FFA02F0B9FA0020FC
:1013700002F084FA40F2122006F06AFF2A4801F0D7
:10138000FBFE4FF4A57006F063FF02F083FA4FF402
:10139000C87006F05DFFAEE71D491E4802F024FA52
:1013A00002F09EFA002002F069FA40F2122006F0E4
:1013B0004FFF1D4801F0E0FE4FF4A57006F048FF16
:1013C00002F068FA4FF4C87006F042FF93E7124942
:1013D000124802F009FA02F083FA114802F04EFABC
:1013E000C82006F035FF114801F0C6FE4FF40C701E
:1013F00006F02EFF02F04EFA4FF4FA7006F028FFC6
:1014000079E700BF0000E6C200004D436666D640A3
:101410000000F0C100008B43000040C100004043C9
:101420000000B4420000404000002041CDCCCC4040
:101430002DE9F04180460F4616461D4602E00A207F
:1014400006F006FF0B4CA47C1CB10A4CE47C002C7B
:10145000F5D0084CC4F800806760A6600021617474
:10146000E5600123A374E174034B186806F057FF8D
:10147000BDE8F081BC060020A406002038B5441E5B
:10148000114B04EB440203EB820292ED007A92EDE1
:10149000016A11460D4D2A7802EB420003EB8000F1
:1014A000D0ED007AD0ED016A4FF0FF338A6876EE16
:1014B000666A16EE901A77EE677A17EE900AFFF7D3
:1014C000B7FF2C7038BD00BF00000020C80200200C
:1014D00010B5044600780930C0B2FFF7CFFF4FF0D7
:1014E000FF31204B186806F01AFF2378012B19D022
:1014F00060780930C0B2FFF7C1FF4FF0FF31194BE0
:10150000186806F00CFFA378052B20D0A0780930CE
:10151000C0B2FFF7B3FF4FF0FF31124B186806F06F
:10152000FEFE10BD6378032B05D9042B08D11020D3
:10153000FFF7A4FF04E0022B02D30F20FFF79EFF6A
:101540004FF0FF31074B186806F0E9FED0E7102096
:10155000FFF794FF4FF0FF31024B186806F0DFFEF3
:10156000D4E700BFA4060020114B1A78013A114BB2
:10157000134493F82C30022B03D0032B0CD0002003
:10158000704719B1022904D0002070470A4BD8785F
:101590007047094B9878704719B1022904D0002090
:1015A0007047054B58797047034B1879704700BF57
:1015B000C9020020F4020020CC02002070B50446CD
:1015C0000D461646431E052B00F2F482DFE813F0A9
:1015D00006002D005400BC013502C502894801F007
:1015E000CBFD4FF4FA7006F033FE8749874802F0CE
:1015F000FBF84FF4167006F02BFE8549854802F083
:10160000F3F8012D09D0022D02D0002D40F0D28236
:101610003EB1814801F0B0FDCCE2804801F0ACFD64
:10162000C8E2784801F0A8FDC4E2764801F0A4FDC4
:101630004FF4FA7006F00CFE7349744802F0D4F8C7
:101640004FF4167006F004FE7149724802F0CCF8AF
:10165000012D09D0022D02D0002D40F0AB823EB109
:101660006D4801F089FDA5E26C4801F085FDA1E21D
:10167000644801F081FD9DE2002E40D100297FD019
:1016800002297DD0012940F09582654801F074FD62
:10169000002002F0F3F8634B5B7813B9614B9B7841
:1016A0003BB1604B1B7923B95E4B5B79002B00F09B
:1016B00043815C4B1B7913B95A4B5B7933B15A4860
:1016C00001F05AFD4FF4FA7006F0C2FD4FF41670A7
:1016D00006F0BEFD5549564802F086F8C82006F0CF
:1016E000B7FD4B494B4802F07FF8962006F0B0FD5D
:1016F000504801F041FDAA2006F0AAFD5AE24848F0
:1017000001F03AFD002002F0B9F8464B5B7813B9BE
:10171000444B9B782BB1434B1B7913B9414B5B79FD
:1017200013B3404B1B7913B93E4B5B7933B142483D
:1017300001F022FD4FF4E17006F08AFD4FF41670BF
:1017400006F086FD39493A4802F04EF8C82006F006
:101750007FFD2F492F4802F047F8012D0BD04FF4A1
:10176000967006F075FD25E2344801F005FDFA207B
:1017700006F06EFDE2E74FF4967006F069FD19E29F
:10178000324629462046FFF7EFFE012858D00228AE
:1017900000F09080002840F00D82214801F0ECFC20
:1017A000002002F06BF81F4B5B7813B91D4B9B7840
:1017B0003BB11C4B1B7923B91A4B5B79002B00F012
:1017C000B380184B1B7913B9164B5B7933B11648AC
:1017D00001F0D2FC4FF4FA7006F03AFD4FF41670A7
:1017E00006F036FD1149124801F0FEFFC82006F050
:1017F0002FFD0749074801F0F7FF4FF4A07006F0EE
:1018000027FDD7E1000040410000F0C10000524335
:1018100000004842000002433333034100001041FE
:1018200066660641C000002033336B410000D0C122
:1018300000004E430000E0400000684133333B416C
:101840009E4801F099FC002002F018F89C4B5B7850
:1018500013B99B4B9B782BB1994B1B7913B9984BC0
:101860005B7903B3964B1B7913B9954B5B7933B115
:10187000944801F081FC4FF4C87006F0E9FC4FF485
:101880002F7006F0E5FC9049904801F0ADFFC820AC
:1018900006F0DEFC8E498F4801F0A6FF4FF4A070E1
:1018A00006F0D6FC86E18C4801F066FCC82006F004
:1018B000CFFCE4E7894801F05FFC002001F0DEFF87
:1018C0007F4B5B7813B97E4B9B782BB17C4B1B799C
:1018D00013B97B4B5B7903B3794B1B7913B9784B05
:1018E0005B7933B1774801F047FC4FF4967006F00E
:1018F000AFFC4FF4487006F0ABFC7349734801F03D
:1019000073FFC82006F0A4FC7149724801F06CFF17
:101910004FF4A07006F09CFC4CE16F4801F02CFCE9
:10192000642006F095FCE4E76B4801F025FC4FF4D9
:10193000967006F08DFC51E7674801F01DFC4FF4EE
:10194000967006F085FCC1E65D4B5B7913B95C4A85
:10195000927932B31BB95A4A9279002A38D1584A3F
:1019600092790AB9002B4ED1564801F005FC4FF48C
:10197000FA7006F06DFC5A495A4801F035FF4FF4F1
:10198000167006F065FC5249524801F02DFFC82040
:1019900006F05EFC544801F0EFFB534801F0ECFB0D
:1019A00008E1524801F0E8FB4FF4967006F050FC55
:1019B0004B494C4801F018FF4FF4167006F048FCF4
:1019C0004349444801F010FFC82006F041FCE4E719
:1019D000464801F0D1FB4FF4967006F039FC4049BF
:1019E000404801F001FF4FF4167006F031FC384911
:1019F000384801F0F9FE4FF4D77006F029FC3A4858
:101A000001F0BAFBC9E72F4801F0B6FB4FF4FA70BA
:101A100006F01EFC3249334801F0E6FE4FF4167022
:101A200006F016FC2A492B4801F0DEFE322006F0B3
:101A30000FFC2D4801F0A0FBAFE7214B1B7913B938
:101A40001F4A92791AB31BB91D4A9279002A4FD1C5
:101A50001B4A92790AB9002B65D11A4801F08CFB18
:101A60004FF4FA7006F0F4FB1D491E4801F0BCFE6D
:101A70004FF4167006F0ECFB1549164801F0B4FE61
:101A8000C82006F0E5FB184801F076FB92E0174805
:101A900001F072FB4FF4967006F0DAFB1049114822
:101AA00001F0A2FE4FF4167006F0D2FB0849094877
:101AB00001F09AFEC82006F0CBFB7BE033330B41EC
:101AC000C000002033336B410000D0C100004E4302
:101AD0000000484200000243CDCC3C4100003041B0
:101AE0000000F0C1000052430000104166662E4124
:101AF000984801F041FB4FF4967006F0A9FB964917
:101B0000964801F071FE4FF4167006F0A1FB94495F
:101B1000944801F069FE4FF4D77006F099FB9248A3
:101B200001F02AFB46E0914801F026FB4FF4FA70E1
:101B300006F08EFB8849894801F056FE4FF4167076
:101B400006F086FB8649874801F04EFE322006F0FB
:101B50007FFB854801F010FB2CE0002E4FD084481D
:101B600001F00AFB002001F089FE824B1B7913B9BA
:101B7000804B5B7933B17D4801F0FEFA4FF48770FA
:101B800006F066FB4FF4167006F062FB7A497B485C
:101B900001F02AFE962006F05BFB7149714801F0C6
:101BA00023FE8C2006F054FB012D40D04FF48270B0
:101BB00006F04EFB012D00F06D81022D00F04982F0
:101BC000002D40F041836E4801F058FE631EDBB2E9
:101BD000012B35D9062C38D0231FDBB2012B38D985
:101BE0006849694801F000FE002E56D1631E052B9E
:101BF00000F29180DFE803F08C8C9A7E7EAA5C482C
:101C000001F0BAFA002001F039FE5A4B1B7913B9E2
:101C1000584B5B7933B1554801F0AEFA4FF48770F9
:101C200006F016FB4FF4167006F012FBAEE71EB17D
:101C3000564801F0A1FAB9E7554801F09DFAB5E719
:101C40004FF4FA7006F004FBCAE7322006F000FBFE
:101C5000C6E7484B1B7913B1464A527912B9454A37
:101C6000927972B913B1434B5B7913B9414B9B79AC
:101C70005BB1404B9B7963B94FF4C37006F0E8FA4F
:101C8000AEE7322006F0E4FAAAE7962006F0E0FA82
:101C9000A6E7FA2006F0DCFAA2E7962006F0D8FACA
:101CA0003C4801F069FA631E052B79D8DFE803F0A0
:101CB0001D1D030D0D084FF4F57006F0C9FA6FE015
:101CC0004FF41B7006F0C4FA6AE02A4B1B7913B17B
:101CD000284B5B7923B94FF4C87006F0B9FA5FE07E
:101CE0004FF4E67006F0B4FA5AE04FF4BE7006F016
:101CF000AFFA55E01F4B1B7913B11E4B5B791BB933
:101D0000C82006F0A5FA06E0C82006F0A1FA02E015
:101D1000FA2006F09DFA1E4801F02EFA631E052BEC
:101D20003ED8DFE803F03939959090A6324629462F
:101D30002046FFF719FC022804D04FF4967006F0F5
:101D400087FAE8E7B42006F083FAE4E7322006F0E9
:101D50007FFAE0E766662E410000F0C100005243C2
:101D600000004842000002430000104133336B4141
:101D700066663641C00000200000A8C1000049434B
:101D80000000C0BF000009430000324300000841CA
:101D9000333383406666F6404FF42A7006F058FAF3
:101DA0004FF07E5001F06AFD01F09AFDC82006F068
:101DB0004FFA934B1B7923B9914A52790AB9062CF1
:101DC0005CD023B98E4B9B790BB9052C56D08C4B2C
:101DD0005B7923B98A4B9B790BB9042C4ED0894887
:101DE00001F0CAF9B42006F033FA874BD3ED0A7A32
:101DF000B1EE007A77EE877AC3ED0A7A8349844898
:101E000001F0F2FC4FF4AF7006F022FA814B186833
:101E100006F0B9FA01F03EFD794B9B790BB1062C27
:101E200033D1794BD3ED0A7AB1EE007A77EEC77AE7
:101E3000C3ED0A7A7849794801F0D6FC4FF4DC709A
:101E400006F006FA00E24FF4397006F001FAA7E74F
:101E5000324629462046FFF787FB022804D04FF47C
:101E6000397006F0F5F99BE74FF4397006F0F0F998
:101E700096E740F2523006F0EBF991E7684801F03E
:101E80007BF9B42006F0E4F9AFE74FF4967006F062
:101E9000DFF9C6E7634801F0F1FC5C495C4801F0FA
:101EA000A3FC66B9032C46D05F4801F065F9631EB8
:101EB000052B64D8DFE803F05F5F439898515B48D7
:101EC00001F05AF9631E052B59D8DFE803F02F2FD4
:101ED000031F1F114A4B1B7913B9494B5B7913B18F
:101EE000BE2006F0B5F94FF4E17006F0B1F946E016
:101EF000434B1B7913B9424B5B7913B1BE2006F0FB
:101F0000A7F94FF4FA7006F0A3F938E03C4B1B79BF
:101F100013B13B4B5B7923B94FF4167006F098F977
:101F20002DE04FF4167006F093F928E04FF4487056
:101F300006F08EF923E0FA2006F08AF9B4E7304B78
:101F40001B7913B92E4B5B7913B1642006F080F92D
:101F50004FF42F7006F07CF911E0294B1B7913B96F
:101F6000274B5B7913B1C82006F072F94FF4E67085
:101F700006F06EF903E04FF4347006F069F901F0F1
:101F8000AFFCC82006F064F91D4B1B7923B91C4A2D
:101F900052790AB9062C50D023B9194B9B790BB949
:101FA000052C4AD0164B5B7923B9154B9B790BB99D
:101FB000042C42D0134801F0DFF8B42006F048F9B1
:101FC0000F4B9B790BB1062C3ED1124B186806F0D3
:101FD000DAF901F05FFC1049104801F005FC4FF4FC
:101FE000DC7006F035F92FE1054B1B7913B1044B7A
:101FF0005B79EBB94FF42A7006F02AF9BFE700BF0E
:10200000C00000200000404148030020000048427A
:1020100000000243A4060020000070C100004343FA
:1020200033330B410000C0BF333383406666F64054
:102030004FF4757006F00CF9A1E7974801F09CF891
:10204000B42006F005F9BBE74FF4967006F000F9EE
:10205000BBE7924801F012FC631E052B08D8DFE8AD
:1020600003F003033E1A1A164FF4FA7006F0F0F864
:102070004FF07F518A4801F0B7FB002E33D1631E29
:10208000052B72D8DFE803F06E6E7C5C5C6A322050
:1020900006F0DEF8ECE7834B1B7913B1814A5279E5
:1020A00012B9804A927972B913B17E4B5B7913B938
:1020B0007C4B9B795BB17B4B9B7963B94FF4C370CD
:1020C00006F0C6F8D4E7322006F0C2F8D0E7962032
:1020D00006F0BEF8CCE7FA2006F0BAF8C8E73220DE
:1020E00006F0B6F8C4E7962006F0B2F86E4801F0A4
:1020F00043F8631E052B57D8DFE803F01D1D030DC1
:102100000D084FF4F57006F0A3F84DE04FF41B7086
:1021100006F09EF848E0634B1B7913B1614B5B7985
:1021200023B94FF4C87006F093F83DE04FF4E67021
:1021300006F08EF838E04FF4AF7006F089F833E01F
:10214000584B1B7913B1574B5B791BB9C82006F06C
:102150007FF80AE0C82006F07BF806E0322006F09F
:1021600077F802E0FA2006F073F8504801F004F81E
:10217000631E052B18D8DFE803F013137D7878ADC4
:10218000324629462046FFF7EFF9022804D04FF4E3
:10219000AF7006F05DF8E8E7B42006F059F8E4E720
:1021A00040F2762006F054F801F09AFBC82006F0C1
:1021B0004FF83C4B1B792BB93A4A527912B9062C8D
:1021C00000F08D802BB9374B9B7913B9052C00F0AB
:1021D0008680344B5B7923B9324B9B790BB9042C45
:1021E0007DD0334800F0C8FFB42006F031F8314B01
:1021F000D3ED0A7AB1EE007A77EE877AC3ED0A7AE8
:102200002D492E4801F0F0FA4FF4AF7006F020F897
:102210002B4B186806F0B7F801F03CFB214B9B797B
:102220000BB1062C62D1234BD3ED0A7AB1EE007AC2
:1022300077EEC77AC3ED0A7A2249234801F0D4FA2F
:102240004FF4DC7006F004F8164B00221A551F4BB1
:102250001A78013A1E4B134493F82C30013B032BA0
:102260004DD8DFE803F04851667B40F2023005F0BC
:10227000EFFF99E7324629462046FFF775F9022815
:1022800004D04FF4397005F0E3FF8DE74FF4397057
:1022900005F0DEFF88E700BF33330B410000C0BF0D
:1022A00000002042C00000206666F64033338340C1
:1022B0000000404148030020000048420000024363
:1022C000A4060020000070C100004343C9020020A2
:1022D000F402002040F2523005F0BAFF64E72448CF
:1022E00000F04AFFB42005F0B3FF80E74FF496708A
:1022F00005F0AEFF97E71EB11E4B02225A7070BD6B
:102300001C4B01225A70FAE745B91EB1194B022243
:102310009A70F4E7174B01229A70F0E7022DEED184
:102320001EB1144B0222DA70E9E7124B0122DA7077
:10233000E5E745B91EB10F4B02221A71DFE70D4BDD
:1023400001221A71DBE7022DD9D11EB1094B0222FD
:102350005A71D4E7074B01225A71D0E71EB1054BE1
:1023600002229A71CBE7034B01229A71C7E700BFA3
:1023700033330B41CC02002000B585B0C82005F0F6
:1023800067FF694600230093019302930393FF23A1
:102390008DF80030AA228DF801208DF803306423D7
:1023A0000522044805F06DFDC82005F051FF05B079
:1023B0005DF804FB3C09002000B585B069460023A8
:1023C0000093019302930393FF238DF80030AA2317
:1023D0008DF80130A7238DF80230642305220448CC
:1023E00005F04FFDC82005F033FF05B05DF804FB94
:1023F0003C09002008B5FFF7BFFFFFF7DDFF01F044
:1024000011FE08BD08B5742009F094FC144B186047
:10241000002824D00023036243628362C362036303
:1024200043638363C36303600D4A12685360936020
:10243000D360136153619361D361136453649364F4
:10244000D364136553659365D365136693665366CA
:10245000D366042382F87030002382F8713008BDFF
:10246000D402002018490A68002313625362936261
:10247000D362136353639363D36313600A68536037
:102480009360D360136153619361D36113645364A8
:102490009364D364136553659365D365136693663C
:1024A0005366D366042382F87030084A51680123CA
:1024B00081F85430916881F85430D16881F85430F3
:1024C000126982F854307047D4020020940300202F
:1024D0002DE9F8432DED068B01F09EFD142004F04C
:1024E0001BF88F4BD3ED007A9FED8E7A67EE877ADB
:1024F0009FED8D7AC7EE877A17EE909A1868FDF7F0
:10250000BBFF0022894B08F00DF8FEF7E5FA07EE55
:10251000900AF5EEC07AF1EE10FA00F1B7809FED67
:10252000847AF4EEC77AF1EE10FA07D99FED817A3A
:10253000F4EEC77AF1EE10FA40F3AD807E4B1B68E3
:10254000002283F871207C4B1C68754B1B68236646
:102550007A4B1B68A3667A4B5F6897ED146A84ED2B
:10256000046AD3F80880D8ED147AC4ED057ADE68E1
:10257000D6ED146AC4ED066A1D6995ED147A84EDF2
:10258000077A36EE278A36EE888A37EE088AB5EE65
:10259000009A28EE098A84ED088A77EEC67A76EEEC
:1025A000A78A78EEC78A68EE898AC4ED098A77EE31
:1025B000E67A77EE277A17EE900AFDF75DFF56A3CD
:1025C000D3E90023FEF7DAF8FEF786FA606648469C
:1025D00007F0FAFF09EE900A28EE29AA484608F00B
:1025E00029F806EE900A68EEA67A3AEE67AA84ED1C
:1025F00010AA28EE268A68EEA98A38EE288A84ED89
:10260000118A97ED137AD8ED137A37EE277AD6ED43
:10261000137A37EE277AD5ED137A37EE277A27EE3D
:10262000097A84ED0C7AD8ED137A97ED136A77EE78
:10263000C67A96ED136A77EE867A95ED136A77EE91
:10264000C67A67EE897AC4ED0D7A94ED146A69EE64
:10265000875A26EEA75A75EEC55A36EE256A84EDDE
:10266000146A94ED156A66EE876A69EEA79A76EEAB
:10267000A96A76EE267AC4ED157A01F0D3FC14200F
:1026800003F046FFBDEC068BBDE8F8839FED2D7A85
:1026900077EE877A43E79FED267AF4EEC77AF1EE7C
:1026A00010FA21DD9FED287AF4EEC77AF1EE10FAE8
:1026B00005D8214B1B68012283F8712043E79FED69
:1026C000227AF4EEC77AF1EE10FA7FF73CAF9FED75
:1026D0001F7AF4EEC77AF1EE10FA05D8164B1B6894
:1026E000022283F871202EE79FED187AF4EEC77A64
:1026F000F1EE10FA7FF727AF9FED0E7AF4EEC77A6E
:10270000F1EE10FA3FF61FAF0B4B1B68032283F864
:10271000712018E7AFF30080C7711CC7A9DC3740F0
:10272000E4060020DB0F494000003443008076407F
:102730000000344200809D43D4020020E0060020C7
:10274000940300200000B4430000074300006143ED
:1027500010B5012408E0074B53F8240001F0E6F916
:10276000012005F075FD0134042CF4DDFFF7B0FE07
:1027700010BD00BF940300202DE9F0432DED068B22
:1027800083B0554D2C68D4ED187ADFED549A67EE7E
:10279000A97A9FED537AC7EE877A17EE906A94ED87
:1027A000128A304607F010FF08EE900A28EE289AA9
:1027B00094ED13AA304607F03DFF07EE100A6AEECB
:1027C000077A79EE277AC4ED0A7A28EE478A68EE0E
:1027D0008A8A38EE288A84ED0B8A77EEC87A17EE5B
:1027E000900AFDF749FE06460F46D4ED1B7A9FED91
:1027F0003D9A67EEC97A67EEA97A17EE900AFDF75F
:102800003BFE0022384BFDF7B9FF31A3D3E900238B
:10281000FDF78AFE02460B4630463946FDF7CEFCF0
:10282000FEF75AF920602C68D4ED0A8A94ED0B8AE1
:1028300078EE887A17EE900AFDF71EFE80468946EC
:10284000D4ED1B7A67EE897A67EEA97A17EE900AC3
:10285000FDF712FE0022244BFDF790FF1CA3D3E9E5
:102860000023FDF761FE06460F4602460B46404632
:102870004946FDF7A3FCFEF72FF905466060324696
:102880003B4640464946FDF797FCFEF725F9804652
:10289000A06078EEC87A17EE900AFDF7EDFD0246CB
:1028A0000B4630463946FDF789FCFEF715F903461D
:1028B000E0602068022200924246294601F06AFB4D
:1028C00003B0BDEC068BBDE8F08300BFAFF3008022
:1028D000000000002670E63FD4020020DB0F4940D4
:1028E00000003443C43BEC430080664010B582B026
:1028F000124B1B68042283F87020C0B9012400E049
:102900000134042C09DC0E4B53F824008379022B8C
:10291000F6D0022101F06AF8F2E7002002230093CA
:1029200003460246014601F035FB02B010BD01F03E
:10293000DFFA012001F0AAFAF7E700BFD402002075
:10294000940300202DE9F84F2DED048B08EE100ABA
:102950008B461646984601F0BBFA022001F096FA23
:1029600001F0A6FAFFF77EFDFFF7F2FE584B18685C
:1029700001F0D2FE574B186801F0CEFE564B186896
:1029800001F0CAFE07EE90BAF0EEE77A9FED537AB7
:10299000F4EEC77AF1EE10FA0DDB07EE10BAB5EEE1
:1029A000C07AF1EE10FA06DDB2EE009AF0EE498A36
:1029B0004FF004091AE09FED4A7AF4EEC77AF1EE7F
:1029C00010FA0DD5F0EEC87AF4EEC77AF1EE10FAEF
:1029D00011D4B1EE0C9AF1EE048A4FF0040905E02F
:1029E000B1EE0C9AF1EE048A4FF0040903F020F9DD
:1029F000074600252DE0B2EE0C9AF0EE498A4FF022
:102A00000309F3E7002500E00025FFF7A1FE354CA0
:102A1000D4F800A0DAF8502018EE101A2C4B1868E1
:102A200001F090FECAF84800D4F800A0DAF854206B
:102A30005946284B186801F085FECAF84C002468F6
:102A4000226E3146244B186801F04EFFE066FFF716
:102A500093FE03F0EDF8C01B40452FD2214B1B68BD
:102A6000D3ED147A77EEC87AF0EEE77AF4EEE87AEE
:102A7000F1EE10FAC6D5D3ED157A07EE10BA77EE5F
:102A8000C77AF0EEE77AF4EEC97AF1EE10FABBD528
:102A9000D3ED187A07EE106A77EEC77AF0EEE77A90
:102AA0009FED117AF4EEC77AF1EE10FA0DD50135EB
:102AB000EDB2A945A9D80020FFF718FF0020FFF7C5
:102AC00015FFBDEC048BBDE8F88F00259DE700BF26
:102AD0004806002044060020400600200000FA447A
:102AE00000808944D4020020CDCCCC3D2DE9F84FA4
:102AF0002DED028B0D46042874D8DFE800F0690341
:102B0000203F5600BD4B93ED068A93ED097AF0EE17
:102B1000007A77EE277A17EE90AAB94B1B78012B33
:102B200007D0012B66D901F596754FF00708B54F10
:102B300056E001F516754FF00708B24F50E0AF4B65
:102B400093ED078AD3F828A0AD4B1B78012B07D053
:102B5000012B53D901F6B8354FF00F08AA4F3FE0CB
:102B600001F6B835F7EE007A07EE10AA77EE277A6D
:102B700017EE90AA4FF00F08A34F31E09F4B93ED53
:102B8000078AD3F828A09E4B1B78012B07D0012B76
:102B900038D901F26C754FF014089B4F20E001F614
:102BA000B8354FF00F08984F1AE0944B93ED068A12
:102BB000D3F824A0924B1B78012B03D04FF00708C9
:102BC000924F0DE001F5C8754FF007088F4F07E0F1
:102BD0008A4B93ED058AD3F820A04FF00708002711
:102BE000012414E04FF007084FF0000A08EE10AA85
:102BF0005746F5E74FF00708824FF1E74FF0070817
:102C0000814FEDE74FF007087F4FE9E70134042CCF
:102C100009DC7F4B53F824008379022BF6D0022184
:102C200000F0E4FEF2E7FFF71DFCFFF791FD794BA2
:102C3000186801F071FD784B186801F06DFD774B55
:102C4000186801F069FD02F0F3FF0646002447E032
:102C500000246A4BD3ED037AF5EE407AF1EE10FAD8
:102C600006D1D3ED047AF5EE407AF1EE10FA37D0C2
:102C70006B4BD3F8009099F87130032B1FD8DFE825
:102C800003F006D97B9F0024E3E70024E1E7DFF8A7
:102C90006CB1DBF80C1018EE102A5E4B186801F0CE
:102CA00051FDC9F84800DBF810105D4BD3F80090D7
:102CB0005246594B186801F045FDC9F84C00594B74
:102CC0001A68574BD3F800903946574B186801F0F3
:102CD0000BFEC9F86C00FFF74FFD052005F0B8FAB0
:102CE00002F0A6FF801BA84239D2444BD3ED037AF1
:102CF00077EEC87AF0EEE77A9FED4C7AF4EEC77A79
:102D0000F1EE10FAA4D8D3ED047A07EE10AA77EE0C
:102D1000C77AF0EEE77A9FED457AF4EEC77AF1EEE6
:102D200010FAB0D83F4BD3ED007A07EE107A77EE69
:102D3000C77AF0EEE77A9FED3E7AF4EEC77AF1EECD
:102D400010FAA2D50134E4B2A04582D80020FFF7E2
:102D5000CDFD082005F07CFA0120FFF7C7FD00201B
:102D6000FFF7C4FD082005F073FA0120FFF7BEFD50
:102D7000BDEC028BBDE8F88FDFF880B0DBF80C10FB
:102D800018EE102A234B186801F0DCFCDFF8909055
:102D9000D9F8003007EE900AF1EE677AC3ED127AA7
:102DA000DBF8101052461C4B186801F0CBFCD9F828
:102DB000003007EE900AF1EE677AC3ED137A7EE7F2
:102DC000DFF838B0DBF80C1018EE102A114B186839
:102DD00001F0B8FC124BD3F8009007EE900AF1EE28
:102DE000677AC9ED137ADBF8101052460A4B18685F
:102DF00001F0A8FCC9F8480061E700BFF402002018
:102E0000C902002000008743000034430000B442A0
:102E1000940300203C0600203806002034060020E1
:102E2000D4020020E406002040060020CDCC8C3FD8
:102E3000CDCCCC3DDFF840B0DBF80C1018EE102AFA
:102E40000A4B186801F07EFCC9F84C00DBF8101042
:102E50005246074B186801F075FC064B1B6807EEDD
:102E6000900AF1EE677AC3ED127A28E7380600205F
:102E70003C060020D4020020F40200202DE9F04797
:102E80002DED028B08EE100A8A461646984601245C
:102E900000E00134042C09DC4A4B53F82400837908
:102EA000022BF6D0022100F0A1FDF2E7FFF7DAFADB
:102EB000FFF74EFC444B186801F02EFC434B18689A
:102EC00001F02AFC424B186801F026FC07EE90AA9C
:102ED000F0EEE77A9FED3F7AF4EEC77AF1EE10FA62
:102EE00006D4F2EE008A02F0A3FE0746002529E090
:102EF000F2EE048AF7E7002500E00025FFF728FC42
:102F0000354CD4F80090D9F8502018EE101A2E4BFA
:102F1000186801F017FCC9F84800D4F80090D9F8F7
:102F200054205146294B186801F00CFCC9F84C009C
:102F30002468226E3146264B186801F0D5FCE06605
:102F4000FFF71AFC02F074FEC01B404531D2224B41
:102F50001C68D4ED147A77EEC87AF0EEE77AF4EED6
:102F6000E87AF1EE10FAC6D5D4ED157A07EE10AA7C
:102F700077EEC77AF0EEE77AB2EE087AF4EEC77A27
:102F8000F1EE10FAB9D5D4ED187A07EE106A77EEA3
:102F9000C77AF0EEE77A9FED117AF4EEC77AF1EE98
:102FA00010FA0DD50135EDB2042DA7D90020FFF799
:102FB0009DFC0020FFF79AFCBDEC028BBDE8F0877A
:102FC00000259BE794030020300600202C060020FB
:102FD0002806002000007A44D4020020CDCCCC3D4D
:102FE0002DE9F0472DED028B08EE100A8A461646B1
:102FF000984600F06DFF022000F048FF00F058FFF7
:10300000142005F025F9FFF72DFAFFF7A1FB3D4B42
:10301000186801F081FB3C4B186801F07DFB3B4BCD
:10302000186801F079FB02F003FE0746002526E050
:10303000002500E00025FFF78BFB354CD4F800900D
:10304000D9F8502018EE101A2E4B186801F07AFBB0
:10305000C9F84800D4F80090D9F8542051462A4BBA
:10306000186801F06FFBC9F84C002468226E3146E5
:10307000264B186801F038FCE066FFF77DFB02F094
:10308000D7FDC01B404533D2214B1C68D4ED147AC8
:1030900077EEC87AF0EEE77A9FED1E7AF4EEC77A03
:1030A000F1EE10FAC4D5D4ED157A07EE10AA77EE3A
:1030B000C77AF0EEE77AB0EE007AF4EEC77AF1EE76
:1030C00010FAB7D5D4ED187A07EE106A77EEC77A02
:1030D000F0EEE77A9FED107AF4EEC77AF1EE10FA8F
:1030E0000DD50135EDB2022DA5D90020FFF7FEFB6D
:1030F0000020FFF7FBFBBDEC028BBDE8F08700254D
:1031000099E700BF24060020200600201C060020AE
:10311000D40200209A991940CDCCCC3D074B1968B8
:1031200000220A601B685A6005499960DA60054A06
:103130001A6100221A7501225A757047C8000020D2
:1031400000007041CDCC4C3E10B50146084B1C68C8
:1031500001232375A06807F0C9FA0146E06807F06B
:10316000A1FA01466060034BD86900F0E5FC10BD90
:10317000C80000209403002038B50446094D2846B5
:1031800004F068F92046FFF7DFFF052002F056FD46
:103190002046FFF7D9FF052005F05AF8284604F02D
:1031A00017F938BDD407002038B5154B0022DA6076
:1031B0001A61144A5A61144A1A62144A9A61144AEA
:1031C0005A62144ADA61144A9A6200245C72DC6220
:1031D0001C86C3F83240DC869C639C87C3F83E4063
:1031E000A3F842401C605C601C720C4D0922294609
:1031F0000B4804F087FF2C606C602C7238BD00BF58
:10320000F4020020000062430080C8430000ED4348
:10321000000092430000B34300008E43EC06002000
:1032200084090020092900D0704738B50446037886
:10323000EE2B00D038BD431813F8013CFF2BF9D119
:10324000454D0A460146284609F0AFFC63786B728B
:103250006B7A043B102BEDD801A252F823F000BF8B
:103260001B330008353200083532000835320008BB
:103270003532000835320008353200083532000892
:103280003532000835320008353200083532000882
:10329000A5320008BF320008CF320008DD32000836
:1032A000EF3200080023052BC4DC9A1CA15C01F05E
:1032B0000F01294A1A4482F82C100133F3E7264BF8
:1032C000D4F80220C3F83220E288DA86B2E7224B33
:1032D000D4F802009863E2889A87ABE71E4BD4F8D3
:1032E0000220C3F83E20E288A3F84220A2E7A37898
:1032F000002B9FD1E378002B9CD12379002B99D10F
:103300006379002B96D1A379002B93D1E379002B1D
:1033100090D1124B01221A708CE7A378E27842EA2E
:10332000032207EE902AB8EE677A2179637943EA9F
:10333000012307EE903AF8EE677AB2F5207FBFF4EA
:1033400079AFB3F5F07FBFF475AF034B83ED037A2C
:10335000C3ED047A6EE700BFF4020020F002002003
:10336000104A5169104B196092695A600F481861F0
:103370000F4A5A619861DA6100219960DFF840C014
:10338000C3F80CC018625A620A4A9A62002283F893
:103390002C2083F82D20084B19605960074999604B
:1033A0001A7370479403002048030020A3739842C7
:1033B0005D8CCF4200002841380300200000F0411E
:1033C000F4F5CB43324BD3ED047A93ED057AF5EE69
:1033D000C07AF1EE10FA23DDDFED2E6AF4EEE67A24
:1033E000F1EE10FA09D5B5EEC07AF1EE10FA04DD6F
:1033F000B4EEE67AF1EE10FA2CD4DFED266AF4EEA4
:10340000E67AF1EE10FA0BD5DFED236AB4EEE67A38
:10341000F1EE10FA04DDB5EEC07AF1EE10FA19D42F
:10342000DFED1C6AF4EEE67AF1EE10FA2ADDDFED4C
:103430001B6AF4EEE67AF1EE10FA10D5B5EEC07A1A
:10344000F1EE10FA0BDDDFED136AB4EEE67AF1EE81
:1034500010FA04D50E4B002283F82D207047DFEDC3
:103460000F6AF4EEE67AF1EE10FA0BD5DFED0A7A88
:10347000B4EEE77AF1EE10FA04DDB5EEC07AF1EEC3
:1034800010FA00D47047024B012283F82D20F9E78F
:103490004803002000003443000034C30000B4435C
:1034A00038B52DED0A8B07EE100A07EE901A9FED46
:1034B000626A27EE067ADFED616A87EE267A17EEFA
:1034C000105A67EE867AC7EEA67A17EE904A28461B
:1034D00007F07AF809EE900A9FED59AA69EE8A9AE8
:1034E000DFED588A79EEE89A284607F0A3F809EE4E
:1034F000100A29EE0A9ADFED54AA39EE2A9A2046DC
:1035000007F062F808EE100A28EE0A8A38EE288AD8
:10351000204607F08FF808EE900A68EE8A8A78EE67
:10352000AA8A78EE69CA6CEEAC7A78EEC9AA2AEE5D
:10353000AA7A77EE877A17EE904A204607F020F8AD
:1035400007EE900AB6EE00CA67EE8C7A67EEA77AAD
:103550009FED3E7A77EE677A17EE900A07F010F843
:103560000AEE100A79EE88BA6BEE8CBA39EE28BAF8
:103570002BEE0CBA204607F003F807EE900AF1EEA6
:103580006AAA8AEEA7CACCEEA7AAFFF71BFF304BA8
:1035900093F82D30002B40D12AEE0CCA3CEE2BCAFA
:1035A0002B4B83ED02CA6AEE2AAA7AEE8BAAC3EDF0
:1035B00003AA274C94ED03AAD4ED02AA7AEEE97A85
:1035C00017EE901A7AEE497A17EE900A06F0D6FFB7
:1035D00007EE900ADFED199A67EEA97A9FED169A29
:1035E00087EE897A84ED067A3AEE68AA7AEEC8AA5E
:1035F000F0EEEA7A17EE901AF0EECA7A17EE900A19
:1036000006F0BCFF07EE900A67EEA97A87EE897A8A
:1036100084ED077ABDEC0A8B38BD2AEE0CCA7BEE2E
:10362000CCBA0B4BC3ED02BA2AEE2AAA3BEE4ABA39
:1036300083ED03BABDE700BFDB0F49400000344310
:10364000000020430000C84200000000000884473A
:103650004803002008B5134B1A6892ED097ADFED94
:10366000125A27EE257A9FED116AC7EE067A9FED72
:10367000107A77EE877AC3ED047A5A68D2ED096A38
:1036800066EEA56A86EE867ADFED0A6A37EE267A5E
:1036900083ED057A17EE101A17EE900AFFF700FF78
:1036A00008BD00BF4803002000003443DB0F494041
:1036B000A37398425D8CCF4210B52DED048B444B23
:1036C00093ED086A93ED047A36EE476AF0EEC67A17
:1036D000D3ED0A5AF4EEE57AF1EE10FA48D500225D
:1036E00083F82C203A4BD3ED096AD3ED057A76EEB8
:1036F000E76AB0EEE65AF4EEC55AF1EE10FA11DCC4
:10370000F2EE054AB4EEE45AF1EE10FA54D59FED0C
:10371000315A65EE855AF5EEC06AF1EE10FA48DDD1
:10372000F0EE656A37EE067A37EEA68ADFED2A7A82
:1037300037EE677A9FED299A27EE097ADFED288A1E
:10374000234CC7EE287A17EE901A206800F0F4F99F
:10375000DFED247A78EE677A67EE897AC7EEA87A89
:1037600017EE901A606800F0E7F9BDEC048B10BD0D
:10377000F2EE036AF4EEE67AF1EE10FA0ED5DFED22
:10378000157A65EEA77AB5EEC06AF1EE10FA02DDA1
:10379000B0EE676AA6E7B1EE676AA3E7B5EEC06A66
:1037A000F1EE10FA02DDB0EE656A9BE7B1EE656AF4
:1037B00098E7F1EE656AB5E7F5EEC06AF1EE10FA4A
:1037C00002DDF0EE656AADE7F1EE656AAAE700BFDB
:1037D00048030020CDCCCC3EA3739842DB0F494078
:1037E000000034435D8CCF4208B5054B1862596226
:1037F000012283F82C20034803F0EAFD08BD00BF36
:1038000048030020D407002008B5FCF735FE0DA3BF
:10381000D3E90023FCF7B2FF0022094BFCF7CEFCF2
:10382000FDF732F981B201F50061822340F63402DE
:1038300009B2022000F098FC08BD00BFAFF3008081
:103840000000E03F918EDB815490C33F08B5084BE8
:10385000D3ED017A9FED077A77EE877A064B93EDE9
:10386000067A77EEC77A17EE900AFFF7CDFF08BD0C
:1038700038030020A37398424803002008B5034B87
:103880005860034803F0A4FD08BD00BF38030020C2
:10389000D407002038B5104D284603F0DBFD012485
:1038A0000E4B1C73C82340F6485240F67D0120465B
:1038B00000F05AFC032004F0CBFCC82340F6485229
:1038C00040F67D01204600F04FFC0A2004F0C0FCC9
:1038D000284603F07DFD38BDD407002038030020C2
:1038E00010B5104C204603F0B5FD0F4B00221A73A3
:1038F000C82340F6485240F6B831012000F034FCAD
:10390000032004F0A5FCC82340F6485240F6B83125
:10391000012000F029FC0A2004F09AFC204603F064
:1039200057FD10BDD4070020380300200346084689
:103930000B70C3F307224A70C3F307428A70C3F3C4
:103940000763CB707047000030B583B004460D4B61
:1039500008221A6104229A600022DA6082685A60A2
:1039600002F066F900F16405224652F80C0B01AB37
:10397000044902F0E7FA18B102F05AF9A842F3D963
:1039800003B030BD7C03002001600272064B1B783F
:10399000A0F80930C37A23F0E003C372012380F852
:1039A0005430002383717047CC00002008B5C37ADF
:1039B000032262F30403C3720B4B1B78A0F8093097
:1039C000C37A23F0E003C372002304E0C21800218D
:1039D00011730133DBB2072BF8D9FFF7B5FF0A20CB
:1039E00004F036FC08BD00BFCC00002038B504460A
:1039F0000D46C37A122262F30403C3720D4B1B7887
:103A0000A0F80930C37A23F0E003C372002303E077
:103A1000E218002010730133072BF9DD47F205038C
:103A2000A38125742046FFF78FFFA5710A2004F0BB
:103A30000FFC38BDCC00002008B5C37A042262F325
:103A40000403C3720B4B1B78A0F80930C37A23F030
:103A5000E003C372002304E0C21800211173013394
:103A6000DBB2072BF8D9FFF76FFF0A2004F0F0FB59
:103A700008BD00BFCC00002008B5C37A062262F35F
:103A80000403C3720B4B1B78A0F80930C37A23F0F0
:103A9000E003C3720123037304E0C2180021117311
:103AA0000133DBB2072BF8D9FFF74EFF0A2004F0F1
:103AB000CFFB08BDCC00002010B590F80BC012243D
:103AC00064F3040C80F80BC0084C94F800C0A0F814
:103AD00009C090F80BC02CF0E00C80F80BC081817D
:103AE00012680261FFF730FF10BD00BFCC0000205C
:103AF00008B5C37A112262F30403C3720A4B1B7820
:103B0000A0F80930C37A23F0E003C3728181022355
:103B100004E0C218002111730133DBB2072BF8D97E
:103B2000FFF712FF08BD00BFCC00002008B547F228
:103B30001901FFF7DDFF08BD30B583B00446084624
:103B400001AD2946FFF7F2FE2A4647F2160120464C
:103B5000FFF7B2FF03B030BD30B583B0044608466E
:103B600001AD2946FFF7E2FE2A4647F2170120463B
:103B7000FFF7A2FF0A2004F06BFB03B030BD30B5A5
:103B800083B0044607EE901AB3EE0E7AF4EEC77ACD
:103B9000F1EE10FA09DCBBEE0E7AF4EEC77AF1EE24
:103BA00010FA04D5FBEE0E7A01E0F3EE0E7A01ADC9
:103BB000294617EE900AFFF7B9FE2A4647F20A0196
:103BC0002046FFF779FF03B030BD30B583B004461F
:103BD000084601AD2946FFF7A9FE2A4647F218011B
:103BE0002046FFF769FF0A2004F032FB03B030BD26
:103BF00010B504460B784A7843EA022347F21902CB
:103C0000934204D047F21B02934231D010BDCA79CF
:103C10008B791B0443EA02634A7943EA02230A7957
:103C2000134307EE903A027A012A01D0032A03D106
:103C300007EE903AF1EE677AC4ED0E7A9FED1B7AAB
:103C400067EE877AC4ED107A94F8543023B10023DC
:103C500084F85430C4ED117A94ED117A37EEC77AB6
:103C600084ED137AC4ED117A01F0E2FFE063CDE751
:103C7000CA798B791B0443EA02634A7943EA022337
:103C80000A79134307EE903A027A012A01D0032AF7
:103C900003D107EE903AF1EE677AC4ED0B7A9FED0F
:103CA000037A67EE877AC4ED147AAFE700004842E2
:103CB00010B504463F2900F293800023037161711F
:103CC0001178537843EA01231BB283F400431BB2FB
:103CD000A3839178D37843EA01231BB283F4004392
:103CE0001BB2217A012901D0032901D15B421BB209
:103CF000E3831179537943EA01231BB283F4004330
:103D00001BB2238493791B021BB2D27913436384C1
:103D1000636AA362A08B00B207EE900AF8EEE77A1E
:103D200017EE900AFCF7A8FB00224FF07C53FCF73B
:103D3000FBFB00222E4BFCF7F7FB2BA3D3E9002360
:103D4000FCF7F2FBFCF7C8FE6062E08B00B207EE06
:103D5000900AF8EEE77A17EE900AFCF78DFB002246
:103D60004FF07C53FCF7E0FB0022224BFCF7DCFB1E
:103D7000FCF7B2FEE062D4ED0B7A9FED1F7A67EE9E
:103D8000877AC4ED147A208C00B207EE900AF8EE20
:103D9000E77A17EE900AFCF76FFB00224FF07C5396
:103DA000FCF7C2FB0022154BFCF7BEFBFCF794FEB0
:103DB0002063638C1BB207EE903AF8EEE77AF2EEDE
:103DC000046A87EEA67A84ED0D7A10BD49080133A6
:103DD000062B3FF774AF11F0010FF7D02371F5E711
:103DE0000123F5E7AFF3008000000060FB210940EC
:103DF0000000104000003E40000048420000284003
:103E000008B51F4B18601F4B0340FE2B08D01C4BFE
:103E1000DB7803F01F03022B12D0112B22D008BD38
:103E2000174BB3F80130DBB25A1ED2B2062AF6D8CD
:103E3000154A52F8233008684A6858619A61EEE7DB
:103E40000F4BB3F801C05FFA8CF0431EDBB2062BB8
:103E5000E5D80A464FEA1C210B4B53F82000FFF728
:103E600027FFDCE7064BB3F80130DBB25A1ED2B2B3
:103E7000062AD4D8044A52F82300FFF7B9FECEE749
:103E800078030020FF00001F9403002038B505468A
:103E9000012407E02946054B53F82400FFF7A6FD4F
:103EA0000134E4B2042CF5D938BD00BF94030020DE
:103EB00010B5012406E0054B53F82400FFF776FD0A
:103EC0000134E4B2042CF6D910BD00BF94030020E5
:103ED00010B5012406E0054B53F82400FFF7ACFDB4
:103EE0000134E4B2042CF6D910BD00BF94030020C5
:103EF00010B5FFF7EDFF094C2046FFF7BDFD04F1BB
:103F00005800FFF7B9FD04F1B000FFF7B5FD04F567
:103F10008470FFF7B1FDFFF7CBFF10BDBC0400209C
:103F200038B5184A184B536003F15801916003F1FA
:103F3000B001D16003F584731361012408E02246C7
:103F40001249104B53F82400FFF71EFD0134E4B270
:103F5000042CF4D9FFF7CCFF01240DE0094D4FF0FC
:103F6000824155F82400FFF7F7FD094955F8240070
:103F7000FFF72BFE0134E4B2042CEFD90220FFF747
:103F800085FF38BD94030020BC0400207806002083
:103F90000000B84138B52DED048B06EE901A06EE00
:103FA000103A089C07EE900AB1EE677ADFED187AB6
:103FB00086EEA79A06EE902AF1EE666AC6EEA78A0A
:103FC00086EE278A134DC7EE277A17EE901A686897
:103FD000FFF7D5FD204604F03BF919EE101AA8684A
:103FE000FFF7CDFD204604F033F918EE901AE8688B
:103FF000FFF7C5FD204604F02BF918EE101A2869CA
:10400000FFF7BDFD204604F023F9BDEC048B38BD5D
:10401000000048429403002008B5392002F07CFAE1
:1040200008BD000010B5392002F072FA054C2122BB
:104030002146054804F066F821220021204608F0B8
:1040400025FD10BD1C0700203C09002038B50546A1
:10405000052407E02946054B53F82400FFF7C6FC6A
:104060000134E4B2062CF5D938BD00BF940300201A
:1040700038B5144A144B536158339361052408E052
:10408000224612490F4B53F82400FFF77DFC013400
:10409000E4B2062CF4D905240DE00A4D4FF082411C
:1040A00055F82400FFF758FD094955F82400FFF79B
:1040B0008CFD0134E4B2062CEFD90120FFF7C6FFD6
:1040C00038BD00BF940300200C04002050060020DF
:1040D0000000A04108B50146024BD869FFF786FCF5
:1040E00008BD00BF9403002010B5094C0948E061E9
:1040F00007220949FFF748FC0849E069FFF72CFD52
:104100000749E069FFF761FD0120FFF7E3FF10BDFC
:1041100094030020B403002050060020000040411A
:104120000000A04108B5FFF7FBFEFFF7A1FFFFF776
:10413000DBFF00F093F808BD00231A4605E010F8F5
:1041400003C06244D2B20133DBB28B42F7D3D04317
:10415000C0B2704708B50A460A230146014803F079
:1041600090FE08BDCC0900202DE9F04F8BB006462B
:104170000193022856D001285FD040F648539A4256
:1041800000D91A465FFA81F9C1F307255FFA82F870
:10419000140AFF238DF818308DF819308DF80C6053
:1041A0004FF00A0B8DF80DB04FF0030A8DF80EA0FA
:1041B0004FF029038DF80F30019B8DF810308DF8EA
:1041C00011908DF8125000278DF813708DF814702F
:1041D0008DF815808DF816400B2103A8FFF7ACFF72
:1041E0008DF81A608DF81BB08DF81CA04FF02902D5
:1041F0008DF81D20019B8DF81E308DF81F908DF8D5
:1042000020508DF821708DF822708DF823808DF864
:1042100024408DF825000E2106A8FFF79BFF0BB068
:10422000BDE8F08F40F28E73994210DD40F699435D
:104230009942A2DD40F699419FE7B1F5006F09DB95
:1042400040F6B833994298DD40F6B83195E740F230
:104250008F7192E74FF400618FE7000070B5442042
:1042600007F068FD0446974B1860442007F062FD94
:10427000954B1860442007F05DFD944B1860442076
:1042800007F058FD924B1860442007F053FD914B06
:104290001860442007F04EFD8F4B1860442007F053
:1042A00049FD8E4B1860442007F044FD8C4B18608C
:1042B000442007F03FFD8B4B1860442007F03AFD87
:1042C000894B1860442007F035FD884B1860442066
:1042D00007F030FD864B1860F4B1864B2360794EB1
:1042E0003468854B6360854BA360854BE360002594
:1042F00025616561834BA361E36101F099FC206254
:10430000336800225A629A62DA621A635D639D63BF
:10431000DD63012283F840206B4B1B68F3B17A4ABE
:104320001A60694E3468744B6360784BA360744BB9
:10433000E360002525616561724BA361E36101F0D3
:1043400077FC2062336800225A629A62DA621A634A
:104350005D639D63DD63012283F840205B4B1B6836
:10436000FBB16B4A1A60594E3468634B6360694B0A
:10437000A360634BE360002525616561664BA36123
:10438000664BE36101F054FC2062336800225A62FC
:104390009A62DA621A635D639D63DD63012283F8CA
:1043A00040204B4B1B68FBB15D4A1A60484E346895
:1043B000514B63605B4BA360514BE360002525616B
:1043C0006561594BA361594BE36101F031FC2062F7
:1043D000336800225A629A62DA621A635D639D63EF
:1043E000DD63012283F840203A4B1B68FBB1504A41
:1043F0001A60384E34684F4B63604F4BA360404B9C
:10440000E3600025256165614C4BA3614C4BE36182
:1044100001F00EFC2062336800225A629A62DA626E
:104420001A635D639D63DD63012283F840202A4B9C
:104430001B68FBB1434A1A60274E34682E4B6360F9
:10444000414BA3602E4BE3600025256165613F4B26
:10445000A3613F4BE36101F0EBFB20623368002274
:104460005A629A62DA621A635D639D63DD630122B8
:1044700083F84020194B1B68FBB1364A1A60174E6F
:104480003468354B6360354BA3601D4BE3600025FA
:1044900025616561324BA361324BE36101F0C8FBDA
:1044A0002062336800225A629A62DA621A635D639C
:1044B0009D63DD63012283F84020094B1B68002BBC
:1044C00072D051E04806002044060020400600203B
:1044D0003C0600203806002034060020300600206C
:1044E0002C0600202806002024060020200600209C
:1044F0001C060020333383406F12833AA4709D3F23
:10450000BC74933C000096448FC28540E17AB43F6E
:104510009A99E9404260253F0000824200005C43D6
:104520000000F0401F851B400000204300000244B3
:1045300066664E410AD7A33CCDCC8C400000484370
:10454000000043443333C340D7A3F03E0000484249
:1045500000009643CDCC0C400AD7233C3D0AD73E01
:104560000000E1430000EB43554A1A60554E3468A1
:10457000554B6360554BA360554BE36000252561A7
:104580006561544BA361544BE36101F051FB206220
:10459000336800225A629A62DA621A635D639D632D
:1045A000DD63012283F840204C4B1B68FBB14C4A71
:1045B0001A604A4E3468444B63604A4BA360444BD4
:1045C000E360002525616561474BA361474BE361CB
:1045D00001F02EFB2062336800225A629A62DA628E
:1045E0001A635D639D63DD63012283F84020404BC5
:1045F0001B68FBB13F4A1A603D4E34683E4B636016
:104600003E4BA360324BE3600025256165613C4B66
:10461000A3613C4BE36101F00BFB20623368002295
:104620005A629A62DA621A635D639D63DD630122F6
:1046300083F84020344B1B68F3B1344A1A60324E81
:1046400034682D4B6360324BA360214BE36000253F
:10465000256165611F4BA361E36101F0E9FA206206
:10466000336800225A629A62DA621A635D639D635C
:10467000DD63012283F84020264B1B68FBB1184AFA
:104680001A60244E3468104B6360164BA360104BC5
:10469000E360002525616561134BA361134BE36162
:1046A00001F0C6FA2062336800225A629A62DA6226
:1046B0001A635D639D63DD63012283F8402070BD52
:1046C000000020402C0600200AD7233C8FC2753EF4
:1046D000BC74933C0000E1430000EB43280600203B
:1046E0000000C040D7A3F03E000082420000964385
:1046F00024060020CDCC90416F12833A14AE37408F
:10470000000016440000E144200600201F850B40F5
:10471000AE47613E1C06002098B138B5044600251E
:104720000561456101F084FA206200236362A3629F
:10473000E36223636563A563E563012384F8403086
:1047400038BD704710B52DED028B044690F840300F
:10475000002B40F0928008EE901A08EE102A01F02B
:1047600067FA236AC31A07EE903AF8EE677A9FED6C
:10477000597A87EE875A206284ED035A78EEC87A18
:1047800094ED007A27EE277A94ED046A65EE276AA5
:1047900036EE266A84ED046AD4ED016AF5EE406ACD
:1047A000F1EE10FA1CD0D4ED065AC5EEA64AB4EECE
:1047B000E46AF1EE10FA69DDC4ED044AF4EEC75A7A
:1047C000F1EE10FA6CD5F5EEC07AF1EE10FA67DD75
:1047D00094ED046ADFED405A26EE256A84ED046A02
:1047E00094ED046A26EE866AB5EEC05AF1EE10FA30
:1047F00063DDD4ED055A77EEE55AC5EE856ADFED47
:10480000375A66EEA56AD4ED0E5ADFED354A65EEED
:10481000A45A76EEA56AC4ED0E6AD4ED025A65EE8E
:10482000A66A37EE067A37EE267AD4ED066AF4EEFB
:10483000C76AF1EE10FA08D4F1EE666AF4EEC76AC0
:10484000F1EE10FA01DCF0EE476A94ED077A94ED90
:104850000D6A76EEC65A25EE077AB4EEE57AF1EEE9
:1048600010FA2DD576EE076AC4ED0D6AC4ED057A0F
:1048700016EE900ABDEC028B10BD002380F840308C
:1048800001F0D6F92062DFED176AF1E7F1EE644A34
:10489000B4EEE46AF1EE10FA90D5C4ED044A8DE767
:1048A000F1EE655AF4EEC75AF1EE10FA98DDF5EE26
:1048B000C07AF1EE10FA93D58AE7DFED0A6A9EE737
:1048C000B1EE475AF4EEC55AF1EE10FACCD576EEB9
:1048D000476AC9E700007A446666663FCDCC4C3F24
:1048E000CDCC4C3E0000000010B52DED028B0446EF
:1048F00090F84030002B40F0928008EE901A08EEBD
:10490000102A01F095F9236AC31A07EE903AF8EEDF
:10491000677A9FED597A87EE875A206284ED035AB1
:1049200078EEC87A94ED007A27EE277A94ED046A3F
:1049300065EE276A36EE266A84ED046AD4ED016AD4
:10494000F5EE406AF1EE10FA1CD0D4ED065AC5EE31
:10495000A64AB4EEE46AF1EE10FA69DDC4ED044A49
:10496000F4EEC75AF1EE10FA6CD5F5EEC07AF1EE1E
:1049700010FA67DD94ED046ADFED405A26EE256AF1
:1049800084ED046A94ED046A26EE866AB5EEC05A98
:10499000F1EE10FA63DDD4ED055A77EEE55AC5EE77
:1049A000856ADFED375A66EEA56AD4ED0E5ADFED63
:1049B000354A65EEA45A76EEA56AC4ED0E6AD4EDCA
:1049C000025A65EEA66A37EE067A37EE267AD4EDFD
:1049D000066AF4EEC76AF1EE10FA08D4F1EE666AE0
:1049E000F4EEC76AF1EE10FA01DCF0EE476A94EDDE
:1049F000077A94ED0D6A76EEC65A25EE077AB4EE84
:104A0000E57AF1EE10FA2DD576EE076AC4ED0D6A5F
:104A1000C4ED057A16EE900ABDEC028B10BD0023A2
:104A200080F8403001F004F92062DFED176AF1E709
:104A3000F1EE644AB4EEE46AF1EE10FA90D5C4EDFA
:104A4000044A8DE7F1EE655AF4EEC75AF1EE10FA1A
:104A500098DDF5EEC07AF1EE10FA93D58AE7DFED36
:104A60000A6A9EE7B1EE475AF4EEC55AF1EE10FA23
:104A7000CCD576EE476AC9E700007A446666663FA1
:104A8000CDCC4C3FCDCC4C3E0000000008B50C48CE
:104A90000C4B03600923436000238360C3604FF421
:104AA000003202614361037643768376C3760377EF
:104AB000437701F0D7F800B908BD00F0E5FBFBE74C
:104AC000780600200064004008B50C480C4B0360D9
:104AD0000923436000238360C3604FF40032026106
:104AE0004361037643768376C3760377437701F099
:104AF000B9F800B908BD00F0C7FBFBE7500600207D
:104B00000068004010B58AB0002305930693079310
:104B10000893099303683E4A934204D03D4A934266
:104B200034D00AB010BD3C4A136801331360012B26
:104B30001FD000240194394B1A6B42F008021A630B
:104B40001B6B03F008030193019B032305930222CF
:104B5000069208930923099305A9314801F0E4FE60
:104B600022460521142001F0C3FC142001F0D0FCE2
:104B7000D7E700230093294B1A6C42F000721A64A5
:104B80001B6C03F000730093009BD2E70023029399
:104B9000224B1A6C42F080621A641B6C03F0806333
:104BA0000293029B1C4A136801331360012B21D02E
:104BB00000240494194B1A6B42F002021A631B6B17
:104BC00003F002030493049B4FF440530593022324
:104BD0000693032308930923099305A9114801F0BB
:104BE000A3FE22460621402001F082FC402001F075
:104BF0008FFC96E700230393084B1A6C42F0007277
:104C00001A641B6C03F000730393039BD0E700BF8F
:104C100000640040006800404C060020003802405C
:104C2000000C02400004024070B58AB000240594D4
:104C3000069401250795009401940294039404942A
:104C400008956946094801F0B3F80E2305930694C8
:104C5000079500940194029403940494089569467E
:104C6000034801F0A5F80AB070BD00BF7806002027
:104C70005006002010B582B000240094164B1A6B29
:104C800042F480021A631A6B02F480020092009AC6
:104C900001941A6B42F400121A631B6B03F40013A5
:104CA0000193019B224605210C2001F021FC0C20E0
:104CB00001F02EFC224606210E2001F019FC0E20E8
:104CC00001F026FC22460721392001F011FC392091
:104CD00001F01EFC02B010BD0038024008B512E021
:104CE0001F48C368826841680068FDF72BFE1C4BB3
:104CF00000229A740122DA741A4B186803F043FBFD
:104D00000A2003F0A5FA164B9B7C002BF8D0144B1D
:104D1000DB7C002BF4D1124B5B7C032BE7D801A288
:104D200052F823F0E14C0008354D0008414D0008D1
:104D3000514D00080A4BD968187CFDF7D7FED6E71D
:104D40000748C368826841680068FEF797F8CEE7B5
:104D50000348C368826841680068FEF741F9C6E706
:104D6000BC060020A406002008B510E0FBF7CAFF2F
:104D70001D4B00221A7101225A711C4802F06AFB75
:104D80001B4B186803F0FFFA0A2003F061FA164B78
:104D90001B79002BF8D0144B5B79002BF4D113480E
:104DA00002F016FB104BDB78032BE1D801A252F87E
:104DB00023F000BF6D4D0008C54D0008CF4D000821
:104DC000D94D0008084B1878FBF7B4FFD0E7064B25
:104DD0001878FCF769FACBE7034B9A78597818787A
:104DE000FCF7ECFBC4E700BFB4060020D4070020AA
:104DF000A006002008B5FFF795F9FBF777FF00F054
:104E00004FFD3C2003F024FA00F04AFD4FF4FA6015
:104E100003F01EFA00F0F4FA4FF47A7003F018FA77
:104E2000FAE7000008B5124A0121084603F01EFA0D
:104E3000104B1860104A0121084603F017FA0F4B77
:104E400018600F4A00210F4803F0A8F90E4B1860B4
:104E50000E4A00210E4803F0A1F90E4B18600E4ACD
:104E600000210E4803F09AF90D4B186008BD00BFF1
:104E7000E4E60008A4060020D4E60008A00600200E
:104E80003CE70008DD4C0008B006002018E70008E9
:104E9000694D0008AC060020F4E60008F54D000856
:104EA000A80600202DE9F0418CB007AD002407943E
:104EB000089409940A940B9400943A4B1A6B42F0AC
:104EC00010021A631A6B02F010020092009A019409
:104ED0001A6B42F040021A631A6B02F04002019210
:104EE000019A02941A6B42F001021A631A6B02F0E3
:104EF00001020292029A03941A6B42F008021A63AA
:104F00001A6B02F008020392039A04941A6B42F09F
:104F100020021A631A6B02F020020492049A05948C
:104F20001A6B42F080021A631A6B02F0800205923B
:104F3000059A06941A6B42F002021A631B6B03F087
:104F400002030693069B184E22460121304601F0CB
:104F5000EFFD164F01224FF40061384601F0E8FDE5
:104F600001224FF48041304601F0E2FD44F201039A
:104F700007934FF00108CDF8208009940A94294640
:104F8000304601F0D1FC4FF400630793CDF8208048
:104F900009940A942946384601F0C6FC0CB0BDE8D5
:104FA000F08100BF003802400014024000100240AF
:104FB00010B58AB0044601AB03AA002101F037F80E
:104FC00030B923680B4A934204D00B4A934209D06C
:104FD0000AB010BD059B042BFAD101A90498FEF775
:104FE0000FFFF5E7059B042BF2D101A90498FEF70A
:104FF00007FFEDE7006400400068004038B57A4BD9
:1050000098420BD0794B984200F0DB80784B984265
:1050100003D0784B984200F0D88038BD00F008FEED
:10502000754B1860754D764CAC46BCE80F000FC44C
:10503000BCE80F000FC4DCF80030237021220021EF
:10504000284607F023FD002390E0591C6C48415C82
:10505000532940F09280D91D415C090209B29C1D80
:10506000005D014307EE901AF8EEE77A9FED657A4E
:1050700067EEC77A9FED647A67EE877A6349C1ED80
:10508000007A6349D1ED007AF4EEC77AF1EE10FAB6
:1050900045D59FED607AF4EEC77AF1EE10FA3EDD69
:1050A0005A49D1ED006A9FED5C7AF4EEC76AF1EEE1
:1050B00010FA34D5D1ED006A9FED587AF4EEC76A44
:1050C000F1EE10FA2BDD56480168013101604F49BD
:1050D00091ED007ADFED4C7AB4EE677AF1EE10FADA
:1050E0004BD091ED007ADFED4D7AB4EE677AF1EEB8
:1050F00010FA42D04A49D1ED007AF8EEE77A9FEDF6
:10510000497A67EE877A414991ED007A77EE877A9E
:105110004548C0ED007A08683D4908602DE09FEDE4
:105120003E7AF4EEC77AF1EE10FAD0D59FED3B7AD5
:10513000F4EEC77AF1EE10FAC9DD344991ED007A48
:10514000DFED347AB4EEE77AF1EE10FABFDD91EDDF
:10515000007ADFED2D7AB4EEE77AF1EE10FAB6D5EB
:105160002F48016801390160B1E70133192B22DCB6
:10517000234AD25C552A3FF468AF552AF5D15A1C10
:105180001F498A5C522AF0D1DA1D8A5C120212B2DF
:10519000981D095C0A4307EE902AF8EEE77A9FED26
:1051A000197A67EEC77A9FED217A67EE877A204AEF
:1051B000C2ED007AD9E7212210490B4802F0A2FF84
:1051C0002BE71C4B01221A7027E71B4C09212046B4
:1051D000FEF728F80023236063602372092221462A
:1051E000044802F08FFF18E73C090020140A002051
:1051F000CC09002084090020DC0600201C070020C8
:10520000F80600200000003800003443E8060020C3
:10521000D80600200000B4420000B4C2000034C32D
:10522000D40600200000B443E40600200000FA4445
:10523000E00600203D070020EC06002008B50368CA
:105240000E4A934203D00E4A934203D008BD00F0A9
:10525000E3FCFBE70B4B1B783BB1012BF6D1FEF7D0
:105260002BFA084B00221A70F0E7FEF7F3F9FEF76D
:10527000EDFA044B01221A70E8E700BF0014004069
:10528000000C0040D006002072B6FEE710B594B0C6
:1052900008AC30220021204607F0F8FB00230393DE
:1052A00004930593069307930193234A116C41F0ED
:1052B00080511164126C02F080520192019A0293A3
:1052C0001E4B1A6842F440421A601B6803F44043C4
:1052D0000293029B012308934FF480330993022326
:1052E0000E934FF480020F9206221092B422119274
:1052F000129304231393204601F05EFCA8B901F039
:105300001DFCA0B90F2303930223049300230593EC
:105310004FF4A05306934FF480530793052103A83D
:1053200001F09AFE28B914B010BDFFF7ADFFFFF7EA
:10533000ABFFFFF7A9FF00BF00380240007000403C
:1053400008B500F04FFCFFF7A1FFFFF7ABFDFFF73B
:1053500091FC00F0CDFA00F0E5FA00F017FBFFF742
:1053600095FB00F045FA00F0A7F9FFF7ADFB00F060
:10537000F3FA114C09222146104802F0C3FE002323
:10538000236063602372FFF74FFC0D4C204600F052
:10539000ABFD0221204600F0FFFE0A4C204600F043
:1053A000A3FD0221204600F0F7FE02F0C9FEFFF740
:1053B00039FD02F0D7FEFEE7EC060020840900204C
:1053C000780600205006002030B50D46002110E080
:1053D0000133621A9A420BDD10F803C05A1C10F810
:1053E00002E0F445F4D900F803E000F802C0EFE76A
:1053F00001316C1E8C4201DD0023EAE730BD000064
:1054000010B50220FCF73AF8234C4FF0FF3120682A
:1054100002F085FF0320FCF731F84FF0FF312068E0
:1054200002F07DFF0420FCF729F84FF0FF312068DF
:1054300002F075FF0520FCF721F84FF0FF312068DE
:1054400002F06DFF0620FCF719F84FF0FF312068DD
:1054500002F065FF0720FCF711F84FF0FF312068DC
:1054600002F05DFF0820FCF709F84FF0FF312068DB
:1054700002F055FF0920FCF701F84FF0FF312068DA
:1054800002F04DFF054C03212046FFF79DFF20460B
:10549000FCF71EF810BD00BFA4060020D0000020BD
:1054A00000B583B0002200920D4B596C41F480414D
:1054B0005964596C01F48041009100990192196C72
:1054C00041F0805119641B6C03F080530193019BE0
:1054D0000F216FF0010001F00BF803B05DF804FB41
:1054E0000038024030B589B0044600230193214BB7
:1054F0001A6C42F020021A641B6C03F02003019323
:10550000019B02A903A801F07DFE069BCBB901F027
:1055100059FE0346184AA2FB03239B0C013B174884
:10552000174A026040F2E732C26043600023036121
:105530008360836102F0C6F8054630B1284609B0A1
:1055400030BD01F03FFE4300E4E70C4801F040FFAE
:1055500005460028F2D1372000F0DAFF0F2C01D9E0
:105560000125EBE700222146372000F0C1FF054B63
:105570001C60E3E70038024083DE1B434007002045
:1055800000140040DC000020FEE7FEE7FEE7FEE737
:10559000FEE7704708B5024801F0D8F808BD00BF23
:1055A0007C08002008B5024801F0D0F808BD00BF13
:1055B000DC08002008B5024800F00CFE08BD00BF62
:1055C0007806002008B5024801F061FF08BD00BF61
:1055D000D407002008B5024801F059FF08BD00BFFC
:1055E0004007002008B5024801F0B0F808BD00BF30
:1055F0001C08002008B5024800F0ECFD08BD00BF03
:10560000500600200120704708B507F0A1FA1623C4
:1056100003604FF0FF3008BD08B54FF0FF31FFF7D2
:10562000F3FFFEE770B50C461646002506E0AFF323
:105630000080214601F8010B01350C46B542F6DB2E
:10564000304670BD4FF0FF3070474FF400534B6051
:1056500000207047012070470020704710B50346B6
:105660000C4A0D490D48006840B10C4800680344DD
:10567000521A934206D8094A136010BD0748084CD5
:105680000460F2E707F064FA0C2303604FF0FF3088
:10569000F3E700BF0000032000040000880700209B
:1056A00000550020034AD2F8883043F47003C2F852
:1056B0008830704700ED00E000B587B0002302930A
:1056C000039304930593009301931548154A0260D0
:1056D00059224260836040F6C312C2600361836155
:1056E00001F0F0FF90B94FF48053029302A90C48E7
:1056F00002F0F3F868B90023009301936946084863
:1057000002F03EFA40B907B05DF804FBFFF7BCFDBC
:10571000E9E7FFF7B9FDEEE7FFF7B6FDF3E700BFF6
:10572000D4070020000C004002680E4B9A4200D0C3
:10573000704700B583B00022019203F50B33196C5A
:1057400041F0080119641B6C03F008030193019BED
:105750000621322000F0CCFE322000F0D9FE03B04A
:105760005DF804FB000C00400268094B9A4200D02F
:10577000704782B000230193064B1A6C42F040023E
:105780001A641B6C03F040030193019B02B0704745
:10579000001800400038024000B587B00023019394
:1057A000029303930493059302680E4B9A4202D02E
:1057B00007B05DF804FB002300930B4B1A6B42F01B
:1057C00080021A631B6B03F080030093009B40234D
:1057D0000193022302930923059301A9034801F0D1
:1057E000A3F8E5E70018004000380240001C024022
:1057F00000B589B0002301930293039304930593AA
:10580000069307931148124A02604360836048F28E
:105810003422C2600361836101F080FF80B960239C
:105820000193002202920392059201A9074801F018
:10583000D9FF40B90548FFF7AFFF09B05DF804FB99
:10584000FFF722FDEBE7FFF71FFDF3E78C070020D2
:1058500000180040642800D96420054BDA6802FB78
:105860000000044AA2FB002040091B6858637047EF
:105870008C0700201F85EB5108B53220FFF7EAFFA7
:105880000021024802F0B8F808BD00BF8C070020D4
:1058900008B50021014802F02DF908BD8C07002051
:1058A00008B5FFF7E9FF282002F0D2FCFFF7F0FF70
:1058B00008BD000000B583B001904FF6FF730122D0
:1058C00001A9034802F0DDFA019803B05DF804FB7A
:1058D000140A002070B50C461646002504E014F8A2
:1058E000010BFFF7E7FF0135B542F8DB304670BD2D
:1058F00008B50A480A4B03604FF4E13343600023C4
:105900008360C36003610C2242618361C36102F062
:1059100088FA00B908BDFFF7B7FCFBE7140A0020BE
:105920000078004008B50A480A4B03604FF4E133A1
:10593000436000238360C36003610C224261836182
:10594000C36102F06EFA00B908BDFFF79DFCFBE7EA
:10595000CC090020007C004008B50A480A4B0360CF
:105960004FF4E133436000238360C36003610C2282
:1059700042618361C36102F054FA00B908BDFFF7C8
:1059800083FCFBE7840900200048004008B50A4872
:105990000A4B03604FF4E133436000238360C3602C
:1059A00003610C2242618361C36102F03AFA00B9DB
:1059B00008BDFFF769FCFBE73C090020001401402B
:1059C00030B58FB00446002309930A930B930C93D0
:1059D0000D930368754A93420BD0754A934245D0A4
:1059E000744A934264D0744A934200F0A0800FB08E
:1059F00030BD00250195714B1A6C42F080421A644B
:105A00001A6C02F080420192019A02951A6B42F0E0
:105A100010021A631B6B03F010030293029B4FF4F6
:105A2000C073099302230A9303230C9308230D9355
:105A300009A9634800F078FF6248634B03604FF0A8
:105A4000206343608560C5604FF4806303614561F6
:105A50008561C5610562456200F0DEFD18B9594BEC
:105A6000E3639C63C3E7FFF70FFCF8E700210391B2
:105A7000524B1A6C42F000421A641A6C02F0004257
:105A80000392039A04911A6B42F010021A631B6B83
:105A900003F010030493049B0323099302220A9248
:105AA0000C9308230D9309A9454800F03DFF9EE79C
:105AB00000250595414B1A6C42F480221A641A6C39
:105AC00002F480220592059A06951A6B42F00802AC
:105AD0001A631B6B03F008030693069B4FF4407395
