:020000040800F2
:1000000000000320B1A00008495100084B5100082E
:100010004D5100084F5100085151000800000000E8
:100020000000000000000000000000003181000816
:100030005351000800000000D18100080D7D000828
:1000400001A1000801A1000801A1000801A1000808
:1000500001A1000801A1000801A1000801A10008F8
:1000600001A1000801A1000801A1000801A10008E8
:100070005551000801A100086551000801A10008C0
:1000800001A100087551000801A1000801A10008A4
:100090008551000801A1000801A1000801A1000884
:1000A00001A1000801A1000801A1000801A10008A8
:1000B00001A1000801A1000801A1000801A1000898
:1000C00001A1000801A1000801A1000801A1000888
:1000D00001A1000801A1000801A1000801A1000878
:1000E00001A1000801A1000801A1000801A1000868
:1000F00001A1000801A1000801A1000801A1000858
:1001000001A1000801A100089551000801A1000803
:1001100001A1000801A1000801A10008A5510008E3
:1001200001A10008B551000801A1000801A10008C3
:1001300001A1000801A1000801A1000801A1000817
:10014000C551000801A1000801A1000801A1000893
:1001500001A1000801A1000801A1000801A10008F7
:1001600001A1000801A1000801A1000801A10008E7
:1001700001A1000801A1000801A100080000000081
:1001800001A1000801A1000801A1000801A10008C7
:1001900001A1000801A1000801A1000801A10008B7
:0C01A000000000000000000001A10008A9
:1001B00081F0004102E000BF83F0004330B54FEA18
:1001C00041044FEA430594EA050F08BF90EA020F85
:1001D0001FBF54EA000C55EA020C7FEA645C7FEA18
:1001E000655C00F0E2804FEA5454D4EB5555B8BF3B
:1001F0006D420CDD2C4480EA020281EA030382EAAC
:10020000000083EA010180EA020281EA0303362D3D
:1002100088BF30BD11F0004F4FEA01314FF4801C10
:100220004CEA113102D0404261EB410113F0004F22
:100230004FEA03334CEA133302D0524263EB4303D9
:1002400094EA050F00F0A780A4F10104D5F1200E77
:100250000DDB02FA0EFC22FA05F2801841F10001D2
:1002600003FA0EF2801843FA05F359410EE0A5F1A6
:1002700020050EF1200E012A03FA0EFC28BF4CF0D7
:10028000020C43FA05F3C01851EBE37101F000458D
:1002900007D54FF0000EDCF1000C7EEB00006EEB9A
:1002A0000101B1F5801F1BD3B1F5001F0CD3490824
:1002B0005FEA30004FEA3C0C04F101044FEA44527B
:1002C00012F5800F80F09A80BCF1004F08BF5FEA02
:1002D000500C50F1000041EB045141EA050130BDE2
:1002E0005FEA4C0C404141EB0101013C28BFB1F5F4
:1002F000801FE9D291F0000F04BF01460020B1FA3F
:1003000081F308BF2033A3F10B03B3F120020CDA11
:100310000C3208DD02F1140CC2F10C0201FA0CF0EF
:1003200021FA02F10CE002F11402D8BFC2F1200C54
:1003300001FA02F120FA0CFCDCBF41EA0C0190400A
:10034000E41AA2BF01EB0451294330BD6FEA040453
:100350001F3C1CDA0C340EDC04F11404C4F120023E
:1003600020FA04F001FA02F340EA030021FA04F350
:1003700045EA030130BDC4F10C04C4F1200220FAA7
:1003800002F001FA04F340EA0300294630BD21FAE5
:1003900004F0294630BD94F0000F83F4801306BFAB
:1003A00081F480110134013D4EE77FEA645C18BF9F
:1003B0007FEA655C29D094EA050F08BF90EA020F36
:1003C00005D054EA000C04BF1946104630BD91EA2E
:1003D000030F1EBF0021002030BD5FEA545C05D131
:1003E0004000494128BF41F0004130BD14F5800470
:1003F0003CBF01F5801130BD01F0004545F0FE41E4
:1004000041F470014FF0000030BD7FEA645C1ABF18
:10041000194610467FEA655C1CBF0B46024650EA4F
:10042000013406BF52EA033591EA030F41F400217B
:1004300030BD00BF90F0000F04BF0021704730B501
:100440004FF4806404F132044FF000054FF00001D6
:1004500050E700BF90F0000F04BF0021704730B597
:100460004FF4806404F1320410F0004548BF40426C
:100470004FF000013EE700BF42004FEAE2014FEAC1
:1004800031014FEA02701FBF12F07F4393F07F4F9C
:1004900081F06051704732F07F4208BF704793F09F
:1004A0007F4F04BF41F40021704730B54FF46074B2
:1004B00001F0004521F000411CE700BF50EA0102B5
:1004C00008BF704730B54FF000050AE050EA01025E
:1004D00008BF704730B511F0004502D5404261EBCE
:1004E00041014FF4806404F132045FEA915C3FF40F
:1004F000D8AE4FF003025FEADC0C18BF03325FEAAC
:10050000DC0C18BF033202EBDC02C2F1200300FA5C
:1005100003FC20FA02F001FA03FE40EA0E0021FA81
:1005200002F11444BDE600BF70B54FF0FF0C4CF46F
:10053000E06C1CEA11541DBF1CEA135594EA0C0F21
:1005400095EA0C0F00F0DEF82C4481EA030621EA5C
:100550004C5123EA4C5350EA013518BF52EA033597
:1005600041F4801143F4801338D0A0FB02CE4FF049
:100570000005E1FB02E506F00042E0FB03E54FF079
:100580000006E1FB03569CF0000F18BF4EF0010E71
:10059000A4F1FF04B6F5007F64F5407404D25FEA6D
:1005A0004E0E6D4146EB060642EAC62141EA555120
:1005B0004FEAC52040EA5E504FEACE2EB4F1FD0C62
:1005C00088BFBCF5E06F1ED8BEF1004F08BF5FEAE0
:1005D000500E50F1000041EB045170BD06F0004692
:1005E00046EA010140EA020081EA0301B4EB5C043F
:1005F000C2BFD4EB0C0541EA045170BD41F4801137
:100600004FF0000E013C00F3AB8014F1360FDEBF5B
:10061000002001F0004170BDC4F10004203C35DA37
:100620000C341BDC04F11404C4F1200500FA05F3BA
:1006300020FA04F001FA05F240EA020001F000425B
:1006400021F0004110EBD37021FA04F642EB0601D1
:100650005EEA430E08BF20EAD37070BDC4F10C04FB
:10066000C4F1200500FA04F320FA05F001FA04F2BF
:1006700040EA020001F0004110EBD37041F10001AB
:100680005EEA430E08BF20EAD37070BDC4F12005B6
:1006900000FA05F24EEA020E20FA04F301FA05F21E
:1006A00043EA020321FA04F001F0004121FA04F2C6
:1006B00020EA020000EBD3705EEA430E08BF20EA96
:1006C000D37070BD94F0000F0FD101F000464000D0
:1006D00041EB010111F4801F08BF013CF7D041EA52
:1006E000060195F0000F18BF704703F00046520056
:1006F00043EB030313F4801F08BF013DF7D043EA27
:100700000603704794EA0C0F0CEA135518BF95EADC
:100710000C0F0CD050EA410618BF52EA4306D1D163
:1007200081EA030101F000414FF0000070BD50EA82
:10073000410606BF1046194652EA430619D094EA0C
:100740000C0F02D150EA013613D195EA0C0F05D1F6
:1007500052EA03361CBF104619460AD181EA03014A
:1007600001F0004141F0FE4141F470014FF0000002
:1007700070BD41F0FE4141F4780170BD70B54FF09D
:10078000FF0C4CF4E06C1CEA11541DBF1CEA13551D
:1007900094EA0C0F95EA0C0F00F0A7F8A4EB0504FF
:1007A00081EA030E52EA03354FEA013100F08880F6
:1007B0004FEA03334FF0805545EA131343EA1263BF
:1007C0004FEA022245EA111545EA10654FEA002674
:1007D0000EF000419D4208BF964244F1FD0404F52D
:1007E000407402D25B084FEA3202B61A65EB030589
:1007F0005B084FEA32024FF480104FF4002CB6EB46
:10080000020E75EB030E22BFB61A754640EA0C00C5
:100810005B084FEA3202B6EB020E75EB030E22BF05
:10082000B61A754640EA5C005B084FEA3202B6EB46
:10083000020E75EB030E22BFB61A754640EA9C0005
:100840005B084FEA3202B6EB020E75EB030E22BFD5
:10085000B61A754640EADC0055EA060E18D04FEA93
:10086000051545EA16754FEA06164FEAC30343EA33
:1008700052734FEAC2025FEA1C1CC0D111F4801F00
:100880000BD141EA00014FF000004FF0004CB6E7F9
:1008900011F4801F04BF01430020B4F1FD0C88BF98
:1008A000BCF5E06F3FF6AFAEB5EB030C04BFB6EBA3
:1008B000020C5FEA500C50F1000041EB045170BD96
:1008C0000EF0004E4EEA113114EB5C04C2BFD4EBC3
:1008D0000C0541EA045170BD41F480114FF0000E47
:1008E000013C90E645EA060E8DE60CEA135594EAC3
:1008F0000C0F08BF95EA0C0F3FF43BAF94EA0C0FC6
:100900000AD150EA01347FF434AF95EA0C0F7FF43A
:1009100025AF104619462CE795EA0C0F06D152EA8E
:1009200003353FF4FDAE1046194622E750EA410672
:1009300018BF52EA43067FF4C5AE50EA41047FF483
:100940000DAF52EA43057FF4EBAE12E74FF0FF3CE8
:1009500006E000BF4FF0010C02E000BF4FF0010CB9
:100960004DF804CD4FEA410C7FEA6C5C4FEA430C32
:1009700018BF7FEA6C5C1BD001B050EA410C0CBF81
:1009800052EA430C91EA030F02BF90EA020F0020E3
:10099000704710F1000F91EA030F58BF994208BF4A
:1009A00090422CBFD8176FEAE37040F00100704707
:1009B0004FEA410C7FEA6C5C02D150EA013C07D15E
:1009C0004FEA430C7FEA6C5CD6D152EA033CD3D0A9
:1009D0005DF8040B704700BF8446104662468C46A3
:1009E0001946634600E000BF01B5FFF7B7FF0028D6
:1009F00048BF10F1000F01BD4DF808EDFFF7F4FFFF
:100A00000CBF012000205DF808FB00BF4DF808ED89
:100A1000FFF7EAFF34BF012000205DF808FB00BFAC
:100A20004DF808EDFFF7E0FF94BF012000205DF8CE
:100A300008FB00BF4DF808EDFFF7CEFF94BF012083
:100A400000205DF808FB00BF4DF808EDFFF7C4FF7C
:100A500034BF012000205DF808FB00BF4FEA410CC5
:100A60007FEA6C5C02D150EA013C0AD14FEA430CA8
:100A70007FEA6C5C02D152EA033C02D14FF00000E5
:100A800070474FF0010070474FEA410212F5001223
:100A900015D211D56FF47873B3EB625212D94FEAC5
:100AA000C12343F0004343EA505311F0004F23FAAF
:100AB00002F018BF404270474FF00000704750EA04
:100AC000013005D111F0004008BF6FF000407047C1
:100AD0004FF00000704700BF4FEA4102B2F1E0431F
:100AE00024BFB3F5001CDCF1FE5C0DD901F0004C15
:100AF0004FEAC0024CEA5070B2F1004F40EB830065
:100B000008BF20F00100704711F0804F21D113F190
:100B10003872BCBF01F00040704741F480114FEAC9
:100B20005252C2F11802C2F1200C10FA0CF320FA52
:100B300002F018BF40F001004FEAC1234FEAD3236F
:100B400003FA0CFC40EA0C0023FA02F34FEA4303D9
:100B5000CCE77FEA625307D150EA01331EBF4FF062
:100B6000FE4040F44000704701F0004040F0FE407D
:100B700040F40000704700BF53B94AB9002908BFCC
:100B800000281CBF4FF0FF314FF0FF3000F00CB8D1
:100B9000ADF1080C6DE904CE0AF03AFDDDF804E091
:100BA000DDE9022304B07047704700BF0000000079
:100BB00001F0FF01102A2BDB10F0070F08D010F80E
:100BC000013B013A8B422DD010F0070F42B3F6D112
:100BD000F0B441EA012141EA014122F007047FF02B
:100BE00000070023F0E80256083C85EA010586EA82
:100BF000010685FA47F5A3FA87F586FA47F6A5FABE
:100C000087F68EB9EED1F0BC01F0FF0102F00702C9
:100C100032B110F8013B013A83EA010313B1F8D174
:100C20000020704701387047002D06BF3546033855
:100C3000073815F0010F07D1013015F4807F02BF8E
:100C4000013015F4C03F0130F0BC0138704700BFDF
:100C5000034613F8012B002AFBD1181A01387047FC
:100C60000348044B834202D0034B03B1184770473B
:100C70005003002050030020000000000548064BF0
:100C80001B1AD90F01EBA301491002D0034B03B18A
:100C90001847704750030020500300200000000058
:100CA00010B5064C237843B9FFF7DAFF044B13B1B4
:100CB0000448AFF300800123237010BD50030020CF
:100CC000000000001CE3000808B5054B1BB10549F6
:100CD0000548AFF30080BDE80840FFF7CFBF00BF75
:100CE00000000000540300201CE30008F0B5174684
:100CF000002418E00133A5EB040C9C4512DD10F82C
:100D000003E003F1010C10F80C209645F2D9CE5CFB
:100D1000C25400F80CE011F80CE001F803E001F80F
:100D20000C60E7E701347D1EA54201DD0023E2E708
:100D3000F0BD08B500F024FA00F02AFA01F01EFE1A
:100D400001F0D2FF01F0C2FE02F0F2FD08BD00008A
:100D50002DE9F04180460F4616461D4602E00A2066
:100D600007F068F80B4CA47D1CB10A4CE47D002C04
:100D7000F5D0084CC4F800806760A660002161755A
:100D800025610123A375E175034B186807F0B9F8D5
:100D9000BDE8F081AC070020A007002038B505466B
:100DA0000C4602E00A2007F045F80A4B9B7D1BB178
:100DB000084BDB7D002BF5D0064B1D7501225A75C3
:100DC0001C619A750021D975034B186807F099F8D2
:100DD00038BD00BFAC070020A007002070B5064654
:100DE0000D46144602E00A2007F024F80A4B9B7DCA
:100DF0001BB1094BDB7D002BF5D0074B1E735D73D8
:100E000003225A751C6101229A750021D975034B82
:100E1000186807F076F870BDAC070020A007002026
:100E200070B505460B46421E144C02EB420004EB23
:100E30008000D0ED006AD0ED017A0246104E96F89F
:100E400000C00CF1FF3C0CEB4C0004EB800090ED7B
:100E5000007A90ED016A77EEC67A0A4991ED006A50
:100E6000926877EE867A17EE901A76EEC77A17EECA
:100E7000900AFFF76DFF357070BD00BF00000020C5
:100E8000680100207003002038B504460A46034D6F
:100E900001462878FFF7A2FF2C7038BD68010020BA
:100EA000014B1870704700BF6801002010B5441E48
:100EB000074B53F8240006F0BDFF04EB4404054A39
:100EC00002EB8402002307CA02F018FD10BD00BF28
:100ED00050E30008E006002008B50238C0EB00101F
:100EE000C00007EE900AF8EEE77A17EE900A02F0DB
:100EF0002BF808BD38B504460D46082001F050FE19
:100F00002078012865D01A304FF0FF31C0B2FFF7CA
:100F100087FF2878FFF7E0FF2078043040F6B831EB
:100F2000C0B2FFF73BFF2078831EDBB2022B57D9FC
:100F30004FF0FF31374B186806F0E3FF2878FFF7D2
:100F4000B5FF2378012B50D0607809304FF0FF3186
:100F5000C0B2FFF765FF6878FFF7BEFF082001F019
:100F60001FFE6078043040F6B831C0B2FFF716FFBC
:100F70006078831EDBB2022B3FD94FF0FF31254B47
:100F8000186806F0BEFF6878FFF790FFA078052884
:100F900038D009304FF0FF31C0B2FFF741FFA878D9
:100FA000FFF79AFF082001F0FBFDA078043040F61F
:100FB000B831C0B2FFF7F2FE4FF0FF31154B1868A1
:100FC00006F09FFFA878FFF771FF082001F00AFEE6
:100FD00038BD09304FF0FF31C0B2FFF721FF98E76D
:100FE0000F30C0B2FFF75CFFA2E760781A304FF015
:100FF000FF31C0B2FFF748FFADE70F30C0B2FFF7D7
:101000004FFFBAE709304FF0FF31C0B2FFF73CFFA6
:10101000C5E700BFA007002038B5022908D0032982
:101020000BD001293BD14FF4E175F1EE0C7A07E0CA
:101030004FF4E175F2EE087A02E01425F2EE0E7A32
:10104000441E184B03EB840393ED007A77EE677A26
:1010500017EE900A01F046FF134B53F82440204648
:1010600006F0E8FE01F07CFF962006F0E3FE0F4854
:1010700001F038FF204606F0DDFE0D4801F0B0FC1F
:101080004FF4967006F0D6FE01F096FF284606F063
:10109000D1FE01F07BFF962006F0CCFE38BDDFEDDF
:1010A000057ACDE768E300085CE30008668686C33E
:1010B0000000114300000000F8B50746084611463D
:1010C0004FF0000E0FE05C1C84550EF101048C55AE
:1010D0000133042B05DC0A4C14F803C0AC45F7D1EE
:1010E000F1E70EF1010EBEF1020F04DC764657F86F
:1010F0002E500023EDE70322FFF7F8FDF8BD00BFF7
:101100000004002000B585B0C82006F093FE6946B3
:1011100000230093019302930393FF238DF8003083
:10112000AA228DF801208DF803306423052204489B
:1011300006F099FCC82006F07DFE05B05DF804FBC2
:10114000AC0A002000B585B06946002300930193E6
:1011500002930393FF238DF80030AA238DF801300A
:10116000A7238DF8023064230522044806F07BFC97
:10117000C82006F05FFE05B05DF804FBAC0A002055
:1011800008B5FFF7BFFFFFF7DDFF02F0D5FA08BD96
:1011900008B574200AF0B8FB144B1860002824D05E
:1011A0000023036243628362C36203634363836316
:1011B000C36303600D4A126853609360D360136188
:1011C00053619361D361136453649364D36413656F
:1011D00053659365D365136693665366D36604239C
:1011E00082F87030002382F8713008BD740300204B
:1011F00018490A680023136253629362D36213632F
:1012000053639363D36313600A6853609360D3603E
:10121000136153619361D361136453649364D36422
:10122000136553659365D365136693665366D366FA
:10123000042382F87030084A5168012381F8543041
:10124000916881F85430D16881F85430126982F87D
:101250005430704774030020580400200000000040
:101260002DE9F8432DED068B02F060FA142004F00E
:1012700045FF8F4BD3ED007A9FED8E7A67EE877A2C
:101280009FED8D7AC7EE877A17EE909A1868FFF770
:10129000F3F80022894B08F035FFFFF71DFC07EE3D
:1012A000900AF5EEC07AF1EE10FA00F1B7809FEDEA
:1012B000847AF4EEC77AF1EE10FA07D99FED817ABD
:1012C000F4EEC77AF1EE10FA40F3AD807E4B1B6866
:1012D000002283F871207C4B1C68754B1B682366C9
:1012E0007A4B1B68A3667A4B5F6897ED146A84EDAE
:1012F000046AD3F80880D8ED147AC4ED057ADE6864
:10130000D6ED146AC4ED066A1D6995ED147A84ED74
:10131000077A36EE278A36EE888A37EE088AB5EEE7
:10132000009A28EE098A84ED088A77EEC67A76EE6E
:10133000A78A78EEC78A68EE898AC4ED098A77EEB3
:10134000E67A77EE277A17EE900AFFF795F856A31C
:10135000D3E90023FFF712FAFFF7BEFB60664846A9
:1013600008F028FF09EE900A28EE29AA484608F05E
:101370005BFF06EE900A68EEA67A3AEE67AA84ED65
:1013800010AA28EE268A68EEA98A38EE288A84ED0B
:10139000118A97ED137AD8ED137A37EE277AD6EDC6
:1013A000137A37EE277AD5ED137A37EE277A27EEC0
:1013B000097A84ED0C7AD8ED137A97ED136A77EEFB
:1013C000C67A96ED136A77EE867A95ED136A77EE14
:1013D000C67A67EE897AC4ED0D7A94ED146A69EEE7
:1013E000875A26EEA75A75EEC55A36EE256A84ED61
:1013F000146A94ED156A66EE876A69EEA79A76EE2E
:10140000A96A76EE267AC4ED157A02F095F91420D1
:1014100004F070FEBDEC068BBDE8F8839FED2D7ADD
:1014200077EE877A43E79FED267AF4EEC77AF1EEFE
:1014300010FA21DD9FED287AF4EEC77AF1EE10FA6A
:1014400005D8214B1B68012283F8712043E79FEDEB
:10145000227AF4EEC77AF1EE10FA7FF73CAF9FEDF7
:101460001F7AF4EEC77AF1EE10FA05D8164B1B6816
:10147000022283F871202EE79FED187AF4EEC77AE6
:10148000F1EE10FA7FF727AF9FED0E7AF4EEC77AF0
:10149000F1EE10FA3FF61FAF0B4B1B68032283F8E7
:1014A000712018E7AFF300809B6CB2C9FC7F384015
:1014B000D8070020DB0F494000003443008076400D
:1014C0000000344200809D4374030020D4070020B4
:1014D000580400200000B4430000074300006143AB
:1014E00010B5012408E0074B53F8240001F0A0FEDA
:1014F000012006F09FFC0134042CF4DDFFF7B0FE60
:1015000010BD00BF580400202DE9F0432DED068BDF
:1015100083B0554D2C68D4ED187ADFED549A67EE00
:10152000A97A9FED537AC7EE877A17EE906A94ED09
:10153000128A304608F03EFE08EE900A28EE289AFD
:1015400094ED13AA304608F06FFE07EE100A6AEE1B
:10155000077A79EE277AC4ED0A7A28EE478A68EE90
:101560008A8A38EE288A84ED0B8A77EEC87A17EEDD
:10157000900AFEF781FF06460F46D4ED1B7A9FEDD9
:101580003D9A67EEC97A67EEA97A17EE900AFEF7E0
:1015900073FF0022384BFFF7F1F831A3D3E90023A2
:1015A000FEF7C2FF02460B4630463946FEF706FEFE
:1015B000FFF792FA20602C68D4ED0A8A94ED0B8A2A
:1015C00078EE887A17EE900AFEF756FF8046894635
:1015D000D4ED1B7A67EE897A67EEA97A17EE900A46
:1015E000FEF74AFF0022244BFFF7C8F81CA3D3E9FB
:1015F0000023FEF799FF06460F4602460B4640467B
:101600004946FEF7DBFDFFF767FA054660603246A4
:101610003B4640464946FEF7CFFDFFF75DFA804660
:10162000A06078EEC87A17EE900AFEF725FF024612
:101630000B4630463946FEF7C1FDFFF74DFA03462B
:10164000E06020680A2200924246294602F02CF807
:1016500003B0BDEC068BBDE8F08300BFAFF30080A4
:10166000000000002670E63F74030020DB0F4940B5
:1016700000003443AD8CF2430080664010B582B068
:10168000124B1B68042283F87020C0B9012400E0CB
:101690000134042C09DC0E4B53F824008379022B0F
:1016A000F6D0022101F024FDF2E70020022300938E
:1016B00003460246014601F0F7FF02B010BD01F0FB
:1016C0009BFF012001F066FFF7E700BF74030020D5
:1016D00058040020000000002DE9F04F2DED088B8C
:1016E00085B008EE100A08EE901A91461D4601F0EA
:1016F00073FF022001F04EFF01F05EFFFFF778FD5F
:10170000FFF7EEFEC64B186802F056FDC54B186891
:1017100002F052FDC44B186802F04EFDC34B18682E
:1017200002F04AFDC24B186802F046FDC14B186832
:1017300002F042FDC04B186802F03EFDBF4B186836
:1017400002F03AFD07EE909AFDEEE77A17EE908AE6
:10175000DFEDBB7AB4EEE78AF1EE10FA24D4DFEDC8
:10176000B97AB4EEE78AF1EE10FA28DADFEDB67A4C
:10177000F4EE678AF1EE10FA28D0F0EEE87A9FEDE9
:10178000B37AF4EEC77AF1EE10FA26D5F0EEC87A05
:10179000F4EEC77AF1EE10FA26D4F1EE04AAB0EE18
:1017A0006AAA4FF0040B05E0F0EE08AAB3EE04AA13
:1017B0004FF0010B04F042F88246002406E2F0EEFE
:1017C00008AAB3EE04AA4FF0010BF3E7F1EE04AA66
:1017D000B7EE00AA4FF0030BECE7F1EE04AAB0EE6F
:1017E0006AAA4FF0040BE5E7F1EE04AAB0EE08AAEE
:1017F0004FF0010BDEE7964B186806F0B6FB954BF1
:10180000002098750122DA75FFF738FFDFED8C7A3A
:10181000B4EEE78AF1EE10FA17D58F4B1B68D3EDC3
:10182000157A9FED8E7A77EE677A17EE900AFEF7BB
:1018300023FE79A3D3E90023FEF776FEFFF74CF9E8
:10184000874B186003F014FEEBE2854B00221A6010
:10185000F8E700249FED837AB4EEC78AF1EE10FA20
:101860001AD59FED787AF4EEC77AF1EE10FA10DD12
:101870009FED7D7AF4EEC77AF1EE10FA09D5B8F54E
:10188000877F31D0DFED758A1AE00024E2E700247B
:10189000E0E7B8F5877F24D09FED747AF4EE478AAD
:1018A000F1EE10FA0CD193ED157A37EE687AB0EEBE
:1018B000C77ADFED6F6AB4EEE67AF1EE10FA18D46B
:1018C0009FED747AB4EE478AF1EE10FA13D19FEDD2
:1018D000697AF4EEC77AF1EE10FA0CD5DFED668A7C
:1018E00009E0DFF8A891D7E7DFF8A491DFED5B8A84
:1018F000E6E79FED628AFFF7F3FDB0EEC89ADFEDF1
:10190000517AB4EEE79AF1EE10FA40F19681DFEDEC
:101910005C7AB4EEE79AF1EE10FA40F3BF80DFEDA7
:101920005D7AB4EE678AF1EE10FA00F0BE80F7EE51
:10193000007AF4EE678AF1EE10FA00F0AF80DFED86
:101940004E7AF4EE678AF1EE10FA00F0A780424B6F
:101950001B6893ED14BAF0EECB7A17EE900AFEF7FF
:101960008BFDCDE9000119EE100AFEF785FD064654
:101970000F46444B1868FEF77FFD02460B46304683
:101980003946FEF719FC02460B46DDE90001FFF778
:101990005BF808B10134E4B21BEE102A18EE101AFD
:1019A0001F4B186802F01EFC07EE900AF5EEC07A95
:1019B000F1EE10FA19DDF0EEE77A17EE900AFEF775
:1019C0005BFD0022304B08F067FC234B1E68FFF7DD
:1019D00083F8B064204B1E68726D18EE901A114B9C
:1019E000186802F0FFFBF064E5E0F0EEE77A17EE2E
:1019F000900AFEF741FD0022234B08F04DFCFFF753
:101A00006BF8154B1B6807EE900AF1EE677AC3ED91
:101A1000127ADFE7AFF300809A9999999999E93F93
:101A20004407002040070020280700203C07002032
:101A30003807002034070020300700202C07002042
:101A40000080BBC40080BB44000020420080894469
:101A5000A0070020AC0700207403002000E08DC424
:101A60007003002000401CC500401C45008003445A
:101A700000004843000048420000024400808443C4
:101A80000000C8426C010020008041400000344347
:101A900000008743008084C300004C425FED027A5F
:101AA000B4EEE79AF1EE10FA06D45FED067AB4EEE2
:101AB000678AF1EE10FA6BD1B0EEE89A5FED0A7A20
:101AC000B4EEE79AF1EE10FA62DDBB4B1B6893EDC2
:101AD00015BAF0EECB7A17EE900AFEF7CDFCCDE901
:101AE000000119EE100AFEF7C7FC06460F46B34B7D
:101AF0001868FEF7C1FC02460B4630463946FEF731
:101B00005BFB02460B46DDE90001FEF79DFF08B1D5
:101B10000134E4B21BEE102A18EE901AA84B186894
:101B200002F060FB07EE900AF5EEC07AF1EE10FAD3
:101B300019DDF0EEE77A17EE900AFEF79DFC002221
:101B4000A04B08F0A9FB9C4B1E68FEF7C5FFF06494
:101B5000994B1E68326D18EE101A9B4B186802F0F4
:101B600041FBB06427E0F0EEE77A17EE900AFEF74B
:101B700083FC0022934B08F08FFBFEF7ADFF8E4BEA
:101B80001B6807EE900AF1EE677AC3ED137ADFE780
:101B9000894E37683A6D18EE101A8B4B186802F0B0
:101BA00021FBB8643668726D18EE901A844B186881
:101BB00002F018FBF064804B1E68326E4946834B7E
:101BC000186802F0E1FBF066FFF79EFC03F036FEBA
:101BD000A0EB0A00A84280F019815C45BFF40BAE6F
:101BE000754B1B68D3ED147A77EEC87AF0EEE77A7E
:101BF000F4EECA7AF1EE10FA7FF52BAE93ED157A7A
:101C000037EE687AB0EEC77AB4EEEA7AF1EE10FAFF
:101C10007FF53BAE93ED187A06EE909A37EE667A32
:101C2000B0EEC77ADFED6A6AB4EEE67AF1EE10FA4A
:101C30007FF52DAE0134E4B20CE6DFED667AB4EE4A
:101C4000E78AF1EE10FA37DBDFED637AB4EEE78A6C
:101C5000F1EE10FAB8D5584B1B68D3ED147AB0EEFC
:101C6000E77AB4EEC79AF1EE10FA01D50134E4B286
:101C700017EE902A18EE101A584B186802F0B2FAB4
:101C8000FEF7FAFB00224F4B08F006FB4A4F3E6876
:101C9000FEF722FFB064726D18EE901A504B186870
:101CA00002F0A0FAF0643E68326E4946474B18686D
:101CB00002F06AFBF06687E7DFED4A7AB4EEE78A66
:101CC000F1EE10FA80D53C4B1B6893ED14BAF0EEA0
:101CD000CB7A17EE900AFEF7CFFB06460F4619EEB9
:101CE000100AFEF7C9FB02460B46CDE9002300228D
:101CF0003D4BFEF761FA02460B4630463946FEF789
:101D0000A3FE40B30134E4B2B7EE009A1BEE102AF2
:101D100018EE101A354B186802F064FA07EE900AB4
:101D2000254B1E6867EE897AC6ED127A726D18EE41
:101D3000901A2F4B186802F055FAF064B8F5877FB7
:101D40005AD01D4B1E68326E4946204B186802F06F
:101D50001BFBF06638E70022264BDDE90001FEF7A9
:101D60002BFA02460B4630463946FEF76DFEC8B1E7
:101D7000DDE9002330463946FEF71EFA029001F1F4
:101D80000043039300221B4BDDE90201FEF7F6FC42
:101D900007A3D3E9002308F07FFAFEF79DFE09EEC2
:101DA000100AB3E7B7EE009AB0E700BFAFF30080C8
:101DB0009A9999999999B93F740300206C01002070
:101DC00040070020008041404407002028070020F1
:101DD0009A99993E0080BB44008009453C07002049
:101DE000380700200080BBC40000144034070020E6
:101DF0003007002000406F400C4B1E68326E494691
:101E00000B4B186802F0C0FAF066DDE6094B186863
:101E100006F0ABF8084B002098750122DA75FFF741
:101E20002DFC05B0BDEC088BBDE8F08F74030020DD
:101E30002C070020A0070020AC07002000000000B5
:101E40002DE9F84F2DED048B06460C46032837D8B4
:101E5000DFE800F06E020E2BBD4B93ED068AD3F83F
:101E600040809FEDBC9AF0EE498A002701256EE084
:101E7000B74B93ED078AD3F84480B74B1B78012BFF
:101E800005D09FEDB69ADFEDB68A0027EEE7F7EEB4
:101E9000007A07EE108A77EE277A17EE908A9FED88
:101EA000AF9ADFEDAF8A0027E0E7A94B93ED088AF0
:101EB000D3F848809FEDA79AF0EE498A0027D5E72E
:101EC000A34B021D03EB820292ED018A00F10E0288
:101ED00003EB8203D3F80480031F052B20D8DFE82F
:101EE00003F003230F13171BDFED9D8A9D4F9A4BC1
:101EF0001B78012B27D104F516749FED9B9AB5E74B
:101F0000DFED9A8A974FF2E7DFED988A954FEEE77B
:101F1000DFED968A934FEAE7DFED918A944FE6E78B
:101F2000DFED8F8A0027E2E7DFED8D8A914FDEE754
:101F3000874B93ED058AD3F83C809FED869AF0EEAF
:101F4000498A002792E79FED889A8FE70135042D93
:101F500009DC894B53F825008379022BF6D0022146
:101F600001F0C6F8F2E7FFF743F9FFF7B9FA834B40
:101F7000186802F021F9824B186802F01DF9814BB4
:101F8000186802F019F9804B186802F015F903F08F
:101F900055FC05464BE07D4B186805F0E6FF7C4B91
:101FA000002098750122DA75FFF768FB03F060FAEC
:101FB00080E1DFF89CA1DAF80C2018EE101A704BC3
:101FC000186802F00FF9FEF757FADFF8D091D9F848
:101FD00000B05BA3D3E90023FEF7A6FAFEF77CFD71
:101FE000CBF84C00DAF810204146644B186802F038
:101FF000F9F8FEF741FAD9F8009051A3D3E900238C
:10200000FEF792FAFEF768FDC9F84800614B1A68BE
:1020100039465D4B186802F0B7F9C9F86C00022E1A
:1020200000F02C81FFF770FA052005F003FF03F0A4
:1020300005FC401BA04280F03281454BD3ED037A72
:1020400077EEC87AF0EEE77AF4EEE87AF1EE10FA7D
:102050001CD8D3ED047A07EE108A77EEC77AF0EE3B
:10206000E77AF4EEC97AF1EE10FA0FD8494BD3EDC6
:10207000007A07EE107A77EEC77AF0EEE77A9FEDF6
:10208000467AF4EEC77AF1EE10FA84D4434B1A681C
:102090002F4BD3ED037AF5EE407AF1EE10FA06D12C
:1020A000D3ED047AF5EE407AF1EE10FABFD092F853
:1020B0007130032BB3D801A252F823F0B31F0008EC
:1020C0000F220008CD200008A1210008DFF880A021
:1020D000DAF80C2018EE101A294B186802F082F872
:1020E000FEF7CAF9DFF8B490D9F800B016A3D3E927
:1020F0000023FEF719FAFEF7EFFCCBF84C00DAF8F4
:10210000102041461D4B186802F06CF8FEF7B4F938
:10211000D9F800900CA3D3E90023FEF705FAFEF7E7
:10212000DBFCC9F848001B4B1A683946164B186887
:1021300002F02AF9C9F86C0071E700BFAFF3008024
:102140009A9999999999E13F9A9999999999E1BFA1
:102150009C0300203333E3406C0300203333A3405F
:102160009A99114100003443666646403333C842B1
:102170000000B442000087435804002024070020D8
:10218000200700201C07002028070020A0070020AF
:10219000AC070020D80700209A99993E74030020CC
:1021A000DFF850A1DAF80C2018EE101A4A4B186824
:1021B00002F018F8FEF760F9DFF82C91D9F800B0BA
:1021C0003FA3D3E90023FEF7AFF9FEF785FCCBF878
:1021D0004800DAF810204146404B186802F002F837
:1021E000FEF74AF9D9F8009037A3D3E90023FEF7A8
:1021F0009BF9FEF771FCC9F84C00394B1A68394657
:10220000384B186802F0C0F8C9F86C0007E7DFF82F
:10221000E4A0DAF80C2018EE101A2F4B186801F021
:10222000E1FFFEF729F9DFF8C090D9F800B026A346
:10223000D3E90023FEF778F9FEF74EFCCBF848000F
:10224000DAF810204146254B186801F0CBFFFEF765
:1022500013F9D9F800901AA3D3E90023FEF764F923
:10226000FEF73AFCC9F84C001D4B1A6839461D4B65
:10227000186802F089F8C9F86C00D0E61A4BD3F858
:102280000090D9F84800FEF7F7F811A3D3E900232E
:10229000FEF74AF9FEF720FCC9F84800C2E6134BE6
:1022A000186805F062FE124B002098750122DA755D
:1022B000FFF7E4F9BDEC048BBDE8F88FAFF30080C5
:1022C0009A9999999999E13F9A9999999999E1BF20
:1022D0009A9999999999E93F2007002024070020AD
:1022E000D80700202807002074030020A007002042
:1022F000AC0700209C0300202DE9F0472DED028B58
:1023000008EE100A8A4616469846012400E0013479
:10231000042C09DC4A4B53F824008379022BF6D0B5
:10232000022100F0E5FEF2E7FEF762FFFFF7D8F8C2
:10233000444B186801F040FF434B186801F03CFF24
:10234000424B186801F038FF07EE90AAF0EEE77AEA
:102350009FED3F7AF4EEC77AF1EE10FA06D4F2EE72
:10236000008A03F06BFA0746002529E0F2EE048AA2
:10237000F7E7002500E00025FFF7B2F8354CD4F868
:102380000090D9F8502018EE101A2E4B186801F062
:1023900029FFC9F84800D4F80090D9F854205146D4
:1023A000294B186801F01EFFC9F84C002468226E02
:1023B0003146264B186801F0E7FFE066FFF7A4F806
:1023C00003F03CFAC01B404531D2224B1C68D4EDCF
:1023D000147A77EEC87AF0EEE77AF4EEE87AF1EE66
:1023E00010FAC6D5D4ED157A07EE10AA77EEC77AA3
:1023F000F0EEE77AB2EE087AF4EEC77AF1EE10FA70
:10240000B9D5D4ED187A07EE106A77EEC77AF0EEF8
:10241000E77A9FED117AF4EEC77AF1EE10FA0DD556
:102420000135EDB2042DA7D90020FFF727F90020D0
:10243000FFF724F9BDEC028BBDE8F08700259BE790
:10244000580400201807002014070020100700205F
:1024500000007A4474030020CDCCCC3D2DE9F04D32
:102460002DED088B86B004460E469246002701F0FB
:10247000B3F8022001F08EF801F09EF8FEF7B8FEE6
:10248000FFF72EF85D4B186801F096FE5C4B18685C
:1024900001F092FE5B4B186801F08EFE5A4B1868F3
:1024A00001F08AFE594B186801F086FE584B1868F7
:1024B00001F082FE574B186801F07EFE03F0BEF972
:1024C0000546002304930593029303930A2C3DD001
:1024D0000E2E47D07B1E504F03EB430207EB8202C8
:1024E00092ED008A601E00EB400207EB8202D2ED03
:1024F000007A38EE678A8DED048A711E01EB410285
:1025000007EB820292ED009A39EE679A8DED059AFB
:1025100003EB430307EB8302D2ED018A00EB40009B
:1025200007EB8000D0ED017A78EEE78ACDED028AE4
:1025300001EB410107EB8103D3ED01AA7AEEE7AA93
:10254000CDED03AA4FF0000B5C46DFE01D2E15D049
:102550001E2E19D01C2EBDD10F27DFED309ADFF8CB
:10256000D480B7E7122C15D0132C19D0112C1DD103
:102570001B27DFED2B9ADFF8C080ABE70F27DFEDDD
:10258000279ADFF8B080A5E71B27DFED249ADFF854
:10259000A4809FE71027DFED219ADFF89C8099E760
:1025A0001027DFED1F9ADFF8908093E71027DFF800
:1025B00088808FE71B4B186805F0D7FC1A4B00206A
:1025C00098750122DA75FFF759F802F051FF7DE1A5
:1025D000F0EEE77A17EE900AFDF74EFF0022134B5C
:1025E00007F05AFEFEF778FA114B1B6807EE900AC7
:1025F000F1EE677AC3ED127A29E100BF44070020AB
:1026000040070020280700203C0700203807002052
:10261000340700203007002000000020000048425E
:1026200000008C42A0070020AC0700200080414041
:1026300074030020000034430000B4420000DC4377
:102640005FED027AB4EE679AF1EE10FA40F01F8166
:10265000A14B1B6893ED15BAF0EECB7A17EE900AFA
:10266000FDF70AFF06460F46F0EEE87A17EE900AED
:10267000FDF702FFCDE90001984B1868FDF7FCFE5D
:1026800002460B46DDE90001FDF796FD02460B46CA
:1026900030463946FEF7D8F920B1BBF1000F01D022
:1026A0000134E4B21BEE102A18EE901A8C4B186815
:1026B00001F098FD07EE900AF5EEC07AF1EE10FAFF
:1026C00040F3D080F0EEE77A17EE900AFDF7D4FEE3
:1026D0000022844B07F0E0FD7F4B1E68FEF7FCF9FB
:1026E000F0647D4B1E68326D18EE101A7E4B186830
:1026F00001F078FDB064784B1E68326E41467B4B2A
:10270000186801F041FEF066FEF7FEFE03F096F851
:10271000401B504580F0CF80002C7FF44BAF6E4BB8
:102720001B68D3ED147A77EEC87AF0EEE77AB3EE51
:10273000047AF4EEC77AF1EE10FA1DD593ED157A0E
:1027400037EE687AB0EEC77AF0EE086AB4EEE67A51
:10275000F1EE10FA10D593ED187A06EE908A37EE66
:10276000667AB0EEC77ADFED626AB4EEE67AF1EE31
:1027700010FA01D50134E4B2F4EEE97AF1EE10FA80
:1027800010D5D3ED157A77EEE87AF0EEE77AF4EE2D
:10279000E97AF1EE10FA05D5F0EE6A8AB0EE498AD0
:1027A0004FF0010BFEF79CFEF0EEC87A9FED517AD8
:1027B000F4EEC77AF1EE10FAA6D5DFED4F7AB4EE5B
:1027C000679AF1EE10FA7FF43BAFF7EE007AF4EE81
:1027D000678AF1EE10FA3FF433AFDFED487AF4EE9A
:1027E000678AF1EE10FA3FF42BAF3B4B1B6893ED79
:1027F000147A3A4BD3ED007A78EE277AB4EEE77A82
:10280000F1EE10FA04D5BBF1000F01D00134E4B2AF
:1028100017EE102A18EE101A334B186801F0E2FC7C
:1028200007EE900AF5EEC07AF1EE10FA7FF7D0AE1F
:10283000F0EEE77A17EE900AFDF71EFE0022294B14
:1028400007F02AFD244B1E68FEF746F9B064224BC0
:102850001E68726D18EE901A214B186801F0C2FCC8
:10286000F06448E7F0EEE77A17EE900AFDF704FE11
:1028700000221C4B07F010FDFEF72EF9164B1B68CB
:1028800007EE900AF1EE677AC3ED137A29E7124E4C
:1028900037683A6D18EE101A134B186801F0A2FC55
:1028A000B8643668726D18EE901A0D4B186801F016
:1028B00099FCF0641FE7124B186805F056FB114BAA
:1028C000002098750122DA75FEF7D8FE06B0BDEC3F
:1028D000088BBDE8F08D00BF740300206C01002060
:1028E00040070020008041404407002028070020C6
:1028F0009A99993E0080BB440080D4430000024472
:10290000A0070020AC0700202DE9F0478246894649
:1029100090461F4600F060FE022000F03BFE00F0F3
:102920004BFEFEF765FCFEF7DBFD124B186801F06D
:1029300043FC02F083FF064611E0FEF7D1FD0E4C8A
:1029400025682A6E41460B4B186801F01DFDE866AC
:102950002468C4F848A0C4F84C90FEF7D5FD02F0F6
:102960006DFF801BB842E8D30020FEF787FEBDE86C
:10297000F08700BF2807002074030020074B196868
:1029800000220A601B685A609A60DA60044A1A6181
:1029900000221A7501225A75704700BF700100208D
:1029A0006666663F10B507EE900A0C4667EEA76AAA
:1029B0009FED097A37EE667AB1EE477A77EEA77A1D
:1029C000DFED066A67EEA67AC7EE277A17EE900A61
:1029D00007F0C4FB206010BD003739470000B64245
:1029E000F0B583B004460D4D284604F025FB0C4E8F
:1029F000376801233B750B49204607F0BFFC0A49A5
:102A000007F098FC786001A9FFF7CCFF3368019AC2
:102A1000DA60284604F0CEFA03B0F0BDE4080020E6
:102A2000700100200080A34300001143034BDA69CA
:102A3000034B1B68526A9A60704700BF580400201D
:102A40007001002008B51E4B1B68D3ED037A93ED8F
:102A5000027A77EEC77AB0EEE76AD3ED046AB4EE95
:102A6000E66AF1EE10FA0AD500221A7577EE277A97
:102A700017EE901A134BD86900F0E0FB08BDF2EE98
:102A8000035AB4EEE56AF1EE10FA0ED59FED0E6A28
:102A900066EE866AF5EEC07AF1EE10FA02DDF0EE2F
:102AA000667AE3E7F1EE667AE0E7F5EEC07AF1EEFA
:102AB00010FA02DDF0EE667AD8E7F1EE667AD5E735
:102AC0007001002058040020CDCCCC3E38B51F4BFF
:102AD0000022DA601A611E4959611E4ADA631E48F3
:102AE00098611E4818641E48D8611E4858641E48E4
:102AF00018621E4898645962DA641D4A9A621D4A37
:102B00001A651D4ADA621D4A5A651D4A1A631D4A32
:102B10009A651D4A5A631D4ADA651D4A9A631D4A21
:102B20001A6600241C72A3F8694083F86B405C6647
:102B300083F868401C605C60174D082229461748DE
:102B400005F0D2F82C606C6038BD00BF9C030020FB
:102B50000000964300003E43000024440000A843C8
:102B6000000022440000B943000025440080AE4329
:102B70000000B4430000E043000040430080DE4317
:102B8000000037430080E343004089440080E9436C
:102B90000000724400008C43EC070020F40A00207F
:102BA00000B583B00D4B0022DA601A61EE238DF878
:102BB00004308DF8050000238DF80630FF238DF8D2
:102BC00007300A2304220DEB0201054804F04BFFF5
:102BD000052005F02FF903B05DF804FB9C030020ED
:102BE000F40A002000B583B0072817D0EE238DF833
:102BF00004308DF80500AC238DF80630FF238DF8E6
:102C000007300A2304220DEB0201074804F02BFFD2
:102C1000052005F00FF903B05DF804FB034A1368C3
:102C200001331360E2E700BFF40A002094030020A0
:102C3000082900D0704738B504460378EE2B00D041
:102C400038BD431813F8013CFF2BF9D1224D0A4639
:102C50000146284609F003FE63782B722B7ADAB21C
:102C6000112B2CD8102AEBD3A278E37843EA022365
:102C700007EE903AB8EE677A2179627942EA01224A
:102C800007EE902AF8EE677AA079411EC9B20429AE
:102C9000D6D8B3F5A06FD3D2B2F5347FD0D20E4BD5
:102CA00083ED037AC3ED047A0C4B1A68022A03DC25
:102CB000094B134483F86900094B1870C0E7122AC6
:102CC000BED1054BD4F802005866A27983F868207B
:102CD000044B01221A70B3E79C03002094030020E8
:102CE00090030020980300200C4A51690C4B196096
:102CF00092695A6000229A60DA601A615A61094941
:102D0000996100211977084B1A605A60074A9A6046
:102D100019734FF40062DA81704700BF5804002035
:102D20001C04002000008D42080400200000F04137
:102D30000B4B1A68D2ED097ADFED0A6A67EEA67AC4
:102D40009FED097A87EE876A83ED026A5A68D2EDB1
:102D5000097A67EEA67AC7EE876AC3ED036A704701
:102D60001C04002000003443DB0F494010B52DED5A
:102D7000048B414B93ED046A93ED027A36EE476A79
:102D8000F0EEC67A93ED065ADFED3C5A65EE255A11
:102D9000F4EEE57AF1EE10FA3FD500221A77364BC1
:102DA000D3ED056AD3ED037A76EEE76AF0EEE64AF4
:102DB000F4EEE45AF1EE10FA11DCF1EE025AF4EE00
:102DC000E54AF1EE10FA4CD5DFED2D5A25EE255AE5
:102DD000F5EEC06AF1EE10FA40DDF0EE456A37EE2E
:102DE000067A37EEA68A9FED279A27EE097ADFED5D
:102DF000268A214CC7EE287A17EE901A206800F038
:102E00001DFA68EE097AC7EEA87A17EE901A606884
:102E100000F014FABDEC048B10BDF2EE036AF4EE80
:102E2000E67AF1EE10FA0ED5DFED157A65EE277A27
:102E3000B5EEC06AF1EE10FA02DDB0EE676AAEE7F9
:102E4000B1EE676AABE7B5EEC06AF1EE10FA02DDEB
:102E5000B0EE456AA3E7B1EE456AA0E7F1EE456A38
:102E6000BDE7F5EEC06AF1EE10FA02DDF0EE456A5C
:102E7000B5E7F1EE456AB2E71C040020CDCC4C3E2C
:102E8000CDCCCC3EDB0F49400000344308B5074BA6
:102E9000186107EE901AF1EE677AC3ED057A012208
:102EA0001A77034804F086F808BD00BF1C04002010
:102EB000E408002006EE900AB3EE057AC6EE877AA3
:102EC0009FED067A67EE877ADFED056A87EEA67AD0
:102ED00081ED007A82ED007A704700BF0000344334
:102EE000DB0F494000B583B06A4601A9FFF7E2FF56
:102EF00000990198FFF7CAFF03B05DF804FB0000DA
:102F000008B5FDF7B9FA0022094BFDF737FC00229E
:102F1000084BFDF753F9FDF7B7FD81B201F50061EC
:102F200082234FF4AF6209B2022000F047FD08BDD2
:102F30000080B63F0000E03F08B5024B5868FFF73D
:102F4000DFFF08BD0804002008B5034B58600348A4
:102F500004F030F808BD00BF08040020E408002099
:102F600010B5084C204604F067F8074B01221A738D
:102F700040F6C412DA810A2004F05CFF204604F017
:102F800019F810BDE40800200804002010B5084C12
:102F9000204604F051F8074B00221A7340F28C527D
:102FA000DA810A2004F046FF204604F003F810BD41
:102FB000E40800200804002010B5084C204604F066
:102FC0003BF8074B00221A7340F2D662DA810A20DE
:102FD00004F030FF204603F0EDFF10BDE4080020B0
:102FE0000804002010B504460621023000F0CCFC95
:102FF00010B12378FF2B00D010BD6378FF2BFBD1DD
:10300000A278A179637903EB01239BB2012A09D04D
:10301000022AF1D107EE903AF8EE677A034BC3ED3E
:10302000007AE9E7014A1382E6E700BF08040020BE
:10303000034608460B70C3F307224A70C3F30742E6
:103040008A70C3F30763CB707047000030B583B05C
:1030500004460D4B08221A6104229A600022DA60AD
:1030600082685A6002F0EAFB00F16405224652F8D9
:103070000C0B01AB044902F057FD18B102F0DEFB66
:10308000A842F3D903B030BD4004002001600272B1
:10309000064B1B78A0F80930C37A23F0E003C37213
:1030A000012380F85430002383717047740100209D
:1030B00008B5C37A032262F30403C3720B4B1B7877
:1030C000A0F80930C37A23F0E003C372002304E0C0
:1030D000C218002111730133DBB2072BF8D9FFF7B7
:1030E000B5FF0A2004F0A6FE08BD00BF7401002051
:1030F00038B504460D46C37A122262F30403C37244
:103100000D4B1B78A0F80930C37A23F0E003C3729B
:10311000002303E0E218002010730133072BF9DDD0
:1031200047F20503A38125742046FFF78FFFA571A1
:103130000A2004F07FFE38BD7401002008B5C37A70
:10314000042262F30403C3720B4B1B78A0F809300E
:10315000C37A23F0E003C372002304E0C218002105
:1031600011730133DBB2072BF8D9FFF76FFF0A2089
:1031700004F060FE08BD00BF7401002008B5C37AEA
:10318000062262F30403C3720B4B1B78A0F80930CC
:10319000C37A23F0E003C3720123037304E0C2186F
:1031A000002111730133DBB2072BF8D9FFF74EFF73
:1031B0000A2004F03FFE08BD7401002010B590F80D
:1031C0000BC0122464F3040C80F80BC0084C94F874
:1031D00000C0A0F809C090F80BC02CF0E00C80F8FB
:1031E0000BC0818112680261FFF730FF10BD00BF84
:1031F0007401002008B5C37A112262F30403C3727C
:103200000A4B1B78A0F80930C37A23F0E003C3729D
:103210008181022304E0C218002111730133DBB263
:10322000072BF8D9FFF712FF08BD00BF740100207B
:1032300008B547F21901FFF7DDFF08BD30B583B0CF
:103240000446084601AD2946FFF7F2FE2A4647F23A
:1032500016012046FFF7B2FF03B030BD30B583B092
:103260000446084601AD2946FFF7E2FE2A4647F22A
:1032700017012046FFF7A2FF0A2004F0DBFD03B090
:1032800030BD30B583B0044607EE901AB3EE0E7A27
:10329000F4EEC77AF1EE10FA09DCBBEE0E7AF4EE2A
:1032A000C77AF1EE10FA04D5FBEE0E7A01E0F3EEE8
:1032B0000E7A01AD294617EE900AFFF7B9FE2A46AD
:1032C00047F20A012046FFF779FF03B030BD30B561
:1032D00083B00446084601AD2946FFF7A9FE2A46F9
:1032E00047F218012046FFF769FF0A2004F0A2FD0B
:1032F00003B030BD10B504460B784A7843EA022388
:1033000047F21902934204D047F21B02934231D094
:1033100010BDCA798B791B0443EA02634A7943EAF8
:1033200002230A79134307EE903A027A012A01D068
:10333000032A03D107EE903AF1EE677AC4ED0E7AD4
:103340009FED1B7A67EE877AC4ED107A94F85430BB
:1033500023B1002384F85430C4ED117A94ED117A2E
:1033600037EEC77A84ED137AC4ED117A02F066FA6B
:10337000E063CDE7CA798B791B0443EA02634A799B
:1033800043EA02230A79134307EE903A027A012AAC
:1033900001D0032A03D107EE903AF1EE677AC4ED2B
:1033A0000B7A9FED037A67EE877AC4ED147AAFE764
:1033B000000048420000000010B504463F2900F21A
:1033C00093800023037161711178537843EA0123DC
:1033D0001BB283F400431BB2A3839178D37843EAF2
:1033E00001231BB283F400431BB2217A012901D0CF
:1033F000032901D15B421BB2E3831179537943EA7C
:1034000001231BB283F400431BB2238493791B0274
:103410001BB2D27913436384636AA362A08B00B2A8
:1034200007EE900AF8EEE77A17EE900AFDF724F817
:1034300000224FF07C53FDF777F800222E4BFDF76A
:1034400073F82BA3D3E90023FDF76EF8FDF744FBD7
:103450006062E08B00B207EE900AF8EEE77A17EEB2
:10346000900AFDF709F800224FF07C53FDF75CF855
:103470000022224BFDF758F8FDF72EFBE062D4ED59
:103480000B7A9FED1F7A67EE877AC4ED147A208C51
:1034900000B207EE900AF8EEE77A17EE900AFCF712
:1034A000EBFF00224FF07C53FDF73EF80022154B56
:1034B000FDF73AF8FDF710FB2063638C1BB207EEB3
:1034C000903AF8EEE77AF2EE046A87EEA67A84ED97
:1034D0000D7A10BD49080133062B3FF774AF11F088
:1034E000010FF7D02371F5E70123F5E7AFF3008073
:1034F00000000060FB2109400000104000003E4039
:10350000000048420000284008B51F4B18601F4BC0
:103510000340FE2B08D01C4BDB7803F01F03022B6B
:1035200012D0112B22D008BD174BB3F80130DBB2FB
:103530005A1ED2B2062AF6D8154A52F82330086825
:103540004A6858619A61EEE70F4BB3F801C05FFA21
:103550008CF0431EDBB2062BE5D80A464FEA1C214D
:103560000B4B53F82000FFF727FFDCE7064BB3F8BF
:103570000130DBB25A1ED2B2062AD4D8044A52F81D
:103580002300FFF7B7FECEE73C040020FF00001F3A
:103590005804002038B50546012407E02946054BAC
:1035A00053F82400FFF7A4FD0134E4B2042CF5D94C
:1035B00038BD00BF5804002010B5012406E0054BBB
:1035C00053F82400FFF774FD0134E4B2042CF6D95B
:1035D00010BD00BF5804002010B5012406E0054BC3
:1035E00053F82400FFF7AAFD0134E4B2042CF6D905
:1035F00010BD00BF5804002010B5FFF7EDFF094CC7
:103600002046FFF7BBFD04F15800FFF7B7FD04F1BA
:10361000B000FFF7B3FD04F58470FFF7AFFDFFF7CF
:10362000CBFF10BD8005002038B51B4A1B4B5360F3
:1036300003F15801916003F1B001D16003F5847387
:10364000136101240BE022461549134B53F8240063
:10365000FFF71CFD0A2004F0EDFB0134E4B2042C5A
:10366000F1D9FFF7C9FF012410E00B4D4FF0824163
:1036700055F82400FFF7F2FD0A4955F82400FFF73A
:1036800026FE0A2004F0D6FB0134E4B2042CECD967
:103690000220FFF77FFF38BD58040020800500207E
:1036A0004C0700200000B84138B52DED048B06EE24
:1036B000901A06EE103A089C07EE900AB1EE677A6F
:1036C000DFED187A86EEA79A06EE902AF1EE666A8A
:1036D000C6EEA78A86EE278A134DC7EE277A17EE25
:1036E000901A6868FFF7CDFD204604F0A3FB19EEA1
:1036F000101AA868FFF7C5FD204604F09BFB18EEE2
:10370000901AE868FFF7BDFD204604F093FB18EE21
:10371000101A2869FFF7B5FD204604F08BFBBDECBD
:10372000048B38BD000048425804002008B53920F9
:1037300002F0E4FC08BD000010B5392002F0DAFC0C
:10374000054C2C222146054804F0CEFA2C220021FB
:10375000204608F0F5FF10BD20080020AC0A00202C
:1037600038B50546052407E02946054B53F82400E3
:10377000FFF7BEFC0134E4B2062CF5D938BD00BF1A
:103780005804002038B5184A184B536158339361D8
:1037900005240EE00A2004F04DFB22461449124B8A
:1037A00053F82400FFF772FC0A2004F043FB0134B5
:1037B000E4B2062CEED905240FE00B4D0D4955F867
:1037C0002400FFF74BFD0C4955F82400FFF77FFD5F
:1037D0000A2004F02FFB0134E4B2062CEDD90120BD
:1037E000FFF7BEFF38BD00BF58040020D004002002
:1037F00074070020000070410000A04110B50524AE
:1038000009E0064B53F82400FFF752FC0A2004F0AD
:1038100011FB0134E4B2062CF3D910BD580400208A
:1038200010B5052406E0054B53F82400FFF786FC8D
:103830000134E4B2062CF6D910BD00BF58040020B4
:1038400010B5FFF7EDFF054C2046FFF797FC04F19C
:103850005800FFF793FCFFF7D1FF10BDD004002004
:1038600008B50146024BD869FFF742FC08BD00BF0E
:103870005804002010B5094C0948E06107220949A5
:10388000FFF704FC0849E069FFF7E8FC0749E06935
:10389000FFF71DFD0120FFF7E3FF10BD58040020D6
:1038A0007804002074070020000060410000A0415F
:1038B00008B5FFF7B9FEFFF765FFFFF7DBFF00F084
:1038C0001BF908BD08B5024BD869FFF7F1FB08BD2D
:1038D0005804002008B5024BD869FFF72FFC08BD3B
:1038E0005804002008B5FFF7F5FF034BD869FFF730
:1038F00045FCFFF7E7FF08BD5804002000B585B080
:103900000DF1100C0CE90700012B03D04BB105B0F1
:103910005DF804FB0122BDF80410029802F0FAFEE3
:10392000F5E70022BDF80410029802F0F3FEEEE77E
:103930000C4B0D4A5A604FF48051198001211972C5
:1039400059721A614FF48041998102211975597594
:10395000DA614FF400521A83032283F8202083F89F
:1039600021207047E0060020000C024000231A4688
:1039700005E010F803C06244D2B20133DBB28B42DF
:10398000F7D3D043C0B2704700231A4605E010F8C1
:1039900003C06244D2B20133DBB28B42F7D3FF2AB9
:1039A00014BF00200120704708B50A460A230146CB
:1039B000014804F058F808BD3C0B00202DE9F04FF9
:1039C0008BB006460193022856D001285CD040F601
:1039D00048539A4200D91A465FFA81F9C1F3072584
:1039E0005FFA82F8140AFF238DF818308DF8193029
:1039F0008DF80C604FF00A0B8DF80DB04FF0030AF4
:103A00008DF80EA04FF029038DF80F30019B8DF833
:103A100010308DF811908DF8125000278DF813702A
:103A20008DF814708DF815808DF816400B2103A8C1
:103A3000FFF79CFF8DF81A608DF81BB08DF81CA065
:103A40004FF029028DF81D20019B8DF81E308DF856
:103A50001F908DF820508DF821708DF822708DF810
:103A600023808DF824408DF825000E2106A8FFF74D
:103A70009BFF0BB0BDE8F08F00290DDBB1F5805F37
:103A8000A5DD4FF48051A2E7002907DBB1F5805F87
:103A90009DDD4FF480519AE7002198E7002196E7D9
:103AA000F0B585B00546FF238DF808308DF8093054
:103AB0008DF8000004278DF8017002248DF8024073
:103AC00038268DF803608DF8044005216846FFF71D
:103AD0004DFF8DF80A508DF80B708DF80C408DF865
:103AE0000D608DF80E408DF80F0008210DEB0100E0
:103AF000FFF75AFF05B0F0BD70B5482007F004FF8E
:103B00000446994B1860482007F0FEFE974B18605A
:103B1000482007F0F9FE964B1860482007F0F4FEA5
:103B2000944B1860482007F0EFFE934B1860482034
:103B300007F0EAFE914B1860482007F0E5FE904B35
:103B40001860482007F0E0FE8E4B1860482007F010
:103B5000DBFE8D4B1860482007F0D6FE8B4B1860BB
:103B6000482007F0D1FE8A4B1860482007F0CCFEB1
:103B7000884B1860482007F0C7FE874B1860482024
:103B800007F0C2FE854B1860482007F0BDFE844B4D
:103B90001860482007F0B8FE824B1860482007F0F4
:103BA000B3FE814B1860ECB1804B23606E4E3468DD
:103BB000002565607E4BA3607E4BE36025616561F7
:103BC0007D4BA361E36101F039FE2062336800227E
:103BD0005A629A62DA621A635D639D63DD63012251
:103BE00083F84020614B1B68EBB1744A1A605F4E4A
:103BF000346800256560724BA3606E4BE3602561FD
:103C000065616D4BA361E36101F018FE20623368CA
:103C100000225A629A62DA621A635D639D63DD6311
:103C2000012283F84020524B1B68F3B1654A1A60A9
:103C30004F4E3468644B6360644BA3605D4BE3603C
:103C40000025256165615C4BA361E36101F0F6FD30
:103C50002062336800225A629A62DA621A635D63F4
:103C60009D63DD63012283F84020424B1B68F3B162
:103C7000574A1A603F4E3468534B6360554BA360FC
:103C80004C4BE3600025256165614B4BA361E3610B
:103C900001F0D4FD2062336800225A629A62DA622F
:103CA0001A635D639D63DD63012283F84020324B1C
:103CB0001B68F3B1434A1A602F4E3468424B63606D
:103CC000454BA3603B4BE360002525616561434B99
:103CD000A361E36101F0B2FD2062336800225A6201
:103CE0009A62DA621A635D639D63DD63012283F881
:103CF0004020224B1B68F3B1394A1A601F4E3468CA
:103D0000314B6360374BA3602A4BE360002525618C
:103D10006561324BA361E36101F090FD206233687D
:103D200000225A629A62DA621A635D639D63DD6300
:103D3000012283F84020124B1B68002B68D02A4ACE
:103D40001A600F4E3468204B6360284BA360194BF8
:103D5000E360002525616561254BA361254BE36187
:103D600001F06CFD206247E044070020400700207E
:103D70003C070020380700203407002030070020CF
:103D80002C070020280700202407002020070020FF
:103D90001C0700201807002014070020100700202F
:103DA0000C0700200807002004070020B6F3854018
:103DB0007F6A1C3FBC74933C00009644D5788540D4
:103DC0006ABC343F666686406F12833A0AD7C33FA7
:103DD0008FC28540E17AB43F5C8FC23F0000E1446E
:103DE000CDCC9C4048E1DA3F000040409A99993F91
:103DF0000000484300005C43336800225A629A6224
:103E0000DA621A635D639D63DD63012283F84020FB
:103E1000954B1B68FBB1954A1A60934E3468944BDE
:103E20006360944BA360944BE3600025256165615A
:103E3000924BA361924BE36101F000FD2062336875
:103E400000225A629A62DA621A635D639D63DD63DF
:103E5000012283F840208B4B1B683BB38A4A1A60CF
:103E6000884E3468894B6360894BA360824BE36062
:103E7000002525616561874BA361874BE36101F0F4
:103E8000DDFC206201F0DAFC07EE900A3368F8EE00
:103E9000677AC3ED117A00225A629A62DA621A6373
:103EA0005D639D63DD63012283F840207B4B1B68CB
:103EB0003BB3754A1A60794E3468744B6360784B33
:103EC000A3606D4BE360002525616561714BA361C3
:103ED000714BE36101F0B2FC206201F0AFFC07EE30
:103EE000900A3368F8EE677AC3ED117A00225A62BD
:103EF0009A62DA621A635D639D63DD63012283F86F
:103F00004020684B1B68FBB1674A1A60654E3468F5
:103F1000574B6360654BA360574BE36000252561F9
:103F20006561634BA361634BE36101F087FC206231
:103F3000336800225A629A62DA621A635D639D6393
:103F4000DD63012283F840205B4B1B68FBB15B4AB9
:103F50001A60594E34685A4B63605A4BA360464B03
:103F6000E360002525616561574BA361574BE36111
:103F700001F064FC2062336800225A629A62DA62BD
:103F80001A635D639D63DD63012283F84020504B1B
:103F90001B68FBB14F4A1A604D4E3468484B636052
:103FA0004D4BA360344BE360002525616561464BB2
:103FB000A361464BE36101F041FC206233680022BB
:103FC0005A629A62DA621A635D639D63DD6301225D
:103FD00083F84020414B1B68FBB1414A1A603F4EB9
:103FE0003468374B6360314BA360234BE36000259B
:103FF000256165613B4BA3612E4BE36101F01EFC23
:104000002062336800225A629A62DA621A635D6340
:104010009D63DD63012283F84020334B1B68FBB1B5
:10402000324A1A60304E3468114B6360304BA360E3
:10403000114BE3600025256165612E4BA3612E4B7A
:10404000E36101F0FBFB2062336800225A629A624E
:10405000DA621A635D639D63DD63012283F84020A9
:10406000264B1B684CE000BF2807002066666640B0
:104070006F12833A9A99193FBC74933C00004843ED
:1040800000005C4324070020333323400AD7A33CBD
:104090009A99993E000020430000434420070020E5
:1040A0003333B33E1C070020CDCC8C3FD7A3F03E6A
:1040B000000048420000964318070020CDCC0C4079
:1040C0000AD7233C3D0AD73E0000E1430000EB4302
:1040D00014070020000020408FC2753E100700200A
:1040E0000000C040000082420C070020CDCC90416F
:1040F00014AE3740000016440000E14408070020D9
:10410000F3B1214A1A60214E3468214B6360214B80
:10411000A360214BE3600025256165611F4BA3610E
:10412000E36101F08BFB2062336800225A629A62DD
:10413000DA621A635D639D63DD63012283F84020C8
:10414000174B1B68FBB1174A1A60154E3468164BA3
:104150006360164BA360104BE36000252561656129
:10416000134BA361134BE36101F068FB20623368DA
:1041700000225A629A62DA621A635D639D63DD63AC
:10418000012283F8402070BD1F850B4008070020E6
:104190006F12833AAE47613EBC74933C0000E1432A
:1041A000040700200000C0400AD7233CD7A3F03EFC
:1041B000000082420000964398B138B504460025BD
:1041C0000561456101F03AFB206200236362A3624E
:1041D000E36223636563A563E563012384F84030EC
:1041E00038BD704710B52DED028B044690F8403075
:1041F000002B40F0928008EE901A08EE102A01F091
:104200001DFB236AC31A07EE903AF8EE677A9FED1A
:10421000597A87EE875A206284ED035A78EEC87A7D
:1042200094ED007A27EE277A94ED046A65EE276A0A
:1042300036EE266A84ED046AD4ED016AF5EE406A32
:10424000F1EE10FA1CD0D4ED065AC5EEA64AB4EE33
:10425000E46AF1EE10FA69DDC4ED044AF4EEC75ADF
:10426000F1EE10FA6CD5F5EEC07AF1EE10FA67DDDA
:1042700094ED046ADFED405A26EE256A84ED046A67
:1042800094ED046A26EE866AB5EEC05AF1EE10FA95
:1042900063DDD4ED055A77EEE55AC5EE856ADFEDAC
:1042A000375A66EEA56AD4ED0E5ADFED354A65EE53
:1042B000A45A76EEA56AC4ED0E6AD4ED025A65EEF4
:1042C000A66A37EE067A37EE267AD4ED066AF4EE61
:1042D000C76AF1EE10FA08D4F1EE666AF4EEC76A26
:1042E000F1EE10FA01DCF0EE476A94ED077A94EDF6
:1042F0000D6A76EEC65A25EE077AB4EEE57AF1EE4F
:1043000010FA2DD576EE076AC4ED0D6AC4ED057A74
:1043100016EE900ABDEC028B10BD002380F84030F1
:1043200001F08CFA2062DFED176AF1E7F1EE644AE2
:10433000B4EEE46AF1EE10FA90D5C4ED044A8DE7CC
:10434000F1EE655AF4EEC75AF1EE10FA98DDF5EE8B
:10435000C07AF1EE10FA93D58AE7DFED0A6A9EE79C
:10436000B1EE475AF4EEC55AF1EE10FACCD576EE1E
:10437000476AC9E700007A446666663FCDCC4C3F89
:10438000CDCC4C3E0000000010B52DED028B044654
:1043900090F84030002B40F0928008EE901A08EE22
:1043A000102A01F04BFA236AC31A07EE903AF8EE8E
:1043B000677A9FED597A87EE875A206284ED035A17
:1043C00078EEC87A94ED007A27EE277A94ED046AA5
:1043D00065EE276A36EE266A84ED046AD4ED016A3A
:1043E000F5EE406AF1EE10FA1CD0D4ED065AC5EE97
:1043F000A64AB4EEE46AF1EE10FA69DDC4ED044AAF
:10440000F4EEC75AF1EE10FA6CD5F5EEC07AF1EE83
:1044100010FA67DD94ED046ADFED405A26EE256A56
:1044200084ED046A94ED046A26EE866AB5EEC05AFD
:10443000F1EE10FA63DDD4ED055A77EEE55AC5EEDC
:10444000856ADFED375A66EEA56AD4ED0E5ADFEDC8
:10445000354A65EEA45A76EEA56AC4ED0E6AD4ED2F
:10446000025A65EEA66A37EE067A37EE267AD4ED62
:10447000066AF4EEC76AF1EE10FA08D4F1EE666A45
:10448000F4EEC76AF1EE10FA01DCF0EE476A94ED43
:10449000077A94ED0D6A76EEC65A25EE077AB4EEE9
:1044A000E57AF1EE10FA2DD576EE076AC4ED0D6AC5
:1044B000C4ED057A16EE900ABDEC028B10BD002308
:1044C00080F8403001F0BAF92062DFED176AF1E7B9
:1044D000F1EE644AB4EEE46AF1EE10FA90D5C4ED60
:1044E000044A8DE7F1EE655AF4EEC75AF1EE10FA80
:1044F00098DDF5EEC07AF1EE10FA93D58AE7DFED9C
:104500000A6A9EE7B1EE475AF4EEC55AF1EE10FA88
:10451000CCD576EE476AC9E700007A446666663F06
:10452000CDCC4C3FCDCC4C3E0000000008B50C4833
:104530000C4B03600923436000238360C3604FF486
:10454000003202614361037643768376C376037754
:10455000437701F079F900B908BD00F0EFFBFBE704
:10456000740700200064004008B50C480C4B036041
:104570000923436000238360C3604FF4003202616B
:104580004361037643768376C3760377437701F0FE
:104590005BF900B908BD00F0D1FBFBE74C07002038
:1045A0000068004010B58AB0002305930693079376
:1045B0000893099303683E4A934204D03D4A9342CC
:1045C00034D00AB010BD3C4A136801331360012B8C
:1045D0001FD000240194394B1A6B42F008021A6371
:1045E0001B6B03F008030193019B03230593022235
:1045F000069208930923099305A9314801F086FF23
:1046000022460521142001F065FD142001F072FD01
:10461000D7E700230093294B1A6C42F000721A640A
:104620001B6C03F000730093009BD2E700230293FE
:10463000224B1A6C42F080621A641B6C03F0806398
:104640000293029B1C4A136801331360012B21D093
:1046500000240494194B1A6B42F002021A631B6B7C
:1046600003F002030493049B4FF440530593022389
:104670000693032308930923099305A9114801F020
:1046800045FF22460521402001F024FD402001F095
:1046900031FD96E700230393084B1A6C42F0007239
:1046A0001A641B6C03F000730393039BD0E700BFF5
:1046B00000640040006800404807002000380240C5
:1046C000000C02400004024030B595B000240F9465
:1046D0001094012511950A940B940C940D940E944A
:1046E00012950AA9094801F055F90E23059306947D
:1046F00007950094019402940394049408956946E4
:10470000034801F047F915B030BD00BF7407002021
:104710004C07002010B582B0002400941A4B1A6B8D
:1047200042F480021A631A6B02F480020092009A2B
:1047300001941A6B42F400121A631B6B03F400130A
:104740000193019B224605210C2001F0C3FC0C20A3
:1047500001F0D0FC224606210E2001F0BBFC0E2009
:1047600001F0C8FC22460521112001F0B3FC112004
:1047700001F0C0FC22460721392001F0ABFC3920B2
:1047800001F0B8FC02B010BD0038024008B509E0E5
:1047900020480369826841680068FCF79DFF0A2091
:1047A00003F048FB1B4B9B7D002BF8D0194BDB7DA6
:1047B000002BF4D1174B5B7D042BF0D801A252F8EB
:1047C00023F000BF91470008D9470008E5470008DB
:1047D000F5470008034800080E4B1969187DFDF7DE
:1047E0002FFBDCE70B480369826841680068FDF72E
:1047F00083FDD4E7074B1A69597B187BFDF72EFE22
:10480000CDE704480369826841680068FEF77CF8D8
:10481000C5E700BFAC07002008B5FFF749F8FCF773
:1048200088FA00F025FE3C2003F004FB00F020FE97
:1048300000F030FB00F034FB4FF47A7003F0FAFA2A
:10484000FAE7000008B50E4A0121084603F000FB14
:104850000C4B18600C4A0121084603F0F9FA0B4B87
:1048600018600B4A00210B4803F08AFA0A4B1860C3
:104870000A4A00210A4803F083FA0A4B186008BD6F
:1048800008E40008A0070020F8E300089C070020C7
:104890003CE400088D470008A807002018E4000841
:1048A00019480008A40700202DE9F0438DB007AD9A
:1048B00000240794089409940A940B940094424BA2
:1048C0001A6B42F010021A631A6B02F01002009287
:1048D000009A01941A6B42F040021A631A6B02F0BC
:1048E00040020192019A02941A6B42F001021A638B
:1048F0001A6B02F001020292029A03941A6B42F0C0
:1049000008021A631A6B02F008020392039A0494D5
:104910001A6B42F020021A631A6B02F02002049212
:10492000049A05941A6B42F080021A631A6B02F023
:1049300080020592059A06941A6B42F002021A63ED
:104940001B6B03F002030693069B204F22460121B6
:10495000384601F0DFFEDFF8789022464FF4E04160
:10496000484601F0D7FEDFF86C8001224FF4006169
:10497000404601F0CFFE01224FF48041384601F05D
:10498000C9FE44F2010307930126089609940A948C
:104990002946384601F0BAFD4FF4E04307930896E4
:1049A00009940A942946484601F0B0FD4FF400638B
:1049B0000793089609940A942946404601F0A6FDFB
:1049C0000DB0BDE8F08300BF003802400014024083
:1049D000000C02400010024010B58AB0044601AB42
:1049E00003AA002101F015F930B923680B4A93425C
:1049F00004D00B4A934209D00AB010BD059B042B8A
:104A0000FAD101A90498FEF77FFDF5E7059B042B79
:104A1000F2D101A90498FEF777FDEDE700640040AC
:104A20000068004030B585B0844B98420DD0844B6F
:104A3000984200F0DE80834B984200F0DE80824B8B
:104A4000984200F0ED8005B030BD00F0F7FE7F4BDE
:104A500018607F4D7F4CAC46BCE80F000FC4BCE82B
:104A60000F000FC49CE8070084E807002C220021F7
:104A7000284607F065FE002390E0591C7548415C0C
:104A8000532940F09280D91D415C090209B29C1D56
:104A9000005D014307EE901AF8EEE77A9FED6E7A1B
:104AA00067EEC77A9FED6D7A67EE877A6C49C1ED44
:104AB000007A6C49D1ED007AF4EEC77AF1EE10FA83
:104AC00045D59FED697AF4EEC77AF1EE10FA3EDD36
:104AD0006349D1ED006A9FED657AF4EEC76AF1EEA5
:104AE00010FA34D5D1ED006A9FED617AF4EEC76A11
:104AF000F1EE10FA2BDD5F48016801310160584981
:104B000091ED007ADFED557AB4EE677AF1EE10FAA6
:104B10004BD091ED007ADFED567AB4EE677AF1EE84
:104B200010FA42D05349D1ED007AF8EEE77A9FEDC2
:104B3000527A67EE877A4A4991ED007A77EE877A62
:104B40004E48C0ED007A0868464908602DE09FEDA8
:104B5000477AF4EEC77AF1EE10FAD0D59FED447A99
:104B6000F4EEC77AF1EE10FAC9DD3D4991ED007A15
:104B7000DFED3D7AB4EEE77AF1EE10FABFDD91EDAC
:104B8000007ADFED367AB4EEE77AF1EE10FAB6D5B8
:104B90003848016801390160B1E70133242B22DC78
:104BA0002C4AD25C552A3FF468AF552AF5D15A1CDD
:104BB00028498A5C522AF0D1DA1D8A5C120212B2AC
:104BC000981D095C0A4307EE902AF8EEE77A9FEDFC
:104BD000227A67EEC77A9FED2A7A67EE877A294AAA
:104BE000C2ED007AD9E72C221949144803F07CF869
:104BF00029E7254B01221A7025E7244C01AB94E8E4
:104C0000070003C31A7001A8FEF7ECF90023236024
:104C100063602372092221460A4803F065F812E70F
:104C20001B4C08212046FEF703F800232360636035
:104C300008222146044803F057F804E7AC0A002094
:104C4000840B00203C0B0020F40A0020D007002039
:104C500020080020F4070020000000380000344342
:104C6000DC070020CC0700200000B4420000B4C2E2
:104C7000000034C3C80700200000B443D807002058
:104C80000000FA44D40700204C080020E007002070
:104C9000EC07002008B50368244A934203D0244A55
:104CA000934203D008BD00F0BDFDFBE7214B1B780C
:104CB0004BB1012BF6D1FEF759F8FDF7C3FE1D4BA2
:104CC00000221A70EEE7FEF733F8FDF7AFFEFEF7AD
:104CD00033F90120FEF7E4FE174BD98940F2D66381
:104CE000994218D1144B1B8A40F2D662934212D9D2
:104CF000B3F5EB6F08D9FA2340F63C7240F24E71DF
:104D00000120FEF75BFE0DE0C823DC2209B2012082
:104D1000FEF754FE06E0C82340F6485209B20120CF
:104D2000FEF74CFE034B01221A70BBE70014004053
:104D3000000C0040C40700200804002072B6FEE703
:104D400010B594B008AC30220021204607F0F8FCE2
:104D50000023039304930593069307930193234A37
:104D6000116C41F080511164126C02F0805201927A
:104D7000019A02931E4B1A6842F440421A601B6863
:104D800003F440430293029B012308934FF48033C2
:104D9000099302230E934FF480020F920622109281
:104DA000B4221192129304231393204601F0F6FCCF
:104DB000A8B901F0B5FCA0B90F2303930223049313
:104DC000002305934FF4A05306934FF480530793A9
:104DD000052103A801F032FF28B914B010BDFFF778
:104DE000ADFFFFF7ABFFFFF7A9FF00BF00380240A0
:104DF0000070004008B500F0FBFCFFF7A1FFFFF7D3
:104E000053FDFFF787FC00F05BFB00F073FB00F045
:104E1000A5FBFFF78BFB00F0D3FA00F035FAFFF7A4
:104E2000A3FB00F081FB154D08222946144802F02F
:104E30005BFF144C09222146134802F055FF002362
:104E40002B606B60236063602372FFF73DFC0F4CA7
:104E5000204600F03BFE0221204600F08FFF0C4C64
:104E6000204600F033FE0221204600F087FF02F0CA
:104E700059FFFFF7E7FC02F067FFFEE7EC070020B1
:104E8000F40A0020E00700203C0B002074070020FB
:104E90004C07002008B5FEF7D3FCFEF723FD08BD44
:104EA00070B588B0664B93E8070008AB03E90700CC
:104EB000644807F067FBFFF7EDFF0520FDF770FE84
:104EC0006148FEF70FF802E00520FDF769FE5F4B31
:104ED00093F86430002BF7D00520FDF783FE5B4C80
:104EE00094F8673094F868200192009394F8663043
:104EF00094F8652094F86410554807F0DBFAFEF743
:104F000045F80220FBF7E8FF4FF0FF310320FBF7E5
:104F100087FF0720FDF744FE1520FBF7C1FF40F691
:104F2000C4110120FBF73AFF4A4E4FF0FF313068C1
:104F300002F0E7FF0720FDF755FE94F86900FBF744
:104F4000CBFF94F869100120FCF766F8424D284623
:104F5000FDF746FD4FF0FF310420FBF761FF07200E
:104F6000FDF71EFE4FF448710220FBF717FF1620D5
:104F7000FBF796FF4FF0FF31306802F0C2FF0720C9
:104F8000FDF730FE94F86A00FBF7A6FF94F86A106C
:104F90000220FCF741F82846FDF722FD4FF0FF31D3
:104FA0000720FBF73DFF4FF4487002F043FF2B480A
:104FB000FDF798FF0720FDF7F3FD1820FBF770FFC2
:104FC0004FF4FA610320FBF7E9FE4FF0FF31306840
:104FD00002F097FF0720FDF705FE94F86B00FBF742
:104FE0007BFF94F86B100320FCF716F82846FDF7BA
:104FF000F7FC04A90023ADF810308B7003AAADF8BC
:105000000C30937005A8FCF757F89DF81030012B71
:105010000FD04FF0FF310920FBF702FF1420FBF700
:105020003FFF03A904A8FBF765FF00F021FA08B0D1
:1050300070BD4FF0FF311920FBF7F2FEEEE700BF25
:1050400038E30008ACE30008668686C39C030020B2
:10505000BCE30008A00700200080A343CC0C5BC386
:1050600000B583B0002200920D4B596C41F4804191
:105070005964596C01F48041009100990192196CB6
:1050800041F0805119641B6C03F080530193019B24
:105090000F216FF0010001F01DF803B05DF804FB73
:1050A0000038024030B589B0044600230193214BFB
:1050B0001A6C42F020021A641B6C03F02003019367
:1050C000019B02A903A801F08FFE069BCBB901F05A
:1050D0006BFE0346184AA2FB03239B0C013B1748B7
:1050E000174A026040F2E732C26043600023036166
:1050F0008360836102F0D8F8054630B1284609B0D4
:1051000030BD01F051FE4300E4E70C4801F052FFCE
:1051100005460028F2D1372000F0ECFF0F2C01D912
:105120000125EBE700222146372000F0D3FF054B95
:105130001C60E3E70038024083DE1B435008002078
:105140000014004080010020FEE7FEE7FEE7FEE7D6
:10515000FEE7704708B5024801F0EAF808BD00BF55
:105160008C09002008B5024801F0E2F808BD00BF34
:105170004C0A002008B5024801F0DAF808BD00BF6B
:10518000EC09002008B5024800F016FE08BD00BF7B
:105190007407002008B5024801F06BFF08BD00BF8E
:1051A000E408002008B5024801F063FF08BD00BF15
:1051B0005008002008B5024801F0BAF808BD00BF49
:1051C0002C09002008B5024800F0F6FD08BD00BF1C
:1051D0004C0700200120704708B507F013FB162389
:1051E00003604FF0FF3008BD08B54FF0FF31FFF707
:1051F000F3FFFEE770B50C461646002506E0AFF358
:105200000080214601F8010B01350C46B542F6DB62
:10521000304670BD4FF0FF3070474FF400534B6085
:1052200000207047012070470020704710B50346EA
:105230000C4A0D490D48006840B10C480068034411
:10524000521A934206D8094A136010BD0748084C09
:105250000460F2E707F0D6FA0C2303604FF0FF304A
:10526000F3E700BF000003200004000098080020BE
:1052700070560020034AD2F8883043F47003C2F815
:105280008830704700ED00E000B587B0002302933E
:10529000039304930593009301931548154A026004
:1052A00059224260836040F6C312C2600361836189
:1052B00001F0FAFF90B94FF48053029302A90C4811
:1052C00002F0FDF868B9002300930193694608488D
:1052D00002F048FA40B907B05DF804FBFFF72EFD75
:1052E000E9E7FFF72BFDEEE7FFF728FDF3E700BF47
:1052F000E4080020000C004002680E4B9A4200D0E7
:10530000704700B583B00022019203F50B33196C8E
:1053100041F0080119641B6C03F008030193019B21
:105320000621322000F0D6FE322000F0E3FE03B06A
:105330005DF804FB000C00400268094B9A4200D063
:10534000704782B000230193064B1A6C42F0400272
:105350001A641B6C03F040030193019B02B0704779
:10536000001800400038024000B587B000230193C8
:10537000029303930493059302680E4B9A4202D062
:1053800007B05DF804FB002300930B4B1A6B42F04F
:1053900080021A631B6B03F080030093009B402381
:1053A0000193022302930923059301A9034801F005
:1053B000ADF8E5E70018004000380240001C02404C
:1053C00000B589B0002301930293039304930593DE
:1053D000069307931148124A02604360836048F2C3
:1053E0003422C2600361836101F08AFF80B96023C7
:1053F0000193002202920392059201A9074801F04D
:10540000E3FF40B90548FFF7AFFF09B05DF804FBC3
:10541000FFF794FCEBE7FFF791FCF3E79C08002013
:1054200000180040642800D96420054BDA6802FBAC
:105430000000044AA2FB002040091B685863704723
:105440009C0800201F85EB5108B53220FFF7EAFFCA
:105450000021024802F0C2F808BD00BF9C080020ED
:1054600008B50021014802F037F908BD9C0800206A
:1054700008B5FFF7E9FF282002F0DCFCFFF7F0FF9A
:1054800008BD000000B583B001904FF6FF73012204
:1054900001A9034802F0E7FA019803B05DF804FBA4
:1054A000840B002070B50C461646002504E014F865
:1054B000010BFFF7E7FF0135B542F8DB304670BD61
:1054C00008B50A480A4B03604FF4E13343600023F8
:1054D0008360C36003610C2242618361C36102F097
:1054E00092FA00B908BDFFF729FCFBE7840B002006
:1054F0000078004008B50A480A4B03604FF4E133D6
:10550000436000238360C36003610C2242618361B6
:10551000C36102F078FA00B908BDFFF70FFCFBE7A2
:105520003C0B0020007C004008B50A480A4B036091
:105530004FF4E133436000238360C36003610C22B6
:1055400042618361C36102F05EFA00B908BDFFF7F2
:10555000F5FBFBE7F40A00200048004008B50A48C4
:105560000A4B03604FF4E133436000238360C36060
:1055700003610C2242618361C36102F044FA00B905
:1055800008BDFFF7DBFBFBE7AC0A0020001401407D
:1055900030B58FB00446002309930A930B930C9304
:1055A0000D930368824A93420BD0824A934245D0BE
:1055B000814A93427DD0814A934200F0B9800FB076
:1055C00030BD002501957E4B1A6C42F080421A6472
:1055D0001A6C02F080420192019A02951A6B42F015
:1055E00010021A631B6B03F010030293029B4FF42B
:1055F000C073099302230A9303230C9308230D938A
:1056000009A9704800F082FF6F48704B03604FF0AB
:10561000206343608560C5604FF48063036145612A
:105620008561C5610562456200F0E8FD18B9664B09
:10563000E3639C63C3E7FFF781FBF8E7002503956D
:105640005F4B1A6C42F000421A641A6C02F000427E
:105650000392039A04951A6B42F010021A631B6BB3
:1056600003F010030493049B0323099302220A927C
:105670000C9308230D9309A9524800F047FF5448A2
:10568000544B03604FF0206343608560C5604FF466
:105690008063036145618561C5610562456200F013
:1056A000ADFD18B94A4BE3639C6388E7FFF746FBFF
:1056B000F8E700250595424B1A6C42F480221A64E3
:1056C0001A6C02F480220592059A06951A6B42F034
:1056D00008021A631B6B03F008030693069B4FF442
:1056E0004073099302230A9303230C9307230D931A
:1056F00009A9394800F00AFF3848394B03604FF0D8
:10570000006343608560C5604FF480630361456159
:105710008561C5614FF400330362456200F06EFDA0
:1057200018B92E4BE3639C6349E7FFF707FBF8E7E3
:1057300000250795224B5A6C42F020025A645A6C9D
:1057400002F020020792079A08951A6B42F0400275
:105750001A631B6B03F040030893089B4FF48443C8
:10576000099302230A9303230C9308230D9309A999
:105770001C4800F0CBFE1C481C4B03604FF020631C
:1057800043608560C5604FF4806303614561856156
:10579000C5614FF480330362456200F02FFD18B9F4
:1057A000114BE3639C630AE7FFF7C8FAF8E700BF11
:1057B00000780040007C0040004800400014014098
:1057C00000380240001002404C0A0020586002409D
:1057D000EC090020A0600240000C02408C0900206F
:1057E00028600240001802402C0900202864024072
:1057F00008B50B4B1A6842F400721A601A6842F43A
:1058000080621A601A6842F480721A60032000F005
:105810004FFC0F20FFF746FCFFF722FC002008BDDD
:10582000003C0240034A1168034B1B780B44136091
:10583000704700BFCC0B00207C010020014B186892
:10584000704700BFCC0B0020002800F0A18038B5C5
:10585000044690F82030D3B12268136843F0010366
:105860001360FFF7EBFF054623685A6812F0010F3B
:1058700010D1FFF7E3FF401B0A28F5D9636A43F410
:1058800000336362052384F82030012038BDFEF721
:1058900089FEE1E71A6822F002021A60FFF7CEFFE4
:1058A000054623685A6812F0020F0DD0FFF7C6FFB5
:1058B000401B0A28F5D9636A43F400336362052369
:1058C00084F820300120E1E7227E012A3DD01A68C9
:1058D00022F080021A60637E012B3BD0226813689D
:1058E00023F040031360A37E012B39D02268136894
:1058F00023F020031360E37E012B37D02268136866
:1059000043F010031360237F012B35D02268136806
:1059100023F008031360637F012B33D022681368E0
:1059200023F004031360A368E2681343226913435E
:10593000626913436268013A21681343CB61002016
:105940006062012384F82030A0E71A6842F08002E8
:105950001A60C0E72268136843F040031360C2E78F
:105960002268136843F020031360C4E722681368B9
:1059700023F010031360C6E72268136843F008039E
:105980001360C8E72268136843F004031360CAE792
:105990000120704790F82030013BDBB2012B05D984
:1059A000436A43F4802343620120704730B5464B7D
:1059B000D3F8002242F00102C3F80022D3F80022FB
:1059C00022F47C52C3F80022D3F80022486A42EA4B
:1059D0000022C3F800224A6902F01F02012000FAE7
:1059E00002F2D3F81C026FEA020C20EA0200C3F8AC
:1059F0001C02CB69C3B9344BD3F80C020CEA00008B
:105A0000C3F80C028C884869CD6844EA05444830E4
:105A100043F830408C68088840EA04404C6904F13F
:105A2000480E03EBCE035860CB69012B1ED08B6967
:105A3000002B33D12448D0F804320CEA0303C0F819
:105A400004320B698BBB2048D0F814320CEA0303F4
:105A5000C0F814320B6A012B2ED01B4AD2F8003248
:105A600023F00103C2F80032002030BD164BD3F8FA
:105A70000C021043C3F80C028C8848690D6844EA94
:105A80000544483043F8304088894C698D6840EAC5
:105A90000540483403EBC4035860C8E70A48D0F80F
:105AA00004321343C0F80432CBE70748D0F814326D
:105AB0001343C0F81432CDE70349D1F81C32134325
:105AC000C1F81C32C9E700BF0064004070B504464D
:105AD00090F82030012B06D0436A43F40023436240
