:020000040800F2
:100000000000032021A30008D9530008DB53000897
:10001000DD530008DF530008E15300080000000032
:10002000000000000000000000000000A1830008A4
:10003000E35300080000000041840008797F0008B5
:1000400071A3000871A3000871A3000871A3000840
:1000500071A3000871A3000871A3000871A3000830
:1000600071A3000871A3000871A3000871A3000820
:10007000E553000871A30008F553000871A30008B8
:1000800071A3000871A3000871A3000871A3000800
:100090000554000871A3000871A3000871A30008AB
:1000A00071A3000871A3000871A3000871A30008E0
:1000B00071A3000871A3000871A3000871A30008D0
:1000C00071A3000871A3000871A3000871A30008C0
:1000D00071A3000871A3000871A3000871A30008B0
:1000E00071A3000871A3000871A3000871A30008A0
:1000F00071A3000871A3000871A3000871A3000890
:1001000071A3000871A300081554000871A300082A
:1001100071A3000871A3000871A30008255400080A
:1001200071A300083554000871A3000871A30008EA
:1001300071A3000871A3000871A3000871A300084F
:100140004554000871A3000871A3000871A30008BA
:1001500071A3000871A3000871A3000871A300082F
:1001600071A3000871A3000871A3000871A300081F
:1001700071A3000871A3000871A30008000000002B
:1001800071A3000871A3000871A3000871A30008FF
:1001900071A3000871A3000871A3000871A30008EF
:0C01A000000000000000000071A3000837
:1001B00081F0004102E000BF83F0004330B54FEA18
:1001C00041044FEA430594EA050F08BF90EA020F85
:1001D0001FBF54EA000C55EA020C7FEA645C7FEA18
:1001E000655C00F0E2804FEA5454D4EB5555B8BF3B
:1001F0006D420CDD2C4480EA020281EA030382EAAC
:10020000000083EA010180EA020281EA0303362D3D
:1002100088BF30BD11F0004F4FEA01314FF4801C10
:100220004CEA113102D0404261EB410113F0004F22
:100230004FEA03334CEA133302D0524263EB4303D9
:1002400094EA050F00F0A780A4F10104D5F1200E77
:100250000DDB02FA0EFC22FA05F2801841F10001D2
:1002600003FA0EF2801843FA05F359410EE0A5F1A6
:1002700020050EF1200E012A03FA0EFC28BF4CF0D7
:10028000020C43FA05F3C01851EBE37101F000458D
:1002900007D54FF0000EDCF1000C7EEB00006EEB9A
:1002A0000101B1F5801F1BD3B1F5001F0CD3490824
:1002B0005FEA30004FEA3C0C04F101044FEA44527B
:1002C00012F5800F80F09A80BCF1004F08BF5FEA02
:1002D000500C50F1000041EB045141EA050130BDE2
:1002E0005FEA4C0C404141EB0101013C28BFB1F5F4
:1002F000801FE9D291F0000F04BF01460020B1FA3F
:1003000081F308BF2033A3F10B03B3F120020CDA11
:100310000C3208DD02F1140CC2F10C0201FA0CF0EF
:1003200021FA02F10CE002F11402D8BFC2F1200C54
:1003300001FA02F120FA0CFCDCBF41EA0C0190400A
:10034000E41AA2BF01EB0451294330BD6FEA040453
:100350001F3C1CDA0C340EDC04F11404C4F120023E
:1003600020FA04F001FA02F340EA030021FA04F350
:1003700045EA030130BDC4F10C04C4F1200220FAA7
:1003800002F001FA04F340EA0300294630BD21FAE5
:1003900004F0294630BD94F0000F83F4801306BFAB
:1003A00081F480110134013D4EE77FEA645C18BF9F
:1003B0007FEA655C29D094EA050F08BF90EA020F36
:1003C00005D054EA000C04BF1946104630BD91EA2E
:1003D000030F1EBF0021002030BD5FEA545C05D131
:1003E0004000494128BF41F0004130BD14F5800470
:1003F0003CBF01F5801130BD01F0004545F0FE41E4
:1004000041F470014FF0000030BD7FEA645C1ABF18
:10041000194610467FEA655C1CBF0B46024650EA4F
:10042000013406BF52EA033591EA030F41F400217B
:1004300030BD00BF90F0000F04BF0021704730B501
:100440004FF4806404F132044FF000054FF00001D6
:1004500050E700BF90F0000F04BF0021704730B597
:100460004FF4806404F1320410F0004548BF40426C
:100470004FF000013EE700BF42004FEAE2014FEAC1
:1004800031014FEA02701FBF12F07F4393F07F4F9C
:1004900081F06051704732F07F4208BF704793F09F
:1004A0007F4F04BF41F40021704730B54FF46074B2
:1004B00001F0004521F000411CE700BF50EA0102B5
:1004C00008BF704730B54FF000050AE050EA01025E
:1004D00008BF704730B511F0004502D5404261EBCE
:1004E00041014FF4806404F132045FEA915C3FF40F
:1004F000D8AE4FF003025FEADC0C18BF03325FEAAC
:10050000DC0C18BF033202EBDC02C2F1200300FA5C
:1005100003FC20FA02F001FA03FE40EA0E0021FA81
:1005200002F11444BDE600BF70B54FF0FF0C4CF46F
:10053000E06C1CEA11541DBF1CEA135594EA0C0F21
:1005400095EA0C0F00F0DEF82C4481EA030621EA5C
:100550004C5123EA4C5350EA013518BF52EA033597
:1005600041F4801143F4801338D0A0FB02CE4FF049
:100570000005E1FB02E506F00042E0FB03E54FF079
:100580000006E1FB03569CF0000F18BF4EF0010E71
:10059000A4F1FF04B6F5007F64F5407404D25FEA6D
:1005A0004E0E6D4146EB060642EAC62141EA555120
:1005B0004FEAC52040EA5E504FEACE2EB4F1FD0C62
:1005C00088BFBCF5E06F1ED8BEF1004F08BF5FEAE0
:1005D000500E50F1000041EB045170BD06F0004692
:1005E00046EA010140EA020081EA0301B4EB5C043F
:1005F000C2BFD4EB0C0541EA045170BD41F4801137
:100600004FF0000E013C00F3AB8014F1360FDEBF5B
:10061000002001F0004170BDC4F10004203C35DA37
:100620000C341BDC04F11404C4F1200500FA05F3BA
:1006300020FA04F001FA05F240EA020001F000425B
:1006400021F0004110EBD37021FA04F642EB0601D1
:100650005EEA430E08BF20EAD37070BDC4F10C04FB
:10066000C4F1200500FA04F320FA05F001FA04F2BF
:1006700040EA020001F0004110EBD37041F10001AB
:100680005EEA430E08BF20EAD37070BDC4F12005B6
:1006900000FA05F24EEA020E20FA04F301FA05F21E
:1006A00043EA020321FA04F001F0004121FA04F2C6
:1006B00020EA020000EBD3705EEA430E08BF20EA96
:1006C000D37070BD94F0000F0FD101F000464000D0
:1006D00041EB010111F4801F08BF013CF7D041EA52
:1006E000060195F0000F18BF704703F00046520056
:1006F00043EB030313F4801F08BF013DF7D043EA27
:100700000603704794EA0C0F0CEA135518BF95EADC
:100710000C0F0CD050EA410618BF52EA4306D1D163
:1007200081EA030101F000414FF0000070BD50EA82
:10073000410606BF1046194652EA430619D094EA0C
:100740000C0F02D150EA013613D195EA0C0F05D1F6
:1007500052EA03361CBF104619460AD181EA03014A
:1007600001F0004141F0FE4141F470014FF0000002
:1007700070BD41F0FE4141F4780170BD70B54FF09D
:10078000FF0C4CF4E06C1CEA11541DBF1CEA13551D
:1007900094EA0C0F95EA0C0F00F0A7F8A4EB0504FF
:1007A00081EA030E52EA03354FEA013100F08880F6
:1007B0004FEA03334FF0805545EA131343EA1263BF
:1007C0004FEA022245EA111545EA10654FEA002674
:1007D0000EF000419D4208BF964244F1FD0404F52D
:1007E000407402D25B084FEA3202B61A65EB030589
:1007F0005B084FEA32024FF480104FF4002CB6EB46
:10080000020E75EB030E22BFB61A754640EA0C00C5
:100810005B084FEA3202B6EB020E75EB030E22BF05
:10082000B61A754640EA5C005B084FEA3202B6EB46
:10083000020E75EB030E22BFB61A754640EA9C0005
:100840005B084FEA3202B6EB020E75EB030E22BFD5
:10085000B61A754640EADC0055EA060E18D04FEA93
:10086000051545EA16754FEA06164FEAC30343EA33
:1008700052734FEAC2025FEA1C1CC0D111F4801F00
:100880000BD141EA00014FF000004FF0004CB6E7F9
:1008900011F4801F04BF01430020B4F1FD0C88BF98
:1008A000BCF5E06F3FF6AFAEB5EB030C04BFB6EBA3
:1008B000020C5FEA500C50F1000041EB045170BD96
:1008C0000EF0004E4EEA113114EB5C04C2BFD4EBC3
:1008D0000C0541EA045170BD41F480114FF0000E47
:1008E000013C90E645EA060E8DE60CEA135594EAC3
:1008F0000C0F08BF95EA0C0F3FF43BAF94EA0C0FC6
:100900000AD150EA01347FF434AF95EA0C0F7FF43A
:1009100025AF104619462CE795EA0C0F06D152EA8E
:1009200003353FF4FDAE1046194622E750EA410672
:1009300018BF52EA43067FF4C5AE50EA41047FF483
:100940000DAF52EA43057FF4EBAE12E74FF0FF3CE8
:1009500006E000BF4FF0010C02E000BF4FF0010CB9
:100960004DF804CD4FEA410C7FEA6C5C4FEA430C32
:1009700018BF7FEA6C5C1BD001B050EA410C0CBF81
:1009800052EA430C91EA030F02BF90EA020F0020E3
:10099000704710F1000F91EA030F58BF994208BF4A
:1009A00090422CBFD8176FEAE37040F00100704707
:1009B0004FEA410C7FEA6C5C02D150EA013C07D15E
:1009C0004FEA430C7FEA6C5CD6D152EA033CD3D0A9
:1009D0005DF8040B704700BF8446104662468C46A3
:1009E0001946634600E000BF01B5FFF7B7FF0028D6
:1009F00048BF10F1000F01BD4DF808EDFFF7F4FFFF
:100A00000CBF012000205DF808FB00BF4DF808ED89
:100A1000FFF7EAFF34BF012000205DF808FB00BFAC
:100A20004DF808EDFFF7E0FF94BF012000205DF8CE
:100A300008FB00BF4DF808EDFFF7CEFF94BF012083
:100A400000205DF808FB00BF4DF808EDFFF7C4FF7C
:100A500034BF012000205DF808FB00BF4FEA410CC5
:100A60007FEA6C5C02D150EA013C0AD14FEA430CA8
:100A70007FEA6C5C02D152EA033C02D14FF00000E5
:100A800070474FF0010070474FEA410212F5001223
:100A900015D211D56FF47873B3EB625212D94FEAC5
:100AA000C12343F0004343EA505311F0004F23FAAF
:100AB00002F018BF404270474FF00000704750EA04
:100AC000013005D111F0004008BF6FF000407047C1
:100AD0004FF00000704700BF4FEA4102B2F1E0431F
:100AE00024BFB3F5001CDCF1FE5C0DD901F0004C15
:100AF0004FEAC0024CEA5070B2F1004F40EB830065
:100B000008BF20F00100704711F0804F21D113F190
:100B10003872BCBF01F00040704741F480114FEAC9
:100B20005252C2F11802C2F1200C10FA0CF320FA52
:100B300002F018BF40F001004FEAC1234FEAD3236F
:100B400003FA0CFC40EA0C0023FA02F34FEA4303D9
:100B5000CCE77FEA625307D150EA01331EBF4FF062
:100B6000FE4040F44000704701F0004040F0FE407D
:100B700040F40000704700BF53B94AB9002908BFCC
:100B800000281CBF4FF0FF314FF0FF3000F00CB8D1
:100B9000ADF1080C6DE904CE0AF078FEDDF804E052
:100BA000DDE9022304B07047704700BF0000000079
:100BB00001F0FF01102A2BDB10F0070F08D010F80E
:100BC000013B013A8B422DD010F0070F42B3F6D112
:100BD000F0B441EA012141EA014122F007047FF02B
:100BE00000070023F0E80256083C85EA010586EA82
:100BF000010685FA47F5A3FA87F586FA47F6A5FABE
:100C000087F68EB9EED1F0BC01F0FF0102F00702C9
:100C100032B110F8013B013A83EA010313B1F8D174
:100C20000020704701387047002D06BF3546033855
:100C3000073815F0010F07D1013015F4807F02BF8E
:100C4000013015F4C03F0130F0BC0138704700BFDF
:100C5000034613F8012B002AFBD1181A01387047FC
:100C60000348044B834202D0034B03B1184770473B
:100C7000E8010020E8010020000000000548064BC4
:100C80001B1AD90F01EBA301491002D0034B03B18A
:100C900018477047E8010020E8010020000000002C
:100CA00010B5064C237843B9FFF7DAFF044B13B1B4
:100CB0000448AFF300800123237010BDE801002039
:100CC00000000000B0E4000808B5054B1BB1054961
:100CD0000548AFF30080BDE80840FFF7CFBF00BF75
:100CE00000000000EC010020B0E4000808B501F0AD
:100CF0000BFB01F011FB02F09DF902F0BDFA02F0CE
:100D0000DFF908BD08B5084802F0C2F902F04EFD4F
:100D10000649074802F0F4FC002002F03BFD4FF4C6
:100D2000487007F0BDF908BD9A998940000040C19C
:100D30000000404310B52DED028B0138052875D811
:100D4000DFE810F006007700E0002601D6013F0240
:100D5000C749C84802F0D4FC02F04EFD00242046EA
:100D600002F018FD4FF4FA7007F09AF9C24802F049
:100D70008FF94FF4AF7007F093F902F017FD4FF4BD
:100D8000FA7007F08DF9BD4802F082F9BC4802F014
:100D900001FD4FF4FA7007F083F9BA49BA4802F03E
:100DA000AFFC4FF4F07007F07BF9B84802F070F92F
:100DB0004FF4C87007F074F9204602F0EBFC4FF4D2
:100DC000AF7007F06DF9B249B24802F099FC4FF4E8
:100DD0002F7007F065F9B04802F05AF94FF4C87067
:100DE00007F05EF902F008FD4FF4967007F058F92D
:100DF000AA4802F04DF94FF4C87007F051F9A84C19
:100E0000D4ED0A7AB0EE088A77EE887AC4ED0A7AD1
:100E1000A449A54802F074FC4FF4FA7007F040F9B9
:100E2000D4ED0A7A77EEC87AC4ED0A7ABDEC028B6B
:100E300010BD8F498F4802F063FC002002F0AAFC2D
:100E400002F0DAFC4FF4167007F02AF9974802F026
:100E50001FF94FF4AF7007F023F902F0A7FC4FF42D
:100E6000FA7007F01DF9924802F012F9642007F0B9
:100E700017F99049904802F043FC4FF4FA7007F0DC
:100E80000FF98C498D4802F03BFC4FF42A7007F0B3
:100E900007F98B4B186807F09EF98A4802F0F8F8BA
:100EA0004FF4E67007F0FCF802F0A6FC4FF49670E1
:100EB00007F0F6F8844802F0EBF84FF4967007F06C
:100EC000EFF8774CD4ED0A7AB0EE088A77EE887A9C
:100ED000C4ED0A7A7D497E4802F012FC4FF4FA70A4
:100EE00007F0DEF8D4ED0A7A77EEC87AC4ED0A7A14
:100EF000624802F0CDF802F059FC4FF4167007F08A
:100F0000CFF893E75A495B4802F0FAFB00242046E9
:100F100002F040FC02F070FC4FF4FA7007F0C0F8E9
:100F2000554802F0B5F84FF4AF7007F0B9F802F089
:100F30003DFC4FF4FA7007F0B3F8504802F0A8F8FF
:100F40004F4802F027FC4FF4FA7007F0A9F8614906
:100F5000614802F0D5FB4FF42A7007F0A1F85F4812
:100F600002F096F88C2007F09BF802F045FC4FF455
:100F7000967007F095F8494802F08AF802F016FCDE
:100F8000204602F007FC4FF4487007F089F84DE75F
:100F90003749384802F0B4FB0024204602F0FAFB3F
:100FA00002F02AFC4FF4FA7007F07AF8324802F0A7
:100FB0006FF84FF4AF7007F073F802F0F7FB4FF4DF
:100FC000FA7007F06DF82D4802F062F82C4802F034
:100FD000E1FB4FF4FA7007F063F83E493E4802F037
:100FE0008FFB4FF4FA7007F05BF83D4802F050F8C1
:100FF00040F28A2007F054F8204602F0CBFB4FF471
:10100000967007F04DF83749374802F079FB4FF4F6
:101010002F7007F045F8354802F03AF84FF4C870E1
:1010200007F03EF802F0E8FB4FF4967007F038F84E
:101030001A4802F02DF84FF4967007F031F8184C6A
:10104000D4ED0A7AB0EE088A77EE887AC4ED0A7A8F
:101050001449154802F054FB4FF4FA7007F020F8D9
:10106000D4ED0A7A77EEC87AC4ED0A7ADEE600BFDC
:101070000000484200000243CDCC1C409A997940C0
:101080000000B442000058C10080414366660E4132
:101090000000E6C200004D43CDCCDC4000005041D2
:1010A000840200200000A0C1000048437B142E41B0
:1010B000000038410000F0C10000524300008B43A3
:1010C000E00500200000E0409A990941000040C17D
:1010D00000004043000050C1000041439A9959402C
:1010E0009A9939410000ECC200004F439A9921417E
:1010F0005B495C4802F004FB002002F04BFB02F06D
:101100007BFB40F2262006F0CBFF574801F0C0FFE2
:101110004FF4AF7006F0C4FF02F048FB4FF4FA70D2
:1011200006F0BEFF514801F0B3FF642006F0B8FF9F
:101130004F49504802F0E4FA4FF4FA7006F0B0FF5D
:101140004D4B186807F047F849494C4802F0D8FA67
:101150004FF4FA7006F0A4FF494801F099FF40F2FD
:10116000B22006F09DFF02F047FB4FF4967006F0A8
:1011700097FF444801F08CFF4FF4967006F090FF03
:10118000414CD4ED0A7AB0EE088A77EE887AC4ED45
:101190000A7A3E493E4802F0B3FA4FF4167006F060
:1011A0007FFFD4ED0A7A77EEC87AC4ED0A7A39481F
:1011B00001F06EFF02F0FAFA4FF4167006F070FFBD
:1011C00034E62749274802F09BFA0024204602F023
:1011D000E1FA02F011FB40F2262006F061FF2248FE
:1011E00001F056FF4FF4AF7006F05AFF02F0DEFA3E
:1011F0004FF4FA7006F054FF274801F049FF6420CD
:1012000006F04EFF2149224802F07AFA4FF4E170CD
:1012100006F046FF214802F0BDFA962006F040FF96
:101220001F4801F035FF40F28A2006F039FF124BCB
:10123000186806F0D0FF02F0DFFA4FF4967006F05F
:101240002FFF184801F024FFC82006F029FF204690
:1012500002F0A0FA4FF4C87006F022FFE6E500BFE6
:1012600000004842000002437B142E41CDCC6C416B
:101270000000F0C100005243E005002000008B4355
:101280009A9921410000404184020020000040C1A1
:10129000000040439A997940000038410000B44270
:1012A0000000D0400000504110B50446142006F064
:1012B000F7FE601E05281ED8DFE800F0031E395334
:1012C0006E895049504802F01BFA02F095FA00204E
:1012D00002F060FA4FF4C37006F0E2FE4B4801F0F2
:1012E000D7FE4FF4C87006F0DBFE02F05FFA4FF451
:1012F000FA7006F0D5FE10BD4549464802F000FAE6
:1013000002F07AFA002002F045FA4FF4C37006F0BA
:10131000C7FE3E4801F0BCFE4FF4C87006F0C0FEA8
:1013200002F044FA4FF4FA7006F0BAFEE3E73A49E5
:101330003A4802F0E5F902F05FFA394802F02AFA79
:10134000962006F0ADFE374801F0A2FE4FF42F7054
:1013500006F0A6FE02F02AFA4FF4C87006F0A0FECE
:10136000C9E72849284802F0CBF902F045FA0020E5
:1013700002F010FA40F2122006F092FE2A4801F024
:1013800087FE4FF4A57006F08BFE02F00FFA4FF4C3
:10139000C87006F085FEAEE71D491E4802F0B0F9A0
:1013A00002F02AFA002002F0F5F940F2122006F0CD
:1013B00077FE1D4801F06CFE4FF4A57006F070FE3C
:1013C00002F0F4F94FF4C87006F06AFE93E7124990
:1013D000124802F095F902F00FFA114802F0DAF91A
:1013E000C82006F05DFE114801F052FE4FF40C706B
:1013F00006F056FE02F0DAF94FF4FA7006F050FEED
:1014000079E700BF0000E6C200004D436666D640A3
:101410000000F0C100008B43000040C100004043C9
:101420000000B4420000404000002041CDCCCC4040
:101430002DE9F04180460F4616461D4602E00A207F
:1014400006F02EFE0B4CA47C1CB10A4CE47C002C54
:10145000F5D0084CC4F800806760A6600021617474
:10146000E5600123A374E174034B186806F07FFE66
:10147000BDE8F081F8050020E0050020114B1A7846
:10148000013A114B134493F82C30022B03D0032B59
:101490000CD00020704719B1022904D000207047F9
:1014A0000A4BD8787047094B9878704719B10229D0
:1014B00004D000207047054B58797047034B1879CA
:1014C000704700BF04020020300200200802002004
:1014D00070B504460D461646431E052B00F2F482F5
:1014E000DFE813F006002D005400BC013502C502F0
:1014F000894801F0CDFD4FF4FA7006F0D1FD87491F
:10150000874802F0FDF84FF4167006F0C9FD8549D2
:10151000854802F0F5F8012D09D0022D02D0002DEA
:1015200040F0D2823EB1814801F0B2FDCCE2804869
:1015300001F0AEFDC8E2784801F0AAFDC4E27648A9
:1015400001F0A6FD4FF4FA7006F0AAFD7349744845
:1015500002F0D6F84FF4167006F0A2FD71497248F9
:1015600002F0CEF8012D09D0022D02D0002D40F05E
:10157000AB823EB16D4801F08BFDA5E26C4801F0F5
:1015800087FDA1E2644801F083FD9DE2002E40D179
:1015900000297FD002297DD0012940F0958265483D
:1015A00001F076FD002002F0F5F8634B5B7813B98B
:1015B000614B9B783BB1604B1B7923B95E4B5B79E8
:1015C000002B00F043815C4B1B7913B95A4B5B79BC
:1015D00033B15A4801F05CFD4FF4FA7006F060FD3B
:1015E0004FF4167006F05CFD5549564802F088F835
:1015F000C82006F055FD4B494B4802F081F8962073
:1016000006F04EFD504801F043FDAA2006F048FDCB
:101610005AE2484801F03CFD002002F0BBF8464B7E
:101620005B7813B9444B9B782BB1434B1B7913B9AF
:10163000414B5B7913B3404B1B7913B93E4B5B793C
:1016400033B1424801F024FD4FF4E17006F028FD6B
:101650004FF4167006F024FD39493A4802F050F86C
:10166000C82006F01DFD2F492F4802F049F8012D32
:101670000BD04FF4967006F013FD25E2344801F0CC
:1016800007FDFA2006F00CFDE2E74FF4967006F035
:1016900007FD19E2324629462046FFF7EFFE0128F2
:1016A00058D0022800F09080002840F00D82214898
:1016B00001F0EEFC002002F06DF81F4B5B7813B9CF
:1016C0001D4B9B783BB11C4B1B7923B91A4B5B79A3
:1016D000002B00F0B380184B1B7913B9164B5B79C4
:1016E00033B1164801F0D4FC4FF4FA7006F0D8FC80
:1016F0004FF4167006F0D4FC1149124802F000F8BD
:10170000C82006F0CDFC0749074801F0F9FF4FF467
:10171000A07006F0C5FCD7E1000040410000F0C118
:1017200000005243000048420000024333330341AB
:1017300000001041666606410000002033336B4113
:101740000000D0C100004E430000E04000006841AE
:1017500033333B419E4801F09BFC002002F01AF815
:101760009C4B5B7813B99B4B9B782BB1994B1B79A6
:1017700013B9984B5B7903B3964B1B7913B9954B0F
:101780005B7933B1944801F083FC4FF4C87006F0E4
:1017900087FC4FF42F7006F083FC9049904801F0CD
:1017A000AFFFC82006F07CFC8E498F4801F0A8FFEF
:1017B0004FF4A07006F074FC86E18C4801F068FCE0
:1017C000C82006F06DFCE4E7894801F061FC0020C8
:1017D00001F0E0FF7F4B5B7813B97E4B9B782BB118
:1017E0007C4B1B7913B97B4B5B7903B3794B1B792A
:1017F00013B9784B5B7933B1774801F049FC4FF46A
:10180000967006F04DFC4FF4487006F049FC7349A1
:10181000734801F075FFC82006F042FC7149724818
:1018200001F06EFF4FF4A07006F03AFC4CE16F48F7
:1018300001F02EFC642006F033FCE4E76B4801F075
:1018400027FC4FF4967006F02BFC51E7674801F037
:101850001FFC4FF4967006F023FCC1E65D4B5B79EC
:1018600013B95C4A927932B31BB95A4A9279002A69
:1018700038D1584A92790AB9002B4ED1564801F016
:1018800007FC4FF4FA7006F00BFC5A495A4801F075
:1018900037FF4FF4167006F003FC5249524801F02E
:1018A0002FFFC82006F0FCFB544801F0F1FB534821
:1018B00001F0EEFB08E1524801F0EAFB4FF49670AC
:1018C00006F0EEFB4B494C4801F01AFF4FF416703E
:1018D00006F0E6FB4349444801F012FFC82006F039
:1018E000DFFBE4E7464801F0D3FB4FF4967006F0C7
:1018F000D7FB4049404801F003FF4FF4167006F053
:10190000CFFB3849384801F0FBFE4FF4D77006F0A2
:10191000C7FB3A4801F0BCFBC9E72F4801F0B8FB10
:101920004FF4FA7006F0BCFB3249334801F0E8FE90
:101930004FF4167006F0B4FB2A492B4801F0E0FE84
:10194000322006F0ADFB2D4801F0A2FBAFE7214BA2
:101950001B7913B91F4A92791AB31BB91D4A9279A0
:10196000002A4FD11B4A92790AB9002B65D11A4837
:1019700001F08EFB4FF4FA7006F092FB1D491E48F1
:1019800001F0BEFE4FF4167006F08AFB15491648AA
:1019900001F0B6FEC82006F083FB184801F078FB82
:1019A00092E0174801F074FB4FF4967006F078FB54
:1019B0001049114801F0A4FE4FF4167006F070FBB8
:1019C0000849094801F09CFEC82006F069FB7BE04D
:1019D00033330B410000002033336B410000D0C192
:1019E00000004E430000484200000243CDCC3C4181
:1019F000000030410000F0C10000524300001041DF
:101A000066662E41984801F043FB4FF4967006F04D
:101A100047FB9649964801F073FE4FF4167006F0A6
:101A20003FFB9449944801F06BFE4FF4D77006F0E9
:101A300037FB924801F02CFB46E0914801F028FB6F
:101A40004FF4FA7006F02CFB8849894801F058FEE3
:101A50004FF4167006F024FB8649874801F050FECB
:101A6000322006F01DFB854801F012FB2CE0002E11
:101A70004FD0844801F00CFB002001F08BFE824B1C
:101A80001B7913B9804B5B7933B17D4801F000FBC2
:101A90004FF4877006F004FB4FF4167006F000FB5D
:101AA0007A497B4801F02CFE962006F0F9FA71493C
:101AB000714801F025FE8C2006F0F2FA012D40D08D
:101AC0004FF4827006F0ECFA012D00F06D81022DCA
:101AD00000F04982002D40F041836E4801F05AFE2B
:101AE000631EDBB2012B35D9062C38D0231FDBB2A5
:101AF000012B38D96849694801F002FE002E56D101
:101B0000631E052B00F29180DFE803F08C8C9A7E37
:101B10007EAA5C4801F0BCFA002001F03BFE5A4B63
:101B20001B7913B9584B5B7933B1554801F0B0FAC2
:101B30004FF4877006F0B4FA4FF4167006F0B0FA5E
:101B4000AEE71EB1564801F0A3FAB9E7554801F0D7
:101B50009FFAB5E74FF4FA7006F0A2FACAE732200E
:101B600006F09EFAC6E7484B1B7913B1464A5279F4
:101B700012B9454A927972B913B1434B5B7913B9E3
:101B8000414B9B795BB1404B9B7963B94FF4C37078
:101B900006F086FAAEE7322006F082FAAAE796202F
:101BA00006F07EFAA6E7FA2006F07AFAA2E7962077
:101BB00006F076FA3C4801F06BFA631E052B79D8E3
:101BC000DFE803F01D1D030D0D084FF4F57006F05E
:101BD00067FA6FE04FF41B7006F062FA6AE02A4B76
:101BE0001B7913B1284B5B7923B94FF4C87006F009
:101BF00057FA5FE04FF4E67006F052FA5AE04FF4FD
:101C0000BE7006F04DFA55E01F4B1B7913B11E4B09
:101C10005B791BB9C82006F043FA06E0C82006F03D
:101C20003FFA02E0FA2006F03BFA1E4801F030FAD3
:101C3000631E052B3ED8DFE803F03939959090A656
:101C4000324629462046FFF719FC022804D04FF4FB
:101C5000967006F025FAE8E7B42006F021FAE4E7EA
:101C6000322006F01DFAE0E766662E410000F0C162
:101C700000005243000048420000024300001041AF
:101C800033336B4166663641000000200000A8C176
:101C9000000049430000C0BF000009430000324378
:101CA00000000841333383406666F6404FF42A70E3
:101CB00006F0F6F94FF07E5001F06CFD01F09CFD4E
:101CC000C82006F0EDF9934B1B7923B9914A52795C
:101CD0000AB9062C5CD023B98E4B9B790BB9052C25
:101CE00056D08C4B5B7923B98A4B9B790BB9042C6A
:101CF0004ED0894801F0CCF9B42006F0D1F9874BD9
:101D0000D3ED0A7AB1EE007A77EE877AC3ED0A7ADC
:101D10008349844801F0F4FC4FF4AF7006F0C0F939
:101D2000814B186806F057FA01F040FD794B9B791A
:101D30000BB1062C33D1794BD3ED0A7AB1EE007A90
:101D400077EEC77AC3ED0A7A7849794801F0D8FC72
:101D50004FF4DC7006F0A4F900E24FF4397006F09D
:101D60009FF9A7E7324629462046FFF787FB02285E
:101D700004D04FF4397006F093F99BE74FF43970B3
:101D800006F08EF996E740F2523006F089F991E7B5
:101D9000684801F07DF9B42006F082F9AFE74FF40E
:101DA000967006F07DF9C6E7634801F0F3FC5C49E4
:101DB0005C4801F0A5FC66B9032C46D05F4801F0F1
:101DC00067F9631E052B64D8DFE803F05F5F439873
:101DD00098515B4801F05CF9631E052B59D8DFE888
:101DE00003F02F2F031F1F114A4B1B7913B9494BC7
:101DF0005B7913B1BE2006F053F94FF4E17006F0A1
:101E00004FF946E0434B1B7913B9424B5B7913B151
:101E1000BE2006F045F94FF4FA7006F041F938E0BB
:101E20003C4B1B7913B13B4B5B7923B94FF41670D4
:101E300006F036F92DE04FF4167006F031F928E07F
:101E40004FF4487006F02CF923E0FA2006F028F948
:101E5000B4E7304B1B7913B92E4B5B7913B1642077
:101E600006F01EF94FF42F7006F01AF911E0294B15
:101E70001B7913B9274B5B7913B1C82006F010F911
:101E80004FF4E67006F00CF903E04FF4347006F0FE
:101E900007F901F0B1FCC82006F002F91D4B1B79CF
:101EA00023B91C4A52790AB9062C50D023B9194BD0
:101EB0009B790BB9052C4AD0164B5B7923B9154B8E
:101EC0009B790BB9042C42D0134801F0E1F8B420FF
:101ED00006F0E6F80F4B9B790BB1062C3ED1124B66
:101EE000186806F078F901F061FC1049104801F01B
:101EF00007FC4FF4DC7006F0D3F82FE1054B1B799B
:101F000013B1044B5B79EBB94FF42A7006F0C8F8B3
:101F1000BFE700BF00000020000040418402002015
:101F20000000484200000243E0050020000070C1AC
:101F30000000434333330B410000C0BF33338340C1
:101F40006666F6404FF4757006F0AAF8A1E7974868
:101F500001F09EF8B42006F0A3F8BBE74FF49670AA
:101F600006F09EF8BBE7924801F014FC631E052BB7
:101F700008D8DFE803F003033E1A1A164FF4FA708C
:101F800006F08EF84FF07F518A4801F0B9FB002E21
:101F900033D1631E052B72D8DFE803F06E6E7C5CD4
:101FA0005C6A322006F07CF8ECE7834B1B7913B1B6
:101FB000814A527912B9804A927972B913B17E4B33
:101FC0005B7913B97C4B9B795BB17B4B9B7963B994
:101FD0004FF4C37006F064F8D4E7322006F060F8DE
:101FE000D0E7962006F05CF8CCE7FA2006F058F827
:101FF000C8E7322006F054F8C4E7962006F050F8FF
:102000006E4801F045F8631E052B57D8DFE803F052
:102010001D1D030D0D084FF4F57006F041F84DE05D
:102020004FF41B7006F03CF848E0634B1B7913B18A
:10203000614B5B7923B94FF4C87006F031F83DE08D
:102040004FF4E67006F02CF838E04FF4AF7006F06D
:1020500027F833E0584B1B7913B1574B5B791BB909
:10206000C82006F01DF80AE0C82006F019F806E0BE
:10207000322006F015F802E0FA2006F011F8504878
:1020800001F006F8631E052B18D8DFE803F01313E0
:102090007D7878AD324629462046FFF7EFF90228D1
:1020A00004D04FF4AF7005F0FBFFE8E7B42005F073
:1020B000F7FFE4E740F2762005F0F2FF01F09CFB29
:1020C000C82005F0EDFF3C4B1B792BB93A4A5279F9
:1020D00012B9062C00F08D802BB9374B9B7913B9C0
:1020E000052C00F08680344B5B7923B9324B9B7909
:1020F0000BB9042C7DD0334800F0CAFFB42005F0A2
:10210000CFFF314BD3ED0A7AB1EE007A77EE877AC2
:10211000C3ED0A7A2D492E4801F0F2FA4FF4AF7060
:1021200005F0BEFF2B4B186806F055F801F03EFB9A
:10213000214B9B790BB1062C62D1234BD3ED0A7A4C
:10214000B1EE007A77EEC77AC3ED0A7A22492348C6
:1021500001F0D6FA4FF4DC7005F0A2FF164B002216
:102160001A551F4B1A78013A1E4B134493F82C3022
:10217000013B032B4DD8DFE803F04851667B40F26A
:10218000023005F08DFF99E7324629462046FFF7D9
:1021900075F9022804D04FF4397005F081FF8DE7FE
:1021A0004FF4397005F07CFF88E700BF33330B41F3
:1021B0000000C0BF00002042000000206666F6401C
:1021C0003333834000004041840200200000484235
:1021D00000000243E0050020000070C100004343FE
:1021E000040200203002002040F2523005F058FF77
:1021F00064E7244800F04CFFB42005F051FF80E76D
:102200004FF4967005F04CFF97E71EB11E4B02226B
:102210005A7070BD1C4B01225A70FAE745B91EB1C5
:10222000194B02229A70F4E7174B01229A70F0E7DB
:10223000022DEED11EB1144B0222DA70E9E7124BE7
:102240000122DA70E5E745B91EB10F4B02221A717F
:10225000DFE70D4B01221A71DBE7022DD9D11EB148
:10226000094B02225A71D4E7074B01225A71D0E779
:102270001EB1054B02229A71CBE7034B01229A71E2
:10228000C7E700BF33330B410802002000B585B01B
:10229000C82005F005FF69460023009301930293CF
:1022A0000393FF238DF80030AA228DF801208DF8CA
:1022B000033064230522044805F00BFDC82005F017
:1022C000EFFE05B05DF804FB7808002000B585B08E
:1022D000694600230093019302930393FF238DF833
:1022E0000030AA238DF80130A7238DF80230642333
:1022F0000522044805F0EDFCC82005F0D1FE05B02C
:102300005DF804FB7808002008B5FFF7BFFFFFF772
:10231000DDFF01F013FE08BD08B5742009F032FCA2
:10232000144B1860002824D00023036243628362A8
:10233000C362036343638363C36303600D4A12682C
:1023400053609360D360136153619361D3611364ED
:1023500053649364D364136553659365D3651366BF
:1023600093665366D366042382F87030002382F8A4
:10237000713008BD1002002018490A68002313625A
:1023800053629362D362136353639363D3631360A3
:102390000A6853609360D360136153619361D361A2
:1023A000136453649364D364136553659365D36571
:1023B000136693665366D366042382F87030084A26
:1023C0005168012381F85430916881F85430D16804
:1023D00081F85430126982F854307047100200209E
:1023E000D0020020000000002DE9F8432DED068BFF
:1023F00001F09EFD142003F0B7FF8F4BD3ED007A60
:102400009FED8E7A67EE877A9FED8D7AC7EE877A99
:1024100017EE909A1868FEF72FF80022894B07F004
:10242000A9FFFEF759FB07EE900AF5EEC07AF1EE30
:1024300010FA00F1B7809FED847AF4EEC77AF1EEDE
:1024400010FA07D99FED817AF4EEC77AF1EE10FA0F
:1024500040F3AD807E4B1B68002283F871207C4BDB
:102460001C68754B1B6823667A4B1B68A3667A4B06
:102470005F6897ED146A84ED046AD3F80880D8ED9C
:10248000147AC4ED057ADE68D6ED146AC4ED066AE6
:102490001D6995ED147A84ED077A36EE278A36EEBB
:1024A000888A37EE088AB5EE009A28EE098A84ED0C
:1024B000088A77EEC67A76EEA78A78EEC78A68EE43
:1024C000898AC4ED098A77EEE67A77EE277A17EEE5
:1024D000900AFDF7D1FF56A3D3E90023FEF74EF98A
:1024E000FEF7FAFA6066484607F096FF09EE900A92
:1024F00028EE29AA484607F0C5FF06EE900A68EEC6
:10250000A67A3AEE67AA84ED10AA28EE268A68EE2B
:10251000A98A38EE288A84ED118A97ED137AD8EDCE
:10252000137A37EE277AD6ED137A37EE277AD5ED80
:10253000137A37EE277A27EE097A84ED0C7AD8EDF4
:10254000137A97ED136A77EEC67A96ED136A77EEF3
:10255000867A95ED136A77EEC67A67EE897AC4EDCE
:102560000D7A94ED146A69EE875A26EEA75A75EE35
:10257000C55A36EE256A84ED146A94ED156A66EE46
:10258000876A69EEA79A76EEA96A76EE267AC4ED96
:10259000157A01F0D3FC142003F0E2FEBDEC068BAB
:1025A000BDE8F8839FED2D7A77EE877A43E79FEDBC
:1025B000267AF4EEC77AF1EE10FA21DD9FED287A43
:1025C000F4EEC77AF1EE10FA05D8214B1B68012210
:1025D00083F8712043E79FED227AF4EEC77AF1EE9B
:1025E00010FA7FF73CAF9FED1F7AF4EEC77AF1EE59
:1025F00010FA05D8164B1B68022283F871202EE7CB
:102600009FED187AF4EEC77AF1EE10FA7FF727AF54
:102610009FED0E7AF4EEC77AF1EE10FA3FF61FAF97
:102620000B4B1B68032283F8712018E7AFF300807F
:10263000C7711CC7A9DC374020060020DB0F4940CA
:1026400000003443008076400000344200809D4307
:10265000100200201C060020D00200200000B4431D
:10266000000007430000614310B5012408E0074B58
:1026700053F8240001F0E6F9012005F011FD0134C2
:10268000042CF4DDFFF7B0FE10BD00BFD002002027
:102690002DE9F0432DED068B83B0554D2C68D4ED1C
:1026A000187ADFED549A67EEA97A9FED537AC7EE58
:1026B000877A17EE906A94ED128A304607F0ACFEE6
:1026C00008EE900A28EE289A94ED13AA304607F0F7
:1026D000D9FE07EE100A6AEE077A79EE277AC4ED82
:1026E0000A7A28EE478A68EE8A8A38EE288A84EDCC
:1026F0000B8A77EEC87A17EE900AFDF7BDFE064604
:102700000F46D4ED1B7A9FED3D9A67EEC97A67EECE
:10271000A97A17EE900AFDF7AFFE0022384BFEF7BC
:102720002DF831A3D3E90023FDF7FEFE02460B4648
:1027300030463946FDF742FDFEF7CEF920602C68A1
:10274000D4ED0A8A94ED0B8A78EE887A17EE900A17
:10275000FDF792FE80468946D4ED1B7A67EE897AB2
:1027600067EEA97A17EE900AFDF786FE0022244B49
:10277000FEF704F81CA3D3E90023FDF7D5FE0646B7
:102780000F4602460B4640464946FDF717FDFEF749
:10279000A3F90546606032463B4640464946FDF790
:1027A0000BFDFEF799F98046A06078EEC87A17EE27
:1027B000900AFDF761FE02460B4630463946FDF7AA
:1027C000FDFCFEF789F90346E060206802220092D2
:1027D0004246294601F06AFB03B0BDEC068BBDE81A
:1027E000F08300BFAFF30080000000002670E63FDA
:1027F00010020020DB0F494000003443C43BEC438F
:102800000080664010B582B0124B1B68042283F82A
:102810007020C0B9012400E00134042C09DC0E4B07
:1028200053F824008379022BF6D0022101F06AF8D4
:10283000F2E700200223009303460246014601F01E
:1028400035FB02B010BD01F0DFFA012001F0AAFA59
:10285000F7E700BF10020020D00200202DE9F84F5A
:102860002DED048B08EE100A8B461646984601F0B3
:10287000BBFA022001F096FA01F0A6FAFFF77CFD00
:10288000FFF7F2FE584B186801F0D2FE574B18685C
:1028900001F0CEFE564B186801F0CAFE07EE90BA62
:1028A000F0EEE77A9FED537AF4EEC77AF1EE10FA84
:1028B0000DDB07EE10BAB5EEC07AF1EE10FA06DDC8
:1028C000B2EE009AF0EE498A4FF004091AE09FED4B
:1028D0004A7AF4EEC77AF1EE10FA0DD5F0EEC87A26
:1028E000F4EEC77AF1EE10FA11D4B1EE0C9AF1EED3
:1028F000048A4FF0040905E0B1EE0C9AF1EE048A67
:102900004FF0040903F0BCF8074600252DE0B2EEB5
:102910000C9AF0EE498A4FF00309F3E7002500E036
:102920000025FFF7A1FE354CD4F800A0DAF85020BE
:1029300018EE101A2C4B186801F090FECAF84800E7
:10294000D4F800A0DAF854205946284B186801F052
:1029500085FECAF84C002468226E3146244B186864
:1029600001F04EFFE066FFF793FE03F089F8C01B0D
:1029700040452FD2214B1B68D3ED147A77EEC87AED
:10298000F0EEE77AF4EEE87AF1EE10FAC6D5D3ED80
:10299000157A07EE10BA77EEC77AF0EEE77AF4EE22
:1029A000C97AF1EE10FABBD5D3ED187A07EE106AAA
:1029B00077EEC77AF0EEE77A9FED117AF4EEC77AF8
:1029C000F1EE10FA0DD50135EDB2A945A9D80020D8
:1029D000FFF718FF0020FFF715FFBDEC048BBDE8E3
:1029E000F88F00259DE700BF8405002080050020AA
:1029F0007C0500200000FA44008089441002002079
:102A0000CDCCCC3D2DE9F84F2DED028B0D460428A1
:102A100074D8DFE800F06903203F5600BD4B93ED0A
:102A2000068A93ED097AF0EE007A77EE277A17EEB0
:102A300090AAB94B1B78012B07D0012B66D901F561
:102A400096754FF00708B54F56E001F516754FF033
:102A50000708B24F50E0AF4B93ED078AD3F828A098
:102A6000AD4B1B78012B07D0012B53D901F6B8359C
:102A70004FF00F08AA4F3FE001F6B835F7EE007AA5
:102A800007EE10AA77EE277A17EE90AA4FF00F08FC
:102A9000A34F31E09F4B93ED078AD3F828A09E4BBC
:102AA0001B78012B07D0012B38D901F26C754FF040
:102AB00014089B4F20E001F6B8354FF00F08984FEF
:102AC0001AE0944B93ED068AD3F824A0924B1B781E
:102AD000012B03D04FF00708924F0DE001F5C875A8
:102AE0004FF007088F4F07E08A4B93ED058AD3F824
:102AF00020A04FF007080027012414E04FF007083A
:102B00004FF0000A08EE10AA5746F5E74FF0070805
:102B1000824FF1E74FF00708814FEDE74FF00708CC
:102B20007F4FE9E70134042C09DC7F4B53F8240084
:102B30008379022BF6D0022100F0E4FEF2E7FFF7E2
:102B40001BFCFFF791FD794B186801F071FD784B84
:102B5000186801F06DFD774B186801F069FD02F00F
:102B60008FFF0646002447E000246A4BD3ED037A2A
:102B7000F5EE407AF1EE10FA06D1D3ED047AF5EED7
:102B8000407AF1EE10FA37D06B4BD3F8009099F8F9
:102B90007130032B1FD8DFE803F006D97B9F002498
:102BA000E3E70024E1E7DFF86CB1DBF80C1018EE86
:102BB000102A5E4B186801F051FDC9F84800DBF897
:102BC00010105D4BD3F800905246594B186801F035
:102BD00045FDC9F84C00594B1A68574BD3F8009083
:102BE0003946574B186801F00BFEC9F86C00FFF727
:102BF0004FFD052005F054FA02F042FF801BA84269
:102C000039D2444BD3ED037A77EEC87AF0EEE77A07
:102C10009FED4C7AF4EEC77AF1EE10FAA4D8D3ED1A
:102C2000047A07EE10AA77EEC77AF0EEE77A9FED06
:102C3000457AF4EEC77AF1EE10FAB0D83F4BD3EDF7
:102C4000007A07EE107A77EEC77AF0EEE77A9FED1A
:102C50003E7AF4EEC77AF1EE10FAA2D50134E4B26E
:102C6000A04582D80020FFF7CDFD082005F018FA16
:102C70000120FFF7C7FD0020FFF7C4FD082005F085
:102C80000FFA0120FFF7BEFDBDEC028BBDE8F88F07
:102C9000DFF880B0DBF80C1018EE102A234B186810
:102CA00001F0DCFCDFF89090D9F8003007EE900AD4
:102CB000F1EE677AC3ED127ADBF8101052461C4B26
:102CC000186801F0CBFCD9F8003007EE900AF1EE5D
:102CD000677AC3ED137A7EE7DFF838B0DBF80C10C3
:102CE00018EE102A114B186801F0B8FC124BD3F8FB
:102CF000009007EE900AF1EE677AC9ED137ADBF8DF
:102D0000101052460A4B186801F0A8FCC9F8480098
:102D100061E700BF3002002004020020000087436A
:102D2000000034430000B442D002002078050020A7
:102D300074050020700500201002002020060020ED
:102D40007C050020CDCC8C3FCDCCCC3DDFF840B015
:102D5000DBF80C1018EE102A0A4B186801F07EFC04
:102D6000C9F84C00DBF810105246074B186801F008
:102D700075FC064B1B6807EE900AF1EE677AC3ED0F
:102D8000127A28E774050020780500201002002040
:102D9000300200202DE9F0472DED028B08EE100ADD
:102DA0008A4616469846012400E00134042C09DCCA
:102DB0004A4B53F824008379022BF6D0022100F00D
:102DC000A1FDF2E7FFF7D8FAFFF74EFC444B186875
:102DD00001F02EFC434B186801F02AFC424B1868A6
:102DE00001F026FC07EE90AAF0EEE77A9FED3F7A1D
:102DF000F4EEC77AF1EE10FA06D4F2EE008A02F091
:102E00003FFE0746002529E0F2EE048AF7E7002599
:102E100000E00025FFF728FC354CD4F80090D9F8E5
:102E2000502018EE101A2E4B186801F017FCC9F844
:102E30004800D4F80090D9F854205146294B18681E
:102E400001F00CFCC9F84C002468226E3146264B78
:102E5000186801F0D5FCE066FFF71AFC02F010FEDE
:102E6000C01B404531D2224B1C68D4ED147A77EE5A
:102E7000C87AF0EEE77AF4EEE87AF1EE10FAC6D509
:102E8000D4ED157A07EE10AA77EEC77AF0EEE77A5E
:102E9000B2EE087AF4EEC77AF1EE10FAB9D5D4EDB5
:102EA000187A07EE106A77EEC77AF0EEE77A9FEDB0
:102EB000117AF4EEC77AF1EE10FA0DD50135EDB2C4
:102EC000042DA7D90020FFF79DFC0020FFF79AFCF6
:102ED000BDEC028BBDE8F08700259BE7D002002007
:102EE0006C050020680500206405002000007A447D
:102EF00010020020CDCCCC3D2DE9F0472DED028B0A
:102F000008EE100A8A461646984600F06DFF022029
:102F100000F048FF00F058FF142005F0C1F8FFF75B
:102F20002BFAFFF7A1FB3D4B186801F081FB3C4BEE
:102F3000186801F07DFB3B4B186801F079FB02F04B
:102F40009FFD0746002526E0002500E00025FFF74D
:102F50008BFB354CD4F80090D9F8502018EE101A9D
:102F60002E4B186801F07AFBC9F84800D4F800909D
:102F7000D9F8542051462A4B186801F06FFBC9F864
:102F80004C002468226E3146264B186801F038FC4C
:102F9000E066FFF77DFB02F073FDC01B404533D2B6
:102FA000214B1C68D4ED147A77EEC87AF0EEE77AFC
:102FB0009FED1E7AF4EEC77AF1EE10FAC4D5D4ED87
:102FC000157A07EE10AA77EEC77AF0EEE77AB0EE40
:102FD000007AF4EEC77AF1EE10FAB7D5D4ED187A8C
:102FE00007EE106A77EEC77AF0EEE77A9FED107A77
:102FF000F4EEC77AF1EE10FA0DD50135EDB2022DDF
:10300000A5D90020FFF7FEFB0020FFF7FBFBBDEC7E
:10301000028BBDE8F087002599E700BF600500201E
:103020005C05002058050020100200209A991940E4
:10303000CDCCCC3D074B196800220A601B685A6052
:1030400005499960DA60054A1A6100221A75012261
:103050005A7570470800002000007041CDCC4C3EEE
:1030600010B50146084B1C6801232375A06807F0C2
:1030700065FA0146E06807F03DFA01466060034BDF
:10308000D86900F0E5FC10BD08000020D002002047
:1030900038B50446094D284604F004F92046FFF7E8
:1030A000DFFF052002F0F2FC2046FFF7D9FF0520E4
:1030B00004F0F6FF284604F0B3F838BD10070020EE
:1030C00038B5154B0022DA601A61144A5A61144A65
:1030D0001A62144A9A61144A5A62144ADA61144A0A
:1030E0009A6200245C72DC621C86C3F83240DC8683
:1030F0009C639C87C3F83E40A3F842401C605C6020
:103100001C720C4D092229460B4804F023FF2C6049
:103110006C602C7238BD00BF30020020000062439A
:103120000080C8430000ED43000092430000B34319
:1031300000008E4328060020C0080020092900D086
:10314000704738B504460378EE2B00D038BD4318DD
:1031500013F8013CFF2BF9D1454D0A46014628469C
:1031600009F04BFC63786B726B7A043B102BEDD843
:1031700001A252F823F000BF333200084D3100089D
:103180004D3100084D3100084D3100084D31000827
:103190004D3100084D3100084D3100084D31000817
:1031A0004D3100084D310008BD310008D73100080D
:1031B000E7310008F5310008073200080023052B2D
:1031C000C4DC9A1CA15C01F00F01294A1A4482F860
:1031D0002C100133F3E7264BD4F80220C3F8322039
:1031E000E288DA86B2E7224BD4F802009863E288DC
:1031F0009A87ABE71E4BD4F80220C3F83E20E28842
:10320000A3F84220A2E7A378002B9FD1E378002BFC
:103210009CD12379002B99D16379002B96D1A37986
:10322000002B93D1E379002B90D1124B01221A701D
:103230008CE7A378E27842EA032207EE902AB8EE00
:10324000677A2179637943EA012307EE903AF8EE31
:10325000677AB2F5207FBFF479AFB3F5F07FBFF4A2
:1032600075AF034B83ED037AC3ED047A6EE700BFBD
:10327000300200202C020020104A5169104B1960C6
:1032800092695A600F4818610F4A5A619861DA6171
:1032900000219960DFF840C0C3F80CC018625A6280
:1032A0000A4A9A62002283F82C2083F82D20084BCA
:1032B00019605960074999601A737047D00200205D
:1032C00084020020A37398425D8CCF420000284105
:1032D000740200200000F041F4F5CB43324BD3EDF3
:1032E000047A93ED057AF5EEC07AF1EE10FA23DD5B
:1032F000DFED2E6AF4EEE67AF1EE10FA09D5B5EEBE
:10330000C07AF1EE10FA04DDB4EEE67AF1EE10FACE
:103310002CD4DFED266AF4EEE67AF1EE10FA0BD546
:10332000DFED236AB4EEE67AF1EE10FA04DDB5EED5
:10333000C07AF1EE10FA19D4DFED1C6AF4EEE67AE9
:10334000F1EE10FA2ADDDFED1B6AF4EEE67AF1EE1B
:1033500010FA10D5B5EEC07AF1EE10FA0BDDDFED04
:10336000136AB4EEE67AF1EE10FA04D50E4B0022A1
:1033700083F82D207047DFED0F6AF4EEE67AF1EE68
:1033800010FA0BD5DFED0A7AB4EEE77AF1EE10FA17
:1033900004DDB5EEC07AF1EE10FA00D47047024BAE
:1033A000012283F82D20F9E7840200200000344335
:1033B000000034C30000B44338B52DED0A8B07EE8E
:1033C000100A07EE901A9FED626A27EE067ADFED8B
:1033D000616A87EE267A17EE105A67EE867AC7EE94
:1033E000A67A17EE904A284607F016F809EE900ADA
:1033F0009FED59AA69EE8A9ADFED588A79EEE89A2C
:10340000284607F03FF809EE100A29EE0A9ADFED88
:1034100054AA39EE2A9A204606F0FEFF08EE100A5A
:1034200028EE0A8A38EE288A204607F02BF808EEA4
:10343000900A68EE8A8A78EEAA8A78EE69CA6CEEFB
:10344000AC7A78EEC9AA2AEEAA7A77EE877A17EED6
:10345000904A204606F0BCFF07EE900AB6EE00CA7E
:1034600067EE8C7A67EEA77A9FED3E7A77EE677A01
:1034700017EE900A06F0ACFF0AEE100A79EE88BA51
:103480006BEE8CBA39EE28BA2BEE0CBA204606F059
:103490009FFF07EE900AF1EE6AAA8AEEA7CACCEE69
:1034A000A7AAFFF71BFF304B93F82D30002B40D11C
:1034B0002AEE0CCA3CEE2BCA2B4B83ED02CA6AEEF5
:1034C0002AAA7AEE8BAAC3ED03AA274C94ED03AA8D
:1034D000D4ED02AA7AEEE97A17EE901A7AEE497ADA
:1034E00017EE900A06F072FF07EE900ADFED199AC8
:1034F00067EEA97A9FED169A87EE897A84ED067AAF
:103500003AEE68AA7AEEC8AAF0EEEA7A17EE901AB6
:10351000F0EECA7A17EE900A06F058FF07EE900A0E
:1035200067EEA97A87EE897A84ED077ABDEC0A8B7B
:1035300038BD2AEE0CCA7BEECCBA0B4BC3ED02BAF7
:103540002AEE2AAA3BEE4ABA83ED03BABDE700BFD2
:10355000DB0F494000003443000020430000C84214
:1035600000000000000884478402002008B5134BC7
:103570001A6892ED097ADFED125A27EE257A9FED4F
:10358000116AC7EE067A9FED107A77EE877AC3ED5F
:10359000047A5A68D2ED096A66EEA56A86EE867AE2
:1035A000DFED0A6A37EE267A83ED057A17EE101AF8
:1035B00017EE900AFFF700FF08BD00BF840200204D
:1035C00000003443DB0F4940A37398425D8CCF4227
:1035D00010B52DED048B444B93ED086A93ED047AFE
:1035E00036EE476AF0EEC67AD3ED0A5AF4EEE57A83
:1035F000F1EE10FA48D5002283F82C203A4BD3ED97
:10360000096AD3ED057A76EEE76AB0EEE65AF4EE93
:10361000C55AF1EE10FA11DCF2EE054AB4EEE45AA6
:10362000F1EE10FA54D59FED315A65EE855AF5EE5C
:10363000C06AF1EE10FA48DDF0EE656A37EE067A00
:1036400037EEA68ADFED2A7A37EE677A9FED299A60
:1036500027EE097ADFED288A234CC7EE287A17EE89
:10366000901A206800F0F4F9DFED247A78EE677A9A
:1036700067EE897AC7EEA87A17EE901A606800F0B4
:10368000E7F9BDEC048B10BDF2EE036AF4EEE67AC6
:10369000F1EE10FA0ED5DFED157A65EEA77AB5EEEC
:1036A000C06AF1EE10FA02DDB0EE676AA6E7B1EE8D
:1036B000676AA3E7B5EEC06AF1EE10FA02DDB0EE7C
:1036C000656A9BE7B1EE656A98E7F1EE656AB5E772
:1036D000F5EEC06AF1EE10FA02DDF0EE656AADE7D4
:1036E000F1EE656AAAE700BF84020020CDCCCC3E93
:1036F000A3739842DB0F4940000034435D8CCF42F6
:1037000008B5054B18625962012283F82C20034842
:1037100003F086FD08BD00BF8402002010070020D2
:1037200008B5FCF7A9FE0DA3D3E90023FDF726F8A1
:103730000022094BFCF742FDFDF7A6F981B201F525
:103740000061822340F6340209B2022000F098FCA6
:1037500008BD00BFAFF300800000E03F918EDB8129
:103760005490C33F08B5084BD3ED017A9FED077A1B
:1037700077EE877A064B93ED067A77EEC77A17EEE7
:10378000900AFFF7CDFF08BD74020020A373984292
:103790008402002008B5034B5860034803F040FD45
:1037A00008BD00BF740200201007002038B5104D7E
:1037B000284603F077FD01240E4B1C73C82340F606
:1037C000485240F67D01204600F05AFC032004F0E8
:1037D00067FCC82340F6485240F67D01204600F0C1
:1037E0004FFC0A2004F05CFC284603F019FD38BDAC
:1037F000100700207402002010B5104C204603F082
:1038000051FD0F4B00221A73C82340F6485240F670
:10381000B831012000F034FC032004F041FCC8233F
:1038200040F6485240F6B831012000F029FC0A2049
:1038300004F036FC204603F0F3FC10BD1007002016
:1038400074020020034608460B70C3F307224A7037
:10385000C3F307428A70C3F30763CB70704700005D
:1038600030B583B004460D4B08221A6104229A60D9
:103870000022DA6082685A6002F002F900F1640501
:10388000224652F80C0B01AB044902F083FA18B13E
:1038900002F0F6F8A842F3D903B030BDB802002018
:1038A00001600272064B1B78A0F80930C37A23F03E
:1038B000E003C372012380F8543000238371704702
:1038C0000C00002008B5C37A032262F30403C3721C
:1038D0000B4B1B78A0F80930C37A23F0E003C372C6
:1038E000002304E0C218002111730133DBB2072B5F
:1038F000F8D9FFF7B5FF0A2004F0D2FB08BD00BFDE
:103900000C00002038B504460D46C37A122262F33B
:103910000403C3720D4B1B78A0F80930C37A23F05F
:10392000E003C372002303E0E218002010730133A8
:10393000072BF9DD47F20503A38125742046FFF725
:103940008FFFA5710A2004F0ABFB38BD0C000020EE
:1039500008B5C37A042262F30403C3720B4B1B78CD
:10396000A0F80930C37A23F0E003C372002304E017
:10397000C218002111730133DBB2072BF8D9FFF70E
:103980006FFF0A2004F08CFB08BD00BF0C00002074
:1039900008B5C37A062262F30403C3720B4B1B788B
:1039A000A0F80930C37A23F0E003C3720123037344
:1039B00004E0C218002111730133DBB2072BF8D9E0
:1039C000FFF74EFF0A2004F06BFB08BD0C0000203F
:1039D00010B590F80BC0122464F3040C80F80BC0EF
:1039E000084C94F800C0A0F809C090F80BC02CF067
:1039F000E00C80F80BC0818112680261FFF730FF94
:103A000010BD00BF0C00002008B5C37A112262F37C
:103A10000403C3720A4B1B78A0F80930C37A23F061
:103A2000E003C3728181022304E0C21800211173F4
:103A30000133DBB2072BF8D9FFF712FF08BD00BF37
:103A40000C00002008B547F21901FFF7DDFF08BDA3
:103A500030B583B00446084601AD2946FFF7F2FEB3
:103A60002A4647F216012046FFF7B2FF03B030BDE9
:103A700030B583B00446084601AD2946FFF7E2FEA3
:103A80002A4647F217012046FFF7A2FF0A2004F05A
:103A900007FB03B030BD30B583B0044607EE901A83
:103AA000B3EE0E7AF4EEC77AF1EE10FA09DCBBEE53
:103AB0000E7AF4EEC77AF1EE10FA04D5FBEE0E7A28
:103AC00001E0F3EE0E7A01AD294617EE900AFFF7FA
:103AD000B9FE2A4647F20A012046FFF779FF03B0F4
:103AE00030BD30B583B00446084601AD2946FFF726
:103AF000A9FE2A4647F218012046FFF769FF0A206F
:103B000004F0CEFA03B030BD10B504460B784A7805
:103B100043EA022347F21902934204D047F21B0200
:103B2000934231D010BDCA798B791B0443EA0263FA
:103B30004A7943EA02230A79134307EE903A027A5C
:103B4000012A01D0032A03D107EE903AF1EE677AF9
:103B5000C4ED0E7A9FED1B7A67EE877AC4ED107A7A
:103B600094F8543023B1002384F85430C4ED117A12
:103B700094ED117A37EEC77A84ED137AC4ED117A99
:103B800001F07EFFE063CDE7CA798B791B0443EA3D
:103B900002634A7943EA02230A79134307EE903A13
:103BA000027A012A01D0032A03D107EE903AF1EEFE
:103BB000677AC4ED0B7A9FED037A67EE877AC4EDDE
:103BC000147AAFE70000484210B504463F2900F2DE
:103BD00093800023037161711178537843EA0123C4
:103BE0001BB283F400431BB2A3839178D37843EADA
:103BF00001231BB283F400431BB2217A012901D0B7
:103C0000032901D15B421BB2E3831179537943EA63
:103C100001231BB283F400431BB2238493791B025C
:103C20001BB2D27913436384636AA362A08B00B290
:103C300007EE900AF8EEE77A17EE900AFCF71CFC04
:103C400000224FF07C53FCF76FFC00222E4BFCF758
:103C50006BFC2BA3D3E90023FCF766FCFCF73CFFCD
:103C60006062E08B00B207EE900AF8EEE77A17EE9A
:103C7000900AFCF701FC00224FF07C53FCF754FC47
:103C80000022224BFCF750FCFCF726FFE062D4ED4B
:103C90000B7A9FED1F7A67EE877AC4ED147A208C39
:103CA00000B207EE900AF8EEE77A17EE900AFCF7FA
:103CB000E3FB00224FF07C53FCF736FC0022154B4F
:103CC000FCF732FCFCF708FF2063638C1BB207EEA5
:103CD000903AF8EEE77AF2EE046A87EEA67A84ED7F
:103CE0000D7A10BD49080133062B3FF774AF11F070
:103CF000010FF7D02371F5E70123F5E7AFF300805B
:103D000000000060FB2109400000104000003E4020
:103D1000000048420000284008B51F4B18601F4BA8
:103D20000340FE2B08D01C4BDB7803F01F03022B53
:103D300012D0112B22D008BD174BB3F80130DBB2E3
:103D40005A1ED2B2062AF6D8154A52F8233008680D
:103D50004A6858619A61EEE70F4BB3F801C05FFA09
:103D60008CF0431EDBB2062BE5D80A464FEA1C2135
:103D70000B4B53F82000FFF727FFDCE7064BB3F8A7
:103D80000130DBB25A1ED2B2062AD4D8044A52F805
:103D90002300FFF7B9FECEE7B4020020FF00001FAA
:103DA000D002002038B50546012407E02946054B1E
:103DB00053F82400FFF7A6FD0134E4B2042CF5D932
:103DC00038BD00BFD002002010B5012406E0054B2D
:103DD00053F82400FFF776FD0134E4B2042CF6D941
:103DE00010BD00BFD002002010B5012406E0054B35
:103DF00053F82400FFF7ACFD0134E4B2042CF6D9EB
:103E000010BD00BFD002002010B5FFF7EDFF094C38
:103E10002046FFF7BDFD04F15800FFF7B9FD04F19E
:103E2000B000FFF7B5FD04F58470FFF7B1FDFFF7B3
:103E3000CBFF10BDF803002038B5184A184B53606B
:103E400003F15801916003F1B001D16003F584736F
:103E50001361012408E022461249104B53F8240054
:103E6000FFF71EFD0134E4B2042CF4D9FFF7CCFFB8
:103E700001240DE0094D4FF0824155F82400FFF771
:103E8000F7FD094955F82400FFF72BFE0134E4B291
:103E9000042CEFD90220FFF785FF38BDD0020020A7
:103EA000F8030020B40500200000B84138B52DED1E
:103EB000048B06EE901A06EE103A089C07EE900A64
:103EC000B1EE677ADFED187A86EEA79A06EE902AB1
:103ED000F1EE666AC6EEA78A86EE278A134DC7EE14
:103EE000277A17EE901A6868FFF7D5FD204604F090
:103EF000D7F819EE101AA868FFF7CDFD204604F098
:103F0000CFF818EE901AE868FFF7C5FD204604F0D8
:103F1000C7F818EE101A2869FFF7BDFD204604F017
:103F2000BFF8BDEC048B38BD00004842D002002031
:103F300008B5392002F018FA08BD000010B5392084
:103F400002F00EFA054C21222146054804F002F841
:103F500021220021204608F0C1FC10BD5806002097
:103F60007808002038B50546052407E02946054BAA
:103F700053F82400FFF7C6FC0134E4B2062CF5D94F
:103F800038BD00BFD002002038B5144A144B53612D
:103F900058339361052408E0224612490F4B53F829
:103FA0002400FFF77DFC0134E4B2062CF4D905248B
:103FB0000DE00A4D4FF0824155F82400FFF758FDFF
:103FC000094955F82400FFF78CFD0134E4B2062CB2
:103FD000EFD90120FFF7C6FF38BD00BFD002002097
:103FE000480300208C0500200000A04108B50146D0
:103FF000024BD869FFF786FC08BD00BFD002002045
:1040000010B5094C0948E06107220949FFF748FC4F
:104010000849E069FFF72CFD0749E069FFF761FDFA
:104020000120FFF7E3FF10BDD0020020F0020020C6
:104030008C050020000040410000A04108B5FFF7BA
:10404000FBFEFFF7A1FFFFF7DBFF00F093F808BDD1
:1040500000231A4605E010F803C06244D2B20133CF
:10406000DBB28B42F7D3D043C0B2704708B50A46E3
:104070000A230146014803F02CFE08BD0809002070
:104080002DE9F04F8BB006460193022856D0012847
:104090005FD040F648539A4200D91A465FFA81F938
:1040A000C1F307255FFA82F8140AFF238DF8183050
:1040B0008DF819308DF80C604FF00A0B8DF80DB0AB
:1040C0004FF0030A8DF80EA04FF029038DF80F3042
:1040D000019B8DF810308DF811908DF8125000274B
:1040E0008DF813708DF814708DF815808DF81640CA
:1040F0000B2103A8FFF7ACFF8DF81A608DF81BB0F9
:104100008DF81CA04FF029028DF81D20019B8DF821
:104110001E308DF81F908DF820508DF821708DF88D
:1041200022708DF823808DF824408DF825000E2113
:1041300006A8FFF79BFF0BB0BDE8F08F40F28E732F
:10414000994210DD40F699439942A2DD40F699412B
:104150009FE7B1F5006F09DB40F6B833994298DD6F
:1041600040F6B83195E740F28F7192E74FF4006165
:104170008FE7000070B5442007F004FD0446974B1C
:104180001860442007F0FEFC954B1860442007F0AF
:10419000F9FC944B1860442007F0F4FC924B186033
:1041A000442007F0EFFC914B1860442007F0EAFC34
:1041B0008F4B1860442007F0E5FC8E4B18604420BC
:1041C00007F0E0FC8C4B1860442007F0DBFC8B4BC5
:1041D0001860442007F0D6FC894B1860442007F093
:1041E000D1FC884B1860442007F0CCFC864B18604B
:1041F000F4B1864B2360794E3468854B6360854B00
:10420000A360854BE360002525616561834BA36155
:10421000E36101F035FC2062336800225A629A6241
:10422000DA621A635D639D63DD63012283F84020D7
:104230006B4B1B68F3B17A4A1A60694E3468744B51
:104240006360784BA360744BE36000252561656172
:10425000724BA361E36101F013FC2062336800221A
:104260005A629A62DA621A635D639D63DD630122BA
:1042700083F840205B4B1B68FBB16B4A1A60594EB8
:104280003468634B6360694BA360634BE360002554
:1042900025616561664BA361664BE36101F0F0FB4C
:1042A0002062336800225A629A62DA621A635D639E
:1042B0009D63DD63012283F840204B4B1B68FBB1FB
:1042C0005D4A1A60484E3468514B63605B4BA36093
:1042D000514BE360002525616561594BA361594B42
:1042E000E36101F0CDFB2062336800225A629A62DA
:1042F000DA621A635D639D63DD63012283F8402007
:104300003A4B1B68FBB1504A1A60384E34684F4B29
:1043100063604F4BA360404BE360002525616561FE
:104320004C4BA3614C4BE36101F0AAFB2062336864
:1043300000225A629A62DA621A635D639D63DD63EA
:10434000012283F840202A4B1B68FBB1434A1A60C4
:10435000274E34682E4B6360414BA3602E4BE360C5
:104360000025256165613F4BA3613F4BE36101F08F
:1043700087FB2062336800225A629A62DA621A630B
:104380005D639D63DD63012283F84020194B1B6848
:10439000FBB1364A1A60174E3468354B6360354BB3
:1043A000A3601D4BE360002525616561324BA3616D
:1043B000324BE36101F064FB2062336800225A62F1
:1043C0009A62DA621A635D639D63DD63012283F89A
:1043D0004020094B1B68002B72D051E0840500205F
:1043E000800500207C050020780500207405002051
:1043F000700500206C050020680500206405002081
:10440000600500205C050020580500203333834000
:104410006F12833AA4709D3FBC74933C0000964495
:104420008FC28540E17AB43F9A99E9404260253FC6
:104430000000824200005C430000F0401F851B40EA
:10444000000020430000024466664E410AD7A33CA8
:10445000CDCC8C4000004843000043443333C3407C
:10446000D7A3F03E0000484200009643CDCC0C405C
:104470000AD7233C3D0AD73E0000E1430000EB434E
:10448000554A1A60554E3468554B6360554BA360CE
:10449000554BE360002525616561544BA361544B86
:1044A000E36101F0EDFA2062336800225A629A62F9
:1044B000DA621A635D639D63DD63012283F8402045
:1044C0004C4B1B68FBB14C4A1A604A4E3468444B53
:1044D00063604A4BA360444BE3600025256165613E
:1044E000474BA361474BE36101F0CAFA206233688E
:1044F00000225A629A62DA621A635D639D63DD6329
:10450000012283F84020404B1B68FBB13F4A1A60F0
:104510003D4E34683E4B63603E4BA360324BE360DC
:104520000025256165613C4BA3613C4BE36101F0D3
:10453000A7FA2062336800225A629A62DA621A632A
:104540005D639D63DD63012283F84020344B1B686B
:10455000F3B1344A1A60324E34682D4B6360324BEB
:10456000A360214BE3600025256165611F4BA361BA
:10457000E36101F085FA2062336800225A629A6290
:10458000DA621A635D639D63DD63012283F8402074
:10459000264B1B68FBB1184A1A60244E3468104B36
:1045A0006360164BA360104BE360002525616561D5
:1045B000134BA361134BE36101F062FA206233688D
:1045C00000225A629A62DA621A635D639D63DD6358
:1045D000012283F8402070BD0000204068050020C3
:1045E0000AD7233C8FC2753EBC74933C0000E14364
:1045F0000000EB43640500200000C040D7A3F03E5C
:10460000000082420000964360050020CDCC90411E
:104610006F12833A14AE3740000016440000E144A4
:104620005C0500201F850B40AE47613E5805002009
:1046300098B138B5044600250561456101F020FABE
:10464000206200236362A362E36223636563A56360
:10465000E563012384F8403038BD704710B52DED77
:10466000028B044690F84030002B40F0928008EE18
:10467000901A08EE102A01F003FA236AC31A07EE13
:10468000903AF8EE677A9FED597A87EE875A206262
:1046900084ED035A78EEC87A94ED007A27EE277AF3
:1046A00094ED046A65EE276A36EE266A84ED046AA4
:1046B000D4ED016AF5EE406AF1EE10FA1CD0D4EDAB
:1046C000065AC5EEA64AB4EEE46AF1EE10FA69DDC8
:1046D000C4ED044AF4EEC75AF1EE10FA6CD5F5EECB
:1046E000C07AF1EE10FA67DD94ED046ADFED405A0E
:1046F00026EE256A84ED046A94ED046A26EE866A45
:10470000B5EEC05AF1EE10FA63DDD4ED055A77EE3E
:10471000E55AC5EE856ADFED375A66EEA56AD4ED37
:104720000E5ADFED354A65EEA45A76EEA56AC4ED61
:104730000E6AD4ED025A65EEA66A37EE067A37EEB7
:10474000267AD4ED066AF4EEC76AF1EE10FA08D4C0
:10475000F1EE666AF4EEC76AF1EE10FA01DCF0EEF3
:10476000476A94ED077A94ED0D6A76EEC65A25EE07
:10477000077AB4EEE57AF1EE10FA2DD576EE076AF7
:10478000C4ED0D6AC4ED057A16EE900ABDEC028BFD
:1047900010BD002380F8403001F072F92062DFED97
:1047A000176AF1E7F1EE644AB4EEE46AF1EE10FA4A
:1047B00090D5C4ED044A8DE7F1EE655AF4EEC75A80
:1047C000F1EE10FA98DDF5EEC07AF1EE10FA93D51D
:1047D0008AE7DFED0A6A9EE7B1EE475AF4EEC55A62
:1047E000F1EE10FACCD576EE476AC9E700007A44BC
:1047F0006666663FCDCC4C3FCDCC4C3E0000000001
:1048000010B52DED028B044690F84030002B40F09F
:10481000928008EE901A08EE102A01F031F9236A0E
:10482000C31A07EE903AF8EE677A9FED597A87EE51
:10483000875A206284ED035A78EEC87A94ED007AA4
:1048400027EE277A94ED046A65EE276A36EE266A2B
:1048500084ED046AD4ED016AF5EE406AF1EE10FAD7
:104860001CD0D4ED065AC5EEA64AB4EEE46AF1EEC9
:1048700010FA69DDC4ED044AF4EEC75AF1EE10FAFD
:104880006CD5F5EEC07AF1EE10FA67DD94ED046AAE
:10489000DFED405A26EE256A84ED046A94ED046A41
:1048A00026EE866AB5EEC05AF1EE10FA63DDD4ED5D
:1048B000055A77EEE55AC5EE856ADFED375A66EEA2
:1048C000A56AD4ED0E5ADFED354A65EEA45A76EEB0
:1048D000A56AC4ED0E6AD4ED025A65EEA66A37EEFB
:1048E000067A37EE267AD4ED066AF4EEC76AF1EE60
:1048F00010FA08D4F1EE666AF4EEC76AF1EE10FA27
:1049000001DCF0EE476A94ED077A94ED0D6A76EEDD
:10491000C65A25EE077AB4EEE57AF1EE10FA2DD5F7
:1049200076EE076AC4ED0D6AC4ED057A16EE900ABC
:10493000BDEC028B10BD002380F8403001F0A0F8E0
:104940002062DFED176AF1E7F1EE644AB4EEE46A43
:10495000F1EE10FA90D5C4ED044A8DE7F1EE655AF8
:10496000F4EEC75AF1EE10FA98DDF5EEC07AF1EEEA
:1049700010FA93D58AE7DFED0A6A9EE7B1EE475A4F
:10498000F4EEC55AF1EE10FACCD576EE476AC9E7D7
:1049900000007A446666663FCDCC4C3FCDCC4C3EA1
:1049A0000000000008B50C480C4B0360092343606D
:1049B00000238360C3604FF40032026143610376D9
:1049C00043768376C3760377437701F073F800B9B3
:1049D00008BD00F0EDFBFBE7B405002000640040DB
:1049E00008B50C480C4B0360092343600023836027
:1049F000C3604FF4003202614361037643768376ED
:104A0000C3760377437701F055F800B908BD00F08D
:104A1000CFFBFBE78C0500200068004010B58AB092
:104A200000230593069307930893099303683E4A6E
:104A3000934204D03D4A934234D00AB010BD3C4A60
:104A4000136801331360012B1FD000240194394BEC
:104A50001A6B42F008021A631B6B03F00803019300
:104A6000019B0323059302220692089309230993CD
:104A700005A9314801F080FE22460521142001F0ED
:104A80005FFC142001F06CFCD7E700230093294B56
:104A90001A6C42F000721A641B6C03F000730093EE
:104AA000009BD2E700230293224B1A6C42F08062F3
:104AB0001A641B6C03F080630293029B1C4A136808
:104AC00001331360012B21D000240494194B1A6B7D
:104AD00042F002021A631B6B03F002030493049B6F
:104AE0004FF44053059302230693032308930923AD
:104AF000099305A9114801F03FFE224606214020F6
:104B000001F01EFC402001F02BFC96E700230393EC
:104B1000084B1A6C42F000721A641B6C03F00073AD
:104B20000393039BD0E700BF00640040006800408F
:104B30008805002000380240000C024000040240BA
:104B400070B58AB000240594069401250795009459
:104B5000019402940394049408956946094801F06D
:104B60004FF80E2305930694079500940194029440
:104B70000394049408956946034801F041F80AB08B
:104B800070BD00BFB40500208C05002010B582B0B8
:104B900000240094164B1A6B42F480021A631A6BBD
:104BA00002F480020092009A01941A6B42F40012FF
:104BB0001A631B6B03F400130193019B224605212A
:104BC0000C2001F0BDFB0C2001F0CAFB224606219F
:104BD0000E2001F0B5FB0E2001F0C2FB224607219A
:104BE000392001F0ADFB392001F0BAFB02B010BD55
:104BF0000038024008B512E01F48C3688268416867
:104C00000068FDF72BFE1C4B00229A740122DA7417
:104C10001A4B186803F0DFFA0A2003F041FA164B2A
:104C20009B7C002BF8D0144BDB7C002BF4D1124B77
:104C30005B7C032BE7D801A252F823F0F94B000864
:104C40004D4C0008594C0008694C00080A4BD968C3
:104C5000187CFDF7D7FED6E70748C368826841682D
:104C60000068FEF797F8CEE70348C368826841689A
:104C70000068FEF741F9C6E7F8050020E0050020CE
:104C800008B510E0FCF73EF81D4B00221A71012216
:104C90005A711C4802F006FB1B4B186803F09BFA84
:104CA0000A2003F0FDF9164B1B79002BF8D0144BAA
:104CB0005B79002BF4D1134802F0B2FA104BDB7889
:104CC000032BE1D801A252F823F000BF854C000865
:104CD000DD4C0008E74C0008F14C0008084B187840
:104CE000FCF728F8D0E7064B1878FCF7DDFACBE79D
:104CF000034B9A7859781878FCF7EAFBC4E700BFB1
:104D0000F005002010070020DC05002008B5FFF7A3
:104D100095F9FBF7EBFF00F0EBFC3C2003F0C0F94A
:104D200000F0E6FC4FF4FA6003F0BAF90021054BFD
:104D30000A460548FCF77CFB4FF47A7003F0B0F9A3
:104D4000FAE700BF400D030000007A4408B5124A9C
:104D50000121084603F0B2F9104B1860104A0121F6
:104D6000084603F0ABF90F4B18600F4A00210F48BB
:104D700003F03CF90E4B18600E4A00210E4803F078
:104D800035F90E4B18600E4A00210E4803F02EF93B
:104D90000D4B186008BD00BF34E50008E005002099
:104DA00024E50008DC0500208CE50008F54B000830
:104DB000EC05002068E50008814C0008E8050020AB
:104DC00044E500080D4D0008E40500202DE9F04100
:104DD0008CB007AD00240794089409940A940B94AE
:104DE00000943A4B1A6B42F010021A631A6B02F0ED
:104DF00010020092009A01941A6B42F040021A636A
:104E00001A6B02F040020192019A02941A6B42F06E
:104E100001021A631A6B02F001020292029A0394D1
:104E20001A6B42F008021A631A6B02F0080203922E
:104E3000039A04941A6B42F020021A631A6B02F070
:104E400020020492049A05941A6B42F080021A63BD
:104E50001A6B02F080020592059A06941A6B42F0D2
:104E600002021A631B6B03F002030693069B184EA3
:104E700022460121304601F083FD164F01224FF4F6
:104E80000061384601F07CFD01224FF4804130463C
:104E900001F076FD44F2010307934FF00108CDF8CD
:104EA000208009940A942946304601F065FC4FF4AD
:104EB00000630793CDF8208009940A942946384668
:104EC00001F05AFC0CB0BDE8F08100BF0038024090
:104ED000001402400010024010B58AB0044601AB35
:104EE00003AA002100F0CBFF30B923680B4A93429C
:104EF00004D00B4A934209D00AB010BD059B042B85
:104F0000FAD101A90498FEF707FFF5E7059B042BEA
:104F1000F2D101A90498FEF7FFFEEDE7006400401E
:104F20000068004038B57A4B98420BD0794B9842D4
:104F300000F0DB80784B984203D0784B984200F029
:104F4000D88038BD00F09CFD754B1860754D764CCF
:104F5000AC46BCE80F000FC4BCE80F000FC4DCF87F
:104F60000030237021220021284607F0B7FC0023DF
:104F700090E0591C6C48415C532940F09280D91D47
:104F8000415C090209B29C1D005D014307EE901AC5
:104F9000F8EEE77A9FED657A67EEC77A9FED647A5F
:104FA00067EE877A6349C1ED007A6349D1ED007AF3
:104FB000F4EEC77AF1EE10FA45D59FED607AF4EE83
:104FC000C77AF1EE10FA3EDD5A49D1ED006A9FED45
:104FD0005C7AF4EEC76AF1EE10FA34D5D1ED006ACE
:104FE0009FED587AF4EEC76AF1EE10FA2BDD5648C1
:104FF0000168013101604F4991ED007ADFED4C7A93
:10500000B4EE677AF1EE10FA4BD091ED007ADFED55
:105010004D7AB4EE677AF1EE10FA42D04A49D1EDFA
:10502000007AF8EEE77A9FED497A67EE877A414990
:1050300091ED007A77EE877A4548C0ED007A0868EE
:105040003D4908602DE09FED3E7AF4EEC77AF1EE1F
:1050500010FAD0D59FED3B7AF4EEC77AF1EE10FA54
:10506000C9DD344991ED007ADFED347AB4EEE77AA8
:10507000F1EE10FABFDD91ED007ADFED2D7AB4EE9E
:10508000E77AF1EE10FAB6D52F48016801390160D0
:10509000B1E70133192B22DC234AD25C552A3FF4B5
:1050A00068AF552AF5D15A1C1F498A5C522AF0D1A3
:1050B000DA1D8A5C120212B2981D095C0A4307EEDF
:1050C000902AF8EEE77A9FED197A67EEC77A9FED9E
:1050D000217A67EE877A204AC2ED007AD9E7212249
:1050E00010490B4802F036FF2BE71C4B01221A70C7
:1050F00027E71B4C09212046FEF720F800232360F8
:105100006360237209222146044802F023FF18E756
:10511000780800205009002008090020C00800205D
:105120001806002058060020340600200000003831
:105130000000344324060020140600200000B4427E
:105140000000B4C2000034C3100600200000B443C5
:10515000200600200000FA441C06002079060020EA
:105160002806002008B503680E4A934203D00E4A71
:10517000934203D008BD00F077FCFBE70B4B1B7894
:105180003BB1012BF6D1FEF723FA084B00221A702F
:10519000F0E7FEF7EBF9FEF7E5FA044B01221A708F
:1051A000E8E700BF00140040000C00400C0600209F
:1051B00072B6FEE710B594B008AC3022002120464C
:1051C00007F08CFB00230393049305930693079346
:1051D0000193234A116C41F080511164126C02F06A
:1051E00080520192019A02931E4B1A6842F4404287
:1051F0001A601B6803F440430293029B0123089347
:105200004FF48033099302230E934FF480020F92E0
:1052100006221092B4221192129304231393204673
:1052200001F0F2FBA8B901F0B1FBA0B90F23039381
:1052300002230493002305934FF4A05306934FF4E5
:1052400080530793052103A801F02EFE28B914B05E
:1052500010BDFFF7ADFFFFF7ABFFFFF7A9FF00BFE2
:10526000003802400070004008B500F0E3FBFFF793
:10527000A1FFFFF7ABFDFFF789FC00F061FA00F03A
:1052800079FA00F0ABFAFFF78DFB00F0D9F900F0E6
:105290003BF9FFF7A5FB00F087FA114C09222146E4
:1052A000104802F057FE0023236063602372FFF76B
:1052B00047FC0D4C204600F03FFD0221204600F047
:1052C00093FE0A4C204600F037FD0221204600F0F4
:1052D0008BFE02F05DFEFFF739FD02F06BFEFEE78C
:1052E00028060020C0080020B40500208C050020FE
:1052F00000B583B0002200920D4B596C41F48041FF
:105300005964596C01F48041009100990192196C23
:1053100041F0805119641B6C03F080530193019B91
:105320000F216FF0010001F00BF803B05DF804FBF2
:105330000038024030B589B0044600230193214B68
:105340001A6C42F020021A641B6C03F020030193D4
:10535000019B02A903A801F07DFE069BCBB901F0D9
:1053600059FE0346184AA2FB03239B0C013B174836
:10537000174A026040F2E732C260436000230361D3
:105380008360836102F0C6F8054630B1284609B053
:1053900030BD01F03FFE4300E4E70C4801F040FF60
:1053A00005460028F2D1372000F0DAFF0F2C01D992
:1053B0000125EBE700222146372000F0C1FF054B15
:1053C0001C60E3E70038024083DE1B437C060020BC
:1053D0000014004018000020FEE7FEE7FEE7FEE7AD
:1053E000FEE7704708B5024801F0D8F808BD00BFD5
:1053F000B807002008B5024801F0D0F808BD00BF8A
:105400001808002008B5024800F00CFE08BD00BFD7
:10541000B405002008B5024801F061FF08BD00BFD7
:105420001007002008B5024801F059FF08BD00BF71
:105430007C06002008B5024801F0B0F808BD00BFA6
:105440005807002008B5024800F0ECFD08BD00BF79
:105450008C0500200120704708B507F0A1FA16233B
:1054600003604FF0FF3008BD08B54FF0FF31FFF784
:10547000F3FFFEE770B50C461646002506E0AFF3D5
:105480000080214601F8010B01350C46B542F6DBE0
:10549000304670BD4FF0FF3070474FF400534B6003
:1054A00000207047012070470020704710B5034668
:1054B0000C4A0D490D48006840B10C48006803448F
:1054C000521A934206D8094A136010BD0748084C87
:1054D0000460F2E707F064FA0C2303604FF0FF303A
:1054E000F3E700BF0000032000040000C406002012
:1054F00038540020034AD2F8883043F47003C2F8CD
:105500008830704700ED00E000B587B000230293BB
:10551000039304930593009301931548154A026081
:1055200059224260836040F6C312C2600361836106
:1055300001F0F0FF90B94FF48053029302A90C4898
:1055400002F0F3F868B90023009301936946084814
:1055500002F03EFA40B907B05DF804FBFFF728FE01
:10556000E9E7FFF725FEEEE7FFF722FEF3E700BFCE
:1055700010070020000C004002680E4B9A4200D039
:10558000704700B583B00022019203F50B33196C0C
:1055900041F0080119641B6C03F008030193019B9F
:1055A0000621322000F0CCFE322000F0D9FE03B0FC
:1055B0005DF804FB000C00400268094B9A4200D0E1
:1055C000704782B000230193064B1A6C42F04002F0
:1055D0001A641B6C03F040030193019B02B07047F7
:1055E000001800400038024000B587B00023019346
:1055F000029303930493059302680E4B9A4202D0E0
:1056000007B05DF804FB002300930B4B1A6B42F0CC
:1056100080021A631B6B03F080030093009B4023FE
:105620000193022302930923059301A9034801F082
:10563000A3F8E5E70018004000380240001C0240D3
:1056400000B589B00023019302930393049305935B
:10565000069307931148124A02604360836048F240
:105660003422C2600361836101F080FF80B960234E
:105670000193002202920392059201A9074801F0CA
:10568000D9FF40B90548FFF7AFFF09B05DF804FB4B
:10569000FFF78EFDEBE7FFF78BFDF3E7C806002071
:1056A00000180040642800D96420054BDA6802FB2A
:1056B0000000044AA2FB002040091B6858637047A1
:1056C000C80600201F85EB5108B53220FFF7EAFF1E
:1056D0000021024802F0B8F808BD00BFC80600204B
:1056E00008B50021014802F02DF908BDC8060020C8
:1056F00008B5FFF7E9FF282002F0D2FCFFF7F0FF22
:1057000008BD000000B583B001904FF6FF73012281
:1057100001A9034802F0DDFA019803B05DF804FB2B
:105720005009002070B50C461646002504E014F818
:10573000010BFFF7E7FF0135B542F8DB304670BDDE
:1057400008B50A480A4B03604FF4E1334360002375
:105750008360C36003610C2242618361C36102F014
:1057600088FA00B908BDFFF723FDFBE750090020C8
:105770000078004008B50A480A4B03604FF4E13353
:10578000436000238360C36003610C224261836134
:10579000C36102F06EFA00B908BDFFF709FDFBE72F
:1057A00008090020007C004008B50A480A4B036045
:1057B0004FF4E133436000238360C36003610C2234
:1057C00042618361C36102F054FA00B908BDFFF77A
:1057D000EFFCFBE7C00800200048004008B50A487D
:1057E0000A4B03604FF4E133436000238360C360DE
:1057F00003610C2242618361C36102F03AFA00B98D
:1058000008BDFFF7D5FCFBE7780800200014014035
:1058100030B58FB00446002309930A930B930C9381
:105820000D930368754A93420BD0754A934245D055
:10583000744A934264D0744A934200F0A0800FB03F
:1058400030BD00250195714B1A6C42F080421A64FC
:105850001A6C02F080420192019A02951A6B42F092
:1058600010021A631B6B03F010030293029B4FF4A8
:10587000C073099302230A9303230C9308230D9307
:1058800009A9634800F078FF6248634B03604FF05A
:10589000206343608560C5604FF4806303614561A8
:1058A0008561C5610562456200F0DEFD18B9594B9E
:1058B000E3639C63C3E7FFF77BFCF8E700210391F8
:1058C000524B1A6C42F000421A641A6C02F0004209
:1058D0000392039A04911A6B42F010021A631B6B35
:1058E00003F010030493049B0323099302220A92FA
:1058F0000C9308230D9309A9454800F03DFF9EE74E
:1059000000250595414B1A6C42F480221A641A6CEA
:1059100002F480220592059A06951A6B42F008025D
:105920001A631B6B03F008030693069B4FF4407346
:10593000099302230A9303230C9307230D9309A9C8
:10594000364800F019FF3648364B03604FF00063CD
:1059500043608560C5604FF4806303614561856184
:10596000C5614FF400330362456200F07DFD18B954
:105970002B4BE3639C6362E7FFF71AFCF8E7002513
:105980000795224B5A6C42F020025A645A6C02F07E
:1059900020020792079A08951A6B42F040021A6398
:1059A0001B6B03F040030893089B4FF48443099357
:1059B00002230A9303230C9308230D9309A91A4881
:1059C00000F0DAFE19481A4B03604FF02063436081
:1059D0008560C5604FF48063036145618561C56181
:1059E0004FF480330362456200F03EFD18B90F4B5F
:1059F000E3639C6323E7FFF7DBFBF8E700780040F5
:105A0000007C004000480040001401400038024083
:105A1000001002401808002058600240000C0240AC
:105A2000B8070020286002400018024058070020F4
:105A30002864024008B50B4B1A6842F400721A60E1
:105A40001A6842F480621A601A6842F480721A601E
:105A5000032000F063FC0F20FFF76CFCFFF748FC0D
:105A6000002008BD003C0240034A1168034B1B782C
:105A70000B441360704700BF9809002014000020F9
:105A8000014B1868704700BF9809002038B50446DC
:105A9000FFF7F6FF0546B4F1FF3F02D0044B1B7839
:105AA0001C44FFF7EDFF401BA042FAD338BD00BFF6
:105AB00014000020002800F0A18038B5044690F8BA
:105AC0002030D3B12268136843F001031360FFF75D
:105AD000D7FF054623685A6812F0010F10D1FFF76F
