:020000040800F2
:1000000000000320B98F00087544000877440008F9
:10001000794400087B4400087D440008000000008B
:10002000000000000000000000000000F173000864
:100030007F44000800000000917400083970000837
:10004000099000080990000809900008099000082C
:10005000099000080990000809900008099000081C
:10006000099000080990000809900008099000080C
:100070008144000809900008914400080990000894
:1000800009900008A14400080990000809900008A0
:10009000B144000809900008099000080990000880
:1000A00009900008099000080990000809900008CC
:1000B00009900008099000080990000809900008BC
:1000C00009900008099000080990000809900008AC
:1000D000099000080990000809900008099000089C
:1000E000099000080990000809900008099000088C
:1000F000099000080990000809900008099000087C
:100100000990000809900008C144000809900008FF
:10011000099000080990000809900008D1440008DF
:1001200009900008E14400080990000809900008BF
:10013000099000080990000809900008099000083B
:10014000F14400080990000809900008099000088F
:10015000099000080990000809900008099000081B
:10016000099000080990000809900008099000080B
:10017000099000080990000809900008000000009C
:1001800009900008099000080990000809900008EB
:1001900009900008099000080990000809900008DB
:0C01A000000000000000000009900008B2
:1001B00081F0004102E000BF83F0004330B54FEA18
:1001C00041044FEA430594EA050F08BF90EA020F85
:1001D0001FBF54EA000C55EA020C7FEA645C7FEA18
:1001E000655C00F0E2804FEA5454D4EB5555B8BF3B
:1001F0006D420CDD2C4480EA020281EA030382EAAC
:10020000000083EA010180EA020281EA0303362D3D
:1002100088BF30BD11F0004F4FEA01314FF4801C10
:100220004CEA113102D0404261EB410113F0004F22
:100230004FEA03334CEA133302D0524263EB4303D9
:1002400094EA050F00F0A780A4F10104D5F1200E77
:100250000DDB02FA0EFC22FA05F2801841F10001D2
:1002600003FA0EF2801843FA05F359410EE0A5F1A6
:1002700020050EF1200E012A03FA0EFC28BF4CF0D7
:10028000020C43FA05F3C01851EBE37101F000458D
:1002900007D54FF0000EDCF1000C7EEB00006EEB9A
:1002A0000101B1F5801F1BD3B1F5001F0CD3490824
:1002B0005FEA30004FEA3C0C04F101044FEA44527B
:1002C00012F5800F80F09A80BCF1004F08BF5FEA02
:1002D000500C50F1000041EB045141EA050130BDE2
:1002E0005FEA4C0C404141EB0101013C28BFB1F5F4
:1002F000801FE9D291F0000F04BF01460020B1FA3F
:1003000081F308BF2033A3F10B03B3F120020CDA11
:100310000C3208DD02F1140CC2F10C0201FA0CF0EF
:1003200021FA02F10CE002F11402D8BFC2F1200C54
:1003300001FA02F120FA0CFCDCBF41EA0C0190400A
:10034000E41AA2BF01EB0451294330BD6FEA040453
:100350001F3C1CDA0C340EDC04F11404C4F120023E
:1003600020FA04F001FA02F340EA030021FA04F350
:1003700045EA030130BDC4F10C04C4F1200220FAA7
:1003800002F001FA04F340EA0300294630BD21FAE5
:1003900004F0294630BD94F0000F83F4801306BFAB
:1003A00081F480110134013D4EE77FEA645C18BF9F
:1003B0007FEA655C29D094EA050F08BF90EA020F36
:1003C00005D054EA000C04BF1946104630BD91EA2E
:1003D000030F1EBF0021002030BD5FEA545C05D131
:1003E0004000494128BF41F0004130BD14F5800470
:1003F0003CBF01F5801130BD01F0004545F0FE41E4
:1004000041F470014FF0000030BD7FEA645C1ABF18
:10041000194610467FEA655C1CBF0B46024650EA4F
:10042000013406BF52EA033591EA030F41F400217B
:1004300030BD00BF90F0000F04BF0021704730B501
:100440004FF4806404F132044FF000054FF00001D6
:1004500050E700BF90F0000F04BF0021704730B597
:100460004FF4806404F1320410F0004548BF40426C
:100470004FF000013EE700BF42004FEAE2014FEAC1
:1004800031014FEA02701FBF12F07F4393F07F4F9C
:1004900081F06051704732F07F4208BF704793F09F
:1004A0007F4F04BF41F40021704730B54FF46074B2
:1004B00001F0004521F000411CE700BF50EA0102B5
:1004C00008BF704730B54FF000050AE050EA01025E
:1004D00008BF704730B511F0004502D5404261EBCE
:1004E00041014FF4806404F132045FEA915C3FF40F
:1004F000D8AE4FF003025FEADC0C18BF03325FEAAC
:10050000DC0C18BF033202EBDC02C2F1200300FA5C
:1005100003FC20FA02F001FA03FE40EA0E0021FA81
:1005200002F11444BDE600BF70B54FF0FF0C4CF46F
:10053000E06C1CEA11541DBF1CEA135594EA0C0F21
:1005400095EA0C0F00F0DEF82C4481EA030621EA5C
:100550004C5123EA4C5350EA013518BF52EA033597
:1005600041F4801143F4801338D0A0FB02CE4FF049
:100570000005E1FB02E506F00042E0FB03E54FF079
:100580000006E1FB03569CF0000F18BF4EF0010E71
:10059000A4F1FF04B6F5007F64F5407404D25FEA6D
:1005A0004E0E6D4146EB060642EAC62141EA555120
:1005B0004FEAC52040EA5E504FEACE2EB4F1FD0C62
:1005C00088BFBCF5E06F1ED8BEF1004F08BF5FEAE0
:1005D000500E50F1000041EB045170BD06F0004692
:1005E00046EA010140EA020081EA0301B4EB5C043F
:1005F000C2BFD4EB0C0541EA045170BD41F4801137
:100600004FF0000E013C00F3AB8014F1360FDEBF5B
:10061000002001F0004170BDC4F10004203C35DA37
:100620000C341BDC04F11404C4F1200500FA05F3BA
:1006300020FA04F001FA05F240EA020001F000425B
:1006400021F0004110EBD37021FA04F642EB0601D1
:100650005EEA430E08BF20EAD37070BDC4F10C04FB
:10066000C4F1200500FA04F320FA05F001FA04F2BF
:1006700040EA020001F0004110EBD37041F10001AB
:100680005EEA430E08BF20EAD37070BDC4F12005B6
:1006900000FA05F24EEA020E20FA04F301FA05F21E
:1006A00043EA020321FA04F001F0004121FA04F2C6
:1006B00020EA020000EBD3705EEA430E08BF20EA96
:1006C000D37070BD94F0000F0FD101F000464000D0
:1006D00041EB010111F4801F08BF013CF7D041EA52
:1006E000060195F0000F18BF704703F00046520056
:1006F00043EB030313F4801F08BF013DF7D043EA27
:100700000603704794EA0C0F0CEA135518BF95EADC
:100710000C0F0CD050EA410618BF52EA4306D1D163
:1007200081EA030101F000414FF0000070BD50EA82
:10073000410606BF1046194652EA430619D094EA0C
:100740000C0F02D150EA013613D195EA0C0F05D1F6
:1007500052EA03361CBF104619460AD181EA03014A
:1007600001F0004141F0FE4141F470014FF0000002
:1007700070BD41F0FE4141F4780170BD70B54FF09D
:10078000FF0C4CF4E06C1CEA11541DBF1CEA13551D
:1007900094EA0C0F95EA0C0F00F0A7F8A4EB0504FF
:1007A00081EA030E52EA03354FEA013100F08880F6
:1007B0004FEA03334FF0805545EA131343EA1263BF
:1007C0004FEA022245EA111545EA10654FEA002674
:1007D0000EF000419D4208BF964244F1FD0404F52D
:1007E000407402D25B084FEA3202B61A65EB030589
:1007F0005B084FEA32024FF480104FF4002CB6EB46
:10080000020E75EB030E22BFB61A754640EA0C00C5
:100810005B084FEA3202B6EB020E75EB030E22BF05
:10082000B61A754640EA5C005B084FEA3202B6EB46
:10083000020E75EB030E22BFB61A754640EA9C0005
:100840005B084FEA3202B6EB020E75EB030E22BFD5
:10085000B61A754640EADC0055EA060E18D04FEA93
:10086000051545EA16754FEA06164FEAC30343EA33
:1008700052734FEAC2025FEA1C1CC0D111F4801F00
:100880000BD141EA00014FF000004FF0004CB6E7F9
:1008900011F4801F04BF01430020B4F1FD0C88BF98
:1008A000BCF5E06F3FF6AFAEB5EB030C04BFB6EBA3
:1008B000020C5FEA500C50F1000041EB045170BD96
:1008C0000EF0004E4EEA113114EB5C04C2BFD4EBC3
:1008D0000C0541EA045170BD41F480114FF0000E47
:1008E000013C90E645EA060E8DE60CEA135594EAC3
:1008F0000C0F08BF95EA0C0F3FF43BAF94EA0C0FC6
:100900000AD150EA01347FF434AF95EA0C0F7FF43A
:1009100025AF104619462CE795EA0C0F06D152EA8E
:1009200003353FF4FDAE1046194622E750EA410672
:1009300018BF52EA43067FF4C5AE50EA41047FF483
:100940000DAF52EA43057FF4EBAE12E74FF0FF3CE8
:1009500006E000BF4FF0010C02E000BF4FF0010CB9
:100960004DF804CD4FEA410C7FEA6C5C4FEA430C32
:1009700018BF7FEA6C5C1BD001B050EA410C0CBF81
:1009800052EA430C91EA030F02BF90EA020F0020E3
:10099000704710F1000F91EA030F58BF994208BF4A
:1009A00090422CBFD8176FEAE37040F00100704707
:1009B0004FEA410C7FEA6C5C02D150EA013C07D15E
:1009C0004FEA430C7FEA6C5CD6D152EA033CD3D0A9
:1009D0005DF8040B704700BF8446104662468C46A3
:1009E0001946634600E000BF01B5FFF7B7FF0028D6
:1009F00048BF10F1000F01BD4DF808EDFFF7F4FFFF
:100A00000CBF012000205DF808FB00BF4DF808ED89
:100A1000FFF7EAFF34BF012000205DF808FB00BFAC
:100A20004DF808EDFFF7E0FF94BF012000205DF8CE
:100A300008FB00BF4DF808EDFFF7CEFF94BF012083
:100A400000205DF808FB00BF4DF808EDFFF7C4FF7C
:100A500034BF012000205DF808FB00BF4FEA410CC5
:100A60007FEA6C5C02D150EA013C0AD14FEA430CA8
:100A70007FEA6C5C02D152EA033C02D14FF00000E5
:100A800070474FF0010070474FEA410212F5001223
:100A900015D211D56FF47873B3EB625212D94FEAC5
:100AA000C12343F0004343EA505311F0004F23FAAF
:100AB00002F018BF404270474FF00000704750EA04
:100AC000013005D111F0004008BF6FF000407047C1
:100AD0004FF00000704700BF4FEA4102B2F1E0431F
:100AE00024BFB3F5001CDCF1FE5C0DD901F0004C15
:100AF0004FEAC0024CEA5070B2F1004F40EB830065
:100B000008BF20F00100704711F0804F21D113F190
:100B10003872BCBF01F00040704741F480114FEAC9
:100B20005252C2F11802C2F1200C10FA0CF320FA52
:100B300002F018BF40F001004FEAC1234FEAD3236F
:100B400003FA0CFC40EA0C0023FA02F34FEA4303D9
:100B5000CCE77FEA625307D150EA01331EBF4FF062
:100B6000FE4040F44000704701F0004040F0FE407D
:100B700040F40000704700BF53B94AB9002908BFCC
:100B800000281CBF4FF0FF314FF0FF3000F00CB8D1
:100B9000ADF1080C6DE904CE09F0BEFCDDF804E00F
:100BA000DDE9022304B07047704700BF0000000079
:100BB00001F0FF01102A2BDB10F0070F08D010F80E
:100BC000013B013A8B422DD010F0070F42B3F6D112
:100BD000F0B441EA012141EA014122F007047FF02B
:100BE00000070023F0E80256083C85EA010586EA82
:100BF000010685FA47F5A3FA87F586FA47F6A5FABE
:100C000087F68EB9EED1F0BC01F0FF0102F00702C9
:100C100032B110F8013B013A83EA010313B1F8D174
:100C20000020704701387047002D06BF3546033855
:100C3000073815F0010F07D1013015F4807F02BF8E
:100C4000013015F4C03F0130F0BC0138704700BFDF
:100C5000034613F8012B002AFBD1181A01387047FC
:100C60000348044B834202D0034B03B1184770473B
:100C7000E0010020E0010020000000000548064BD4
:100C80001B1AD90F01EBA301491002D0034B03B18A
:100C900018477047E0010020E0010020000000003C
:100CA00010B5064C237843B9FFF7DAFF044B13B1B4
:100CB0000448AFF300800123237010BDE001002041
:100CC00000000000FCD1000808B5054B1BB1054928
:100CD0000548AFF30080BDE80840FFF7CFBF00BF75
:100CE00000000000E4010020FCD1000808B500F07D
:100CF000A1F800F0A7F801F01DF901F085FA01F064
:100D0000C1F902F08FF808BD08B50238C0EB001039
:100D1000C00007EE900AF8EEE77A17EE900A01F0AD
:100D2000A9FB08BD10B5022906D0032907D0012967
:100D300034D1F1EE047A04E0F2EE047A01E0F2EE4E
:100D4000087A441E174B03EB840393ED007A77EE89
:100D5000677A17EE900A01F055FB134B53F82440C5
:100D6000204606F0FDF901F091FB962006F0F8F917
:100D70000E4801F047FB204606F0F2F90C4801F05E
:100D80000BF94FF4967006F0EBF901F0ABFB4FF462
:100D9000E17006F0E5F901F08FFB10BDDFED057A9B
:100DA000CFE700BF24D2000818D20008000040405E
:100DB000000011430000000000B585B0C82006F017
:100DC000CFF9694600230093019302930393FF2315
:100DD0008DF80030AA228DF801208DF803306423AD
:100DE0000522044805F0D5FFC82006F0B9F905B082
:100DF0005DF804FB3009002000B585B0694600238A
:100E00000093019302930393FF238DF80030AA23EC
:100E10008DF80130A7238DF80230642305220448A1
:100E200005F0B7FFC82006F09BF905B05DF804FB9C
:100E30003009002008B5FFF7BFFFFFF7DDFF01F025
:100E40000FFF08BD08B5742009F0E2FC144B1860D0
:100E5000002824D00023036243628362C3620363D9
:100E600043638363C36303600D4A126853609360F6
:100E7000D360136153619361D361136453649364CA
:100E8000D364136553659365D365136693665366A0
:100E9000D366042382F87030002382F8713008BDD5
:100EA0000002002018490A6800231362536293620B
:100EB000D362136353639363D36313600A6853600D
:100EC0009360D360136153619361D361136453647E
:100ED0009364D364136553659365D3651366936612
:100EE0005366D366042382F87030084A51680123A0
:100EF00081F85430916881F85430D16881F85430C9
:100F0000126982F85430704700020020E402002089
:100F10002DE9F8432DED068B01F09CFE142004F022
:100F200083FA8F4BD3ED007A9FED8E7A67EE877A46
:100F30009FED8D7AC7EE877A17EE909A1868FFF7C3
:100F40009BFA0022894B08F061F8FFF7C5FD07EE18
:100F5000900AF5EEC07AF1EE10FA00F1B7809FED3D
:100F6000847AF4EEC77AF1EE10FA07D99FED817A10
:100F7000F4EEC77AF1EE10FA40F3AD807E4B1B68B9
:100F8000002283F871207C4B1C68754B1B6823661C
:100F90007A4B1B68A3667A4B5F6897ED146A84ED01
:100FA000046AD3F80880D8ED147AC4ED057ADE68B7
:100FB000D6ED146AC4ED066A1D6995ED147A84EDC8
:100FC000077A36EE278A36EE888A37EE088AB5EE3B
:100FD000009A28EE098A84ED088A77EEC67A76EEC2
:100FE000A78A78EEC78A68EE898AC4ED098A77EE07
:100FF000E67A77EE277A17EE900AFFF73DFA56A3C6
:10100000D3E90023FFF7BAFBFFF766FD60664846A9
:1010100008F054F809EE900A28EE29AA484608F08C
:1010200087F806EE900A68EEA67A3AEE67AA84ED93
:1010300010AA28EE268A68EEA98A38EE288A84ED5E
:10104000118A97ED137AD8ED137A37EE277AD6ED19
:10105000137A37EE277AD5ED137A37EE277A27EE13
:10106000097A84ED0C7AD8ED137A97ED136A77EE4E
:10107000C67A96ED136A77EE867A95ED136A77EE67
:10108000C67A67EE897AC4ED0D7A94ED146A69EE3A
:10109000875A26EEA75A75EEC55A36EE256A84EDB4
:1010A000146A94ED156A66EE876A69EEA79A76EE81
:1010B000A96A76EE267AC4ED157A01F0D1FD1420E6
:1010C00004F0AEF9BDEC068BBDE8F8839FED2D7AF8
:1010D00077EE877A43E79FED267AF4EEC77AF1EE52
:1010E00010FA21DD9FED287AF4EEC77AF1EE10FABE
:1010F00005D8214B1B68012283F8712043E79FED3F
:10110000227AF4EEC77AF1EE10FA7FF73CAF9FED4A
:101110001F7AF4EEC77AF1EE10FA05D8164B1B6869
:10112000022283F871202EE79FED187AF4EEC77A39
:10113000F1EE10FA7FF727AF9FED0E7AF4EEC77A43
:10114000F1EE10FA3FF61FAF0B4B1B68032283F83A
:10115000712018E7AFF300809B6CB2C9FC7F384068
:101160005C060020DB0F49400000344300807640DD
:101170000000344200809D430002002058060020F9
:10118000E40200200000B443000007430000614374
:1011900010B5012408E0074B53F8240001F0DEFAF3
:1011A000012005F0DDFF0134042CF4DDFFF7B0FE73
:1011B00010BD00BFE40200202DE9F0432DED068BA9
:1011C00083B0554D2C68D4ED187ADFED549A67EE54
:1011D000A97A9FED537AC7EE877A17EE906A94ED5D
:1011E000128A304607F06AFF08EE900A28EE289A25
:1011F00094ED13AA304607F09BFF07EE100A6AEE43
:10120000077A79EE277AC4ED0A7A28EE478A68EEE3
:101210008A8A38EE288A84ED0B8A77EEC87A17EE30
:10122000900AFFF729F906460F46D4ED1B7A9FED89
:101230003D9A67EEC97A67EEA97A17EE900AFFF732
:101240001BF90022384BFFF799FA31A3D3E90023A9
:10125000FFF76AF902460B4630463946FEF7AEFF05
:10126000FFF73AFC20602C68D4ED0A8A94ED0B8AD3
:1012700078EE887A17EE900AFFF7FEF880468946E6
:10128000D4ED1B7A67EE897A67EEA97A17EE900A99
:10129000FFF7F2F80022244BFFF770FA1CA3D3E902
:1012A0000023FFF741F906460F4602460B4640462B
:1012B0004946FEF783FFFFF70FFC054660603246A4
:1012C0003B4640464946FEF777FFFFF705FC804660
:1012D000A06078EEC87A17EE900AFFF7CDF80246C4
:1012E0000B4630463946FEF769FFFFF7F5FB03462C
:1012F000E06020680A2200924246294601F068FC1C
:1013000003B0BDEC068BBDE8F08300BFAFF30080F7
:10131000000000002670E63F00020020DB0F49407D
:1013200000003443AD8CF2430080664010B582B0BB
:10133000124B1B68042283F87020C0B9012400E01E
:101340000134042C09DC0E4B53F824008379022B62
:10135000F6D0022101F062F9F2E7002002230093A7
:1013600003460246014601F033FC02B010BD01F015
:10137000D7FB012001F0A2FBF7E700BF000200202D
:10138000E40200202DE9F0472DED048B08EE100A51
:1013900008EE901A17461E4601F0B2FB022001F03B
:1013A0008DFB01F09DFBFFF77DFDFFF7F1FEB44BD8
:1013B000186802F045F9B34B186802F041F9B24BD6
:1013C000186802F03DF9B14B186802F039F9B04BDA
:1013D000186802F035F9AF4B186802F031F9AE4BDE
:1013E000186802F02DF9DFEDAD7AB4EEE78AF1EE80
:1013F00010FA24D4DFEDB37AB4EEE78AF1EE10FAF6
:1014000028DADFEDA77AF4EE678AF1EE10FA28D039
:10141000F0EEE87A9FEDA37AF4EEC77AF1EE10FAD7
:1014200026D5F0EEC87AF4EEC77AF1EE10FA26D49B
:10143000F1EE049AB0EE699A4FF0040805E0F0EE80
:10144000089AB3EE049A4FF0020803F08DFB0546AC
:101450000024E0E0F0EE089AB3EE049A4FF00108A1
:10146000F3E7F1EE049AB7EE009A4FF00308ECE7C9
:10147000F1EE049AB0EE699A4FF00408E5E7F1EE58
:10148000049AB0EE089A4FF00108DEE70020FFF75B
:101490004DFF0020FFF74AFFBDEC048BBDE8F0874D
:1014A00000249FED817AB4EEC78AF1EE10FA0FD5D1
:1014B0009FED847AF4EEC77AF1EE10FA08DD9FED25
:1014C0007B7AF4EEC77AF1EE10FA01D5DFED788A77
:1014D000FFF75EFEF0EEC87A9FED7A7AF4EEC77AF7
:1014E000F1EE10FA40F1F2809FED727AF4EEC77AD5
:1014F000F1EE10FA67DD9FED6A7AF4EE478AF1EEBD
:1015000010FA60D06C4B1B6893ED147AF0EEC76A4A
:10151000F4EEE67AF1EE10FA1BD5D3ED157A77EEFC
:10152000E87AF0EEE77AF4EEE97AF1EE10FA10D507
:10153000D3ED187A06EE907A77EEE67AF0EEE77A57
:10154000DFED5E6AF4EEE67AF1EE10FA01D50134D1
:10155000E4B217EE102A18EE101A494B186802F080
:1015600085F807EE900AF5EEC07AF1EE10FA15DD77
:10157000F0EEE77A17EE900AFEF77EFF0022504B5E
:1015800007F00EFE4C4BD3F80090FFF7A5FAC9F810
:10159000480025E0002484E7002482E7F0EEE77AA3
:1015A00017EE900AFEF768FF0022454B07F0F8FDA2
:1015B000FFF792FA404B1B6807EE900AF1EE677A4C
:1015C000C3ED127A0CE03C4BD3F80090D9F85020D0
:1015D00018EE101A2A4B186802F048F8C9F84800AB
:1015E000DFF8D490D9F800A0DAF8542018EE901A59
:1015F000244B186802F03AF8CAF84C00D9F8009069
:10160000D9F860203946204B186802F001F9C9F872
:101610006C00FFF7D1FD03F0A7FA401BB042BFF406
:1016200038AF4445BFF432AF234B1968D1ED147A7B
:1016300077EEC87AF0EEE77AF4EEC97AF1EE10FAB6
:101640007FF52EAF91ED157A37EE687AB0EEC77A56
:10165000B4EEE97AF1EE10FA9CD591ED187A06EE27
:10166000907A37EE667AB0EEC77ADFED146AB4EEA0
:10167000E67AF1EE10FA8FD50134E4B211E700BF3B
:10168000CC050020C8050020B4050020C4050020BA
:10169000C0050020BC050020B80500200080BBC4A8
:1016A000000020420080894400401CC500401C45C9
:1016B00000E08DC40000C842000200209A99993EC3
:1016C000000039400080BB44008009451FED037ACB
:1016D000B4EEC78AF1EE10FA3FDB1FED057AB4EEE7
:1016E000C78AF1EE10FA94D5334B1B6893ED147A48
:1016F000F0EEC76AF4EEE67AF1EE10FA01D50134A5
:10170000E4B217EE102A18EE101A2C4B186801F0EC
:10171000ADFFFEF7B1FE0022294B07F041FDDFF8D7
:1017200098A0DAF80090FFF7D7F9C9F84800D9F87F
:10173000542018EE901A234B186801F097FFC9F84F
:101740004C00DAF80090D9F8602039461E4B186832
:1017500002F05EF8C9F86C005BE7DFED1C7AB4EECE
:10176000E78AF1EE10FA7FF554AFDFF84C90D9F824
:1017700000A0DAF8502018EE101A154B186801F086
:1017800075FFCAF84800D9F800A0DAF8542018EE1E
:10179000901A104B186801F069FFCAF84C00D9F88C
:1017A0000090D9F860203946074B186802F030F8ED
:1017B000C9F86C002DE700BF00020020C40500201E
:1017C00000003940C0050020B40500200080BBC4E3
:1017D000BC050020B80500202DE9F84F2DED048B45
:1017E0000D46032837D8DFE800F05C020E2BBA4B19
:1017F00093ED068AD3F840809FEDB89AF0EE498ABF
:101800000027012461E0B44B93ED078AD3F84480AC
:10181000B34B1B78012B05D09FEDB09AF0EE498AAF
:101820000027EEE7F7EE007A07EE108A77EE277AC8
:1018300017EE908A9FEDA99AF0EE498A0027E0E71B
:10184000A54B93ED088AD3F848809FEDA49AF0EE5B
:10185000498A0027D5E7A04B021D03EB820292EDD7
:10186000018A00F10E0203EB8203D3F804800438EE
:10187000052812D8DFE800F003130303030F994F84
:10188000974B1B78012B17D105F516759FED969A8E
:10189000DFED968AB5E7964FF2E70027F0E7954F20
:1018A000EEE78D4B93ED058AD3F83C809FED8B9A44
:1018B000F0EE498A0027A4E79FED8B9ADFED8B8A33
:1018C0009FE7022100F0AAFE0134042C06DC8A4BBB
:1018D00053F824008379022BF6D0F2E7FFF7E2FAFF
:1018E000FFF756FC854B186801F0AAFE844B186878
:1018F00001F0A6FE834B186801F0A2FE824B186827
:1019000001F09EFE03F030F9064600245AE0002460
:101910007E4B1A68704BD3ED037AF5EE407AF1EE08
:1019200010FA06D1D3ED047AF5EE407AF1EE10FA12
:1019300048D092F87130032B3FD8DFE813F008004D
:1019400024018C00ED000024E2E70024E0E7DFF84A
:1019500088A1DAF80C2018EE101A694B186801F00B
:1019600085FEFEF789FDDFF8A491D9F800B056A3F3
:10197000D3E90023FEF7D8FDFFF7AEF8CBF84C0013
:10198000DAF8102041465D4B186801F06FFEFEF753
:1019900073FDD9F800904CA3D3E90023FEF7C4FDF2
:1019A000FFF79AF8C9F84800594B1A683946564B60
:1019B000186801F02DFFC9F86C00FFF7FDFB05204A
:1019C00005F0CEFB03F0D0F8801BA84236D2424B84
:1019D000D3ED037A77EEC87AF0EEE77AF4EEE87AA0
:1019E000F1EE10FA93D8D3ED047A07EE108A77EE71
:1019F000C77AF0EEE77AF4EEC97AF1EE10FAA2D8DF
:101A0000434BD3ED007A07EE107A77EEC77AF0EE0B
:101A1000E77A9FED407AF4EEC77AF1EE10FA94D5AA
:101A20000134E4B2022C7FF673AF0020FFF77EFC96
:101A3000082005F095FB0120FFF778FC0020FFF758
:101A400075FC082005F08CFB0120FFF76FFCBDEC56
:101A5000048BBDE8F88FDFF880A0DAF80C2018EED0
:101A6000101A274B186801F001FEFEF705FDDFF89C
:101A70009C90D9F800B016A3D3E90023FEF754FDDB
:101A8000FFF72AF8CBF84C00DAF8102041461B4B40
:101A9000186801F0EBFDFEF7EFFCD9F800900CA3FD
:101AA000D3E90023FEF740FDFFF716F8C9F8480018
:101AB000174B1A683946144B186801F0A9FEC9F88B
:101AC0006C007AE7AFF300809A9999999999E13F70
:101AD0009A9999999999E1BF280200203333E340FC
:101AE000FC01002000003443666646403333A340C7
:101AF0000000B44200008743E4020020B00500204B
:101B0000AC050020A8050020B4050020000200203C
:101B10005C060020CDCCCC3DDFF8FCA0DAF80C2030
:101B200018EE101A384B186801F0A0FDFEF7A4FC5F
:101B3000DFF8E890D9F800B02FA3D3E90023FEF72F
:101B4000F3FCFEF7C9FFCBF84800DAF81020414655
:101B50002E4B186801F08AFDFEF78EFCD9F8009034
:101B600027A3D3E90023FEF7DFFCFEF7B5FFC9F892
:101B70004C00274B1A683946264B186801F048FE7E
:101B8000C9F86C0019E7DFF890A0DAF80C2018EE1D
:101B9000101A1D4B186801F069FDFEF76DFCDFF8A7
:101BA0007C90D9F800B016A3D3E90023FEF7BCFC63
:101BB000FEF792FFCBF84800DAF810204146134BAD
:101BC000186801F053FDFEF757FCD9F800900AA3FE
:101BD000D3E90023FEF7A8FCFEF77EFFC9F84C000E
:101BE0000B4B1A6839460B4B186801F011FEC9F807
:101BF0006C00E2E6AFF300809A9999999999E13FD8
:101C00009A9999999999E1BFAC050020B0050020F7
:101C10005C060020B40500202802002000020020FD
:101C20002DE9F0472DED028B08EE100A8A46164684
:101C30009846012400E00134042C09DC4A4B53F897
:101C400024008379022BF6D0022100F0E7FCF2E7B2
:101C5000FFF728F9FFF79CFA444B186801F0F0FCF5
:101C6000434B186801F0ECFC424B186801F0E8FCAB
:101C700007EE90AAF0EEE77A9FED3F7AF4EEC77A8E
:101C8000F1EE10FA06D4F2EE008A02F06DFF07467C
:101C9000002529E0F2EE048AF7E7002500E00025A0
:101CA000FFF776FA354CD4F80090D9F8502018EEAA
:101CB000101A2E4B186801F0D9FCC9F84800D4F866
:101CC0000090D9F854205146294B186801F0CEFCF9
:101CD000C9F84C002468226E3146264B186801F082
:101CE00097FDE066FFF768FA02F03EFFC01B404533
:101CF00031D2224B1C68D4ED147A77EEC87AF0EE1C
:101D0000E77AF4EEE87AF1EE10FAC6D5D4ED157A5A
:101D100007EE10AA77EEC77AF0EEE77AB2EE087A0D
:101D2000F4EEC77AF1EE10FAB9D5D4ED187A07EED1
:101D3000106A77EEC77AF0EEE77A9FED117AF4EE4B
:101D4000C77AF1EE10FA0DD50135EDB2042DA7D901
:101D50000020FFF7EBFA0020FFF7E8FABDEC028B5A
:101D6000BDE8F08700259BE7E4020020A4050020E1
:101D7000A00500209C05002000007A4400020020FD
:101D8000CDCCCC3D2DE9F0472DED028B08EE100AAD
:101D90008A461646984600F0B3FE022000F08EFEFA
:101DA00000F09EFE142005F0DBF9FFF77BF8FFF74B
:101DB000EFF93D4B186801F043FC3C4B186801F00B
:101DC0003FFC3B4B186801F03BFC02F0CDFE0746A0
:101DD000002526E0002500E00025FFF7D9F9354C65
:101DE000D4F80090D9F8502018EE101A2E4B18682D
:101DF00001F03CFCC9F84800D4F80090D9F8542010
:101E000051462A4B186801F031FCC9F84C0024688F
:101E1000226E3146264B186801F0FAFCE066FFF7A7
:101E2000CBF902F0A1FEC01B404533D2214B1C6808
:101E3000D4ED147A77EEC87AF0EEE77A9FED1E7A49
:101E4000F4EEC77AF1EE10FAC4D5D4ED157A07EEA8
:101E500010AA77EEC77AF0EEE77AB0EE007AF4EEE9
:101E6000C77AF1EE10FAB7D5D4ED187A07EE106AFA
:101E700077EEC77AF0EEE77A9FED107AF4EEC77A44
:101E8000F1EE10FA0DD50135EDB2022DA5D90020E5
:101E9000FFF74CFA0020FFF749FABDEC028BBDE8D2
:101EA000F087002599E700BF9805002094050020E1
:101EB00090050020000200209A991940CDCCCC3D1D
:101EC0002DE9F0478246894690461F4600F018FEED
:101ED000022000F0F3FD00F003FEFEF7E3FFFFF742
:101EE00057F9124B186801F0ABFB02F03DFE0646B5
:101EF00011E0FFF74DF90E4C25682A6E41460B4B59
:101F0000186801F085FCE8662468C4F848A0C4F8A5
:101F10004C90FFF751F902F027FE801BB842E8D33E
:101F20000020FFF703FABDE8F08700BFB4050020EA
:101F300000020020074B196800220A601B685A60E3
:101F40009A60DA60044A1A6100221A7501225A75F1
:101F5000704700BF000000206666663F10B507EEC0
:101F6000900A0C4667EEA76A9FED097A37EE667A0B
:101F7000B1EE477A77EEA77ADFED066A67EEA67ACA
:101F8000C7EE277A17EE900A07F06CF8206010BDB4
:101F9000003739470000B642F0B583B004460D4D16
:101FA000284604F0DFF90C4E376801233B750B49D6
:101FB000204607F067F90A4907F040F9786001A95F
:101FC000FFF7CCFF3368019ADA60284604F088F9FD
:101FD00003B0F0BD68070020000000200080A3438C
:101FE00000001143034BDA69034B1B68526A9A6085
:101FF000704700BFE40200200000002008B51E4B1F
:102000001B68D3ED037A93ED027A77EEC77AB0EED0
:10201000E76AD3ED046AB4EEE66AF1EE10FA0AD587
:1020200000221A7577EE277A17EE901A134BD869AB
:1020300000F09AFB08BDF2EE035AB4EEE56AF1EE49
:1020400010FA0ED59FED0E6A66EE866AF5EEC07A3E
:10205000F1EE10FA02DDF0EE667AE3E7F1EE667A71
:10206000E0E7F5EEC07AF1EE10FA02DDF0EE667A06
:10207000D8E7F1EE667AD5E700000020E402002000
:10208000CDCCCC3E38B51E4B0022DA601A611D4A19
:102090005A611D49D9639A611C4818641C48D8616B
:1020A0001C4858641C4818621C4898645A62D964D9
:1020B0001B4A9A621B4A1A651B4ADA621B4A5A6516
:1020C0001B4A1A631B4A9A651B4A5A631B4ADA6504
:1020D0001B4A9A631B4A1A6600241C72A3F86940C3
:1020E00083F86B405C6683F868401C605C60164D4A
:1020F00008222946154804F08DFF2C606C6038BD1D
:10210000280200200000964300003E4300003C43AC
:102110000000A04300005043008098430000344377
:1021200000809D430080BB4300002B430000C3435D
:10213000000010430000BE43006081440080C043A3
:102140000080684400005C4370060020780900208D
:10215000082900D0704738B504460378EE2B00D02C
:1021600038BD431813F8013CFF2BF9D1224D0A4624
:102170000146284609F0E5FA63782B722B7ADAB229
:10218000112B2CD8102AEBD3A278E37843EA022350
:1021900007EE903AB8EE677A2179627942EA012235
:1021A00007EE902AF8EE677AA079411EC9B2042999
:1021B000D6D8B3F5A06FD3D2B2F5347FD0D20E4BC0
:1021C00083ED037AC3ED047A0C4B1A68022A03DC10
:1021D000094B134483F86900094B1870C0E7122AB1
:1021E000BED1054BD4F802005866A27983F8682066
:1021F000044B01221A70B3E72802002020020020BD
:102200001C020020240200200C4A51690C4B19606A
:1022100092695A6000229A60DA601A615A6109492B
:10222000996100211977084B1A605A60074A9A6031
:1022300019734FF40062DA81704700BFE402002096
:10224000A802002000008D42940200200000F0410E
:102250000B4B1A68D2ED097ADFED0A6A67EEA67AAF
:102260009FED097A87EE876A83ED026A5A68D2ED9C
:10227000097A67EEA67AC7EE876AC3ED036A7047EC
:10228000A802002000003443DB0F494010B52DEDBB
:10229000048B414B93ED046A93ED027A36EE476A64
:1022A000F0EEC67A93ED065ADFED3C5A65EE255AFC
:1022B000F4EEE57AF1EE10FA3FD500221A77364BAC
:1022C000D3ED056AD3ED037A76EEE76AF0EEE64ADF
:1022D000F4EEE45AF1EE10FA11DCF1EE025AF4EEEB
:1022E000E54AF1EE10FA4CD5DFED2D5A25EE255AD0
:1022F000F5EEC06AF1EE10FA40DDF0EE456A37EE19
:10230000067A37EEA68A9FED279A27EE097ADFED47
:10231000268A214CC7EE287A17EE901A206800F022
:1023200023FA68EE097AC7EEA87A17EE901A606869
:1023300000F01AFABDEC048B10BDF2EE036AF4EE65
:10234000E67AF1EE10FA0ED5DFED157A65EE277A12
:10235000B5EEC06AF1EE10FA02DDB0EE676AAEE7E4
:10236000B1EE676AABE7B5EEC06AF1EE10FA02DDD6
:10237000B0EE456AA3E7B1EE456AA0E7F1EE456A23
:10238000BDE7F5EEC06AF1EE10FA02DDF0EE456A47
:10239000B5E7F1EE456AB2E7A8020020CDCC4C3E8D
:1023A000CDCCCC3EDB0F49400000344308B5074B91
:1023B000186107EE901AF1EE677AC3ED057A0122F3
:1023C0001A77034803F08CFF08BD00BFA802002065
:1023D0006807002006EE900AB3EE057AC6EE877A0B
:1023E0009FED067A67EE877ADFED056A87EEA67ABB
:1023F00081ED007A82ED007A704700BF000034431F
:10240000DB0F494000B583B06A4601A9FFF7E2FF40
:1024100000990198FFF7CAFF03B05DF804FB08B507
:1024200000200146FFF7C2FF08BD000008B5FEF717
:1024300023F80022094BFEF7A1F90022084BFDF713
:10244000BDFEFEF721FB81B201F5006182234FF44E
:10245000AF6209B2022000F02BFD08BD0080B63F3C
:102460000000E03F08B5024B5868FFF7DFFF08BDEA
:102470009402002008B5034B5860034803F030FF76
:1024800008BD00BF940200206807002010B5084C6A
:10249000204603F067FF074B01221A7340F6C4126F
:1024A000DA810A2004F05CFE204603F019FF10BD1B
:1024B000680700209402002010B5084C204603F065
:1024C00051FF074B00221A7340F2B652DA810A20FC
:1024D00004F046FE204603F003FF10BD680700200D
:1024E0009402002010B5084C204603F03BFF074B38
:1024F00000221A7340F23A72DA810A2004F030FEA8
:10250000204603F0EDFE10BD680700209402002075
:1025100010B504460621023000F0B0FC10B123785B
:10252000FF2B00D010BD6378FF2BFBD1A278A179DF
:10253000637903EB01239BB2012A09D0022AF1D16E
:1025400007EE903AF8EE677A034BC3ED007AE9E7BD
:10255000014A1382E6E700BF9402002003460846C2
:102560000B70C3F307224A70C3F307428A70C3F3A8
:102570000763CB707047000030B583B004460D4B45
:1025800008221A6104229A600022DA6082685A6086
:1025900002F0EAFA00F16405224652F80C0B01AB96
:1025A000044902F057FC18B102F0DEFAA842F3D950
:1025B00003B030BDCC02002001600272064B1B78D4
:1025C000A0F80930C37A23F0E003C372012380F836
:1025D00054300023837170470400002008B5C37A8B
:1025E000032262F30403C3720B4B1B78A0F809307B
:1025F000C37A23F0E003C372002304E0C218002171
:1026000011730133DBB2072BF8D9FFF7B5FF0A20AE
:1026100004F0A6FD08BD00BF0400002038B5044644
:102620000D46C37A122262F30403C3720D4B1B786A
:10263000A0F80930C37A23F0E003C372002303E05B
:10264000E218002010730133072BF9DD47F2050370
:10265000A38125742046FFF78FFFA5710A2004F09F
:102660007FFD38BD0400002008B5C37A042262F360
:102670000403C3720B4B1B78A0F80930C37A23F014
:10268000E003C372002304E0C21800211173013378
:10269000DBB2072BF8D9FFF76FFF0A2004F060FDCB
:1026A00008BD00BF0400002008B5C37A062262F30B
:1026B0000403C3720B4B1B78A0F80930C37A23F0D4
:1026C000E003C3720123037304E0C21800211173F5
:1026D0000133DBB2072BF8D9FFF74EFF0A2004F0D5
:1026E0003FFD08BD0400002010B590F80BC0122477
:1026F00064F3040C80F80BC0084C94F800C0A0F8F8
:1027000009C090F80BC02CF0E00C80F80BC0818160
:1027100012680261FFF730FF10BD00BF0400002007
:1027200008B5C37A112262F30403C3720A4B1B7803
:10273000A0F80930C37A23F0E003C3728181022339
:1027400004E0C218002111730133DBB2072BF8D962
:10275000FFF712FF08BD00BF0400002008B547F2D4
:102760001901FFF7DDFF08BD30B583B00446084608
:1027700001AD2946FFF7F2FE2A4647F21601204630
:10278000FFF7B2FF03B030BD30B583B00446084652
:1027900001AD2946FFF7E2FE2A4647F2170120461F
:1027A000FFF7A2FF0A2004F0DBFC03B030BD30B518
:1027B00083B0044607EE901AB3EE0E7AF4EEC77AB1
:1027C000F1EE10FA09DCBBEE0E7AF4EEC77AF1EE08
:1027D00010FA04D5FBEE0E7A01E0F3EE0E7A01ADAD
:1027E000294617EE900AFFF7B9FE2A4647F20A017A
:1027F0002046FFF779FF03B030BD30B583B0044603
:10280000084601AD2946FFF7A9FE2A4647F21801FE
:102810002046FFF769FF0A2004F0A2FC03B030BD98
:1028200010B504460B784A7843EA022347F21902AE
:10283000934204D047F21B02934231D010BDCA79B3
:102840008B791B0443EA02634A7943EA02230A793B
:10285000134307EE903A027A012A01D0032A03D1EA
:1028600007EE903AF1EE677AC4ED0E7A9FED1B7A8F
:1028700067EE877AC4ED107A94F8543023B10023C0
:1028800084F85430C4ED117A94ED117A37EEC77A9A
:1028900084ED137AC4ED117A02F066F9E063CDE7B6
:1028A000CA798B791B0443EA02634A7943EA02231B
:1028B0000A79134307EE903A027A012A01D0032ADB
:1028C00003D107EE903AF1EE677AC4ED0B7A9FEDF3
:1028D000037A67EE877AC4ED147AAFE700004842C6
:1028E00010B504463F2900F2938000230371617103
:1028F0001178537843EA01231BB283F400431BB2DF
:10290000A3839178D37843EA01231BB283F4004375
:102910001BB2217A012901D0032901D15B421BB2EC
:10292000E3831179537943EA01231BB283F4004313
:102930001BB2238493791B021BB2D27913436384A5
:10294000636AA362A08B00B207EE900AF8EEE77A02
:1029500017EE900AFDF790FD00224FF07C53FDF733
:10296000E3FD00222E4BFDF7DFFD2BA3D3E900236F
:10297000FDF7DAFDFEF7B0F86062E08B00B207EE1B
:10298000900AF8EEE77A17EE900AFDF775FD00223F
:102990004FF07C53FDF7C8FD0022224BFDF7C4FD2C
:1029A000FEF79AF8E062D4ED0B7A9FED1F7A67EE9E
:1029B000877AC4ED147A208C00B207EE900AF8EE04
:1029C000E77A17EE900AFDF757FD00224FF07C538F
:1029D000FDF7AAFD0022154BFDF7A6FDFEF77CF8DA
:1029E0002063638C1BB207EE903AF8EEE77AF2EEC2
:1029F000046A87EEA67A84ED0D7A10BD490801338A
:102A0000062B3FF774AF11F0010FF7D02371F5E7F4
:102A10000123F5E7AFF3008000000060FB210940CF
:102A20000000104000003E400000484200002840E6
:102A300008B51F4B18601F4B0340FE2B08D01C4BE2
:102A4000DB7803F01F03022B12D0112B22D008BD1C
:102A5000174BB3F80130DBB25A1ED2B2062AF6D8B1
:102A6000154A52F8233008684A6858619A61EEE7BF
:102A70000F4BB3F801C05FFA8CF0431EDBB2062B9C
:102A8000E5D80A464FEA1C210B4B53F82000FFF70C
:102A900027FFDCE7064BB3F80130DBB25A1ED2B297
:102AA000062AD4D8044A52F82300FFF7B9FECEE72D
:102AB000C8020020FF00001FE402002038B50546D0
:102AC000012407E02946054B53F82400FFF7A6FD33
:102AD0000134E4B2042CF5D938BD00BFE402002073
:102AE00010B5012406E0054B53F82400FFF776FDEE
:102AF0000134E4B2042CF6D910BD00BFE40200207A
:102B000010B5012406E0054B53F82400FFF7ACFD97
:102B10000134E4B2042CF6D910BD00BFE402002059
:102B200010B5FFF7EDFF094C2046FFF7BDFD04F19E
:102B30005800FFF7B9FD04F1B000FFF7B5FD04F54B
:102B40008470FFF7B1FDFFF7CBFF10BD0C04002030
:102B500038B51B4A1B4B536003F15801916003F1D8
:102B6000B001D16003F58473136101240BE02246A8
:102B70001549134B53F82400FFF71EFD0A2004F0FB
:102B8000EFFA0134E4B2042CF1D9FFF7C9FF0124B4
:102B900010E00B4D4FF0824155F82400FFF7F4FD93
:102BA0000A4955F82400FFF728FE0A2004F0D8FA55
:102BB0000134E4B2042CECD90220FFF77FFF38BDCA
:102BC000E40200200C040020D40500200000B841DD
:102BD00038B52DED048B06EE901A06EE103A089CDF
:102BE00007EE900AB1EE677ADFED187A86EEA79AC3
:102BF00006EE902AF1EE666AC6EEA78A86EE278A6E
:102C0000134DC7EE277A17EE901A6868FFF7CFFDCD
:102C1000204604F0A5FA19EE101AA868FFF7C7FDC0
:102C2000204604F09DFA18EE901AE868FFF7BFFD01
:102C3000204604F095FA18EE101A2869FFF7B7FD40
:102C4000204604F08DFABDEC048B38BD00004842EC
:102C5000E402002008B5392002F0E6FB08BD0000C0
:102C600010B5392002F0DCFB054C2C22214605482A
:102C700004F0D0F92C220021204608F0D3FC10BD2E
:102C8000A40600203009002038B50546052407E0D9
:102C90002946054B53F82400FFF7C0FC0134E4B289
:102CA000062CF5D938BD00BFE402002038B5184A1B
:102CB000184B53615833936105240EE00A2004F049
:102CC0004FFA22461449124B53F82400FFF774FCC4
:102CD0000A2004F045FA0134E4B2062CEED90524AA
:102CE0000FE00B4D0D4955F82400FFF74DFD0C4941
:102CF00055F82400FFF781FD0A2004F031FA013471
:102D0000E4B2062CEDD90120FFF7BEFF38BD00BFAD
:102D1000E40200205C030020FC050020000070415C
:102D20000000A04110B5052409E0064B53F824002B
:102D3000FFF754FC0A2004F013FA0134E4B2062C25
:102D4000F3D910BDE402002010B5052406E0054BC0
:102D500053F82400FFF788FC0134E4B2062CF6D9BE
:102D600010BD00BFE402002010B5FFF7EDFF054CD9
:102D70002046FFF799FC04F15800FFF795FCFFF798
:102D8000D1FF10BD5C03002008B50146024BD86995
:102D9000FFF744FC08BD00BFE402002010B5094C59
:102DA0000948E06107220949FFF706FC0849E06984
:102DB000FFF7EAFC0749E069FFF71FFD0120FFF775
:102DC000E3FF10BDE402002004030020FC05002006
:102DD000000060410000A04108B5FFF7B9FEFFF711
:102DE00065FFFFF7DBFF00F001F908BD08B5024BF6
:102DF000D869FFF7F3FB08BDE402002008B5024BD9
:102E0000D869FFF731FC08BDE402002008B5FFF7E0
:102E1000F5FF034BD869FFF747FCFFF7E7FF08BD55
:102E2000E40200200C4B0D4A5A604FF48051198087
:102E30000121197259721A614FF48041998102215E
:102E400019755975DA614FF400521A83032283F819
:102E5000202083F8212070476C050020000C0240E0
:102E600000231A4605E010F803C06244D2B20133D1
:102E7000DBB28B42F7D3D043C0B2704700231A466F
:102E800005E010F803C06244D2B20133DBB28B42DA
:102E9000F7D3FF2A14BF00200120704708B50A4667
:102EA0000A230146014803F074FF08BDC009002051
:102EB0002DE9F04F8BB006460193022856D0012829
:102EC0005CD040F648539A4200D91A465FFA81F91D
:102ED000C1F307255FFA82F8140AFF238DF8183032
:102EE0008DF819308DF80C604FF00A0B8DF80DB08D
:102EF0004FF0030A8DF80EA04FF029038DF80F3024
:102F0000019B8DF810308DF811908DF8125000272C
:102F10008DF813708DF814708DF815808DF81640AB
:102F20000B2103A8FFF79CFF8DF81A608DF81BB0EA
:102F30008DF81CA04FF029028DF81D20019B8DF803
:102F40001E308DF81F908DF820508DF821708DF86F
:102F500022708DF823808DF824408DF825000E21F5
:102F600006A8FFF79BFF0BB0BDE8F08F00290DDB33
:102F7000B1F5805FA5DD4FF48051A2E7002907DBA2
:102F8000B1F5805F9DDD4FF480519AE7002198E70D
:102F9000002196E7F0B585B00546FF238DF808308F
:102FA0008DF809308DF8000004278DF80170022497
:102FB0008DF8024038268DF803608DF80440052115
:102FC0006846FFF74DFF8DF80A508DF80B708DF8AD
:102FD0000C408DF80D608DF80E408DF80F00082123
:102FE0000DEB0100FFF75AFF05B0F0BD70B54820AA
:102FF00007F00EFC0446994B1860482007F008FCC7
:10300000974B1860482007F003FC964B1860482047
:1030100007F0FEFB944B1860482007F0F9FB934B38
:103020001860482007F0F4FB914B1860482007F027
:10303000EFFB904B1860482007F0EAFB8E4B1860BE
:10304000482007F0E5FB8D4B1860482007F0E0FBB7
:103050008B4B1860482007F0DBFB8A4B1860482038
:1030600007F0D6FB884B1860482007F0D1FB874B50
:103070001860482007F0CCFB854B1860482007F00B
:10308000C7FB844B1860482007F0C2FB824B1860D6
:10309000F4B1824B2360714E3468814B6360814B85
:1030A000A360814BE3600025256165617F4BA361CF
:1030B000E36101F059FD2062336800225A629A628E
:1030C000DA621A635D639D63DD63012283F8402049
:1030D000634B1B68F3B1714A1A60614E3468704BE0
:1030E0006360734BA360704BE360002525616561ED
:1030F0006E4BA361E36101F037FD2062336800226B
:103100005A629A62DA621A635D639D63DD6301222B
:1031100083F84020534B1B68F3B1664A1A60514E46
:1031200034685F4B6360644BA3605F4BE3600025D2
:10313000256165615D4BA361E36101F015FD2062CE
:10314000336800225A629A62DA621A635D639D6391
:10315000DD63012283F84020434B1B68F3B1574ADB
:103160001A60414E34684E4B6360554BA3604E4B22
:10317000E3600025256165614C4BA361E36101F0CB
:10318000F3FC2062336800225A629A62DA621A63A0
:103190005D639D63DD63012283F84020334B1B6830
:1031A000F3B1484A1A60314E34683D4B6360464B78
:1031B000A3603D4BE360002525616561434BA3613E
:1031C000E36101F0D1FC2062336800225A629A6206
:1031D000DA621A635D639D63DD63012283F8402038
:1031E000234B1B68F3B13A4A1A60214E34682C4BCA
:1031F0006360384BA3602C4BE3600025256165615B
:10320000324BA361E36101F0AFFC2062336800221E
:103210005A629A62DA621A635D639D63DD6301221A
:1032200083F84020134B1B68002B66D02A4A1A6093
:10323000104E34681A4B6360284BA3601A4BE3604E
:10324000002525616561264BA361264BE36101F0F2
:103250008BFC2062336800225A6245E0CC050020D6
:10326000C8050020C4050020C0050020BC050020C2
:10327000B8050020B4050020B0050020AC050020F2
:10328000A8050020A4050020A00500209C05002022
:10329000980500209405002090050020378985407E
:1032A0006F12833AF0A7263FBC74933C000096440B
:1032B0001283403F666686400AD7C33F8FC285406F
:1032C000E17AB43F33330340B81E053F0000E144C8
:1032D000CDCC9C4048E1DA3F666666409A99193F3A
:1032E0000000484300005C439A62DA621A635D633F
:1032F0009D63DD63012283F84020954B1B683BB33F
:10330000944A1A60924E3468934B6360934BA36067
:10331000934BE360002525616561924BA361924B5D
:10332000E36101F021FC206201F01EFC07EE900A2F
:103330003368F8EE677AC3ED117A00225A629A6216
:10334000DA621A635D639D63DD63012283F84020C6
:10335000864B1B683BB37F4A1A60844E34687E4BB1
:103360006360834BA3607E4BE3600025256165614C
:103370007C4BA3617C4BE36101F0F6FB206201F022
:10338000F3FB07EE900A3368F8EE677AC3ED117A23
:1033900000225A629A62DA621A635D639D63DD639A
:1033A000012283F84020734B1B68FBB1724A1A60FC
:1033B000704E3468714B6360714BA360684BE3607F
:1033C0000025256165616F4BA3616F4BE36101F0DF
:1033D000CBFB2062336800225A629A62DA621A6377
:1033E0005D639D63DD63012283F84020674B1B68AA
:1033F000FBB1674A1A60654E3468664B6360664B82
:10340000A360574BE360002525616561634BA361B1
:10341000634BE36101F0A8FB2062336800225A622B
:103420009A62DA621A635D639D63DD63012283F849
:1034300040205C4B1B68FBB15B4A1A60594E3468F4
:10344000544B6360594BA360454BE36000252561F5
:103450006561524BA361524BE36101F085FB206231
:10346000336800225A629A62DA621A635D639D636E
:10347000DD63012283F840204D4B1B68FBB14D4AB0
:103480001A604B4E3468434B63603D4BA360344B32
:10349000E360002525616561474BA3613A4BE36119
:1034A00001F062FB2062336800225A629A62DA629B
:1034B0001A635D639D63DD63012283F840203F4B07
:1034C0001B68FBB13E4A1A603C4E34682B4B63606C
:1034D0003C4BA360224BE3600025256165613A4BBC
:1034E000A3613A4BE36101F03FFB206233680022A5
:1034F0005A629A62DA621A635D639D63DD63012238
:1035000083F84020324B1B68F3B1324A1A60304EC8
:1035100034681A4B6360304BA360114BE3600025A5
:10352000256165611D4BA361E36101F01DFB206214
:10353000336800225A629A62DA621A635D639D639D
:10354000DD63012283F84020244B1B6848E000BF64
:10355000B0050020CDCCEC3F0AD7A33C9A99993E08
:10356000BC74933C0000204300004344AC050020A1
:103570003333B33EA8050020CDCC8C3F6F12833A85
:10358000D7A3F03E0000484200009643A405002067
:10359000CDCC0C400AD7233C3D0AD73E0000E14386
:1035A0000000EB43A0050020000020408FC2753EC4
:1035B0009C0500200000C0400000824298050020C9
:1035C000CDCC904114AE3740000016440000E144D9
:1035D000940500201F850B40AE47613E90050020FA
:1035E000FBB1104A1A60104E3468104B6360104BE8
:1035F000A360104BE3600025256165610E4BA3615C
:103600000E4BE36101F0B0FA2062336800225A6287
:103610009A62DA621A635D639D63DD63012283F857
:10362000402070BD0000C040900500200AD7233C18
:10363000D7A3F03EBC74933C000082420000964346
:1036400098B138B5044600250561456101F08CFA52
:10365000206200236362A362E36223636563A56360
:10366000E563012384F8403038BD704710B52DED77
:10367000028B044690F84030002B40F0928008EE18
:10368000901A08EE102A01F06FFA236AC31A07EEA7
:10369000903AF8EE677A9FED597A87EE875A206262
:1036A00084ED035A78EEC87A94ED007A27EE277AF3
:1036B00094ED046A65EE276A36EE266A84ED046AA4
:1036C000D4ED016AF5EE406AF1EE10FA1CD0D4EDAB
:1036D000065AC5EEA64AB4EEE46AF1EE10FA69DDC8
:1036E000C4ED044AF4EEC75AF1EE10FA6CD5F5EECB
:1036F000C07AF1EE10FA67DD94ED046ADFED405A0E
:1037000026EE256A84ED046A94ED046A26EE866A44
:10371000B5EEC05AF1EE10FA63DDD4ED055A77EE3E
:10372000E55AC5EE856ADFED375A66EEA56AD4ED37
:103730000E5ADFED354A65EEA45A76EEA56AC4ED61
:103740000E6AD4ED025A65EEA66A37EE067A37EEB7
:10375000267AD4ED066AF4EEC76AF1EE10FA08D4C0
:10376000F1EE666AF4EEC76AF1EE10FA01DCF0EEF3
:10377000476A94ED077A94ED0D6A76EEC65A25EE07
:10378000077AB4EEE57AF1EE10FA2DD576EE076AF7
:10379000C4ED0D6AC4ED057A16EE900ABDEC028BFD
:1037A00010BD002380F8403001F0DEF92062DFED2B
:1037B000176AF1E7F1EE644AB4EEE46AF1EE10FA4A
:1037C00090D5C4ED044A8DE7F1EE655AF4EEC75A80
:1037D000F1EE10FA98DDF5EEC07AF1EE10FA93D51D
:1037E0008AE7DFED0A6A9EE7B1EE475AF4EEC55A62
:1037F000F1EE10FACCD576EE476AC9E700007A44BC
:103800006666663FCDCC4C3FCDCC4C3E0000000000
:1038100010B52DED028B044690F84030002B40F09F
:10382000928008EE901A08EE102A01F09DF9236AA2
:10383000C31A07EE903AF8EE677A9FED597A87EE51
:10384000875A206284ED035A78EEC87A94ED007AA4
:1038500027EE277A94ED046A65EE276A36EE266A2B
:1038600084ED046AD4ED016AF5EE406AF1EE10FAD7
:103870001CD0D4ED065AC5EEA64AB4EEE46AF1EEC9
:1038800010FA69DDC4ED044AF4EEC75AF1EE10FAFD
:103890006CD5F5EEC07AF1EE10FA67DD94ED046AAE
:1038A000DFED405A26EE256A84ED046A94ED046A41
:1038B00026EE866AB5EEC05AF1EE10FA63DDD4ED5D
:1038C000055A77EEE55AC5EE856ADFED375A66EEA2
:1038D000A56AD4ED0E5ADFED354A65EEA45A76EEB0
:1038E000A56AC4ED0E6AD4ED025A65EEA66A37EEFB
:1038F000067A37EE267AD4ED066AF4EEC76AF1EE60
:1039000010FA08D4F1EE666AF4EEC76AF1EE10FA26
:1039100001DCF0EE476A94ED077A94ED0D6A76EEDD
:10392000C65A25EE077AB4EEE57AF1EE10FA2DD5F7
:1039300076EE076AC4ED0D6AC4ED057A16EE900ABC
:10394000BDEC028B10BD002380F8403001F00CF973
:103950002062DFED176AF1E7F1EE644AB4EEE46A43
:10396000F1EE10FA90D5C4ED044A8DE7F1EE655AF8
:10397000F4EEC75AF1EE10FA98DDF5EEC07AF1EEEA
:1039800010FA93D58AE7DFED0A6A9EE7B1EE475A4F
:10399000F4EEC55AF1EE10FACCD576EE476AC9E7D7
:1039A00000007A446666663FCDCC4C3FCDCC4C3EA1
:1039B0000000000008B50C480C4B0360092343606D
:1039C00000238360C3604FF40032026143610376D9
:1039D00043768376C3760377437701F0CBF800B95B
:1039E00008BD00F0FDFBFBE7FC0500200064004083
:1039F00008B50C480C4B0360092343600023836027
:103A0000C3604FF4003202614361037643768376EC
:103A1000C3760377437701F0ADF800B908BD00F035
:103A2000DFFBFBE7D40500200068004010B58AB03A
:103A300000230593069307930893099303683E4A6E
:103A4000934204D03D4A934234D00AB010BD3C4A60
:103A5000136801331360012B1FD000240194394BEC
:103A60001A6B42F008021A631B6B03F00803019300
:103A7000019B0323059302220692089309230993CD
:103A800005A9314801F0D8FE22460521142001F095
:103A9000B7FC142001F0C4FCD7E700230093294BA6
:103AA0001A6C42F000721A641B6C03F000730093EE
:103AB000009BD2E700230293224B1A6C42F08062F3
:103AC0001A641B6C03F080630293029B1C4A136808
:103AD00001331360012B21D000240494194B1A6B7D
:103AE00042F002021A631B6B03F002030493049B6F
:103AF0004FF44053059302230693032308930923AD
:103B0000099305A9114801F097FE2246052140209E
:103B100001F076FC402001F083FC96E7002303933C
:103B2000084B1A6C42F000721A641B6C03F00073AD
:103B30000393039BD0E700BF00640040006800408F
:103B4000D005002000380240000C02400004024072
:103B500030B595B000240F941094012511950A9466
:103B60000B940C940D940E9412950AA9094801F037
:103B7000A7F80E23059306940795009401940294E8
:103B80000394049408956946034801F099F815B028
:103B900030BD00BFFC050020D405002010B582B068
:103BA000002400941A4B1A6B42F480021A631A6BB9
:103BB00002F480020092009A01941A6B42F40012FF
:103BC0001A631B6B03F400130193019B224605212A
:103BD0000C2001F015FC0C2001F022FC22460621ED
:103BE0000E2001F00DFC0E2001F01AFC22460521EA
:103BF000112001F005FC112001F012FC22460721E2
:103C0000392001F0FDFB392001F00AFC02B010BDA3
:103C10000038024008B512E02448C3688268416851
:103C20000068FDF7AFFB214B00229A740122DA7481
:103C30001F4B186803F0FBFA0A2003F091FA1B4BA4
:103C40009B7C002BF8D0194BDB7C002BF4D1174B5D
:103C50005B7C042BE7D801A252F823F0193C000842
:103C6000713C00087D3C00088D3C00089D3C00082C
:103C70000E4BD968187CFDF7AFFDD4E70B48C3683D
:103C8000826841680068FDF7CBFFCCE70748C3684E
:103C9000826841680068FEF775F8C4E70348C368A6
:103CA000826841680068FEF70BF9BCE73406002023
:103CB0002806002008B5FFF78FF8FDF717F800F089
:103CC0006DFD3C2003F04CFA00F068FD4FF4FA6003
:103CD00003F046FA00F030FB00F034FB4FF47A704A
:103CE00003F03EFAFAE7000008B50E4A0121084643
:103CF00003F044FA0C4B18600C4A0121084603F00B
:103D00003DFA0B4B18600B4A00210B4803F0CEF92B
:103D10000A4B18600A4A00210A4803F0C7F90A4B07
:103D2000186008BD9CD20008280600208CD200082C
:103D300024060020D0D20008153C000830060020E0
:103D4000ACD20008B53C00082C0600202DE9F04359
:103D50008DB007AD00240794089409940A940B943D
:103D60000094424B1A6B42F010021A631A6B02F075
:103D700010020092009A01941A6B42F040021A63FA
:103D80001A6B02F040020192019A02941A6B42F0FF
:103D900001021A631A6B02F001020292029A039462
:103DA0001A6B42F008021A631A6B02F008020392BF
:103DB000039A04941A6B42F020021A631A6B02F001
:103DC00020020492049A05941A6B42F080021A634E
:103DD0001A6B02F080020592059A06941A6B42F063
:103DE00002021A631B6B03F002030693069B204F2B
:103DF00022460121384601F023FEDFF87890224662
:103E00004FF4E041484601F01BFEDFF86C800122D0
:103E10004FF40061404601F013FE01224FF480414F
:103E2000384601F00DFE44F201030793012608967F
:103E300009940A942946384601F0FEFC4FF4E04309
:103E40000793089609940A942946484601F0F4FC21
:103E50004FF400630793089609940A942946404654
:103E600001F0EAFC0DB0BDE8F08300BF003802406D
:103E700000140240000C02400010024010B58AB04D
:103E8000044601AB03AA002101F059F830B92368B8
:103E90000B4A934204D00B4A934209D00AB010BD9A
:103EA000059B042BFAD101A90498FEF7C1FDF5E7A3
:103EB000059B042BF2D101A90498FEF7B9FDEDE7AB
:103EC000006400400068004030B585B0844B9842E3
:103ED0000DD0844B984200F0DE80834B984200F076
:103EE000DE80824B984200F0ED8005B030BD00F0DE
:103EF0003BFE7F4B18607F4D7F4CAC46BCE80F000B
:103F00000FC4BCE80F000FC49CE8070084E807005A
:103F10002C220021284607F085FB002390E0591C45
:103F20007548415C532940F09280D91D415C0902DB
:103F300009B29C1D005D014307EE901AF8EEE77A86
:103F40009FED6E7A67EEC77A9FED6D7A67EE877A9E
:103F50006C49C1ED007A6C49D1ED007AF4EEC77A74
:103F6000F1EE10FA45D59FED697AF4EEC77AF1EEDD
:103F700010FA3EDD6349D1ED006A9FED657AF4EEFB
:103F8000C76AF1EE10FA34D5D1ED006A9FED617A7F
:103F9000F4EEC76AF1EE10FA2BDD5F4801680131DB
:103FA0000160584991ED007ADFED557AB4EE677AF9
:103FB000F1EE10FA4BD091ED007ADFED567AB4EEC7
:103FC000677AF1EE10FA42D05349D1ED007AF8EE5B
:103FD000E77A9FED527A67EE877A4A4991ED007A47
:103FE00077EE877A4E48C0ED007A08684649086047
:103FF0002DE09FED477AF4EEC77AF1EE10FAD0D5B6
:104000009FED447AF4EEC77AF1EE10FAC9DD3D492E
:1040100091ED007ADFED3D7AB4EEE77AF1EE10FA39
:10402000BFDD91ED007ADFED367AB4EEE77AF1EE9E
:1040300010FAB6D53848016801390160B1E701339B
:10404000242B22DC2C4AD25C552A3FF468AF552A37
:10405000F5D15A1C28498A5C522AF0D1DA1D8A5CB3
:10406000120212B2981D095C0A4307EE902AF8EE7C
:10407000E77A9FED227A67EEC77A9FED2A7A67EE9C
:10408000877A294AC2ED007AD9E72C2219491448C7
:1040900002F0C0FF29E7254B01221A7025E7244CC6
:1040A00001AB94E8070003C31A7001A8FEF730FAC9
:1040B0000023236063602372092221460A4802F02C
:1040C000A9FF12E71B4C08212046FEF741F8002308
:1040D0002360636008222146044802F09BFF04E746
:1040E00030090020080A0020C009002078090020BB
:1040F00054060020A40600207806002000000038A6
:104100000000344360060020500600200000B44246
:104110000000B4C2000034C34C0600200000B443C9
:104120005C0600200000FA4458060020D00600205B
:10413000640600207006002008B50368244A9342F4
:1041400003D0244A934203D008BD00F001FDFBE7F1
:10415000214B1B784BB1012BF6D1FEF797F8FDF7F9
:104160004DFF1D4B00221A70EEE7FEF771F8FDF7C8
:1041700039FFFEF777F90120FEF70CFF174BD989BD
:1041800040F23A73994218D1144B1B8A40F23A72AA
:10419000934212D9B3F5F56F08D9FA2340F63C7271
:1041A00040F29E710120FEF783FE0DE0C823DC2261
:1041B00009B20120FEF77CFE06E0C82340F6485213
:1041C00009B20120FEF774FE034B01221A70BBE70F
:1041D00000140040000C004048060020940200201B
:1041E00072B6FEE710B594B008AC3022002120462C
:1041F00007F018FA0023039304930593069307939B
:104200000193234A116C41F080511164126C02F049
:1042100080520192019A02931E4B1A6842F4404266
:104220001A601B6803F440430293029B0123089326
:104230004FF48033099302230E934FF480020F92C0
:1042400006221092B4221192129304231393204653
:1042500001F03AFCA8B901F0F9FBA0B90F230393D0
:1042600002230493002305934FF4A05306934FF4C5
:1042700080530793052103A801F076FE28B914B0F6
:1042800010BDFFF7ADFFFFF7ABFFFFF7A9FF00BFC2
:10429000003802400070004008B500F03FFCFFF716
:1042A000A1FFFFF753FDFFF779FC00F09FFA00F044
:1042B000B7FA00F0E9FAFFF77DFB00F017FA00F01B
:1042C00079F9FFF795FB00F0C5FA154D082229464C
:1042D000144802F09FFE144C09222146134802F0B4
:1042E00099FE00232B606B60236063602372FFF7ED
:1042F0002FFC0F4C204600F07FFD0221204600F0ED
:10430000D3FE0C4C204600F077FD0221204600F041
:10431000CBFE02F09DFEFFF7E7FC02F0ABFEFEE7EE
:10432000700600207809002064060020C0090020E3
:10433000FC050020D405002008B5FEF715FDFEF7AA
:1043400065FD08BD08B50F4807F08EF8FFF7F4FFCC
:10435000FEF7B2F84FF4FA6002F002FF0120FCF71A
:10436000D3FC03210220FCF7DDFC4FF4FA7002F0CD
:10437000F7FEFEF7A1F80448FDF70EFEFEF74FF832
:1043800008BD00BF68D200080080A34300B583B019
:10439000002200920D4B596C41F480415964596CD4
:1043A00001F48041009100990192196C41F0805113
:1043B00019641B6C03F080530193019B0F216FF074
:1043C000010001F01DF803B05DF804FB0038024065
:1043D00030B589B0044600230193214B1A6C42F09A
:1043E00020021A641B6C03F020030193019B02A9B5
:1043F00003A801F08FFE069BCBB901F06BFE0346CC
:10440000184AA2FB03239B0C013B1748174A026082
:1044100040F2E732C260436000230361836083613E
:1044200002F0D8F8054630B1284609B030BD01F099
:1044300051FE4300E4E70C4801F052FF0546002816
:10444000F2D1372000F0ECFF0F2C01D90125EBE76A
:1044500000222146372000F0D3FF054B1C60E3E724
:104460000038024083DE1B43D406002000140040C5
:1044700010000020FEE7FEE7FEE7FEE7FEE77047DC
:1044800008B5024801F0EAF808BD00BF1008002096
:1044900008B5024801F0E2F808BD00BFD0080020CE
:1044A00008B5024801F0DAF808BD00BF7008002026
:1044B00008B5024800F016FE08BD00BFFC0500204C
:1044C00008B5024801F06BFF08BD00BF6807002077
:1044D00008B5024801F063FF08BD00BFD406002004
:1044E00008B5024801F0BAF808BD00BFB0070020C7
:1044F00008B5024800F0F6FD08BD00BFD405002055
:104500000120704708B507F0EFF8162303604FF05D
:10451000FF3008BD08B54FF0FF31FFF7F3FFFEE7AE
:1045200070B50C461646002506E0AFF30080214624
:1045300001F8010B01350C46B542F6DB304670BD83
:104540004FF0FF3070474FF400534B60002070472E
:10455000012070470020704710B503460C4A0D49F2
:104560000D48006840B10C4800680344521A934259
:1045700006D8094A136010BD0748084C0460F2E7EA
:1045800007F0B2F80C2303604FF0FF30F3E700BFF1
:1045900000000320000400001C070020F05400204D
:1045A000034AD2F8883043F47003C2F88830704769
:1045B00000ED00E000B587B000230293039304935D
:1045C0000593009301931548154A026059224260F1
:1045D000836040F6C312C2600361836101F0FAFF99
:1045E00090B94FF48053029302A90C4802F0FDF8F1
:1045F00068B90023009301936946084802F048FA1D
:1046000040B907B05DF804FBFFF7EAFDE9E7FFF703
:10461000E7FDEEE7FFF7E4FDF3E700BF68070020E2
:10462000000C004002680E4B9A4200D0704700B563
:1046300083B00022019203F50B33196C41F008019D
:1046400019641B6C03F008030193019B06213220BF
:1046500000F0D6FE322000F0E3FE03B05DF804FB6C
:10466000000C00400268094B9A4200D0704782B0AB
:1046700000230193064B1A6C42F040021A641B6C33
:1046800003F040030193019B02B070470018004003
:104690000038024000B587B00023019302930393D2
:1046A0000493059302680E4B9A4202D007B05DF85E
:1046B00004FB002300930B4B1A6B42F080021A6339
:1046C0001B6B03F080030093009B402301930223A4
:1046D00002930923059301A9034801F0ADF8E5E72A
:1046E0000018004000380240001C024000B589B0AC
:1046F0000023019302930393049305930693079376
:104700001148124A02604360836048F23422C2605A
:104710000361836101F08AFF80B960230193002265
:1047200002920392059201A9074801F0E3FF40B904
:104730000548FFF7AFFF09B05DF804FBFFF750FD38
:10474000EBE7FFF74DFDF3E72007002000180040DE
:10475000642800D96420054BDA6802FB0000044A93
:10476000A2FB002040091B68586370472007002007
:104770001F85EB5108B53220FFF7EAFF0021024800
:1047800002F0C2F808BD00BF2007002008B50021D4
:10479000014802F037F908BD2007002008B5FFF7EF
:1047A000E9FF282002F0DCFCFFF7F0FF08BD000065
:1047B00000B583B001904FF6FF73012201A90348B1
:1047C00002F0E7FA019803B05DF804FB080A002044
:1047D00070B50C461646002504E014F8010BFFF7EF
:1047E000E7FF0135B542F8DB304670BD08B50A4831
:1047F0000A4B03604FF4E133436000238360C360DE
:1048000003610C2242618361C36102F092FA00B934
:1048100008BDFFF7E5FCFBE7080A00200078004030
:1048200008B50A480A4B03604FF4E13343600023A4
:104830008360C36003610C2242618361C36102F043
:1048400078FA00B908BDFFF7CBFCFBE7C0090020F0
:10485000007C004008B50A480A4B03604FF4E1337E
:10486000436000238360C36003610C224261836163
:10487000C36102F05EFA00B908BDFFF7B1FCFBE7C7
:10488000780900200048004008B50A480A4B036038
:104890004FF4E133436000238360C36003610C2263
:1048A00042618361C36102F044FA00B908BDFFF7B9
:1048B00097FCFBE7300900200014014030B58FB0B1
:1048C0000446002309930A930B930C930D930368FA
:1048D000824A93420BD0824A934245D0814A934206
:1048E0007DD0814A934200F0B9800FB030BD0025E1
:1048F00001957E4B1A6C42F080421A641A6C02F0E9
:1049000080420192019A02951A6B42F010021A63DA
:104910001B6B03F010030293029B4FF4C0730993C7
:1049200002230A9303230C9308230D9309A97048CB
:1049300000F082FF6F48704B03604FF020634360CC
:104940008560C5604FF48063036145618561C56121
:104950000562456200F0E8FD18B9664BE3639C63AD
:10496000C3E7FFF73DFCF8E7002503955F4B1A6CA2
:1049700042F000421A641A6C02F000420392039A59
:1049800004951A6B42F010021A631B6B03F01003BC
:104990000493049B0323099302220A920C93082395
:1049A0000D9309A9524800F047FF5448544B036047
:1049B0004FF0206343608560C5604FF480630361FE
:1049C00045618561C5610562456200F0ADFD18B9BC
:1049D0004A4BE3639C6388E7FFF702FCF8E7002596
:1049E0000595424B1A6C42F480221A641A6C02F448
:1049F00080220592059A06951A6B42F008021A6306
:104A00001B6B03F008030693069B4FF44073099356
:104A100002230A9303230C9307230D9309A9394812
:104A200000F00AFF3848394B03604FF000634360E1
:104A30008560C5604FF48063036145618561C56130
:104A40004FF400330362456200F06EFD18B92E4B3F
:104A5000E3639C6349E7FFF7C3FBF8E7002507958D
:104A6000224B5A6C42F020025A645A6C02F0200227
:104A70000792079A08951A6B42F040021A631B6B63
:104A800003F040030893089B4FF4844309930223E7
:104A90000A9303230C9308230D9309A91C4800F0E3
:104AA000CBFE1C481C4B03604FF0206343608560C5
:104AB000C5604FF48063036145618561C5614FF452
:104AC00080330362456200F02FFD18B9114BE36398
:104AD0009C630AE7FFF784FBF8E700BF007800401B
:104AE000007C0040004800400014014000380240B3
:104AF00000100240D00800205860024070080020DA
:104B0000A0600240000C0240100800202860024013
:104B100000180240B00700202864024008B50B4B83
:104B20001A6842F400721A601A6842F480621A60CD
:104B30001A6842F480721A60032000F04FFC0F20C4
:104B4000FFF746FCFFF722FC002008BD003C0240B6
:104B5000034A1168034B1B780B441360704700BF76
:104B6000500A00200C000020014B1868704700BF5D
:104B7000500A0020002800F0A18038B5044690F8C3
:104B80002030D3B12268136843F001031360FFF7AC
:104B9000EBFF054623685A6812F0010F10D1FFF7AA
:104BA000E3FF401B0A28F5D9636A43F400336362CC
:104BB000052384F82030012038BDFEF737FFE1E7F8
:104BC0001A6822F002021A60FFF7CEFF054623683A
:104BD0005A6812F0020F0DD0FFF7C6FF401B0A28DB
:104BE000F5D9636A43F400336362052384F8203007
:104BF0000120E1E7227E012A3DD01A6822F08002DE
:104C00001A60637E012B3BD02268136823F04003B7
:104C10001360A37E012B39D02268136823F0200390
:104C20001360E37E012B37D02268136843F0100332
:104C30001360237F012B35D02268136823F008030B
:104C40001360637F012B33D02268136823F00403C1
:104C50001360A368E2681343226913436269134334
:104C60006268013A21681343CB610020606201232E
:104C700084F82030A0E71A6842F080021A60C0E78A
:104C80002268136843F040031360C2E72268136888
:104C900043F020031360C4E72268136823F0100375
:104CA0001360C6E72268136843F008031360C8E77F
:104CB0002268136843F004031360CAE701207047B9
:104CC00090F82030013BDBB2012B05D9436A43F455
:104CD000802343620120704730B5464BD3F8002251
:104CE00042F00102C3F80022D3F8002222F47C52E1
:104CF000C3F80022D3F80022486A42EA0022C3F82F
:104D000000224A6902F01F02012000FA02F2D3F8E1
:104D10001C026FEA020C20EA0200C3F81C02CB69F5
:104D2000C3B9344BD3F80C020CEA0000C3F80C02F0
:104D30008C884869CD6844EA0544483043F83040DF
:104D40008C68088840EA04404C6904F1480E03EB83
:104D5000CE035860CB69012B1ED08B69002B33D159
:104D60002448D0F804320CEA0303C0F804320B697B
:104D70008BBB2048D0F814320CEA0303C0F814327D
:104D80000B6A012B2ED01B4AD2F8003223F001030C
:104D9000C2F80032002030BD164BD3F80C0210438D
:104DA000C3F80C028C8848690D6844EA0544483011
:104DB00043F8304088894C698D6840EA05404834A2
:104DC00003EBC4035860C8E70A48D0F80432134321
:104DD000C0F80432CBE70748D0F814321343C0F8C8
:104DE0001432CDE70349D1F81C321343C1F81C3209
:104DF000C9E700BF0064004070B5044690F8203059
:104E0000012B06D0436A43F4002343620126304657
:104E100070BDDEB2022380F820300268136823F0F0
:104E200001031360FFF7A0FE054623685B6813F0DB
:104E3000010F0CD0FFF798FE431B0A2BF5D9636ACC
:104E400043F400336362052384F82030DFE7002653
:104E50006662DCE730B590F820C00468A4680CF105
:104E6000FF3C5FFA8CFCBCF1010F62D814F0E05FEC
:104E700059D0C4F3016C012404FA0CF41C608B6853
:104E8000002B3DD10D68CB68046843EA45550CF111
:104E900018031B01E55003680C690CF1180E03EBB5
:104EA0000E135C600B7D012B35D0D17993791B04F7
:104EB00043EA0163517943EA0123147901682343EA
:104EC00001EB0C11C1F88C31D17893781B0443EAC3
:104ED0000163517843EA0123117802680B4302EB26
:104EE0000C12C2F8883102680CF1180C4FEA0C1C45
:104EF00052F80C3043F0010342F80C3000201DE062
:104F00004C6843EAC403CC6823430CF11804240121
:104F100005682B51BFE7036803EB0E13596841F492
:104F200080715960C1E7436A43F400134362012072
:104F300004E0436A43F480234362012030BD90F8CB
:104F400020C00CF1FF3C5FFA8CFCBCF1010F00F2B9
:104F5000A58030B451B90468E46814F0030F10D18F
:104F6000436A43F40013436201207EE0046824692D
:104F700014F0030F05D1436A43F400134362012088
:104F800073E0056801F11B0424012C5904F00404AA
:104F90009460002C6BD1056801F11B0424012C598D
:104FA000640D1460046801F11B0C4FEA0C1C54F8EA
:104FB0000C4004F00204D4600468A444DCF80450FB
:104FC00015F0080F5BD008241461046801F11B0C74
:104FD00004EB0C146468C4F307249461046804EBC4
:104FE0000C146468240C5461026802EB0112D2F8BC
:104FF000B8211A70026802EB0112D2F8B821C2F38C
:1050000007225A70026802EB0112D2F8B821C2F3EB
:1050100007429A70026802EB0112D2F8B821120E10
:10502000DA70026802EB0112D2F8BC211A71026830
:1050300002EB0112D2F8BC21C2F307225A710268B6
:1050400002EB0112D2F8BC21C2F307429A71026846
:1050500002EB0112D2F8BC21120EDA71C1B902685A
:10506000D36843F02003D360002030BC704705684C
:1050700001F11B0424012C59E408546092E701F16A
:105080001B0504EB0514646804F00F0414619CE72D
:105090000268136943F020031361E5E7436A43F4B0
:1050A000802343620120704790F82030013BDBB23F
:1050B000012B05D9436A43F48023436201207047E2
:1050C000026853690B435361002070477047704773
:1050D0007047704770477047704770477047704718
:1050E000704770472DE9F84F054603685C69D3F8AF
:1050F00004809F68D3F80CA0D3F81090D3F818B0B0
:1051000014F001063BD017F0010616D001229A6078
:1051100017F0020F08D117F0040F0CD117F0080692
:1051200006D04FF4805608E0FFF7D0FF002604E0D9
:10513000FFF7CFFF01E04FF4006617F4807F0DD03A
:105140002B684FF480729A6017F4007F40F09680CD
:1051500017F4806F00F0968046F4005617F4803FF5
:105160000DD02B684FF480329A6017F4003F40F066
:10517000938017F4802F00F0938046F4004614F0DB
:10518000080F07D01AF0100F04D046F400762B68F1
:105190001022DA6014F0040F03D01AF0080F40F068
:1051A000898014F0020F05D02B68DB6813F0030F21
:1051B00040F0878014F0400F07D019F0100F04D092
:1051C00046F480662B6810221A6114F0200F02D07A
:1051D00019F0080F79D114F0100F04D02B681B6957
:1051E00013F0030F78D114F4003F02D018F0100F21
:1051F00076D114F4803F02D018F0080F77D114F460
:10520000004F37D018F0040F31D014F4807F04D051
:105210001BF0010F01D046F0010614F4007F04D00A
:105220001BF0020F01D046F0020614F4806F04D088
:105230001BF0040F01D046F0040614F4006F16D0E2
:105240001BF0700B13D0BBF1400F66D056D8BBF1EA
:10525000200F5CD0BBF1300F5CD0BBF1100F01D13F
:1052600046F008062A68936923F0700393612B685F
:1052700004225A60002E56D1BDE8F88F2846FFF769
:1052800026FF6BE717F4006F02D046F4804665E70F
:105290002846FFF71FFF61E72846FFF719FF6EE773
:1052A00017F4002F02D046F4803668E72846FFF74F
:1052B00012FF64E72B680822DA602846FFF70CFF2C
:1052C0006FE72846FEF7DAFD74E72B6808221A61BB
:1052D0002846FFF703FF7EE72846FFF7FEFE82E73A
:1052E0002B6810225A602846FFF7F9FE81E72B68E9
:1052F00008225A602846FFF7F3FE80E7BBF1500F03
:105300000ED0BBF1600FADD146F48076AAE746F02F
:105310001006A7E746F02006A4E746F04006A1E7FE
:1053200046F080069EE76B6A33436B622846FFF7C0
:10533000D8FEA1E7002807DB00F01F024009012387
:105340009340024A42F82030704700BF00E100E07D
:1053500000280CDB00F01F0240090123934020309D
:10536000034A42F82030BFF34F8FBFF36F8F70476F
:1053700000E100E0002808DB0901C9B200F160404B
:1053800000F5614080F80013704700F00F0009013C
:10539000C9B2014B1954704714ED00E000B500F09C
:1053A0000700C0F1070CBCF1040F28BF4FF0040C3C
:1053B000031D062B0FD9C31E4FF0FF3E0EFA0CF053
:1053C00021EA000199400EFA03FE22EA0E0241EAA8
:1053D00002005DF804FB0023EEE70000074AD368F3
:1053E00023F4E0631B041B0C000200F4E0600343A1
:1053F00043F0BF6343F40033D360704700ED00E037
:1054000010B50446054BD868C0F30220FFF7C6FF6D
:1054100001462046FFF7AEFF10BD00BF00ED00E0E3
:1054200008B5FFF787FF08BD08B5FFF791FF08BD76
:1054300030B405682C6824F480242C600468636010
:105440008368402B05D0036899600368DA6030BC3C
:10545000704703689A600368D960F8E710B403687E
:10546000D9B210390A4AA2FB01421209094CA25CC6
:10547000C2655F2907D96FF3090304338365806D23
:105480005DF8044B70476FF309038365F7E700BFCE
:10549000ABAAAAAA0CD30008836A826992B9012B2D
:1054A0000AD0022B02D00BB100207047C36A13F060
:1054B000807F28D100207047C36AB3F1C07F24D019
:1054C00000207047B2F5005F09D0022B25D9032BCD
:1054D00025D1C36A13F0807F23D100207047032BAE
:1054E00003D8DFE803F01404140A00207047C36AED
:1054F00013F0807F0DD100207047C36AB3F1C07FE5
:1055000009D000207047012070470120704701201A
:10551000704701207047012070470120704700202C
:10552000704701207047000070B50446FFF71CFB70
:10553000002C5BD00546022384F83530002384F824
:1055400034302268136823F00103136023681A685B
:1055500012F0010F0AD0FFF707FB431B052BF5D90B
:1055600020236365032084F8350070BD1A68204944
:1055700011406268A0680243E06802432069024368
:1055800060690243A0690243E0690243206A024362
:105590000A43616A04291ED01A602668756925F0DD
:1055A0000705636A1D43042B07D1A36A1D43E36A01
:1055B0001BB12046FFF770FF90B975612046FFF7D9
:1055C0004DFFE26D3F23934083600020606501231F
:1055D00084F83530C9E7E16A206B01430A43DBE711
:1055E00040236365012084F83500BEE70120BCE755
:1055F0003F8010F038B50446856D90F834000128DE
:105600002AD0012084F8340094F83500012804D011
:10561000002384F83430022038BD022084F835009D
:10562000002060652046FFF703FFE26D3F239340B3
:10563000AB602268136843F016031360236C23B138
:105640002268136843F0080313602268136843F06C
:10565000010313600020DFE70220DDE7F0B583B02F
:10566000044600230193724B1D68724BA3FB053562
:10567000AD0A876D3E68C26D08239340334210D057
:1056800003681A6812F0040F0BD01A6822F00402A3
:105690001A60C26D08239340BB60436D43F0010361
:1056A0004365E26D01239340334209D02268526979
:1056B00012F0800F04D0BB60636D43F0020363659A
:1056C000E26D04239340334209D02268126812F03D
:1056D000020F04D0BB60636D43F004036365E26DA9
:1056E00010239340334224D02268126812F0080F2E
:1056F0001FD0BB6023681A6812F4802F0DD01B687E
:1057000013F4002F04D1236C9BB12046984710E07E
:10571000A36C73B1204698470BE01A6812F4807F9F
:1057200003D11A6822F008021A60236C0BB12046DC
:105730009847E26D20239340334254D02268126888
:1057400012F0100F4FD0BB6094F83530052B0ED0FF
:1057500023681A6812F4802F33D01B6813F4002FCB
:105760002AD1636C002B3ED0204698473BE022684C
:10577000136823F0160313602268536923F0800333
:105780005361236CA3B12268136823F008031360EC
:10579000E26D3F239340BB60012384F83530002342
:1057A00084F83430236D002B3FD0204698473CE0EE
:1057B000A36C002BE7D1EBE7E36BA3B1204698473E
:1057C00011E01A6812F4807F09D11A6822F01002E1
:1057D0001A60012384F83530002384F83430E36BF9
:1057E0000BB120469847636DFBB1636D13F0010F59
:1057F00017D0052384F835302268136823F001039D
:105800001360019B01330193AB4204D823681B68EA
:1058100013F0010FF5D1012384F83530002384F80B
:105820003430E36C0BB12046984703B0F0BD00BFA5
:1058300008000020B5814E1B00230F2B00F2F680DC
:1058400070B582B066E085684FEA430E032404FA1F
:105850000EF425EA0405CC6804FA0EF42C438460A7
:10586000446824EA02044A68C2F300129A402243C0
:1058700042605DE0DC08083450F8242003F007059E
:10588000AD004FF00F0E0EFA05FE22EA0E0E0A6969
:10589000AA4042EA0E0240F824205DE0092200E01E
:1058A000002202FA0EF22A430234614D45F8242008
:1058B000604A94686FEA0C0224EA0C054E6816F4FC
:1058C000801F01D04CEA04055A4CA560E46802EA46
:1058D00004054E6816F4001F01D04CEA0405554C2F
:1058E000E560646802EA04054E6816F4003F01D0E2
:1058F0004CEA04054F4C6560246822404D6815F45D
:10590000803F01D04CEA04024A4C226001330F2B45
:1059100000F28A8001229A400C6804EA020C32EA02
:105920000404F3D14C6804F00304013C012C8AD92F
:105930004A6802F00302032A09D0C4685D0003220A
:10594000AA4024EA02048A68AA402243C2604A6844
:1059500002F00302022A8DD004684FEA430E0322AC
:1059600002FA0EF224EA02044A6802F0030202FA82
:105970000EF2224302604A6812F4403FC6D0002271
:1059800001922D4A546C44F480445464526C02F4E5
:1059900080420192019A9C08A51C254A52F8255084
:1059A00003F0030E4FEA8E0E0F2202FA0EF225EAE2
:1059B0000205224A90423FF473AF02F580629042A2
:1059C00022D002F58062904220D002F5806290429F
:1059D0001ED002F5806290421CD002F58062904297
:1059E0001AD002F58062904218D002F5806290428F
:1059F00016D002F58062904214D002F58062904287
:105A00003FF44CAF0A224CE701224AE7022248E762
:105A1000032246E7042244E7052242E7062240E744
:105A200007223EE708223CE702B070BD704700BF86
:105A300000380140003C01400038024000000240B4
:105A40000AB18161704709048161704710B582B065
:105A500000230193194B1A6C42F080521A641B6C9C
:105A600003F080530193019B154B01221A64FFF749
:105A70007BF80446134B5B6813F4803F08D1FFF7B3
:105A800073F8001BB0F57A7FF4D9032002B010BD83
:105A90000B4B01225A64FFF767F80446094B5B6819
:105AA00013F4003F07D1FFF75FF8001BB0F57A7FD2
:105AB000F4D90320EAE70020E8E700BF00380240FD
:105AC00000000E4200700040002800F0E08170B538
:105AD00082B00446036813F0010F3BD09F4B9B68D4
