:020000040800F2
:1000000000000320D9860008BD3B0008BF3B000864
:10001000C13B0008C33B0008C53B000800000000CE
:10002000000000000000000000000000116B00084C
:10003000C73B000800000000B16B000851670008D2
:1000400029870008298700082987000829870008D0
:1000500029870008298700082987000829870008C0
:1000600029870008298700082987000829870008B0
:10007000C93B000829870008D93B000829870008E8
:1000800029870008E93B000829870008298700081C
:10009000F93B0008298700082987000829870008FC
:1000A0002987000829870008298700082987000870
:1000B0002987000829870008298700082987000860
:1000C0002987000829870008298700082987000850
:1000D0002987000829870008298700082987000840
:1000E0002987000829870008298700082987000830
:1000F0002987000829870008298700082987000820
:100100002987000829870008093C0008298700087A
:10011000298700082987000829870008193C00085A
:1001200029870008293C000829870008298700083A
:1001300029870008298700082987000829870008DF
:10014000393C00082987000829870008298700080A
:1001500029870008298700082987000829870008BF
:1001600029870008298700082987000829870008AF
:100170002987000829870008298700080000000057
:10018000298700082987000829870008298700088F
:10019000298700082987000829870008298700087F
:0C01A0000000000000000000298700089B
:1001B00081F0004102E000BF83F0004330B54FEA18
:1001C00041044FEA430594EA050F08BF90EA020F85
:1001D0001FBF54EA000C55EA020C7FEA645C7FEA18
:1001E000655C00F0E2804FEA5454D4EB5555B8BF3B
:1001F0006D420CDD2C4480EA020281EA030382EAAC
:10020000000083EA010180EA020281EA0303362D3D
:1002100088BF30BD11F0004F4FEA01314FF4801C10
:100220004CEA113102D0404261EB410113F0004F22
:100230004FEA03334CEA133302D0524263EB4303D9
:1002400094EA050F00F0A780A4F10104D5F1200E77
:100250000DDB02FA0EFC22FA05F2801841F10001D2
:1002600003FA0EF2801843FA05F359410EE0A5F1A6
:1002700020050EF1200E012A03FA0EFC28BF4CF0D7
:10028000020C43FA05F3C01851EBE37101F000458D
:1002900007D54FF0000EDCF1000C7EEB00006EEB9A
:1002A0000101B1F5801F1BD3B1F5001F0CD3490824
:1002B0005FEA30004FEA3C0C04F101044FEA44527B
:1002C00012F5800F80F09A80BCF1004F08BF5FEA02
:1002D000500C50F1000041EB045141EA050130BDE2
:1002E0005FEA4C0C404141EB0101013C28BFB1F5F4
:1002F000801FE9D291F0000F04BF01460020B1FA3F
:1003000081F308BF2033A3F10B03B3F120020CDA11
:100310000C3208DD02F1140CC2F10C0201FA0CF0EF
:1003200021FA02F10CE002F11402D8BFC2F1200C54
:1003300001FA02F120FA0CFCDCBF41EA0C0190400A
:10034000E41AA2BF01EB0451294330BD6FEA040453
:100350001F3C1CDA0C340EDC04F11404C4F120023E
:1003600020FA04F001FA02F340EA030021FA04F350
:1003700045EA030130BDC4F10C04C4F1200220FAA7
:1003800002F001FA04F340EA0300294630BD21FAE5
:1003900004F0294630BD94F0000F83F4801306BFAB
:1003A00081F480110134013D4EE77FEA645C18BF9F
:1003B0007FEA655C29D094EA050F08BF90EA020F36
:1003C00005D054EA000C04BF1946104630BD91EA2E
:1003D000030F1EBF0021002030BD5FEA545C05D131
:1003E0004000494128BF41F0004130BD14F5800470
:1003F0003CBF01F5801130BD01F0004545F0FE41E4
:1004000041F470014FF0000030BD7FEA645C1ABF18
:10041000194610467FEA655C1CBF0B46024650EA4F
:10042000013406BF52EA033591EA030F41F400217B
:1004300030BD00BF90F0000F04BF0021704730B501
:100440004FF4806404F132044FF000054FF00001D6
:1004500050E700BF90F0000F04BF0021704730B597
:100460004FF4806404F1320410F0004548BF40426C
:100470004FF000013EE700BF42004FEAE2014FEAC1
:1004800031014FEA02701FBF12F07F4393F07F4F9C
:1004900081F06051704732F07F4208BF704793F09F
:1004A0007F4F04BF41F40021704730B54FF46074B2
:1004B00001F0004521F000411CE700BF50EA0102B5
:1004C00008BF704730B54FF000050AE050EA01025E
:1004D00008BF704730B511F0004502D5404261EBCE
:1004E00041014FF4806404F132045FEA915C3FF40F
:1004F000D8AE4FF003025FEADC0C18BF03325FEAAC
:10050000DC0C18BF033202EBDC02C2F1200300FA5C
:1005100003FC20FA02F001FA03FE40EA0E0021FA81
:1005200002F11444BDE600BF70B54FF0FF0C4CF46F
:10053000E06C1CEA11541DBF1CEA135594EA0C0F21
:1005400095EA0C0F00F0DEF82C4481EA030621EA5C
:100550004C5123EA4C5350EA013518BF52EA033597
:1005600041F4801143F4801338D0A0FB02CE4FF049
:100570000005E1FB02E506F00042E0FB03E54FF079
:100580000006E1FB03569CF0000F18BF4EF0010E71
:10059000A4F1FF04B6F5007F64F5407404D25FEA6D
:1005A0004E0E6D4146EB060642EAC62141EA555120
:1005B0004FEAC52040EA5E504FEACE2EB4F1FD0C62
:1005C00088BFBCF5E06F1ED8BEF1004F08BF5FEAE0
:1005D000500E50F1000041EB045170BD06F0004692
:1005E00046EA010140EA020081EA0301B4EB5C043F
:1005F000C2BFD4EB0C0541EA045170BD41F4801137
:100600004FF0000E013C00F3AB8014F1360FDEBF5B
:10061000002001F0004170BDC4F10004203C35DA37
:100620000C341BDC04F11404C4F1200500FA05F3BA
:1006300020FA04F001FA05F240EA020001F000425B
:1006400021F0004110EBD37021FA04F642EB0601D1
:100650005EEA430E08BF20EAD37070BDC4F10C04FB
:10066000C4F1200500FA04F320FA05F001FA04F2BF
:1006700040EA020001F0004110EBD37041F10001AB
:100680005EEA430E08BF20EAD37070BDC4F12005B6
:1006900000FA05F24EEA020E20FA04F301FA05F21E
:1006A00043EA020321FA04F001F0004121FA04F2C6
:1006B00020EA020000EBD3705EEA430E08BF20EA96
:1006C000D37070BD94F0000F0FD101F000464000D0
:1006D00041EB010111F4801F08BF013CF7D041EA52
:1006E000060195F0000F18BF704703F00046520056
:1006F00043EB030313F4801F08BF013DF7D043EA27
:100700000603704794EA0C0F0CEA135518BF95EADC
:100710000C0F0CD050EA410618BF52EA4306D1D163
:1007200081EA030101F000414FF0000070BD50EA82
:10073000410606BF1046194652EA430619D094EA0C
:100740000C0F02D150EA013613D195EA0C0F05D1F6
:1007500052EA03361CBF104619460AD181EA03014A
:1007600001F0004141F0FE4141F470014FF0000002
:1007700070BD41F0FE4141F4780170BD70B54FF09D
:10078000FF0C4CF4E06C1CEA11541DBF1CEA13551D
:1007900094EA0C0F95EA0C0F00F0A7F8A4EB0504FF
:1007A00081EA030E52EA03354FEA013100F08880F6
:1007B0004FEA03334FF0805545EA131343EA1263BF
:1007C0004FEA022245EA111545EA10654FEA002674
:1007D0000EF000419D4208BF964244F1FD0404F52D
:1007E000407402D25B084FEA3202B61A65EB030589
:1007F0005B084FEA32024FF480104FF4002CB6EB46
:10080000020E75EB030E22BFB61A754640EA0C00C5
:100810005B084FEA3202B6EB020E75EB030E22BF05
:10082000B61A754640EA5C005B084FEA3202B6EB46
:10083000020E75EB030E22BFB61A754640EA9C0005
:100840005B084FEA3202B6EB020E75EB030E22BFD5
:10085000B61A754640EADC0055EA060E18D04FEA93
:10086000051545EA16754FEA06164FEAC30343EA33
:1008700052734FEAC2025FEA1C1CC0D111F4801F00
:100880000BD141EA00014FF000004FF0004CB6E7F9
:1008900011F4801F04BF01430020B4F1FD0C88BF98
:1008A000BCF5E06F3FF6AFAEB5EB030C04BFB6EBA3
:1008B000020C5FEA500C50F1000041EB045170BD96
:1008C0000EF0004E4EEA113114EB5C04C2BFD4EBC3
:1008D0000C0541EA045170BD41F480114FF0000E47
:1008E000013C90E645EA060E8DE60CEA135594EAC3
:1008F0000C0F08BF95EA0C0F3FF43BAF94EA0C0FC6
:100900000AD150EA01347FF434AF95EA0C0F7FF43A
:1009100025AF104619462CE795EA0C0F06D152EA8E
:1009200003353FF4FDAE1046194622E750EA410672
:1009300018BF52EA43067FF4C5AE50EA41047FF483
:100940000DAF52EA43057FF4EBAE12E74FF0FF3CE8
:1009500006E000BF4FF0010C02E000BF4FF0010CB9
:100960004DF804CD4FEA410C7FEA6C5C4FEA430C32
:1009700018BF7FEA6C5C1BD001B050EA410C0CBF81
:1009800052EA430C91EA030F02BF90EA020F0020E3
:10099000704710F1000F91EA030F58BF994208BF4A
:1009A00090422CBFD8176FEAE37040F00100704707
:1009B0004FEA410C7FEA6C5C02D150EA013C07D15E
:1009C0004FEA430C7FEA6C5CD6D152EA033CD3D0A9
:1009D0005DF8040B704700BF8446104662468C46A3
:1009E0001946634600E000BF01B5FFF7B7FF0028D6
:1009F00048BF10F1000F01BD4DF808EDFFF7F4FFFF
:100A00000CBF012000205DF808FB00BF4DF808ED89
:100A1000FFF7EAFF34BF012000205DF808FB00BFAC
:100A20004DF808EDFFF7E0FF94BF012000205DF8CE
:100A300008FB00BF4DF808EDFFF7CEFF94BF012083
:100A400000205DF808FB00BF4DF808EDFFF7C4FF7C
:100A500034BF012000205DF808FB00BF4FEA410CC5
:100A60007FEA6C5C02D150EA013C0AD14FEA430CA8
:100A70007FEA6C5C02D152EA033C02D14FF00000E5
:100A800070474FF0010070474FEA410212F5001223
:100A900015D211D56FF47873B3EB625212D94FEAC5
:100AA000C12343F0004343EA505311F0004F23FAAF
:100AB00002F018BF404270474FF00000704750EA04
:100AC000013005D111F0004008BF6FF000407047C1
:100AD0004FF00000704700BF4FEA4102B2F1E0431F
:100AE00024BFB3F5001CDCF1FE5C0DD901F0004C15
:100AF0004FEAC0024CEA5070B2F1004F40EB830065
:100B000008BF20F00100704711F0804F21D113F190
:100B10003872BCBF01F00040704741F480114FEAC9
:100B20005252C2F11802C2F1200C10FA0CF320FA52
:100B300002F018BF40F001004FEAC1234FEAD3236F
:100B400003FA0CFC40EA0C0023FA02F34FEA4303D9
:100B5000CCE77FEA625307D150EA01331EBF4FF062
:100B6000FE4040F44000704701F0004040F0FE407D
:100B700040F40000704700BF53B94AB9002908BFCC
:100B800000281CBF4FF0FF314FF0FF3000F00CB8D1
:100B9000ADF1080C6DE904CE08F046FEDDF804E086
:100BA000DDE9022304B07047704700BF0000000079
:100BB00001F0FF01102A2BDB10F0070F08D010F80E
:100BC000013B013A8B422DD010F0070F42B3F6D112
:100BD000F0B441EA012141EA014122F007047FF02B
:100BE00000070023F0E80256083C85EA010586EA82
:100BF000010685FA47F5A3FA87F586FA47F6A5FABE
:100C000087F68EB9EED1F0BC01F0FF0102F00702C9
:100C100032B110F8013B013A83EA010313B1F8D174
:100C20000020704701387047002D06BF3546033855
:100C3000073815F0010F07D1013015F4807F02BF8E
:100C4000013015F4C03F0130F0BC0138704700BFDF
:100C5000034613F8012B002AFBD1181A01387047FC
:100C60000348044B834202D0034B03B1184770473B
:100C7000E0010020E0010020000000000548064BD4
:100C80001B1AD90F01EBA301491002D0034B03B18A
:100C900018477047E0010020E0010020000000003C
:100CA00010B5064C237843B9FFF7DAFF044B13B1B4
:100CB0000448AFF300800123237010BDE001002041
:100CC0000000000034C5000808B5054B1BB10549FC
:100CD0000548AFF30080BDE80840FFF7CFBF00BF75
:100CE00000000000E401002034C5000808B500F051
:100CF00047F800F04DF800F03DFE00F033FF00F043
:100D00009DFE08BD00B585B0C82005F0B5FD69465B
:100D100000230093019302930393FF238DF8003087
:100D2000AA228DF801208DF803306423052204489F
:100D300005F0BBFBC82005F09FFD05B05DF804FB86
:100D4000B408002000B585B06946002300930193E4
:100D500002930393FF238DF80030AA238DF801300E
:100D6000A7238DF8023064230522044805F09DFB7B
:100D7000C82005F081FD05B05DF804FBB408002033
:100D800008B5FFF7BFFFFFF7DDFF01F0C3FB08BDAC
:100D900008B5742008F0C4FE144B1860002824D055
:100DA0000023036243628362C3620363436383631A
:100DB000C36303600D4A126853609360D36013618C
:100DC00053619361D361136453649364D364136573
:100DD00053659365D365136693665366D3660423A0
:100DE00082F87030002382F8713008BD00020020C4
:100DF00018490A680023136253629362D362136333
:100E000053639363D36313600A6853609360D36042
:100E1000136153619361D361136453649364D36426
:100E2000136553659365D365136693665366D366FE
:100E3000042382F87030084A5168012381F8543045
:100E4000916881F85430D16881F85430126982F881
:100E50005430704700020020B00200200000000063
:100E60002DE9F8432DED068B01F04EFB142003F025
:100E70007FFE8F4BD3ED007A9FED8E7A67EE877AF7
:100E80009FED8D7AC7EE877A17EE909A1868FFF774
:100E9000F3FA0022894B07F049FCFFF71DFE07EE2D
:100EA000900AF5EEC07AF1EE10FA00F1B7809FEDEE
:100EB000847AF4EEC77AF1EE10FA07D99FED817AC1
:100EC000F4EEC77AF1EE10FA40F3AD807E4B1B686A
:100ED000002283F871207C4B1C68754B1B682366CD
:100EE0007A4B1B68A3667A4B5F6897ED146A84EDB2
:100EF000046AD3F80880D8ED147AC4ED057ADE6868
:100F0000D6ED146AC4ED066A1D6995ED147A84ED78
:100F1000077A36EE278A36EE888A37EE088AB5EEEB
:100F2000009A28EE098A84ED088A77EEC67A76EE72
:100F3000A78A78EEC78A68EE898AC4ED098A77EEB7
:100F4000E67A77EE277A17EE900AFFF795FA56A31E
:100F5000D3E90023FFF712FCFFF7BEFD60664846A9
:100F600007F010FC09EE900A28EE29AA484607F07F
:100F700043FC06EE900A68EEA67A3AEE67AA84ED84
:100F800010AA28EE268A68EEA98A38EE288A84ED0F
:100F9000118A97ED137AD8ED137A37EE277AD6EDCA
:100FA000137A37EE277AD5ED137A37EE277A27EEC4
:100FB000097A84ED0C7AD8ED137A97ED136A77EEFF
:100FC000C67A96ED136A77EE867A95ED136A77EE18
:100FD000C67A67EE897AC4ED0D7A94ED146A69EEEB
:100FE000875A26EEA75A75EEC55A36EE256A84ED65
:100FF000146A94ED156A66EE876A69EEA79A76EE32
:10100000A96A76EE267AC4ED157A01F083FA1420E7
:1010100003F0AAFDBDEC068BBDE8F8839FED2D7AA9
:1010200077EE877A43E79FED267AF4EEC77AF1EE02
:1010300010FA21DD9FED287AF4EEC77AF1EE10FA6E
:1010400005D8214B1B68012283F8712043E79FEDEF
:10105000227AF4EEC77AF1EE10FA7FF73CAF9FEDFB
:101060001F7AF4EEC77AF1EE10FA05D8164B1B681A
:10107000022283F871202EE79FED187AF4EEC77AEA
:10108000F1EE10FA7FF727AF9FED0E7AF4EEC77AF4
:10109000F1EE10FA3FF61FAF0B4B1B68032283F8EB
:1010A000712018E7AFF300809B6CB2C9FC7F384019
:1010B000F4050020DB0F49400000344300807640F7
:1010C0000000344200809D4300020020F005002013
:1010D000B00200200000B443000007430000614359
:1010E00010B5012408E0074B53F8240000F096FFE8
:1010F000012005F0C1FB0134042CF4DDFFF7B0FE44
:1011000010BD00BFB00200202DE9F0432DED068B8D
:1011100083B0554D2C68D4ED187ADFED549A67EE04
:10112000A97A9FED537AC7EE877A17EE906A94ED0D
:10113000128A304607F026FB08EE900A28EE289A1D
:1011400094ED13AA304607F057FB07EE100A6AEE3B
:10115000077A79EE277AC4ED0A7A28EE478A68EE94
:101160008A8A38EE288A84ED0B8A77EEC87A17EEE1
:10117000900AFFF781F906460F46D4ED1B7A9FEDE2
:101180003D9A67EEC97A67EEA97A17EE900AFFF7E3
:1011900073F90022384BFFF7F1FA31A3D3E90023AA
:1011A000FFF7C2F902460B4630463946FFF706F80C
:1011B000FFF792FC20602C68D4ED0A8A94ED0B8A2C
:1011C00078EE887A17EE900AFFF756F9804689463E
:1011D000D4ED1B7A67EE897A67EEA97A17EE900A4A
:1011E000FFF74AF90022244BFFF7C8FA1CA3D3E902
:1011F0000023FFF799F906460F4602460B46404684
:101200004946FEF7DBFFFFF767FC054660603246A4
:101210003B4640464946FEF7CFFFFFF75DFC804660
:10122000A06078EEC87A17EE900AFFF725F902461B
:101230000B4630463946FEF7C1FFFFF74DFC03462B
:10124000E0602068022200924246294601F01AF925
:1012500003B0BDEC068BBDE8F08300BFAFF30080A8
:10126000000000002670E63F00020020DB0F49402E
:1012700000003443AD8CF2430080664010B582B06C
:10128000124B1B68042283F87020C0B9012400E0CF
:101290000134042C09DC0E4B53F824008379022B13
:1012A000F6D0022100F01AFEF2E70020022300939C
:1012B00003460246014601F0E5F802B010BD01F018
:1012C0008FF8012001F05AF8F7E700BF0002002074
:1012D000B00200202DE9F84F2DED028B08EE100A28
:1012E0008B461646984601F06BF8022001F046F84E
:1012F00001F056F8FFF77CFDFFF7F2FE524B18683D
:1013000001F014FD514B186801F010FD504B1868A6
:1013100001F00CFD07EE90BAF0EEE77A9FED4D7A02
:10132000F4EEC77AF1EE10FA09DB07EE10BAB5EE6B
:10133000C07AF1EE10FA02DD4FF0040912E09FEDE1
:10134000467AF4EEC77AF1EE10FA09D5F0EEC87AD3
:10135000F4EEC77AF1EE10FA09D44FF0040901E077
:101360004FF0040902F0A4FF0746002529E04FF0E2
:101370000309F7E7002500E00025FFF7B1FE374C31
:10138000D4F800A0DAF8502018EE101A2E4B186886
:1013900001F0E2FCCAF84800D4F800A0DAF85420C2
:1013A00059462A4B186801F0D7FCCAF84C0024684B
:1013B000226E3146264B186801F0A0FDE066FFF76B
:1013C000A3FE02F075FFC01B404533D2234B1B68C0
:1013D000D3ED147A77EEC87AF0EEE77AB1EE047ABC
:1013E000F4EEC77AF1EE10FAC4D5D3ED157A07EE14
:1013F00010BA77EEC77AF0EEE77AB1EE047AF4EE3F
:10140000C77AF1EE10FAB7D5D3ED187A07EE106A65
:1014100077EEC77AF0EEE77A9FED117AF4EEC77AAD
:10142000F1EE10FA0DD50135EDB2A945A5D8002091
:10143000FFF724FF0020FFF721FFBDEC028BBDE882
:10144000F88F002599E700BF6405002060050020A3
:101450005C0500200000FA4400808944000200205E
:10146000CDCCCC3D000000002DE9F84F2DED028BD6
:101470000E4603284FD8DFE800F0450213308A4BB0
:1014800093ED068AD3F828B0884B1B78012B02D045
:101490004FF007083DE001F516764FF0070838E0F9
:1014A000814B93ED078AD3F82CB0804B1B78012B2E
:1014B00006D0012B36D901F6B8364FF00F0828E0D8
:1014C00001F6B836F7EE007A07EE10BA77EE277A13
:1014D00017EE90BA4FF00F081BE0734B93ED088A9C
:1014E000D3F830B0714B1B78012B06D0012B1CD9DF
:1014F00001F26C764FF014080BE001F6B8364FF0AD
:101500000F0806E0684B93ED058AD3F824B04FF03E
:10151000070801240DE04FF007084FF0000B08EE1C
:1015200010BAF6E74FF00708F3E74FF00708F0E7C7
:101530000134042C09DC5E4B53F824008379022B20
:10154000F6D0022100F0CAFCF2E7FFF751FCFFF7EA
:10155000C7FD584B186801F0E9FB574B186801F0BC
:10156000E5FB564B186801F0E1FB02F0A1FE0746CF
:10157000002546E000254C4BD3ED037AF5EE407A8A
:10158000F1EE10FA06D1D3ED047AF5EE407AF1EEE1
:1015900010FA36D0DFF81091D9F80C2018EE101A96
:1015A000454B186801F0D8FBFEF766FF444CD4F8B1
:1015B00000A03BA3D3E90023FEF7B6FFFFF78CFAA8
:1015C000CAF84C00D9F8102059463A4B186801F077
:1015D000C3FBFEF751FF246831A3D3E90023FEF7D4
:1015E000A3FFFFF779FAA064364B1A680021364B47
:1015F000186801F083FCE066FFF786FD052005F022
:101600003BF902F055FEC01BB04235D2264BD3ED5C
:10161000037A77EEC87AF0EEE77A9FED2C7AF4EE53
:10162000C77AF1EE10FAA5D8D3ED047A07EE10BA16
:1016300077EEC77AF0EEE77A9FED247AF4EEC77A78
:10164000F1EE10FA25D81F4BD3ED007AF0EEE77AD1
:101650009FED1F7AF4EEC77AF1EE10FA1BD5013533
:10166000EDB2A84587D80020FFF708FE082005F056
:1016700003F90120FFF702FE0020FFF7FFFD08201D
:1016800005F0FAF80120FFF7F9FDBDEC028BBDE88B
:10169000F88F00256FE700256DE700BFAFF30080EE
:1016A0009A9999999999D9BF24020020FC010020A8
:1016B000B0020020580500205405002050050020ED
:1016C00000020020F40500205C0500203333E340D5
:1016D000CDCCCC3D2DE9F0472DED028B08EE100A64
:1016E0008A4616469846012400E00134042C09DCA1
:1016F0004A4B53F824008379022BF6D0022100F0E4
:10170000EDFBF2E7FFF774FBFFF7EAFC444B1868C8
:1017100001F00CFB434B186801F008FB424B1868C2
:1017200001F004FB07EE90AAF0EEE77A9FED3F7A16
:10173000F4EEC77AF1EE10FA06D4F2EE008A02F067
:10174000B7FD0746002529E0F2EE048AF7E70025F9
:1017500000E00025FFF7C4FC354CD4F80090D9F820
:10176000502018EE101A2E4B186801F0F5FAC9F83F
:101770004800D4F80090D9F854205146294B1868F5
:1017800001F0EAFAC9F84C002468226E3146264B73
:10179000186801F0B3FBE066FFF7B6FC02F088FDC5
:1017A000C01B404531D2224B1C68D4ED147A77EE31
:1017B000C87AF0EEE77AF4EEE87AF1EE10FAC6D5E0
:1017C000D4ED157A07EE10AA77EEC77AF0EEE77A35
:1017D000B2EE087AF4EEC77AF1EE10FAB9D5D4ED8C
:1017E000187A07EE106A77EEC77AF0EEE77A9FED87
:1017F000117AF4EEC77AF1EE10FA0DD50135EDB29B
:10180000042DA7D90020FFF739FD0020FFF736FD92
:10181000BDEC028BBDE8F08700259BE7B0020020FD
:101820004C050020480500204405002000007A44B3
:1018300000020020CDCCCC3D2DE9F0472DED028BF0
:1018400008EE100A8A461646984600F0B9FD0220B6
:1018500000F094FD00F0A4FD142005F00DF8FFF752
:10186000C7FAFFF73DFC3D4B186801F05FFA3C4BAF
:10187000186801F05BFA3B4B186801F057FA02F068
:1018800017FD0746002526E0002500E00025FFF7AC
:1018900027FC354CD4F80090D9F8502018EE101AD7
:1018A0002E4B186801F058FAC9F84800D4F8009097
:1018B000D9F8542051462A4B186801F04DFAC9F85E
:1018C0004C002468226E3146264B186801F016FB46
:1018D000E066FFF719FC02F0EBFCC01B404533D279
:1018E000214B1C68D4ED147A77EEC87AF0EEE77AD3
:1018F0009FED1E7AF4EEC77AF1EE10FAC4D5D4ED5E
:10190000157A07EE10AA77EEC77AF0EEE77AB0EE16
:10191000007AF4EEC77AF1EE10FAB7D5D4ED187A62
:1019200007EE106A77EEC77AF0EEE77A9FED107A4D
:10193000F4EEC77AF1EE10FA0DD50135EDB2022DB5
:10194000A5D90020FFF79AFC0020FFF797FCBDEC1B
:10195000028BBDE8F087002599E700BF4005002015
:101960003C05002038050020000200209A9919400B
:10197000CDCCCC3D074B196800220A601B685A6029
:101980009A60DA60044A1A6100221A7501225A75B7
:10199000704700BF000000209A99993E034BDA6916
:1019A000034B1B68526A9A60704700BFB002002068
:1019B0000000002008B51E4B1B68D3ED037A93EDA1
:1019C000027A77EEC77AB0EEE76AD3ED046AB4EE36
:1019D000E66AF1EE10FA0AD500221A7577EE277A38
:1019E00017EE901A134BD86900F01EFB08BDF2EEFB
:1019F000035AB4EEE56AF1EE10FA0ED59FED0E6AC9
:101A000066EE866AF5EEC07AF1EE10FA02DDF0EECF
:101A1000667AE3E7F1EE667AE0E7F5EEC07AF1EE9A
:101A200010FA02DDF0EE667AD8E7F1EE667AD5E7D5
:101A300000000020B0020020CDCCCC3E38B5134BC6
:101A40000022DA601A61124A5A61124959629A6197
:101A5000114A9A62114ADA61114ADA62114A1A622B
:101A6000114A1A6300241C72A3F8394083F83B40E2
:101A70005C6383F838401C605C600C4D082229468A
:101A80000B4804F053FE2C606C6038BD240200202B
:101A900000808E4300005C43000061430000A043CF
:101AA000000070430080894300005743080600206F
:101AB000FC080020082900D0704738B50446037898
:101AC000EE2B00D038BD431813F8013CFF2BF9D1A1
:101AD000214D0A460146284608F0CDFF63782B7257
:101AE0002B7ADAB2112B2AD8102AEBD3A278E3781A
:101AF00043EA022307EE903AB8EE677A21796279D9
:101B000042EA012207EE902AF8EE677AA079411E98
:101B1000C9B20229D6D8B3F5207FD3D2B2F5F07F6F
:101B2000D0D20D4B83ED037AC3ED047A0B4B1A68C8
:101B3000022AC7DC084B134483F83900C2E7122A93
:101B4000C0D1054BD4F802005863A27983F838203D
:101B5000034B01221A70B5E7240200201C0200206A
:101B6000200200200C4A51690C4B196092695A609E
:101B700000229A60DA601A615A610949996100216C
:101B80001977084B1A605A60074A9A6019734FF424
:101B90000062DA81704700BFB002002074020020AA
:101BA0000000A441600200200000F0410B4B1A68C5
:101BB000D2ED097ADFED0A6A67EEA67A9FED097A1F
:101BC00087EE876A83ED026A5A68D2ED097A67EE7A
:101BD000A67AC7EE876AC3ED036A704774020020D5
:101BE00000003443DB0F494010B52DED048B414B11
:101BF00093ED046A93ED027A36EE476AF0EEC67A08
:101C000093ED065ADFED3C5A65EE255AF4EEE57A7F
:101C1000F1EE10FA3FD500221A77364BD3ED056A64
:101C2000D3ED037A76EEE76AF0EEE64AF4EEE45A94
:101C3000F1EE10FA11DCF1EE025AF4EEE54AF1EEA3
:101C400010FA4CD5DFED2D5A25EE255AF5EEC06A77
:101C5000F1EE10FA40DDF0EE456A37EE067A37EE27
:101C6000A68A9FED279A27EE097ADFED268A214C76
:101C7000C7EE287A17EE901A206800F0D5F968EEC2
:101C8000097AC7EEA87A17EE901A606800F0CCF9CE
:101C9000BDEC048B10BDF2EE036AF4EEE67AF1EED1
:101CA00010FA0ED5DFED157A65EE277AB5EEC06A2B
:101CB000F1EE10FA02DDB0EE676AAEE7B1EE676AE8
:101CC000ABE7B5EEC06AF1EE10FA02DDB0EE456AA0
:101CD000A3E7B1EE456AA0E7F1EE456ABDE7F5EE90
:101CE000C06AF1EE10FA02DDF0EE456AB5E7F1EEFA
:101CF000456AB2E774020020CDCC4C3ECDCCCC3E40
:101D0000DB0F49400000344308B5074B186107EE6C
:101D1000901AF1EE677AC3ED057A01221A7703482B
:101D200003F082FE08BD00BF74020020EC06002014
:101D300006EE900AB3EE057AC6EE877A9FED067A34
:101D400067EE877ADFED056A87EEA67A81ED007A85
:101D500082ED007A704700BF00003443DB0F49403A
:101D600000B583B06A4601A9FFF7E2FF0099019828
:101D7000FFF7CAFF03B05DF804FB08B50020014679
:101D8000FFF7C2FF08BD000008B5FEF775FB002293
:101D9000094BFEF7F3FC0022084BFEF70FFAFEF7A3
:101DA00073FE81B201F50061822340F6340209B26C
:101DB000022000F0ADFC08BD0080B63F0000E03F0F
:101DC00008B5024B5868FFF7DFFF08BD600200202E
:101DD00010B504460621023000F080FC10B12378D3
:101DE000FF2B00D010BD6378FF2BFBD1A278A17927
:101DF000637903EB01239BB2012A09D0022AF1D1B6
:101E000007EE903AF8EE677A034BC3ED007AE9E704
:101E1000014A1382E6E700BF60020020034608463D
:101E20000B70C3F307224A70C3F307428A70C3F3EF
:101E30000763CB707047000030B583B004460D4B8C
:101E400008221A6104229A600022DA6082685A60CD
:101E500002F02EFA00F16405224652F80C0B01AB99
:101E6000044902F09BFB18B102F022FAA842F3D910
:101E700003B030BD9802002001600272064B1B784F
:101E8000A0F80930C37A23F0E003C372012380F87D
:101E900054300023837170470400002008B5C37AD2
:101EA000032262F30403C3720B4B1B78A0F80930C2
:101EB000C37A23F0E003C372002304E0C2180021B8
:101EC00011730133DBB2072BF8D9FFF7B5FF0A20F6
:101ED00004F0D2FC08BD00BF0400002038B5044661
:101EE0000D46C37A122262F30403C3720D4B1B78B2
:101EF000A0F80930C37A23F0E003C372002303E0A3
:101F0000E218002010730133072BF9DD47F20503B7
:101F1000A38125742046FFF78FFFA5710A2004F0E6
:101F2000ABFC38BD0400002008B5C37A042262F37C
:101F30000403C3720B4B1B78A0F80930C37A23F05B
:101F4000E003C372002304E0C218002111730133BF
:101F5000DBB2072BF8D9FFF76FFF0A2004F08CFCE7
:101F600008BD00BF0400002008B5C37A062262F352
:101F70000403C3720B4B1B78A0F80930C37A23F01B
:101F8000E003C3720123037304E0C218002111733C
:101F90000133DBB2072BF8D9FFF74EFF0A2004F01C
:101FA0006BFC08BD0400002010B590F80BC0122493
:101FB00064F3040C80F80BC0084C94F800C0A0F83F
:101FC00009C090F80BC02CF0E00C80F80BC08181A8
:101FD00012680261FFF730FF10BD00BF040000204F
:101FE00008B5C37A112262F30403C3720A4B1B784B
:101FF000A0F80930C37A23F0E003C3728181022381
:1020000004E0C218002111730133DBB2072BF8D9A9
:10201000FFF712FF08BD00BF0400002008B547F21B
:102020001901FFF7DDFF08BD30B583B0044608464F
:1020300001AD2946FFF7F2FE2A4647F21601204677
:10204000FFF7B2FF03B030BD30B583B00446084699
:1020500001AD2946FFF7E2FE2A4647F21701204666
:10206000FFF7A2FF0A2004F007FC03B030BD30B533
:1020700083B0044607EE901AB3EE0E7AF4EEC77AF8
:10208000F1EE10FA09DCBBEE0E7AF4EEC77AF1EE4F
:1020900010FA04D5FBEE0E7A01E0F3EE0E7A01ADF4
:1020A000294617EE900AFFF7B9FE2A4647F20A01C1
:1020B0002046FFF779FF03B030BD30B583B004464A
:1020C000084601AD2946FFF7A9FE2A4647F2180146
:1020D0002046FFF769FF0A2004F0CEFB03B030BDB5
:1020E00010B504460B784A7843EA022347F21902F6
:1020F000934204D047F21B02934231D010BDCA79FB
:102100008B791B0443EA02634A7943EA02230A7982
:10211000134307EE903A027A012A01D0032A03D131
:1021200007EE903AF1EE677AC4ED0E7A9FED1B7AD6
:1021300067EE877AC4ED107A94F8543023B1002307
:1021400084F85430C4ED117A94ED117A37EEC77AE1
:1021500084ED137AC4ED117A02F0AAF8E063CDE7BA
:10216000CA798B791B0443EA02634A7943EA022362
:102170000A79134307EE903A027A012A01D0032A22
:1021800003D107EE903AF1EE677AC4ED0B7A9FED3A
:10219000037A67EE877AC4ED147AAFE7000048420D
:1021A00010B504463F2900F293800023037161714A
:1021B0001178537843EA01231BB283F400431BB226
:1021C000A3839178D37843EA01231BB283F40043BD
:1021D0001BB2217A012901D0032901D15B421BB234
:1021E000E3831179537943EA01231BB283F400435B
:1021F0001BB2238493791B021BB2D27913436384ED
:10220000636AA362A08B00B207EE900AF8EEE77A49
:1022100017EE900AFEF730F900224FF07C53FEF7DC
:1022200083F900222E4BFEF77FF92BA3D3E900237D
:10223000FEF77AF9FEF750FC6062E08B00B207EE21
:10224000900AF8EEE77A17EE900AFEF715F90022E9
:102250004FF07C53FEF768F90022224BFEF764F939
:10226000FEF73AFCE062D4ED0B7A9FED1F7A67EE41
:10227000877AC4ED147A208C00B207EE900AF8EE4B
:10228000E77A17EE900AFEF7F7F800224FF07C533A
:10229000FEF74AF90022154BFEF746F9FEF71CFC43
:1022A0002063638C1BB207EE903AF8EEE77AF2EE09
:1022B000046A87EEA67A84ED0D7A10BD49080133D1
:1022C000062B3FF774AF11F0010FF7D02371F5E73C
:1022D0000123F5E7AFF3008000000060FB21094017
:1022E0000000104000003E4000004842000028402E
:1022F00008B51F4B18601F4B0340FE2B08D01C4B2A
:10230000DB7803F01F03022B12D0112B22D008BD63
:10231000174BB3F80130DBB25A1ED2B2062AF6D8F8
:10232000154A52F8233008684A6858619A61EEE706
:102330000F4BB3F801C05FFA8CF0431EDBB2062BE3
:10234000E5D80A464FEA1C210B4B53F82000FFF753
:1023500027FFDCE7064BB3F80130DBB25A1ED2B2DE
:10236000062AD4D8044A52F82300FFF7B9FECEE774
:1023700094020020FF00001FB002002038B505467F
:10238000012407E02946054B53F82400FFF7A6FD7A
:102390000134E4B2042CF5D938BD00BFB0020020EE
:1023A00010B5012406E0054B53F82400FFF776FD35
:1023B0000134E4B2042CF6D910BD00BFB0020020F5
:1023C00010B5012406E0054B53F82400FFF7ACFDDF
:1023D0000134E4B2042CF6D910BD00BFB0020020D5
:1023E00010B5FFF7EDFF094C2046FFF7BDFD04F1E6
:1023F0005800FFF7B9FD04F1B000FFF7B5FD04F593
:102400008470FFF7B1FDFFF7CBFF10BDD8030020AC
:1024100038B5184A184B536003F15801916003F125
:10242000B001D16003F584731361012408E02246F2
:102430001249104B53F82400FFF71EFD0134E4B29B
:10244000042CF4D9FFF7CCFF01240DE0094D4FF027
:10245000824155F82400FFF7F7FD094955F824009B
:10246000FFF72BFE0134E4B2042CEFD90220FFF772
:1024700085FF38BDB0020020D8030020940500205D
:102480000000B84138B52DED048B06EE901A06EE2B
:10249000103A089C07EE900AB1EE677ADFED187AE1
:1024A00086EEA79A06EE902AF1EE666AC6EEA78A35
:1024B00086EE278A134DC7EE277A17EE901A6868C2
:1024C000FFF7D5FD204604F0D7F919EE101AA868D9
:1024D000FFF7CDFD204604F0CFF918EE901AE8681A
:1024E000FFF7C5FD204604F0C7F918EE101A286959
:1024F000FFF7BDFD204604F0BFF9BDEC048B38BDED
:1025000000004842B002002008B5392002F030FB3C
:1025100008BD000010B5392002F026FB054C212231
:102520002146054804F002F921220021204608F046
:1025300013FA10BD34060020B408002038B5054653
:10254000052407E02946054B53F82400FFF7C6FC95
:102550000134E4B2062CF5D938BD00BFB00200202A
:1025600038B5134A134B536158339361052408E07F
:10257000224611490E4B53F82400FFF77DFC01342D
:10258000E4B2062CF4D905240CE0094D0B4955F8AA
:102590002400FFF759FD0A4955F82400FFF78DFD87
:1025A0000134E4B2062CF0D90120FFF7C7FF38BD93
:1025B000B0020020280300209405002000002041E4
:1025C0000000A04110B5052406E0054B53F8240097
:1025D000FFF764FC0134E4B2062CF6D910BD00BF4D
:1025E000B002002010B5052406E0054B53F8240086
:1025F000FFF79AFC0134E4B2062CF6D910BD00BFF7
:10260000B002002010B5FFF7EDFF054C2046FFF7A4
:10261000ABFC04F15800FFF7A7FCFFF7D3FF10BD98
:102620002803002008B50146024BD869FFF756FC85
:1026300008BD00BFB002002010B50A4C0A48E06196
:1026400007220A49FFF718FC4FF08241E069FFF7C3
:10265000FBFC0749E069FFF730FD0120FFF7E2FFCF
:1026600010BD00BFB0020020D00200209405002061
:102670000000A04108B5FFF7CBFEFFF771FFFFF7A1
:10268000DBFF00F0E3F808BD08B5024BD869FFF79F
:1026900005FC08BDB002002008B5024BD869FFF761
:1026A00043FC08BDB002002008B5FFF7F5FF034B5F
:1026B000D869FFF759FCFFF7E7FF08BDB00200201B
:1026C00000231A4605E010F803C06244D2B2013379
:1026D000DBB28B42F7D3D043C0B2704700231A4617
:1026E00005E010F803C06244D2B20133DBB28B4282
:1026F000F7D3FF2A14BF00200120704708B50A460F
:102700000A230146014803F0D0FE08BD4409002019
:102710002DE9F04F8BB006460193022856D00128D0
:102720005CD040F648539A4200D91A465FFA81F9C4
:10273000C1F307255FFA82F8140AFF238DF81830D9
:102740008DF819308DF80C604FF00A0B8DF80DB034
:102750004FF0030A8DF80EA04FF029038DF80F30CB
:10276000019B8DF810308DF811908DF812500027D4
:102770008DF813708DF814708DF815808DF8164053
:102780000B2103A8FFF79CFF8DF81A608DF81BB092
:102790008DF81CA04FF029028DF81D20019B8DF8AB
:1027A0001E308DF81F908DF820508DF821708DF817
:1027B00022708DF823808DF824408DF825000E219D
:1027C00006A8FFF79BFF0BB0BDE8F08F00290DDBDB
:1027D000B1F5805FA5DD4FF48051A2E7002907DB4A
:1027E000B1F5805F9DDD4FF480519AE7002198E7B5
:1027F000002196E7F0B585B00546FF238DF8083037
:102800008DF809308DF8000004278DF8017002243E
:102810008DF8024038268DF803608DF804400521BC
:102820006846FFF74DFF8DF80A508DF80B708DF854
:102830000C408DF80D608DF80E408DF80F000821CA
:102840000DEB0100FFF75AFF05B0F0BD70B5482051
:1028500007F066F904469B4B1860482007F060F9C2
:10286000994B1860482007F05BF9984B1860482096
:1028700007F056F9964B1860482007F051F9954B30
:102880001860482007F04CF9934B1860482007F077
:1028900047F9924B1860482007F042F9904B1860B6
:1028A000482007F03DF98F4B1860482007F038F9B1
:1028B0008D4B1860482007F033F98C4B1860482086
:1028C00007F02EF98A4B1860F4B18A4B23607D4ED5
:1028D0003468894B6360894BA360894BE3600025B2
:1028E00025616561874BA361E36101F0E1FC206232
:1028F000336800225A629A62DA621A635D639D63EA
:10290000DD63012283F840206F4B1B68F3B17E4AE0
:102910001A606D4E3468784B63607C4BA360784BD3
:10292000E360002525616561764BA361E36101F0F9
:10293000BFFC2062336800225A629A62DA621A632C
:102940005D639D63DD63012283F840205F4B1B685C
:10295000FBB16F4A1A605D4E34686E4B63606E4B1C
:10296000A360674BE3600025256165616B4BA36144
:102970006B4BE36101F09CFC2062336800225A62D9
:102980009A62DA621A635D639D63DD63012283F8F4
:1029900040204F4B1B683BB3624A1A604C4E346870
:1029A0005C4B6360604BA360554BE3600025256181
:1029B00065615E4BA3615E4BE36101F079FC2062CF
:1029C00001F076FC07EE900A3368F8EE677AC3ED03
:1029D000117A00225A629A62DA621A635D639D6319
:1029E000DD63012283F840203A4B1B683BB3514A18
:1029F0001A60384E3468504B6360504BA360404BB4
:102A0000E3600025256165614D4BA3614D4BE3619A
:102A100001F04EFC206201F04BFC07EE900A336897
:102A2000F8EE677AC3ED117A00225A629A62DA628E
:102A30001A635D639D63DD63012283F84020264BAA
:102A40001B68FBB1404A1A60234E3468314B636007
:102A50003E4BA3602A4BE3600025256165613C4B3A
:102A6000A3613C4BE36101F023FC20623368002248
:102A70005A629A62DA621A635D639D63DD630122C2
:102A800083F84020154B1B68002B73D0324A1A6024
:102A9000124E3468184B6360304BA360184BE360F0
:102AA0000025256165612E4BA3612E4BE36101F08A
:102AB000FFFB2062336800225A629A62DA621A636C
:102AC00052E000BF64050020600500205C05002086
:102AD0005805002054050020500500204C0500201A
:102AE0004805002044050020400500203C0500204A
:102AF000380500203333A3400AD7233C0AD7C33F0D
:102B0000BC74933C000096448FC2A54048E1DA3F74
:102B10009A99E9406F12833A4260253F0000824251
:102B200000005C43000020401F851B400000204344
:102B3000000002449A9939400AD7A33CCDCC8C407E
:102B400000004843000043443333C340D7A3F03E62
:102B50000000484200009643CDCC0C403D0AD73ED1
:102B60000000E1430000EB435D639D63DD630122F0
:102B700083F84020574B1B68FBB1574A1A60554EEB
:102B80003468564B6360564BA360564BE360002598
:102B900025616561544BA361544BE36101F088FBEF
:102BA0002062336800225A629A62DA621A635D63B5
:102BB0009D63DD63012283F840204D4B1B68FBB110
:102BC0004C4A1A604A4E3468444B63604A4BA360D7
:102BD000444BE360002525616561484BA361484B88
:102BE000E36101F065FB2062336800225A629A6259
:102BF000DA621A635D639D63DD63012283F840201E
:102C0000404B1B68FBB1404A1A603E4E34683F4B54
:102C100063603F4BA360334BE36000252561656132
:102C20003C4BA3613C4BE36101F042FB2062336803
:102C300000225A629A62DA621A635D639D63DD6301
:102C4000012283F84020354B1B68F3B1344A1A60E7
:102C5000324E34682D4B6360324BA360214BE360EE
:102C6000002525616561204BA361E36101F020FB34
:102C70002062336800225A629A62DA621A635D63E4
:102C80009D63DD63012283F84020274B1B68FBB165
:102C9000184A1A60244E3468104B6360164BA360C8
:102CA000104BE360002525616561144BA361144B53
:102CB000E36101F0FDFA2062336800225A629A62F1
:102CC000DA621A635D639D63DD63012283F840204D
:102CD00070BD00BF48050020000020400AD7233CFB
:102CE0008FC2753EBC74933C0000E1430000EB438F
:102CF000440500200000C040D7A3F03E00008242FF
:102D00000000964340050020CDCC90416F12833ADD
:102D100014AE3740000016440000E1443C0500209A
:102D20001F850B40AE47613E3805002098B138B58D
:102D3000044600250561456101F0BAFA20620023CE
:102D40006362A362E36223636563A563E5630123B2
:102D500084F8403038BD704710B52DED028B044625
:102D600090F84030002B40F0928008EE901A08EE68
:102D7000102A01F09DFA236AC31A07EE903AF8EE82
:102D8000677A9FED597A87EE875A206284ED035A5D
:102D900078EEC87A94ED007A27EE277A94ED046AEB
:102DA00065EE276A36EE266A84ED046AD4ED016A80
:102DB000F5EE406AF1EE10FA1CD0D4ED065AC5EEDD
:102DC000A64AB4EEE46AF1EE10FA69DDC4ED044AF5
:102DD000F4EEC75AF1EE10FA6CD5F5EEC07AF1EECA
:102DE00010FA67DD94ED046ADFED405A26EE256A9D
:102DF00084ED046A94ED046A26EE866AB5EEC05A44
:102E0000F1EE10FA63DDD4ED055A77EEE55AC5EE22
:102E1000856ADFED375A66EEA56AD4ED0E5ADFED0E
:102E2000354A65EEA45A76EEA56AC4ED0E6AD4ED75
:102E3000025A65EEA66A37EE067A37EE267AD4EDA8
:102E4000066AF4EEC76AF1EE10FA08D4F1EE666A8B
:102E5000F4EEC76AF1EE10FA01DCF0EE476A94ED89
:102E6000077A94ED0D6A76EEC65A25EE077AB4EE2F
:102E7000E57AF1EE10FA2DD576EE076AC4ED0D6A0B
:102E8000C4ED057A16EE900ABDEC028B10BD00234E
:102E900080F8403001F00CFA2062DFED176AF1E7AC
:102EA000F1EE644AB4EEE46AF1EE10FA90D5C4EDA6
:102EB000044A8DE7F1EE655AF4EEC75AF1EE10FAC6
:102EC00098DDF5EEC07AF1EE10FA93D58AE7DFEDE2
:102ED0000A6A9EE7B1EE475AF4EEC55AF1EE10FACF
:102EE000CCD576EE476AC9E700007A446666663F4D
:102EF000CDCC4C3FCDCC4C3E0000000010B52DEDAC
:102F0000028B044690F84030002B40F0928008EE8F
:102F1000901A08EE102A01F0CBF9236AC31A07EEC3
:102F2000903AF8EE677A9FED597A87EE875A2062D9
:102F300084ED035A78EEC87A94ED007A27EE277A6A
:102F400094ED046A65EE276A36EE266A84ED046A1B
:102F5000D4ED016AF5EE406AF1EE10FA1CD0D4ED22
:102F6000065AC5EEA64AB4EEE46AF1EE10FA69DD3F
:102F7000C4ED044AF4EEC75AF1EE10FA6CD5F5EE42
:102F8000C07AF1EE10FA67DD94ED046ADFED405A85
:102F900026EE256A84ED046A94ED046A26EE866ABC
:102FA000B5EEC05AF1EE10FA63DDD4ED055A77EEB6
:102FB000E55AC5EE856ADFED375A66EEA56AD4EDAF
:102FC0000E5ADFED354A65EEA45A76EEA56AC4EDD9
:102FD0000E6AD4ED025A65EEA66A37EE067A37EE2F
:102FE000267AD4ED066AF4EEC76AF1EE10FA08D438
:102FF000F1EE666AF4EEC76AF1EE10FA01DCF0EE6B
:10300000476A94ED077A94ED0D6A76EEC65A25EE7E
:10301000077AB4EEE57AF1EE10FA2DD576EE076A6E
:10302000C4ED0D6AC4ED057A16EE900ABDEC028B74
:1030300010BD002380F8403001F03AF92062DFED46
:10304000176AF1E7F1EE644AB4EEE46AF1EE10FAC1
:1030500090D5C4ED044A8DE7F1EE655AF4EEC75AF7
:10306000F1EE10FA98DDF5EEC07AF1EE10FA93D594
:103070008AE7DFED0A6A9EE7B1EE475AF4EEC55AD9
:10308000F1EE10FACCD576EE476AC9E700007A4433
:103090006666663FCDCC4C3FCDCC4C3E0000000078
:1030A00008B50C480C4B0360092343600023836080
:1030B000C3604FF400320261436103764376837646
:1030C000C3760377437701F0F9F800B908BD00F043
:1030D00019FCFBE7940500200064004008B50C488B
:1030E0000C4B03600923436000238360C3604FF4EB
:1030F000003202614361037643768376C3760377B9
:10310000437701F0DBF800B908BD00F0FBFBFBE7FB
:103110006C0500200068004010B58AB000230593BC
:10312000069307930893099303683E4A934204D099
:103130003D4A934234D00AB010BD3C4A1368013373
:103140001360012B1FD000240194394B1A6B42F0FD
:1031500008021A631B6B03F008030193019B03230E
:1031600005930222069208930923099305A9314881
:1031700001F006FF22460521142001F0E5FC142091
:1031800001F0F2FCD7E700230093294B1A6C42F0C0
:1031900000721A641B6C03F000730093009BD2E76B
:1031A00000230293224B1A6C42F080621A641B6C5B
:1031B00003F080630293029B1C4A1368013313607F
:1031C000012B21D000240494194B1A6B42F0020207
:1031D0001A631B6B03F002030493049B4FF44053E8
:1031E000059302230693032308930923099305A952
:1031F000114801F0C5FE22460521402001F0A4FC43
:10320000402001F0B1FC96E700230393084B1A6CB1
:1032100042F000721A641B6C03F000730393039B6B
:10322000D0E700BF0064004000680040680500204F
:1032300000380240000C02400004024030B595B056
:1032400000240F941094012511950A940B940C946A
:103250000D940E9412950AA9094801F0D5F80E2391
:1032600005930694079500940194029403940494A2
:1032700008956946034801F0C7F815B030BD00BF96
:10328000940500206C05002010B582B00024009445
:103290001A4B1A6B42F480021A631A6B02F4800212
:1032A0000092009A01941A6B42F400121A631B6B8D
:1032B00003F400130193019B224605210C2001F029
:1032C00043FC0C2001F050FC224606210E2001F0A8
:1032D0003BFC0E2001F048FC22460521112001F0A4
:1032E00033FC112001F040FC22460721392001F077
:1032F0002BFC392001F038FC02B010BD0038024030
:1033000008B512E01F48C368826841680068FDF78D
:10331000E1FF1C4B00229A740122DA741A4B1868E0
:1033200003F011FB0A2003F0A7FA164B9B7C002B3D
:10333000F8D0144BDB7C002BF4D1124B5B7C032BBD
:10334000E7D801A252F823F00533000859330008EA
:1033500065330008753300080A4BD968187CFEF7FE
:1033600083F8D6E70748C368826841680068FEF7BB
:10337000B1F9CEE70348C368826841680068FEF788
:103380005BFAC6E7CC050020C005002008B5FFF7B2
:1033900071F9FDF7ABFC00F0A5FD3C2003F06CFAE1
:1033A00000F0A0FD4FF4FA6003F066FA00F056FB5F
:1033B00000F05AFB4FF47A7003F05EFAFAE700006F
:1033C00008B50E4A0121084603F064FA0C4B186058
:1033D0000C4A0121084603F05DFA0B4B18600B4ABA
:1033E00000210B4803F0EEF90A4B18600A4A00214D
:1033F0000A4803F0E7F90A4B186008BDD8C5000871
:10340000C0050020C8C50008BC0500200CC6000887
:1034100001330008C8050020E8C500088D33000806
:10342000C40500202DE9F0478EB009AD00240994B1
:103430000A940B940C940D9401944E4B1A6B42F029
:1034400010021A631A6B02F010020192019A0294A0
:103450001A6B42F040021A631A6B02F040020292A9
:10346000029A03941A6B42F001021A631A6B02F07B
:1034700001020392039A04941A6B42F008021A6341
:103480001A6B02F008020492049A05941A6B42F037
:1034900020021A631A6B02F020020592059A069424
:1034A0001A6B42F480721A631A6B02F480720692ED
:1034B000069A07941A6B42F080021A631A6B02F0A4
:1034C00080020792079A08941A6B42F002021A636C
:1034D0001B6B03F002030893089B274F2246012130
:1034E000384601F051FEDFF894A0224601215046F3
:1034F00001F04AFEDFF8889022464FF4C05148465A
:1035000001F042FEDFF87C8001224FF4006140466A
:1035100001F03AFE01224FF48041384601F034FEBA
:1035200044F20103099301260A960B940C94294650
:10353000384601F025FD09960A960B940C9429460D
:10354000504601F01DFD4FF4C05309930A960B94A9
:103550000C942946484601F013FD4FF4006309938B
:103560000A960B940C942946404601F009FD0EB0D2
:10357000BDE8F087003802400014024000200240FD
:10358000001C02400010024010B58AB0044601AB96
:1035900003AA002101F077F830B923680B4A93425F
:1035A00004D00B4A934209D00AB010BD059B042BEE
:1035B000FAD101A90498FEF79BFEF5E7059B042BC1
:1035C000F2D101A90498FEF793FEEDE700640040F4
:1035D0000068004030B585B0844B98420DD0844BD4
:1035E000984200F0DD80834B984200F0DD80824BF2
:1035F000984200F0EC8005B030BD00F059FE7F4BE2
:1036000018607F4D7F4CAC46BCE80F000FC4BCE88F
:103610000F000FC4DCF8003023702122002128465F
:1036200007F09AF9002390E0591C7648415C532931
:1036300040F09280D91D415C090209B29C1D005DD9
:10364000014307EE901AF8EEE77A9FED6F7A67EE86
:10365000C77A9FED6E7A67EE877A6D49C1ED007A81
:103660006C49D1ED007AF4EEC77AF1EE10FA45D547
:103670009FED697AF4EEC77AF1EE10FA3EDD644907
:10368000D1ED006A9FED657AF4EEC76AF1EE10FAAB
:1036900034D5D1ED006A9FED627AF4EEC76AF1EE9F
:1036A00010FA2BDD5F48016801310160584991ED46
:1036B000007ADFED567AB4EE677AF1EE10FA4BD06D
:1036C00091ED007ADFED567AB4EE677AF1EE10FAFA
:1036D00042D05449D1ED007AF8EEE77A9FED527A64
:1036E00067EE877A4A4991ED007A77EE877A4F48FC
:1036F000C0ED007A0868474908602DE09FED477AE1
:10370000F4EEC77AF1EE10FAD0D59FED457AF4EEDB
:10371000C77AF1EE10FAC9DD3D4991ED007ADFED8F
:103720003E7AB4EEE77AF1EE10FABFDD91ED007A61
:10373000DFED367AB4EEE77AF1EE10FAB6D5394815
:10374000016801390160B1E70133192B22DC2D4AF0
:10375000D25C552A3FF468AF552AF5D15A1C294945
:103760008A5C522AF0D1DA1D8A5C120212B2981DCC
:10377000095C0A4307EE902AF8EEE77A9FED227A79
:1037800067EEC77A9FED2A7A67EE877A294AC2EDFB
:10379000007AD9E721221A49144802F0C7FF2AE724
:1037A000254B01221A7026E7244C01AB94E8070050
:1037B00003C31A7001A8FEF70BFB002323606360AC
:1037C0002372092221460B4802F0B0FF13E71C4C7C
:1037D00008212046FEF76EF900232360636008226B
:1037E0002146054802F0A2FF05E700BFB40800200B
:1037F0008C09002044090020FC080020EC05002072
:103800003406002010060020000000380000344379
:10381000F8050020E80500200000B4420000B4C212
:10382000000034C3E40500200000B443F405002088
:103830000000FA44F005002055060020FC05002099
:103840000806002010B503682A4A934203D02A4A8A
:10385000934203D010BD00F01FFDFBE7274B1B7800
:103860004BB1012BF6D1FEF7BFF9FEF7A3F8234BBE
:1038700000221A70EEE7FEF799F9FEF78FF8FEF7CF
:103880009FFA0120FEF7B6FF1D4BDC8940F29E73C4
:103890009C420AD0C82340F6485221B20120FEF7CC
:1038A00037FF164B01221A70D4E7154B1A8A40F2E3
:1038B0009E739A4203D8C82340F64852EDE714207D
:1038C00002F0DAFF0E4B1A8A40F668039A4202D8D9
:1038D00001230222E1E7C8234FF4FA6240F66601B1
:1038E0000120FEF715FF322002F0C6FF012302225D
:1038F000D3E700BF00140040000C0040E0050020AA
:103900006002002072B6FEE710B594B008AC302219
:103910000021204607F020F8002303930493059329
:10392000069307930193234A116C41F0805111646F
:10393000126C02F080520192019A02931E4B1A6897
:1039400042F440421A601B6803F440430293029B16
:10395000012308934FF48033099302230E934FF40D
:1039600080020F9206221092B42211921293042325
:103970001393204601F04CFCA8B901F00BFCA0B950
:103980000F23039302230493002305934FF4A053C2
:1039900006934FF480530793052103A801F088FE96
:1039A00028B914B010BDFFF7ADFFFFF7ABFFFFF76D
:1039B000A9FF00BF003802400070004008B500F0C9
:1039C00051FCFFF7A1FFFFF72DFDFFF75DFC00F0B5
:1039D000B1FA00F0C9FA00F0FBFAFFF761FB00F062
:1039E00029FA00F08BF9FFF779FB00F0D7FA154DB3
:1039F00008222946144802F099FE144C0922214657
:103A0000134802F093FE00232B606B602360636019
:103A10002372FFF713FC0F4C204600F091FD0221AA
:103A2000204600F0E5FE0C4C204600F089FD022106
:103A3000204600F0DDFE02F097FEFFF7C1FC02F029
:103A4000A5FEFEE708060020FC080020FC0500207B
:103A500044090020940500206C05002008B5FEF7FD
:103A6000D1FDFEF721FE08BD00B583B0144806F075
:103A700095FEFFF7F3FFFEF793FC124806F08EFE6B
:103A80001148FEF76DF941F2883002F0F5FEFEF7BD
:103A900074F941F2883002F0EFFE0C4BDE68986852
:103AA000FCF7EAFC04460D463046FCF7E5FCCDE9A0
:103AB000000122462B46064806F008FEEDE700BF4F
:103AC00088C5000894C50008000066437402002001
:103AD000A8C5000800B583B0002200920D4B596CB8
:103AE00041F480415964596C01F48041009100997E
:103AF0000192196C41F0805119641B6C03F08053E2
:103B00000193019B0F216FF0010001F01DF803B03C
:103B10005DF804FB0038024030B589B0044600234C
:103B20000193214B1A6C42F020021A641B6C03F0C3
:103B300020030193019B02A903A801F08FFE069BBD
:103B4000CBB901F06BFE0346184AA2FB03239B0C82
:103B5000013B1748174A026040F2E732C2604360F7
:103B6000002303618360836102F0C0F8054630B131
:103B7000284609B030BD01F051FE4300E4E70C488F
:103B800001F052FF05460028F2D1372000F0ECFF8B
:103B90000F2C01D90125EBE700222146372000F048
:103BA000D3FF054B1C60E3E70038024083DE1B4374
:103BB000580600200014004010000020FEE7FEE739
:103BC000FEE7FEE7FEE7704708B5024801F0EAF8B5
:103BD00008BD00BF9407002008B5024801F0E2F8D4
:103BE00008BD00BF5408002008B5024801F0DAF80B
:103BF00008BD00BFF407002008B5024800F016FE1B
:103C000008BD00BF9405002008B5024801F052FF2E
:103C100008BD00BFEC06002008B5024801F04AFFCD
:103C200008BD00BF5806002008B5024801F0BAF8E8
:103C300008BD00BF3407002008B5024800F0F6FDBB
:103C400008BD00BF6C0500200120704708B506F0D4
:103C5000E5FE162303604FF0FF3008BD08B54FF0B6
:103C6000FF31FFF7F3FFFEE770B50C46164600255F
:103C700006E0AFF30080214601F8010B01350C4648
:103C8000B542F6DB304670BD4FF0FF3070474FF461
:103C900000534B60002070470120704700207047A0
:103CA00010B503460C4A0D490D48006840B10C4858
:103CB00000680344521A934206D8094A136010BDA3
:103CC0000748084C0460F2E706F0A8FE0C230360E6
:103CD0004FF0FF30F3E700BF0000032000040000B6
:103CE000A006002078540020034AD2F8883043F41C
:103CF0007003C2F88830704700ED00E000B587B06F
:103D000000230293039304930593009301931548B2
:103D1000154A026059224260836040F6C312C260B5
:103D20000361836101F0E2FF90B94FF48053029385
:103D300002A90C4802F0E5F868B90023009301934A
:103D40006946084802F030FA40B907B05DF804FB54
:103D5000FFF7D8FDE9E7FFF7D5FDEEE7FFF7D2FD66
:103D6000F3E700BFEC060020000C004002680E4B99
:103D70009A4200D0704700B583B00022019203F54B
:103D80000B33196C41F0080119641B6C03F0080334
:103D90000193019B0621322000F0D6FE322000F074
:103DA000E3FE03B05DF804FB000C00400268094B21
:103DB0009A4200D0704782B000230193064B1A6CE0
:103DC00042F040021A641B6C03F040030193019B14
:103DD00002B07047001800400038024000B587B0BC
:103DE00000230193029303930493059302680E4BFF
:103DF0009A4202D007B05DF804FB002300930B4BFE
:103E00001A6B42F080021A631B6B03F0800300936D
:103E1000009B40230193022302930923059301A9E8
:103E2000034801F0ADF8E5E7001800400038024013
:103E3000001C024000B589B0002301930293039354
:103E400004930593069307931148124A0260436056
:103E5000836048F23422C2600361836101F072FF23
:103E600080B960230193002202920392059201A976
:103E7000074801F0CBFF40B90548FFF7AFFF09B095
:103E80005DF804FBFFF73EFDEBE7FFF73BFDF3E7D3
:103E9000A406002000180040642800D96420054BC7
:103EA000DA6802FB0000044AA2FB002040091B68FC
:103EB00058637047A40600201F85EB5108B53220D7
:103EC000FFF7EAFF0021024802F0AAF808BD00BF90
:103ED000A406002008B50021014802F01FF908BD22
:103EE000A406002008B5FFF7E9FF282002F0C4FC73
:103EF000FFF7F0FF08BD000000B583B001904FF65A
:103F0000FF73012201A9034802F0CFFA019803B020
:103F10005DF804FB8C09002070B50C4616460025A0
:103F200004E014F8010BFFF7E7FF0135B542F8DBB9
:103F3000304670BD08B50A480A4B03604FF4E133C0
:103F4000436000238360C36003610C22426183618C
:103F5000C36102F07AFA00B908BDFFF7D3FCFBE7B2
:103F60008C0900200078004008B50A480A4B03601D
:103F70004FF4E133436000238360C36003610C228C
:103F800042618361C36102F060FA00B908BDFFF7C6
:103F9000B9FCFBE744090020007C004008B50A4852
:103FA0000A4B03604FF4E133436000238360C36036
:103FB00003610C2242618361C36102F046FA00B9D9
:103FC00008BDFFF79FFCFBE7FC080020004800400D
:103FD00008B50A480A4B03604FF4E13343600023FD
:103FE0008360C36003610C2242618361C36102F09C
:103FF0002CFA00B908BDFFF785FCFBE7B4080020E8
:104000000014014030B58FB00446002309930A9391
:104010000B930C930D930368824A93420BD0824A10
:10402000934245D0814A93427DD0814A934200F029
:10403000B9800FB030BD002501957E4B1A6C42F05F
:1040400080421A641A6C02F080420192019A029531
:104050001A6B42F010021A631B6B03F010030293F9
:10406000029B4FF4C073099302230A9303230C931A
:1040700008230D9309A9704800F082FF6F48704B28
:1040800003604FF0206343608560C5604FF4806338
:10409000036145618561C5610562456200F0E8FD27
:1040A00018B9664BE3639C63C3E7FFF72BFCF8E7A3
:1040B000002503955F4B1A6C42F000421A641A6C9B
:1040C00002F000420392039A04951A6B42F0100228
:1040D0001A631B6B03F010030493049B03230993DF
:1040E00002220A920C9308230D9309A9524800F06A
:1040F00047FF5448544B03604FF020634360856092
:10410000C5604FF48063036145618561C5610562E7
:10411000456200F0ADFD18B94A4BE3639C6388E744
:10412000FFF7F0FBF8E700250595424B1A6C42F4C7
:1041300080221A641A6C02F480220592059A069570
:104140001A6B42F008021A631B6B03F00803069314
:10415000069B4FF44073099302230A9303230C93A5
:1041600007230D9309A9394800F00AFF3848394B55
:1041700003604FF0006343608560C5604FF4806367
:10418000036145618561C5614FF400330362456297
:1041900000F06EFD18B92E4BE3639C6349E7FFF70F
:1041A000B1FBF8E700250795224B5A6C42F020023C
:1041B0005A645A6C02F020020792079A08951A6B0B
:1041C00042F040021A631B6B03F040030893089B04
:1041D0004FF48443099302230A9303230C93082387
:1041E0000D9309A91C4800F0CBFE1C481C4B036032
:1041F0004FF0206343608560C5604FF480630361C6
:1042000045618561C5614FF480330362456200F00A
:104210002FFD18B9114BE3639C630AE7FFF772FBAC
:10422000F8E700BF00780040007C004000480040F4
:1042300000140140003802400010024054080020E1
:1042400058600240F4070020A0600240000C0240C9
:104250009407002028600240001802403407002024
:104260002864024008B50B4B1A6842F400721A60C9
:104270001A6842F480621A601A6842F480721A6006
:10428000032000F04FFC0F20FFF746FCFFF722FC55
:10429000002008BD003C0240034A1168034B1B7814
:1042A0000B441360704700BFD40900200C000020AD
:1042B000014B1868704700BFD4090020002800F0A7
:1042C000A18038B5044690F82030D3B12268136835
:1042D00043F001031360FFF7EBFF054623685A68BC
:1042E00012F0010F10D1FFF7E3FF401B0A28F5D9A8
:1042F000636A43F400336362052384F820300120AD
:1043000038BDFEF709FFE1E71A6822F002021A60E1
:10431000FFF7CEFF054623685A6812F0020F0DD052
:10432000FFF7C6FF401B0A28F5D9636A43F4003340
:104330006362052384F820300120E1E7227E012A10
:104340003DD01A6822F080021A60637E012B3BD0B8
:104350002268136823F040031360A37E012B39D039
:104360002268136823F020031360E37E012B37D00B
:104370002268136843F010031360237F012B35D0AC
:104380002268136823F008031360637F012B33D086
:104390002268136823F004031360A368E2681343E0
:1043A00022691343626913436268013A2168134327
:1043B000CB6100206062012384F82030A0E71A68F6
:1043C00042F080021A60C0E72268136843F040039D
:1043D0001360C2E72268136843F020031360C4E748
:1043E0002268136823F010031360C6E7226813687D
:1043F00043F008031360C8E72268136843F004031E
:104400001360CAE70120704790F82030013BDBB20F
:10441000012B05D9436A43F480234362012070478E
:1044200030B5464BD3F8002242F00102C3F8002217
:10443000D3F8002222F47C52C3F80022D3F80022E1
:10444000486A42EA0022C3F800224A6902F01F02C9
:10445000012000FA02F2D3F81C026FEA020C20EAF3
:104460000200C3F81C02CB69C3B9344BD3F80C0269
:104470000CEA0000C3F80C028C884869CD6844EA55
:104480000544483043F830408C68088840EA0440CE
:104490004C6904F1480E03EBCE035860CB69012B45
:1044A0001ED08B69002B33D12448D0F804320CEA9B
:1044B0000303C0F804320B698BBB2048D0F81432D8
:1044C0000CEA0303C0F814320B6A012B2ED01B4AEE
:1044D000D2F8003223F00103C2F80032002030BDD0
:1044E000164BD3F80C021043C3F80C028C884869B1
:1044F0000D6844EA0544483043F8304088894C69E7
:104500008D6840EA0540483403EBC4035860C8E7AF
:104510000A48D0F804321343C0F80432CBE7074806
:10452000D0F814321343C0F81432CDE70349D1F860
:104530001C321343C1F81C32C9E700BF00640040BD
:1045400070B5044690F82030012B06D0436A43F43E
:10455000002343620126304670BDDEB2022380F89C
:1045600020300268136823F001031360FFF7A0FEF8
:10457000054623685B6813F0010F0CD0FFF798FE27
:10458000431B0A2BF5D9636A43F4003363620523A6
:1045900084F82030DFE700266662DCE730B590F86B
:1045A00020C00468A4680CF1FF3C5FFA8CFCBCF1ED
:1045B000010F62D814F0E05F59D0C4F3016C0124FC
:1045C00004FA0CF41C608B68002B3DD10D68CB689D
:1045D000046843EA45550CF118031B01E5500368D4
:1045E0000C690CF1180E03EB0E135C600B7D012BB4
:1045F00035D0D17993791B0443EA0163517943EAB9
:10460000012314790168234301EB0C11C1F88C31AB
:10461000D17893781B0443EA0163517843EA01237C
:10462000117802680B4302EB0C12C2F88831026861
:104630000CF1180C4FEA0C1C52F80C3043F001033B
:1046400042F80C3000201DE04C6843EAC403CC68FB
:1046500023430CF11804240105682B51BFE70368BC
:1046600003EB0E13596841F480715960C1E7436A46
:1046700043F400134362012004E0436A43F48023BF
:104680004362012030BD90F820C00CF1FF3C5FFA7E
:104690008CFCBCF1010F00F2A58030B451B9046864
:1046A000E46814F0030F10D1436A43F4001343622B
:1046B00001207EE00468246914F0030F05D1436AE9
:1046C00043F400134362012073E0056801F11B0409
:1046D00024012C5904F004049460002C6BD105686B
:1046E00001F11B0424012C59640D1460046801F1CC
:1046F0001B0C4FEA0C1C54F80C4004F00204D4606C
:104700000468A444DCF8045015F0080F5BD00824BA
:104710001461046801F11B0C04EB0C146468C4F30D
:1047200007249461046804EB0C146468240C54613D
:10473000026802EB0112D2F8B8211A70026802EB8B
:104740000112D2F8B821C2F307225A70026802EBB4
:104750000112D2F8B821C2F307429A70026802EB44
:104760000112D2F8B821120EDA70026802EB0112BF
:10477000D2F8BC211A71026802EB0112D2F8BC21F6
:10478000C2F307225A71026802EB0112D2F8BC216F
:10479000C2F307429A71026802EB0112D2F8BC21FF
:1047A000120EDA71C1B90268D36843F02003D360F6
:1047B000002030BC7047056801F11B0424012C590E
:1047C000E408546092E701F11B0504EB05146468EA
:1047D00004F00F0414619CE70268136943F020039E
:1047E0001361E5E7436A43F4802343620120704785
:1047F00090F82030013BDBB2012B05D9436A43F42A
:104800008023436201207047026853690B43536160
:104810000020704770477047704770477047704777
:104820007047704770477047704770472DE9F84FE1
:10483000054603685C69D3F804809F68D3F80CA030
:10484000D3F81090D3F818B014F001063BD017F04D
:10485000010616D001229A6017F0020F08D117F056
:10486000040F0CD117F0080606D04FF4805608E06C
:10487000FFF7D0FF002604E0FFF7CFFF01E04FF481
:10488000006617F4807F0DD02B684FF480729A6019
:1048900017F4007F40F0968017F4806F00F0968048
:1048A00046F4005617F4803F0DD02B684FF4803249
:1048B0009A6017F4003F40F0938017F4802F00F0C7
:1048C000938046F4004614F0080F07D01AF0100F3A
:1048D00004D046F400762B681022DA6014F0040F3E
:1048E00003D01AF0080F40F0898014F0020F05D0B1
:1048F0002B68DB6813F0030F40F0878014F0400F43
:1049000007D019F0100F04D046F480662B681022EF
:104910001A6114F0200F02D019F0080F79D114F0A9
:10492000100F04D02B681B6913F0030F78D114F417
:10493000003F02D018F0100F76D114F4803F02D05F
:1049400018F0080F77D114F4004F37D018F0040F87
:1049500031D014F4807F04D01BF0010F01D046F059
:10496000010614F4007F04D01BF0020F01D046F0C2
:10497000020614F4806F04D01BF0040F01D046F03F
:10498000040614F4006F16D01BF0700B13D0BBF1AB
:10499000400F66D056D8BBF1200F5CD0BBF1300F72
:1049A0005CD0BBF1100F01D146F008062A6893696C
:1049B00023F0700393612B6804225A60002E56D1B5
:1049C000BDE8F88F2846FFF726FF6BE717F4006F66
:1049D00002D046F4804665E72846FFF71FFF61E7EF
:1049E0002846FFF719FF6EE717F4002F02D046F4B0
:1049F000803668E72846FFF712FF64E72B68082235
:104A0000DA602846FFF70CFF6FE72846FEF7BCFD8B
:104A100074E72B6808221A612846FFF703FF7EE738
:104A20002846FFF7FEFE82E72B6810225A602846D0
:104A3000FFF7F9FE81E72B6808225A602846FFF746
:104A4000F3FE80E7BBF1500F0ED0BBF1600FADD18C
:104A500046F48076AAE746F01006A7E746F020065F
:104A6000A4E746F04006A1E746F080069EE76B6AA1
:104A700033436B622846FFF7D8FEA1E7002807DB27
:104A800000F01F02400901239340024A42F82030FF
:104A9000704700BF00E100E000280CDB00F01F02BF
:104AA0004009012393402030034A42F82030BFF3ED
:104AB0004F8FBFF36F8F704700E100E0002808DBE5
:104AC0000901C9B200F1604000F5614080F80013AF
:104AD000704700F00F000901C9B2014B195470472B
:104AE00014ED00E000B500F00700C0F1070CBCF1C8
:104AF000040F28BF4FF0040C031D062B0FD9C31E53
:104B00004FF0FF3E0EFA0CF021EA000199400EFA38
:104B100003FE22EA0E0241EA02005DF804FB0023D4
:104B2000EEE70000074AD36823F4E0631B041B0C84
:104B3000000200F4E060034343F0BF6343F400333A
:104B4000D360704700ED00E010B50446054BD8680F
:104B5000C0F30220FFF7C6FF01462046FFF7AEFF75
:104B600010BD00BF00ED00E008B5FFF787FF08BDEE
:104B700008B5FFF791FF08BD30B405682C6824F430
:104B800080242C60046863608368402B05D0036830
:104B900099600368DA6030BC704703689A60036804
:104BA000D960F8E710B40368D9B210390A4AA2FBF9
:104BB00001421209094CA25CC2655F2907D96FF353
:104BC000090304338365806D5DF8044B70476FF310
:104BD00009038365F7E700BFABAAAAAA48C6000885
:104BE000836A826992B9012B0AD0022B02D00BB1E1
:104BF00000207047C36A13F0807F28D100207047DF
:104C0000C36AB3F1C07F24D000207047B2F5005FC3
:104C100009D0022B25D9032B25D1C36A13F0807F3D
:104C200023D100207047032B03D8DFE803F01404DE
:104C3000140A00207047C36A13F0807F0DD1002052
:104C40007047C36AB3F1C07F09D0002070470120CC
:104C500070470120704701207047012070470120F4
:104C60007047012070470020704701207047000006
:104C700070B50446FFF71CFB002C5BD005460223F1
:104C800084F83530002384F834302268136823F028
:104C90000103136023681A6812F0010F0AD0FFF7AE
:104CA00007FB431B052BF5D920236365032084F8FC
:104CB000350070BD1A68204911406268A06802433F
:104CC000E06802432069024360690243A06902432D
:104CD000E0690243206A02430A43616A04291ED044
:104CE0001A602668756925F00705636A1D43042B61
:104CF00007D1A36A1D43E36A1BB12046FFF770FF8B
:104D000090B975612046FFF74DFFE26D3F23934058
:104D1000836000206065012384F83530C9E7E16ACB
:104D2000206B01430A43DBE740236365012084F8DD
:104D30003500BEE70120BCE73F8010F038B50446DF
:104D4000856D90F8340001282AD0012084F83400C1
:104D500094F83500012804D0002384F83430022070
:104D600038BD022084F83500002060652046FFF73A
:104D700003FFE26D3F239340AB602268136843F06A
:104D800016031360236C23B12268136843F00803F1
:104D900013602268136843F0010313600020DFE70B
:104DA0000220DDE7F0B583B0044600230193724B87
:104DB0001D68724BA3FB0535AD0A876D3E68C26D59
:104DC00008239340334210D003681A6812F0040F8E
:104DD0000BD01A6822F004021A60C26D08239340B7
:104DE000BB60436D43F001034365E26D01239340D3
:104DF000334209D02268526912F0800F04D0BB60A0
:104E0000636D43F002036365E26D04239340334214
:104E100009D02268126812F0020F04D0BB60636DE3
:104E200043F004036365E26D10239340334224D0C2
:104E30002268126812F0080F1FD0BB6023681A683E
:104E400012F4802F0DD01B6813F4002F04D1236CB3
:104E50009BB12046984710E0A36C73B12046984759
:104E60000BE01A6812F4807F03D11A6822F008025E
:104E70001A60236C0BB120469847E26D20239340C3
:104E8000334254D02268126812F0100F4FD0BB602A
:104E900094F83530052B0ED023681A6812F4802F51
:104EA00033D01B6813F4002F2AD1636C002B3ED043
:104EB000204698473BE02268136823F016031360EE
:104EC0002268536923F080035361236CA3B12268E5
:104ED000136823F008031360E26D3F239340BB6027
:104EE000012384F83530002384F83430236D002BFF
:104EF0003FD0204698473CE0A36C002BE7D1EBE77E
:104F0000E36BA3B12046984711E01A6812F4807F42
:104F100009D11A6822F010021A60012384F8353092
:104F2000002384F83430E36B0BB120469847636D5F
:104F3000FBB1636D13F0010F17D0052384F83530F2
:104F40002268136823F001031360019B013301936E
:104F5000AB4204D823681B6813F0010FF5D101237D
:104F600084F83530002384F83430E36C0BB12046EC
:104F7000984703B0F0BD00BF08000020B5814E1B6C
:104F800000230F2B00F2F68070B582B066E08568D2
:104F90004FEA430E032404FA0EF425EA0405CC6814
:104FA00004FA0EF42C438460446824EA02044A683C
:104FB000C2F300129A40224342605DE0DC080834EC
:104FC00050F8242003F00705AD004FF00F0E0EFA45
:104FD00005FE22EA0E0E0A69AA4042EA0E0240F8D5
:104FE00024205DE0092200E0002202FA0EF22A43AA
:104FF0000234614D45F82420604A94686FEA0C023F
:1050000024EA0C054E6816F4801F01D04CEA040512
:105010005A4CA560E46802EA04054E6816F4001FC5
:1050200001D04CEA0405554CE560646802EA0405C9
:105030004E6816F4003F01D04CEA04054F4C656001
:10504000246822404D6815F4803F01D04CEA0402E8
:105050004A4C226001330F2B00F28A8001229A40D1
:105060000C6804EA020C32EA0404F3D14C6804F040
:105070000304013C012C8AD94A6802F00302032A86
:1050800009D0C4685D000322AA4024EA02048A68A9
:10509000AA402243C2604A6802F00302022A8DD06D
:1050A00004684FEA430E032202FA0EF224EA0204D5
:1050B0004A6802F0030202FA0EF2224302604A68D2
:1050C00012F4403FC6D0002201922D4A546C44F4A1
:1050D00080445464526C02F480420192019A9C080C
:1050E000A51C254A52F8255003F0030E4FEA8E0EF8
:1050F0000F2202FA0EF225EA0205224A90423FF4FC
:1051000073AF02F58062904222D002F58062904235
:1051100020D002F5806290421ED002F5806290425B
:105120001CD002F5806290421AD002F58062904253
:1051300018D002F58062904216D002F5806290424B
:1051400014D002F5806290423FF44CAF0A224CE743
:1051500001224AE7022248E7032246E7042244E705
:10516000052242E7062240E707223EE708223CE705
:1051700002B070BD704700BF00380140003C0140E4
:1051800000380240000002400AB181617047090402
:105190008161704710B582B000230193194B1A6CDE
:1051A00042F080521A641B6C03F080530193019B00
:1051B000154B01221A64FFF77BF80446134B5B681A
:1051C00013F4803F08D1FFF773F8001BB0F57A7F26
:1051D000F4D9032002B010BD0B4B01225A64FFF733
:1051E00067F80446094B5B6813F4003F07D1FFF7EB
:1051F0005FF8001BB0F57A7FF4D90320EAE70020BE
:10520000E8E700BF0038024000000E420070004096
:10521000002800F0E08170B582B00446036813F006
:10522000010F3BD09F4B9B6803F00C03042B2CD049
:105230009C4B9B6803F00C03082B21D06368B3F5EB
:10524000803F4FD0B3F5A02F52D0964B1A6822F46E
:1052500080321A601A6822F480221A606368002B78
:1052600050D0FFF725F805468E4B1B6813F4003F1E
:1052700014D1FFF71DF8401B6428F5D90320B1E1D4
:10528000884B5B6813F4800FD8D0864B1B6813F4EF
:10529000003F03D06368002B00F09F81236813F068
:1052A000020F54D07F4B9B6813F00C0F3ED07D4B08
:1052B0009B6803F00C03082B33D0E368002B68D005
:1052C000794B01221A60FEF7F3FF0546754B1B6808
:1052D00013F0020F54D1FEF7EBFF401B0228F5D963
:1052E00003207FE16F4A136843F480331360B5E70E
:1052F0006C4B1A6842F480221A601A6842F48032B9
:105300001A60ABE7FEF7D4FF0546664B1B6813F443
:10531000003FC3D0FEF7CCFF401B6428F5D9032023
:1053200060E1604B5B6813F4800FC6D15D4B1B6876
:1053300013F0020F03D0E368012B40F05081594A6B
:10534000136823F0F803216943EAC103136023685B
:1053500013F0080F42D063696BB3534B0122C3F8BB
:10536000802EFEF7A5FF05464E4B5B6F13F0020F34
:1053700034D1FEF79DFF401B0228F5D9032031E10F
:10538000484A136823F0F803216943EAC103136014
:10539000DDE7454B00221A60FEF78AFF0546414BC8
:1053A0001B6813F0020FD2D0FEF782FF401B0228C9
:1053B000F5D9032016E13C4B0022C3F8802EFEF7FE
:1053C00077FF0546374B5B6F13F0020F06D0FEF7F1
:1053D0006FFF401B0228F5D9032003E1236813F077
:1053E000040F77D02F4B1B6C13F0805F33D1002359
:1053F00001932C4B1A6C42F080521A641B6C03F020
:1054000080530193019B0125284B1B6813F4807F77
:1054100023D0A368012B34D0052B38D0214B1A6F31
:1054200022F001021A671A6F22F004021A67A368B9
:10543000002B3DD0FEF73CFF06461A4B1B6F13F0C6
:10544000020F46D1FEF734FF801B41F288339842A9
:10545000F3D90320C6E00025D6E7144A136843F4C5
:1054600080731360FEF724FF0646104B1B6813F48D
:10547000807FCED1FEF71CFF801B0228F5D90320C8
:10548000B0E0084A136F43F001031367CFE7054B01
:105490001A6F42F004021A671A6F42F001021A678B
:1054A000C5E700BF003802400000474200700040DE
:1054B000FEF7FEFE0646524B1B6F13F0020F08D09C
:1054C000FEF7F6FE801B41F288339842F3D90320A1
:1054D00088E0EDB9A369002B00F08380484A926808
:1054E00002F00C02082A51D0022B17D0454B0022A3
:1054F0001A66FEF7DDFE0446414B1B6813F0007F81
:1055000042D0FEF7D5FE001B0228F5D9032069E042
:105510003B4A136C23F080531364DBE7394B0022C2
:105520001A66FEF7C5FE0546354B1B6813F0007F73
:1055300006D0FEF7BDFE401B0228F5D9032051E03E
:10554000E369226A1343626A43EA8213A26A520839
:10555000013A43EA0243E26A43EA0263284A53609B
:10556000284B01221A66FEF7A3FE0446244B1B6853
:1055700013F0007F06D1FEF79BFE001B0228F5D931
:1055800003202FE000202DE000202BE0012B2BD06A
:105590001B4B5B6803F48001E269914226D103F062
:1055A0003F02216A8A4223D1616A47F6C0721A40DB
:1055B000B2EB811F1ED103F44031A26A5208013AB6
:1055C000B1EB024F18D103F07063E26AB3EB026FE4
:1055D00014D1002006E001207047012002E00120E4
:1055E00000E0002002B070BD0120FBE70120F9E7D8
:1055F0000120F7E70120F5E70120F3E70120F1E7BB
:10560000003802400000474208B5264B9B6803F073
:105610000C03042B41D0082B41D1224B5A6802F0D5
:105620003F025B6813F4800F12D01E4B5968C1F320
:1056300088111D480023A1FB0001FBF79DFA194BBF
:105640005B68C3F3014301335B00B0FBF3F008BDBB
:10565000144B5868C0F388104FEA401CBCEB000C98
:105660006EEB0E0E4FEA8E1343EA9C634FEA8C11E9
:10567000B1EB0C0163EB0E03DB0043EA5173C9008D
:1056800011EB000C43F10003990200234FEA8C2038
:1056900041EA9C51FBF770FAD1E70348D7E703488A
:1056A000D5E700BF00380240001BB7000024F4001B
:1056B000002800F09B8070B50D4604464F4B1B68D8
:1056C00003F00F038B4208D2CBB24C4A137013681D
:1056D00003F00F038B4240F08B80236813F0020F1E
:1056E00017D013F0040F04D0454A936843F4E053F5
:1056F0009360236813F0080F04D0414A936843F481
:10570000604393603E4A936823F0F003A1680B4323
:105710009360236813F0010F32D06368012B21D00E
:105720009A1E012A25D9364A126812F0020F61D05A
:1057300033498A6822F0030213438B60FEF7B8FDF9
:1057400006462F4B9B6803F00C036268B3EB820F95
:1057500016D0FEF7ADFD801B41F288339842F0D998
:10576000032042E0264A126812F4003FE0D10120F3
:105770003BE0234A126812F0007FD9D1012034E0C7
:105780001E4B1B6803F00F03AB4207D9EAB21B4B59
:105790001A701B6803F00F03AB422DD1236813F07E
:1057A000040F06D0164A936823F4E053E1680B43D4
:1057B0009360236813F0080F07D0114A936823F40D
:1057C0006043216943EAC1039360FFF71DFF0C4B5F
:1057D0009B68C3F303130B4AD35CD8400A4B186091
:1057E0000A4B1868FEF798F9002070BD0120704739
:1057F0000120FAE70120F8E70120F6E7003C02402B
:105800000038024038C600080800002010000020C0
:10581000014B1868704700BF0800002008B5FFF76B
:10582000F7FF044B9B68C3F38223034AD35CD84041
:1058300008BD00BF0038024030C6000808B5FFF7B9
:10584000E7FF044B9B68C3F34233034AD35CD84061
:1058500008BD00BF0038024030C600080F230360B7
:105860000B4B9A6802F0030242609A6802F0F00261
:1058700082609A6802F4E052C2609B68DB0803F41D
:10588000E0530361034B1B6803F00F030B60704789
:1058900000380240003C024030B4036A026A22F041
:1058A000010202624268846924F0730C0C6844EAC5
:1058B0000C0423F0020C8B6843EA0C03114DA84240
:1058C00003D005F58065A84205D123F00803CD6813
:1058D0002B4323F004030B4DA84203D005F580654C
:1058E000A84207D122F440724D6945EA020C8A6948
:1058F00042EA0C02426084614A684263036230BC3F
:10590000704700BF0000014030B4036A026A22F40D
:10591000807202624268C46924F0730C0C6844EA25
:105920000C0523F400738C6843EA0423114CA04255
:1059300003D004F58064A04206D123F40063CC6850
:1059400043EA042323F480630A4CA04203D004F505
:105950008064A04207D122F440524C6942EA04120A
:105960008C6942EA04124260C5614A68C2630362FC
:1059700030BC70470000014030B4036A026A22F470
:10598000805202624468C26922F4E6420D6842EA2B
:10599000052223F400538D6843EA0533094DA842DC
:1059A00003D005F58065A84204D124F480444D69F4
:1059B00044EA85144460C2614A680264036230BCF0
:1059C000704700BF0000014010B4036A046A24F06D
:1059D00001040462846924F0F00C4CEA021223F002
:1059E0000A030B43826103625DF8044B704710B4F5
:1059F000036A046A24F010040462846924F4704C7D
:105A00004CEA023223F0A00343EA011382610362ED
:105A10005DF8044B7047836823F070030B4343F039
:105A2000070383607047000090F83D30012B37D1A9
:105A3000022380F83D300268D36843F00103D3604D
:105A40000368194A934220D0B3F1804F1DD0A2F5CC
:105A50007C42934219D002F58062934215D002F540
:105A60008062934211D002F5784293420DD002F544
:105A70007052934209D0A2F59432934205D01A682D
:105A800042F001021A60002070479A6802F0070293
:105A9000062A07D01A6842F001021A6000207047F7
:105AA0000120704700207047000001407047704798
:105AB0007047704770B504460368DE681D6915F0CD
:105AC000020F10D016F0020F0DD06FF002021A6113
:105AD0000123037703689B6913F0030F5ED0FFF780
