:020000040800F2
:1000000000000320B990000841450008434500085E
:100010004545000847450008494500080000000024
:10002000000000000000000000000000F174000863
:100030004B45000800000000917500082D71000874
:100040000991000809910008099100080991000828
:100050000991000809910008099100080991000818
:100060000991000809910008099100080991000808
:100070004D450008099100085D45000809910008F8
:10008000099100086D4500080991000809910008D0
:100090007D450008099100080991000809910008B0
:1000A00009910008099100080991000809910008C8
:1000B00009910008099100080991000809910008B8
:1000C00009910008099100080991000809910008A8
:1000D0000991000809910008099100080991000898
:1000E0000991000809910008099100080991000888
:1000F0000991000809910008099100080991000878
:1001000009910008099100088D450008099100082F
:100110000991000809910008099100089D4500080F
:1001200009910008AD4500080991000809910008EF
:100130000991000809910008099100080991000837
:10014000BD450008099100080991000809910008BF
:100150000991000809910008099100080991000817
:100160000991000809910008099100080991000807
:100170000991000809910008099100080000000099
:1001800009910008099100080991000809910008E7
:1001900009910008099100080991000809910008D7
:0C01A000000000000000000009910008B1
:1001B00081F0004102E000BF83F0004330B54FEA18
:1001C00041044FEA430594EA050F08BF90EA020F85
:1001D0001FBF54EA000C55EA020C7FEA645C7FEA18
:1001E000655C00F0E2804FEA5454D4EB5555B8BF3B
:1001F0006D420CDD2C4480EA020281EA030382EAAC
:10020000000083EA010180EA020281EA0303362D3D
:1002100088BF30BD11F0004F4FEA01314FF4801C10
:100220004CEA113102D0404261EB410113F0004F22
:100230004FEA03334CEA133302D0524263EB4303D9
:1002400094EA050F00F0A780A4F10104D5F1200E77
:100250000DDB02FA0EFC22FA05F2801841F10001D2
:1002600003FA0EF2801843FA05F359410EE0A5F1A6
:1002700020050EF1200E012A03FA0EFC28BF4CF0D7
:10028000020C43FA05F3C01851EBE37101F000458D
:1002900007D54FF0000EDCF1000C7EEB00006EEB9A
:1002A0000101B1F5801F1BD3B1F5001F0CD3490824
:1002B0005FEA30004FEA3C0C04F101044FEA44527B
:1002C00012F5800F80F09A80BCF1004F08BF5FEA02
:1002D000500C50F1000041EB045141EA050130BDE2
:1002E0005FEA4C0C404141EB0101013C28BFB1F5F4
:1002F000801FE9D291F0000F04BF01460020B1FA3F
:1003000081F308BF2033A3F10B03B3F120020CDA11
:100310000C3208DD02F1140CC2F10C0201FA0CF0EF
:1003200021FA02F10CE002F11402D8BFC2F1200C54
:1003300001FA02F120FA0CFCDCBF41EA0C0190400A
:10034000E41AA2BF01EB0451294330BD6FEA040453
:100350001F3C1CDA0C340EDC04F11404C4F120023E
:1003600020FA04F001FA02F340EA030021FA04F350
:1003700045EA030130BDC4F10C04C4F1200220FAA7
:1003800002F001FA04F340EA0300294630BD21FAE5
:1003900004F0294630BD94F0000F83F4801306BFAB
:1003A00081F480110134013D4EE77FEA645C18BF9F
:1003B0007FEA655C29D094EA050F08BF90EA020F36
:1003C00005D054EA000C04BF1946104630BD91EA2E
:1003D000030F1EBF0021002030BD5FEA545C05D131
:1003E0004000494128BF41F0004130BD14F5800470
:1003F0003CBF01F5801130BD01F0004545F0FE41E4
:1004000041F470014FF0000030BD7FEA645C1ABF18
:10041000194610467FEA655C1CBF0B46024650EA4F
:10042000013406BF52EA033591EA030F41F400217B
:1004300030BD00BF90F0000F04BF0021704730B501
:100440004FF4806404F132044FF000054FF00001D6
:1004500050E700BF90F0000F04BF0021704730B597
:100460004FF4806404F1320410F0004548BF40426C
:100470004FF000013EE700BF42004FEAE2014FEAC1
:1004800031014FEA02701FBF12F07F4393F07F4F9C
:1004900081F06051704732F07F4208BF704793F09F
:1004A0007F4F04BF41F40021704730B54FF46074B2
:1004B00001F0004521F000411CE700BF50EA0102B5
:1004C00008BF704730B54FF000050AE050EA01025E
:1004D00008BF704730B511F0004502D5404261EBCE
:1004E00041014FF4806404F132045FEA915C3FF40F
:1004F000D8AE4FF003025FEADC0C18BF03325FEAAC
:10050000DC0C18BF033202EBDC02C2F1200300FA5C
:1005100003FC20FA02F001FA03FE40EA0E0021FA81
:1005200002F11444BDE600BF70B54FF0FF0C4CF46F
:10053000E06C1CEA11541DBF1CEA135594EA0C0F21
:1005400095EA0C0F00F0DEF82C4481EA030621EA5C
:100550004C5123EA4C5350EA013518BF52EA033597
:1005600041F4801143F4801338D0A0FB02CE4FF049
:100570000005E1FB02E506F00042E0FB03E54FF079
:100580000006E1FB03569CF0000F18BF4EF0010E71
:10059000A4F1FF04B6F5007F64F5407404D25FEA6D
:1005A0004E0E6D4146EB060642EAC62141EA555120
:1005B0004FEAC52040EA5E504FEACE2EB4F1FD0C62
:1005C00088BFBCF5E06F1ED8BEF1004F08BF5FEAE0
:1005D000500E50F1000041EB045170BD06F0004692
:1005E00046EA010140EA020081EA0301B4EB5C043F
:1005F000C2BFD4EB0C0541EA045170BD41F4801137
:100600004FF0000E013C00F3AB8014F1360FDEBF5B
:10061000002001F0004170BDC4F10004203C35DA37
:100620000C341BDC04F11404C4F1200500FA05F3BA
:1006300020FA04F001FA05F240EA020001F000425B
:1006400021F0004110EBD37021FA04F642EB0601D1
:100650005EEA430E08BF20EAD37070BDC4F10C04FB
:10066000C4F1200500FA04F320FA05F001FA04F2BF
:1006700040EA020001F0004110EBD37041F10001AB
:100680005EEA430E08BF20EAD37070BDC4F12005B6
:1006900000FA05F24EEA020E20FA04F301FA05F21E
:1006A00043EA020321FA04F001F0004121FA04F2C6
:1006B00020EA020000EBD3705EEA430E08BF20EA96
:1006C000D37070BD94F0000F0FD101F000464000D0
:1006D00041EB010111F4801F08BF013CF7D041EA52
:1006E000060195F0000F18BF704703F00046520056
:1006F00043EB030313F4801F08BF013DF7D043EA27
:100700000603704794EA0C0F0CEA135518BF95EADC
:100710000C0F0CD050EA410618BF52EA4306D1D163
:1007200081EA030101F000414FF0000070BD50EA82
:10073000410606BF1046194652EA430619D094EA0C
:100740000C0F02D150EA013613D195EA0C0F05D1F6
:1007500052EA03361CBF104619460AD181EA03014A
:1007600001F0004141F0FE4141F470014FF0000002
:1007700070BD41F0FE4141F4780170BD70B54FF09D
:10078000FF0C4CF4E06C1CEA11541DBF1CEA13551D
:1007900094EA0C0F95EA0C0F00F0A7F8A4EB0504FF
:1007A00081EA030E52EA03354FEA013100F08880F6
:1007B0004FEA03334FF0805545EA131343EA1263BF
:1007C0004FEA022245EA111545EA10654FEA002674
:1007D0000EF000419D4208BF964244F1FD0404F52D
:1007E000407402D25B084FEA3202B61A65EB030589
:1007F0005B084FEA32024FF480104FF4002CB6EB46
:10080000020E75EB030E22BFB61A754640EA0C00C5
:100810005B084FEA3202B6EB020E75EB030E22BF05
:10082000B61A754640EA5C005B084FEA3202B6EB46
:10083000020E75EB030E22BFB61A754640EA9C0005
:100840005B084FEA3202B6EB020E75EB030E22BFD5
:10085000B61A754640EADC0055EA060E18D04FEA93
:10086000051545EA16754FEA06164FEAC30343EA33
:1008700052734FEAC2025FEA1C1CC0D111F4801F00
:100880000BD141EA00014FF000004FF0004CB6E7F9
:1008900011F4801F04BF01430020B4F1FD0C88BF98
:1008A000BCF5E06F3FF6AFAEB5EB030C04BFB6EBA3
:1008B000020C5FEA500C50F1000041EB045170BD96
:1008C0000EF0004E4EEA113114EB5C04C2BFD4EBC3
:1008D0000C0541EA045170BD41F480114FF0000E47
:1008E000013C90E645EA060E8DE60CEA135594EAC3
:1008F0000C0F08BF95EA0C0F3FF43BAF94EA0C0FC6
:100900000AD150EA01347FF434AF95EA0C0F7FF43A
:1009100025AF104619462CE795EA0C0F06D152EA8E
:1009200003353FF4FDAE1046194622E750EA410672
:1009300018BF52EA43067FF4C5AE50EA41047FF483
:100940000DAF52EA43057FF4EBAE12E74FF0FF3CE8
:1009500006E000BF4FF0010C02E000BF4FF0010CB9
:100960004DF804CD4FEA410C7FEA6C5C4FEA430C32
:1009700018BF7FEA6C5C1BD001B050EA410C0CBF81
:1009800052EA430C91EA030F02BF90EA020F0020E3
:10099000704710F1000F91EA030F58BF994208BF4A
:1009A00090422CBFD8176FEAE37040F00100704707
:1009B0004FEA410C7FEA6C5C02D150EA013C07D15E
:1009C0004FEA430C7FEA6C5CD6D152EA033CD3D0A9
:1009D0005DF8040B704700BF8446104662468C46A3
:1009E0001946634600E000BF01B5FFF7B7FF0028D6
:1009F00048BF10F1000F01BD4DF808EDFFF7F4FFFF
:100A00000CBF012000205DF808FB00BF4DF808ED89
:100A1000FFF7EAFF34BF012000205DF808FB00BFAC
:100A20004DF808EDFFF7E0FF94BF012000205DF8CE
:100A300008FB00BF4DF808EDFFF7CEFF94BF012083
:100A400000205DF808FB00BF4DF808EDFFF7C4FF7C
:100A500034BF012000205DF808FB00BF4FEA410CC5
:100A60007FEA6C5C02D150EA013C0AD14FEA430CA8
:100A70007FEA6C5C02D152EA033C02D14FF00000E5
:100A800070474FF0010070474FEA410212F5001223
:100A900015D211D56FF47873B3EB625212D94FEAC5
:100AA000C12343F0004343EA505311F0004F23FAAF
:100AB00002F018BF404270474FF00000704750EA04
:100AC000013005D111F0004008BF6FF000407047C1
:100AD0004FF00000704700BF4FEA4102B2F1E0431F
:100AE00024BFB3F5001CDCF1FE5C0DD901F0004C15
:100AF0004FEAC0024CEA5070B2F1004F40EB830065
:100B000008BF20F00100704711F0804F21D113F190
:100B10003872BCBF01F00040704741F480114FEAC9
:100B20005252C2F11802C2F1200C10FA0CF320FA52
:100B300002F018BF40F001004FEAC1234FEAD3236F
:100B400003FA0CFC40EA0C0023FA02F34FEA4303D9
:100B5000CCE77FEA625307D150EA01331EBF4FF062
:100B6000FE4040F44000704701F0004040F0FE407D
:100B700040F40000704700BF53B94AB9002908BFCC
:100B800000281CBF4FF0FF314FF0FF3000F00CB8D1
:100B9000ADF1080C6DE904CE09F0F4FCDDF804E0D9
:100BA000DDE9022304B07047704700BF0000000079
:100BB00001F0FF01102A2BDB10F0070F08D010F80E
:100BC000013B013A8B422DD010F0070F42B3F6D112
:100BD000F0B441EA012141EA014122F007047FF02B
:100BE00000070023F0E80256083C85EA010586EA82
:100BF000010685FA47F5A3FA87F586FA47F6A5FABE
:100C000087F68EB9EED1F0BC01F0FF0102F00702C9
:100C100032B110F8013B013A83EA010313B1F8D174
:100C20000020704701387047002D06BF3546033855
:100C3000073815F0010F07D1013015F4807F02BF8E
:100C4000013015F4C03F0130F0BC0138704700BFDF
:100C5000034613F8012B002AFBD1181A01387047FC
:100C60000348044B834202D0034B03B1184770473B
:100C7000E8010020E8010020000000000548064BC4
:100C80001B1AD90F01EBA301491002D0034B03B18A
:100C900018477047E8010020E8010020000000002C
:100CA00010B5064C237843B9FFF7DAFF044B13B1B4
:100CB0000448AFF300800123237010BDE801002039
:100CC000000000008CD2000808B5054B1BB1054997
:100CD0000548AFF30080BDE80840FFF7CFBF00BF75
:100CE00000000000EC0100208CD2000808B500F0E4
:100CF000FFFB00F005FC01F04DFA01F091FB01F063
:100D000009FB08BD08B5084801F0A8FA01F0D0FCBD
:100D10000649074801F056FC002001F0B7FC4FF4EB
:100D2000487006F097FA08BD9A998940000040C1C2
:100D30000000404310B52DED028B0138052875D811
:100D4000DFE810F006007700E0002601D6013F0240
:100D5000C749C84801F036FC01F0C0FC0024204619
:100D600001F094FC4FF4FA7006F074FAC24801F0F6
:100D700075FA4FF4AF7006F06DFA01F099FC4FF47C
:100D8000FA7006F067FABD4801F068FABC4801F055
:100D90007DFC4FF4FA7006F05DFABA49BA4801F0EA
:100DA00011FC4FF4F07006F055FAB84801F056FA0D
:100DB0004FF4C87006F04EFA204601F067FC4FF47D
:100DC000AF7006F047FAB249B24801F0FBFB4FF4AE
:100DD0002F7006F03FFAB04801F040FA4FF4C870A7
:100DE00006F038FA01F07AFC4FF4967006F032FA09
:100DF000AA4801F033FA4FF4C87006F02BFAA84C59
:100E0000D4ED067AB0EE088A77EE887AC4ED067AD9
:100E1000A449A54801F0D6FB4FF4FA7006F01AFA7F
:100E2000D4ED067A77EEC87AC4ED067ABDEC028B73
:100E300010BD8F498F4801F0C5FB002001F026FC52
:100E400001F04CFC4FF4167006F004FA974801F0DC
:100E500005FA4FF4AF7006F0FDF901F029FC4FF4EC
:100E6000FA7006F0F7F9924801F0F8F9642006F0FC
:100E7000F1F99049904801F0A5FB4FF4FA7006F0A3
:100E8000E9F98C498D4801F09DFB4FF42A7006F07A
:100E9000E1F98B4B186806F044FA8A4801F0DEF954
:100EA0004FF4E67006F0D6F901F018FC4FF4967096
:100EB00006F0D0F9844801F0D1F94FF4967006F0AD
:100EC000C9F9774CD4ED067AB0EE088A77EE887AC5
:100ED000C4ED067A7D497E4801F074FB4FF4FA7048
:100EE00006F0B8F9D4ED067A77EEC87AC4ED067A42
:100EF000624801F0B3F901F0DBFB4FF4167006F025
:100F0000A9F993E75A495B4801F05CFB00242046AD
:100F100001F0BCFB01F0E2FB4FF4FA7006F09AF925
:100F2000554801F09BF94FF4AF7006F093F901F0CA
:100F3000BFFB4FF4FA7006F08DF9504801F08EF9BE
:100F40004F4801F0A3FB4FF4FA7006F083F96149B2
:100F5000614801F037FB4FF42A7006F07BF95F48D7
:100F600001F07CF98C2006F075F901F0B7FB4FF425
:100F7000967006F06FF9494801F070F901F098FB9E
:100F8000204601F083FB4FF4487006F063F94DE70B
:100F90003749384801F016FB0024204601F076FB63
:100FA00001F09CFB4FF4FA7006F054F9324801F05E
:100FB00055F94FF4AF7006F04DF901F079FB4FF49D
:100FC000FA7006F047F92D4801F048F92C4801F075
:100FD0005DFB4FF4FA7006F03DF93E493E4801F0E2
:100FE000F1FA4FF4FA7006F035F93D4801F036F9A0
:100FF00040F28A2006F02EF9204601F047FB4FF41C
:10100000967006F027F93749374801F0DBFA4FF4BC
:101010002F7006F01FF9354801F020F94FF4C87021
:1010200006F018F901F05AFB4FF4967006F012F929
:101030001A4801F013F94FF4967006F00BF9184CAA
:10104000D4ED067AB0EE088A77EE887AC4ED067A97
:101050001449154801F0B6FA4FF4FA7006F0FAF8A0
:10106000D4ED067A77EEC87AC4ED067ADEE600BFE4
:101070000000484200000243CDCC1C409A997940C0
:101080000000B442000058C10080414366660E4132
:101090000000E6C200004D43CDCCDC4000005041D2
:1010A0007C0200200000A0C1000048437B142E41B8
:1010B000000038410000F0C10000524300008B43A3
:1010C000C80500200000E0409A990941000040C195
:1010D00000004043000050C1000041439A9959402C
:1010E0009A9939410000ECC200004F439A9921417E
:1010F0005B495C4801F066FA002001F0C7FA01F094
:10110000EDFA40F2262006F0A5F8574801F0A6F8BF
:101110004FF4AF7006F09EF801F0CAFA4FF4FA707F
:1011200006F098F8514801F099F8642006F092F81A
:101130004F49504801F046FA4FF4FA7006F08AF829
:101140004D4B186806F0EDF849494C4801F03AFA61
:101150004FF4FA7006F07EF8494801F07FF840F24B
:10116000B22006F077F801F0B9FA4FF4967006F065
:1011700071F8444801F072F84FF4967006F06AF87E
:10118000414CD4ED067AB0EE088A77EE887AC4ED49
:10119000067A3E493E4801F015FA4FF4167006F003
:1011A00059F8D4ED067A77EEC87AC4ED067A394854
:1011B00001F054F801F07CFA4FF4167006F04AF88A
:1011C00034E62749274801F0FDF90024204601F0C4
:1011D0005DFA01F083FA40F2262006F03BF822483F
:1011E00001F03CF84FF4AF7006F034F801F060FA0B
:1011F0004FF4FA7006F02EF8274801F02FF864201B
:1012000006F028F82149224801F0DCF94FF4E1709A
:1012100006F020F8214801F039FA962006F01AF875
:101220001F4801F01BF840F28A2006F013F8124B19
:10123000186806F076F801F051FA4FF4967006F04F
:1012400009F8184801F00AF8C82006F003F820460B
:1012500001F01CFA4FF4C87005F0FCFFE6E500BF92
:1012600000004842000002437B142E41CDCC6C416B
:101270000000F0C100005243C805002000008B436D
:101280009A992141000040417C020020000040C1A9
:10129000000040439A997940000038410000B44270
:1012A0000000D0400000504110B50446142005F065
:1012B000D1FF601E05281ED8DFE800F0031E395359
:1012C0006E895049504801F07DF901F007FA00207D
:1012D00001F0DCF94FF4C37005F0BCFF4B4800F09F
:1012E000BDFF4FF4C87005F0B5FF01F0E1F94FF410
:1012F000FA7005F0AFFF10BD4549464801F062F9AC
:1013000001F0ECF9002001F0C1F94FF4C37005F0D1
:10131000A1FF3E4800F0A2FF4FF4C87005F09AFF0D
:1013200001F0C6F94FF4FA7005F094FFE3E73A498B
:101330003A4801F047F901F0D1F9394801F0A6F92E
:10134000962005F087FF374800F088FF4FF42F7094
:1013500005F080FF01F0ACF94FF4C87005F07AFF9A
:10136000C9E72849284801F02DF901F0B7F9002014
:1013700001F08CF940F2122005F06CFF2A4800F0D1
:101380006DFF4FF4A57005F065FF01F091F94FF482
:10139000C87005F05FFFAEE71D491E4801F012F965
:1013A00001F09CF9002001F071F940F2122005F0E3
:1013B00051FF1D4800F052FF4FF4A57005F04AFFA1
:1013C00001F076F94FF4C87005F044FF93E7124935
:1013D000124801F0F7F801F081F9114801F056F9CF
:1013E000C82005F037FF114800F038FF4FF40C70AB
:1013F00005F030FF01F05CF94FF4FA7005F02AFFB8
:1014000079E700BF0000E6C200004D436666D640A3
:101410000000F0C100008B43000040C100004043C9
:101420000000B4420000404000002041CDCCCC4040
:1014300038B501380C4B33F81050002404B138BDD6
:1014400001F036F94FF4FA7005F004FF074801F097
:10145000E5F84FF4FA7005F0FDFE054B1B8AAB4230
:10146000EDD80134E4B2E9E70000002000002F438A
:101470006802002000B585B0C82005F0EBFE694683
:1014800000230093019302930393FF238DF8003010
:10149000AA228DF801208DF8033064230522044828
:1014A00005F0F1FCC82005F0D5FE05B05DF804FBA1
:1014B000D008002000B585B0694600230093019351
:1014C00002930393FF238DF80030AA238DF8013097
:1014D000A7238DF8023064230522044805F0D3FCCD
:1014E000C82005F0B7FE05B05DF804FBD008002069
:1014F00008B5FFF7BFFFFFF7DDFF01F0AFFC08BD48
:1015000008B5742009F0BAF9144B1860002824D0EB
:101510000023036243628362C362036343638363A2
:10152000C36303600D4A126853609360D360136114
:1015300053619361D361136453649364D3641365FB
:1015400053659365D365136693665366D366042328
:1015500082F87030002382F8713008BD0802002044
:1015600018490A680023136253629362D3621363BB
:1015700053639363D36313600A6853609360D360CB
:10158000136153619361D361136453649364D364AF
:10159000136553659365D365136693665366D36687
:1015A000042382F87030084A5168012381F85430CE
:1015B000916881F85430D16881F85430126982F80A
:1015C0005430704708020020B802002000000000DC
:1015D0002DE9F8432DED068B01F03AFC142003F0C1
:1015E0009DFF8F4BD3ED007A9FED8E7A67EE877A61
:1015F0009FED8D7AC7EE877A17EE909A1868FEF7FE
:101600003BFF0022894B07F081FDFFF765FA07EEEB
:10161000900AF5EEC07AF1EE10FA00F1B7809FED76
:10162000847AF4EEC77AF1EE10FA07D99FED817A49
:10163000F4EEC77AF1EE10FA40F3AD807E4B1B68F2
:10164000002283F871207C4B1C68754B1B68236655
:101650007A4B1B68A3667A4B5F6897ED146A84ED3A
:10166000046AD3F80880D8ED147AC4ED057ADE68F0
:10167000D6ED146AC4ED066A1D6995ED147A84ED01
:10168000077A36EE278A36EE888A37EE088AB5EE74
:10169000009A28EE098A84ED088A77EEC67A76EEFB
:1016A000A78A78EEC78A68EE898AC4ED098A77EE40
:1016B000E67A77EE277A17EE900AFEF7DDFE56A35C
:1016C000D3E90023FFF75AF8FFF706FA60664846A9
:1016D00007F074FD09EE900A28EE29AA484607F0A3
:1016E000A7FD06EE900A68EEA67A3AEE67AA84EDA8
:1016F00010AA28EE268A68EEA98A38EE288A84ED98
:10170000118A97ED137AD8ED137A37EE277AD6ED52
:10171000137A37EE277AD5ED137A37EE277A27EE4C
:10172000097A84ED0C7AD8ED137A97ED136A77EE87
:10173000C67A96ED136A77EE867A95ED136A77EEA0
:10174000C67A67EE897AC4ED0D7A94ED146A69EE73
:10175000875A26EEA75A75EEC55A36EE256A84EDED
:10176000146A94ED156A66EE876A69EEA79A76EEBA
:10177000A96A76EE267AC4ED157A01F06FFB142083
:1017800003F0C8FEBDEC068BBDE8F8839FED2D7A13
:1017900077EE877A43E79FED267AF4EEC77AF1EE8B
:1017A00010FA21DD9FED287AF4EEC77AF1EE10FAF7
:1017B00005D8214B1B68012283F8712043E79FED78
:1017C000227AF4EEC77AF1EE10FA7FF73CAF9FED84
:1017D0001F7AF4EEC77AF1EE10FA05D8164B1B68A3
:1017E000022283F871202EE79FED187AF4EEC77A73
:1017F000F1EE10FA7FF727AF9FED0E7AF4EEC77A7D
:10180000F1EE10FA3FF61FAF0B4B1B68032283F873
:10181000712018E7AFF30080C7711CC7A9DC3740FF
:101820000C060020DB0F4940000034430080764066
:101830000000344200809D4308020020080600207A
:10184000B80200200000B4430000074300006143D9
:1018500010B5012408E0074B53F8240001F080F88C
:10186000012005F0F7FC0134042CF4DDFFF7B0FE95
:1018700010BD00BFB80200202DE9F0432DED068B0E
:1018800083B0554D2C68D4ED187ADFED549A67EE8D
:10189000A97A9FED537AC7EE877A17EE906A94ED96
:1018A000128A304607F08AFC08EE900A28EE289A41
:1018B00094ED13AA304607F0BBFC07EE100A6AEE5F
:1018C000077A79EE277AC4ED0A7A28EE478A68EE1D
:1018D0008A8A38EE288A84ED0B8A77EEC87A17EE6A
:1018E000900AFEF7C9FD06460F46D4ED1B7A9FED20
:1018F0003D9A67EEC97A67EEA97A17EE900AFEF76D
:10190000BBFD0022384BFEF739FF31A3D3E900239A
:10191000FEF70AFE02460B4630463946FEF74EFCFD
:10192000FFF7DAF820602C68D4ED0A8A94ED0B8A70
:1019300078EE887A17EE900AFEF79EFD804689467B
:10194000D4ED1B7A67EE897A67EEA97A17EE900AD2
:10195000FEF792FD0022244BFEF710FF1CA3D3E9F3
:101960000023FEF7E1FD06460F4602460B464046C1
:101970004946FEF723FCFFF7AFF8054660603246A4
:101980003B4640464946FEF717FCFFF7A5F8804660
:10199000A06078EEC87A17EE900AFEF76DFD024659
:1019A0000B4630463946FEF709FCFFF795F803462B
:1019B000E0602068022200924246294601F006FAC1
:1019C00003B0BDEC068BBDE8F08300BFAFF3008031
:1019D000000000002670E63F08020020DB0F4940AF
:1019E00000003443C43BEC430080664010B582B035
:1019F000124B1B68042283F87020C0B9012400E058
:101A00000134042C09DC0E4B53F824008379022B9B
:101A1000F6D0022100F004FFF2E700200223009339
:101A200003460246014601F0D1F902B010BD01F0B3
:101A30007BF9012001F046F9F7E700BF080200201A
:101A4000B80200202DE9F84F2DED048B08EE100AA6
:101A50008B461646984601F057F9022001F032F9FC
:101A600001F042F9FFF77CFDFFF7F2FE584B1868D2
:101A700001F0EEFD574B186801F0EAFD564B18686F
:101A800001F0E6FD07EE90BAF0EEE77A9FED537AAB
:101A9000F4EEC77AF1EE10FA0DDB07EE10BAB5EEF0
:101AA000C07AF1EE10FA06DDB2EE009AF0EE498A45
:101AB0004FF004091AE09FED4A7AF4EEC77AF1EE8E
:101AC00010FA0DD5F0EEC87AF4EEC77AF1EE10FAFE
:101AD00011D4B1EE0C9AF1EE048A4FF0040905E03E
:101AE000B1EE0C9AF1EE048A4FF0040903F0A2F86B
:101AF000074600252DE0B2EE0C9AF0EE498A4FF031
:101B00000309F3E7002500E00025FFF7A1FE354CAF
:101B1000D4F800A0DAF8502018EE101A2C4B1868F0
:101B200001F0ACFDCAF84800D4F800A0DAF854205F
:101B30005946284B186801F0A1FDCAF84C002468EA
:101B4000226E3146244B186801F06AFEE066FFF70A
:101B500093FE03F06FF8C01B40452FD2214B1B684A
:101B6000D3ED147A77EEC87AF0EEE77AF4EEE87AFD
:101B7000F1EE10FAC6D5D3ED157A07EE10BA77EE6E
:101B8000C77AF0EEE77AF4EEC97AF1EE10FABBD537
:101B9000D3ED187A07EE106A77EEC77AF0EEE77A9F
:101BA0009FED117AF4EEC77AF1EE10FA0DD50135FA
:101BB000EDB2A945A9D80020FFF718FF0020FFF7D4
:101BC00015FFBDEC048BBDE8F88F00259DE700BF35
:101BD0006C05002068050020640500200000FA4420
:101BE0000080894408020020CDCCCC3D2DE9F0478F
:101BF0002DED028B0E46032855D8DFE800F04B028E
:101C00001936B14B93ED068A93ED0A7AF0EE007A1D
:101C100077EE277A17EE909AAC4B1B78012B02D007
:101C20004FF007083DE001F516764FF0070838E061
:101C3000A54B93ED078AD3F82C90A44B1B78012B6E
:101C400006D0012B36D901F6B8364FF00F0828E040
:101C500001F6B836F7EE007A07EE109A77EE277A9B
:101C600017EE909A4FF00F081BE0974B93ED078A01
:101C7000D3F82C90954B1B78012B06D0012B1CD947
:101C800001F26C764FF014080BE001F6B8364FF015
:101C90000F0806E08C4B93ED058AD3F824904FF0A3
:101CA0000708012410E04FF007084FF0000908EE84
:101CB000109AF6E74FF00708F3E74FF00708F0E750
:101CC000022100F0ADFD0134042C06DC804B53F8FA
:101CD00024008379022BF6D0F2E7FFF741FCFFF7EF
:101CE000B7FD7C4B186801F0B3FC7B4B186801F022
:101CF000AFFC7A4B186801F0ABFC02F09BFF074683
:101D0000002541E00025704BD3ED037AF5EE407AD3
:101D1000F1EE10FA06D1D3ED047AF5EE407AF1EE49
:101D200010FA31D06E4B1C6894F87130032B1CD81C
:101D3000DFE803F006AE72930025E4E70025E2E752
:101D4000DFF884A1DAF80C1018EE102A614B18683D
:101D500001F094FCA064DAF81010614B1C684A464C
:101D60005D4B186801F08AFCE0645E4B1A685C4BBE
:101D70001C6800215C4B186801F052FDE066FFF71B
:101D80007BFD052005F066FA02F054FFC01BB0424F
:101D900035D24D4BD3ED037A77EEC87AF0EEE77A81
:101DA0009FED527AF4EEC77AF1EE10FAAAD8D3ED8D
:101DB000047A07EE109A77EEC77AF0EEE77A9FED95
:101DC0004B7AF4EEC77AF1EE10FAB5D8454BD3ED65
:101DD000007AF0EEE77A9FED467AF4EEC77AF1EEFC
:101DE00010FAABD50135EDB2A8458CD80020FFF72D
:101DF000FDFD082005F02EFA0120FFF7F7FD002079
:101E0000FFF7F4FD082005F025FA0120FFF7EEFDAD
:101E1000BDEC028BBDE8F087DFF8ACA0DAF80C105F
:101E200018EE102A2B4B186801F028FC2C4C236864
:101E300007EE900AF1EE677AC3ED127ADAF8101025
:101E40004A46254B186801F019FC236807EE900AF2
:101E5000F1EE677AC3ED137A87E7DFF86CA0DAF862
:101E60000C1018EE102A1B4B186801F007FC1C4BD5
:101E70001C6807EE900AF1EE677AC4ED137ADAF87F
:101E800010104A46144B186801F0F8FBA0646CE788
:101E9000DFF834A0DAF80C1018EE102A0E4B186890
:101EA00001F0ECFBE064DAF810104A46094B1868C0
:101EB00001F0E4FB0A4B1B6807EE900AF1EE677A2B
:101EC000C3ED127A51E700BF2C020020040200206B
:101ED000B8020020600500205C05002058050020A5
:101EE000080200200C06002064050020CDCC8C3FA9
:101EF000CDCCCC3D2DE9F0472DED028B08EE100A3C
:101F00008A4616469846012400E00134042C09DC78
:101F10004A4B53F824008379022BF6D0022100F0BB
:101F20007FFCF2E7FFF71CFBFFF792FC444B1868BD
:101F300001F08EFB434B186801F08AFB424B186896
:101F400001F086FB07EE90AAF0EEE77A9FED3F7A6C
:101F5000F4EEC77AF1EE10FA06D4F2EE008A02F03F
:101F600069FE0746002529E0F2EE048AF7E700251E
:101F700000E00025FFF76CFC354CD4F80090D9F850
:101F8000502018EE101A2E4B186801F077FBC9F894
:101F90004800D4F80090D9F854205146294B1868CD
:101FA00001F06CFBC9F84C002468226E3146264BC8
:101FB000186801F035FCE066FFF75EFC02F03AFEBF
:101FC000C01B404531D2224B1C68D4ED147A77EE09
:101FD000C87AF0EEE77AF4EEE87AF1EE10FAC6D5B8
:101FE000D4ED157A07EE10AA77EEC77AF0EEE77A0D
:101FF000B2EE087AF4EEC77AF1EE10FAB9D5D4ED64
:10200000187A07EE106A77EEC77AF0EEE77A9FED5E
:10201000117AF4EEC77AF1EE10FA0DD50135EDB272
:10202000042DA7D90020FFF7E1FC0020FFF7DEFC1C
:10203000BDEC028BBDE8F08700259BE7B8020020CD
:1020400054050020500500204C05002000007A4473
:1020500008020020CDCCCC3D2DE9F0472DED028BC0
:1020600008EE100A8A461646984600F04DFE0220F9
:1020700000F028FE00F038FE142005F0EBF8FFF722
:102080006FFAFFF7E5FB3D4B186801F0E1FA3C4BB6
:10209000186801F0DDFA3B4B186801F0D9FA02F03C
:1020A000C9FD0746002526E0002500E00025FFF7D2
:1020B000CFFB354CD4F80090D9F8502018EE101A08
:1020C0002E4B186801F0DAFAC9F84800D4F80090ED
:1020D000D9F8542051462A4B186801F0CFFAC9F8B4
:1020E0004C002468226E3146264B186801F098FB9C
:1020F000E066FFF7C1FB02F09DFDC01B404533D2F7
:10210000214B1C68D4ED147A77EEC87AF0EEE77AAA
:102110009FED1E7AF4EEC77AF1EE10FAC4D5D4ED35
:10212000157A07EE10AA77EEC77AF0EEE77AB0EEEE
:10213000007AF4EEC77AF1EE10FAB7D5D4ED187A3A
:1021400007EE106A77EEC77AF0EEE77A9FED107A25
:10215000F4EEC77AF1EE10FA0DD50135EDB2022D8D
:10216000A5D90020FFF742FC0020FFF73FFCBDECA3
:10217000028BBDE8F087002599E700BF48050020E5
:102180004405002040050020080200209A991940CB
:10219000CDCCCC3D074B196800220A601B685A6001
:1021A0009A60DA60044A1A6100221A7501225A758F
:1021B000704700BF080000209A99993E10B507EEBD
:1021C000900A0C4667EEA76A9FED097A37EE667AA9
:1021D000B1EE477A77EEA77ADFED066A67EEA67A68
:1021E000C7EE277A17EE900A06F0BCFF206010BDFC
:1021F000003739470000B642F0B583B004460D4DB4
:10220000284604F029F90C4E376801233B750B4929
:10221000204607F06DF80A4907F046F8786001A9F2
:10222000FFF7CCFF3368019ADA60284604F0D2F851
:1022300003B0F0BD08070020080000200080A34381
:1022400000001143034BDA69034B1B68526A9A6022
:10225000704700BFB80200200800002038B50446CF
:10226000094D284604F0F8F82046FFF7C5FF052081
:1022700002F0E6FC2046FFF7BFFF052004F0EAFF6E
:10228000284604F0A7F838BD0807002008B51E4B03
:102290001B68D3ED037A93ED027A77EEC77AB0EE3E
:1022A000E76AD3ED046AB4EEE66AF1EE10FA0AD5F5
:1022B00000221A7577EE277A17EE901A134BD86919
:1022C00000F054FB08BDF2EE035AB4EEE56AF1EEFD
:1022D00010FA0ED59FED0E6A66EE866AF5EEC07AAC
:1022E000F1EE10FA02DDF0EE667AE3E7F1EE667ADF
:1022F000E0E7F5EEC07AF1EE10FA02DDF0EE667A74
:10230000D8E7F1EE667AD5E708000020B802002091
:10231000CDCCCC3E38B5114B0022DA601A611049A1
:102320005961104A5A6299619A62D961DA621962F6
:102330001A6300241C72A3F8394083F83B405C63A5
:1023400083F838401C605C60074D09222946074825
:1023500004F0DAFE2C606C602C7238BD2C02002078
:102360000000A04300007043200600201809002050
:10237000082900D0704738B504460378EE2B00D00A
:1023800038BD431813F8013CFF2BF9D1214D0A4603
:102390000146284609F01DFA63782B722B7ADAB2CF
:1023A000112B2AD8102AEBD3A278E37843EA022330
:1023B00007EE903AB8EE677A2179627942EA012213
:1023C00007EE902AF8EE677AA079411EC9B2022979
:1023D000D6D8B3F5207FD3D2B2F5F07FD0D20D4B53
:1023E00083ED037AC3ED047A0B4B1A68022AC7DC2B
:1023F000084B134483F83900C2E7122AC0D1054BB9
:10240000D4F802005863A27983F83820034B0122E4
:102410001A70B5E72C0200202402002028020020B8
:102420000C4A51690C4B196092695A6000229A60FB
:10243000DA601A615A610949996100211977084BDC
:102440001A605A60074A9A6019734FF40062DA8181
:10245000704700BFB80200207C0200200000A441A9
:10246000680200200000F0410B4B1A68D2ED097A97
:10247000DFED0A6A67EEA67A9FED097A87EE876A32
:1024800083ED026A5A68D2ED097A67EEA67AC7EE42
:10249000876AC3ED036A70477C0200200000344362
:1024A000DB0F494010B52DED048B414B93ED046AD1
:1024B00093ED027A36EE476AF0EEC67A93ED065A4D
:1024C000DFED3C5A65EE255AF4EEE57AF1EE10FAAE
:1024D0003FD500221A77364BD3ED056AD3ED037A48
:1024E00076EEE76AF0EEE64AF4EEE45AF1EE10FA20
:1024F00011DCF1EE025AF4EEE54AF1EE10FA4CD599
:10250000DFED2D5A25EE255AF5EEC06AF1EE10FAF0
:1025100040DDF0EE456A37EE067A37EEA68A9FED8B
:10252000279A27EE097ADFED268A214CC7EE287A12
:1025300017EE901A206800F019FA68EE097AC7EED3
:10254000A87A17EE901A606800F010FABDEC048BC0
:1025500010BDF2EE036AF4EEE67AF1EE10FA0ED553
:10256000DFED157A65EE277AB5EEC06AF1EE10FA66
:1025700002DDB0EE676AAEE7B1EE676AABE7B5EED3
:10258000C06AF1EE10FA02DDB0EE456AA3E7B1EEE3
:10259000456AA0E7F1EE456ABDE7F5EEC06AF1EEE7
:1025A00010FA02DDF0EE456AB5E7F1EE456AB2E7F2
:1025B0007C020020CDCC4C3ECDCCCC3EDB0F494044
:1025C0000000344308B5074B186107EE901AF1EE8E
:1025D000677AC3ED057A01221A77034803F0FAFE01
:1025E00008BD00BF7C0200200807002006EE900A0C
:1025F000B3EE057AC6EE877A9FED067A67EE877AA4
:10260000DFED056A87EEA67A81ED007A82ED007A29
:10261000704700BF00003443DB0F494000B583B072
:102620006A4601A9FFF7E2FF00990198FFF7CAFF88
:1026300003B05DF804FB08B500200146FFF7C2FFB8
:1026400008BD000008B5FDF717FF0022094BFEF793
:1026500095F80022084BFDF7B1FDFEF715FA81B29F
:1026600001F50061822340F6340209B2022000F035
:10267000F3FC08BD0080B63F0000E03F08B5024B08
:102680005868FFF7DFFF08BD6802002008B5034B5C
:102690005860034803F09EFE08BD00BF680200209A
:1026A0000807002008B5022000F048FD08BD000022
:1026B00010B5084C204603F0CFFE074B01221A73D9
:1026C00040F6C412DA810A2004F0C4FD204603F06B
:1026D00081FE10BD080700206802002010B5084CDC
:1026E000204603F0B9FE074B00221A7340F2B6529F
:1026F000DA810A2004F0AEFD204603F06BFE10BD27
:10270000080700206802002008B5012000F016FD2F
:1027100008BD000010B504460621023000F082FC1E
:1027200010B12378FF2B00D010BD6378FF2BFBD1B5
:10273000A278A179637903EB01239BB2012A09D026
:10274000022AF1D107EE903AF8EE677A034BC3ED17
:10275000007AE9E7014A1382E6E700BF6802002039
:10276000034608460B70C3F307224A70C3F30742BF
:102770008A70C3F30763CB707047000030B583B035
:1027800004460D4B08221A6104229A600022DA6086
:1027900082685A6002F04EFA00F16405224652F84F
:1027A0000C0B01AB044902F0CFFB18B102F042FA66
:1027B000A842F3D903B030BDA0020020016002722C
:1027C000064B1B78A0F80930C37A23F0E003C372EC
:1027D000012380F854300023837170470C000020DF
:1027E00008B5C37A032262F30403C3720B4B1B7850
:1027F000A0F80930C37A23F0E003C372002304E099
:10280000C218002111730133DBB2072BF8D9FFF78F
:10281000B5FF0A2004F01EFD08BD00BF0C0000201B
:1028200038B504460D46C37A122262F30403C3721C
:102830000D4B1B78A0F80930C37A23F0E003C37274
:10284000002303E0E218002010730133072BF9DDA9
:1028500047F20503A38125742046FFF78FFFA5717A
:102860000A2004F0F7FC38BD0C00002008B5C37A3C
:10287000042262F30403C3720B4B1B78A0F80930E7
:10288000C37A23F0E003C372002304E0C2180021DE
:1028900011730133DBB2072BF8D9FFF76FFF0A2062
:1028A00004F0D8FC08BD00BF0C00002008B5C37AB6
:1028B000062262F30403C3720B4B1B78A0F80930A5
:1028C000C37A23F0E003C3720123037304E0C21848
:1028D000002111730133DBB2072BF8D9FFF74EFF4C
:1028E0000A2004F0B7FC08BD0C00002010B590F8D9
:1028F0000BC0122464F3040C80F80BC0084C94F84D
:1029000000C0A0F809C090F80BC02CF0E00C80F8D3
:102910000BC0818112680261FFF730FF10BD00BF5C
:102920000C00002008B5C37A112262F30403C372BD
:102930000A4B1B78A0F80930C37A23F0E003C37276
:102940008181022304E0C218002111730133DBB23C
:10295000072BF8D9FFF712FF08BD00BF0C000020BD
:1029600008B547F21901FFF7DDFF08BD30B583B0A8
:102970000446084601AD2946FFF7F2FE2A4647F213
:1029800016012046FFF7B2FF03B030BD30B583B06B
:102990000446084601AD2946FFF7E2FE2A4647F203
:1029A00017012046FFF7A2FF0A2004F053FC03B0F2
:1029B00030BD30B583B0044607EE901AB3EE0E7A00
:1029C000F4EEC77AF1EE10FA09DCBBEE0E7AF4EE03
:1029D000C77AF1EE10FA04D5FBEE0E7A01E0F3EEC1
:1029E0000E7A01AD294617EE900AFFF7B9FE2A4686
:1029F00047F20A012046FFF779FF03B030BD30B53A
:102A000083B00446084601AD2946FFF7A9FE2A46D1
:102A100047F218012046FFF769FF0A2004F01AFC6C
:102A200003B030BD10B504460B784A7843EA022360
:102A300047F21902934204D047F21B02934231D06D
:102A400010BDCA798B791B0443EA02634A7943EAD1
:102A500002230A79134307EE903A027A012A01D041
:102A6000032A03D107EE903AF1EE677AC4ED0E7AAD
:102A70009FED1B7A67EE877AC4ED107A94F8543094
:102A800023B1002384F85430C4ED117A94ED117A07
:102A900037EEC77A84ED137AC4ED117A02F0CAF8E2
:102AA000E063CDE7CA798B791B0443EA02634A7974
:102AB00043EA02230A79134307EE903A027A012A85
:102AC00001D0032A03D107EE903AF1EE677AC4ED04
:102AD0000B7A9FED037A67EE877AC4ED147AAFE73D
:102AE000000048420000000010B504463F2900F2F3
:102AF00093800023037161711178537843EA0123B5
:102B00001BB283F400431BB2A3839178D37843EACA
:102B100001231BB283F400431BB2217A012901D0A7
:102B2000032901D15B421BB2E3831179537943EA54
:102B300001231BB283F400431BB2238493791B024D
:102B40001BB2D27913436384636AA362A08B00B281
:102B500007EE900AF8EEE77A17EE900AFDF78CFC84
:102B600000224FF07C53FDF7DFFC00222E4BFDF7D7
:102B7000DBFC2BA3D3E90023FDF7D6FCFDF7ACFF6C
:102B80006062E08B00B207EE900AF8EEE77A17EE8B
:102B9000900AFDF771FC00224FF07C53FDF7C4FC56
:102BA0000022224BFDF7C0FCFDF796FFE062D4ED5A
:102BB0000B7A9FED1F7A67EE877AC4ED147A208C2A
:102BC00000B207EE900AF8EEE77A17EE900AFDF7EA
:102BD00053FC00224FF07C53FDF7A6FC0022154B5E
:102BE000FDF7A2FCFDF778FF2063638C1BB207EEB4
:102BF000903AF8EEE77AF2EE046A87EEA67A84ED70
:102C00000D7A10BD49080133062B3FF774AF11F060
:102C1000010FF7D02371F5E70123F5E7AFF300804B
:102C200000000060FB2109400000104000003E4011
:102C3000000048420000284008B51F4B18601F4B99
:102C40000340FE2B08D01C4BDB7803F01F03022B44
:102C500012D0112B22D008BD174BB3F80130DBB2D4
:102C60005A1ED2B2062AF6D8154A52F823300868FE
:102C70004A6858619A61EEE70F4BB3F801C05FFAFA
:102C80008CF0431EDBB2062BE5D80A464FEA1C2126
:102C90000B4B53F82000FFF727FFDCE7064BB3F898
:102CA0000130DBB25A1ED2B2062AD4D8044A52F8F6
:102CB0002300FFF7B7FECEE79C020020FF00001FB5
:102CC000B802002038B50546012407E02946054B27
:102CD00053F82400FFF7A4FD0134E4B2042CF5D925
:102CE00038BD00BFB802002010B5012406E0054B36
:102CF00053F82400FFF774FD0134E4B2042CF6D934
:102D000010BD00BFB802002010B5012406E0054B3D
:102D100053F82400FFF7AAFD0134E4B2042CF6D9DD
:102D200010BD00BFB802002010B5FFF7EDFF094C41
:102D30002046FFF7BBFD04F15800FFF7B7FD04F193
:102D4000B000FFF7B3FD04F58470FFF7AFFDFFF7A8
:102D5000CBFF10BDE003002038B5184A184B536074
:102D600003F15801916003F1B001D16003F5847360
:102D70001361012408E022461249104B53F8240045
:102D8000FFF71CFD0134E4B2042CF4D9FFF7CCFFAB
:102D900001240DE0094D4FF0824155F82400FFF762
:102DA000F5FD094955F82400FFF729FE0134E4B286
:102DB000042CEFD90220FFF785FF38BDB8020020B0
:102DC000E00300209C0500200000B84138B52DED3F
:102DD000048B06EE901A06EE103A089C07EE900A55
:102DE000B1EE677ADFED187A86EEA79A06EE902AA2
:102DF000F1EE666AC6EEA78A86EE278A134DC7EE05
:102E0000277A17EE901A6868FFF7D3FD204604F082
:102E100021FA19EE101AA868FFF7CBFD204604F03E
:102E200019FA18EE901AE868FFF7C3FD204604F07F
:102E300011FA18EE101A2869FFF7BBFD204604F0BE
:102E400009FABDEC048B38BD00004842B8020020EE
:102E500008B5392002F062FB08BD000010B539202A
:102E600002F058FB054C21222146054804F04CF99C
:102E700021220021204608F01DFC10BD5006002034
:102E8000D008002038B50546052407E02946054B43
:102E900053F82400FFF7C4FC0134E4B2062CF5D942
:102EA00038BD00BFB802002038B5134A134B536138
:102EB00058339361052408E0224611490E4B53F81C
:102EC0002400FFF77BFC0134E4B2062CF4D905247E
:102ED0000CE0094D0B4955F82400FFF757FD0A494E
:102EE00055F82400FFF78BFD0134E4B2062CF0D92D
:102EF0000120FFF7C7FF38BDB802002030030020D3
:102F00009C050020000020410000A04110B50524D0
:102F100006E0054B53F82400FFF762FC0134E4B2ED
:102F2000062CF6D910BD00BFB802002010B505244C
:102F300006E0054B53F82400FFF798FC0134E4B297
:102F4000062CF6D910BD00BFB802002010B5FFF75F
:102F5000EDFF054C2046FFF7A9FC04F15800FFF7F0
:102F6000A5FCFFF7D3FF10BD3003002008B50146D4
:102F7000024BD869FFF754FC08BD00BFB80200201F
:102F800010B50A4C0A48E06107220A49FFF716FC0F
:102F90004FF08241E069FFF7F9FC0749E069FFF76C
:102FA0002EFD0120FFF7E2FF10BD00BFB802002098
:102FB000D80200209C0500200000A04108B5FFF7C2
:102FC000CBFEFFF771FFFFF7DBFF00F0E3F808BD72
:102FD00008B5024BD869FFF703FC08BDB802002012
:102FE00008B5024BD869FFF741FC08BDB8020020C4
:102FF00008B5FFF7F5FF034BD869FFF757FCFFF75C
:10300000E7FF08BDB802002000231A4605E010F8CB
:1030100003C06244D2B20133DBB28B42F7D3D04358
:10302000C0B2704700231A4605E010F803C062449E
:10303000D2B20133DBB28B42F7D3FF2A14BF002098
:103040000120704708B50A460A230146014803F0EB
:103050001AFF08BD600900202DE9F04F8BB006462D
:103060000193022856D001285CD040F648539A427A
:1030700000D91A465FFA81F9C1F307255FFA82F891
:10308000140AFF238DF818308DF819308DF80C6074
:103090004FF00A0B8DF80DB04FF0030A8DF80EA01B
:1030A0004FF029038DF80F30019B8DF810308DF80B
:1030B00011908DF8125000278DF813708DF8147050
:1030C0008DF815808DF816400B2103A8FFF79CFFA3
:1030D0008DF81A608DF81BB08DF81CA04FF02902F6
:1030E0008DF81D20019B8DF81E308DF81F908DF8F6
:1030F00020508DF821708DF822708DF823808DF886
:1031000024408DF825000E2106A8FFF79BFF0BB089
:10311000BDE8F08F00290DDBB1F5805FA5DD4FF430
:103120008051A2E7002907DBB1F5805F9DDD4FF4F8
:1031300080519AE7002198E7002196E7F0B585B025
:103140000546FF238DF808308DF809308DF8000012
:1031500004278DF8017002248DF8024038268DF87E
:1031600003608DF8044005216846FFF74DFF8DF898
:103170000A508DF80B708DF80C408DF80D608DF8AD
:103180000E408DF80F0008210DEB0100FFF75AFFEC
:1031900005B0F0BD70B5442007F070FB0446974BB6
:1031A0001860442007F06AFB954B1860442007F034
:1031B00065FB944B1860442007F060FB924B18604D
:1031C000442007F05BFB914B1860442007F056FB4E
:1031D0008F4B1860442007F051FB8E4B1860442041
:1031E00007F04CFB8C4B1860442007F047FB8B4BDF
:1031F0001860442007F042FB894B1860442007F018
:103200003DFB884B1860442007F038FB864B186064
:10321000F4B1864B2360794E3468854B6360854BEF
:10322000A360854BE360002525616561834BA36145
:10323000E36101F0FFFC2062336800225A629A6267
:10324000DA621A635D639D63DD63012283F84020C7
:103250006B4B1B68F3B17A4A1A60694E3468744B41
:103260006360784BA360744BE36000252561656162
:10327000724BA361E36101F0DDFC20623368002240
:103280005A629A62DA621A635D639D63DD630122AA
:1032900083F840205B4B1B68FBB16B4A1A60594EA8
:1032A0003468634B6360694BA360634BE360002544
:1032B00025616561664BA361664BE36101F0BAFC71
:1032C0002062336800225A629A62DA621A635D638E
:1032D0009D63DD63012283F840204B4B1B68FBB1EB
:1032E0005D4A1A60484E3468514B63605B4BA36083
:1032F000514BE360002525616561594BA361594B32
:10330000E36101F097FC2062336800225A629A62FE
:10331000DA621A635D639D63DD63012283F84020F6
:103320003A4B1B68FBB1504A1A60384E34684F4B19
:1033300063604F4BA360404BE360002525616561EE
:103340004C4BA3614C4BE36101F074FC2062336889
:1033500000225A629A62DA621A635D639D63DD63DA
:10336000012283F840202A4B1B68FBB1434A1A60B4
:10337000274E34682E4B6360414BA3602E4BE360B5
:103380000025256165613F4BA3613F4BE36101F07F
:1033900051FC2062336800225A629A62DA621A6330
:1033A0005D639D63DD63012283F84020194B1B6838
:1033B000FBB1364A1A60174E3468354B6360354BA3
:1033C000A3601D4BE360002525616561324BA3615D
:1033D000324BE36101F02EFC2062336800225A6216
:1033E0009A62DA621A635D639D63DD63012283F88A
:1033F0004020094B1B68002B72D051E06C05002067
:103400006805002064050020600500205C050020A0
:103410005805002054050020500500204C050020D0
:103420004805002044050020400500203333834038
:103430006F12833AA4709D3FBC74933C0000964485
:103440008FC28540E17AB43F9A99E9404260253FB6
:103450000000824200005C430000F0401F851B40DA
:10346000000020430000024466664E410AD7A33C98
:10347000CDCC8C4000004843000043443333C3406C
:10348000D7A3F03E0000484200009643CDCC0C404C
:103490000AD7233C3D0AD73E0000E1430000EB433E
:1034A000554A1A60554E3468554B6360554BA360BE
:1034B000554BE360002525616561544BA361544B76
:1034C000E36101F0B7FB2062336800225A629A621E
:1034D000DA621A635D639D63DD63012283F8402035
:1034E0004C4B1B68FBB14C4A1A604A4E3468444B43
:1034F00063604A4BA360444BE3600025256165612E
:10350000474BA361474BE36101F094FB20623368B2
:1035100000225A629A62DA621A635D639D63DD6318
:10352000012283F84020404B1B68FBB13F4A1A60E0
:103530003D4E34683E4B63603E4BA360324BE360CC
:103540000025256165613C4BA3613C4BE36101F0C3
:1035500071FB2062336800225A629A62DA621A634F
:103560005D639D63DD63012283F84020344B1B685B
:10357000F3B1344A1A60324E34682D4B6360324BDB
:10358000A360214BE3600025256165611F4BA361AA
:10359000E36101F04FFB2062336800225A629A62B5
:1035A000DA621A635D639D63DD63012283F8402064
:1035B000264B1B68FBB1184A1A60244E3468104B26
:1035C0006360164BA360104BE360002525616561C5
:1035D000134BA361134BE36101F02CFB20623368B2
:1035E00000225A629A62DA621A635D639D63DD6348
:1035F000012283F8402070BD0000204050050020CB
:103600000AD7233C8FC2753EBC74933C0000E14353
:103610000000EB434C0500200000C040D7A3F03E63
:10362000000082420000964348050020CDCC904126
:103630006F12833A14AE3740000016440000E14494
:10364000440500201F850B40AE47613E4005002029
:1036500098B138B5044600250561456101F0EAFAE4
:10366000206200236362A362E36223636563A56350
:10367000E563012384F8403038BD704710B52DED67
:10368000028B044690F84030002B40F0928008EE08
:10369000901A08EE102A01F0CDFA236AC31A07EE39
:1036A000903AF8EE677A9FED597A87EE875A206252
:1036B00084ED035A78EEC87A94ED007A27EE277AE3
:1036C00094ED046A65EE276A36EE266A84ED046A94
:1036D000D4ED016AF5EE406AF1EE10FA1CD0D4ED9B
:1036E000065AC5EEA64AB4EEE46AF1EE10FA69DDB8
:1036F000C4ED044AF4EEC75AF1EE10FA6CD5F5EEBB
:10370000C07AF1EE10FA67DD94ED046ADFED405AFD
:1037100026EE256A84ED046A94ED046A26EE866A34
:10372000B5EEC05AF1EE10FA63DDD4ED055A77EE2E
:10373000E55AC5EE856ADFED375A66EEA56AD4ED27
:103740000E5ADFED354A65EEA45A76EEA56AC4ED51
:103750000E6AD4ED025A65EEA66A37EE067A37EEA7
:10376000267AD4ED066AF4EEC76AF1EE10FA08D4B0
:10377000F1EE666AF4EEC76AF1EE10FA01DCF0EEE3
:10378000476A94ED077A94ED0D6A76EEC65A25EEF7
:10379000077AB4EEE57AF1EE10FA2DD576EE076AE7
:1037A000C4ED0D6AC4ED057A16EE900ABDEC028BED
:1037B00010BD002380F8403001F03CFA2062DFEDBC
:1037C000176AF1E7F1EE644AB4EEE46AF1EE10FA3A
:1037D00090D5C4ED044A8DE7F1EE655AF4EEC75A70
:1037E000F1EE10FA98DDF5EEC07AF1EE10FA93D50D
:1037F0008AE7DFED0A6A9EE7B1EE475AF4EEC55A52
:10380000F1EE10FACCD576EE476AC9E700007A44AB
:103810006666663FCDCC4C3FCDCC4C3E00000000F0
:1038200010B52DED028B044690F84030002B40F08F
:10383000928008EE901A08EE102A01F0FBF9236A34
:10384000C31A07EE903AF8EE677A9FED597A87EE41
:10385000875A206284ED035A78EEC87A94ED007A94
:1038600027EE277A94ED046A65EE276A36EE266A1B
:1038700084ED046AD4ED016AF5EE406AF1EE10FAC7
:103880001CD0D4ED065AC5EEA64AB4EEE46AF1EEB9
:1038900010FA69DDC4ED044AF4EEC75AF1EE10FAED
:1038A0006CD5F5EEC07AF1EE10FA67DD94ED046A9E
:1038B000DFED405A26EE256A84ED046A94ED046A31
:1038C00026EE866AB5EEC05AF1EE10FA63DDD4ED4D
:1038D000055A77EEE55AC5EE856ADFED375A66EE92
:1038E000A56AD4ED0E5ADFED354A65EEA45A76EEA0
:1038F000A56AC4ED0E6AD4ED025A65EEA66A37EEEB
:10390000067A37EE267AD4ED066AF4EEC76AF1EE4F
:1039100010FA08D4F1EE666AF4EEC76AF1EE10FA16
:1039200001DCF0EE476A94ED077A94ED0D6A76EECD
:10393000C65A25EE077AB4EEE57AF1EE10FA2DD5E7
:1039400076EE076AC4ED0D6AC4ED057A16EE900AAC
:10395000BDEC028B10BD002380F8403001F06AF905
:103960002062DFED176AF1E7F1EE644AB4EEE46A33
:10397000F1EE10FA90D5C4ED044A8DE7F1EE655AE8
:10398000F4EEC75AF1EE10FA98DDF5EEC07AF1EEDA
:1039900010FA93D58AE7DFED0A6A9EE7B1EE475A3F
:1039A000F4EEC55AF1EE10FACCD576EE476AC9E7C7
:1039B00000007A446666663FCDCC4C3FCDCC4C3E91
:1039C0000000000008B50C480C4B0360092343605D
:1039D00000238360C3604FF40032026143610376C9
:1039E00043768376C3760377437701F03DF900B9D8
:1039F00008BD00F04FFCFBE79C0500200064004080
:103A000008B50C480C4B0360092343600023836016
:103A1000C3604FF4003202614361037643768376DC
:103A2000C3760377437701F01FF900B908BD00F0B2
:103A300031FCFBE7740500200068004010B58AB037
:103A400000230593069307930893099303683E4A5E
:103A5000934204D03D4A934234D00AB010BD3C4A50
:103A6000136801331360012B1FD000240194394BDC
:103A70001A6B42F008021A631B6B03F008030193F0
:103A8000019B0323059302220692089309230993BD
:103A900005A9314801F04AFF22460521142001F012
:103AA00029FD142001F036FDD7E700230093294BB0
:103AB0001A6C42F000721A641B6C03F000730093DE
:103AC000009BD2E700230293224B1A6C42F08062E3
:103AD0001A641B6C03F080630293029B1C4A1368F8
:103AE00001331360012B21D000240494194B1A6B6D
:103AF00042F002021A631B6B03F002030493049B5F
:103B00004FF440530593022306930323089309239C
:103B1000099305A9114801F009FF2246062140201A
:103B200001F0E8FC402001F0F5FC96E70023039348
:103B3000084B1A6C42F000721A641B6C03F000739D
:103B40000393039BD0E700BF00640040006800407F
:103B50007005002000380240000C024000040240C2
:103B600070B58AB000240594069401250795009449
:103B7000019402940394049408956946094801F05D
:103B800019F90E2305930694079500940194029465
:103B90000394049408956946034801F00BF90AB0B0
:103BA00070BD00BF9C0500207405002010B582B0D8
:103BB000002400941A4B1A6B42F480021A631A6BA9
:103BC00002F480020092009A01941A6B42F40012EF
:103BD0001A631B6B03F400130193019B224605211A
:103BE0000C2001F087FC0C2001F094FC22460621F9
:103BF0000E2001F07FFC0E2001F08CFC22460521F6
:103C0000112001F077FC112001F084FC22460721ED
:103C1000392001F06FFC392001F07CFC02B010BDAE
:103C20000038024008B512E01F48C3688268416846
:103C30000068FDF707FF1C4B00229A740122DA741A
:103C40001A4B186803F06DFB0A2003F003FB164BB8
:103C50009B7C002BF8D0144BDB7C002BF4D1124B57
:103C60005B7C032BE7D801A252F823F0293C000823
:103C70007D3C0008893C0008993C00080A4BD96843
:103C8000187CFDF7B3FFD6E70748C3688268416830
:103C90000068FEF72FF9CEE70348C36882684168E1
:103CA0000068FEF7D9F9C6E7E4050020C805002042
:103CB00008B512E0164B1878FDF73CF8144B0022BB
:103CC0001A7101225A71134802F0C6FB124B186890
:103CD00003F027FB0A2003F0BDFA0D4B1B79002BE4
:103CE000F8D00B4B5B79002BF4D10A4802F072FB41
:103CF000074BDB78012BDDD0022B04D0002BDDD16C
:103D0000FDF700F8DAE7024B1878FDF7CDFAD5E7B2
:103D1000DC05002008070020C405002008B5FFF7D7
:103D20004DF9FCF7E3FF00F09FFD3C2003F092FA11
:103D300000F09AFD4FF4FA6003F08CFA00F058FBA3
:103D400000F05CFB4FF47A7003F084FAFAE70000AD
:103D500008B5142003F07EFAFEF7D6FCFEF7A2FCAD
:103D6000024B198A024807F05FFBF2E76802002065
:103D7000A8D2000808B5154A0121084603F078FAD0
:103D8000134B1860134A0121084603F071FA124BD5
:103D90001860124A0021124803F002FA114B186011
:103DA000114A0021114803F0FBF9114B1860114A28
:103DB0000021114803F0F4F9104B1860104A00215B
:103DC000104803F0EDF9104B186008BD38D3000817
:103DD000C805002028D30008C4050020B4D300087B
:103DE000253C0008D805002090D30008B13C00080D
:103DF000D40500206CD300081D3D0008D00500202C
:103E000048D30008513D0008CC0500202DE9F047BB
:103E10008EB009AD002409940A940B940C940D946F
:103E200001944E4B1A6B42F010021A631A6B02F0A7
:103E300010020192019A02941A6B42F040021A6336
:103E40001A6B02F040020292029A03941A6B42F03B
:103E500001021A631A6B02F001020392039A04949E
:103E60001A6B42F008021A631A6B02F008020492FD
:103E7000049A05941A6B42F020021A631A6B02F03E
:103E800020020592059A06941A6B42F480721A6316
:103E90001A6B02F480720692069A07941A6B42F02B
:103EA00080021A631A6B02F080020792079A089444
:103EB0001A6B42F002021A631B6B03F002030893B1
:103EC000089B274F22460121384601F033FEDFF8D8
:103ED00094A022460121504601F02CFEDFF8889084
:103EE00022464FF4C051484601F024FEDFF87C80A2
:103EF00001224FF40061404601F01CFE01224FF404
:103F00008041384601F016FE44F201030993012670
:103F10000A960B940C942946384601F007FD099641
:103F20000A960B940C942946504601F0FFFC4FF47E
:103F3000C05309930A960B940C942946484601F005
:103F4000F5FC4FF4006309930A960B940C942946F0
:103F5000404601F0EBFC0EB0BDE8F08700380240AF
:103F60000014024000200240001C024000100240E9
:103F700010B58AB0044601AB03AA002101F059F83C
:103F800030B923680B4A934204D00B4A934209D0BC
:103F90000AB010BD059B042BFAD101A90498FEF7C5
:103FA0004BFEF5E7059B042BF2D101A90498FEF71F
:103FB00043FEEDE7006400400068004030B585B086
:103FC000844B98420DD0844B984200F0DD80834BA7
:103FD000984200F0DD80824B984200F0EC8005B002
:103FE00030BD00F027FE7F4B18607F4D7F4CAC4604
:103FF000BCE80F000FC4BCE80F000FC4DCF80030B1
:10400000237021220021284607F054FB002390E072
:10401000591C7648415C532940F09280D91D415C7F
:10402000090209B29C1D005D014307EE901AF8EEEB
:10403000E77A9FED6F7A67EEC77A9FED6E7A67EE4B
:10404000877A6D49C1ED007A6C49D1ED007AF4EEC2
:10405000C77AF1EE10FA45D59FED697AF4EEC77A8A
:10406000F1EE10FA3EDD6449D1ED006A9FED657A0C
:10407000F4EEC76AF1EE10FA34D5D1ED006A9FED87
:10408000627AF4EEC76AF1EE10FA2BDD5F48016840
:1040900001310160584991ED007ADFED567AB4EEB6
:1040A000677AF1EE10FA4BD091ED007ADFED567A97
:1040B000B4EE677AF1EE10FA42D05449D1ED007AAD
:1040C000F8EEE77A9FED527A67EE877A4A4991EDEA
:1040D000007A77EE877A4F48C0ED007A0868474942
:1040E00008602DE09FED477AF4EEC77AF1EE10FA02
:1040F000D0D59FED457AF4EEC77AF1EE10FAC9DD1E
:104100003D4991ED007ADFED3E7AB4EEE77AF1EECB
:1041100010FABFDD91ED007ADFED367AB4EEE77A82
:10412000F1EE10FAB6D53948016801390160B1E7FE
:104130000133192B22DC2D4AD25C552A3FF468AF9B
:10414000552AF5D15A1C29498A5C522AF0D1DA1D28
:104150008A5C120212B2981D095C0A4307EE902A8B
:10416000F8EEE77A9FED227A67EEC77A9FED2A7A1A
:1041700067EE877A294AC2ED007AD9E721221A49E7
:10418000144802F0C1FF2AE7254B01221A7026E7E6
:10419000244C01AB94E8070003C31A7001A8FEF792
:1041A000B9FA0023236063602372092221460B4879
:1041B00002F0AAFF13E71C4C09212046FEF7D8F8AD
:1041C000002323606360237209222146044802F021
:1041D0009BFF04E7D0080020A80900206009002008
:1041E0001809002004060020500600202C0600209C
:1041F00000000038000034431006002000060020B4
:104200000000B4420000B4C2000034C3FC0500202A
:104210000000B4430C0600200000FA440806002009
:1042200071060020140600202006002008B503684F
:10423000144A934203D0144A934203D008BD00F0BD
:10424000EDFCFBE7114B1B784BB1012BF6D1FEF7D0
:1042500029F9FEF71BF80D4B00221A70EEE7FEF766
:1042600003F9FDF7EFFFFEF709FAC82340F64852BD
:104270000749B1F90E100120FEF7EEFE034B0122B3
:104280001A70DBE700140040000C0040F805002025
:104290006802002072B6FEE710B594B008AC302278
:1042A0000021204607F006FA0023039304930593A8
:1042B000069307930193234A116C41F080511164D6
:1042C000126C02F080520192019A02931E4B1A68FE
:1042D00042F440421A601B6803F440430293029B7D
:1042E000012308934FF48033099302230E934FF474
:1042F00080020F9206221092B4221192129304238C
:104300001393204601F05AFCA8B901F019FCA0B99A
:104310000F23039302230493002305934FF4A05328
:1043200006934FF480530793052103A801F096FEEE
:1043300028B914B010BDFFF7ADFFFFF7ABFFFFF7D3
:10434000A9FF00BF003802400070004008B500F02F
:104350004BFCFFF7A1FFFFF759FDFFF727FC00F02B
:10436000ABFA00F0C3FA00F0F5FAFFF72BFB00F010
:1043700023FA00F085F9FFF743FB00F0D1FA164D60
:1043800009222946154802F0BFFE154C0922214694
:10439000144802F0B9FE00232B606B602B7223607F
:1043A00063602372FFF7DCFB0F4C204600F09EFD9C
:1043B0000221204600F0F2FE0C4C204600F096FD53
:1043C0000221204600F0EAFE02F0BCFEFFF7D2FC1C
:1043D00002F0CAFEFEE700BF2006002018090020F8
:1043E00014060020600900209C05002074050020B0
:1043F00008B5FEF7ABFDFEF7FBFD08BD08B5134899
:1044000007F07AF8FFF7F4FFFEF768F941F2883019
:1044100002F020FF0E48FEF701F941F2883002F069
:1044200019FF0220FDF704F80A48FEF7F7F84FF4E9
:10443000FA7002F00FFF41F2883002F00BFF41F2F8
:10444000883002F007FFFEF7F6F808BD04D3000835
:10445000000087430000484200B583B0002200926C
:104460000D4B596C41F480415964596C01F4804101
:10447000009100990192196C41F0805119641B6CF4
:1044800003F080530193019B0F216FF0010001F0B5
:1044900031F803B05DF804FB0038024030B589B054
:1044A000044600230193214B1A6C42F020021A6447
:1044B0001B6C03F020030193019B02A903A801F0E8
:1044C000A3FE069BCBB901F07FFE0346184AA2FB70
:1044D00003239B0C013B1748174A026040F2E73266
:1044E000C2604360002303618360836102F0ECF8E3
:1044F000054630B1284609B030BD01F065FE4300E5
:10450000E4E70C4801F066FF05460028F2D13720A9
:1045100001F000F80F2C01D90125EBE7002221461C
:10452000372000F0E7FF054B1C60E3E7003802404E
:1045300083DE1B4374060020001400401800002096
:10454000FEE7FEE7FEE7FEE7FEE7704708B5024834
:1045500001F0FEF808BD00BFB007002008B5024812
:1045600001F0F6F808BD00BF7008002008B5024849
:1045700001F0EEF808BD00BF1008002008B50248A1
:1045800000F02AFE08BD00BF9C05002008B50248C7
:1045900001F07FFF08BD00BF0807002008B50248F2
:1045A00001F077FF08BD00BF7406002008B502487F
:1045B00001F0CEF808BD00BF5007002008B5024842
:1045C00000F00AFE08BD00BF7405002001207047FE
:1045D00008B507F0D1F8162303604FF0FF3008BD8F
:1045E00008B54FF0FF31FFF7F3FFFEE770B50C465B
:1045F0001646002506E0AFF30080214601F8010BC6
:1046000001350C46B542F6DB304670BD4FF0FF3049
:1046100070474FF400534B600020704701207047F3
:104620000020704710B503460C4A0D490D4800683C
:1046300040B10C4800680344521A934206D8094A14
:10464000136010BD0748084C0460F2E707F094F8C7
:104650000C2303604FF0FF30F3E700BF000003209E
:1046600000040000BC06002090540020034AD2F849
:10467000883043F47003C2F88830704700ED00E0E2
:1046800000B587B00023029303930493059300932E
:1046900001931548154A026059224260836040F632
:1046A000C312C2600361836102F00EF890B94FF447
:1046B0008053029302A90C4802F011F968B9002353
:1046C000009301936946084802F05CFA40B907B0CC
:1046D0005DF804FBFFF7DEFDE9E7FFF7DBFDEEE742
:1046E000FFF7D8FDF3E700BF08070020000C0040EB
:1046F00002680E4B9A4200D0704700B583B000228A
:10470000019203F50B33196C41F0080119641B6C1D
:1047100003F008030193019B0621322000F0EAFE1A
:10472000322000F0F7FE03B05DF804FB000C0040FF
:104730000268094B9A4200D0704782B0002301936F
:10474000064B1A6C42F040021A641B6C03F04003E3
:104750000193019B02B070470018004000380240EE
:1047600000B587B00023019302930393049305934C
:1047700002680E4B9A4202D007B05DF804FB00239A
:1047800000930B4B1A6B42F080021A631B6B03F011
:1047900080030093009B402301930223029309238B
:1047A000059301A9034801F0C1F8E5E700180040AE
:1047B00000380240001C024000B589B0002301937C
:1047C0000293039304930593069307931148124AA7
:1047D00002604360836048F23422C26003618361F7
:1047E00001F09EFF80B960230193002202920392A0
:1047F000059201A9074801F0F7FF40B90548FFF706
:10480000AFFF09B05DF804FBFFF744FDEBE7FFF7EE
:1048100041FDF3E7C006002000180040642800D9DD
:104820006420054BDA6802FB0000044AA2FB00206A
:1048300040091B6858637047C00600201F85EB5174
:1048400008B53220FFF7EAFF0021024802F0D6F84F
:1048500008BD00BFC006002008B50021014802F0D5
:104860004BF908BDC006002008B5FFF7E9FF282076
:1048700002F0F0FCFFF7F0FF08BD000000B583B0C8
:1048800001904FF6FF73012201A9034802F0FBFAE1
:10489000019803B05DF804FBA809002070B50C4630
:1048A0001646002504E014F8010BFFF7E7FF013579
:1048B000B542F8DB304670BD08B50A480A4B0360C4
:1048C0004FF4E133436000238360C36003610C2233
:1048D00042618361C36102F0A6FA00B908BDFFF727
:1048E000D9FCFBE7A80900200078004008B50A4879
:1048F0000A4B03604FF4E133436000238360C360DD
:1049000003610C2242618361C36102F08CFA00B939
:1049100008BDFFF7BFFCFBE760090020007C0040FA
:1049200008B50A480A4B03604FF4E13343600023A3
:104930008360C36003610C2242618361C36102F042
:1049400072FA00B908BDFFF7A5FCFBE718090020C3
:104950000048004008B50A480A4B03604FF4E133B1
:10496000436000238360C36003610C224261836162
:10497000C36102F058FA00B908BDFFF78BFCFBE7F2
:10498000D00800200014014030B58FB00446002349
:1049900009930A930B930C930D930368824A9342F5
:1049A0000BD0824A934245D0814A93427DD0814ABE
:1049B000934200F0B9800FB030BD002501957E4BC9
:1049C0001A6C42F080421A641A6C02F08042019222
:1049D000019A02951A6B42F010021A631B6B03F0E6
:1049E00010030293029B4FF4C073099302230A93AE
:1049F00003230C9308230D9309A9704800F096FF38
:104A00006F48704B03604FF0206343608560C56062
:104A10004FF48063036145618561C561056245624C
:104A200000F0FCFD18B9664BE3639C63C3E7FFF736
:104A300031FCF8E7002503955F4B1A6C42F0004209
:104A40001A641A6C02F000420392039A04951A6BDE
:104A500042F010021A631B6B03F010030493049BD3
:104A60000323099302220A920C9308230D9309A9A8
:104A7000524800F05BFF5448544B03604FF02063F2
:104A800043608560C5604FF4806303614561856163
:104A9000C5610562456200F0C1FD18B94A4BE36388
:104AA0009C6388E7FFF7F6FBF8E700250595424B86
:104AB0001A6C42F480221A641A6C02F48022059265
:104AC000059A06951A6B42F008021A631B6B03F0F5
:104AD00008030693069B4FF44073099302230A933D
:104AE00003230C9307230D9309A9394800F01EFFF7
:104AF0003848394B03604FF0006343608560C56000
:104B00004FF48063036145618561C5614FF40033F3
:104B10000362456200F082FD18B92E4BE3639C638B
:104B200049E7FFF7B7FBF8E700250795224B5A6CDA
:104B300042F020025A645A6C02F020020792079A4F
:104B400008951A6B42F040021A631B6B03F0400396
:104B50000893089B4FF48443099302230A93032389
:104B60000C9308230D9309A91C4800F0DFFE1C4894
:104B70001C4B03604FF0206343608560C5604FF4B9
:104B80008063036145618561C5614FF480330362D1
:104B9000456200F043FD18B9114BE3639C630AE7DB
:104BA000FFF778FBF8E700BF00780040007C00408A
:104BB000004800400014014000380240001002404C
:104BC000700800205860024010080020A0600240D9
:104BD000000C0240B007002028600240001802408C
:104BE000500700202864024008B50B4B1A6842F4B5
:104BF00000721A601A6842F480621A601A6842F4FD
:104C000080721A60032000F063FC0F20FFF746FC5F
:104C1000FFF722FC002008BD003C0240034A116857
:104C2000034B1B780B441360704700BFF009002052
:104C300014000020014B1868704700BFF0090020E5
:104C400038B50446FFF7F6FF0546B4F1FF3F02D042
:104C5000044B1B781C44FFF7EDFF401BA042FAD326
:104C600038BD00BF14000020002800F0A18038B536
:104C7000044690F82030D3B12268136843F0010352
:104C80001360FFF7D7FF054623685A6812F0010F3B
:104C900010D1FFF7CFFF401B0A28F5D9636A43F410
:104CA00000336362052384F82030012038BDFEF70D
:104CB000C5FEE1E71A6822F002021A60FFF7BAFFA8
:104CC000054623685A6812F0020F0DD0FFF7B2FFB5
:104CD000401B0A28F5D9636A43F400336362052355
:104CE00084F820300120E1E7227E012A3DD01A68B5
:104CF00022F080021A60637E012B3BD02268136889
:104D000023F040031360A37E012B39D0226813687F
:104D100023F020031360E37E012B37D02268136851
:104D200043F010031360237F012B35D022681368F2
:104D300023F008031360637F012B33D022681368CC
:104D400023F004031360A368E2681343226913434A
:104D5000626913436268013A21681343CB61002002
:104D60006062012384F82030A0E71A6842F08002D4
:104D70001A60C0E72268136843F040031360C2E77B
:104D80002268136843F020031360C4E722681368A5
:104D900023F010031360C6E72268136843F008038A
:104DA0001360C8E72268136843F004031360CAE77E
:104DB0000120704790F82030013BDBB2012B05D970
:104DC000436A43F4802343620120704730B5464B69
:104DD000D3F8002242F00102C3F80022D3F80022E7
:104DE00022F47C52C3F80022D3F80022486A42EA37
:104DF0000022C3F800224A6902F01F02012000FAD3
:104E000002F2D3F81C026FEA020C20EA0200C3F897
:104E10001C02CB69C3B9344BD3F80C020CEA000076
:104E2000C3F80C028C884869CD6844EA05444830D0
:104E300043F830408C68088840EA04404C6904F12B
:104E4000480E03EBCE035860CB69012B1ED08B6953
:104E5000002B33D12448D0F804320CEA0303C0F805
:104E600004320B698BBB2048D0F814320CEA0303E0
:104E7000C0F814320B6A012B2ED01B4AD2F8003234
:104E800023F00103C2F80032002030BD164BD3F8E6
:104E90000C021043C3F80C028C8848690D6844EA80
:104EA0000544483043F8304088894C698D6840EAB1
:104EB0000540483403EBC4035860C8E70A48D0F8FB
:104EC00004321343C0F80432CBE70748D0F8143259
:104ED0001343C0F81432CDE70349D1F81C32134311
:104EE000C1F81C32C9E700BF0064004070B5044639
:104EF00090F82030012B06D0436A43F4002343622C
:104F00000126304670BDDEB2022380F820300268F0
:104F1000136823F001031360FFF78CFE0546236836
:104F20005B6813F0010F0CD0FFF784FE431B0A2BC4
:104F3000F5D9636A43F400336362052384F82030B3
:104F4000DFE700266662DCE730B590F820C0046831
:104F5000A4680CF1FF3C5FFA8CFCBCF1010F62D835
:104F600014F0E05F59D0C4F3016C012404FA0CF48E
:104F70001C608B68002B3DD10D68CB68046843EA48
:104F800045550CF118031B01E55003680C690CF141
:104F9000180E03EB0E135C600B7D012B35D0D1791D
:104FA00093791B0443EA0163517943EA012314799D
:104FB0000168234301EB0C11C1F88C31D17893784F
:104FC0001B0443EA0163517843EA01231178026824
:104FD0000B4302EB0C12C2F8883102680CF1180C7A
:104FE0004FEA0C1C52F80C3043F0010342F80C302D
:104FF00000201DE04C6843EAC403CC6823430CF155
:105000001804240105682B51BFE7036803EB0E1356
:10501000596841F480715960C1E7436A43F4001351
:105020004362012004E0436A43F480234362012089
:1050300030BD90F820C00CF1FF3C5FFA8CFCBCF155
:10504000010F00F2A58030B451B90468E46814F08F
:10505000030F10D1436A43F40013436201207EE042
:105060000468246914F0030F05D1436A43F4001364
:105070004362012073E0056801F11B0424012C59EF
:1050800004F004049460002C6BD1056801F11B044A
:1050900024012C59640D1460046801F11B0C4FEAC3
:1050A0000C1C54F80C4004F00204D4600468A444BE
:1050B000DCF8045015F0080F5BD008241461046874
:1050C00001F11B0C04EB0C146468C4F30724946115
:1050D000046804EB0C146468240C5461026802EB4D
:1050E0000112D2F8B8211A70026802EB0112D2F84C
:1050F000B821C2F307225A70026802EB0112D2F8FB
:10510000B821C2F307429A70026802EB0112D2F88A
:10511000B821120EDA70026802EB0112D2F8BC213B
:105120001A71026802EB0112D2F8BC21C2F3072205
:105130005A71026802EB0112D2F8BC21C2F3074295
:105140009A71026802EB0112D2F8BC21120EDA71D8
:10515000C1B90268D36843F02003D360002030BC9B
:105160007047056801F11B0424012C59E4085460C0
:1051700092E701F11B0504EB0514646804F00F04C9
:1051800014619CE70268136943F020031361E5E7AB
:10519000436A43F4802343620120704790F8203033
:1051A000013BDBB2012B05D9436A43F48023436200
:1051B00001207047026853690B4353610020704718
:1051C0007047704770477047704770477047704727
:1051D00070477047704770472DE9F84F05460368E0
:1051E0005C69D3F804809F68D3F80CA0D3F81090C2
:1051F000D3F818B014F001063BD017F0010616D012
:1052000001229A6017F0020F08D117F0040F0CD199
:1052100017F0080606D04FF4805608E0FFF7D0FFDD
:10522000002604E0FFF7CFFF01E04FF4006617F41B
:10523000807F0DD02B684FF480729A6017F4007F46
:1052400040F0968017F4806F00F0968046F4005688
:1052500017F4803F0DD02B684FF480329A6017F41A
:10526000003F40F0938017F4802F00F0938046F4C5
:10527000004614F0080F07D01AF0100F04D046F4BF
:1052800000762B681022DA6014F0040F03D01AF0B5
:10529000080F40F0898014F0020F05D02B68DB68FE
:1052A00013F0030F40F0878014F0400F07D019F07F
:1052B000100F04D046F480662B6810221A6114F097
:1052C000200F02D019F0080F79D114F0100F04D07C
:1052D0002B681B6913F0030F78D114F4003F02D040
:1052E00018F0100F76D114F4803F02D018F0080F98
:1052F00077D114F4004F37D018F0040F31D014F4E4
:10530000807F04D01BF0010F01D046F0010614F499
:10531000007F04D01BF0020F01D046F0020614F407
:10532000806F04D01BF0040F01D046F0040614F483
:10533000006F16D01BF0700B13D0BBF1400F66D07E
:1053400056D8BBF1200F5CD0BBF1300F5CD0BBF165
:10535000100F01D146F008062A68936923F0700304
:1053600093612B6804225A60002E56D1BDE8F88F55
:105370002846FFF726FF6BE717F4006F02D046F4CC
:10538000804665E72846FFF71FFF61E72846FFF7DD
:1053900019FF6EE717F4002F02D046F4803668E755
:1053A0002846FFF712FF64E72B680822DA602846D8
:1053B000FFF70CFF6FE72846FEF7DAFD74E72B686E
:1053C00008221A612846FFF703FF7EE72846FFF709
:1053D000FEFE82E72B6810225A602846FFF7F9FE8E
:1053E00081E72B6808225A602846FFF7F3FE80E722
:1053F000BBF1500F0ED0BBF1600FADD146F48076FB
:10540000AAE746F01006A7E746F02006A4E746F014
:105410004006A1E746F080069EE76B6A33436B6265
:105420002846FFF7D8FEA1E7002807DB00F01F029F
:10543000400901239340024A42F82030704700BFE0
:1054400000E100E000280CDB00F01F02400901230E
:1054500093402030034A42F82030BFF34F8FBFF310
:105460006F8F704700E100E0002808DB0901C9B236
:1054700000F1604000F5614080F80013704700F0D3
:105480000F000901C9B2014B1954704714ED00E037
:1054900000B500F00700C0F1070CBCF1040F28BFF5
:1054A0004FF0040C031D062B0FD9C31E4FF0FF3E17
:1054B0000EFA0CF021EA000199400EFA03FE22EAEE
:1054C0000E0241EA02005DF804FB0023EEE7000053
:1054D000074AD36823F4E0631B041B0C000200F4AA
:1054E000E060034343F0BF6343F40033D36070478D
:1054F00000ED00E010B50446054BD868C0F302206B
:10550000FFF7C6FF01462046FFF7AEFF10BD00BF04
:1055100000ED00E008B5FFF787FF08BD08B5FFF70D
:1055200091FF08BD30B405682C6824F480242C60F9
:10553000046863608368402B05D003689960036842
:10554000DA6030BC704703689A600368D960F8E796
:1055500010B40368D9B210390A4AA2FB01421209F9
:10556000094CA25CC2655F2907D96FF309030433B4
:105570008365806D5DF8044B70476FF309038365A5
:10558000F7E700BFABAAAAAAF0D30008836A826932
:1055900092B9012B0AD0022B02D00BB10020704728
:1055A000C36A13F0807F28D100207047C36AB3F12B
:1055B000C07F24D000207047B2F5005F09D0022BD5
:1055C00025D9032B25D1C36A13F0807F23D1002076
:1055D0007047032B03D8DFE803F01404140A0020FB
:1055E0007047C36A13F0807F0DD100207047C36AF3
:1055F000B3F1C07F09D0002070470120704701201F
:10560000704701207047012070470120704701203A
:1056100070470020704701207047000070B50446B5
:10562000FFF708FB002C5BD00546022384F83530D9
:10563000002384F834302268136823F001031360D8
:1056400023681A6812F0010F0AD0FFF7F3FA431B20
:10565000052BF5D920236365032084F8350070BD40
:105660001A68204911406268A0680243E06802435A
:105670002069024360690243A0690243E069024372
:10568000206A02430A43616A04291ED01A60266810
:10569000756925F00705636A1D43042B07D1A36ACA
:1056A0001D43E36A1BB12046FFF770FF90B9756197
:1056B0002046FFF74DFFE26D3F23934083600020BB
:1056C0006065012384F83530C9E7E16A206B014346
:1056D0000A43DBE740236365012084F83500BEE719
:1056E0000120BCE73F8010F038B50446856D90F886
:1056F000340001282AD0012084F8340094F83500C1
:10570000012804D0002384F83430022038BD022060
:1057100084F83500002060652046FFF703FFE26D46
:105720003F239340AB602268136843F01603136075
:10573000236C23B12268136843F0080313602268C6
:10574000136843F0010313600020DFE70220DDE768
:10575000F0B583B0044600230193724B1D68724B71
:10576000A3FB0535AD0A876D3E68C26D08239340E3
:10577000334210D003681A6812F0040F0BD01A6875
:1057800022F004021A60C26D08239340BB60436D8F
:1057900043F001034365E26D01239340334209D096
:1057A0002268526912F0800F04D0BB60636D43F031
:1057B00002036365E26D04239340334209D02268FB
:1057C000126812F0020F04D0BB60636D43F0040353
:1057D0006365E26D10239340334224D0226812683F
:1057E00012F0080F1FD0BB6023681A6812F4802FD4
:1057F0000DD01B6813F4002F04D1236C9BB12046FD
:10580000984710E0A36C73B1204698470BE01A68E4
:1058100012F4807F03D11A6822F008021A60236C08
:105820000BB120469847E26D20239340334254D079
:105830002268126812F0100F4FD0BB6094F8353018
:10584000052B0ED023681A6812F4802F33D01B6802
:1058500013F4002F2AD1636C002B3ED020469847CA
:105860003BE02268136823F0160313602268536933
:1058700023F080035361236CA3B12268136823F0E3
:1058800008031360E26D3F239340BB60012384F85B
:105890003530002384F83430236D002B3FD0204670
:1058A00098473CE0A36C002BE7D1EBE7E36BA3B197
:1058B0002046984711E01A6812F4807F09D11A68CF
:1058C00022F010021A60012384F83530002384F896
:1058D0003430E36B0BB120469847636DFBB1636DC9
:1058E00013F0010F17D0052384F8353022681368B0
:1058F00023F001031360019B01330193AB4204D8F1
:1059000023681B6813F0010FF5D1012384F83530AB
:10591000002384F83430E36C0BB12046984703B081
:10592000F0BD00BF10000020B5814E1B00230F2BDF
:1059300000F2F68070B582B066E085684FEA430EEB
:10594000032404FA0EF425EA0405CC6804FA0EF4E4
:105950002C438460446824EA02044A68C2F30012BB
:105960009A40224342605DE0DC08083450F824206D
:1059700003F00705AD004FF00F0E0EFA05FE22EA08
:105980000E0E0A69AA4042EA0E0240F824205DE0A9
:10599000092200E0002202FA0EF22A430234614D8D
:1059A00045F82420604A94686FEA0C0224EA0C054A
:1059B0004E6816F4801F01D04CEA04055A4CA560CD
:1059C000E46802EA04054E6816F4001F01D04CEAB0
:1059D0000405554CE560646802EA04054E6816F457
:1059E000003F01D04CEA04054F4C6560246822401A
:1059F0004D6815F4803F01D04CEA04024A4C226005
:105A000001330F2B00F28A8001229A400C6804EACD
:105A1000020C32EA0404F3D14C6804F00304013CA4
:105A2000012C8AD94A6802F00302032A09D0C4680B
:105A30005D000322AA4024EA02048A68AA402243A5
:105A4000C2604A6802F00302022A8DD004684FEA5D
:105A5000430E032202FA0EF224EA02044A6802F01C
:105A6000030202FA0EF2224302604A6812F4403F37
:105A7000C6D0002201922D4A546C44F480445464F0
:105A8000526C02F480420192019A9C08A51C254A9E
:105A900052F8255003F0030E4FEA8E0E0F2202FA41
:105AA0000EF225EA0205224A90423FF473AF02F556
:105AB0008062904222D002F58062904220D002F5AE
:105AC000806290421ED002F5806290421CD002F5A6
:105AD000806290421AD002F58062904218D002F59E
