:020000040800F2
:100000000000032019900008F9440008FB44000890
:10001000FD440008FF4400080145000800000000FE
:100020000000000000000000000000005174000803
:100030000345000800000000F174000899700008F2
:1000400069900008699000086990000869900008AC
:10005000699000086990000869900008699000089C
:10006000699000086990000869900008699000088C
:1000700005450008699000081545000869900008CA
:10008000699000086990000869900008699000086C
:1000900025450008699000086990000869900008EB
:1000A000699000086990000869900008699000084C
:1000B000699000086990000869900008699000083C
:1000C000699000086990000869900008699000082C
:1000D000699000086990000869900008699000081C
:1000E000699000086990000869900008699000080C
:1000F00069900008699000086990000869900008FC
:10010000699000086990000835450008699000086A
:10011000699000086990000869900008454500084A
:10012000699000085545000869900008699000082A
:1001300069900008699000086990000869900008BB
:1001400065450008699000086990000869900008FA
:10015000699000086990000869900008699000089B
:10016000699000086990000869900008699000088B
:10017000699000086990000869900008000000007C
:10018000699000086990000869900008699000086B
:10019000699000086990000869900008699000085B
:0C01A00000000000000000006990000852
:1001B00081F0004102E000BF83F0004330B54FEA18
:1001C00041044FEA430594EA050F08BF90EA020F85
:1001D0001FBF54EA000C55EA020C7FEA645C7FEA18
:1001E000655C00F0E2804FEA5454D4EB5555B8BF3B
:1001F0006D420CDD2C4480EA020281EA030382EAAC
:10020000000083EA010180EA020281EA0303362D3D
:1002100088BF30BD11F0004F4FEA01314FF4801C10
:100220004CEA113102D0404261EB410113F0004F22
:100230004FEA03334CEA133302D0524263EB4303D9
:1002400094EA050F00F0A780A4F10104D5F1200E77
:100250000DDB02FA0EFC22FA05F2801841F10001D2
:1002600003FA0EF2801843FA05F359410EE0A5F1A6
:1002700020050EF1200E012A03FA0EFC28BF4CF0D7
:10028000020C43FA05F3C01851EBE37101F000458D
:1002900007D54FF0000EDCF1000C7EEB00006EEB9A
:1002A0000101B1F5801F1BD3B1F5001F0CD3490824
:1002B0005FEA30004FEA3C0C04F101044FEA44527B
:1002C00012F5800F80F09A80BCF1004F08BF5FEA02
:1002D000500C50F1000041EB045141EA050130BDE2
:1002E0005FEA4C0C404141EB0101013C28BFB1F5F4
:1002F000801FE9D291F0000F04BF01460020B1FA3F
:1003000081F308BF2033A3F10B03B3F120020CDA11
:100310000C3208DD02F1140CC2F10C0201FA0CF0EF
:1003200021FA02F10CE002F11402D8BFC2F1200C54
:1003300001FA02F120FA0CFCDCBF41EA0C0190400A
:10034000E41AA2BF01EB0451294330BD6FEA040453
:100350001F3C1CDA0C340EDC04F11404C4F120023E
:1003600020FA04F001FA02F340EA030021FA04F350
:1003700045EA030130BDC4F10C04C4F1200220FAA7
:1003800002F001FA04F340EA0300294630BD21FAE5
:1003900004F0294630BD94F0000F83F4801306BFAB
:1003A00081F480110134013D4EE77FEA645C18BF9F
:1003B0007FEA655C29D094EA050F08BF90EA020F36
:1003C00005D054EA000C04BF1946104630BD91EA2E
:1003D000030F1EBF0021002030BD5FEA545C05D131
:1003E0004000494128BF41F0004130BD14F5800470
:1003F0003CBF01F5801130BD01F0004545F0FE41E4
:1004000041F470014FF0000030BD7FEA645C1ABF18
:10041000194610467FEA655C1CBF0B46024650EA4F
:10042000013406BF52EA033591EA030F41F400217B
:1004300030BD00BF90F0000F04BF0021704730B501
:100440004FF4806404F132044FF000054FF00001D6
:1004500050E700BF90F0000F04BF0021704730B597
:100460004FF4806404F1320410F0004548BF40426C
:100470004FF000013EE700BF42004FEAE2014FEAC1
:1004800031014FEA02701FBF12F07F4393F07F4F9C
:1004900081F06051704732F07F4208BF704793F09F
:1004A0007F4F04BF41F40021704730B54FF46074B2
:1004B00001F0004521F000411CE700BF50EA0102B5
:1004C00008BF704730B54FF000050AE050EA01025E
:1004D00008BF704730B511F0004502D5404261EBCE
:1004E00041014FF4806404F132045FEA915C3FF40F
:1004F000D8AE4FF003025FEADC0C18BF03325FEAAC
:10050000DC0C18BF033202EBDC02C2F1200300FA5C
:1005100003FC20FA02F001FA03FE40EA0E0021FA81
:1005200002F11444BDE600BF70B54FF0FF0C4CF46F
:10053000E06C1CEA11541DBF1CEA135594EA0C0F21
:1005400095EA0C0F00F0DEF82C4481EA030621EA5C
:100550004C5123EA4C5350EA013518BF52EA033597
:1005600041F4801143F4801338D0A0FB02CE4FF049
:100570000005E1FB02E506F00042E0FB03E54FF079
:100580000006E1FB03569CF0000F18BF4EF0010E71
:10059000A4F1FF04B6F5007F64F5407404D25FEA6D
:1005A0004E0E6D4146EB060642EAC62141EA555120
:1005B0004FEAC52040EA5E504FEACE2EB4F1FD0C62
:1005C00088BFBCF5E06F1ED8BEF1004F08BF5FEAE0
:1005D000500E50F1000041EB045170BD06F0004692
:1005E00046EA010140EA020081EA0301B4EB5C043F
:1005F000C2BFD4EB0C0541EA045170BD41F4801137
:100600004FF0000E013C00F3AB8014F1360FDEBF5B
:10061000002001F0004170BDC4F10004203C35DA37
:100620000C341BDC04F11404C4F1200500FA05F3BA
:1006300020FA04F001FA05F240EA020001F000425B
:1006400021F0004110EBD37021FA04F642EB0601D1
:100650005EEA430E08BF20EAD37070BDC4F10C04FB
:10066000C4F1200500FA04F320FA05F001FA04F2BF
:1006700040EA020001F0004110EBD37041F10001AB
:100680005EEA430E08BF20EAD37070BDC4F12005B6
:1006900000FA05F24EEA020E20FA04F301FA05F21E
:1006A00043EA020321FA04F001F0004121FA04F2C6
:1006B00020EA020000EBD3705EEA430E08BF20EA96
:1006C000D37070BD94F0000F0FD101F000464000D0
:1006D00041EB010111F4801F08BF013CF7D041EA52
:1006E000060195F0000F18BF704703F00046520056
:1006F00043EB030313F4801F08BF013DF7D043EA27
:100700000603704794EA0C0F0CEA135518BF95EADC
:100710000C0F0CD050EA410618BF52EA4306D1D163
:1007200081EA030101F000414FF0000070BD50EA82
:10073000410606BF1046194652EA430619D094EA0C
:100740000C0F02D150EA013613D195EA0C0F05D1F6
:1007500052EA03361CBF104619460AD181EA03014A
:1007600001F0004141F0FE4141F470014FF0000002
:1007700070BD41F0FE4141F4780170BD70B54FF09D
:10078000FF0C4CF4E06C1CEA11541DBF1CEA13551D
:1007900094EA0C0F95EA0C0F00F0A7F8A4EB0504FF
:1007A00081EA030E52EA03354FEA013100F08880F6
:1007B0004FEA03334FF0805545EA131343EA1263BF
:1007C0004FEA022245EA111545EA10654FEA002674
:1007D0000EF000419D4208BF964244F1FD0404F52D
:1007E000407402D25B084FEA3202B61A65EB030589
:1007F0005B084FEA32024FF480104FF4002CB6EB46
:10080000020E75EB030E22BFB61A754640EA0C00C5
:100810005B084FEA3202B6EB020E75EB030E22BF05
:10082000B61A754640EA5C005B084FEA3202B6EB46
:10083000020E75EB030E22BFB61A754640EA9C0005
:100840005B084FEA3202B6EB020E75EB030E22BFD5
:10085000B61A754640EADC0055EA060E18D04FEA93
:10086000051545EA16754FEA06164FEAC30343EA33
:1008700052734FEAC2025FEA1C1CC0D111F4801F00
:100880000BD141EA00014FF000004FF0004CB6E7F9
:1008900011F4801F04BF01430020B4F1FD0C88BF98
:1008A000BCF5E06F3FF6AFAEB5EB030C04BFB6EBA3
:1008B000020C5FEA500C50F1000041EB045170BD96
:1008C0000EF0004E4EEA113114EB5C04C2BFD4EBC3
:1008D0000C0541EA045170BD41F480114FF0000E47
:1008E000013C90E645EA060E8DE60CEA135594EAC3
:1008F0000C0F08BF95EA0C0F3FF43BAF94EA0C0FC6
:100900000AD150EA01347FF434AF95EA0C0F7FF43A
:1009100025AF104619462CE795EA0C0F06D152EA8E
:1009200003353FF4FDAE1046194622E750EA410672
:1009300018BF52EA43067FF4C5AE50EA41047FF483
:100940000DAF52EA43057FF4EBAE12E74FF0FF3CE8
:1009500006E000BF4FF0010C02E000BF4FF0010CB9
:100960004DF804CD4FEA410C7FEA6C5C4FEA430C32
:1009700018BF7FEA6C5C1BD001B050EA410C0CBF81
:1009800052EA430C91EA030F02BF90EA020F0020E3
:10099000704710F1000F91EA030F58BF994208BF4A
:1009A00090422CBFD8176FEAE37040F00100704707
:1009B0004FEA410C7FEA6C5C02D150EA013C07D15E
:1009C0004FEA430C7FEA6C5CD6D152EA033CD3D0A9
:1009D0005DF8040B704700BF8446104662468C46A3
:1009E0001946634600E000BF01B5FFF7B7FF0028D6
:1009F00048BF10F1000F01BD4DF808EDFFF7F4FFFF
:100A00000CBF012000205DF808FB00BF4DF808ED89
:100A1000FFF7EAFF34BF012000205DF808FB00BFAC
:100A20004DF808EDFFF7E0FF94BF012000205DF8CE
:100A300008FB00BF4DF808EDFFF7CEFF94BF012083
:100A400000205DF808FB00BF4DF808EDFFF7C4FF7C
:100A500034BF012000205DF808FB00BF4FEA410CC5
:100A60007FEA6C5C02D150EA013C0AD14FEA430CA8
:100A70007FEA6C5C02D152EA033C02D14FF00000E5
:100A800070474FF0010070474FEA410212F5001223
:100A900015D211D56FF47873B3EB625212D94FEAC5
:100AA000C12343F0004343EA505311F0004F23FAAF
:100AB00002F018BF404270474FF00000704750EA04
:100AC000013005D111F0004008BF6FF000407047C1
:100AD0004FF00000704700BF4FEA4102B2F1E0431F
:100AE00024BFB3F5001CDCF1FE5C0DD901F0004C15
:100AF0004FEAC0024CEA5070B2F1004F40EB830065
:100B000008BF20F00100704711F0804F21D113F190
:100B10003872BCBF01F00040704741F480114FEAC9
:100B20005252C2F11802C2F1200C10FA0CF320FA52
:100B300002F018BF40F001004FEAC1234FEAD3236F
:100B400003FA0CFC40EA0C0023FA02F34FEA4303D9
:100B5000CCE77FEA625307D150EA01331EBF4FF062
:100B6000FE4040F44000704701F0004040F0FE407D
:100B700040F40000704700BF53B94AB9002908BFCC
:100B800000281CBF4FF0FF314FF0FF3000F00CB8D1
:100B9000ADF1080C6DE904CE09F0F4FCDDF804E0D9
:100BA000DDE9022304B07047704700BF0000000079
:100BB00001F0FF01102A2BDB10F0070F08D010F80E
:100BC000013B013A8B422DD010F0070F42B3F6D112
:100BD000F0B441EA012141EA014122F007047FF02B
:100BE00000070023F0E80256083C85EA010586EA82
:100BF000010685FA47F5A3FA87F586FA47F6A5FABE
:100C000087F68EB9EED1F0BC01F0FF0102F00702C9
:100C100032B110F8013B013A83EA010313B1F8D174
:100C20000020704701387047002D06BF3546033855
:100C3000073815F0010F07D1013015F4807F02BF8E
:100C4000013015F4C03F0130F0BC0138704700BFDF
:100C5000034613F8012B002AFBD1181A01387047FC
:100C60000348044B834202D0034B03B1184770473B
:100C7000E0010020E0010020000000000548064BD4
:100C80001B1AD90F01EBA301491002D0034B03B18A
:100C900018477047E0010020E0010020000000003C
:100CA00010B5064C237843B9FFF7DAFF044B13B1B4
:100CB0000448AFF300800123237010BDE001002041
:100CC0000000000068D2000808B5054B1BB10549BB
:100CD0000548AFF30080BDE80840FFF7CFBF00BF75
:100CE00000000000E401002068D2000808B500F010
:100CF000DDFB00F0E3FB01F06DFA01F041FB01F0D8
:100D0000AFFA08BD08B5084801F092FA01F0DEFD1F
:100D10000649074801F078FD002001F0CBFD4FF4B3
:100D2000487006F04DFA08BD9A998940000040C10C
:100D30000000404310B52DED028B0138052875D811
:100D4000DFE810F006007700E0002601D6013F0240
:100D5000C749C84801F058FD01F0DEFD00242046D7
:100D600001F0A8FD4FF4FA7006F02AFAC24801F02B
:100D70005FFA4FF4AF7006F023FA01F0A7FD4FF4CD
:100D8000FA7006F01DFABD4801F052FABC4801F0B5
:100D900091FD4FF4FA7006F013FABA49BA4801F01F
:100DA00033FD4FF4F07006F00BFAB84801F040FA4A
:100DB0004FF4C87006F004FA204601F07BFD4FF4B2
:100DC000AF7006F0FDF9B249B24801F01DFD4FF4D5
:100DD0002F7006F0F5F9B04801F02AFA4FF4C87008
:100DE00006F0EEF901F098FD4FF4967006F0E8F980
:100DF000AA4801F01DFA4FF4C87006F0E1F9A84CBA
:100E0000D4ED0A7AB0EE088A77EE887AC4ED0A7AD1
:100E1000A449A54801F0F8FC4FF4FA7006F0D0F9A7
:100E2000D4ED0A7A77EEC87AC4ED0A7ABDEC028B6B
:100E300010BD8F498F4801F0E7FC002001F03AFD1A
:100E400001F06AFD4FF4167006F0BAF9974801F008
:100E5000EFF94FF4AF7006F0B3F901F037FD4FF43E
:100E6000FA7006F0ADF9924801F0E2F9642006F05C
:100E7000A7F99049904801F0C7FC4FF4FA7006F0CA
:100E80009FF98C498D4801F0BFFC4FF42A7006F0A1
:100E900097F98B4B186806F0FAF98A4801F0C8F9FF
:100EA0004FF4E67006F08CF901F036FD4FF49670C1
:100EB00006F086F9844801F0BBF94FF4967006F00D
:100EC0007FF9774CD4ED0A7AB0EE088A77EE887A0B
:100ED000C4ED0A7A7D497E4801F096FC4FF4FA7021
:100EE00006F06EF9D4ED0A7A77EEC87AC4ED0A7A84
:100EF000624801F09DF901F0E9FC4FF4167006F02C
:100F00005FF993E75A495B4801F07EFC00242046D4
:100F100001F0D0FC01F000FD4FF4FA7006F050F93A
:100F2000554801F085F94FF4AF7006F049F901F02A
:100F3000CDFC4FF4FA7006F043F9504801F078F90F
:100F40004F4801F0B7FC4FF4FA7006F039F96149E7
:100F5000614801F059FC4FF42A7006F031F95F48FE
:100F600001F066F98C2006F02BF901F0D5FC4FF466
:100F7000967006F025F9494801F05AF901F0A6FCEF
:100F8000204601F097FC4FF4487006F019F94DE740
:100F90003749384801F038FC0024204601F08AFC2B
:100FA00001F0BAFC4FF4FA7006F00AF9324801F089
:100FB0003FF94FF4AF7006F003F901F087FC4FF4EE
:100FC000FA7006F0FDF82D4801F032F92C4801F0D6
:100FD00071FC4FF4FA7006F0F3F83E493E4801F018
:100FE00013FC4FF4FA7006F0EBF83D4801F020F9DD
:100FF00040F28A2006F0E4F8204601F05BFC4FF452
:10100000967006F0DDF83749374801F0FDFB4FF4E4
:101010002F7006F0D5F8354801F00AF94FF4C87082
:1010200006F0CEF801F078FC4FF4967006F0C8F8A0
:101030001A4801F0FDF84FF4967006F0C1F8184C0C
:10104000D4ED0A7AB0EE088A77EE887AC4ED0A7A8F
:101050001449154801F0D8FB4FF4FA7006F0B0F8C7
:10106000D4ED0A7A77EEC87AC4ED0A7ADEE600BFDC
:101070000000484200000243CDCC1C409A997940C0
:101080000000B442000058C10080414366660E4132
:101090000000E6C200004D43CDCCDC4000005041D2
:1010A000680200200000A0C1000048437B142E41CC
:1010B000000038410000F0C10000524300008B43A3
:1010C000C40500200000E0409A990941000040C199
:1010D00000004043000050C1000041439A9959402C
:1010E0009A9939410000ECC200004F439A9921417E
:1010F0005B495C4801F088FB002001F0DBFB01F05C
:101100000BFC40F2262006F05BF8574801F090F8FF
:101110004FF4AF7006F054F801F0D8FB4FF4FA70BA
:1011200006F04EF8514801F083F8642006F048F8C4
:101130004F49504801F068FB4FF4FA7006F040F850
:101140004D4B186806F0A3F849494C4801F05CFB88
:101150004FF4FA7006F034F8494801F069F840F2AB
:10116000B22006F02DF801F0D7FB4FF4967006F090
:1011700027F8444801F05CF84FF4967006F020F828
:10118000414CD4ED0A7AB0EE088A77EE887AC4ED45
:101190000A7A3E493E4801F037FB4FF4167006F0DC
:1011A0000FF8D4ED0A7A77EEC87AC4ED0A7A394896
:1011B00001F03EF801F08AFB4FF4167006F000F8DB
:1011C00034E62749274801F01FFB0024204601F0A0
:1011D00071FB01F0A1FB40F2262005F0F1FF22484F
:1011E00001F026F84FF4AF7005F0EAFF01F06EFB56
:1011F0004FF4FA7005F0E4FF274801F019F8642075
:1012000005F0DEFF2149224801F0FEFA4FF4E170BB
:1012100005F0D6FF214801F04DFB962005F0D0FFE8
:101220001F4801F005F840F28A2005F0C9FF124B73
:10123000186806F02CF801F06FFB4FF4967005F07B
:10124000BFFF184800F0F4FFC82005F0B9FF2046A2
:1012500001F030FB4FF4C87005F0B2FFE6E500BFC7
:1012600000004842000002437B142E41CDCC6C416B
:101270000000F0C100005243C405002000008B4371
:101280009A9921410000404168020020000040C1BD
:10129000000040439A997940000038410000B44270
:1012A0000000D0400000504110B50446142005F065
:1012B00087FF601E05281ED8DFE800F0031E3953A3
:1012C0006E895049504801F09FFA01F025FB00203B
:1012D00001F0F0FA4FF4C37005F072FF4B4800F0D4
:1012E000A7FF4FF4C87005F06BFF01F0EFFA4FF461
:1012F000FA7005F065FF10BD4549464801F084FAD3
:1013000001F00AFB002001F0D5FA4FF4C37005F09C
:1013100057FF3E4800F08CFF4FF4C87005F050FFB7
:1013200001F0D4FA4FF4FA7005F04AFFE3E73A49C6
:101330003A4801F069FA01F0EFFA394801F0BAFAD7
:10134000962005F03DFF374800F072FF4FF42F70F4
:1013500005F036FF01F0BAFA4FF4C87005F030FF1F
:10136000C9E72849284801F04FFA01F0D5FA0020D2
:1013700001F0A0FA40F2122005F022FF2A4800F006
:1013800057FF4FF4A57005F01BFF01F09FFA4FF4D3
:10139000C87005F015FFAEE71D491E4801F034FA8C
:1013A00001F0BAFA002001F085FA40F2122005F0AF
:1013B00007FF1D4800F03CFF4FF4A57005F000FF4B
:1013C00001F084FA4FF4C87005F0FAFE93E7124971
:1013D000124801F019FA01F09FFA114801F06AFA77
:1013E000C82005F0EDFE114800F022FF4FF40C700C
:1013F00005F0E6FE01F06AFA4FF4FA7005F0E0FE3F
:1014000079E700BF0000E6C200004D436666D640A3
:101410000000F0C100008B43000040C100004043C9
:101420000000B4420000404000002041CDCCCC4040
:1014300000B585B0C82005F0C3FE694600230093BF
:10144000019302930393FF238DF80030AA228DF8B5
:1014500001208DF8033064230522044805F0C9FCFF
:10146000C82005F0ADFE05B05DF804FB5C08002067
:1014700000B585B06946002300930193029303935E
:10148000FF238DF80030AA238DF80130A7238DF8B3
:10149000023064230522044805F0ABFCC82005F0A7
:1014A0008FFE05B05DF804FB5C08002008B5FFF76F
:1014B000BFFFFFF7DDFF01F0D1FD08BD08B57420C7
:1014C00009F0DCF9144B1860002824D000230362D3
:1014D00043628362C362036343638363C3630360E2
:1014E0000D4A126853609360D36013615361936136
:1014F000D361136453649364D36413655365936534
:10150000D365136693665366D366042382F87030FE
:10151000002382F8713008BD0002002018490A68D3
:101520000023136253629362D36213635363936322
:10153000D36313600A6853609360D360136153618F
:101540009361D361136453649364D36413655365E7
:101550009365D365136693665366D366042382F856
:101560007030084A5168012381F85430916881F83D
:101570005430D16881F85430126982F85430704781
:1015800000020020B40200202DE9F8432DED068B67
:1015900001F05EFD142003F077FF8F4BD3ED007A4E
:1015A0009FED8E7A67EE877A9FED8D7AC7EE877A08
:1015B00017EE909A1868FEF75FFF0022894B07F03C
:1015C00055FDFFF789FA07EE900AF5EEC07AF1EEC5
:1015D00010FA00F1B7809FED847AF4EEC77AF1EE4D
:1015E00010FA07D99FED817AF4EEC77AF1EE10FA7E
:1015F00040F3AD807E4B1B68002283F871207C4B4A
:101600001C68754B1B6823667A4B1B68A3667A4B74
:101610005F6897ED146A84ED046AD3F80880D8ED0A
:10162000147AC4ED057ADE68D6ED146AC4ED066A54
:101630001D6995ED147A84ED077A36EE278A36EE29
:10164000888A37EE088AB5EE009A28EE098A84ED7A
:10165000088A77EEC67A76EEA78A78EEC78A68EEB1
:10166000898AC4ED098A77EEE67A77EE277A17EE53
:10167000900AFEF701FF56A3D3E90023FFF77EF897
:10168000FFF72AFA6066484607F042FD09EE900A25
:1016900028EE29AA484607F071FD06EE900A68EE8A
:1016A000A67A3AEE67AA84ED10AA28EE268A68EE9A
:1016B000A98A38EE288A84ED118A97ED137AD8ED3D
:1016C000137A37EE277AD6ED137A37EE277AD5EDEF
:1016D000137A37EE277A27EE097A84ED0C7AD8ED63
:1016E000137A97ED136A77EEC67A96ED136A77EE62
:1016F000867A95ED136A77EEC67A67EE897AC4ED3D
:101700000D7A94ED146A69EE875A26EEA75A75EEA3
:10171000C55A36EE256A84ED146A94ED156A66EEB4
:10172000876A69EEA79A76EEA96A76EE267AC4ED04
:10173000157A01F093FC142003F0A2FEBDEC068B99
:10174000BDE8F8839FED2D7A77EE877A43E79FED2A
:10175000267AF4EEC77AF1EE10FA21DD9FED287AB1
:10176000F4EEC77AF1EE10FA05D8214B1B6801227E
:1017700083F8712043E79FED227AF4EEC77AF1EE09
:1017800010FA7FF73CAF9FED1F7AF4EEC77AF1EEC7
:1017900010FA05D8164B1B68022283F871202EE739
:1017A0009FED187AF4EEC77AF1EE10FA7FF727AFC3
:1017B0009FED0E7AF4EEC77AF1EE10FA3FF61FAF06
:1017C0000B4B1B68032283F8712018E7AFF30080EE
:1017D000C7711CC7A9DC374004060020DB0F494055
:1017E00000003443008076400000344200809D4376
:1017F0000002002000060020B40200200000B443D4
:10180000000007430000614310B5012408E0074BC6
:1018100053F8240001F0A6F9012005F0D1FC0134B1
:10182000042CF4DDFFF7B0FE10BD00BFB4020020B1
:101830002DE9F0432DED068B83B0554D2C68D4ED8A
:10184000187ADFED549A67EEA97A9FED537AC7EEC6
:10185000877A17EE906A94ED128A304607F058FCAA
:1018600008EE900A28EE289A94ED13AA304607F065
:1018700085FC07EE100A6AEE077A79EE277AC4ED46
:101880000A7A28EE478A68EE8A8A38EE288A84ED3A
:101890000B8A77EEC87A17EE900AFEF7EDFD064642
:1018A0000F46D4ED1B7A9FED3D9A67EEC97A67EE3D
:1018B000A97A17EE900AFEF7DFFD0022384BFEF7FB
:1018C0005DFF31A3D3E90023FEF72EFE02460B464F
:1018D00030463946FEF772FCFFF7FEF820602C68B0
:1018E000D4ED0A8A94ED0B8A78EE887A17EE900A86
:1018F000FEF7C2FD80468946D4ED1B7A67EE897AF1
:1019000067EEA97A17EE900AFEF7B6FD0022244B87
:10191000FEF734FF1CA3D3E90023FEF705FE0646BD
:101920000F4602460B4640464946FEF747FCFFF786
:10193000D3F80546606032463B4640464946FEF7CE
:101940003BFCFFF7C9F88046A06078EEC87A17EE36
:10195000900AFEF791FD02460B4630463946FEF7E7
:101960002DFCFFF7B9F80346E060206802220092E0
:101970004246294601F02AFB03B0BDEC068BBDE8C8
:10198000F08300BFAFF30080000000002670E63F48
:1019900000020020DB0F494000003443C43BEC430D
:1019A0000080664010B582B0124B1B68042283F899
:1019B0007020C0B9012400E00134042C09DC0E4B76
:1019C00053F824008379022BF6D0022101F02AF883
:1019D000F2E700200223009303460246014601F08D
:1019E000F5FA02B010BD01F09FFA012001F06AFA89
:1019F000F7E700BF00020020B40200202DE9F84FF5
:101A00002DED048B08EE100A8B461646984601F021
:101A10007BFA022001F056FA01F066FAFFF77EFD2C
:101A2000FFF7F2FE584B186801F092FE574B18680A
:101A300001F08EFE564B186801F08AFE07EE90BA50
:101A4000F0EEE77A9FED537AF4EEC77AF1EE10FAF2
:101A50000DDB07EE10BAB5EEC07AF1EE10FA06DD36
:101A6000B2EE009AF0EE498A4FF004091AE09FEDB9
:101A70004A7AF4EEC77AF1EE10FA0DD5F0EEC87A94
:101A8000F4EEC77AF1EE10FA11D4B1EE0C9AF1EE41
:101A9000048A4FF0040905E0B1EE0C9AF1EE048AD5
:101AA0004FF0040903F07CF8074600252DE0B2EE64
:101AB0000C9AF0EE498A4FF00309F3E7002500E0A5
:101AC0000025FFF7A1FE354CD4F800A0DAF850202D
:101AD00018EE101A2C4B186801F050FECAF8480096
:101AE000D4F800A0DAF854205946284B186801F0C1
:101AF00045FECAF84C002468226E3146244B186813
:101B000001F00EFFE066FFF793FE03F049F8C01BFB
:101B100040452FD2214B1B68D3ED147A77EEC87A5B
:101B2000F0EEE77AF4EEE87AF1EE10FAC6D5D3EDEE
:101B3000157A07EE10BA77EEC77AF0EEE77AF4EE90
:101B4000C97AF1EE10FABBD5D3ED187A07EE106A18
:101B500077EEC77AF0EEE77A9FED117AF4EEC77A66
:101B6000F1EE10FA0DD50135EDB2A945A9D8002046
:101B7000FFF718FF0020FFF715FFBDEC048BBDE851
:101B8000F88F00259DE700BF680500206405002050
:101B9000600500200000FA44008089440002002013
:101BA000CDCCCC3D2DE9F84F2DED028B0D4605280F
:101BB00079D8DFE800F06F031C3B5265BD4B93ED15
:101BC000068A93ED097AF0EE007A77EE277A17EE1F
:101BD00090AAB94B1B78012B03D04FF00708B74FE1
:101BE00056E001F516754FF00708B44F50E0B14BC1
:101BF00093ED078AD3F828A0AF4B1B78012B07D0B1
:101C0000012B58D901F6B8354FF00F08AC4F3FE023
:101C100001F6B835F7EE007A07EE10AA77EE277ACC
:101C200017EE90AA4FF00F08A54F31E0A14B93EDAE
:101C3000078AD3F828A0A04B1B78012B07D0012BD3
:101C40003DD901F26C754FF014089D4F20E001F66C
:101C5000B8354FF00F089A4F1AE0964B93ED068A6D
:101C6000D3F824A0944B1B78012B03D04FF0070826
:101C7000944F0DE001F5C8754FF00708914F07E04C
:101C80008C4B93ED058AD3F820A04FF0070800276E
:101C900001241CE0874B93ED058AD3F820A04FF078
:101CA00007080027F4E74FF007084FF0000A08EE96
:101CB00010AA5746ECE74FF00708814FE8E74FF0CE
:101CC00007087F4FE4E7022100F0ACFE0134042C4A
:101CD00006DC7D4B53F824008379022BF6D0F2E723
:101CE000FFF71CFCFFF790FD784B186801F030FD02
:101CF000774B186801F02CFD764B186801F028FD31
:101D000002F04EFF0646002447E00024694BD3ED65
:101D1000037AF5EE407AF1EE10FA06D1D3ED047AAB
:101D2000F5EE407AF1EE10FA37D06B4BD3F8009015
:101D300099F87130032B1FD8DFE803F006D87B9F9A
:101D40000024E3E70024E1E7DFF868B1DBF80C10DA
:101D500018EE102A5D4B186801F010FDC9F8480014
:101D6000DBF810105C4BD3F800905246584B1868C3
:101D700001F004FDC9F84C00584B1A68564BD3F8D3
:101D800000903946564B186801F0CAFDC9F86C003E
:101D9000FFF74EFD052005F013FA02F001FF801B4E
:101DA000A84239D2434BD3ED037A77EEC87AF0EEEE
:101DB000E77A9FED4C7AF4EEC77AF1EE10FAA4D8E8
:101DC000D3ED047A07EE10AA77EEC77AF0EEE77A41
:101DD0009FED447AF4EEC77AF1EE10FAB0D83F4B9B
:101DE000D3ED007A07EE107A77EEC77AF0EEE77A55
:101DF0009FED3D7AF4EEC77AF1EE10FAA2D50134E8
:101E0000E4B2A04582D80020FFF7CCFD082005F001
:101E1000D7F90120FFF7C6FD0020FFF7C3FD08201A
:101E200005F0CEF90120FFF7BDFDBDEC028BBDE84A
:101E3000F88FDFF880B0DBF80C1018EE102A234B77
:101E4000186801F09BFCDFF89090D9F8003007EE9D
:101E5000900AF1EE677AC3ED127ADBF81010524661
:101E60001B4B186801F08AFCD9F8003007EE900A85
:101E7000F1EE677AC3ED137A7EE7DFF838B0DBF86E
:101E80000C1018EE102A114B186801F077FC124B59
:101E9000D3F8009007EE900AF1EE677AC9ED137A55
:101EA000DBF8101052460A4B186801F067FCC9F8BD
:101EB000480061E724020020FC0100200000874365
:101EC000000034430000B442B40200205C0500204E
:101ED00058050020540500200002002004060020C0
:101EE00060050020CDCC8C3FCDCCCC3DDFF840B0A0
:101EF000DBF80C1018EE102A0A4B186801F03EFCB3
:101F0000C9F84C00DBF810105246074B186801F076
:101F100035FC064B1B6807EE900AF1EE677AC3EDBD
:101F2000127A29E7580500205C05002000020020F5
:101F3000240200202DE9F0472DED028B08EE100A57
:101F40008A4616469846012400E00134042C09DC38
:101F50004A4B53F824008379022BF6D0022100F07B
:101F600061FDF2E7FFF7DAFAFFF74EFC444B186821
:101F700001F0EEFB434B186801F0EAFB424B186896
:101F800001F0E6FB07EE90AAF0EEE77A9FED3F7ACC
:101F9000F4EEC77AF1EE10FA06D4F2EE008A02F0FF
:101FA000FFFD0746002529E0F2EE048AF7E7002549
:101FB00000E00025FFF728FC354CD4F80090D9F854
:101FC000502018EE101A2E4B186801F0D7FBC9F8F4
:101FD0004800D4F80090D9F854205146294B18688D
:101FE00001F0CCFBC9F84C002468226E3146264B28
:101FF000186801F095FCE066FFF71AFC02F0D0FDCE
:10200000C01B404531D2224B1C68D4ED147A77EEC8
:10201000C87AF0EEE77AF4EEE87AF1EE10FAC6D577
:10202000D4ED157A07EE10AA77EEC77AF0EEE77ACC
:10203000B2EE087AF4EEC77AF1EE10FAB9D5D4ED23
:10204000187A07EE106A77EEC77AF0EEE77A9FED1E
:10205000117AF4EEC77AF1EE10FA0DD50135EDB232
:10206000042DA7D90020FFF79DFC0020FFF79AFC64
:10207000BDEC028BBDE8F08700259BE7B402002091
:10208000500500204C0500204805002000007A443F
:1020900000020020CDCCCC3D2DE9F0472DED028B88
:1020A00008EE100A8A461646984600F02DFF0220D8
:1020B00000F008FF00F018FF142005F081F8FFF78A
:1020C0002DFAFFF7A1FB3D4B186801F041FB3C4B9B
:1020D000186801F03DFB3B4B186801F039FB02F03A
:1020E0005FFD0746002526E0002500E00025FFF7FC
:1020F0008BFB354CD4F80090D9F8502018EE101A0C
:102100002E4B186801F03AFBC9F84800D4F800904B
:10211000D9F8542051462A4B186801F02FFBC9F812
:102120004C002468226E3146264B186801F0F8FBFB
:10213000E066FFF77DFB02F033FDC01B404533D264
:10214000214B1C68D4ED147A77EEC87AF0EEE77A6A
:102150009FED1E7AF4EEC77AF1EE10FAC4D5D4EDF5
:10216000157A07EE10AA77EEC77AF0EEE77AB0EEAE
:10217000007AF4EEC77AF1EE10FAB7D5D4ED187AFA
:1021800007EE106A77EEC77AF0EEE77A9FED107AE5
:10219000F4EEC77AF1EE10FA0DD50135EDB2022D4D
:1021A000A5D90020FFF7FEFB0020FFF7FBFBBDECED
:1021B000028BBDE8F087002599E700BF44050020A9
:1021C000400500203C050020000200209A9919409B
:1021D000CDCCCC3D074B196800220A601B685A60C1
:1021E00005499960DA60054A1A6100221A750122D0
:1021F0005A7570470000002000007041CDCC4C3E65
:1022000010B50146084B1C6801232375A06807F030
:1022100011F80146E06806F0E9FF01466060034BF3
:10222000D86900F0A5FC10BD00000020B402002019
:1022300038B50446094D284604F0C4F82046FFF797
:10224000DFFF052002F0B2FC2046FFF7D9FF052092
:1022500004F0B6FF284604F073F838BDF4060020F9
:1022600038B5124B0022DA601A61114A5A61114ADC
:102270001A62114A9A61114A5A62114ADA61114A84
:102280009A6200241C72A3F8314083F83340DC6268
:1022900083F830401C605C600B4D092229460B48D6
:1022A00004F0E8FE2C606C602C7238BD2402002023
:1022B000000062430080C8430000ED4300009243E9
:1022C0000000B34300008E430C060020A408002049
:1022D000082900D0704738B504460378EE2B00D0AB
:1022E00038BD431813F8013CFF2BF9D1214D0A46A4
:1022F0000146284609F05BFA63782B722B7ADAB232
:10230000112B2AD8102AEBD3A278E37843EA0223D0
:1023100007EE903AB8EE677A2179627942EA0122B3
:1023200007EE902AF8EE677AA079411EC9B2022919
:10233000D6D8B3F5207FD3D2B2F5F07FD0D20D4BF3
:1023400083ED037AC3ED047A0B4B1A68022AC7DCCB
:10235000084B134483F83100C2E7122AC0D1054B61
:10236000D4F80200D862A27983F83020034B01220E
:102370001A70B5E7240200201C0200202002002071
:10238000104A5169104B196092695A600F481861E0
:102390000F4A5A619861DA6100219960DFF840C004
:1023A000C3F80CC018625A620A4A9A62002283F883
:1023B0002C2083F82D20084B19605960074999603B
:1023C0001A737047B402002068020020A373984279
:1023D0005D8CCF4200002841580200200000F041EF
:1023E000F4F5CB43324BD3ED047A93ED057AF5EE59
:1023F000C07AF1EE10FA23DDDFED2E6AF4EEE67A14
:10240000F1EE10FA09D5B5EEC07AF1EE10FA04DD5E
:10241000B4EEE67AF1EE10FA2CD4DFED266AF4EE93
:10242000E67AF1EE10FA0BD5DFED236AB4EEE67A28
:10243000F1EE10FA04DDB5EEC07AF1EE10FA19D41F
:10244000DFED1C6AF4EEE67AF1EE10FA2ADDDFED3C
:102450001B6AF4EEE67AF1EE10FA10D5B5EEC07A0A
:10246000F1EE10FA0BDDDFED136AB4EEE67AF1EE71
:1024700010FA04D50E4B002283F82D207047DFEDB3
:102480000F6AF4EEE67AF1EE10FA0BD5DFED0A7A78
:10249000B4EEE77AF1EE10FA04DDB5EEC07AF1EEB3
:1024A00010FA00D47047024B012283F82D20F9E77F
:1024B0006802002000003443000034C30000B4432D
:1024C00038B52DED0A8B07EE100A07EE901A9FED36
:1024D000626A27EE067ADFED616A87EE267A17EEEA
:1024E000105A67EE867AC7EEA67A17EE904A28460B
:1024F00006F00EFE09EE900A9FED59AA69EE8A9A3F
:10250000DFED588A79EEE89A284606F037FE09EEA4
:10251000100A29EE0A9ADFED54AA39EE2A9A2046CB
:1025200006F0F6FD08EE100A28EE0A8A38EE288A30
:10253000204606F023FE08EE900A68EE8A8A78EEBE
:10254000AA8A78EE69CA6CEEAC7A78EEC9AA2AEE4D
:10255000AA7A77EE877A17EE904A204606F0B4FD05
:1025600007EE900AB6EE00CA67EE8C7A67EEA77A9D
:102570009FED3E7A77EE677A17EE900A06F0A4FD9B
:102580000AEE100A79EE88BA6BEE8CBA39EE28BAE8
:102590002BEE0CBA204606F097FD07EE900AF1EEFE
:1025A0006AAA8AEEA7CACCEEA7AAFFF71BFF304B98
:1025B00093F82D30002B40D12AEE0CCA3CEE2BCAEA
:1025C0002B4B83ED02CA6AEE2AAA7AEE8BAAC3EDE0
:1025D00003AA274C94ED03AAD4ED02AA7AEEE97A75
:1025E00017EE901A7AEE497A17EE900A06F06AFD15
:1025F00007EE900ADFED199A67EEA97A9FED169A19
:1026000087EE897A84ED067A3AEE68AA7AEEC8AA4D
:10261000F0EEEA7A17EE901AF0EECA7A17EE900A08
:1026200006F050FD07EE900A67EEA97A87EE897AE8
:1026300084ED077ABDEC0A8B38BD2AEE0CCA7BEE1E
:10264000CCBA0B4BC3ED02BA2AEE2AAA3BEE4ABA29
:1026500083ED03BABDE700BFDB0F49400000344300
:10266000000020430000C84200000000000884472A
:102670006802002008B5134B1A6892ED097ADFED65
:10268000125A27EE257A9FED116AC7EE067A9FED62
:10269000107A77EE877AC3ED047A5A68D2ED096A28
:1026A00066EEA56A86EE867ADFED0A6A37EE267A4E
:1026B00083ED057A17EE101A17EE900AFFF700FF68
:1026C00008BD00BF6802002000003443DB0F494012
:1026D000A37398425D8CCF4210B52DED048B444B13
:1026E00093ED086A93ED047A36EE476AF0EEC67A07
:1026F000D3ED0A5AF4EEE57AF1EE10FA48D500224D
:1027000083F82C203A4BD3ED096AD3ED057A76EEA7
:10271000E76AB0EEE65AF4EEC55AF1EE10FA11DCB3
:10272000F2EE054AB4EEE45AF1EE10FA54D59FEDFC
:10273000315A65EE855AF5EEC06AF1EE10FA48DDC1
:10274000F0EE656A37EE067A37EEA68ADFED2A7A72
:1027500037EE677A9FED299A27EE097ADFED288A0E
:10276000234CC7EE287A17EE901A206800F000FA82
:10277000DFED247A78EE677A67EE897AC7EEA87A79
:1027800017EE901A606800F0F3F9BDEC048B10BDF1
:10279000F2EE036AF4EEE67AF1EE10FA0ED5DFED12
:1027A000157A65EEA77AB5EEC06AF1EE10FA02DD91
:1027B000B0EE676AA6E7B1EE676AA3E7B5EEC06A56
:1027C000F1EE10FA02DDB0EE656A9BE7B1EE656AE4
:1027D00098E7F1EE656AB5E7F5EEC06AF1EE10FA3A
:1027E00002DDF0EE656AADE7F1EE656AAAE700BFCB
:1027F00068020020CDCCCC3EA3739842DB0F494049
:10280000000034435D8CCF4208B5054B1862596215
:10281000012283F82C20034803F092FD08BD00BF7D
:1028200068020020F406002008B502490248FFF7BC
:10283000EBFF08BD5D8CCF42A373984200000000FF
:1028400008B5FDF719FE0DA3D3E90023FDF796FFA8
:102850000022094BFDF7B2FCFEF716F981B201F533
:102860000061822340F6340209B2022000F098FC95
:1028700008BD00BFAFF300800000E03F918EDB8118
:102880005490C33F08B5084BD3ED017A9FED077A0A
:1028900077EE877A064B93ED067A77EEC77A17EED6
:1028A000900AFFF7CDFF08BD58020020A37398429D
:1028B0006802002008B5034B5860034803F040FD50
:1028C00008BD00BF58020020F406002038B5104DA6
:1028D000284603F077FD01240E4B1C73C82340F6F5
:1028E000485240F67D01204600F05AFC032004F0D7
:1028F00067FCC82340F6485240F67D01204600F0B0
:102900004FFC0A2004F05CFC284603F019FD38BD9A
:10291000F40600205802002010B5104C204603F0A9
:1029200051FD0F4B00221A73C82340F6485240F65F
:10293000B831012000F034FC032004F041FCC8232E
:1029400040F6485240F6B831012000F029FC0A2038
:1029500004F036FC204603F0F3FC10BDF406002022
:1029600058020020034608460B70C3F307224A7042
:10297000C3F307428A70C3F30763CB70704700004C
:1029800030B583B004460D4B08221A6104229A60C8
:102990000022DA6082685A6002F002F900F16405F0
:1029A000224652F80C0B01AB044902F083FA18B12D
:1029B00002F0F6F8A842F3D903B030BD9C02002023
:1029C00001600272064B1B78A0F80930C37A23F02D
:1029D000E003C372012380F85430002383717047F1
:1029E0000400002008B5C37A032262F30403C37213
:1029F0000B4B1B78A0F80930C37A23F0E003C372B5
:102A0000002304E0C218002111730133DBB2072B4D
:102A1000F8D9FFF7B5FF0A2004F0D2FB08BD00BFCC
:102A20000400002038B504460D46C37A122262F332
:102A30000403C3720D4B1B78A0F80930C37A23F04E
:102A4000E003C372002303E0E21800201073013397
:102A5000072BF9DD47F20503A38125742046FFF714
:102A60008FFFA5710A2004F0ABFB38BD04000020E5
:102A700008B5C37A042262F30403C3720B4B1B78BC
:102A8000A0F80930C37A23F0E003C372002304E006
:102A9000C218002111730133DBB2072BF8D9FFF7FD
:102AA0006FFF0A2004F08CFB08BD00BF040000206B
:102AB00008B5C37A062262F30403C3720B4B1B787A
:102AC000A0F80930C37A23F0E003C3720123037333
:102AD00004E0C218002111730133DBB2072BF8D9CF
:102AE000FFF74EFF0A2004F06BFB08BD0400002036
:102AF00010B590F80BC0122464F3040C80F80BC0DE
:102B0000084C94F800C0A0F809C090F80BC02CF055
:102B1000E00C80F80BC0818112680261FFF730FF82
:102B200010BD00BF0400002008B5C37A112262F373
:102B30000403C3720A4B1B78A0F80930C37A23F050
:102B4000E003C3728181022304E0C21800211173E3
:102B50000133DBB2072BF8D9FFF712FF08BD00BF26
:102B60000400002008B547F21901FFF7DDFF08BD9A
:102B700030B583B00446084601AD2946FFF7F2FEA2
:102B80002A4647F216012046FFF7B2FF03B030BDD8
:102B900030B583B00446084601AD2946FFF7E2FE92
:102BA0002A4647F217012046FFF7A2FF0A2004F049
:102BB00007FB03B030BD30B583B0044607EE901A72
:102BC000B3EE0E7AF4EEC77AF1EE10FA09DCBBEE42
:102BD0000E7AF4EEC77AF1EE10FA04D5FBEE0E7A17
:102BE00001E0F3EE0E7A01AD294617EE900AFFF7E9
:102BF000B9FE2A4647F20A012046FFF779FF03B0E3
:102C000030BD30B583B00446084601AD2946FFF714
:102C1000A9FE2A4647F218012046FFF769FF0A205D
:102C200004F0CEFA03B030BD10B504460B784A78F4
:102C300043EA022347F21902934204D047F21B02EF
:102C4000934231D010BDCA798B791B0443EA0263E9
:102C50004A7943EA02230A79134307EE903A027A4B
:102C6000012A01D0032A03D107EE903AF1EE677AE8
:102C7000C4ED0E7A9FED1B7A67EE877AC4ED107A69
:102C800094F8543023B1002384F85430C4ED117A01
:102C900094ED117A37EEC77A84ED137AC4ED117A88
:102CA00001F07EFFE063CDE7CA798B791B0443EA2C
:102CB00002634A7943EA02230A79134307EE903A02
:102CC000027A012A01D0032A03D107EE903AF1EEED
:102CD000677AC4ED0B7A9FED037A67EE877AC4EDCD
:102CE000147AAFE70000484210B504463F2900F2CD
:102CF00093800023037161711178537843EA0123B3
:102D00001BB283F400431BB2A3839178D37843EAC8
:102D100001231BB283F400431BB2217A012901D0A5
:102D2000032901D15B421BB2E3831179537943EA52
:102D300001231BB283F400431BB2238493791B024B
:102D40001BB2D27913436384636AA362A08B00B27F
:102D500007EE900AF8EEE77A17EE900AFDF78CFB83
:102D600000224FF07C53FDF7DFFB00222E4BFDF7D6
:102D7000DBFB2BA3D3E90023FDF7D6FBFDF7ACFE6D
:102D80006062E08B00B207EE900AF8EEE77A17EE89
:102D9000900AFDF771FB00224FF07C53FDF7C4FB56
:102DA0000022224BFDF7C0FBFDF796FEE062D4ED5A
:102DB0000B7A9FED1F7A67EE877AC4ED147A208C28
:102DC00000B207EE900AF8EEE77A17EE900AFDF7E8
:102DD00053FB00224FF07C53FDF7A6FB0022154B5E
:102DE000FDF7A2FBFDF778FE2063638C1BB207EEB4
:102DF000903AF8EEE77AF2EE046A87EEA67A84ED6E
:102E00000D7A10BD49080133062B3FF774AF11F05E
:102E1000010FF7D02371F5E70123F5E7AFF3008049
:102E200000000060FB2109400000104000003E400F
:102E3000000048420000284008B51F4B18601F4B97
:102E40000340FE2B08D01C4BDB7803F01F03022B42
:102E500012D0112B22D008BD174BB3F80130DBB2D2
:102E60005A1ED2B2062AF6D8154A52F823300868FC
:102E70004A6858619A61EEE70F4BB3F801C05FFAF8
:102E80008CF0431EDBB2062BE5D80A464FEA1C2124
:102E90000B4B53F82000FFF727FFDCE7064BB3F896
:102EA0000130DBB25A1ED2B2062AD4D8044A52F8F4
:102EB0002300FFF7B9FECEE798020020FF00001FB5
:102EC000B402002038B50546012407E02946054B29
:102ED00053F82400FFF7A6FD0134E4B2042CF5D921
:102EE00038BD00BFB402002010B5012406E0054B38
:102EF00053F82400FFF776FD0134E4B2042CF6D930
:102F000010BD00BFB402002010B5012406E0054B3F
:102F100053F82400FFF7ACFD0134E4B2042CF6D9D9
:102F200010BD00BFB402002010B5FFF7EDFF094C43
:102F30002046FFF7BDFD04F15800FFF7B9FD04F18D
:102F4000B000FFF7B5FD04F58470FFF7B1FDFFF7A2
:102F5000CBFF10BDDC03002038B5184A184B536076
:102F600003F15801916003F1B001D16003F584735E
:102F70001361012408E022461249104B53F8240043
:102F8000FFF71EFD0134E4B2042CF4D9FFF7CCFFA7
:102F900001240DE0094D4FF0824155F82400FFF760
:102FA000F7FD094955F82400FFF72BFE0134E4B280
:102FB000042CEFD90220FFF785FF38BDB4020020B2
:102FC000DC030020980500200000B84138B52DED45
:102FD000048B06EE901A06EE103A089C07EE900A53
:102FE000B1EE677ADFED187A86EEA79A06EE902AA0
:102FF000F1EE666AC6EEA78A86EE278A134DC7EE03
:10300000277A17EE901A6868FFF7D5FD204604F07E
:10301000D7F819EE101AA868FFF7CDFD204604F086
:10302000CFF818EE901AE868FFF7C5FD204604F0C7
:10303000C7F818EE101A2869FFF7BDFD204604F006
:10304000BFF8BDEC048B38BD00004842B40200203C
:1030500008B5392002F018FA08BD000010B5392073
:1030600002F00EFA054C21222146054804F002F830
:1030700021220021204608F00BFB10BD3C06002059
:103080005C08002038B50546052407E02946054BB5
:1030900053F82400FFF7C6FC0134E4B2062CF5D93E
:1030A00038BD00BFB402002038B5144A144B536138
:1030B00058339361052408E0224612490F4B53F818
:1030C0002400FFF77DFC0134E4B2062CF4D905247A
:1030D0000DE00A4D4FF0824155F82400FFF758FDEE
:1030E000094955F82400FFF78CFD0134E4B2062CA1
:1030F000EFD90120FFF7C6FF38BD00BFB4020020A2
:103100002C030020980500200000A04108B50146CE
:10311000024BD869FFF786FC08BD00BFB40200204F
:1031200010B5094C0948E06107220949FFF748FC3E
:103130000849E069FFF72CFD0749E069FFF761FDE9
:103140000120FFF7E3FF10BDB4020020D4020020ED
:1031500098050020000040410000A04108B5FFF79D
:10316000FBFEFFF7A1FFFFF7DBFF00F093F808BDC0
:1031700000231A4605E010F803C06244D2B20133BE
:10318000DBB28B42F7D3D043C0B2704708B50A46D2
:103190000A230146014803F02CFE08BDEC0800207C
:1031A0002DE9F04F8BB006460193022856D0012836
:1031B0005FD040F648539A4200D91A465FFA81F927
:1031C000C1F307255FFA82F8140AFF238DF818303F
:1031D0008DF819308DF80C604FF00A0B8DF80DB09A
:1031E0004FF0030A8DF80EA04FF029038DF80F3031
:1031F000019B8DF810308DF811908DF8125000273A
:103200008DF813708DF814708DF815808DF81640B8
:103210000B2103A8FFF7ACFF8DF81A608DF81BB0E7
:103220008DF81CA04FF029028DF81D20019B8DF810
:103230001E308DF81F908DF820508DF821708DF87C
:1032400022708DF823808DF824408DF825000E2102
:1032500006A8FFF79BFF0BB0BDE8F08F40F28E731E
:10326000994210DD40F699439942A2DD40F699411A
:103270009FE7B1F5006F09DB40F6B833994298DD5E
:1032800040F6B83195E740F28F7192E74FF4006154
:103290008FE7000070B5442007F0F0FA0446974B22
:1032A0001860442007F0EAFA954B1860442007F0B4
:1032B000E5FA944B1860442007F0E0FA924B18604E
:1032C000442007F0DBFA914B1860442007F0D6FA4F
:1032D0008F4B1860442007F0D1FA8E4B18604420C1
:1032E00007F0CCFA8C4B1860442007F0C7FA8B4BE0
:1032F0001860442007F0C2FA894B1860442007F098
:10330000BDFA884B1860442007F0B8FA864B186065
:10331000F4B1864B2360794E3468854B6360854BEE
:10332000A360854BE360002525616561834BA36144
:10333000E36101F035FC2062336800225A629A6230
:10334000DA621A635D639D63DD63012283F84020C6
:103350006B4B1B68F3B17A4A1A60694E3468744B40
:103360006360784BA360744BE36000252561656161
:10337000724BA361E36101F013FC20623368002209
:103380005A629A62DA621A635D639D63DD630122A9
:1033900083F840205B4B1B68FBB16B4A1A60594EA7
:1033A0003468634B6360694BA360634BE360002543
:1033B00025616561664BA361664BE36101F0F0FB3B
:1033C0002062336800225A629A62DA621A635D638D
:1033D0009D63DD63012283F840204B4B1B68FBB1EA
:1033E0005D4A1A60484E3468514B63605B4BA36082
:1033F000514BE360002525616561594BA361594B31
:10340000E36101F0CDFB2062336800225A629A62C8
:10341000DA621A635D639D63DD63012283F84020F5
:103420003A4B1B68FBB1504A1A60384E34684F4B18
:1034300063604F4BA360404BE360002525616561ED
:103440004C4BA3614C4BE36101F0AAFB2062336853
:1034500000225A629A62DA621A635D639D63DD63D9
:10346000012283F840202A4B1B68FBB1434A1A60B3
:10347000274E34682E4B6360414BA3602E4BE360B4
:103480000025256165613F4BA3613F4BE36101F07E
:1034900087FB2062336800225A629A62DA621A63FA
:1034A0005D639D63DD63012283F84020194B1B6837
:1034B000FBB1364A1A60174E3468354B6360354BA2
:1034C000A3601D4BE360002525616561324BA3615C
:1034D000324BE36101F064FB2062336800225A62E0
:1034E0009A62DA621A635D639D63DD63012283F889
:1034F0004020094B1B68002B72D051E0680500206A
:1035000064050020600500205C05002058050020AF
:1035100054050020500500204C05002048050020DF
:1035200044050020400500203C0500203333834043
:103530006F12833AA4709D3FBC74933C0000964484
:103540008FC28540E17AB43F9A99E9404260253FB5
:103550000000824200005C430000F0401F851B40D9
:10356000000020430000024466664E410AD7A33C97
:10357000CDCC8C4000004843000043443333C3406B
:10358000D7A3F03E0000484200009643CDCC0C404B
:103590000AD7233C3D0AD73E0000E1430000EB433D
:1035A000554A1A60554E3468554B6360554BA360BD
:1035B000554BE360002525616561544BA361544B75
:1035C000E36101F0EDFA2062336800225A629A62E8
:1035D000DA621A635D639D63DD63012283F8402034
:1035E0004C4B1B68FBB14C4A1A604A4E3468444B42
:1035F00063604A4BA360444BE3600025256165612D
:10360000474BA361474BE36101F0CAFA206233687C
:1036100000225A629A62DA621A635D639D63DD6317
:10362000012283F84020404B1B68FBB13F4A1A60DF
:103630003D4E34683E4B63603E4BA360324BE360CB
:103640000025256165613C4BA3613C4BE36101F0C2
:10365000A7FA2062336800225A629A62DA621A6319
:103660005D639D63DD63012283F84020344B1B685A
:10367000F3B1344A1A60324E34682D4B6360324BDA
:10368000A360214BE3600025256165611F4BA361A9
:10369000E36101F085FA2062336800225A629A627F
:1036A000DA621A635D639D63DD63012283F8402063
:1036B000264B1B68FBB1184A1A60244E3468104B25
:1036C0006360164BA360104BE360002525616561C4
:1036D000134BA361134BE36101F062FA206233687C
:1036E00000225A629A62DA621A635D639D63DD6347
:1036F000012283F8402070BD000020404C050020CE
:103700000AD7233C8FC2753EBC74933C0000E14352
:103710000000EB43480500200000C040D7A3F03E66
:10372000000082420000964344050020CDCC904129
:103730006F12833A14AE3740000016440000E14493
:10374000400500201F850B40AE47613E3C05002030
:1037500098B138B5044600250561456101F020FAAD
:10376000206200236362A362E36223636563A5634F
:10377000E563012384F8403038BD704710B52DED66
:10378000028B044690F84030002B40F0928008EE07
:10379000901A08EE102A01F003FA236AC31A07EE02
:1037A000903AF8EE677A9FED597A87EE875A206251
:1037B00084ED035A78EEC87A94ED007A27EE277AE2
:1037C00094ED046A65EE276A36EE266A84ED046A93
:1037D000D4ED016AF5EE406AF1EE10FA1CD0D4ED9A
:1037E000065AC5EEA64AB4EEE46AF1EE10FA69DDB7
:1037F000C4ED044AF4EEC75AF1EE10FA6CD5F5EEBA
:10380000C07AF1EE10FA67DD94ED046ADFED405AFC
:1038100026EE256A84ED046A94ED046A26EE866A33
:10382000B5EEC05AF1EE10FA63DDD4ED055A77EE2D
:10383000E55AC5EE856ADFED375A66EEA56AD4ED26
:103840000E5ADFED354A65EEA45A76EEA56AC4ED50
:103850000E6AD4ED025A65EEA66A37EE067A37EEA6
:10386000267AD4ED066AF4EEC76AF1EE10FA08D4AF
:10387000F1EE666AF4EEC76AF1EE10FA01DCF0EEE2
:10388000476A94ED077A94ED0D6A76EEC65A25EEF6
:10389000077AB4EEE57AF1EE10FA2DD576EE076AE6
:1038A000C4ED0D6AC4ED057A16EE900ABDEC028BEC
:1038B00010BD002380F8403001F072F92062DFED86
:1038C000176AF1E7F1EE644AB4EEE46AF1EE10FA39
:1038D00090D5C4ED044A8DE7F1EE655AF4EEC75A6F
:1038E000F1EE10FA98DDF5EEC07AF1EE10FA93D50C
:1038F0008AE7DFED0A6A9EE7B1EE475AF4EEC55A51
:10390000F1EE10FACCD576EE476AC9E700007A44AA
:103910006666663FCDCC4C3FCDCC4C3E00000000EF
:1039200010B52DED028B044690F84030002B40F08E
:10393000928008EE901A08EE102A01F031F9236AFD
:10394000C31A07EE903AF8EE677A9FED597A87EE40
:10395000875A206284ED035A78EEC87A94ED007A93
:1039600027EE277A94ED046A65EE276A36EE266A1A
:1039700084ED046AD4ED016AF5EE406AF1EE10FAC6
:103980001CD0D4ED065AC5EEA64AB4EEE46AF1EEB8
:1039900010FA69DDC4ED044AF4EEC75AF1EE10FAEC
:1039A0006CD5F5EEC07AF1EE10FA67DD94ED046A9D
:1039B000DFED405A26EE256A84ED046A94ED046A30
:1039C00026EE866AB5EEC05AF1EE10FA63DDD4ED4C
:1039D000055A77EEE55AC5EE856ADFED375A66EE91
:1039E000A56AD4ED0E5ADFED354A65EEA45A76EE9F
:1039F000A56AC4ED0E6AD4ED025A65EEA66A37EEEA
:103A0000067A37EE267AD4ED066AF4EEC76AF1EE4E
:103A100010FA08D4F1EE666AF4EEC76AF1EE10FA15
:103A200001DCF0EE476A94ED077A94ED0D6A76EECC
:103A3000C65A25EE077AB4EEE57AF1EE10FA2DD5E6
:103A400076EE076AC4ED0D6AC4ED057A16EE900AAB
:103A5000BDEC028B10BD002380F8403001F0A0F8CF
:103A60002062DFED176AF1E7F1EE644AB4EEE46A32
:103A7000F1EE10FA90D5C4ED044A8DE7F1EE655AE7
:103A8000F4EEC75AF1EE10FA98DDF5EEC07AF1EED9
:103A900010FA93D58AE7DFED0A6A9EE7B1EE475A3E
:103AA000F4EEC55AF1EE10FACCD576EE476AC9E7C6
:103AB00000007A446666663FCDCC4C3FCDCC4C3E90
:103AC0000000000008B50C480C4B0360092343605C
:103AD00000238360C3604FF40032026143610376C8
:103AE00043768376C3760377437701F073F800B9A2
:103AF00008BD00F0D5FBFBE79805002000640040FE
:103B000008B50C480C4B0360092343600023836015
:103B1000C3604FF4003202614361037643768376DB
:103B2000C3760377437701F055F800B908BD00F07C
:103B3000B7FBFBE7700500200068004010B58AB0B5
:103B400000230593069307930893099303683E4A5D
:103B5000934204D03D4A934234D00AB010BD3C4A4F
:103B6000136801331360012B1FD000240194394BDB
:103B70001A6B42F008021A631B6B03F008030193EF
:103B8000019B0323059302220692089309230993BC
:103B900005A9314801F080FE22460521142001F0DC
:103BA0005FFC142001F06CFCD7E700230093294B45
:103BB0001A6C42F000721A641B6C03F000730093DD
:103BC000009BD2E700230293224B1A6C42F08062E2
:103BD0001A641B6C03F080630293029B1C4A1368F7
:103BE00001331360012B21D000240494194B1A6B6C
:103BF00042F002021A631B6B03F002030493049B5E
:103C00004FF440530593022306930323089309239B
:103C1000099305A9114801F03FFE224606214020E4
:103C200001F01EFC402001F02BFC96E700230393DB
:103C3000084B1A6C42F000721A641B6C03F000739C
:103C40000393039BD0E700BF00640040006800407E
:103C50006C05002000380240000C024000040240C5
:103C600070B58AB000240594069401250795009448
:103C7000019402940394049408956946094801F05C
:103C80004FF80E230593069407950094019402942F
:103C90000394049408956946034801F041F80AB07A
:103CA00070BD00BF980500207005002010B582B0DF
:103CB00000240094164B1A6B42F480021A631A6BAC
:103CC00002F480020092009A01941A6B42F40012EE
:103CD0001A631B6B03F400130193019B2246052119
:103CE0000C2001F0BDFB0C2001F0CAFB224606218E
:103CF0000E2001F0B5FB0E2001F0C2FB2246072189
:103D0000392001F0ADFB392001F0BAFB02B010BD43
:103D10000038024008B512E01F48C3688268416855
:103D20000068FDF76BFE1C4B00229A740122DA74C6
:103D30001A4B186803F0ABFA0A2003F041FA164B4D
:103D40009B7C002BF8D0144BDB7C002BF4D1124B66
:103D50005B7C032BE7D801A252F823F0193D000841
:103D60006D3D0008793D0008893D00080A4BD9687F
:103D7000187CFDF717FFD6E70748C36882684168DB
:103D80000068FEF7D7F8CEE70348C3688268416849
:103D90000068FEF781F9C6E7DC050020C4050020B5
:103DA00008B512E0164B1878FCF7C4FF144B00223C
:103DB0001A7101225A71134802F004FB124B186861
:103DC00003F065FA0A2003F0FBF90D4B1B79002B79
:103DD000F8D00B4B5B79002BF4D10A4802F0B0FA13
:103DE000074BDB78012BDDD0022B04D0002BDDD17B
:103DF000FCF788FFDAE7024B1878FDF755FAD5E7AC
:103E0000D4050020F4060020C005002008B5FFF707
:103E1000A5F9FCF76BFF00F0FBFC3C2003F0D0F9A8
:103E200000F0F6FC4FF4FA6003F0CAF900F0D8FA9B
:103E30004FF47A7003F0C4F9FAE7000008B5124AAB
:103E40000121084603F0CAF9104B1860104A0121FD
:103E5000084603F0C3F90F4B18600F4A00210F48C2
:103E600003F054F90E4B18600E4A00210E4803F07F
:103E70004DF90E4B18600E4A00210E4803F046F92A
:103E80000D4B186008BD00BFF8D20008C405002023
:103E9000E8D20008C005002050D30008153D0008F6
:103EA000D00500202CD30008A13D0008CC0500203F
:103EB00008D300080D3E0008C80500202DE9F04198
:103EC0008CB007AD00240794089409940A940B94CD
:103ED00000943A4B1A6B42F010021A631A6B02F00C
:103EE00010020092009A01941A6B42F040021A6389
:103EF0001A6B02F040020192019A02941A6B42F08E
:103F000001021A631A6B02F001020292029A0394F0
:103F10001A6B42F008021A631A6B02F0080203924D
:103F2000039A04941A6B42F020021A631A6B02F08F
:103F300020020492049A05941A6B42F080021A63DC
:103F40001A6B02F080020592059A06941A6B42F0F1
:103F500002021A631B6B03F002030693069B184EC2
:103F600022460121304601F09BFD164F01224FF4FD
:103F70000061384601F094FD01224FF48041304643
:103F800001F08EFD44F2010307934FF00108CDF8D4
:103F9000208009940A942946304601F07DFC4FF4B4
:103FA00000630793CDF8208009940A942946384687
:103FB00001F072FC0CB0BDE8F08100BF0038024097
:103FC000001402400010024010B58AB0044601AB54
:103FD00003AA002100F0E3FF30B923680B4A9342A3
:103FE00004D00B4A934209D00AB010BD059B042BA4
:103FF000FAD101A90498FEF71FFFF5E7059B042BF2
:10400000F2D101A90498FEF717FFEDE70064004024
:104010000068004038B57A4B98420BD0794B9842F3
:1040200000F0DB80784B984203D0784B984200F048
:10403000D88038BD00F0B4FD754B1860754D764CD6
:10404000AC46BCE80F000FC4BCE80F000FC4DCF89E
:104050000030237021220021284607F019FB00239D
:1040600090E0591C6C48415C532940F09280D91D66
:10407000415C090209B29C1D005D014307EE901AE4
:10408000F8EEE77A9FED657A67EEC77A9FED647A7E
:1040900067EE877A6349C1ED007A6349D1ED007A12
:1040A000F4EEC77AF1EE10FA45D59FED607AF4EEA2
:1040B000C77AF1EE10FA3EDD5A49D1ED006A9FED64
:1040C0005C7AF4EEC76AF1EE10FA34D5D1ED006AED
:1040D0009FED587AF4EEC76AF1EE10FA2BDD5648E0
:1040E0000168013101604F4991ED007ADFED4C7AB2
:1040F000B4EE677AF1EE10FA4BD091ED007ADFED75
:104100004D7AB4EE677AF1EE10FA42D04A49D1ED19
:10411000007AF8EEE77A9FED497A67EE877A4149AF
:1041200091ED007A77EE877A4548C0ED007A08680D
:104130003D4908602DE09FED3E7AF4EEC77AF1EE3E
:1041400010FAD0D59FED3B7AF4EEC77AF1EE10FA73
:10415000C9DD344991ED007ADFED347AB4EEE77AC7
:10416000F1EE10FABFDD91ED007ADFED2D7AB4EEBD
:10417000E77AF1EE10FAB6D52F48016801390160EF
:10418000B1E70133192B22DC234AD25C552A3FF4D4
:1041900068AF552AF5D15A1C1F498A5C522AF0D1C2
:1041A000DA1D8A5C120212B2981D095C0A4307EEFE
:1041B000902AF8EEE77A9FED197A67EEC77A9FEDBD
:1041C000217A67EE877A204AC2ED007AD9E7212268
:1041D00010490B4802F04EFF2BE71C4B01221A70CE
:1041E00027E71B4C09212046FEF772F800232360C5
:1041F0006360237209222146044802F03BFF18E75E
:104200005C08002034090020EC080020A4080020ED
:10421000FC0500203C0600201806002000000038A5
:104220000000344308060020F80500200000B442D6
:104230000000B4C2000034C3F40500200000B44301
:10424000040600200000FA44000600205D0600205D
:104250000C06002008B503680E4A934203D00E4AAC
:10426000934203D008BD00F08FFCFBE70B4B1B789B
:104270003BB1012BF6D1FEF72FFA084B00221A7042
:10428000F0E7FEF7F7F9FEF7FDFA044B01221A708A
:10429000E8E700BF00140040000C0040F0050020DB
:1042A00072B6FEE710B594B008AC3022002120466B
:1042B00007F0EEF900230393049305930693079305
:1042C0000193234A116C41F080511164126C02F089
:1042D00080520192019A02931E4B1A6842F44042A6
:1042E0001A601B6803F440430293029B0123089366
:1042F0004FF48033099302230E934FF480020F9200
:1043000006221092B4221192129304231393204692
:1043100001F00AFCA8B901F0C9FBA0B90F2303936F
:1043200002230493002305934FF4A05306934FF404
:1043300080530793052103A801F046FE28B914B065
:1043400010BDFFF7ADFFFFF7ABFFFFF7A9FF00BF01
:10435000003802400070004008B500F0FBFBFFF79A
:10436000A1FFFFF7ABFDFFF7A1FC00F079FA00F029
:1043700091FA00F0C3FAFFF7A5FB00F0F1F900F0A5
:1043800053F9FFF7BDFB00F09FFA114C09222146BB
:10439000104802F06FFE0023236063602372FFF772
:1043A0005FFC0D4C204600F057FD0221204600F036
:1043B000ABFE0A4C204600F04FFD0221204600F0E3
:1043C000A3FE02F075FEFFF739FD02F083FEFEE763
:1043D0000C060020A408002098050020700500208D
:1043E00008B5094807F076F808480146FEF70CFAC8
:1043F00041F2883002F0E4FEFEF716FA41F288300E
:1044000002F0DEFE08BD00BFC4D200080000344345
:1044100000B583B0002200920D4B596C41F48041ED
:104420005964596C01F48041009100990192196C12
:1044300041F0805119641B6C03F080530193019B80
:104440000F216FF0010001F00BF803B05DF804FBE1
:104450000038024030B589B0044600230193214B57
:104460001A6C42F020021A641B6C03F020030193C3
:10447000019B02A903A801F07DFE069BCBB901F0C8
:1044800059FE0346184AA2FB03239B0C013B174825
:10449000174A026040F2E732C260436000230361C2
:1044A0008360836102F0C6F8054630B1284609B042
:1044B00030BD01F03FFE4300E4E70C4801F040FF4F
:1044C00005460028F2D1372000F0DAFF0F2C01D981
:1044D0000125EBE700222146372000F0C1FF054B04
:1044E0001C60E3E70038024083DE1B4360060020C7
:1044F0000014004010000020FEE7FEE7FEE7FEE7A4
:10450000FEE7704708B5024801F0D8F808BD00BFC3
:104510009C07002008B5024801F0D0F808BD00BF94
:10452000FC07002008B5024800F00CFE08BD00BFE3
:104530009805002008B5024801F061FF08BD00BFE2
:10454000F406002008B5024801F059FF08BD00BF7D
:104550006006002008B5024801F0B0F808BD00BFB1
:104560003C07002008B5024800F0ECFD08BD00BF84
:10457000700500200120704708B507F0EBF81623FE
:1045800003604FF0FF3008BD08B54FF0FF31FFF773
:10459000F3FFFEE770B50C461646002506E0AFF3C4
:1045A0000080214601F8010B01350C46B542F6DBCF
:1045B000304670BD4FF0FF3070474FF400534B60F2
:1045C00000207047012070470020704710B5034657
:1045D0000C4A0D490D48006840B10C48006803447E
:1045E000521A934206D8094A136010BD0748084C76
:1045F0000460F2E707F0AEF80C2303604FF0FF30E1
:10460000F3E700BF0000032000040000A80600201C
:1046100020540020034AD2F8883043F47003C2F8D3
:104620008830704700ED00E000B587B000230293AA
:10463000039304930593009301931548154A026070
:1046400059224260836040F6C312C26003618361F5
:1046500001F0F0FF90B94FF48053029302A90C4887
:1046600002F0F3F868B90023009301936946084803
:1046700002F03EFA40B907B05DF804FBFFF710FE08
:10468000E9E7FFF70DFEEEE7FFF70AFEF3E700BFED
:10469000F4060020000C004002680E4B9A4200D045
:1046A000704700B583B00022019203F50B33196CFB
:1046B00041F0080119641B6C03F008030193019B8E
:1046C0000621322000F0CCFE322000F0D9FE03B0EB
:1046D0005DF804FB000C00400268094B9A4200D0D0
:1046E000704782B000230193064B1A6C42F04002DF
:1046F0001A641B6C03F040030193019B02B07047E6
:10470000001800400038024000B587B00023019334
:10471000029303930493059302680E4B9A4202D0CE
:1047200007B05DF804FB002300930B4B1A6B42F0BB
:1047300080021A631B6B03F080030093009B4023ED
:104740000193022302930923059301A9034801F071
:10475000A3F8E5E70018004000380240001C0240C2
:1047600000B589B00023019302930393049305934A
:10477000069307931148124A02604360836048F22F
:104780003422C2600361836101F080FF80B960233D
:104790000193002202920392059201A9074801F0B9
:1047A000D9FF40B90548FFF7AFFF09B05DF804FB3A
:1047B000FFF776FDEBE7FFF773FDF3E7AC060020AC
:1047C00000180040642800D96420054BDA6802FB19
:1047D0000000044AA2FB002040091B685863704790
:1047E000AC0600201F85EB5108B53220FFF7EAFF29
:1047F0000021024802F0B8F808BD00BFAC06002056
:1048000008B50021014802F02DF908BDAC060020D2
:1048100008B5FFF7E9FF282002F0D2FCFFF7F0FF10
:1048200008BD000000B583B001904FF6FF73012270
:1048300001A9034802F0DDFA019803B05DF804FB1A
:104840003409002070B50C461646002504E014F823
:10485000010BFFF7E7FF0135B542F8DB304670BDCD
:1048600008B50A480A4B03604FF4E1334360002364
:104870008360C36003610C2242618361C36102F003
:1048800088FA00B908BDFFF70BFDFBE734090020EB
:104890000078004008B50A480A4B03604FF4E13342
:1048A000436000238360C36003610C224261836123
:1048B000C36102F06EFA00B908BDFFF7F1FCFBE737
:1048C000EC080020007C004008B50A480A4B036051
:1048D0004FF4E133436000238360C36003610C2223
:1048E00042618361C36102F054FA00B908BDFFF769
:1048F000D7FCFBE7A40800200048004008B50A48A0
:104900000A4B03604FF4E133436000238360C360CC
:1049100003610C2242618361C36102F03AFA00B97B
:1049200008BDFFF7BDFCFBE75C0800200014014058
:1049300030B58FB00446002309930A930B930C9370
:104940000D930368754A93420BD0754A934245D044
:10495000744A934264D0744A934200F0A0800FB02E
:1049600030BD00250195714B1A6C42F080421A64EB
:104970001A6C02F080420192019A02951A6B42F081
:1049800010021A631B6B03F010030293029B4FF497
:10499000C073099302230A9303230C9308230D93F6
:1049A00009A9634800F078FF6248634B03604FF049
:1049B000206343608560C5604FF480630361456197
:1049C0008561C5610562456200F0DEFD18B9594B8D
:1049D000E3639C63C3E7FFF763FCF8E700210391FF
:1049E000524B1A6C42F000421A641A6C02F00042F8
:1049F0000392039A04911A6B42F010021A631B6B24
:104A000003F010030493049B0323099302220A92E8
:104A10000C9308230D9309A9454800F03DFF9EE73C
:104A200000250595414B1A6C42F480221A641A6CD9
:104A300002F480220592059A06951A6B42F008024C
:104A40001A631B6B03F008030693069B4FF4407335
:104A5000099302230A9303230C9307230D9309A9B7
:104A6000364800F019FF3648364B03604FF00063BC
:104A700043608560C5604FF4806303614561856173
:104A8000C5614FF400330362456200F07DFD18B943
:104A90002B4BE3639C6362E7FFF702FCF8E700251A
:104AA0000795224B5A6C42F020025A645A6C02F06D
:104AB00020020792079A08951A6B42F040021A6387
:104AC0001B6B03F040030893089B4FF48443099346
:104AD00002230A9303230C9308230D9309A91A4870
:104AE00000F0DAFE19481A4B03604FF02063436070
:104AF0008560C5604FF48063036145618561C56170
:104B00004FF480330362456200F03EFD18B90F4B4D
:104B1000E3639C6323E7FFF7C3FBF8E700780040FB
:104B2000007C004000480040001401400038024072
:104B300000100240FC07002058600240000C0240B8
:104B40009C07002028600240001802403C0700201B
:104B50002864024008B50B4B1A6842F400721A60D0
:104B60001A6842F480621A601A6842F480721A600D
:104B7000032000F063FC0F20FFF76CFCFFF748FCFC
:104B8000002008BD003C0240034A1168034B1B781B
:104B90000B441360704700BF7C0900200C0000200C
:104BA000014B1868704700BF7C09002038B50446E7
:104BB000FFF7F6FF0546B4F1FF3F02D0044B1B7828
:104BC0001C44FFF7EDFF401BA042FAD338BD00BFE5
:104BD0000C000020002800F0A18038B5044690F8B1
:104BE0002030D3B12268136843F001031360FFF74C
:104BF000D7FF054623685A6812F0010F10D1FFF75E
:104C0000CFFF401B0A28F5D9636A43F4003363627F
:104C1000052384F82030012038BDFEF78FFFE1E73F
:104C20001A6822F002021A60FFF7BAFF05462368ED
:104C30005A6812F0020F0DD0FFF7B2FF401B0A288E
:104C4000F5D9636A43F400336362052384F82030A6
:104C50000120E1E7227E012A3DD01A6822F080027D
:104C60001A60637E012B3BD02268136823F0400357
:104C70001360A37E012B39D02268136823F0200330
:104C80001360E37E012B37D02268136843F01003D2
:104C90001360237F012B35D02268136823F00803AB
:104CA0001360637F012B33D02268136823F0040361
:104CB0001360A368E26813432269134362691343D4
:104CC0006268013A21681343CB61002060620123CE
:104CD00084F82030A0E71A6842F080021A60C0E72A
:104CE0002268136843F040031360C2E72268136828
:104CF00043F020031360C4E72268136823F0100315
:104D00001360C6E72268136843F008031360C8E71E
:104D10002268136843F004031360CAE70120704758
:104D200090F82030013BDBB2012B05D9436A43F4F4
:104D3000802343620120704730B5464BD3F80022F0
:104D400042F00102C3F80022D3F8002222F47C5280
:104D5000C3F80022D3F80022486A42EA0022C3F8CE
:104D600000224A6902F01F02012000FA02F2D3F881
:104D70001C026FEA020C20EA0200C3F81C02CB6995
:104D8000C3B9344BD3F80C020CEA0000C3F80C0290
:104D90008C884869CD6844EA0544483043F830407F
:104DA0008C68088840EA04404C6904F1480E03EB23
:104DB000CE035860CB69012B1ED08B69002B33D1F9
:104DC0002448D0F804320CEA0303C0F804320B691B
:104DD0008BBB2048D0F814320CEA0303C0F814321D
:104DE0000B6A012B2ED01B4AD2F8003223F00103AC
:104DF000C2F80032002030BD164BD3F80C0210432D
:104E0000C3F80C028C8848690D6844EA05444830B0
:104E100043F8304088894C698D6840EA0540483441
:104E200003EBC4035860C8E70A48D0F804321343C0
:104E3000C0F80432CBE70748D0F814321343C0F867
:104E40001432CDE70349D1F81C321343C1F81C32A8
:104E5000C9E700BF0064004070B5044690F82030F8
:104E6000012B06D0436A43F40023436201263046F7
:104E700070BDDEB2022380F820300268136823F090
:104E800001031360FFF78CFE054623685B6813F08F
:104E9000010F0CD0FFF784FE431B0A2BF5D9636A80
:104EA00043F400336362052384F82030DFE70026F3
:104EB0006662DCE730B590F820C00468A4680CF1A5
:104EC000FF3C5FFA8CFCBCF1010F62D814F0E05F8C
:104ED00059D0C4F3016C012404FA0CF41C608B68F3
:104EE000002B3DD10D68CB68046843EA45550CF1B1
:104EF00018031B01E55003680C690CF1180E03EB55
:104F00000E135C600B7D012B35D0D17993791B0496
:104F100043EA0163517943EA012314790168234389
:104F200001EB0C11C1F88C31D17893781B0443EA62
:104F30000163517843EA0123117802680B4302EBC5
:104F40000C12C2F8883102680CF1180C4FEA0C1CE4
:104F500052F80C3043F0010342F80C3000201DE001
:104F60004C6843EAC403CC6823430CF118042401C1
:104F700005682B51BFE7036803EB0E13596841F432
:104F800080715960C1E7436A43F400134362012012
:104F900004E0436A43F480234362012030BD90F86B
:104FA00020C00CF1FF3C5FFA8CFCBCF1010F00F259
:104FB000A58030B451B90468E46814F0030F10D12F
:104FC000436A43F40013436201207EE004682469CD
:104FD00014F0030F05D1436A43F400134362012028
:104FE00073E0056801F11B0424012C5904F004044A
:104FF0009460002C6BD1056801F11B0424012C592D
:10500000640D1460046801F11B0C4FEA0C1C54F889
:105010000C4004F00204D4600468A444DCF804509A
:1050200015F0080F5BD008241461046801F11B0C13
:1050300004EB0C146468C4F307249461046804EB63
:105040000C146468240C5461026802EB0112D2F85B
:10505000B8211A70026802EB0112D2F8B821C2F32B
:1050600007225A70026802EB0112D2F8B821C2F38B
:1050700007429A70026802EB0112D2F8B821120EB0
:10508000DA70026802EB0112D2F8BC211A710268D0
:1050900002EB0112D2F8BC21C2F307225A71026856
:1050A00002EB0112D2F8BC21C2F307429A710268E6
:1050B00002EB0112D2F8BC21120EDA71C1B90268FA
:1050C000D36843F02003D360002030BC70470568EC
:1050D00001F11B0424012C59E408546092E701F10A
:1050E0001B0504EB0514646804F00F0414619CE7CD
:1050F0000268136943F020031361E5E7436A43F450
:10510000802343620120704790F82030013BDBB2DE
:10511000012B05D9436A43F4802343620120704781
:10512000026853690B435361002070477047704712
:1051300070477047704770477047704770477047B7
:10514000704770472DE9F84F054603685C69D3F84E
:1051500004809F68D3F80CA0D3F81090D3F818B04F
:1051600014F001063BD017F0010616D001229A6018
:1051700017F0020F08D117F0040F0CD117F0080632
:1051800006D04FF4805608E0FFF7D0FF002604E079
:10519000FFF7CFFF01E04FF4006617F4807F0DD0DA
:1051A0002B684FF480729A6017F4007F40F096806D
:1051B00017F4806F00F0968046F4005617F4803F95
:1051C0000DD02B684FF480329A6017F4003F40F006
:1051D000938017F4802F00F0938046F4004614F07B
:1051E000080F07D01AF0100F04D046F400762B6891
:1051F0001022DA6014F0040F03D01AF0080F40F008
:10520000898014F0020F05D02B68DB6813F0030FC0
:1052100040F0878014F0400F07D019F0100F04D031
:1052200046F480662B6810221A6114F0200F02D019
:1052300019F0080F79D114F0100F04D02B681B69F6
:1052400013F0030F78D114F4003F02D018F0100FC0
:1052500076D114F4803F02D018F0080F77D114F4FF
:10526000004F37D018F0040F31D014F4807F04D0F1
:105270001BF0010F01D046F0010614F4007F04D0AA
:105280001BF0020F01D046F0020614F4806F04D028
:105290001BF0040F01D046F0040614F4006F16D082
:1052A0001BF0700B13D0BBF1400F66D056D8BBF18A
:1052B000200F5CD0BBF1300F5CD0BBF1100F01D1DF
:1052C00046F008062A68936923F0700393612B68FF
:1052D00004225A60002E56D1BDE8F88F2846FFF709
:1052E00026FF6BE717F4006F02D046F4804665E7AF
:1052F0002846FFF71FFF61E72846FFF719FF6EE713
:1053000017F4002F02D046F4803668E72846FFF7EE
:1053100012FF64E72B680822DA602846FFF70CFFCB
:105320006FE72846FEF750FE74E72B6808221A61E3
:105330002846FFF703FF7EE72846FFF7FEFE82E7D9
:105340002B6810225A602846FFF7F9FE81E72B6888
:1053500008225A602846FFF7F3FE80E7BBF1500FA2
:105360000ED0BBF1600FADD146F48076AAE746F0CF
:105370001006A7E746F02006A4E746F04006A1E79E
:1053800046F080069EE76B6A33436B622846FFF760
:10539000D8FEA1E7002807DB00F01F024009012327
:1053A0009340024A42F82030704700BF00E100E01D
:1053B00000280CDB00F01F0240090123934020303D
:1053C000034A42F82030BFF34F8FBFF36F8F70470F
:1053D00000E100E0002808DB0901C9B200F16040EB
:1053E00000F5614080F80013704700F00F000901DC
:1053F000C9B2014B1954704714ED00E000B500F03C
:105400000700C0F1070CBCF1040F28BF4FF0040CDB
:10541000031D062B0FD9C31E4FF0FF3E0EFA0CF0F2
:1054200021EA000199400EFA03FE22EA0E0241EA47
:1054300002005DF804FB0023EEE70000074AD36892
:1054400023F4E0631B041B0C000200F4E060034340
:1054500043F0BF6343F40033D360704700ED00E0D6
:1054600010B50446054BD868C0F30220FFF7C6FF0D
:1054700001462046FFF7AEFF10BD00BF00ED00E083
:1054800008B5FFF787FF08BD08B5FFF791FF08BD16
:1054900030B405682C6824F480242C6004686360B0
:1054A0008368402B05D0036899600368DA6030BCDC
:1054B000704703689A600368D960F8E710B403681E
:1054C000D9B210390A4AA2FB01421209094CA25C66
:1054D000C2655F2907D96FF3090304338365806DC3
:1054E0005DF8044B70476FF309038365F7E700BF6E
:1054F000ABAAAAAA8CD30008836A826992B9012B4D
:105500000AD0022B02D00BB100207047C36A13F0FF
:10551000807F28D100207047C36AB3F1C07F24D0B8
:1055200000207047B2F5005F09D0022B25D9032B6C
:1055300025D1C36A13F0807F23D100207047032B4D
:1055400003D8DFE803F01404140A00207047C36A8C
:1055500013F0807F0DD100207047C36AB3F1C07F84
:1055600009D00020704701207047012070470120BA
:1055700070470120704701207047012070470020CC
:10558000704701207047000070B50446FFF708FB24
:10559000002C5BD00546022384F83530002384F8C4
:1055A00034302268136823F00103136023681A68FB
:1055B00012F0010F0AD0FFF7F3FA431B052BF5D9C0
:1055C00020236365032084F8350070BD1A682049E4
:1055D00011406268A0680243E06802432069024308
:1055E00060690243A0690243E0690243206A024302
:1055F0000A43616A04291ED01A602668756925F07D
:105600000705636A1D43042B07D1A36A1D43E36AA0
:105610001BB12046FFF770FF90B975612046FFF778
:105620004DFFE26D3F2393408360002060650123BE
:1056300084F83530C9E7E16A206B01430A43DBE7B0
:1056400040236365012084F83500BEE70120BCE7F4
:105650003F8010F038B50446856D90F8340001287D
:105660002AD0012084F8340094F83500012804D0B1
:10567000002384F83430022038BD022084F835003D
:10568000002060652046FFF703FFE26D3F23934053
:10569000AB602268136843F016031360236C23B1D8
:1056A0002268136843F0080313602268136843F00C
:1056B000010313600020DFE70220DDE7F0B583B0CF
:1056C000044600230193724B1D68724BA3FB053502
:1056D000AD0A876D3E68C26D08239340334210D0F7
:1056E00003681A6812F0040F0BD01A6822F0040243
:1056F0001A60C26D08239340BB60436D43F0010301
:105700004365E26D01239340334209D02268526918
:1057100012F0800F04D0BB60636D43F00203636539
:10572000E26D04239340334209D02268126812F0DC
:10573000020F04D0BB60636D43F004036365E26D48
:1057400010239340334224D02268126812F0080FCD
:105750001FD0BB6023681A6812F4802F0DD01B681D
:1057600013F4002F04D1236C9BB12046984710E01E
:10577000A36C73B1204698470BE01A6812F4807F3F
:1057800003D11A6822F008021A60236C0BB120467C
:105790009847E26D20239340334254D02268126828
:1057A00012F0100F4FD0BB6094F83530052B0ED09F
:1057B00023681A6812F4802F33D01B6813F4002F6B
:1057C0002AD1636C002B3ED0204698473BE02268EC
:1057D000136823F0160313602268536923F08003D3
:1057E0005361236CA3B12268136823F0080313608C
:1057F000E26D3F239340BB60012384F835300023E2
:1058000084F83430236D002B3FD0204698473CE08D
:10581000A36C002BE7D1EBE7E36BA3B120469847DD
:1058200011E01A6812F4807F09D11A6822F0100280
:105830001A60012384F83530002384F83430E36B98
:105840000BB120469847636DFBB1636D13F0010FF8
:1058500017D0052384F835302268136823F001033C
:105860001360019B01330193AB4204D823681B688A
:1058700013F0010FF5D1012384F83530002384F8AB
:105880003430E36C0BB12046984703B0F0BD00BF45
:1058900008000020B5814E1B00230F2B00F2F6807C
:1058A00070B582B066E085684FEA430E032404FABF
:1058B0000EF425EA0405CC6804FA0EF42C43846047
:1058C000446824EA02044A68C2F300129A40224360
:1058D00042605DE0DC08083450F8242003F007053E
:1058E000AD004FF00F0E0EFA05FE22EA0E0E0A6909
:1058F000AA4042EA0E0240F824205DE0092200E0BE
:10590000002202FA0EF22A430234614D45F82420A7
:10591000604A94686FEA0C0224EA0C054E6816F49B
:10592000801F01D04CEA04055A4CA560E46802EAE5
:1059300004054E6816F4001F01D04CEA0405554CCE
:10594000E560646802EA04054E6816F4003F01D081
:105950004CEA04054F4C6560246822404D6815F4FC
:10596000803F01D04CEA04024A4C226001330F2BE5
:1059700000F28A8001229A400C6804EA020C32EAA2
:105980000404F3D14C6804F00304013C012C8AD9CF
:105990004A6802F00302032A09D0C4685D000322AA
:1059A000AA4024EA02048A68AA402243C2604A68E4
:1059B00002F00302022A8DD004684FEA430E03224C
:1059C00002FA0EF224EA02044A6802F0030202FA22
:1059D0000EF2224302604A6812F4403FC6D0002211
:1059E00001922D4A546C44F480445464526C02F485
:1059F00080420192019A9C08A51C254A52F8255024
:105A000003F0030E4FEA8E0E0F2202FA0EF225EA81
:105A10000205224A90423FF473AF02F58062904241
:105A200022D002F58062904220D002F5806290423E
:105A30001ED002F5806290421CD002F58062904236
:105A40001AD002F58062904218D002F5806290422E
:105A500016D002F58062904214D002F58062904226
:105A60003FF44CAF0A224CE701224AE7022248E702
:105A7000032246E7042244E7052242E7062240E7E4
:105A800007223EE708223CE702B070BD704700BF26
:105A900000380140003C0140003802400000024054
:105AA0000AB18161704709048161704710B582B005
:105AB00000230193194B1A6C42F080521A641B6C3C
:105AC00003F080530193019B154B01221A64FFF7E9
:105AD00067F80446134B5B6813F4803F08D1FFF767
