:020000040800F2
:100000000000032031990008C9490008CB490008C5
:10001000CD490008CF490008D14900080000000080
:10002000000000000000000000000000B17900089E
:10003000D349000800000000517A00088D750008BF
:100040008199000881990008819900088199000828
:100050008199000881990008819900088199000818
:100060008199000881990008819900088199000808
:10007000D549000881990008E549000881990008E0
:1000800081990008F54900088199000881990008C4
:10009000054A0008819900088199000881990008A3
:1000A00081990008819900088199000881990008C8
:1000B00081990008819900088199000881990008B8
:1000C00081990008819900088199000881990008A8
:1000D0008199000881990008819900088199000898
:1000E0008199000881990008819900088199000888
:1000F0008199000881990008819900088199000878
:100100008199000881990008154A00088199000822
:10011000819900088199000881990008254A000802
:1001200081990008354A00088199000881990008E2
:100130008199000881990008819900088199000837
:10014000454A0008819900088199000881990008B2
:100150008199000881990008819900088199000817
:100160008199000881990008819900088199000807
:100170008199000881990008819900080000000019
:1001800081990008819900088199000881990008E7
:1001900081990008819900088199000881990008D7
:0C01A00000000000000000008199000831
:1001B00081F0004102E000BF83F0004330B54FEA18
:1001C00041044FEA430594EA050F08BF90EA020F85
:1001D0001FBF54EA000C55EA020C7FEA645C7FEA18
:1001E000655C00F0E2804FEA5454D4EB5555B8BF3B
:1001F0006D420CDD2C4480EA020281EA030382EAAC
:10020000000083EA010180EA020281EA0303362D3D
:1002100088BF30BD11F0004F4FEA01314FF4801C10
:100220004CEA113102D0404261EB410113F0004F22
:100230004FEA03334CEA133302D0524263EB4303D9
:1002400094EA050F00F0A780A4F10104D5F1200E77
:100250000DDB02FA0EFC22FA05F2801841F10001D2
:1002600003FA0EF2801843FA05F359410EE0A5F1A6
:1002700020050EF1200E012A03FA0EFC28BF4CF0D7
:10028000020C43FA05F3C01851EBE37101F000458D
:1002900007D54FF0000EDCF1000C7EEB00006EEB9A
:1002A0000101B1F5801F1BD3B1F5001F0CD3490824
:1002B0005FEA30004FEA3C0C04F101044FEA44527B
:1002C00012F5800F80F09A80BCF1004F08BF5FEA02
:1002D000500C50F1000041EB045141EA050130BDE2
:1002E0005FEA4C0C404141EB0101013C28BFB1F5F4
:1002F000801FE9D291F0000F04BF01460020B1FA3F
:1003000081F308BF2033A3F10B03B3F120020CDA11
:100310000C3208DD02F1140CC2F10C0201FA0CF0EF
:1003200021FA02F10CE002F11402D8BFC2F1200C54
:1003300001FA02F120FA0CFCDCBF41EA0C0190400A
:10034000E41AA2BF01EB0451294330BD6FEA040453
:100350001F3C1CDA0C340EDC04F11404C4F120023E
:1003600020FA04F001FA02F340EA030021FA04F350
:1003700045EA030130BDC4F10C04C4F1200220FAA7
:1003800002F001FA04F340EA0300294630BD21FAE5
:1003900004F0294630BD94F0000F83F4801306BFAB
:1003A00081F480110134013D4EE77FEA645C18BF9F
:1003B0007FEA655C29D094EA050F08BF90EA020F36
:1003C00005D054EA000C04BF1946104630BD91EA2E
:1003D000030F1EBF0021002030BD5FEA545C05D131
:1003E0004000494128BF41F0004130BD14F5800470
:1003F0003CBF01F5801130BD01F0004545F0FE41E4
:1004000041F470014FF0000030BD7FEA645C1ABF18
:10041000194610467FEA655C1CBF0B46024650EA4F
:10042000013406BF52EA033591EA030F41F400217B
:1004300030BD00BF90F0000F04BF0021704730B501
:100440004FF4806404F132044FF000054FF00001D6
:1004500050E700BF90F0000F04BF0021704730B597
:100460004FF4806404F1320410F0004548BF40426C
:100470004FF000013EE700BF42004FEAE2014FEAC1
:1004800031014FEA02701FBF12F07F4393F07F4F9C
:1004900081F06051704732F07F4208BF704793F09F
:1004A0007F4F04BF41F40021704730B54FF46074B2
:1004B00001F0004521F000411CE700BF50EA0102B5
:1004C00008BF704730B54FF000050AE050EA01025E
:1004D00008BF704730B511F0004502D5404261EBCE
:1004E00041014FF4806404F132045FEA915C3FF40F
:1004F000D8AE4FF003025FEADC0C18BF03325FEAAC
:10050000DC0C18BF033202EBDC02C2F1200300FA5C
:1005100003FC20FA02F001FA03FE40EA0E0021FA81
:1005200002F11444BDE600BF70B54FF0FF0C4CF46F
:10053000E06C1CEA11541DBF1CEA135594EA0C0F21
:1005400095EA0C0F00F0DEF82C4481EA030621EA5C
:100550004C5123EA4C5350EA013518BF52EA033597
:1005600041F4801143F4801338D0A0FB02CE4FF049
:100570000005E1FB02E506F00042E0FB03E54FF079
:100580000006E1FB03569CF0000F18BF4EF0010E71
:10059000A4F1FF04B6F5007F64F5407404D25FEA6D
:1005A0004E0E6D4146EB060642EAC62141EA555120
:1005B0004FEAC52040EA5E504FEACE2EB4F1FD0C62
:1005C00088BFBCF5E06F1ED8BEF1004F08BF5FEAE0
:1005D000500E50F1000041EB045170BD06F0004692
:1005E00046EA010140EA020081EA0301B4EB5C043F
:1005F000C2BFD4EB0C0541EA045170BD41F4801137
:100600004FF0000E013C00F3AB8014F1360FDEBF5B
:10061000002001F0004170BDC4F10004203C35DA37
:100620000C341BDC04F11404C4F1200500FA05F3BA
:1006300020FA04F001FA05F240EA020001F000425B
:1006400021F0004110EBD37021FA04F642EB0601D1
:100650005EEA430E08BF20EAD37070BDC4F10C04FB
:10066000C4F1200500FA04F320FA05F001FA04F2BF
:1006700040EA020001F0004110EBD37041F10001AB
:100680005EEA430E08BF20EAD37070BDC4F12005B6
:1006900000FA05F24EEA020E20FA04F301FA05F21E
:1006A00043EA020321FA04F001F0004121FA04F2C6
:1006B00020EA020000EBD3705EEA430E08BF20EA96
:1006C000D37070BD94F0000F0FD101F000464000D0
:1006D00041EB010111F4801F08BF013CF7D041EA52
:1006E000060195F0000F18BF704703F00046520056
:1006F00043EB030313F4801F08BF013DF7D043EA27
:100700000603704794EA0C0F0CEA135518BF95EADC
:100710000C0F0CD050EA410618BF52EA4306D1D163
:1007200081EA030101F000414FF0000070BD50EA82
:10073000410606BF1046194652EA430619D094EA0C
:100740000C0F02D150EA013613D195EA0C0F05D1F6
:1007500052EA03361CBF104619460AD181EA03014A
:1007600001F0004141F0FE4141F470014FF0000002
:1007700070BD41F0FE4141F4780170BD70B54FF09D
:10078000FF0C4CF4E06C1CEA11541DBF1CEA13551D
:1007900094EA0C0F95EA0C0F00F0A7F8A4EB0504FF
:1007A00081EA030E52EA03354FEA013100F08880F6
:1007B0004FEA03334FF0805545EA131343EA1263BF
:1007C0004FEA022245EA111545EA10654FEA002674
:1007D0000EF000419D4208BF964244F1FD0404F52D
:1007E000407402D25B084FEA3202B61A65EB030589
:1007F0005B084FEA32024FF480104FF4002CB6EB46
:10080000020E75EB030E22BFB61A754640EA0C00C5
:100810005B084FEA3202B6EB020E75EB030E22BF05
:10082000B61A754640EA5C005B084FEA3202B6EB46
:10083000020E75EB030E22BFB61A754640EA9C0005
:100840005B084FEA3202B6EB020E75EB030E22BFD5
:10085000B61A754640EADC0055EA060E18D04FEA93
:10086000051545EA16754FEA06164FEAC30343EA33
:1008700052734FEAC2025FEA1C1CC0D111F4801F00
:100880000BD141EA00014FF000004FF0004CB6E7F9
:1008900011F4801F04BF01430020B4F1FD0C88BF98
:1008A000BCF5E06F3FF6AFAEB5EB030C04BFB6EBA3
:1008B000020C5FEA500C50F1000041EB045170BD96
:1008C0000EF0004E4EEA113114EB5C04C2BFD4EBC3
:1008D0000C0541EA045170BD41F480114FF0000E47
:1008E000013C90E645EA060E8DE60CEA135594EAC3
:1008F0000C0F08BF95EA0C0F3FF43BAF94EA0C0FC6
:100900000AD150EA01347FF434AF95EA0C0F7FF43A
:1009100025AF104619462CE795EA0C0F06D152EA8E
:1009200003353FF4FDAE1046194622E750EA410672
:1009300018BF52EA43067FF4C5AE50EA41047FF483
:100940000DAF52EA43057FF4EBAE12E74FF0FF3CE8
:1009500006E000BF4FF0010C02E000BF4FF0010CB9
:100960004DF804CD4FEA410C7FEA6C5C4FEA430C32
:1009700018BF7FEA6C5C1BD001B050EA410C0CBF81
:1009800052EA430C91EA030F02BF90EA020F0020E3
:10099000704710F1000F91EA030F58BF994208BF4A
:1009A00090422CBFD8176FEAE37040F00100704707
:1009B0004FEA410C7FEA6C5C02D150EA013C07D15E
:1009C0004FEA430C7FEA6C5CD6D152EA033CD3D0A9
:1009D0005DF8040B704700BF8446104662468C46A3
:1009E0001946634600E000BF01B5FFF7B7FF0028D6
:1009F00048BF10F1000F01BD4DF808EDFFF7F4FFFF
:100A00000CBF012000205DF808FB00BF4DF808ED89
:100A1000FFF7EAFF34BF012000205DF808FB00BFAC
:100A20004DF808EDFFF7E0FF94BF012000205DF8CE
:100A300008FB00BF4DF808EDFFF7CEFF94BF012083
:100A400000205DF808FB00BF4DF808EDFFF7C4FF7C
:100A500034BF012000205DF808FB00BF4FEA410CC5
:100A60007FEA6C5C02D150EA013C0AD14FEA430CA8
:100A70007FEA6C5C02D152EA033C02D14FF00000E5
:100A800070474FF0010070474FEA410212F5001223
:100A900015D211D56FF47873B3EB625212D94FEAC5
:100AA000C12343F0004343EA505311F0004F23FAAF
:100AB00002F018BF404270474FF00000704750EA04
:100AC000013005D111F0004008BF6FF000407047C1
:100AD0004FF00000704700BF4FEA4102B2F1E0431F
:100AE00024BFB3F5001CDCF1FE5C0DD901F0004C15
:100AF0004FEAC0024CEA5070B2F1004F40EB830065
:100B000008BF20F00100704711F0804F21D113F190
:100B10003872BCBF01F00040704741F480114FEAC9
:100B20005252C2F11802C2F1200C10FA0CF320FA52
:100B300002F018BF40F001004FEAC1234FEAD3236F
:100B400003FA0CFC40EA0C0023FA02F34FEA4303D9
:100B5000CCE77FEA625307D150EA01331EBF4FF062
:100B6000FE4040F44000704701F0004040F0FE407D
:100B700040F40000704700BF53B94AB9002908BFCC
:100B800000281CBF4FF0FF314FF0FF3000F00CB8D1
:100B9000ADF1080C6DE904CE0AF07AF9DDF804E055
:100BA000DDE9022304B07047704700BF0000000079
:100BB00001F0FF01102A2BDB10F0070F08D010F80E
:100BC000013B013A8B422DD010F0070F42B3F6D112
:100BD000F0B441EA012141EA014122F007047FF02B
:100BE00000070023F0E80256083C85EA010586EA82
:100BF000010685FA47F5A3FA87F586FA47F6A5FABE
:100C000087F68EB9EED1F0BC01F0FF0102F00702C9
:100C100032B110F8013B013A83EA010313B1F8D174
:100C20000020704701387047002D06BF3546033855
:100C3000073815F0010F07D1013015F4807F02BF8E
:100C4000013015F4C03F0130F0BC0138704700BFDF
:100C5000034613F8012B002AFBD1181A01387047FC
:100C60000348044B834202D0034B03B1184770473B
:100C7000E8020020E8020020000000000548064BC2
:100C80001B1AD90F01EBA301491002D0034B03B18A
:100C900018477047E8020020E8020020000000002A
:100CA00010B5064C237843B9FFF7DAFF044B13B1B4
:100CB0000448AFF300800123237010BDE802002038
:100CC000000000009CDB000808B5054B1BB105497E
:100CD0000548AFF30080BDE80840FFF7CFBF00BF75
:100CE00000000000EC0200209CDB0008F0B5174675
:100CF000002418E00133A5EB040C9C4512DD10F82C
:100D000003E003F1010C10F80C209645F2D9CE5CFB
:100D1000C25400F80CE011F80CE001F803E001F80F
:100D20000C60E7E701347D1EA54201DD0023E2E708
:100D3000F0BD08B500F00AFA00F010FA01F08EFAE2
:100D400001F032FC01F032FB02F03AFA08BD00007B
:100D50002DE9F04180460F4616461D4602E00A2066
:100D600006F0A8FC0B4CA47C1CB10A4CE47C002CC3
:100D7000F5D0084CC4F800806760A660002161745B
:100D8000E5600123A374E174034B186806F0F9FCD5
:100D9000BDE8F0813C0700203007002038B505464B
:100DA0000C4602E00A2006F085FC0A4B9B7C1BB136
:100DB000084BDB7C002BF5D0064B1D7401225A74C6
:100DC000DC609A740021D974034B186806F0D9FCD2
:100DD00038BD00BF3C0700203007002038B50B4667
:100DE000441E114A04EB440002EB800090ED007AAF
:100DF00090ED016A84460D4D287800EB400E02EB21
:100E00008E0EDEED007ADEED016ADCF8082076EE6B
:100E1000666A16EE901A77EE677A17EE900AFFF779
:100E200097FF2C7038BD00BF000000200403002095
:100E30000138014B187070470403002070B5451E3F
:100E40000A4C6E0005EB450204EB8202012307CA3F
:100E500002F09CF940F2DC5006F02CFC2E4404EB2E
:100E60008602002307CA02F091F970BD74060020C3
:100E700008B50238C0EB0010C00007EE900AF8EE8B
:100E8000E77A17EE900A01F0BFFC08BD70B5044682
:100E90000D46082001F0E4FA207809304FF0FF31C8
:100EA000C0B2FFF79BFF2878FFF7E2FF4FF0FF315A
:100EB0004F4B186806F065FC4FF4FA7006F0FAFB29
:100EC0002078043040F6B831C0B2FFF767FF2078D1
:100ED000831EDBB2022B5CD94FF0FF31444B186804
:100EE00006F04FFC2878FFF7A9FF2378012B55D097
:100EF000082001F0B5FA607809304FF0FF31C0B238
:100F0000FFF76CFF6878FFF7B3FF4FF0FF31384B06
:100F1000186806F036FC6078043040F6B831C0B28C
:100F2000FFF73CFF6078831EDBB2022B4FD94FF0F6
:100F3000FF312F4B186806F024FC6878FFF77EFF1E
:100F4000A378052B48D0082001F08AFAA078093050
:100F50004FF0FF31C0B2FFF741FFA878FFF788FFDD
:100F6000234E4FF0FF31306806F00BFCA0780430C0
:100F700040F6B831C0B2FFF711FF4FF0FF313068D3
:100F800006F0FFFB082001F08DFAA878FFF756FF66
:100F900070BD0F30C0B2FFF74BFF9DE76378032BA6
:100FA00007D9042B0CD14FF0FF311020FFF716FFAB
:100FB00006E0022B04D34FF0FF310F20FFF70EFFA6
:100FC00040F226210A4B186806F0DBFB90E70F3051
:100FD000C0B2FFF72DFFAAE74FF0FF311020FFF757
:100FE000FDFE4FF0FF31024B186806F0CAFBAAE77E
:100FF0003007002010B5022906D0032907D00129A7
:1010000032D1F1EE047A04E0F2EE047A01E0F2EE7D
:10101000087A441E164B03EB840393ED007A77EEB7
:10102000677A17EE900A01F0BDFB124B53F824408B
:10103000204606F03FFB962006F03CFB0E4801F0F0
:10104000B1FB204606F036FB0C4801F039F94FF4AD
:10105000967006F02FFB01F0F9FB40F2DC5006F031
:1010600029FB01F0DDFB10BDDFED057AD1E700BF04
:10107000DCDB0008D0DB000800004040000011432A
:1010800000000000F8B50746084611464FF0000E74
:101090000FE05C1C84550EF101048C550133042BC8
:1010A00005DC0A4C14F803C0AC45F7D1F1E70EF1AA
:1010B000010EBEF1020F04DC764657F82E500023D5
:1010C000EDE70322FFF712FEF8BD00BF94030020F6
:1010D00000B585B0C82006F0EDFA694600230093FC
:1010E000019302930393FF238DF80030AA228DF819
:1010F00001208DF8033064230522044806F0F3F83C
:10110000C82006F0D7FA05B05DF804FB380A0020C5
:1011100000B585B0694600230093019302930393C1
:10112000FF238DF80030AA238DF80130A7238DF816
:10113000023064230522044806F0D5F8C82006F0E2
:10114000B9FA05B05DF804FB380A002008B5FFF7CE
:10115000BFFFFFF7DDFF01F037FF08BD08B57420C2
:101160000AF012F8144B1860002824D00023036200
:1011700043628362C362036343638363C363036045
:101180000D4A126853609360D36013615361936199
:10119000D361136453649364D36413655365936597
:1011A000D365136693665366D366042382F8703062
:1011B000002382F8713008BD0803002018490A682E
:1011C0000023136253629362D36213635363936386
:1011D000D36313600A6853609360D36013615361F3
:1011E0009361D361136453649364D364136553654B
:1011F0009365D365136693665366D366042382F8BA
:101200007030084A5168012381F85430916881F8A0
:101210005430D16881F85430126982F854307047E4
:1012200008030020EC0300202DE9F8432DED068B88
:1012300001F0C4FE142004F0A1FB8F4BD3ED007A23
:101240009FED8E7A67EE877A9FED8D7AC7EE877A6B
:1012500017EE909A1868FFF70FF90022894B08F0F3
:1012600091FBFFF739FC07EE900AF5EEC07AF1EE3C
:1012700010FA00F1B7809FED847AF4EEC77AF1EEB0
:1012800010FA07D99FED817AF4EEC77AF1EE10FAE1
:1012900040F3AD807E4B1B68002283F871207C4BAD
:1012A0001C68754B1B6823667A4B1B68A3667A4BD8
:1012B0005F6897ED146A84ED046AD3F80880D8ED6E
:1012C000147AC4ED057ADE68D6ED146AC4ED066AB8
:1012D0001D6995ED147A84ED077A36EE278A36EE8D
:1012E000888A37EE088AB5EE009A28EE098A84EDDE
:1012F000088A77EEC67A76EEA78A78EEC78A68EE15
:10130000898AC4ED098A77EEE67A77EE277A17EEB6
:10131000900AFFF7B1F856A3D3E90023FFF72EFA9E
:10132000FFF7DAFB6066484608F084FB09EE900A96
:1013300028EE29AA484608F0B7FB06EE900A68EEA8
:10134000A67A3AEE67AA84ED10AA28EE268A68EEFD
:10135000A98A38EE288A84ED118A97ED137AD8EDA0
:10136000137A37EE277AD6ED137A37EE277AD5ED52
:10137000137A37EE277A27EE097A84ED0C7AD8EDC6
:10138000137A97ED136A77EEC67A96ED136A77EEC5
:10139000867A95ED136A77EEC67A67EE897AC4EDA0
:1013A0000D7A94ED146A69EE875A26EEA75A75EE07
:1013B000C55A36EE256A84ED146A94ED156A66EE18
:1013C000876A69EEA79A76EEA96A76EE267AC4ED68
:1013D000157A01F0F9FD142004F0CCFABDEC068B6F
:1013E000BDE8F8839FED2D7A77EE877A43E79FED8E
:1013F000267AF4EEC77AF1EE10FA21DD9FED287A15
:10140000F4EEC77AF1EE10FA05D8214B1B680122E1
:1014100083F8712043E79FED227AF4EEC77AF1EE6C
:1014200010FA7FF73CAF9FED1F7AF4EEC77AF1EE2A
:1014300010FA05D8164B1B68022283F871202EE79C
:101440009FED187AF4EEC77AF1EE10FA7FF727AF26
:101450009FED0E7AF4EEC77AF1EE10FA3FF61FAF69
:101460000B4B1B68032283F8712018E7AFF3008051
:101470009B6CB2C9FC7F384064070020DB0F4940F9
:1014800000003443008076400000344200809D43D9
:101490000803002060070020EC0300200000B44394
:1014A000000007430000614310B5012408E0074B2A
:1014B00053F8240001F006FB012006F0FBF801348C
:1014C000042CF4DDFFF7B0FE10BD00BFEC030020DC
:1014D0002DE9F0432DED068B83B0554D2C68D4EDEE
:1014E000187ADFED549A67EEA97A9FED537AC7EE2A
:1014F000877A17EE906A94ED128A304608F09AFACD
:1015000008EE900A28EE289A94ED13AA304608F0C7
:10151000CBFA07EE100A6AEE077A79EE277AC4ED65
:101520000A7A28EE478A68EE8A8A38EE288A84ED9D
:101530000B8A77EEC87A17EE900AFEF79DFF0646F3
:101540000F46D4ED1B7A9FED3D9A67EEC97A67EEA0
:10155000A97A17EE900AFEF78FFF0022384BFFF7AB
:101560000DF931A3D3E90023FEF7DEFF02460B4657
:1015700030463946FEF722FEFFF7AEFA20602C68AF
:10158000D4ED0A8A94ED0B8A78EE887A17EE900AE9
:10159000FEF772FF80468946D4ED1B7A67EE897AA2
:1015A00067EEA97A17EE900AFEF766FF0022244B39
:1015B000FFF7E4F81CA3D3E90023FEF7B5FF0646C6
:1015C0000F4602460B4640464946FEF7F7FDFFF739
:1015D00083FA0546606032463B4640464946FEF780
:1015E000EBFDFFF779FA8046A06078EEC87A17EE37
:1015F000900AFEF741FF02460B4630463946FEF799
:10160000DDFDFFF769FA0346E06020680A220092D8
:101610004246294601F090FC03B0BDEC068BBDE8C4
:10162000F08300BFAFF30080000000002670E63FAB
:1016300008030020DB0F494000003443AD8CF24327
:101640000080664010B582B0124B1B68042283F8FC
:101650007020C0B9012400E00134042C09DC0E4BD9
:1016600053F824008379022BF6D0022101F08AF985
:10167000F2E700200223009303460246014601F0F0
:101680005BFC02B010BD01F0FFFB012001F0CAFBC2
:10169000F7E700BF08030020EC0300200000000073
:1016A0002DE9F0472DED048B08EE100A08EE901A94
:1016B00017461E4601F0D8FB022001F0B3FB01F0F3
:1016C000C3FBFFF77BFDFFF7EFFEC94B186802F085
:1016D00083F9C84B186802F07FF9C74B186802F00D
:1016E0007BF9C64B186802F077F9C54B186802F011
:1016F00073F9C44B186802F06FF9C34B186802F015
:101700006BF9DFEDD07AB4EEE78AF1EE10FA24D46B
:10171000DFEDBE7AB4EEE78AF1EE10FA28DADFEDFB
:10172000BC7AF4EE678AF1EE10FA28D0F0EEE87A8F
:101730009FEDB87AF4EEC77AF1EE10FA26D5F0EE06
:10174000C87AF4EEC77AF1EE10FA26D4F1EE049AD4
:10175000B0EE699A4FF0040805E0F0EE089AB3EE97
:10176000049A4FF0020803F0A9FC054600247DE02E
:10177000F0EE089AB2EE0E9A4FF00108F3E7F1EEA0
:10178000049AB7EE009A4FF00308ECE7F1EE049AE2
:10179000B0EE699A4FF00408E5E7F1EE049AB0EE76
:1017A000089A4FF00108DEE700249FED9B7AB4EE23
:1017B000C78AF1EE10FA0FD59FED947AF4EEC77A4E
:1017C000F1EE10FA08DD9FED957AF4EEC77AF1EEAE
:1017D00010FA01D5DFED928AFFF766FEF0EEC87AC7
:1017E0009FED8A7AF4EEC77AF1EE10FA40F1B980F3
:1017F0009FED8C7AF4EEC77AF1EE10FA06DDDFED9C
:10180000847AF4EE678AF1EE10FA6ED1DFF818925E
:10181000D9F800301A6D18EE101A754B186802F0DE
:10182000F1F807EE900AD9F80030B7EE087A67EEC3
:10183000877AC3ED127ADFF8F091D9F800A0DAF8D0
:10184000542018EE901A6B4B186802F0DBF8CAF8B7
:101850004C00D9F80090D9F860203946664B1868DA
:1018600002F0A2F9C9F86C00FFF732FE03F026FC83
:10187000401BB0422ED26C4B1968D1ED147A77EE32
:10188000C87AF0EEE77AF4EEC97AF1EE10FA8BD569
:1018900091ED157A37EE687AB0EEC77AB4EEE97A50
:1018A000F1EE10FA1DD591ED187A06EE907A37EE2A
:1018B000667AB0EEC77ADFED5D6AB4EEE67AF1EEF5
:1018C00010FA10D50134E4B2A0453FF66EAF002007
:1018D000FFF7B8FE0020FFF7B5FEBDEC048BBDE8B6
:1018E000F087002461E700245FE74F4B1B681A6D07
:1018F00018EE101A3E4B186802F084F807EE900AB2
:10190000F5EEC07AF1EE10FA15DDF0EEE77A17EE9B
:10191000900AFEF7B1FD0022454B08F0FDF8424B5E
:10192000D3F800900022434BFEF7FEFDFFF7D4F8FA
:10193000C9F848007FE7F0EEE77A17EE900AFEF765
:101940009BFD00223A4B08F0E7F8374BD3F80090A4
:101950000022394BFEF7E8FDFFF7BEF8C9F8480052
:1019600069E7DFED2A7AB4EEE78AF1EE10FA6BDB75
:10197000DFED327AB4EEE78AF1EE10FA7FF574AF5C
:10198000DFF8A490D9F800301A6D18EE101A1B4B2E
:10199000186802F037F8FEF76FFD0022284B08F0B8
:1019A000BBF8D9F800A010A3D3E90023FEF7BCFDD3
:1019B000FFF792F8CAF84800DAF8542018EE901AA7
:1019C0000F4B186802F01EF8CAF84C00D9F80090C6
:1019D000D9F860203946084B186802F0E5F8C9F8D4
:1019E0006C0041E7AFF30080CDCCCCCCCCCCFC3F3D
:1019F000D4060020D0060020BC060020CC06002023
:101A0000C8060020C4060020C00600200080BB4499
:101A1000000020420080894400401CC500401C4555
:101A200000808EC40000C842080300209A99993EA5
:101A3000000039400000F83F0000F8BF0080094571
:101A4000000034400080BBC45FED027AB4EEE78A48
:101A5000F1EE10FA7FF508AFDFF87090D9F800309A
:101A60001A6D18EE101A164B186801F0CBFFFEF72E
:101A700003FDD9F800A010A3D3E90023FEF754FD1D
:101A8000FFF72AF8CAF84800DAF8542018EE901A3E
:101A90000C4B186801F0B6FFCAF84C00D9F800905A
:101AA000D9F860203946084B186802F07DF8C9F86B
:101AB0006C00D9E6AFF30080666666666666F63F40
:101AC000C4060020C0060020BC0600200803002039
:101AD0002DE9F04F2DED048B83B00D46032849D836
:101AE000DFE800F07002103BA94B93ED068AD3F8B3
:101AF000408007230193DFEDA79AB0EE699A002793
:101B0000012477E0A24B93ED078AD3F84480A24BDF
:101B10001B78012B09D0012B17D90A230193DFED84
:101B20009D9AB0EE699A0027EAE7F7EE007A07EE91
:101B3000108A77EE277A17EE908A0A230193DFED59
:101B4000959AB0EE699A0027DAE707230193DFED53
:101B5000919AB0EE699A0027D2E78D4B93ED088AEF
:101B6000D3F8488007230193DFED8A9AB0EE699A93
:101B70000027C5E7864B021D03EB820292ED018A26
:101B800000F10E0203EB8203D3F804800438052829
:101B900014D8DFE800F00315030303117F4F7E4BD9
:101BA0001B78012B1BD105F5167507230193DFED7B
:101BB0007C9A9FED7C9AA3E77B4FF0E70027EEE746
:101BC0007A4FECE7724B93ED058AD3F83C800723FC
:101BD0000193DFED709AB0EE699A002790E7072332
:101BE0000193DFED6F9A9FED6F9A89E7022100F074
:101BF000C9FE0134042C06DC6D4B53F824008379B4
:101C0000022BF6D0F2E7FFF7D9FAFFF74DFC694B4C
:101C1000186801F0E1FE684B186801F0DDFE674BC3
:101C2000186801F0D9FE664B186801F0D5FE03F084
:101C300045FA064600245AE00024624B1A68544BC9
:101C4000D3ED037AF5EE407AF1EE10FA06D1D3ED3A
:101C5000047AF5EE407AF1EE10FA48D092F871303D
:101C6000032B3FD8DFE813F008002201B400EB009B
:101C70000024E2E70024E0E7DFF814A1DAF80C2002
:101C800018EE101A4C4B186801F0BCFEFEF7F4FB7E
:101C9000DFF83091D9F800B03BA3D3E90023FEF779
:101CA00043FCFEF719FFCBF84C00DAF81020414650
:101CB000404B186801F0A6FEFEF7DEFBD9F8009055
:101CC00031A3D3E90023FEF72FFCFEF705FFC9F887
:101CD00048003D4B1A683946394B186801F064FFDB
:101CE000C9F86C00FFF7F4FB052005F0E3FC03F0F6
:101CF000E5F9801BA84237D2254BD3ED037A77EE66
:101D0000C87AF0EEE77AF4EEC97AF1EE10FA93D8D9
:101D1000D3ED047A07EE108A77EEC77AF0EEE77A11
:101D2000F4EEE97AF1EE10FAA2D8274BD3ED007A5F
:101D300007EE107A77EEC77AF0EEE77A9FED237A16
:101D4000F4EEC77AF1EE10FA94D50134E4B2019BB7
:101D5000A3423FF672AF0020FFF774FC082005F0A5
:101D6000A9FC0120FFF76EFC0020FFF76BFC0820A8
:101D700005F0A0FC0120FFF765FC03B0BDEC048B6F
:101D8000BDE8F08FAFF300809A9999999999E13F56
:101D9000300300203333E3400503002000003443C8
:101DA000666646403333A3400000B44200008743D8
:101DB000EC030020B8060020B4060020B006002086
:101DC000BC0600200803002064070020CDCCCC3DD9
:101DD000DFF86CA1DAF80C2018EE101A544B1868D2
:101DE00001F010FEFEF748FBDFF85891D9F800B07B
:101DF0004BA3D3E90023FEF797FBFEF76DFECBF86C
:101E00004C00DAF8102041464A4B186801F0FAFD00
:101E1000FEF732FBD9F8009041A3D3E90023FEF787
:101E200083FBFEF759FEC9F84800434B1A68394650
:101E3000424B186801F0B8FEC9F86C0052E7DFF8B1
:101E400000A1DAF80C2018EE101A394B186801F0CE
:101E5000D9FDFEF711FBDFF8EC90D9F800B032A302
:101E6000D3E90023FEF760FBFEF736FECBF848000F
:101E7000DAF8102041462F4B186801F0C3FDFEF739
:101E8000FBFAD9F8009026A3D3E90023FEF74CFB18
:101E9000FEF722FEC9F84C00274B1A683946274B3B
:101EA000186801F081FEC9F86C001BE7DFF890A00C
:101EB000DAF80C2018EE101A1D4B186801F0A2FD7C
:101EC000FEF7DAFADFF87C90D9F800B014A3D3E972
:101ED0000023FEF729FBFEF7FFFDCBF84800DAF8F8
:101EE00010204146134B186801F08CFDFEF7C4FA30
:101EF000D9F800900CA3D3E90023FEF715FBFEF7F9
:101F0000EBFDC9F84C000C4B1A6839460B4B1868AE
:101F100001F04AFEC9F86C00E4E600BFAFF30080B0
:101F20009A9999999999E1BF9A9999999999E13FC3
:101F3000B4060020B806002064070020BC0600207C
:101F400030030020080300202DE9F0472DED028B1F
:101F500008EE100A8A4616469846012400E001342D
:101F6000042C09DC4A4B53F824008379022BF6D069
:101F7000022100F007FDF2E7FFF720F9FFF794FADE
:101F8000444B186801F028FD434B186801F024FD0C
:101F9000424B186801F020FD07EE90AAF0EEE77AB8
:101FA0009FED3F7AF4EEC77AF1EE10FA06D4F2EE26
:101FB000008A03F083F80746002529E0F2EE048A40
:101FC000F7E7002500E00025FFF76EFA354CD4F85E
:101FD0000090D9F8502018EE101A2E4B186801F016
:101FE00011FDC9F84800D4F80090D9F854205146A2
:101FF000294B186801F006FDC9F84C002468226ED0
:102000003146264B186801F0CFFDE066FFF760FA15
:1020100003F054F8C01B404531D2224B1C68D4ED6C
:10202000147A77EEC87AF0EEE77AF4EEE87AF1EE19
:1020300010FAC6D5D4ED157A07EE10AA77EEC77A56
:10204000F0EEE77AB2EE087AF4EEC77AF1EE10FA23
:10205000B9D5D4ED187A07EE106A77EEC77AF0EEAC
:10206000E77A9FED117AF4EEC77AF1EE10FA0DD50A
:102070000135EDB2042DA7D90020FFF7E3FA0020C7
:10208000FFF7E0FABDEC028BBDE8F08700259BE787
:10209000EC030020AC060020A8060020A4060020C7
:1020A00000007A4408030020CDCCCC3D2DE9F04758
:1020B0002DED028B08EE100A8A461646984600F06F
:1020C000D3FE022000F0AEFE00F0BEFE142005F0AC
:1020D000F1FAFFF773F8FFF7E7F93D4B186801F0E5
:1020E0007BFC3C4B186801F077FC3B4B186801F017
:1020F00073FC02F0E3FF0746002526E0002500E020
:102100000025FFF7D1F9354CD4F80090D9F85020CC
:1021100018EE101A2E4B186801F074FCC9F848002C
:10212000D4F80090D9F8542051462A4B186801F091
:1021300069FCC9F84C002468226E3146264B1868A9
:1021400001F032FDE066FFF7C3F902F0B7FFC01BF4
:10215000404533D2214B1C68D4ED147A77EEC87A0F
:10216000F0EEE77A9FED1E7AF4EEC77AF1EE10FA00
:10217000C4D5D4ED157A07EE10AA77EEC77AF0EE43
:10218000E77AB0EE007AF4EEC77AF1EE10FAB7D53E
:10219000D4ED187A07EE106A77EEC77AF0EEE77A98
:1021A0009FED107AF4EEC77AF1EE10FA0DD50135F5
:1021B000EDB2022DA5D90020FFF744FA0020FFF769
:1021C00041FABDEC028BBDE8F087002599E700BF1E
:1021D000A00600209C06002098060020080300208E
:1021E0009A991940CDCCCC3D2DE9F04782468946DD
:1021F00090461F4600F038FE022000F013FE00F06B
:1022000023FEFEF7DBFFFFF74FF9124B186801F0D2
:10221000E3FB02F053FF064611E0FFF745F90E4CD1
:1022200025682A6E41460B4B186801F0BDFCE86634
:102230002468C4F848A0C4F84C90FFF749F902F0AC
:102240003DFF801BB842E8D30020FFF7FBF9BDE853
:10225000F08700BFBC06002008030020074B196868
:1022600000220A601B685A609A60DA60044A1A61A8
:1022700000221A7501225A75704700BF080100201C
:102280006666663F10B507EE900A0C4667EEA76AD1
:102290009FED097A37EE667AB1EE477A77EEA77A44
:1022A000DFED066A67EEA67AC7EE277A17EE900A88
:1022B00007F094FB206010BD003739470000B6429C
:1022C000F0B583B004460D4D284604F0F5FA0C4EE7
:1022D000376801233B750B49204607F08FFC0A49FC
:1022E00007F068FC786001A9FFF7CCFF3368019A1A
:1022F000DA60284604F09EFA03B0F0BD70080020B2
:10230000080100200080A34300001143034BDA6959
:10231000034B1B68526A9A60704700BFEC030020B1
:102320000801002008B51E4B1B68D3ED037A93ED1E
:10233000027A77EEC77AB0EEE76AD3ED046AB4EEBC
:10234000E66AF1EE10FA0AD500221A7577EE277ABE
:1023500017EE901A134BD86900F0BAFB08BDF2EEE5
:10236000035AB4EEE56AF1EE10FA0ED59FED0E6A4F
:1023700066EE866AF5EEC07AF1EE10FA02DDF0EE56
:10238000667AE3E7F1EE667AE0E7F5EEC07AF1EE21
:1023900010FA02DDF0EE667AD8E7F1EE667AD5E75C
:1023A00008010020EC030020CDCCCC3E38B51C4BFE
:1023B0000022DA601A611B4A5A611B49D9639A618B
:1023C0001A4818641A48D8611A4858641A4818629A
:1023D0001A4898645A62D9649A62194A1A65194A65
:1023E000DA6258651A639965174A5A63174ADA65BB
:1023F000174A9A63174A1A6600241C72A3F86940A8
:1024000083F86B405C6683F868401C605C60124D2A
:1024100008222946114805F0A7F82C606C6038BDE9
:10242000300300200000964300003E4300003C4380
:102430000000A04300005043008098430000344354
:10244000000039430000204300C08044000048439E
:102450000080684400005C4378070020800A002068
:1024600000B583B00D4B0022DA601A61EE238DF8BF
:1024700004308DF8050000238DF80630FF238DF819
:1024800007300A2304220DEB0201054804F02BFF5C
:10249000052005F00FF903B05DF804FB30030020C0
:1024A000800A002000B583B0072817D0EE238DF8EE
:1024B00004308DF80500AC238DF80630FF238DF82D
:1024C00007300A2304220DEB0201074804F00BFF3A
:1024D000052005F0EFF803B05DF804FB034A13682C
:1024E00001331360E2E700BF800A002028030020C8
:1024F000082900D0704738B504460378EE2B00D089
:1025000038BD431813F8013CFF2BF9D1224D0A4680
:102510000146284609F0E3FD63782B722B7ADAB284
:10252000112B2CD8102AEBD3A278E37843EA0223AC
:1025300007EE903AB8EE677A2179627942EA012291
:1025400007EE902AF8EE677AA079411EC9B20429F5
:10255000D6D8B3F5A06FD3D2B2F5347FD0D20E4B1C
:1025600083ED037AC3ED047A0C4B1A68022A03DC6C
:10257000094B134483F86900094B1870C0E7122A0D
:10258000BED1054BD4F802005866A27983F86820C2
:10259000044B01221A70B3E7300300202803002007
:1025A000240300202C0300200C4A51690C4B1960B5
:1025B00092695A6000229A60DA601A615A61094988
:1025C000996100211977084B1A605A60074A9A608E
:1025D00019734FF40062DA81704700BFEC030020EA
:1025E000B003002000008D429C0300200000F04159
:1025F0000B4B1A68D2ED097ADFED0A6A67EEA67A0C
:102600009FED097A87EE876A83ED026A5A68D2EDF8
:10261000097A67EEA67AC7EE876AC3ED036A704748
:10262000B003002000003443DB0F494010B52DED0E
:10263000048B414B93ED046A93ED027A36EE476AC0
:10264000F0EEC67A93ED065ADFED3C5A65EE255A58
:10265000F4EEE57AF1EE10FA3FD500221A77364B08
:10266000D3ED056AD3ED037A76EEE76AF0EEE64A3B
:10267000F4EEE45AF1EE10FA11DCF1EE025AF4EE47
:10268000E54AF1EE10FA4CD5DFED2D5A25EE255A2C
:10269000F5EEC06AF1EE10FA40DDF0EE456A37EE75
:1026A000067A37EEA68A9FED279A27EE097ADFEDA4
:1026B000268A214CC7EE287A17EE901A206800F07F
:1026C00007FA68EE097AC7EEA87A17EE901A6068E2
:1026D00000F0FEF9BDEC048B10BDF2EE036AF4EEDF
:1026E000E67AF1EE10FA0ED5DFED157A65EE277A6F
:1026F000B5EEC06AF1EE10FA02DDB0EE676AAEE741
:10270000B1EE676AABE7B5EEC06AF1EE10FA02DD32
:10271000B0EE456AA3E7B1EE456AA0E7F1EE456A7F
:10272000BDE7F5EEC06AF1EE10FA02DDF0EE456AA3
:10273000B5E7F1EE456AB2E7B0030020CDCC4C3EE0
:10274000CDCCCC3EDB0F49400000344308B5074BED
:10275000186107EE901AF1EE677AC3ED057A01224F
:102760001A77034804F066F808BD00BFB0030020E4
:102770007008002006EE900AB3EE057AC6EE877A5E
:102780009FED067A67EE877ADFED056A87EEA67A17
:1027900081ED007A82ED007A704700BF000034437B
:1027A000DB0F494000B583B06A4601A9FFF7E2FF9D
:1027B00000990198FFF7CAFF03B05DF804FB000021
:1027C00008B5FDF759FE0022094BFDF7D7FF00229F
:1027D000084BFDF7F3FCFEF757F981B201F50061F4
:1027E00082234FF4AF6209B2022000F02FFD08BD32
:1027F0000080B63F0000E03F08B5024B5868FFF785
:10280000DFFF08BD9C03002008B5034B5860034858
:1028100004F010F808BD00BF9C03002070080020E1
:1028200010B5084C204604F047F8074B00221A73F5
:1028300040F2B652DA810A2004F03CFF204603F051
:10284000F9FF10BD700800209C03002010B5084C53
:10285000204604F031F8074B00221A7340F23A7216
:10286000DA810A2004F026FF204603F0E3FF10BDC2
:10287000700800209C03002010B504460621023099
:1028800000F0CAFC10B12378FF2B00D010BD637894
:10289000FF2BFBD1A278A179637903EB01239BB2D3
:1028A000012A09D0022AF1D107EE903AF8EE677AB0
:1028B000034BC3ED007AE9E7014A1382E6E700BF64
:1028C0009C030020034608460B70C3F307224A709E
:1028D000C3F307428A70C3F30763CB7070470000ED
:1028E00030B583B004460D4B08221A6104229A6069
:1028F0000022DA6082685A6002F0E0FB00F16405B1
:10290000224652F80C0B01AB044902F04DFD18B100
:1029100002F0D4FBA842F3D903B030BDD4030020A9
:1029200001600272064B1B78A0F80930C37A23F0CD
:10293000E003C372012380F8543000238371704791
:102940000C01002008B5C37A032262F30403C372AA
:102950000B4B1B78A0F80930C37A23F0E003C37255
:10296000002304E0C218002111730133DBB2072BEE
:10297000F8D9FFF7B5FF0A2004F09CFE08BD00BFA0
:102980000C01002038B504460D46C37A122262F3CA
:102990000403C3720D4B1B78A0F80930C37A23F0EF
:1029A000E003C372002303E0E21800201073013338
:1029B000072BF9DD47F20503A38125742046FFF7B5
:1029C0008FFFA5710A2004F075FE38BD0C010020B0
:1029D00008B5C37A042262F30403C3720B4B1B785D
:1029E000A0F80930C37A23F0E003C372002304E0A7
:1029F000C218002111730133DBB2072BF8D9FFF79E
:102A00006FFF0A2004F056FE08BD00BF0C01002035
:102A100008B5C37A062262F30403C3720B4B1B781A
:102A2000A0F80930C37A23F0E003C37201230373D3
:102A300004E0C218002111730133DBB2072BF8D96F
:102A4000FFF74EFF0A2004F035FE08BD0C01002000
:102A500010B590F80BC0122464F3040C80F80BC07E
:102A6000084C94F800C0A0F809C090F80BC02CF0F6
:102A7000E00C80F80BC0818112680261FFF730FF23
:102A800010BD00BF0C01002008B5C37A112262F30B
:102A90000403C3720A4B1B78A0F80930C37A23F0F1
:102AA000E003C3728181022304E0C2180021117384
:102AB0000133DBB2072BF8D9FFF712FF08BD00BFC7
:102AC0000C01002008B547F21901FFF7DDFF08BD32
:102AD00030B583B00446084601AD2946FFF7F2FE43
:102AE0002A4647F216012046FFF7B2FF03B030BD79
:102AF00030B583B00446084601AD2946FFF7E2FE33
:102B00002A4647F217012046FFF7A2FF0A2004F0E9
:102B1000D1FD03B030BD30B583B0044607EE901A46
:102B2000B3EE0E7AF4EEC77AF1EE10FA09DCBBEEE2
:102B30000E7AF4EEC77AF1EE10FA04D5FBEE0E7AB7
:102B400001E0F3EE0E7A01AD294617EE900AFFF789
:102B5000B9FE2A4647F20A012046FFF779FF03B083
:102B600030BD30B583B00446084601AD2946FFF7B5
:102B7000A9FE2A4647F218012046FFF769FF0A20FE
:102B800004F098FD03B030BD10B504460B784A78C8
:102B900043EA022347F21902934204D047F21B0290
:102BA000934231D010BDCA798B791B0443EA02638A
:102BB0004A7943EA02230A79134307EE903A027AEC
:102BC000012A01D0032A03D107EE903AF1EE677A89
:102BD000C4ED0E7A9FED1B7A67EE877AC4ED107A0A
:102BE00094F8543023B1002384F85430C4ED117AA2
:102BF00094ED117A37EEC77A84ED137AC4ED117A29
:102C000002F05CFAE063CDE7CA798B791B0443EAF2
:102C100002634A7943EA02230A79134307EE903AA2
:102C2000027A012A01D0032A03D107EE903AF1EE8D
:102C3000677AC4ED0B7A9FED037A67EE877AC4ED6D
:102C4000147AAFE70000484210B504463F2900F26D
:102C500093800023037161711178537843EA012353
:102C60001BB283F400431BB2A3839178D37843EA69
:102C700001231BB283F400431BB2217A012901D046
:102C8000032901D15B421BB2E3831179537943EAF3
:102C900001231BB283F400431BB2238493791B02EC
:102CA0001BB2D27913436384636AA362A08B00B220
:102CB00007EE900AF8EEE77A17EE900AFDF7DCFBD4
:102CC00000224FF07C53FDF72FFC00222E4BFDF726
:102CD0002BFC2BA3D3E90023FDF726FCFDF7FCFE1C
:102CE0006062E08B00B207EE900AF8EEE77A17EE2A
:102CF000900AFDF7C1FB00224FF07C53FDF714FC56
:102D00000022224BFDF710FCFDF7E6FEE062D4ED59
:102D10000B7A9FED1F7A67EE877AC4ED147A208CC8
:102D200000B207EE900AF8EEE77A17EE900AFDF788
:102D3000A3FB00224FF07C53FDF7F6FB0022154B5E
:102D4000FDF7F2FBFDF7C8FE2063638C1BB207EEB4
:102D5000903AF8EEE77AF2EE046A87EEA67A84ED0E
:102D60000D7A10BD49080133062B3FF774AF11F0FF
:102D7000010FF7D02371F5E70123F5E7AFF30080EA
:102D800000000060FB2109400000104000003E40B0
:102D9000000048420000284008B51F4B18601F4B38
:102DA0000340FE2B08D01C4BDB7803F01F03022BE3
:102DB00012D0112B22D008BD174BB3F80130DBB273
:102DC0005A1ED2B2062AF6D8154A52F8233008689D
:102DD0004A6858619A61EEE70F4BB3F801C05FFA99
:102DE0008CF0431EDBB2062BE5D80A464FEA1C21C5
:102DF0000B4B53F82000FFF727FFDCE7064BB3F837
:102E00000130DBB25A1ED2B2062AD4D8044A52F894
:102E10002300FFF7B9FECEE7D0030020FF00001F1C
:102E2000EC03002038B50546012407E02946054B90
:102E300053F82400FFF7A6FD0134E4B2042CF5D9C1
:102E400038BD00BFEC03002010B5012406E0054B9F
:102E500053F82400FFF776FD0134E4B2042CF6D9D0
:102E600010BD00BFEC03002010B5012406E0054BA7
:102E700053F82400FFF7ACFD0134E4B2042CF6D97A
:102E800010BD00BFEC03002010B5FFF7EDFF094CAB
:102E90002046FFF7BDFD04F15800FFF7B9FD04F12E
:102EA000B000FFF7B5FD04F58470FFF7B1FDFFF743
:102EB000CBFF10BD1405002038B51B4A1B4B5360D7
:102EC00003F15801916003F1B001D16003F58473FF
:102ED000136101240BE022461549134B53F82400DB
:102EE000FFF71EFD0A2004F0E5FB0134E4B2042CD8
:102EF000F1D9FFF7C9FF012410E00B4D4FF08241DB
:102F000055F82400FFF7F4FD0A4955F82400FFF7AF
:102F100028FE0A2004F0CEFB0134E4B2042CECD9E4
:102F20000220FFF77FFF38BDEC03002014050020CE
:102F3000DC0600200000B84138B52DED048B06EE0C
:102F4000901A06EE103A089C07EE900AB1EE677AE6
:102F5000DFED187A86EEA79A06EE902AF1EE666A01
:102F6000C6EEA78A86EE278A134DC7EE277A17EE9C
:102F7000901A6868FFF7CFFD204604F09BFB19EE1E
:102F8000101AA868FFF7C7FD204604F093FB18EE5F
:102F9000901AE868FFF7BFFD204604F08BFB18EE9F
:102FA000101A2869FFF7B7FD204604F083FBBDEC3B
:102FB000048B38BD00004842EC03002008B53920DE
:102FC00002F0DCFC08BD000010B5392002F0D2FC94
:102FD000054C2C222146054804F0C6FA2C2200217B
:102FE000204608F0EDFF10BDAC070020380A002095
:102FF00038B50546052407E02946054B53F824005B
:10300000FFF7C0FC0134E4B2062CF5D938BD00BF8F
:10301000EC03002038B5184A184B536158339361BC
:1030200005240EE00A2004F045FB22461449124B09
:1030300053F82400FFF774FC0A2004F03BFB013432
:10304000E4B2062CEED905240FE00B4D0D4955F8DE
:103050002400FFF74DFD0C4955F82400FFF781FDD2
:103060000A2004F027FB0134E4B2062CEDD901203C
:10307000FFF7BEFF38BD00BFEC0300206404002052
:1030800004070020000070410000A04110B5052495
:1030900009E0064B53F82400FFF754FC0A2004F023
:1030A00009FB0134E4B2062CF3D910BDEC03002077
:1030B00010B5052406E0054B53F82400FFF788FC03
:1030C0000134E4B2062CF6D910BD00BFEC03002099
:1030D00010B5FFF7EDFF054C2046FFF799FC04F112
:1030E0005800FFF795FCFFF7D1FF10BD64040020E6
:1030F00008B50146024BD869FFF744FC08BD00BF84
:10310000EC03002010B5094C0948E0610722094989
:10311000FFF706FC0849E069FFF7EAFC0749E069A8
:10312000FFF71FFD0120FFF7E3FF10BDEC030020B8
:103130000C04002004070020000060410000A041B2
:1031400008B5FFF7B9FEFFF765FFFFF7DBFF00F0FB
:103150001BF908BD08B5024BD869FFF7F3FB08BDA2
:10316000EC03002008B5024BD869FFF731FC08BD1D
:10317000EC03002008B5FFF7F5FF034BD869FFF714
:1031800047FCFFF7E7FF08BDEC03002000B585B062
:103190000DF1100C0CE90700012B03D04BB105B069
:1031A0005DF804FB0122BDF80410029802F0F2FE63
:1031B000F5E70022BDF80410029802F0EBFEEEE7FE
:1031C0000C4B0D4A5A604FF40051198001211972BD
:1031D00059721A614FF4804199810221197559750C
:1031E000DA614FF480521A83032283F8202083F897
:1031F0002120704774060020000C024000231A466C
:1032000005E010F803C06244D2B20133DBB28B4256
:10321000F7D3D043C0B2704700231A4605E010F838
:1032200003C06244D2B20133DBB28B42F7D3FF2A30
:1032300014BF00200120704708B50A460A23014642
:10324000014804F050F808BDC80A00202DE9F04FED
:103250008BB006460193022856D001285CD040F678
:1032600048539A4200D91A465FFA81F9C1F30725FB
:103270005FFA82F8140AFF238DF818308DF81930A0
:103280008DF80C604FF00A0B8DF80DB04FF0030A6B
:103290008DF80EA04FF029038DF80F30019B8DF8AB
:1032A00010308DF811908DF8125000278DF81370A2
:1032B0008DF814708DF815808DF816400B2103A839
:1032C000FFF79CFF8DF81A608DF81BB08DF81CA0DD
:1032D0004FF029028DF81D20019B8DF81E308DF8CE
:1032E0001F908DF820508DF821708DF822708DF888
:1032F00023808DF824408DF825000E2106A8FFF7C5
:103300009BFF0BB0BDE8F08F00290DDBB1F5805FAE
:10331000A5DD4FF48051A2E7002907DBB1F5805FFE
:103320009DDD4FF480519AE7002198E7002196E750
:10333000F0B585B00546FF238DF808308DF80930CB
:103340008DF8000004278DF8017002248DF80240EA
:1033500038268DF803608DF8044005216846FFF794
:103360004DFF8DF80A508DF80B708DF80C408DF8DC
:103370000D608DF80E408DF80F0008210DEB010057
:10338000FFF75AFF05B0F0BD70B5482007F0FCFE0E
:103390000446994B1860482007F0F6FE974B1860DA
:1033A000482007F0F1FE964B1860482007F0ECFE2D
:1033B000944B1860482007F0E7FE934B18604820B4
:1033C00007F0E2FE914B1860482007F0DDFE904BBD
:1033D0001860482007F0D8FE8E4B1860482007F090
:1033E000D3FE8D4B1860482007F0CEFE8B4B186043
:1033F000482007F0C9FE8A4B1860482007F0C4FE39
:10340000884B1860482007F0BFFE874B18604820A3
:1034100007F0BAFE854B1860482007F0B5FE844BD4
:103420001860482007F0B0FE824B1860F4B1824B60
:103430002360714E3468814B6360814BA360814B84
:10344000E3600025256165617F4BA361E36101F0C5
:1034500035FE2062336800225A629A62DA621A6389
:103460005D639D63DD63012283F84020634B1B682D
:10347000F3B1764A1A60614E3468704B6360744BE6
:10348000A360704BE3600025256165616E4BA3610D
:10349000E36101F013FE2062336800225A629A62EF
:1034A000DA621A635D639D63DD63012283F8402065
:1034B000534B1B68F3B1604A1A60514E34685F4B3E
:1034C0006360644BA3605F4BE36000252561656129
:1034D0005D4BA361E36101F0F1FD206233680022DE
:1034E0005A629A62DA621A635D639D63DD63012248
:1034F00083F84020434B1B68F3B1544A1A60414E95
:1035000034684E4B6360524BA3604E4BE360002522
:10351000256165614C4BA361E36101F0CFFD206241
:10352000336800225A629A62DA621A635D639D63AD
:10353000DD63012283F84020334B1B68F3B1464A18
:103540001A60314E3468454B6360454BA3603D4B78
:10355000E3600025256165613B4BA361E36101F0F8
:10356000ADFD2062336800225A629A62DA621A6301
:103570005D639D63DD63012283F84020234B1B685C
:10358000F3B1384A1A60214E3468344B6360364BCD
:10359000A3602C4BE3600025256165612A4BA36184
:1035A000E36101F08BFD2062336800225A629A6267
:1035B000DA621A635D639D63DD63012283F8402054
:1035C000134B1B68002B62D0284A1A60104E3468D7
:1035D0001A4B6360264BA3601A4BE36000252561FC
:1035E0006561244BA361244BE36101F067FD206218
:1035F000336800225A6241E0D4060020D006002041
:10360000CC060020C8060020C4060020C00600200A
:10361000BC060020B8060020B4060020B00600203A
:10362000AC060020A8060020A4060020A00600206A
:103630009C06002098060020333383406F12833AA3
:10364000A4709D3FBC74933C000096448FC285409B
:10365000E17AB43FA470DD3F000090400AD7233CDC
:103660003D0AB73FCDCC9C4048E1DA3F66666640F4
:103670009A99193F0000484300005C439A62DA625D
:103680001A635D639D63DD63012283F84020954BDF
:103690001B683BB3944A1A60924E3468934B636044
:1036A000934BA360934BE360002525616561924BCA
:1036B000A361924BE36101F001FD206201F0FEFC89
:1036C00007EE900A3368F8EE677AC3ED117A0022AC
:1036D0005A629A62DA621A635D639D63DD63012256
:1036E00083F84020864B1B683BB3864A1A60844EA1
:1036F00034687E4B6360844BA3607E4BE36000259F
:10370000256165617C4BA3617C4BE36101F0D6FCD4
:10371000206201F0D3FC07EE900A3368F8EE677A76
:10372000C3ED117A00225A629A62DA621A635D630B
:103730009D63DD63012283F84020744B1B68FBB15D
:10374000734A1A60714E3468724B6360724BA360A7
:10375000684BE360002525616561704BA361704B88
:10376000E36101F0ABFC2062336800225A629A6286
:10377000DA621A635D639D63DD63012283F8402092
:10378000684B1B68FBB1684A1A60664E3468674B29
:103790006360674BA360574BE3600025256165615B
:1037A000644BA361644BE36101F088FC20623368E1
:1037B00000225A629A62DA621A635D639D63DD6376
:1037C000012283F840205D4B1B68FBB15C4A1A6004
:1037D0005A4E3468554B63605A4BA360454BE360C7
:1037E000002525616561534BA361534BE36101F0F3
:1037F00065FC2062336800225A629A62DA621A63B8
:103800005D639D63DD63012283F840204E4B1B689E
:10381000FBB14E4A1A604C4E3468444B63603E4BD9
:10382000A360344BE360002525616561484BA361CB
:103830003B4BE36101F042FC2062336800225A6294
:103840009A62DA621A635D639D63DD63012283F825
:103850004020404B1B68FBB13F4A1A603D4E346824
:103860002C4B63603D4BA360224BE3600025256138
:1038700065613B4BA3613B4BE36101F01FFC2062A0
:10388000336800225A629A62DA621A635D639D634A
:10389000DD63012283F84020334B1B68F3B1334AC8
:1038A0001A60314E34681B4B6360314BA360114B7F
:1038B000E3600025256165611E4BA361E36101F0B2
:1038C000FDFB2062336800225A629A62DA621A6350
:1038D0005D639D63DD63012283F84020254B1B68F7
:1038E0004AE000BFB80600206666A63F0AD7A33CA0
:1038F0009A99993EBC74933C0000204300004344D5
:10390000B4060020CDCCAC3F3333B33EB00600202C
:10391000CDCC8C3F6F12833AD7A3F03E00004842D3
:1039200000009643AC060020CDCC0C400AD7233CC7
:103930003D0AD73E0000E1430000EB43A80600200B
:10394000000020408FC2753EA40600200000C04049
:1039500000008242A0060020CDCC904114AE37403A
:10396000000016440000E1449C0600201F850B4027
:10397000AE47613E98060020FBB1104A1A60104E17
:103980003468104B6360104BA360104BE36000255C
:10399000256165610E4BA3610E4BE36101F08EFB67
:1039A0002062336800225A629A62DA621A635D63A7
:1039B0009D63DD63012283F8402070BD0000C0409C
:1039C000980600200AD7233CD7A3F03EBC74933C52
:1039D000000082420000964398B138B504460025A5
:1039E0000561456101F06AFB206200236362A36206
:1039F000E36223636563A563E563012384F84030D4
:103A000038BD704710B52DED028B044690F840305C
:103A1000002B40F0928008EE901A08EE102A01F078
:103A20004DFB236AC31A07EE903AF8EE677A9FEDD2
:103A3000597A87EE875A206284ED035A78EEC87A65
:103A400094ED007A27EE277A94ED046A65EE276AF2
:103A500036EE266A84ED046AD4ED016AF5EE406A1A
:103A6000F1EE10FA1CD0D4ED065AC5EEA64AB4EE1B
:103A7000E46AF1EE10FA69DDC4ED044AF4EEC75AC7
:103A8000F1EE10FA6CD5F5EEC07AF1EE10FA67DDC2
:103A900094ED046ADFED405A26EE256A84ED046A4F
:103AA00094ED046A26EE866AB5EEC05AF1EE10FA7D
:103AB00063DDD4ED055A77EEE55AC5EE856ADFED94
:103AC000375A66EEA56AD4ED0E5ADFED354A65EE3B
:103AD000A45A76EEA56AC4ED0E6AD4ED025A65EEDC
:103AE000A66A37EE067A37EE267AD4ED066AF4EE49
:103AF000C76AF1EE10FA08D4F1EE666AF4EEC76A0E
:103B0000F1EE10FA01DCF0EE476A94ED077A94EDDD
:103B10000D6A76EEC65A25EE077AB4EEE57AF1EE36
:103B200010FA2DD576EE076AC4ED0D6AC4ED057A5C
:103B300016EE900ABDEC028B10BD002380F84030D9
:103B400001F0BCFA2062DFED176AF1E7F1EE644A9A
:103B5000B4EEE46AF1EE10FA90D5C4ED044A8DE7B4
:103B6000F1EE655AF4EEC75AF1EE10FA98DDF5EE73
:103B7000C07AF1EE10FA93D58AE7DFED0A6A9EE784
:103B8000B1EE475AF4EEC55AF1EE10FACCD576EE06
:103B9000476AC9E700007A446666663FCDCC4C3F71
:103BA000CDCC4C3E0000000010B52DED028B04463C
:103BB00090F84030002B40F0928008EE901A08EE0A
:103BC000102A01F07BFA236AC31A07EE903AF8EE46
:103BD000677A9FED597A87EE875A206284ED035AFF
:103BE00078EEC87A94ED007A27EE277A94ED046A8D
:103BF00065EE276A36EE266A84ED046AD4ED016A22
:103C0000F5EE406AF1EE10FA1CD0D4ED065AC5EE7E
:103C1000A64AB4EEE46AF1EE10FA69DDC4ED044A96
:103C2000F4EEC75AF1EE10FA6CD5F5EEC07AF1EE6B
:103C300010FA67DD94ED046ADFED405A26EE256A3E
:103C400084ED046A94ED046A26EE866AB5EEC05AE5
:103C5000F1EE10FA63DDD4ED055A77EEE55AC5EEC4
:103C6000856ADFED375A66EEA56AD4ED0E5ADFEDB0
:103C7000354A65EEA45A76EEA56AC4ED0E6AD4ED17
:103C8000025A65EEA66A37EE067A37EE267AD4ED4A
:103C9000066AF4EEC76AF1EE10FA08D4F1EE666A2D
:103CA000F4EEC76AF1EE10FA01DCF0EE476A94ED2B
:103CB000077A94ED0D6A76EEC65A25EE077AB4EED1
:103CC000E57AF1EE10FA2DD576EE076AC4ED0D6AAD
:103CD000C4ED057A16EE900ABDEC028B10BD0023F0
:103CE00080F8403001F0EAF92062DFED176AF1E771
:103CF000F1EE644AB4EEE46AF1EE10FA90D5C4ED48
:103D0000044A8DE7F1EE655AF4EEC75AF1EE10FA67
:103D100098DDF5EEC07AF1EE10FA93D58AE7DFED83
:103D20000A6A9EE7B1EE475AF4EEC55AF1EE10FA70
:103D3000CCD576EE476AC9E700007A446666663FEE
:103D4000CDCC4C3FCDCC4C3E0000000008B50C481B
:103D50000C4B03600923436000238360C3604FF46E
:103D6000003202614361037643768376C37603773C
:103D7000437701F0A9F900B908BD00F0FFFBFBE7AC
:103D8000040700200064004008B50C480C4B036099
:103D90000923436000238360C3604FF40032026153
:103DA0004361037643768376C3760377437701F0E6
:103DB0008BF900B908BD00F0E1FBFBE7DC06002051
:103DC0000068004010B58AB000230593069307935E
:103DD0000893099303683E4A934204D03D4A9342B4
:103DE00034D00AB010BD3C4A136801331360012B74
:103DF0001FD000240194394B1A6B42F008021A6359
:103E00001B6B03F008030193019B0323059302221C
:103E1000069208930923099305A9314801F0B6FFDA
:103E200022460521142001F095FD142001F0A2FD89
:103E3000D7E700230093294B1A6C42F000721A64F2
:103E40001B6C03F000730093009BD2E700230293E6
:103E5000224B1A6C42F080621A641B6C03F0806380
:103E60000293029B1C4A136801331360012B21D07B
:103E700000240494194B1A6B42F002021A631B6B64
:103E800003F002030493049B4FF440530593022371
:103E90000693032308930923099305A9114801F008
:103EA00075FF22460521402001F054FD402001F01D
:103EB00061FD96E700230393084B1A6C42F00072F1
:103EC0001A641B6C03F000730393039BD0E700BFDD
:103ED0000064004000680040D8060020003802401E
:103EE000000C02400004024030B595B000240F944D
:103EF0001094012511950A940B940C940D940E9432
:103F000012950AA9094801F085F90E230593069434
:103F100007950094019402940394049408956946CB
:103F2000034801F077F915B030BD00BF0407002049
:103F3000DC06002010B582B0002400941A4B1A6BE6
:103F400042F480021A631A6B02F480020092009A13
:103F500001941A6B42F400121A631B6B03F40013F2
:103F60000193019B224605210C2001F0F3FC0C205B
:103F700001F000FD224606210E2001F0EBFC0E2090
:103F800001F0F8FC22460521112001F0E3FC11208C
:103F900001F0F0FC22460721392001F0DBFC39203A
:103FA00001F0E8FC02B010BD0038024008B512E094
:103FB0002448C368826841680068FDF771FB214BA3
:103FC00000229A740122DA741F4B186803F00DFC6A
:103FD0000A2003F06FFB1B4B9B7C002BF8D0194B86
:103FE000DB7C002BF4D1174B5B7C042BE7D801A2C0
:103FF00052F823F0B13F00080940000815400008BE
:1040000025400008354000080E4BD968187CFDF7A4
:104010005FFDD4E70B48C368826841680068FDF71C
:1040200093FFCCE70748C368826841680068FEF7E1
:104030003DF8C4E70348C368826841680068FEF73A
:10404000D3F8BCE73C0700203007002008B5FFF795
:1040500077F8FCF76EFE00F04BFE3C2003F02AFBE5
:1040600000F046FE4FF4FA6003F024FB00F032FB50
:1040700000F036FB4FF47A7003F01CFBFAE7000007
:1040800008B50E4A0121084603F022FB0C4B1860CC
:104090000C4A0121084603F01BFB0B4B18600B4A2E
:1040A00000210B4803F0ACFA0A4B18600A4A0021C1
:1040B0000A4803F0A5FA0A4B186008BD9CDC00080A
:1040C000300700208CDC00082C070020D0DC000822
:1040D000AD3F000838070020ACDC00084D40000868
:1040E000340700202DE9F0438DB007AD002407947C
:1040F000089409940A940B940094424B1A6B42F072
:1041000010021A631A6B02F010020092009A0194D6
:104110001A6B42F040021A631A6B02F040020192DD
:10412000019A02941A6B42F001021A631A6B02F0B0
:1041300001020292029A03941A6B42F008021A6377
:104140001A6B02F008020392039A04941A6B42F06D
:1041500020021A631A6B02F020020492049A05945A
:104160001A6B42F080021A631A6B02F08002059209
:10417000059A06941A6B42F002021A631B6B03F055
:1041800002030693069B204F22460121384601F088
:1041900001FFDFF8789022464FF4E041484601F0F5
:1041A000F9FEDFF86C8001224FF40061404601F017
:1041B000F1FE01224FF48041384601F0EBFE44F25B
:1041C000010307930126089609940A942946384664
:1041D00001F0DCFD4FF4E0430793089609940A943C
:1041E0002946484601F0D2FD4FF400630793089634
:1041F00009940A942946404601F0C8FD0DB0BDE877
:10420000F08300BF0038024000140240000C02405E
:104210000010024010B58AB0044601AB03AA002189
:1042200001F037F930B923680B4A934204D00B4AA6
:10423000934209D00AB010BD059B042BFAD101A905
:104240000498FEF7A9FDF5E7059B042BF2D101A91F
:104250000498FEF7A1FDEDE700640040006800400F
:1042600030B585B0844B98420DD0844B984200F015
:10427000DE80834B984200F0DE80824B984200F053
:10428000ED8005B030BD00F019FF7F4B18607F4D09
:104290007F4CAC46BCE80F000FC4BCE80F000FC455
:1042A0009CE8070084E807002C220021284607F03C
:1042B00087FE002390E0591C7548415C532940F06B
:1042C0009280D91D415C090209B29C1D005D014329
:1042D00007EE901AF8EEE77A9FED6E7A67EEC77AEE
:1042E0009FED6D7A67EE877A6C49C1ED007A6C4973
:1042F000D1ED007AF4EEC77AF1EE10FA45D59FEDD4
:10430000697AF4EEC77AF1EE10FA3EDD6349D1ED39
:10431000006A9FED657AF4EEC76AF1EE10FA34D5C3
:10432000D1ED006A9FED617AF4EEC76AF1EE10FA02
:104330002BDD5F48016801310160584991ED007A39
:10434000DFED557AB4EE677AF1EE10FA4BD091EDCD
:10435000007ADFED567AB4EE677AF1EE10FA42D0C9
:104360005349D1ED007AF8EEE77A9FED527A67EE85
:10437000877A4A4991ED007A77EE877A4E48C0ED08
:10438000007A0868464908602DE09FED477AF4EE10
:10439000C77AF1EE10FAD0D59FED447AF4EEC77AE1
:1043A000F1EE10FAC9DD3D4991ED007ADFED3D7A7D
:1043B000B4EEE77AF1EE10FABFDD91ED007ADFEDB1
:1043C000367AB4EEE77AF1EE10FAB6D538480168DD
:1043D00001390160B1E70133242B22DC2C4AD25C85
:1043E000552A3FF468AF552AF5D15A1C28498A5CF2
:1043F000522AF0D1DA1D8A5C120212B2981D095CB1
:104400000A4307EE902AF8EEE77A9FED227A67EEEC
:10441000C77A9FED2A7A67EE877A294AC2ED007A39
:10442000D9E72C221949144803F09EF829E7254BB7
:1044300001221A7025E7244C01AB94E8070003C35E
:104440001A7001A8FEF718FA002323606360237234
:10445000092221460A4803F087F812E71B4C08217D
:104460002046FEF745F800232360636008222146BA
:10447000044803F079F804E7380A0020100B002004
:10448000C80A0020800A00205C070020AC0700203A
:104490008007002000000038000034436807002037
:1044A000580700200000B4420000B4C2000034C32A
:1044B000540700200000B443640700200000FA44C1
:1044C00060070020D80700206C0700207807002034
:1044D00008B50368254A934203D0254A934203D086
:1044E00008BD00F0DFFDFBE7224B1B784BB1012B31
:1044F000F6D1FEF79BF8FDF715FF1E4B00221A7050
:10450000EEE7FEF775F8FDF701FFFEF775F90120FC
:10451000FEF70EFF184BD98940F23A73994219D130
:10452000154B1B8A40F23A72934213D940F60C02A3
:10453000934208D9C82340F6485240F602010120B0
:10454000FEF784FE0DE01423502209B20120FEF78D
:104550007DFE06E0C82340F6485209B20120FEF76E
:1045600075FE044B01221A70BAE700BF0014004028
:10457000000C0040500700209C03002072B6FEE7AC
:1045800010B594B008AC30220021204607F018FD89
:104590000023039304930593069307930193234AFF
:1045A000116C41F080511164126C02F08052019242
:1045B000019A02931E4B1A6842F440421A601B682B
:1045C00003F440430293029B012308934FF480338A
:1045D000099302230E934FF480020F920622109249
:1045E000B4221192129304231393204601F016FD76
:1045F000A8B901F0D5FCA0B90F23039302230493BB
:10460000002305934FF4A05306934FF48053079370
:10461000052103A801F052FF28B914B010BDFFF71F
:10462000ADFFFFF7ABFFFFF7A9FF00BF0038024067
:104630000070004008B500F01BFDFFF7A1FFFFF779
:1046400051FDFFF777FC00F07BFB00F093FB00F0DF
:10465000C5FBFFF77BFB00F0F3FA00F055FAFFF71C
:1046600093FB00F0A1FB154D08222946144802F0E7
:104670007BFF144C09222146134802F075FF0023EA
:104680002B606B60236063602372FFF72DFC0F4C7F
:10469000204600F05BFE0221204600F0AFFF0C4CEC
:1046A000204600F053FE0221204600F0A7FF02F052
:1046B00079FFFFF7E5FC02F087FFFEE778070020AF
:1046C000800A00206C070020C80A00200407002090
:1046D000DC06002008B5FEF7FBFCFEF74BFD08BD2D
:1046E00070B588B0774B93E8070008AB03E9070083
:1046F000754807F087FBFFF7EDFF41F2883002F0C5
:10470000D9FF0520FDF7ACFE02E00520FDF7A8FE6D
:104710006E4B93F86430002BF7D00520FDF7C2FEF6
:104720006A4C94F8673094F868200192009394F8EA
:10473000663094F8652094F86410654807F0FAFA3A
:10474000FEF76EF80220FCF793FB322002F0B2FF76
:104750004FF0FF310320FCF741FB0720FDF780FEFF
:104760005C4D4FF0FF31286803F00BF800F0C0FA01
:104770001520FCF75DFB40F2DC510120FCF70EFB3D
:104780004FF0FF31286802F0FCFF0720FDF78AFE9A
:1047900094F86900FCF76CFB94F869100120FCF7B1
:1047A00029FC4D4E3046FDF78BFD4FF0FF310420C4
:1047B000FCF714FB4FF0FF31286802F0E2FF4FF0E6
:1047C000FF310520FCF70AFB0720FDF749FE4FF0FB
:1047D000FF31286802F0D5FF4FF47A710220FCF710
:1047E000DDFA4FF0FF31286802F0CBFF0720FDF71C
:1047F00059FE94F86A00FCF73BFB94F86A1002201B
:10480000FCF7F8FB3046FDF75BFD4FF0FF3106206B
:10481000FCF7E4FA4FF0FF31286802F0B2FF4FF0E6
:10482000FF310720FCF7DAFA2C48FDF7BBFF072021
:10483000FDF716FE4FF0FF31286802F0A2FF4FF49B
:10484000FA610320FCF7AAFA4FF0FF31286802F062
:1048500098FF0720FDF726FE94F86B00FCF708FB95
:1048600094F86B100320FCF7C5FB3046FDF728FDDC
:1048700004A90023ADF810308B7003AAADF80C30FA
:10488000937005A8FCF7FEFB9DF80C30012B13D0AC
:104890004FF0FF310920FCF7A1FA4FF4FA710D4BEC
:1048A000186802F06EFF1420FCF7C2FA03A904A8EE
:1048B000FCF7ECFA08B070BD4FF0FF310920FCF7AF
:1048C0008DFAEAE7B8DB000864DC0008300300205A
:1048D00020DC0008300700200080A343000048428D
:1048E00000B583B0002200920D4B596C41F4804119
:1048F0005964596C01F48041009100990192196C3E
:1049000041F0805119641B6C03F080530193019BAB
:104910000F216FF0010001F01DF803B05DF804FBFA
:104920000038024030B589B0044600230193214B82
:104930001A6C42F020021A641B6C03F020030193EE
:10494000019B02A903A801F08FFE069BCBB901F0E1
:104950006BFE0346184AA2FB03239B0C013B17483E
:10496000174A026040F2E732C260436000230361ED
:104970008360836102F0D8F8054630B1284609B05B
:1049800030BD01F051FE4300E4E70C4801F052FF56
:1049900005460028F2D1372000F0ECFF0F2C01D99A
:1049A0000125EBE700222146372000F0D3FF054B1D
:1049B0001C60E3E70038024083DE1B43DC07002075
:1049C0000014004018010020FEE7FEE7FEE7FEE7C6
:1049D000FEE7704708B5024801F0EAF808BD00BFDD
:1049E0001809002008B5024801F0E2F808BD00BF30
:1049F000D809002008B5024801F0DAF808BD00BF68
:104A00007809002008B5024800F016FE08BD00BF76
:104A10000407002008B5024801F06BFF08BD00BF85
:104A20007008002008B5024801F063FF08BD00BF10
:104A3000DC07002008B5024801F0BAF808BD00BF45
:104A4000B808002008B5024800F0F6FD08BD00BF18
:104A5000DC0600200120704708B507F013FB162381
:104A600003604FF0FF3008BD08B54FF0FF31FFF78E
:104A7000F3FFFEE770B50C461646002506E0AFF3DF
:104A80000080214601F8010B01350C46B542F6DBEA
:104A9000304670BD4FF0FF3070474FF400534B600D
:104AA00000207047012070470020704710B5034672
:104AB0000C4A0D490D48006840B10C480068034499
:104AC000521A934206D8094A136010BD0748084C91
:104AD0000460F2E707F0D6FA0C2303604FF0FF30D2
:104AE000F3E700BF000003200004000024080020BA
:104AF000F8550020034AD2F8883043F47003C2F816
:104B00008830704700ED00E000B587B000230293C5
:104B1000039304930593009301931548154A02608B
:104B200059224260836040F6C312C2600361836110
:104B300001F0FAFF90B94FF48053029302A90C4898
:104B400002F0FDF868B90023009301936946084814
:104B500002F048FA40B907B05DF804FBFFF70EFD1C
:104B6000E9E7FFF70BFDEEE7FFF708FDF3E700BF0E
:104B700070080020000C004002680E4B9A4200D0E2
:104B8000704700B583B00022019203F50B33196C16
:104B900041F0080119641B6C03F008030193019BA9
:104BA0000621322000F0D6FE322000F0E3FE03B0F2
:104BB0005DF804FB000C00400268094B9A4200D0EB
:104BC000704782B000230193064B1A6C42F04002FA
:104BD0001A641B6C03F040030193019B02B0704701
:104BE000001800400038024000B587B00023019350
:104BF000029303930493059302680E4B9A4202D0EA
:104C000007B05DF804FB002300930B4B1A6B42F0D6
:104C100080021A631B6B03F080030093009B402308
:104C20000193022302930923059301A9034801F08C
:104C3000ADF8E5E70018004000380240001C0240D3
:104C400000B589B000230193029303930493059365
:104C5000069307931148124A02604360836048F24A
:104C60003422C2600361836101F08AFF80B960234E
:104C70000193002202920392059201A9074801F0D4
:104C8000E3FF40B90548FFF7AFFF09B05DF804FB4B
:104C9000FFF774FCEBE7FFF771FCF3E7280800204F
:104CA00000180040642800D96420054BDA6802FB34
:104CB0000000044AA2FB002040091B6858637047AB
:104CC000280800201F85EB5108B53220FFF7EAFFC6
:104CD0000021024802F0C2F808BD00BF28080020E9
:104CE00008B50021014802F037F908BD2808002066
:104CF00008B5FFF7E9FF282002F0DCFCFFF7F0FF22
:104D000008BD000000B583B001904FF6FF7301228B
:104D100001A9034802F0E7FA019803B05DF804FB2B
:104D2000100B002070B50C461646002504E014F860
:104D3000010BFFF7E7FF0135B542F8DB304670BDE8
:104D400008B50A480A4B03604FF4E133436000237F
:104D50008360C36003610C2242618361C36102F01E
:104D600092FA00B908BDFFF709FCFBE7100B002021
:104D70000078004008B50A480A4B03604FF4E1335D
:104D8000436000238360C36003610C22426183613E
:104D9000C36102F078FA00B908BDFFF7EFFBFBE74B
:104DA000C80A0020007C004008B50A480A4B03608E
:104DB0004FF4E133436000238360C36003610C223E
:104DC00042618361C36102F05EFA00B908BDFFF77A
:104DD000D5FBFBE7800A00200048004008B50A48E0
:104DE0000A4B03604FF4E133436000238360C360E8
:104DF00003610C2242618361C36102F044FA00B98D
:104E000008BDFFF7BBFBFBE7380A00200014014098
:104E100030B58FB00446002309930A930B930C938B
:104E20000D930368824A93420BD0824A934245D045
:104E3000814A93427DD0814A934200F0B9800FB0FD
:104E400030BD002501957E4B1A6C42F080421A64F9
:104E50001A6C02F080420192019A02951A6B42F09C
:104E600010021A631B6B03F010030293029B4FF4B2
:104E7000C073099302230A9303230C9308230D9311
:104E800009A9704800F082FF6F48704B03604FF033
:104E9000206343608560C5604FF4806303614561B2
:104EA0008561C5610562456200F0E8FD18B9664B91
:104EB000E3639C63C3E7FFF761FBF8E70025039515
:104EC0005F4B1A6C42F000421A641A6C02F0004206
:104ED0000392039A04951A6B42F010021A631B6B3B
:104EE00003F010030493049B0323099302220A9204
:104EF0000C9308230D9309A9524800F047FF54482A
:104F0000544B03604FF0206343608560C5604FF4ED
:104F10008063036145618561C5610562456200F09A
:104F2000ADFD18B94A4BE3639C6388E7FFF726FBA6
:104F3000F8E700250595424B1A6C42F480221A646A
:104F40001A6C02F480220592059A06951A6B42F0BB
:104F500008021A631B6B03F008030693069B4FF4C9
:104F60004073099302230A9303230C9307230D93A1
:104F700009A9394800F00AFF3848394B03604FF05F
:104F8000006343608560C5604FF4806303614561E1
:104F90008561C5614FF400330362456200F06EFD28
:104FA00018B92E4BE3639C6349E7FFF7E7FAF8E78C
:104FB00000250795224B5A6C42F020025A645A6C25
:104FC00002F020020792079A08951A6B42F04002FD
:104FD0001A631B6B03F040030893089B4FF4844350
:104FE000099302230A9303230C9308230D9309A921
:104FF0001C4800F0CBFE1C481C4B03604FF02063A4
:1050000043608560C5604FF48063036145618561DD
:10501000C5614FF480330362456200F02FFD18B97B
:10502000114BE3639C630AE7FFF7A8FAF8E700BFB8
:1050300000780040007C004000480040001401401F
:105040000038024000100240D80900205860024099
:1050500078090020A0600240000C024018090020DE
:105060002860024000180240B8080020286402406E
:1050700008B50B4B1A6842F400721A601A6842F4C1
:1050800080621A601A6842F480721A60032000F08D
:105090004FFC0F20FFF746FCFFF722FC002008BD65
:1050A000003C0240034A1168034B1B780B44136019
:1050B000704700BF580B002014010020014B1868F6
:1050C000704700BF580B0020002800F0A18038B5C1
:1050D000044690F82030D3B12268136843F00103EE
:1050E0001360FFF7EBFF054623685A6812F0010FC3
:1050F00010D1FFF7E3FF401B0A28F5D9636A43F498
:1051000000336362052384F82030012038BDFEF7A8
:1051100059FEE1E71A6822F002021A60FFF7CEFF9B
:10512000054623685A6812F0020F0DD0FFF7C6FF3C
:10513000401B0A28F5D9636A43F4003363620523F0
:1051400084F820300120E1E7227E012A3DD01A6850
:1051500022F080021A60637E012B3BD02268136824
:1051600023F040031360A37E012B39D0226813681B
:1051700023F020031360E37E012B37D022681368ED
:1051800043F010031360237F012B35D0226813688E
:1051900023F008031360637F012B33D02268136868
:1051A00023F004031360A368E268134322691343E6
:1051B000626913436268013A21681343CB6100209E
:1051C0006062012384F82030A0E71A6842F0800270
:1051D0001A60C0E72268136843F040031360C2E717
:1051E0002268136843F020031360C4E72268136841
:1051F00023F010031360C6E72268136843F0080326
:105200001360C8E72268136843F004031360CAE719
:105210000120704790F82030013BDBB2012B05D90B
:10522000436A43F4802343620120704730B5464B04
:10523000D3F8002242F00102C3F80022D3F8002282
:1052400022F47C52C3F80022D3F80022486A42EAD2
:105250000022C3F800224A6902F01F02012000FA6E
:1052600002F2D3F81C026FEA020C20EA0200C3F833
:105270001C02CB69C3B9344BD3F80C020CEA000012
:10528000C3F80C028C884869CD6844EA054448306C
:1052900043F830408C68088840EA04404C6904F1C7
:1052A000480E03EBCE035860CB69012B1ED08B69EF
:1052B000002B33D12448D0F804320CEA0303C0F8A1
:1052C00004320B698BBB2048D0F814320CEA03037C
:1052D000C0F814320B6A012B2ED01B4AD2F80032D0
:1052E00023F00103C2F80032002030BD164BD3F882
:1052F0000C021043C3F80C028C8848690D6844EA1C
:105300000544483043F8304088894C698D6840EA4C
:105310000540483403EBC4035860C8E70A48D0F896
:1053200004321343C0F80432CBE70748D0F81432F4
:105330001343C0F81432CDE70349D1F81C321343AC
:10534000C1F81C32C9E700BF0064004070B50446D4
:1053500090F82030012B06D0436A43F400234362C7
:105360000126304670BDDEB2022380F8203002688C
:10537000136823F001031360FFF7A0FE05462368BE
:105380005B6813F0010F0CD0FFF798FE431B0A2B4C
:10539000F5D9636A43F400336362052384F820304F
:1053A000DFE700266662DCE730B590F820C00468CD
:1053B000A4680CF1FF3C5FFA8CFCBCF1010F62D8D1
:1053C00014F0E05F59D0C4F3016C012404FA0CF42A
:1053D0001C608B68002B3DD10D68CB68046843EAE4
:1053E00045550CF118031B01E55003680C690CF1DD
:1053F000180E03EB0E135C600B7D012B35D0D179B9
:1054000093791B0443EA0163517943EA0123147938
:105410000168234301EB0C11C1F88C31D1789378EA
:105420001B0443EA0163517843EA012311780268BF
:105430000B4302EB0C12C2F8883102680CF1180C15
:105440004FEA0C1C52F80C3043F0010342F80C30C8
:1054500000201DE04C6843EAC403CC6823430CF1F0
:105460001804240105682B51BFE7036803EB0E13F2
:10547000596841F480715960C1E7436A43F40013ED
:105480004362012004E0436A43F480234362012025
:1054900030BD90F820C00CF1FF3C5FFA8CFCBCF1F1
:1054A000010F00F2A58030B451B90468E46814F02B
:1054B000030F10D1436A43F40013436201207EE0DE
:1054C0000468246914F0030F05D1436A43F4001300
:1054D0004362012073E0056801F11B0424012C598B
:1054E00004F004049460002C6BD1056801F11B04E6
:1054F00024012C59640D1460046801F11B0C4FEA5F
:105500000C1C54F80C4004F00204D4600468A44459
:10551000DCF8045015F0080F5BD00824146104680F
:1055200001F11B0C04EB0C146468C4F307249461B0
:10553000046804EB0C146468240C5461026802EBE8
:105540000112D2F8B8211A70026802EB0112D2F8E7
:10555000B821C2F307225A70026802EB0112D2F896
:10556000B821C2F307429A70026802EB0112D2F826
:10557000B821120EDA70026802EB0112D2F8BC21D7
:105580001A71026802EB0112D2F8BC21C2F30722A1
:105590005A71026802EB0112D2F8BC21C2F3074231
:1055A0009A71026802EB0112D2F8BC21120EDA7174
:1055B000C1B90268D36843F02003D360002030BC37
:1055C0007047056801F11B0424012C59E40854605C
:1055D00092E701F11B0504EB0514646804F00F0465
:1055E00014619CE70268136943F020031361E5E747
:1055F000436A43F4802343620120704790F82030CF
:10560000013BDBB2012B05D9436A43F4802343629B
:1056100001207047026853690B43536100207047B3
:1056200070477047704770477047704770477047C2
:1056300070477047704770472DE9F84F054603687B
:105640005C69D3F804809F68D3F80CA0D3F810905D
:10565000D3F818B014F001063BD017F0010616D0AD
:1056600001229A6017F0020F08D117F0040F0CD135
:1056700017F0080606D04FF4805608E0FFF7D0FF79
:10568000002604E0FFF7CFFF01E04FF4006617F4B7
:10569000807F0DD02B684FF480729A6017F4007FE2
:1056A00040F0968017F4806F00F0968046F4005624
:1056B00017F4803F0DD02B684FF480329A6017F4B6
:1056C000003F40F0938017F4802F00F0938046F461
:1056D000004614F0080F07D01AF0100F04D046F45B
:1056E00000762B681022DA6014F0040F03D01AF051
:1056F000080F40F0898014F0020F05D02B68DB689A
:1057000013F0030F40F0878014F0400F07D019F01A
:10571000100F04D046F480662B6810221A6114F032
:10572000200F02D019F0080F79D114F0100F04D017
:105730002B681B6913F0030F78D114F4003F02D0DB
:1057400018F0100F76D114F4803F02D018F0080F33
:1057500077D114F4004F37D018F0040F31D014F47F
:10576000807F04D01BF0010F01D046F0010614F435
:10577000007F04D01BF0020F01D046F0020614F4A3
:10578000806F04D01BF0040F01D046F0040614F41F
:10579000006F16D01BF0700B13D0BBF1400F66D01A
:1057A00056D8BBF1200F5CD0BBF1300F5CD0BBF101
:1057B000100F01D146F008062A68936923F07003A0
:1057C00093612B6804225A60002E56D1BDE8F88FF1
:1057D0002846FFF726FF6BE717F4006F02D046F468
:1057E000804665E72846FFF71FFF61E72846FFF779
:1057F00019FF6EE717F4002F02D046F4803668E7F1
:105800002846FFF712FF64E72B680822DA60284673
:10581000FFF70CFF6FE72846FEF7FCFC74E72B68E8
:1058200008221A612846FFF703FF7EE72846FFF7A4
:10583000FEFE82E72B6810225A602846FFF7F9FE29
:1058400081E72B6808225A602846FFF7F3FE80E7BD
:10585000BBF1500F0ED0BBF1600FADD146F4807696
:10586000AAE746F01006A7E746F02006A4E746F0B0
:105870004006A1E746F080069EE76B6A33436B6201
:105880002846FFF7D8FEA1E7002807DB00F01F023B
:10589000400901239340024A42F82030704700BF7C
:1058A00000E100E000280CDB00F01F0240090123AA
:1058B00093402030034A42F82030BFF34F8FBFF3AC
:1058C0006F8F704700E100E0002808DB0901C9B2D2
:1058D00000F1604000F5614080F80013704700F06F
:1058E0000F000901C9B2014B1954704714ED00E0D3
:1058F00000B500F00700C0F1070CBCF1040F28BF91
:105900004FF0040C031D062B0FD9C31E4FF0FF3EB2
:105910000EFA0CF021EA000199400EFA03FE22EA89
:105920000E0241EA02005DF804FB0023EEE70000EE
:10593000074AD36823F4E0631B041B0C000200F445
:10594000E060034343F0BF6343F40033D360704728
:1059500000ED00E010B50446054BD868C0F3022006
:10596000FFF7C6FF01462046FFF7AEFF10BD00BFA0
:1059700000ED00E008B5FFF787FF08BD08B5FFF7A9
:1059800091FF08BD30B405682C6824F480242C6095
:10599000046863608368402B05D0036899600368DE
:1059A000DA6030BC704703689A600368D960F8E732
:1059B00010B40368D9B210390A4AA2FB0142120995
:1059C000094CA25CC2655F2907D96FF30903043350
:1059D0008365806D5DF8044B70476FF30903836541
:1059E000F7E700BFABAAAAAA0CDD0008836A8269A8
:1059F00092B9012B0AD0022B02D00BB100207047C4
:105A0000C36A13F0807F28D100207047C36AB3F1C6
:105A1000C07F24D000207047B2F5005F09D0022B70
:105A200025D9032B25D1C36A13F0807F23D1002011
:105A30007047032B03D8DFE803F01404140A002096
:105A40007047C36A13F0807F0DD100207047C36A8E
:105A5000B3F1C07F09D000207047012070470120BA
:105A600070470120704701207047012070470120D6
:105A700070470020704701207047000070B5044651
:105A8000FFF71CFB002C5BD00546022384F8353061
:105A9000002384F834302268136823F00103136074
:105AA00023681A6812F0010F0AD0FFF707FB431BA7
:105AB000052BF5D920236365032084F8350070BDDC
:105AC0001A68204911406268A0680243E0680243F6
:105AD0002069024360690243A0690243E06902430E
