:020000040800F2
:1000000000000320E19F0008795000087B500008A1
:100010007D5000087F50000881500008000000005B
:1000200000000000000000000000000061800008E7
:100030008350000800000000018100083D7C00089A
:1000400031A0000831A0000831A0000831A000084C
:1000500031A0000831A0000831A0000831A000083C
:1000600031A0000831A0000831A0000831A000082C
:100070008550000831A000089550000831A0000804
:1000800031A00008A550000831A0000831A00008E8
:10009000B550000831A0000831A0000831A00008C8
:1000A00031A0000831A0000831A0000831A00008EC
:1000B00031A0000831A0000831A0000831A00008DC
:1000C00031A0000831A0000831A0000831A00008CC
:1000D00031A0000831A0000831A0000831A00008BC
:1000E00031A0000831A0000831A0000831A00008AC
:1000F00031A0000831A0000831A0000831A000089C
:1001000031A0000831A00008C550000831A0000847
:1001100031A0000831A0000831A00008D550000827
:1001200031A00008E550000831A0000831A0000807
:1001300031A0000831A0000831A0000831A000085B
:10014000F550000831A0000831A0000831A00008D7
:1001500031A0000831A0000831A0000831A000083B
:1001600031A0000831A0000831A0000831A000082B
:1001700031A0000831A0000831A0000800000000F4
:1001800031A0000831A0000831A0000831A000080B
:1001900031A0000831A0000831A0000831A00008FB
:0C01A000000000000000000031A000087A
:1001B00081F0004102E000BF83F0004330B54FEA18
:1001C00041044FEA430594EA050F08BF90EA020F85
:1001D0001FBF54EA000C55EA020C7FEA645C7FEA18
:1001E000655C00F0E2804FEA5454D4EB5555B8BF3B
:1001F0006D420CDD2C4480EA020281EA030382EAAC
:10020000000083EA010180EA020281EA0303362D3D
:1002100088BF30BD11F0004F4FEA01314FF4801C10
:100220004CEA113102D0404261EB410113F0004F22
:100230004FEA03334CEA133302D0524263EB4303D9
:1002400094EA050F00F0A780A4F10104D5F1200E77
:100250000DDB02FA0EFC22FA05F2801841F10001D2
:1002600003FA0EF2801843FA05F359410EE0A5F1A6
:1002700020050EF1200E012A03FA0EFC28BF4CF0D7
:10028000020C43FA05F3C01851EBE37101F000458D
:1002900007D54FF0000EDCF1000C7EEB00006EEB9A
:1002A0000101B1F5801F1BD3B1F5001F0CD3490824
:1002B0005FEA30004FEA3C0C04F101044FEA44527B
:1002C00012F5800F80F09A80BCF1004F08BF5FEA02
:1002D000500C50F1000041EB045141EA050130BDE2
:1002E0005FEA4C0C404141EB0101013C28BFB1F5F4
:1002F000801FE9D291F0000F04BF01460020B1FA3F
:1003000081F308BF2033A3F10B03B3F120020CDA11
:100310000C3208DD02F1140CC2F10C0201FA0CF0EF
:1003200021FA02F10CE002F11402D8BFC2F1200C54
:1003300001FA02F120FA0CFCDCBF41EA0C0190400A
:10034000E41AA2BF01EB0451294330BD6FEA040453
:100350001F3C1CDA0C340EDC04F11404C4F120023E
:1003600020FA04F001FA02F340EA030021FA04F350
:1003700045EA030130BDC4F10C04C4F1200220FAA7
:1003800002F001FA04F340EA0300294630BD21FAE5
:1003900004F0294630BD94F0000F83F4801306BFAB
:1003A00081F480110134013D4EE77FEA645C18BF9F
:1003B0007FEA655C29D094EA050F08BF90EA020F36
:1003C00005D054EA000C04BF1946104630BD91EA2E
:1003D000030F1EBF0021002030BD5FEA545C05D131
:1003E0004000494128BF41F0004130BD14F5800470
:1003F0003CBF01F5801130BD01F0004545F0FE41E4
:1004000041F470014FF0000030BD7FEA645C1ABF18
:10041000194610467FEA655C1CBF0B46024650EA4F
:10042000013406BF52EA033591EA030F41F400217B
:1004300030BD00BF90F0000F04BF0021704730B501
:100440004FF4806404F132044FF000054FF00001D6
:1004500050E700BF90F0000F04BF0021704730B597
:100460004FF4806404F1320410F0004548BF40426C
:100470004FF000013EE700BF42004FEAE2014FEAC1
:1004800031014FEA02701FBF12F07F4393F07F4F9C
:1004900081F06051704732F07F4208BF704793F09F
:1004A0007F4F04BF41F40021704730B54FF46074B2
:1004B00001F0004521F000411CE700BF50EA0102B5
:1004C00008BF704730B54FF000050AE050EA01025E
:1004D00008BF704730B511F0004502D5404261EBCE
:1004E00041014FF4806404F132045FEA915C3FF40F
:1004F000D8AE4FF003025FEADC0C18BF03325FEAAC
:10050000DC0C18BF033202EBDC02C2F1200300FA5C
:1005100003FC20FA02F001FA03FE40EA0E0021FA81
:1005200002F11444BDE600BF70B54FF0FF0C4CF46F
:10053000E06C1CEA11541DBF1CEA135594EA0C0F21
:1005400095EA0C0F00F0DEF82C4481EA030621EA5C
:100550004C5123EA4C5350EA013518BF52EA033597
:1005600041F4801143F4801338D0A0FB02CE4FF049
:100570000005E1FB02E506F00042E0FB03E54FF079
:100580000006E1FB03569CF0000F18BF4EF0010E71
:10059000A4F1FF04B6F5007F64F5407404D25FEA6D
:1005A0004E0E6D4146EB060642EAC62141EA555120
:1005B0004FEAC52040EA5E504FEACE2EB4F1FD0C62
:1005C00088BFBCF5E06F1ED8BEF1004F08BF5FEAE0
:1005D000500E50F1000041EB045170BD06F0004692
:1005E00046EA010140EA020081EA0301B4EB5C043F
:1005F000C2BFD4EB0C0541EA045170BD41F4801137
:100600004FF0000E013C00F3AB8014F1360FDEBF5B
:10061000002001F0004170BDC4F10004203C35DA37
:100620000C341BDC04F11404C4F1200500FA05F3BA
:1006300020FA04F001FA05F240EA020001F000425B
:1006400021F0004110EBD37021FA04F642EB0601D1
:100650005EEA430E08BF20EAD37070BDC4F10C04FB
:10066000C4F1200500FA04F320FA05F001FA04F2BF
:1006700040EA020001F0004110EBD37041F10001AB
:100680005EEA430E08BF20EAD37070BDC4F12005B6
:1006900000FA05F24EEA020E20FA04F301FA05F21E
:1006A00043EA020321FA04F001F0004121FA04F2C6
:1006B00020EA020000EBD3705EEA430E08BF20EA96
:1006C000D37070BD94F0000F0FD101F000464000D0
:1006D00041EB010111F4801F08BF013CF7D041EA52
:1006E000060195F0000F18BF704703F00046520056
:1006F00043EB030313F4801F08BF013DF7D043EA27
:100700000603704794EA0C0F0CEA135518BF95EADC
:100710000C0F0CD050EA410618BF52EA4306D1D163
:1007200081EA030101F000414FF0000070BD50EA82
:10073000410606BF1046194652EA430619D094EA0C
:100740000C0F02D150EA013613D195EA0C0F05D1F6
:1007500052EA03361CBF104619460AD181EA03014A
:1007600001F0004141F0FE4141F470014FF0000002
:1007700070BD41F0FE4141F4780170BD70B54FF09D
:10078000FF0C4CF4E06C1CEA11541DBF1CEA13551D
:1007900094EA0C0F95EA0C0F00F0A7F8A4EB0504FF
:1007A00081EA030E52EA03354FEA013100F08880F6
:1007B0004FEA03334FF0805545EA131343EA1263BF
:1007C0004FEA022245EA111545EA10654FEA002674
:1007D0000EF000419D4208BF964244F1FD0404F52D
:1007E000407402D25B084FEA3202B61A65EB030589
:1007F0005B084FEA32024FF480104FF4002CB6EB46
:10080000020E75EB030E22BFB61A754640EA0C00C5
:100810005B084FEA3202B6EB020E75EB030E22BF05
:10082000B61A754640EA5C005B084FEA3202B6EB46
:10083000020E75EB030E22BFB61A754640EA9C0005
:100840005B084FEA3202B6EB020E75EB030E22BFD5
:10085000B61A754640EADC0055EA060E18D04FEA93
:10086000051545EA16754FEA06164FEAC30343EA33
:1008700052734FEAC2025FEA1C1CC0D111F4801F00
:100880000BD141EA00014FF000004FF0004CB6E7F9
:1008900011F4801F04BF01430020B4F1FD0C88BF98
:1008A000BCF5E06F3FF6AFAEB5EB030C04BFB6EBA3
:1008B000020C5FEA500C50F1000041EB045170BD96
:1008C0000EF0004E4EEA113114EB5C04C2BFD4EBC3
:1008D0000C0541EA045170BD41F480114FF0000E47
:1008E000013C90E645EA060E8DE60CEA135594EAC3
:1008F0000C0F08BF95EA0C0F3FF43BAF94EA0C0FC6
:100900000AD150EA01347FF434AF95EA0C0F7FF43A
:1009100025AF104619462CE795EA0C0F06D152EA8E
:1009200003353FF4FDAE1046194622E750EA410672
:1009300018BF52EA43067FF4C5AE50EA41047FF483
:100940000DAF52EA43057FF4EBAE12E74FF0FF3CE8
:1009500006E000BF4FF0010C02E000BF4FF0010CB9
:100960004DF804CD4FEA410C7FEA6C5C4FEA430C32
:1009700018BF7FEA6C5C1BD001B050EA410C0CBF81
:1009800052EA430C91EA030F02BF90EA020F0020E3
:10099000704710F1000F91EA030F58BF994208BF4A
:1009A00090422CBFD8176FEAE37040F00100704707
:1009B0004FEA410C7FEA6C5C02D150EA013C07D15E
:1009C0004FEA430C7FEA6C5CD6D152EA033CD3D0A9
:1009D0005DF8040B704700BF8446104662468C46A3
:1009E0001946634600E000BF01B5FFF7B7FF0028D6
:1009F00048BF10F1000F01BD4DF808EDFFF7F4FFFF
:100A00000CBF012000205DF808FB00BF4DF808ED89
:100A1000FFF7EAFF34BF012000205DF808FB00BFAC
:100A20004DF808EDFFF7E0FF94BF012000205DF8CE
:100A300008FB00BF4DF808EDFFF7CEFF94BF012083
:100A400000205DF808FB00BF4DF808EDFFF7C4FF7C
:100A500034BF012000205DF808FB00BF4FEA410CC5
:100A60007FEA6C5C02D150EA013C0AD14FEA430CA8
:100A70007FEA6C5C02D152EA033C02D14FF00000E5
:100A800070474FF0010070474FEA410212F5001223
:100A900015D211D56FF47873B3EB625212D94FEAC5
:100AA000C12343F0004343EA505311F0004F23FAAF
:100AB00002F018BF404270474FF00000704750EA04
:100AC000013005D111F0004008BF6FF000407047C1
:100AD0004FF00000704700BF4FEA4102B2F1E0431F
:100AE00024BFB3F5001CDCF1FE5C0DD901F0004C15
:100AF0004FEAC0024CEA5070B2F1004F40EB830065
:100B000008BF20F00100704711F0804F21D113F190
:100B10003872BCBF01F00040704741F480114FEAC9
:100B20005252C2F11802C2F1200C10FA0CF320FA52
:100B300002F018BF40F001004FEAC1234FEAD3236F
:100B400003FA0CFC40EA0C0023FA02F34FEA4303D9
:100B5000CCE77FEA625307D150EA01331EBF4FF062
:100B6000FE4040F44000704701F0004040F0FE407D
:100B700040F40000704700BF53B94AB9002908BFCC
:100B800000281CBF4FF0FF314FF0FF3000F00CB8D1
:100B9000ADF1080C6DE904CE0AF0D2FCDDF804E0FA
:100BA000DDE9022304B07047704700BF0000000079
:100BB00001F0FF01102A2BDB10F0070F08D010F80E
:100BC000013B013A8B422DD010F0070F42B3F6D112
:100BD000F0B441EA012141EA014122F007047FF02B
:100BE00000070023F0E80256083C85EA010586EA82
:100BF000010685FA47F5A3FA87F586FA47F6A5FABE
:100C000087F68EB9EED1F0BC01F0FF0102F00702C9
:100C100032B110F8013B013A83EA010313B1F8D174
:100C20000020704701387047002D06BF3546033855
:100C3000073815F0010F07D1013015F4807F02BF8E
:100C4000013015F4C03F0130F0BC0138704700BFDF
:100C5000034613F8012B002AFBD1181A01387047FC
:100C60000348044B834202D0034B03B1184770473B
:100C70005003002050030020000000000548064BF0
:100C80001B1AD90F01EBA301491002D0034B03B18A
:100C90001847704750030020500300200000000058
:100CA00010B5064C237843B9FFF7DAFF044B13B1B4
:100CB0000448AFF300800123237010BD50030020CF
:100CC000000000004CE2000808B5054B1BB10549C7
:100CD0000548AFF30080BDE80840FFF7CFBF00BF75
:100CE00000000000540300204CE20008F0B5174655
:100CF000002418E00133A5EB040C9C4512DD10F82C
:100D000003E003F1010C10F80C209645F2D9CE5CFB
:100D1000C25400F80CE011F80CE001F803E001F80F
:100D20000C60E7E701347D1EA54201DD0023E2E708
:100D3000F0BD08B500F02EFA00F034FA01F058FECC
:100D400001F0FAFF01F0EAFE02F0DCFD08BD000050
:100D50002DE9F04180460F4616461D4602E00A2066
:100D600007F000F80B4CA47D1CB10A4CE47D002C6C
:100D7000F5D0084CC4F800806760A660002161755A
:100D800025610123A375E175034B186807F051F83D
:100D9000BDE8F081540700204807002038B505461B
:100DA0000C4602E00A2006F0DDFF0A4B9B7D1BB1DA
:100DB000084BDB7D002BF5D0064B1D7501225A75C3
:100DC0001C619A750021D975034B186807F031F83A
:100DD00038BD00BF540700204807002070B5064604
:100DE0000D46144602E00A2006F0BCFF0A4B9B7D2C
:100DF0001BB1094BDB7D002BF5D0074B1E735D73D8
:100E000003225A751C6101229A750021D975034B82
:100E1000186807F00EF870BD54070020480700203E
:100E200070B505460B46421E144C02EB420004EB23
:100E30008000D0ED006AD0ED017A0246104E96F89F
:100E400000C00CF1FF3C0CEB4C0004EB800090ED7B
:100E5000007A90ED016A77EEC67A0A4991ED006A50
:100E6000926877EE867A17EE901A76EEC77A17EECA
:100E7000900AFFF76DFF357070BD00BF00000020C5
:100E8000680100207003002038B504460A46034D6F
:100E900001462878FFF7A2FF2C7038BD68010020BA
:100EA000014B1870704700BF6801002010B5441E48
:100EB000074B53F8240006F055FF04EB4404054AA1
:100EC00002EB8402002307CA02F002FD10BD00BF3E
:100ED00080E200088806002008B50238C0EB001048
:100EE000C00007EE900AF8EEE77A17EE900A02F0DB
:100EF00053F808BD38B504460D46082001F078FEC9
:100F00002078012865D01A304FF0FF31C0B2FFF7CA
:100F100087FF2878FFF7E0FF2078043040F6B831EB
:100F2000C0B2FFF73BFF2078831EDBB2022B57D9FC
:100F30004FF0FF31374B186806F07BFF2878FFF73A
:100F4000B5FF2378012B50D0607809304FF0FF3186
:100F5000C0B2FFF765FF6878FFF7BEFF082001F019
:100F600047FE6078043040F6B831C0B2FFF716FF94
:100F70006078831EDBB2022B3FD94FF0FF31254B47
:100F8000186806F056FF6878FFF790FFA0780528EC
:100F900038D009304FF0FF31C0B2FFF741FFA878D9
:100FA000FFF79AFF082001F023FEA078043040F6F6
:100FB000B831C0B2FFF7F2FE4FF0FF31154B1868A1
:100FC00006F037FFA878FFF771FF082001F032FE26
:100FD00038BD09304FF0FF31C0B2FFF721FF98E76D
:100FE0000F30C0B2FFF75CFFA2E760781A304FF015
:100FF000FF31C0B2FFF748FFADE70F30C0B2FFF7D7
:101000004FFFBAE709304FF0FF31C0B2FFF73CFFA6
:10101000C5E700BF4807002070B502290AD00329A0
:101020000FD0012942D140F23A764FF46175F0EECB
:10103000087A0BE04FF4C86640F27625F0EE087AA5
:1010400004E040F2B4560025F2EE047A441E1A4B36
:1010500003EB840393ED007A77EE677A17EE900A3C
:1010600001F068FF154B53F82440204606F07AFE45
:101070004FF4A27006F076FE114801F05BFF2046A7
:1010800006F070FE0F4801F0F9FC4FF4077006F00F
:1010900069FE304601F0ACFF284606F063FE01F021
:1010A00089FF4FF4877006F05DFE70BD40F2B456C4
:1010B000DFED057ACAE700BF98E200088CE200087D
:1010C000668686C30000114300000000F8B507469D
:1010D000084611464FF0000E0FE05C1C84550EF1DF
:1010E00001048C550133042B05DC0A4C14F803C0B1
:1010F000AC45F7D1F1E70EF1010EBEF1020F04DCB1
:10110000764657F82E500023EDE70322FFF7EEFD59
:10111000F8BD00BF0004002000B585B0C82006F06F
:1011200021FE694600230093019302930393FF235A
:101130008DF80030AA228DF801208DF80330642349
:101140000522044806F027FCC82006F00BFE05B077
:101150005DF804FB540A002000B585B06946002301
:101160000093019302930393FF238DF80030AA2389
:101170008DF80130A7238DF802306423052204483E
:1011800006F009FCC82006F0EDFD05B05DF804FB93
:10119000540A002008B5FFF7BFFFFFF7DDFF02F09C
:1011A000FBFA08BD08B574200AF046FB144B186022
:1011B000002824D00023036243628362C362036376
:1011C00043638363C36303600D4A12685360936093
:1011D000D360136153619361D36113645364936467
:1011E000D364136553659365D3651366936653663D
:1011F000D366042382F87030002382F8713008BD72
:101200007403002018490A68002313625362936232
:10121000D362136353639363D36313600A685360A9
:101220009360D360136153619361D361136453641A
:101230009364D364136553659365D36513669366AE
:101240005366D366042382F87030084A516801233C
:1012500081F85430916881F85430D16881F8543065
:10126000126982F85430704774030020580400203B
:101270002DE9F8432DED068B02F088FA142004F0D6
:10128000D5FE8F4BD3ED007A9FED8E7A67EE877A8D
:101290009FED8D7AC7EE877A17EE909A1868FFF760
:1012A000EBF80022894B08F0C5FEFFF715FC07EEAE
:1012B000900AF5EEC07AF1EE10FA00F1B7809FEDDA
:1012C000847AF4EEC77AF1EE10FA07D99FED817AAD
:1012D000F4EEC77AF1EE10FA40F3AD807E4B1B6856
:1012E000002283F871207C4B1C68754B1B682366B9
:1012F0007A4B1B68A3667A4B5F6897ED146A84ED9E
:10130000046AD3F80880D8ED147AC4ED057ADE6853
:10131000D6ED146AC4ED066A1D6995ED147A84ED64
:10132000077A36EE278A36EE888A37EE088AB5EED7
:10133000009A28EE098A84ED088A77EEC67A76EE5E
:10134000A78A78EEC78A68EE898AC4ED098A77EEA3
:10135000E67A77EE277A17EE900AFFF78DF856A314
:10136000D3E90023FFF70AFAFFF7B6FB60664846A9
:1013700008F0B8FE09EE900A28EE29AA484608F0BF
:10138000EBFE06EE900A68EEA67A3AEE67AA84EDC6
:1013900010AA28EE268A68EEA98A38EE288A84EDFB
:1013A000118A97ED137AD8ED137A37EE277AD6EDB6
:1013B000137A37EE277AD5ED137A37EE277A27EEB0
:1013C000097A84ED0C7AD8ED137A97ED136A77EEEB
:1013D000C67A96ED136A77EE867A95ED136A77EE04
:1013E000C67A67EE897AC4ED0D7A94ED146A69EED7
:1013F000875A26EEA75A75EEC55A36EE256A84ED51
:10140000146A94ED156A66EE876A69EEA79A76EE1D
:10141000A96A76EE267AC4ED157A02F0BDF9142099
:1014200004F000FEBDEC068BBDE8F8839FED2D7A3D
:1014300077EE877A43E79FED267AF4EEC77AF1EEEE
:1014400010FA21DD9FED287AF4EEC77AF1EE10FA5A
:1014500005D8214B1B68012283F8712043E79FEDDB
:10146000227AF4EEC77AF1EE10FA7FF73CAF9FEDE7
:101470001F7AF4EEC77AF1EE10FA05D8164B1B6806
:10148000022283F871202EE79FED187AF4EEC77AD6
:10149000F1EE10FA7FF727AF9FED0E7AF4EEC77AE0
:1014A000F1EE10FA3FF61FAF0B4B1B68032283F8D7
:1014B000712018E7AFF300809B6CB2C9FC7F384005
:1014C00080070020DB0F4940000034430080764055
:1014D0000000344200809D43740300207C070020FC
:1014E000580400200000B44300000743000061439B
:1014F00010B5012408E0074B53F8240001F0C8FEA2
:10150000012006F02FFC0134042CF4DDFFF7B0FEBF
:1015100010BD00BF580400202DE9F0432DED068BCF
:1015200083B0554D2C68D4ED187ADFED549A67EEF0
:10153000A97A9FED537AC7EE877A17EE906A94EDF9
:10154000128A304608F0CEFD08EE900A28EE289A5E
:1015500094ED13AA304608F0FFFD07EE100A6AEE7C
:10156000077A79EE277AC4ED0A7A28EE478A68EE80
:101570008A8A38EE288A84ED0B8A77EEC87A17EECD
:10158000900AFEF779FF06460F46D4ED1B7A9FEDD1
:101590003D9A67EEC97A67EEA97A17EE900AFEF7D0
:1015A0006BFF0022384BFFF7E9F831A3D3E90023A2
:1015B000FEF7BAFF02460B4630463946FEF7FEFDFF
:1015C000FFF78AFA20602C68D4ED0A8A94ED0B8A22
:1015D00078EE887A17EE900AFEF74EFF804689462D
:1015E000D4ED1B7A67EE897A67EEA97A17EE900A36
:1015F000FEF742FF0022244BFFF7C0F81CA3D3E9FB
:101600000023FEF791FF06460F4602460B46404672
:101610004946FEF7D3FDFFF75FFA054660603246A4
:101620003B4640464946FEF7C7FDFFF755FA804660
:10163000A06078EEC87A17EE900AFEF71DFF02460A
:101640000B4630463946FEF7B9FDFFF745FA03462B
:10165000E06020680A2200924246294602F054F8CF
:1016600003B0BDEC068BBDE8F08300BFAFF3008094
:10167000000000002670E63F74030020DB0F4940A5
:1016800000003443AD8CF2430080664010B582B058
:10169000124B1B68042283F87020C0B9012400E0BB
:1016A0000134042C09DC0E4B53F824008379022BFF
:1016B000F6D0022101F04CFDF2E700200223009356
:1016C00003460246014602F01FF802B010BD01F0C9
:1016D000C3FF012001F08EFFF7E700BF7403002075
:1016E00058040020000000002DE9F04F2DED088B7C
:1016F00087B008EE100A08EE901A91461D4601F0D8
:101700009BFF022001F076FF01F086FFFFF77AFDD4
:10171000FFF7EEFEC54B186802F00EFDC44B1868CB
:1017200002F00AFDC34B186802F006FDC24B1868B0
:1017300002F002FDC14B186802F0FEFCC04B1868B5
:1017400002F0FAFCBF4B186802F0F6FCBE4B1868BA
:1017500002F0F2FC07EE909AFDEEE77A17EE908A1F
:10176000DFEDBA7AB4EEE78AF1EE10FA24D4DFEDB9
:10177000B87AB4EEE78AF1EE10FA28DADFEDB57A3E
:10178000F4EE678AF1EE10FA28D0F0EEE87A9FEDD9
:10179000B27AF4EEC77AF1EE10FA26D5F0EEC87AF6
:1017A000F4EEC77AF1EE10FA26D4F1EE04AAB0EE08
:1017B0006AAA4FF0040B05E0F0EE08AAB3EE04AA03
:1017C0004FF0010B03F0D2FF8246002421E2F0EE3D
:1017D00008AAB3EE04AA4FF0010BF3E7F1EE04AA56
:1017E000B7EE00AA4FF0030BECE7F1EE04AAB0EE5F
:1017F0006AAA4FF0040BE5E7F1EE04AAB0EE08AADE
:101800004FF0010BDEE7954B186806F046FB944B52
:10181000002098750122DA75FFF738FFDFED8B7A2B
:10182000B4EEE78AF1EE10FA11D58E4B1B6893EDFA
:10183000157ADFED8D7A77EEC77A9FED8C7A67EEB9
:10184000877A8B4BC3ED007A03F0AAFD09E3884B3E
:1018500000221A60F8E700249FED867AB4EEC78A6A
:10186000F1EE10FA15D59FED847AF4EEC77AF1EE19
:1018700010FA0AD5B8F1E10F00F0B680DFED7F8AEB
:101880001CE00024E8E70024E6E7B8F1E10F00F0EF
:10189000A8809FED7B7AF4EE478AF1EE10FA0DD125
:1018A00093ED157A37EE687AB0EEC77ADFED756A98
:1018B000B4EEE67AF1EE10FA00F19B809FED727AB9
:1018C000B4EE478AF1EE10FA07D19FED707AF4EE8C
:1018D000C77AF1EE10FA00F18F80FFF709FEB0EE43
:1018E000C89ADFED5B7AB4EEE79AF1EE10FA40F1B8
:1018F000C781DFED677AB4EEE79AF1EE10FA40F3B4
:10190000F080DFED617AB4EE678AF1EE10FA00F054
:10191000EF80F7EE007AF4EE678AF1EE10FA00F04D
:10192000E080DFED5C7AF4EE678AF1EE10FA00F009
:10193000D8804C4B1E6896ED14BAF0EECB7A17EEB9
:10194000900AFEF799FDCDE9000119EE100AFEF7A5
:1019500093FDCDE90401504B1868FEF78DFD02465A
:101960000B46DDE90401FEF727FC02460B46DDE9E4
:101970000001FFF769F850B1DFED487A07EE109AE1
:10198000B4EE677AF1EE10FA39D00134E4B21BEE0E
:10199000102A18EE101A254B186802F0E3FB07EE28
:1019A000900AF5EEC07AF1EE10FA40F38580F0EE81
:1019B000E77A17EE900AFEF75FFD0022384B08F039
:1019C00003FC284B1E68FFF787F8B064254B1E68A0
:1019D000726D18EE901A164B186802F0C3FBF06493
:1019E0000CE1DFF8CC9054E7DFF8C890DFED238AF4
:1019F00064E79FED2C8A70E7DFED2B8A6DE7306E90
:101A0000FEF73AFD06460F464846FEF735FD002232
:101A1000264BFEF7D1FB02460B4630463946FFF710
:101A200013F80028B3D00134E4B2B0E7EC0600208C
:101A3000E8060020D0060020E4060020E006002092
:101A4000DC060020D8060020D40600200080BBC49D
:101A50000080BB44000020420080894448070020E9
:101A60005407002074030020000075C4000000002B
:101A70007003002000401CC500401C4500007AC4D3
:101A80000080FA4300004843000082C300008C42FB
:101A90000000C842000002446C010020000087439F
:101AA00000804B40008089430000FA430000E03F83
:101AB0000000344300006143F0EEE77A17EE900A2D
:101AC000FEF7DAFC0022B64B08F07EFBFFF704F8C5
:101AD000B44B1B6807EE900AF1EE677AC3ED127AF9
:101AE00074E7DFEDB17AB4EEE79AF1EE10FA06D4BE
:101AF000DFEDAE7AB4EE678AF1EE10FA6BD1B0EE9C
:101B0000E89ADFEDA97AB4EEE79AF1EE10FA62DD19
:101B1000A44B1B6893ED15BAF0EECB7A17EE900A42
:101B2000FEF7AAFCCDE9000119EE100AFEF7A4FCAD
:101B300006460F469E4B1868FEF79EFC02460B4673
:101B400030463946FEF738FB02460B46DDE9000118
:101B5000FEF77AFF08B10134E4B21BEE102A18EE4A
:101B6000901A944B186802F0FDFA07EE900AF5EE11
:101B7000C07AF1EE10FA19DDF0EEE77A17EE900A6E
:101B8000FEF77AFC0022864B08F01EFB854B1E6890
:101B9000FEF7A2FFF064834B1E68326D18EE101A38
:101BA000854B186802F0DEFAB06427E0F0EEE77AC1
:101BB00017EE900AFEF760FC0022794B08F004FB58
:101BC000FEF78AFF774B1B6807EE900AF1EE677A03
:101BD000C3ED137ADFE7734E37683A6D18EE101ACB
:101BE000754B186802F0BEFAB8643668726D18EE6C
:101BF000901A704B186802F0B5FAF064694B1E68D1
:101C0000326E49466D4B186802F07EFBF066FFF7B6
:101C100083FC03F0ABFDA0EB0A00A84280F0168124
:101C20005C45BFF4F0AD5F4B1B68D3ED147A77EEE3
:101C3000C87AF0EEE77AF4EECA7AF1EE10FA7FF5A0
:101C40000AAE93ED157A37EE687AB0EEC77AB4EE45
:101C5000EA7AF1EE10FA7FF514AE93ED187A06EEFB
:101C6000909A37EE667AB0EEC77ADFED556AB4EE39
:101C7000E67AF1EE10FA7FF506AE0134E4B2EBE558
:101C8000DFED507AB4EEE78AF1EE10FA37DBDFEDE4
:101C90004E7AB4EEE78AF1EE10FAB8D5414B1B68E4
:101CA000D3ED147AB0EEE77AB4EEC79AF1EE10FAFB
:101CB00001D50134E4B217EE902A18EE101A434B06
:101CC000186802F04FFAFEF7D7FB0022344B08F0F9
:101CD0007BFA344F3E68FEF7FFFEB064726D18EE7B
:101CE000901A3B4B186802F03DFAF0643E68326E81
:101CF0004946324B186802F007FBF06687E7DFEDD4
:101D0000357AB4EEE78AF1EE10FA80D5254B1B68E0
:101D100093ED14BAF0EECB7A17EE900AFEF7ACFB17
:101D200006460F4619EE100AFEF7A6FB02460B46C2
:101D3000CDE900230022284BFEF73EFA02460B466F
:101D400030463946FEF780FE00284BD00134E4B21D
:101D5000B7EE009A1BEE102A18EE101A1F4B1868E7
:101D600002F000FA07EE900A0E4B1E6867EE897AC1
:101D7000C6ED127A726D18EE901A194B186802F0BF
:101D8000F1F9F064B8F1E10F56D0064B1E68326EDF
:101D900049460A4B186802F0B7FAF06637E700BF09
:101DA00000804B40740300200000C842000082C342
:101DB0006C010020E8060020EC060020D006002080
:101DC0009A99993E0080BB4400800945E4060020B2
:101DD000E00600200080BBC400804140DC060020FB
:101DE000D80600200022244BDDE90001FEF7E4F9CB
:101DF00002460B4630463946FEF726FEC8B1DDE9FD
:101E0000002330463946FEF7D7F9029001F100432E
:101E100003930022184BDDE90201FEF7AFFC14A387
:101E2000D3E9002308F0D0F9FEF756FE09EE100AB8
:101E300090E7B7EE009A8DE7104B1E68326E494668
:101E40000F4B186802F060FAF066E0E60D4B186878
:101E500006F023F80C4B002098750122DA75FFF785
:101E600015FC07B0BDEC088BBDE8F08FAFF3008028
:101E70009A9999999999B93F00406F40740300204D
:101E8000D40600204807002054070020000000006E
:101E90002DE9F04F2DED048B83B007460D46032846
:101EA0004AD8DFE800F08902102EB74B93ED068A7E
:101EB000D3ED108A0190DFEDB59AB0EE699A4FF03C
:101EC0000008012497E0B04B93ED078AD3ED118A07
:101ED000AF4B1B780193012B08D001230193DFED59
:101EE000AD9A9FEDAD9A4FF00008EAE7F7EE007A61
:101EF00078EEA78ADFEDA79A9FEDA79A4FF000082A
:101F0000DFE7A14B93ED088AD3ED128AA04B1B7833
:101F1000012B5FD007D90190DFED9C9A9FED9F9A2E
:101F20004FF00008CDE701230193DFED989A9FED74
:101F30009B9A4FF00008C4E7934B021D03EB82020B
:101F400092ED018A00F10E0203EB8203D3ED018AC8
:101F5000031F052B26D8DFE803F0032A11161B20E8
:101F60009FED8C9ADFF86882894B1B780193012BD7
:101F700038D105F51675DFED899AA2E79FED889AAD
:101F8000DFF84C82F0E79FED879ADFF84482EBE7B9
:101F90009FED839ADFF83882E6E79FED7E9ADFF8BF
:101FA0003482E1E79FED7B9A4FF00008DCE79FED7C
:101FB000799ADFF82482D7E7734B93ED058AD3ED46
:101FC0000F8A01230193DFED719AB0EE699A4FF009
:101FD000000876E70190DFED6D9A9FED709A4FF063
:101FE00000086EE701230193DFED6C9A69E7022197
:101FF00001F0AEF80134042C06DC6B4B53F82400DE
:102000008379022BF6D0F2E7FFF7FCF8FFF770FABE
:10201000664B186802F090F8654B186802F08CF86F
:10202000644B186802F088F8634B186802F084F873
:1020300003F09CFB064600245EE000245F4B1A6818
:10204000514BD3ED037AF5EE407AF1EE10FA06D15A
:10205000D3ED047AF5EE407AF1EE10FA4CD092F816
:102060007130032B40D8DFE813F008002901B900D4
:10207000F1000024E2E70024E0E7DFF80CA1DAF841
:102080000C2018EE101A4A4B186802F06BF8FEF795
:10209000F3F9DFF82891D9F800B039A3D3E9002388
:1020A000FEF742FAFEF718FDCBF84C00DAF81020E4
:1020B00018EE901A3D4B186802F054F8FEF7DCF960
:1020C000D9F800902EA3D3E90023FEF72DFAFEF7EE
:1020D00003FDC9F848003A4B1A684146364B186868
:1020E00002F012F9C9F86C00022F00F01F81FFF70F
:1020F00013FA052005F036FE03F038FB801BA842DA
:1021000080F02581204BD3ED037A77EEC87AF0EE8C
:10211000E77AF4EEC97AF1EE10FA8ED8D3ED047AAC
:1021200077EEE87AF0EEE77AF4EEE97AF1EE10FA7B
:102130009FD8234BD3ED007A07EE108A77EEC77A4B
:10214000F0EEE77A9FED1F7AF4EEC77AF1EE10FA1F
:1021500091D50134E4B2019BA3423FF66FAF1A4B15
:10216000186805F09AFE194B002098750122DA755F
:10217000FFF78CFA03F014F9F4E000BFAFF300802E
:102180009A9999999999E13F9C0300203333E34050
:102190006C0300203333A3409A9911416666464090
:1021A0003333C842CDCCC84158040020CC060020AF
:1021B000C8060020C4060020D006002074030020BA
:1021C000800700209A99993E480700205407002074
:1021D000000034430000B44200008743DFF8C4A18C
:1021E000DAF80C2018EE101A674B186801F0BAFFE5
:1021F000FEF742F9DFF8A091D9F800B05CA3D3E96B
:102200000023FEF791F9FEF767FCCBF84C00DAF8F3
:10221000102018EE901A5D4B186801F0A3FFFEF72E
:102220002BF9D9F8009052A3D3E90023FEF77CF9EB
:10223000FEF752FCC9F84800554B1A684146554B09
:10224000186802F061F8C9F86C004DE7DFF854A196
:10225000DAF80C2018EE101A4B4B186801F082FFC8
:10226000FEF70AF9DFF83091D9F800B042A3D3E9BC
:102270000023FEF759F9FEF72FFCCBF84800DAF8F7
:10228000102018EE901A414B186801F06BFFFEF712
:10229000F3F8D9F8009036A3D3E90023FEF744F908
:1022A000FEF71AFCC9F84C00394B1A684146394B05
:1022B000186802F029F8C9F86C0015E7DFF8E4A007
:1022C000DAF80C2018EE101A2F4B186801F04AFFAC
:1022D000FEF7D2F8DFF8C090D9F800B024A3D3E914
:1022E0000023FEF721F9FEF7F7FBCBF84800DAF8F8
:1022F000102018EE901A254B186801F033FFFEF7F6
:10230000BBF8D9F800901CA3D3E90023FEF70CF921
:10231000FEF7E2FBC9F84C001D4B1A6841461D4B05
:10232000186801F0F1FFC9F86C00DDE61A4BD3F82C
:102330000090D9F84800FEF79FF811A3D3E90023D5
:10234000FEF7F2F8FEF7C8FBC9F84800CFE6134BDA
:10235000186805F0A2FD124B002098750122DA756D
:10236000FFF794F903B0BDEC048BBDE8F08F00BF1C
:102370009A9999999999E1BF9A9999999999E13F6F
:10238000CDCCCCCCCCCCEC3FC8060020CC06002079
:1023900080070020D006002074030020480700209A
:1023A000540700209C0300202DE9F0472DED028BFF
:1023B00008EE100A8A4616469846012400E00134C9
:1023C000042C09DC4A4B53F824008379022BF6D005
:1023D000022100F0BDFEF2E7FEF714FFFFF788F8D8
:1023E000444B186801F0A8FE434B186801F0A4FEA6
:1023F000424B186801F0A0FE07EE90AAF0EEE77AD3
:102400009FED3F7AF4EEC77AF1EE10FA06D4F2EEC1
:10241000008A03F0ABF90746002529E0F2EE048AB2
:10242000F7E7002500E00025FFF762F8354CD4F807
:102430000090D9F8502018EE101A2E4B186801F0B1
:1024400091FEC9F84800D4F80090D9F854205146BC
:10245000294B186801F086FEC9F84C002468226EEA
:102460003146264B186801F04FFFE066FFF754F83D
:1024700003F07CF9C01B404531D2224B1C68D4EDDF
:10248000147A77EEC87AF0EEE77AF4EEE87AF1EEB5
:1024900010FAC6D5D4ED157A07EE10AA77EEC77AF2
:1024A000F0EEE77AB2EE087AF4EEC77AF1EE10FABF
:1024B000B9D5D4ED187A07EE106A77EEC77AF0EE48
:1024C000E77A9FED117AF4EEC77AF1EE10FA0DD5A6
:1024D0000135EDB2042DA7D90020FFF7D7F8002071
:1024E000FFF7D4F8BDEC028BBDE8F08700259BE731
:1024F00058040020C0060020BC060020B8060020BA
:1025000000007A4474030020CDCCCC3D2DE9F04F7F
:102510002DED068B87B007460C4616464FF0000897
:1025200001F08AF8022001F065F801F075F8FEF775
:1025300069FEFEF7DDFFB74B186801F0FDFDB64BF5
:10254000186801F0F9FDB54B186801F0F5FDB44BC2
:10255000186801F0F1FDB34B186801F0EDFDB24BC6
:10256000186801F0E9FDB14B186801F0E5FD03F0D2
:10257000FDF80546002304930593029303930A2F65
:102580003FD00E2C4AD008F1FF33DFF8CCC203EB6A
:1025900043020CEB820292ED008A7A1E02EB4201AA
:1025A0000CEB8101D1ED007A38EE678A8DED048A5B
:1025B000611E01EB41000CEB800090ED00AA3AEEA9
:1025C00067AA8DED05AA03EB43030CEB8300D0ED66
:1025D000018A02EB42020CEB8202D2ED017A78EE24
:1025E000E78ACDED028A01EB41010CEB8103D3EDCB
:1025F000019A79EEE79ACDED039A4FF0000A54461E
:1026000084E01D2C17D01E2C1CD01C2CBBD14FF0ED
:102610000F089FED879ADFF844B2B4E7122F18D065
:10262000132F1DD0112F22D14FF01B089FED819A3F
:1026300019EE10BAA7E74FF00F089FED7D9ADFF86B
:102640001CB2A0E74FF01B089FED7A9ADFF80CB29E
:1026500099E74FF010089FED769ADFF804B292E701
:102660004FF010089FED749ADFF8F4B18BE74FF04C
:102670001008DFF8ECB186E7704B186805F00DFC28
:102680006F4B002098750122DA75FEF7FFFF02F00C
:1026900087FE5FE117EE102A18EE101A5D4B1868DE
:1026A00001F060FD07EE900AF5EEC07AF1EE10FA47
:1026B00040F39A80F0EEE77A17EE900AFDF7DCFE21
:1026C0000022604B07F080FD5F4BD3F80080FEF7DF
:1026D00003FAC8F848005C4BD3F80080D8F85420BF
:1026E00018EE901A4C4B186801F03CFDC8F84C00ED
:1026F000554BD3F80080D8F860205946474B1868EE
:1027000001F002FEC8F86C00FEF706FF03F02EF899
:10271000401BB04280F01381002CADD14A4B1B68A6
:10272000D3ED147A77EEC87AF0EEE77AB3EE047A56
:10273000F4EEC77AF1EE10FA1DD593ED157A37EE67
:10274000687AB0EEC77AF0EE086AB4EEE67AF1EE97
:1027500010FA10D593ED187A06EE90BA37EE667A35
:10276000B0EEC77ADFED396AB4EEE67AF1EE10FA30
:1027700001D50134E4B2F4EEC97AF1EE10FA10D5C5
:10278000D3ED157A77EEE87AF0EEE77AF4EEC97ACF
:10279000F1EE10FA05D5F0EE698AB0EE4A8A4FF0F4
:1027A000010AFEF7A5FEF0EEC87A9FED297AF4EE55
:1027B000C77AF1EE10FAA7D50A2F53D0224B1B6827
:1027C00093ED147A234BD3ED007A78EE277AB4EEAA
:1027D000E77AF1EE10FA7FF55DAFBAF1000F3FF442
:1027E00059AF0134E4B255E7F0EEE77A17EE900AFC
:1027F000FDF742FE0022134B07F0E6FCFEF76CF9F2
:10280000114B1B6807EE900AF1EE677AC3ED127A5E
:1028100061E700BFEC060020E8060020D00600209B
:10282000E4060020E0060020DC060020D806002098
:10283000000048420000B44200008C4248070020DB
:102840005407002000804B40740300209A99993E61
:102850000080BB446C0100200000002000003443D5
:102860000000B4423E4B1B68D3ED15AAF0EEEA7AA5
:1028700017EE900AFDF700FECDE90001F0EEE87AD0
:1028800017EE900AFDF7F8FD80468946354B18682B
:10289000FDF7F2FD02460B4640464946FDF78CFC2B
:1028A00002460B46DDE90001FEF7CEF820B1BAF191
:1028B000000F01D00134E4B21AEE902A18EE901AFB
:1028C000294B186801F04EFC07EE900AF5EEC07A2D
:1028D000F1EE10FA1EDDF0EEE77A17EE900AFDF742
:1028E000CBFD0022214B07F06FFC1D4BD3F800807D
:1028F000FEF7F2F8C8F84C00194BD3F80080D8F86E
:10290000502018EE101A1A4B186801F02BFCC8F86A
:102910004800EDE6F0EEE77A17EE900AFDF7ACFD21
:102920000022124B07F050FCFEF7D6F80C4B1B6848
:1029300007EE900AF1EE677AC3ED137ADCE70D4BF0
:10294000186805F0AAFA0C4B002098750122DA7578
:10295000FEF79CFE07B0BDEC068BBDE8F08F00BF14
:10296000740300206C010020E806002000804B402A
:10297000EC06002048070020540700202DE9F0470E
:102980008246894690461F4600F056FE022000F01F
:1029900031FE00F041FEFEF735FCFEF7A9FD124BBB
:1029A000186801F0C9FB02F0E1FE064611E0FEF7EF
:1029B0009FFD0E4C25682A6E41460B4B186801F0AE
:1029C000A3FCE8662468C4F848A0C4F84C90FEF75D
:1029D000A3FD02F0CBFE801BB842E8D30020FEF737
:1029E00055FEBDE8F08700BFD0060020740300202C
:1029F000074B196800220A601B685A609A60DA6007
:102A0000044A1A6100221A7501225A75704700BFE4
:102A1000700100206666663F10B507EE900A0C460E
:102A200067EEA76A9FED097A37EE667AB1EE477ACC
:102A300077EEA77ADFED066A67EEA67AC7EE277A09
:102A400017EE900A07F022FB206010BD00373947CF
:102A50000000B64208B5084B1B68D3ED037AFDEEC3
:102A6000E77AFA2341F2680217EE901A09B20320BE
:102A700000F08EFF08BD00BF70010020F0B583B0EC
:102A800004461E4D284604F06FFA1D4E3768012398
:102A90003B751C49204607F009FC1B4907F0E2FB87
:102AA000786001A9FFF7B8FFDDED017A9FED177A95
:102AB00067EE877A9FED167AC7EE877A17EE900A4F
:102AC000FDF7DAFC0022134BFDF758FE0022124BF3
:102AD000FDF774FBFDF7D8FF00B200F50060336826
:102AE00007EE900AF8EEE77AC3ED037A284604F081
:102AF000F9F9FFF7AFFF03B0F0BD00BF8C0800206D
:102B0000700100200080A343000011430000344303
:102B1000DB0F49400080B63F0000E03F38B51F4B57
:102B20000022DA601A611E4959611E4ADA631E48A2
:102B300098611E4818641E48D8611E4858641E4893
:102B400018621E4898645962DA641D4A9A621D4AE6
:102B50001A651D4ADA621D4A5A651D4A1A631D4AE2
:102B60009A651D4A5A631D4ADA651D4A9A631D4AD1
:102B70001A6600241C72A3F8694083F86B405C66F7
:102B800083F868401C605C60174D0822294617488E
:102B900005F042F82C606C6038BD00BF9C0300203B
:102BA0000000964300003E43000024440000A84378
:102BB000008024440000B94300801A440000A74369
:102BC0000080A7430000E043000040430080DE4354
:102BD000000069430000DC43004089440080DF437B
:102BE00000006B440000E143940700209C0A002091
:102BF00000B583B00D4B0022DA601A61EE238DF828
:102C000004308DF8050000238DF80630FF238DF881
:102C100007300A2304220DEB0201054804F0BBFE35
:102C2000052005F09FF803B05DF804FB9C0300202D
:102C30009C0A002000B583B0072817D0EE238DF83A
:102C400004308DF80500AC238DF80630FF238DF895
:102C500007300A2304220DEB0201074804F09BFE13
:102C6000052005F07FF803B05DF804FB034A136804
:102C700001331360E2E700BF9C0A002094030020A8
:102C8000082900D0704738B504460378EE2B00D0F1
:102C900038BD431813F8013CFF2BF9D1224D0A46E9
:102CA0000146284609F073FD63782B722B7ADAB25D
:102CB000112B2CD8102AEBD3A278E37843EA022315
:102CC00007EE903AB8EE677A2179627942EA0122FA
:102CD00007EE902AF8EE677AA079411EC9B204295E
:102CE000D6D8B3F5A06FD3D2B2F5347FD0D20E4B85
:102CF00083ED037AC3ED047A0C4B1A68022A03DCD5
:102D0000094B134483F86900094B1870C0E7122A75
:102D1000BED1054BD4F802005866A27983F868202A
:102D2000044B01221A70B3E79C0300209403002097
:102D300090030020980300200C4A51690C4B196045
:102D400092695A6000229A60DA601A615A610949F0
:102D5000996100211977084B1A605A60074A9A60F6
:102D600019734FF40062DA81704700BF58040020E5
:102D70001C0400200000B542080400200000F041BF
:102D80000B4B1A68D2ED097ADFED0A6A67EEA67A74
:102D90009FED097A87EE876A83ED026A5A68D2ED61
:102DA000097A67EEA67AC7EE876AC3ED036A7047B1
:102DB0001C04002000003443DB0F494010B52DED0A
:102DC000048B414B93ED046A93ED027A36EE476A29
:102DD000F0EEC67A93ED065ADFED3C5A65EE255AC1
:102DE000F4EEE57AF1EE10FA3FD500221A77364B71
:102DF000D3ED056AD3ED037A76EEE76AF0EEE64AA4
:102E0000F4EEE45AF1EE10FA11DCF1EE025AF4EEAF
:102E1000E54AF1EE10FA4CD5DFED2D5A25EE255A94
:102E2000F5EEC06AF1EE10FA40DDF0EE456A37EEDD
:102E3000067A37EEA68A9FED279A27EE097ADFED0C
:102E4000268A214CC7EE287A17EE901A206800F0E7
:102E500025FA68EE097AC7EEA87A17EE901A60682C
:102E600000F01CFABDEC048B10BDF2EE036AF4EE28
:102E7000E67AF1EE10FA0ED5DFED157A65EE277AD7
:102E8000B5EEC06AF1EE10FA02DDB0EE676AAEE7A9
:102E9000B1EE676AABE7B5EEC06AF1EE10FA02DD9B
:102EA000B0EE456AA3E7B1EE456AA0E7F1EE456AE8
:102EB000BDE7F5EEC06AF1EE10FA02DDF0EE456A0C
:102EC000B5E7F1EE456AB2E71C040020CDCC4C3EDC
:102ED000CDCCCC3EDB0F49400000344308B5074B56
:102EE000186107EE901AF1EE677AC3ED057A0122B8
:102EF0001A77034803F0F6FF08BD00BF1C0400204A
:102F00008C08002006EE900AB3EE057AC6EE877AAA
:102F10009FED067A67EE877ADFED056A87EEA67A7F
:102F200081ED007A82ED007A704700BF00003443E3
:102F3000DB0F494000B583B06A4601A9FFF7E2FF05
:102F400000990198FFF7CAFF03B05DF804FB000089
:102F500008B5FDF791FA0022094BFDF70FFC00229E
:102F6000084BFDF72BF9FDF78FFD81B201F50061EC
:102F700082234FF4AF6209B2022000F009FD08BDC0
:102F80000080B63F0000E03F08B5024B5868FFF7ED
:102F9000DFFF08BD0804002008B5044B5860044852
:102FA00003F0A0FFFFF7F0FF08BD00BF08040020FA
:102FB0008C08002038B50C4D284603F0D5FF0B4C8B
:102FC0000023237340F28C53E3810A2004F0CAFEED
:102FD000284603F087FFC82340F64852B4F90E1084
:102FE000012000F0D5FC38BD8C080020080400202A
:102FF00070B505460B4E304603F0B6FF0A4C002371
:103000002373E5810A2004F0ADFE304603F06AFF29
:103010002C234FF49652B4F90E10012000F0B8FCA6
:1030200070BD00BF8C0800200804002010B50446C5
:103030000621023000F092FC10B12378FF2B00D063
:1030400010BD6378FF2BFBD1A278A179637903EBE4
:1030500001239BB2012A0CD0022A0DD0032AEFD102
:10306000094A126807EE903AF8EE677AC2ED027AE2
:10307000E6E706490B82F1E707EE903AF8EE677A49
:103080000249C1ED007AE9E7700100200804002040
:10309000034608460B70C3F307224A70C3F3074286
:1030A0008A70C3F30763CB707047000030B583B0FC
:1030B00004460D4B08221A6104229A600022DA604D
:1030C00082685A6002F052FB00F16405224652F811
:1030D0000C0B01AB044902F0BFFC18B102F046FB37
:1030E000A842F3D903B030BD400400200160027251
:1030F000064B1B78A0F80930C37A23F0E003C372B3
:10310000012380F85430002383717047740100203C
:1031100008B5C37A032262F30403C3720B4B1B7816
:10312000A0F80930C37A23F0E003C372002304E05F
:10313000C218002111730133DBB2072BF8D9FFF756
:10314000B5FF0A2004F00EFE08BD00BF7401002088
:1031500038B504460D46C37A122262F30403C372E3
:103160000D4B1B78A0F80930C37A23F0E003C3723B
:10317000002303E0E218002010730133072BF9DD70
:1031800047F20503A38125742046FFF78FFFA57141
:103190000A2004F0E7FD38BD7401002008B5C37AA9
:1031A000042262F30403C3720B4B1B78A0F80930AE
:1031B000C37A23F0E003C372002304E0C2180021A5
:1031C00011730133DBB2072BF8D9FFF76FFF0A2029
:1031D00004F0C8FD08BD00BF7401002008B5C37A23
:1031E000062262F30403C3720B4B1B78A0F809306C
:1031F000C37A23F0E003C3720123037304E0C2180F
:10320000002111730133DBB2072BF8D9FFF74EFF12
:103210000A2004F0A7FD08BD7401002010B590F845
:103220000BC0122464F3040C80F80BC0084C94F813
:1032300000C0A0F809C090F80BC02CF0E00C80F89A
:103240000BC0818112680261FFF730FF10BD00BF23
:103250007401002008B5C37A112262F30403C3721B
:103260000A4B1B78A0F80930C37A23F0E003C3723D
:103270008181022304E0C218002111730133DBB203
:10328000072BF8D9FFF712FF08BD00BF740100201B
:1032900008B547F21901FFF7DDFF08BD30B583B06F
:1032A0000446084601AD2946FFF7F2FE2A4647F2DA
:1032B00016012046FFF7B2FF03B030BD30B583B032
:1032C0000446084601AD2946FFF7E2FE2A4647F2CA
:1032D00017012046FFF7A2FF0A2004F043FD03B0C8
:1032E00030BD30B583B0044607EE901AB3EE0E7AC7
:1032F000F4EEC77AF1EE10FA09DCBBEE0E7AF4EECA
:10330000C77AF1EE10FA04D5FBEE0E7A01E0F3EE87
:103310000E7A01AD294617EE900AFFF7B9FE2A464C
:1033200047F20A012046FFF779FF03B030BD30B500
:1033300083B00446084601AD2946FFF7A9FE2A4698
:1033400047F218012046FFF769FF0A2004F00AFD42
:1033500003B030BD10B504460B784A7843EA022327
:1033600047F21902934204D047F21B02934231D034
:1033700010BDCA798B791B0443EA02634A7943EA98
:1033800002230A79134307EE903A027A012A01D008
:10339000032A03D107EE903AF1EE677AC4ED0E7A74
:1033A0009FED1B7A67EE877AC4ED107A94F854305B
:1033B00023B1002384F85430C4ED117A94ED117ACE
:1033C00037EEC77A84ED137AC4ED117A02F0CEF9A4
:1033D000E063CDE7CA798B791B0443EA02634A793B
:1033E00043EA02230A79134307EE903A027A012A4C
:1033F00001D0032A03D107EE903AF1EE677AC4EDCB
:103400000B7A9FED037A67EE877AC4ED147AAFE703
:10341000000048420000000010B504463F2900F2B9
:1034200093800023037161711178537843EA01237B
:103430001BB283F400431BB2A3839178D37843EA91
:1034400001231BB283F400431BB2217A012901D06E
:10345000032901D15B421BB2E3831179537943EA1B
:1034600001231BB283F400431BB2238493791B0214
:103470001BB2D27913436384636AA362A08B00B248
:1034800007EE900AF8EEE77A17EE900AFCF7F4FFE1
:1034900000224FF07C53FDF747F800222E4BFDF73A
:1034A00043F82BA3D3E90023FDF73EF8FDF714FB07
:1034B0006062E08B00B207EE900AF8EEE77A17EE52
:1034C000900AFCF7D9FF00224FF07C53FDF72CF84F
:1034D0000022224BFDF728F8FDF7FEFAE062D4ED5A
:1034E0000B7A9FED1F7A67EE877AC4ED147A208CF1
:1034F00000B207EE900AF8EEE77A17EE900AFCF7B2
:10350000BBFF00224FF07C53FDF70EF80022154B55
:10351000FDF70AF8FDF7E0FA2063638C1BB207EEB3
:10352000903AF8EEE77AF2EE046A87EEA67A84ED36
:103530000D7A10BD49080133062B3FF774AF11F027
:10354000010FF7D02371F5E70123F5E7AFF3008012
:1035500000000060FB2109400000104000003E40D8
:10356000000048420000284008B51F4B18601F4B60
:103570000340FE2B08D01C4BDB7803F01F03022B0B
:1035800012D0112B22D008BD174BB3F80130DBB29B
:103590005A1ED2B2062AF6D8154A52F823300868C5
:1035A0004A6858619A61EEE70F4BB3F801C05FFAC1
:1035B0008CF0431EDBB2062BE5D80A464FEA1C21ED
:1035C0000B4B53F82000FFF727FFDCE7064BB3F85F
:1035D0000130DBB25A1ED2B2062AD4D8044A52F8BD
:1035E0002300FFF7B7FECEE73C040020FF00001FDA
:1035F0005804002038B50546012407E02946054B4C
:1036000053F82400FFF7A4FD0134E4B2042CF5D9EB
:1036100038BD00BF5804002010B5012406E0054B5A
:1036200053F82400FFF774FD0134E4B2042CF6D9FA
:1036300010BD00BF5804002010B5012406E0054B62
:1036400053F82400FFF7AAFD0134E4B2042CF6D9A4
:1036500010BD00BF5804002010B5FFF7EDFF094C66
:103660002046FFF7BBFD04F15800FFF7B7FD04F15A
:10367000B000FFF7B3FD04F58470FFF7AFFDFFF76F
:10368000CBFF10BD2805002038B51B4A1B4B5360EB
:1036900003F15801916003F1B001D16003F5847327
:1036A000136101240BE022461549134B53F8240003
:1036B000FFF71CFD0A2004F055FB0134E4B2042C92
:1036C000F1D9FFF7C9FF012410E00B4D4FF0824103
:1036D00055F82400FFF7F2FD0A4955F82400FFF7DA
:1036E00026FE0A2004F03EFB0134E4B2042CECD99F
:1036F0000220FFF77FFF38BD580400202805002076
:10370000F40600200000B84138B52DED048B06EE1C
:10371000901A06EE103A089C07EE900AB1EE677A0E
:10372000DFED187A86EEA79A06EE902AF1EE666A29
:10373000C6EEA78A86EE278A134DC7EE277A17EEC4
:10374000901A6868FFF7CDFD204604F00BFB19EED8
:10375000101AA868FFF7C5FD204604F003FB18EE19
:10376000901AE868FFF7BDFD204604F0FBFA18EE5A
:10377000101A2869FFF7B5FD204604F0F3FABDECF6
:10378000048B38BD000048425804002008B5392099
:1037900002F04CFC08BD000010B5392002F042FCDC
:1037A000054C2C222146054804F036FA2C22002133
:1037B000204608F05DFF10BDC8070020540A002015
:1037C00038B50546052407E02946054B53F8240083
:1037D000FFF7BEFC0134E4B2062CF5D938BD00BFBA
:1037E0005804002038B5184A184B53615833936178
:1037F00005240EE00A2004F0B5FA22461449124BC3
:1038000053F82400FFF772FC0A2004F0ABFA0134ED
:10381000E4B2062CEED905240FE00B4D0D4955F806
:103820002400FFF74BFD0C4955F82400FFF77FFDFE
:103830000A2004F097FA0134E4B2062CEDD90120F5
:10384000FFF7BEFF38BD00BF5804002078040020F9
:103850001C070020000070410000A04108B5FFF7E0
:1038600013FFFFF7BFFF00F005F908BD10B50524F1
:1038700009E0064B53F82400FFF74AFC0A2004F045
:1038800071FA0134E4B2062CF3D910BD58040020BB
:1038900010B5052406E0054B53F82400FFF77EFC25
:1038A0000134E4B2062CF6D910BD00BF5804002044
:1038B00010B5FFF7EDFF054C2046FFF78FFC04F134
:1038C0005800FFF78BFCFFF7D1FF10BD78040020F4
:1038D00000B585B00DF1100C0CE90700012B03D0E9
:1038E0004BB105B05DF804FB0122BDF8041002984D
:1038F00002F0A8FEF5E70022BDF80410029802F0DD
:10390000A1FEEEE70C4B0D4A5A604FF4804119803E
:103910000121197259721A614FF4005199810221E3
:1039200019755975DA614FF480521A83032283F8AE
:10393000202083F82120704788060020000C0240D8
:1039400000231A4605E010F803C06244D2B20133E6
:10395000DBB28B42F7D3D043C0B2704700231A4684
:1039600005E010F803C06244D2B20133DBB28B42EF
:10397000F7D3FF2A14BF00200120704708B50A467C
:103980000A230146014804F006F808BDE40A0020B5
:103990002DE9F04F8BB006460193022856D001283E
:1039A0005CD040F648539A4200D91A465FFA81F932
:1039B000C1F307255FFA82F8140AFF238DF8183047
:1039C0008DF819308DF80C604FF00A0B8DF80DB0A2
:1039D0004FF0030A8DF80EA04FF029038DF80F3039
:1039E000019B8DF810308DF811908DF81250002742
:1039F0008DF813708DF814708DF815808DF81640C1
:103A00000B2103A8FFF79CFF8DF81A608DF81BB0FF
:103A10008DF81CA04FF029028DF81D20019B8DF818
:103A20001E308DF81F908DF820508DF821708DF884
:103A300022708DF823808DF824408DF825000E210A
:103A400006A8FFF79BFF0BB0BDE8F08F00290DDB48
:103A5000B1F5805FA5DD4FF48051A2E7002907DBB7
:103A6000B1F5805F9DDD4FF480519AE7002198E722
:103A7000002196E770B5482007F0DEFE0446994B1A
:103A80001860482007F0D8FE974B1860482007F0D0
:103A9000D3FE964B1860482007F0CEFE944B18607A
:103AA000482007F0C9FE934B1860482007F0C4FE79
:103AB000914B1860482007F0BFFE904B18604820DB
:103AC00007F0BAFE8E4B1860482007F0B5FE8D4B0C
:103AD0001860482007F0B0FE8B4B1860482007F0B4
:103AE000ABFE8A4B1860482007F0A6FE884B186092
:103AF000482007F0A1FE874B1860482007F09CFE85
:103B0000854B1860482007F097FE844B18604820CA
:103B100007F092FE824B1860482007F08DFE814B23
:103B20001860ECB1804B23606E4E346800256560F0
:103B30007E4BA3607E4BE360256165617D4BA36195
:103B4000E36101F013FE2062336800225A629A6238
:103B5000DA621A635D639D63DD63012283F84020AE
:103B6000614B1B68EBB1744A1A605F4E34680025E4
:103B70006560724BA3606E4BE360256165616D4BC0
:103B8000A361E36101F0F2FD2062336800225A6212
:103B90009A62DA621A635D639D63DD63012283F8D2
:103BA0004020524B1B68F3B1654A1A604F4E34688F
:103BB000644B6360644BA3605D4BE360002525614B
:103BC00065615C4BA361E36101F0D0FD2062336865
:103BD00000225A629A62DA621A635D639D63DD6352
:103BE000012283F84020424B1B68F3B1574A1A6008
:103BF0003F4E3468534B6360554BA3604C4BE360BE
:103C00000025256165614B4BA361E36101F0AEFDC9
:103C10002062336800225A629A62DA621A635D6334
:103C20009D63DD63012283F84020324B1B68F3B1B2
:103C3000484A1A602F4E3468424B6360464BA3607B
:103C40003B4BE360002525616561444BA361E36163
:103C500001F08CFD2062336800225A629A62DA62B7
:103C60001A635D639D63DD63012283F84020224B6C
:103C70001B68F3B13A4A1A601F4E3468314B6360D7
:103C8000384BA3602A4BE360002525616561334B07
:103C9000A361E36101F06AFD2062336800225A6289
:103CA0009A62DA621A635D639D63DD63012283F8C1
:103CB0004020124B1B68002B6AD02B4A1A600F4E13
:103CC0003468204B6360294BA360194BE3600025E7
:103CD00025616561264BA361264BE36101F046FD3A
:103CE000206249E0EC060020E8060020E4060020FF
:103CF000E0060020DC060020D8060020D4060020C4
:103D0000D0060020CC060020C8060020C4060020F3
:103D1000C0060020BC060020B8060020B406002023
:103D2000B0060020AC06002083C0A240986ED23EB0
:103D3000BC74933C00009644D5789540F853033FFB
:103D40006666A6406F12833A0AD7C33FF6289C40A6
:103D5000E17AB43F0000B0405C8FC23F0000E14414
:103D6000CDCCAC4048E1DA3F333353409A99993F88
:103D70000000484300005C43336800225A629A62A4
:103D8000DA621A635D639D63DD63012283F840207C
:103D9000954B1B68FBB1954A1A60934E3468944B5F
:103DA0006360944BA360944BE360002525616561DB
:103DB000924BA361924BE36101F0D8FC206233681F
:103DC00000225A629A62DA621A635D639D63DD6360
:103DD000012283F840208B4B1B683BB38A4A1A6050
:103DE000884E3468894B6360894BA360824BE360E3
:103DF000002525616561874BA361874BE36101F075
:103E0000B5FC206201F0B2FC07EE900A3368F8EED0
:103E1000677AC3ED117A00225A629A62DA621A63F3
:103E20005D639D63DD63012283F840207B4B1B684B
:103E30003BB3754A1A60794E3468744B6360784BB3
:103E4000A3606D4BE360002525616561714BA36143
:103E5000714BE36101F08AFC206201F087FC07EE00
:103E6000900A3368F8EE677AC3ED117A00225A623D
:103E70009A62DA621A635D639D63DD63012283F8EF
:103E80004020684B1B68FBB1674A1A60654E346876
:103E9000574B6360654BA360574BE360002525617A
:103EA0006561634BA361634BE36101F05FFC2062DA
:103EB000336800225A629A62DA621A635D639D6314
:103EC000DD63012283F840205B4B1B68FBB15B4A3A
:103ED0001A60594E34685A4B63605A4BA360464B84
:103EE000E360002525616561574BA361574BE36192
:103EF00001F03CFC2062336800225A629A62DA6266
:103F00001A635D639D63DD63012283F84020504B9B
:103F10001B68FBB14F4A1A604D4E3468484B6360D2
:103F20004D4BA360344BE360002525616561464B32
:103F3000A361464BE36101F019FC20623368002263
:103F40005A629A62DA621A635D639D63DD630122DD
:103F500083F84020414B1B68FBB1414A1A603F4E39
:103F60003468374B6360314BA360234BE36000251B
:103F7000256165613B4BA3612E4BE36101F0F6FBCC
:103F80002062336800225A629A62DA621A635D63C1
:103F90009D63DD63012283F84020334B1B68FBB136
:103FA000324A1A60304E3468114B6360304BA36064
:103FB000114BE3600025256165612E4BA3612E4BFB
:103FC000E36101F0D3FB2062336800225A629A62F7
:103FD000DA621A635D639D63DD63012283F840202A
:103FE000264B1B684CE000BFD0060020666666408A
:103FF0006F12833A9A99193FBC74933C000048436E
:1040000000005C43CC060020333323400AD7A33C96
:1040100052B89E3E0000204300004344C8060020E2
:104020003333B33EC4060020CDCC8C3FD7A3F03E43
:104030000000484200009643C0060020CDCC0C4052
:104040000AD7233C3D0AD73E0000E1430000EB4382
:10405000BC060020000020408FC2753EB80600203C
:104060000000C04000008242B4060020CDCC904148
:1040700014AE3740000016440000E144B0060020B2
:10408000F3B1214A1A60214E3468214B6360214B01
:10409000A360214BE3600025256165611F4BA3618F
:1040A000E36101F063FB2062336800225A629A6286
:1040B000DA621A635D639D63DD63012283F8402049
:1040C000174B1B68FBB1174A1A60154E3468164B24
:1040D0006360164BA360104BE360002525616561AA
:1040E000134BA361134BE36101F040FB2062336883
:1040F00000225A629A62DA621A635D639D63DD632D
:10410000012283F8402070BD1F850B40B0060020BF
:104110006F12833AAE47613EBC74933C0000E143AA
:10412000AC0600200000C0400AD7233CD7A3F03ED5
:10413000000082420000964398B138B5044600253D
:104140000561456101F012FB206200236362A362F6
:10415000E36223636563A563E563012384F840306C
:1041600038BD704710B52DED028B044690F84030F5
:10417000002B40F0928008EE901A08EE102A01F011
:10418000F5FA236AC31A07EE903AF8EE677A9FEDC4
:10419000597A87EE875A206284ED035A78EEC87AFE
:1041A00094ED007A27EE277A94ED046A65EE276A8B
:1041B00036EE266A84ED046AD4ED016AF5EE406AB3
:1041C000F1EE10FA1CD0D4ED065AC5EEA64AB4EEB4
:1041D000E46AF1EE10FA69DDC4ED044AF4EEC75A60
:1041E000F1EE10FA6CD5F5EEC07AF1EE10FA67DD5B
:1041F00094ED046ADFED405A26EE256A84ED046AE8
:1042000094ED046A26EE866AB5EEC05AF1EE10FA15
:1042100063DDD4ED055A77EEE55AC5EE856ADFED2C
:10422000375A66EEA56AD4ED0E5ADFED354A65EED3
:10423000A45A76EEA56AC4ED0E6AD4ED025A65EE74
:10424000A66A37EE067A37EE267AD4ED066AF4EEE1
:10425000C76AF1EE10FA08D4F1EE666AF4EEC76AA6
:10426000F1EE10FA01DCF0EE476A94ED077A94ED76
:104270000D6A76EEC65A25EE077AB4EEE57AF1EECF
:1042800010FA2DD576EE076AC4ED0D6AC4ED057AF5
:1042900016EE900ABDEC028B10BD002380F8403072
:1042A00001F064FA2062DFED176AF1E7F1EE644A8B
:1042B000B4EEE46AF1EE10FA90D5C4ED044A8DE74D
:1042C000F1EE655AF4EEC75AF1EE10FA98DDF5EE0C
:1042D000C07AF1EE10FA93D58AE7DFED0A6A9EE71D
:1042E000B1EE475AF4EEC55AF1EE10FACCD576EE9F
:1042F000476AC9E700007A446666663FCDCC4C3F0A
:10430000CDCC4C3E0000000010B52DED028B0446D4
:1043100090F84030002B40F0928008EE901A08EEA2
:10432000102A01F023FA236AC31A07EE903AF8EE36
:10433000677A9FED597A87EE875A206284ED035A97
:1043400078EEC87A94ED007A27EE277A94ED046A25
:1043500065EE276A36EE266A84ED046AD4ED016ABA
:10436000F5EE406AF1EE10FA1CD0D4ED065AC5EE17
:10437000A64AB4EEE46AF1EE10FA69DDC4ED044A2F
:10438000F4EEC75AF1EE10FA6CD5F5EEC07AF1EE04
:1043900010FA67DD94ED046ADFED405A26EE256AD7
:1043A00084ED046A94ED046A26EE866AB5EEC05A7E
:1043B000F1EE10FA63DDD4ED055A77EEE55AC5EE5D
:1043C000856ADFED375A66EEA56AD4ED0E5ADFED49
:1043D000354A65EEA45A76EEA56AC4ED0E6AD4EDB0
:1043E000025A65EEA66A37EE067A37EE267AD4EDE3
:1043F000066AF4EEC76AF1EE10FA08D4F1EE666AC6
:10440000F4EEC76AF1EE10FA01DCF0EE476A94EDC3
:10441000077A94ED0D6A76EEC65A25EE077AB4EE69
:10442000E57AF1EE10FA2DD576EE076AC4ED0D6A45
:10443000C4ED057A16EE900ABDEC028B10BD002388
:1044400080F8403001F092F92062DFED176AF1E761
:10445000F1EE644AB4EEE46AF1EE10FA90D5C4EDE0
:10446000044A8DE7F1EE655AF4EEC75AF1EE10FA00
:1044700098DDF5EEC07AF1EE10FA93D58AE7DFED1C
:104480000A6A9EE7B1EE475AF4EEC55AF1EE10FA09
:10449000CCD576EE476AC9E700007A446666663F87
:1044A000CDCC4C3FCDCC4C3E0000000008B50C48B4
:1044B0000C4B03600923436000238360C3604FF407
:1044C000003202614361037643768376C3760377D5
:1044D000437701F051F900B908BD00F0BFFBFBE7DD
:1044E0001C0700200064004008B50C480C4B03601A
:1044F0000923436000238360C3604FF400320261EC
:104500004361037643768376C3760377437701F07E
:1045100033F900B908BD00F0A1FBFBE7F406002069
:104520000068004010B58AB00023059306930793F6
:104530000893099303683E4A934204D03D4A93424C
:1045400034D00AB010BD3C4A136801331360012B0C
:104550001FD000240194394B1A6B42F008021A63F1
:104560001B6B03F008030193019B032305930222B5
:10457000069208930923099305A9314801F05EFFCB
:1045800022460521142001F03DFD142001F04AFDD2
:10459000D7E700230093294B1A6C42F000721A648B
:1045A0001B6C03F000730093009BD2E7002302937F
:1045B000224B1A6C42F080621A641B6C03F0806319
:1045C0000293029B1C4A136801331360012B21D014
:1045D00000240494194B1A6B42F002021A631B6BFD
:1045E00003F002030493049B4FF44053059302230A
:1045F0000693032308930923099305A9114801F0A1
:104600001DFF22460521402001F0FCFC402001F066
:1046100009FD96E700230393084B1A6C42F00072E1
:104620001A641B6C03F000730393039BD0E700BF75
:104630000064004000680040F0060020003802409E
:10464000000C02400004024030B595B000240F94E5
:104650001094012511950A940B940C940D940E94CA
:1046600012950AA9094801F02DF90E230593069425
:104670000795009401940294039404940895694664
:10468000034801F01FF915B030BD00BF1C07002022
:10469000F406002010B582B0002400941A4B1A6B67
:1046A00042F480021A631A6B02F480020092009AAC
:1046B00001941A6B42F400121A631B6B03F400138B
:1046C0000193019B224605210C2001F09BFC0C204C
:1046D00001F0A8FC224606210E2001F093FC0E20DA
:1046E00001F0A0FC22460521112001F08BFC1120D5
:1046F00001F098FC22460721392001F083FC392083
:1047000001F090FC02B010BD0038024008B509E08D
:1047100020480369826841680068FCF7E5FF0A20C9
:1047200003F020FB1B4B9B7D002BF8D0194BDB7D4E
:10473000002BF4D1174B5B7D042BF0D801A252F86B
:1047400023F000BF114700085947000865470008DB
:1047500075470008834700080E4B1969187DFDF75F
:1047600097FBDCE70B480369826841680068FDF746
:104770001BFED4E7074B1A69597B187BFDF7C6FE71
:10478000CDE704480369826841680068FEF7F6F8DF
:10479000C5E700BF5407002008B5FFF75FF8FCF736
:1047A000C8FA00F0FDFD3C2003F0DCFA00F0F8FD53
:1047B00000F000FB00F002FB4FF47A7003F0D2FA35
:1047C000FAE7000008B50E4A0121084603F0D8FABE
:1047D0000C4B18600C4A0121084603F0D1FA0B4B30
:1047E00018600B4A00210B4803F062FA0A4B18606C
:1047F0000A4A00210A4803F05BFA0A4B186008BD18
:1048000050E300084807002040E300084407002068
:1048100084E300080D4700085007002060E300080B
:10482000994700084C0700202DE9F0438DB007ADF3
:1048300000240794089409940A940B940094424B22
:104840001A6B42F010021A631A6B02F01002009207
:10485000009A01941A6B42F040021A631A6B02F03C
:1048600040020192019A02941A6B42F001021A630B
:104870001A6B02F001020292029A03941A6B42F040
:1048800008021A631A6B02F008020392039A049456
:104890001A6B42F020021A631A6B02F02002049293
:1048A000049A05941A6B42F080021A631A6B02F0A4
:1048B00080020592059A06941A6B42F002021A636E
:1048C0001B6B03F002030693069B204F2246012137
:1048D000384601F0B7FEDFF8789022464FF4E04109
:1048E000484601F0AFFEDFF86C8001224FF4006112
:1048F000404601F0A7FE01224FF48041384601F006
:10490000A1FE44F2010307930126089609940A9434
:104910002946384601F092FD4FF4E043079308968C
:1049200009940A942946484601F088FD4FF4006333
:104930000793089609940A942946404601F07EFDA3
:104940000DB0BDE8F08300BF003802400014024003
:10495000000C02400010024010B58AB0044601ABC2
:1049600003AA002101F0EDF830B923680B4A934205
:1049700004D00B4A934209D00AB010BD059B042B0A
:10498000FAD101A90498FEF7EFFDF5E7059B042B8A
:10499000F2D101A90498FEF7E7FDEDE700640040BD
:1049A0000068004030B585B0844B98420DD0844BF0
:1049B000984200F0DE80834B984200F0DE80824B0C
:1049C000984200F0ED8005B030BD00F0CFFE7F4B87
:1049D00018607F4D7F4CAC46BCE80F000FC4BCE8AC
:1049E0000F000FC49CE8070084E807002C22002178
:1049F000284607F03DFE002390E0591C7548415CB5
:104A0000532940F09280D91D415C090209B29C1DD6
:104A1000005D014307EE901AF8EEE77A9FED6E7A9B
:104A200067EEC77A9FED6D7A67EE877A6C49C1EDC4
:104A3000007A6C49D1ED007AF4EEC77AF1EE10FA03
:104A400045D59FED697AF4EEC77AF1EE10FA3EDDB6
:104A50006349D1ED006A9FED657AF4EEC76AF1EE25
:104A600010FA34D5D1ED006A9FED617AF4EEC76A91
:104A7000F1EE10FA2BDD5F48016801310160584901
:104A800091ED007ADFED557AB4EE677AF1EE10FA27
:104A90004BD091ED007ADFED567AB4EE677AF1EE05
:104AA00010FA42D05349D1ED007AF8EEE77A9FED43
:104AB000527A67EE877A4A4991ED007A77EE877AE3
:104AC0004E48C0ED007A0868464908602DE09FED29
:104AD000477AF4EEC77AF1EE10FAD0D59FED447A1A
:104AE000F4EEC77AF1EE10FAC9DD3D4991ED007A96
:104AF000DFED3D7AB4EEE77AF1EE10FABFDD91ED2D
:104B0000007ADFED367AB4EEE77AF1EE10FAB6D538
:104B10003848016801390160B1E70133242B22DCF8
:104B20002C4AD25C552A3FF468AF552AF5D15A1C5D
:104B300028498A5C522AF0D1DA1D8A5C120212B22C
:104B4000981D095C0A4307EE902AF8EEE77A9FED7C
:104B5000227A67EEC77A9FED2A7A67EE877A294A2A
:104B6000C2ED007AD9E72C221949144803F054F811
:104B700029E7254B01221A7025E7244C01AB94E864
:104B8000070003C31A7001A8FEF750FA0023236040
:104B900063602372092221460A4803F03DF812E7B8
:104BA0001B4C08212046FEF76BF80023236063604E
:104BB00008222146044803F02FF804E7540A002095
:104BC0002C0B0020E40A00209C0A0020780700201B
:104BD000C80700209C070020000000380000344374
:104BE00084070020740700200000B4420000B4C213
:104BF000000034C3700700200000B4438007002089
:104C00000000FA447C070020F407002088070020F9
:104C10009407002008B503680D4A934203D00D4A5B
:104C2000934203D008BD00F095FDFBE70A4B1B78CB
:104C30003BB1012BF6D1FEF7C1F8074B00221A70E9
:104C4000F0E7FEF79DF8044B01221A70EAE700BF77
:104C500000140040000C00406C07002072B6FEE714
:104C600010B594B008AC30220021204607F000FDBA
:104C70000023039304930593069307930193234A18
:104C8000116C41F080511164126C02F0805201925B
:104C9000019A02931E4B1A6842F440421A601B6844
:104CA00003F440430293029B012308934FF48033A3
:104CB000099302230E934FF480020F920622109262
:104CC000B4221192129304231393204601F0FEFCA8
:104CD000A8B901F0BDFCA0B90F23039302230493EC
:104CE000002305934FF4A05306934FF4805307938A
:104CF000052103A801F03AFF28B914B010BDFFF751
:104D0000ADFFFFF7ABFFFFF7A9FF00BF0038024080
:104D10000070004008B500F003FDFFF7A1FFFFF7AA
:104D200083FDFFF7B7FC00F063FB00F07BFB00F0B6
:104D3000ADFBFFF7BBFB00F0DBFA00F03DFAFFF73D
:104D4000D3FB00F089FB154D08222946144802F0D8
:104D500063FF144C09222146134802F05DFF002333
:104D60002B606B60236063602372FFF76DFC0F4C58
:104D7000204600F043FE0221204600F097FF0C4C35
:104D8000204600F03BFE0221204600F08FFF02F09B
:104D900061FFFFF717FD02F06FFFFEE794070020A9
:104DA0009C0A002088070020E40A00201C0700203D
:104DB000F406002008B5FEF77BFD08BD70B588B08D
:104DC0006A4B93E8070008AB03E90700684807F05F
:104DD00071FBFFF7EFFF0520FDF70AFF6548FEF7BF
:104DE000A9F802E00520FDF703FF634B93F8643058
:104DF000002BF7D00520FDF71DFF5F4C94F86730BE
:104E000094F868200192009394F8663094F8652035
:104E100094F86410594807F0E5FAFEF7CBF8022041
:104E2000FCF75AF84FF0FF310320FBF7F9FF07209A
:104E3000FDF7DEFE1520FCF733F840F6C411012023
:104E4000FBF7ACFF4E4E4FF0FF31306802F0F1FF40
:104E50000720FDF7EFFE94F86900FCF73DF894F8A1
:104E600069100120FCF7D8F8464D2846FDF706FEEC
:104E70004FF0FF310420FBF7D3FF0720FDF7B8FE0A
:104E80004FF47A710220FBF789FF1620FCF708F82F
:104E90004FF0FF31306802F0CCFF0720FDF7CAFE6B
:104EA00094F86A00FCF718F894F86A100220FCF7EE
:104EB000B3F82846FDF7E2FD4FF0FF310720FBF77E
:104EC000AFFF4FF4487002F04DFF2F48FEF732F865
:104ED0000720FDF78DFE1820FBF7E2FF4FF4FA6183
:104EE0000320FBF75BFF4FF0FF31306802F0A1FFBA
:104EF0000720FDF79FFE94F86B00FBF7EDFF94F899
:104F00006B100320FCF788F82846FDF7B7FD04A9CD
:104F10000023ADF810308B7003AAADF80C309370FD
:104F200005A8FCF7D3F89DF812309DF811209DF8E4
:104F30001010164807F056FA9DF81030012B0FD0CC
:104F40004FF0FF310920FBF76BFF1420FBF7A8FFA0
:104F500003A904A8FBF7CEFF00F022FA08B070BD49
:104F60004FF0FF311920FBF75BFFEEE768E2000826
:104F7000DCE20008668686C39C030020ECE20008A1
:104F8000480700200080A343CC0C5BC310E300085B
:104F900000B583B0002200920D4B596C41F4804162
:104FA0005964596C01F48041009100990192196C87
:104FB00041F0805119641B6C03F080530193019BF5
:104FC0000F216FF0010001F01DF803B05DF804FB44
:104FD0000038024030B589B0044600230193214BCC
:104FE0001A6C42F020021A641B6C03F02003019338
:104FF000019B02A903A801F08FFE069BCBB901F02B
:105000006BFE0346184AA2FB03239B0C013B174887
:10501000174A026040F2E732C26043600023036136
:105020008360836102F0D8F8054630B1284609B0A4
:1050300030BD01F051FE4300E4E70C4801F052FF9F
:1050400005460028F2D1372000F0ECFF0F2C01D9E3
:105050000125EBE700222146372000F0D3FF054B66
:105060001C60E3E70038024083DE1B43F8070020A2
:105070000014004080010020FEE7FEE7FEE7FEE7A7
:10508000FEE7704708B5024801F0EAF808BD00BF26
:105090003409002008B5024801F0E2F808BD00BF5D
:1050A000F409002008B5024801F0DAF808BD00BF95
:1050B0009409002008B5024800F016FE08BD00BFA4
:1050C0001C07002008B5024801F06BFF08BD00BFB7
:1050D0008C08002008B5024801F063FF08BD00BF3E
:1050E000F807002008B5024801F0BAF808BD00BF73
:1050F000D408002008B5024800F0F6FD08BD00BF46
:10510000F40600200120704708B507F013FB1623B2
:1051100003604FF0FF3008BD08B54FF0FF31FFF7D7
:10512000F3FFFEE770B50C461646002506E0AFF328
:105130000080214601F8010B01350C46B542F6DB33
:10514000304670BD4FF0FF3070474FF400534B6056
:1051500000207047012070470020704710B50346BB
:105160000C4A0D490D48006840B10C4800680344E2
:10517000521A934206D8094A136010BD0748084CDA
:105180000460F2E707F0D6FA0C2303604FF0FF301B
:10519000F3E700BF000003200004000040080020E7
:1051A00018560020034AD2F8883043F47003C2F83E
:1051B0008830704700ED00E000B587B0002302930F
:1051C000039304930593009301931548154A0260D5
:1051D00059224260836040F6C312C260036183615A
:1051E00001F0FAFF90B94FF48053029302A90C48E2
:1051F00002F0FDF868B9002300930193694608485E
:1052000002F048FA40B907B05DF804FBFFF726FD4D
:10521000E9E7FFF723FDEEE7FFF720FDF3E700BF27
:105220008C080020000C004002680E4B9A4200D00F
:10523000704700B583B00022019203F50B33196C5F
:1052400041F0080119641B6C03F008030193019BF2
:105250000621322000F0D6FE322000F0E3FE03B03B
:105260005DF804FB000C00400268094B9A4200D034
:10527000704782B000230193064B1A6C42F0400243
:105280001A641B6C03F040030193019B02B070474A
:10529000001800400038024000B587B00023019399
:1052A000029303930493059302680E4B9A4202D033
:1052B00007B05DF804FB002300930B4B1A6B42F020
:1052C00080021A631B6B03F080030093009B402352
:1052D0000193022302930923059301A9034801F0D6
:1052E000ADF8E5E70018004000380240001C02401D
:1052F00000B589B0002301930293039304930593AF
:10530000069307931148124A02604360836048F293
:105310003422C2600361836101F08AFF80B9602397
:105320000193002202920392059201A9074801F01D
:10533000E3FF40B90548FFF7AFFF09B05DF804FB94
:10534000FFF78CFCEBE7FFF789FCF3E7440800204C
:1053500000180040642800D96420054BDA6802FB7D
:105360000000044AA2FB002040091B6858637047F4
:10537000440800201F85EB5108B53220FFF7EAFFF3
:105380000021024802F0C2F808BD00BF4408002016
:1053900008B50021014802F037F908BD4408002093
:1053A00008B5FFF7E9FF282002F0DCFCFFF7F0FF6B
:1053B00008BD000000B583B001904FF6FF730122D5
:1053C00001A9034802F0E7FA019803B05DF804FB75
:1053D0002C0B002070B50C461646002504E014F88E
:1053E000010BFFF7E7FF0135B542F8DB304670BD32
:1053F00008B50A480A4B03604FF4E13343600023C9
:105400008360C36003610C2242618361C36102F067
:1054100092FA00B908BDFFF721FCFBE72C0B002036
:105420000078004008B50A480A4B03604FF4E133A6
:10543000436000238360C36003610C224261836187
:10544000C36102F078FA00B908BDFFF707FCFBE77B
:10545000E40A0020007C004008B50A480A4B0360BB
:105460004FF4E133436000238360C36003610C2287
:1054700042618361C36102F05EFA00B908BDFFF7C3
:10548000EDFBFBE79C0A00200048004008B50A48F5
:105490000A4B03604FF4E133436000238360C36031
:1054A00003610C2242618361C36102F044FA00B9D6
:1054B00008BDFFF7D3FBFBE7540A002000140140AE
:1054C00030B58FB00446002309930A930B930C93D5
:1054D0000D930368824A93420BD0824A934245D08F
:1054E000814A93427DD0814A934200F0B9800FB047
:1054F00030BD002501957E4B1A6C42F080421A6443
:105500001A6C02F080420192019A02951A6B42F0E5
:1055100010021A631B6B03F010030293029B4FF4FB
:10552000C073099302230A9303230C9308230D935A
:1055300009A9704800F082FF6F48704B03604FF07C
:10554000206343608560C5604FF4806303614561FB
:105550008561C5610562456200F0E8FD18B9664BDA
:10556000E3639C63C3E7FFF779FBF8E70025039546
:105570005F4B1A6C42F000421A641A6C02F000424F
:105580000392039A04951A6B42F010021A631B6B84
:1055900003F010030493049B0323099302220A924D
:1055A0000C9308230D9309A9524800F047FF544873
:1055B000544B03604FF0206343608560C5604FF437
:1055C0008063036145618561C5610562456200F0E4
:1055D000ADFD18B94A4BE3639C6388E7FFF73EFBD8
:1055E000F8E700250595424B1A6C42F480221A64B4
:1055F0001A6C02F480220592059A06951A6B42F005
:1056000008021A631B6B03F008030693069B4FF412
:105610004073099302230A9303230C9307230D93EA
:1056200009A9394800F00AFF3848394B03604FF0A8
:10563000006343608560C5604FF48063036145612A
:105640008561C5614FF400330362456200F06EFD71
:1056500018B92E4BE3639C6349E7FFF7FFFAF8E7BD
:1056600000250795224B5A6C42F020025A645A6C6E
:1056700002F020020792079A08951A6B42F0400246
:105680001A631B6B03F040030893089B4FF4844399
:10569000099302230A9303230C9308230D9309A96A
:1056A0001C4800F0CBFE1C481C4B03604FF02063ED
:1056B00043608560C5604FF4806303614561856127
:1056C000C5614FF480330362456200F02FFD18B9C5
:1056D000114BE3639C630AE7FFF7C0FAF8E700BFEA
:1056E00000780040007C0040004800400014014069
:1056F0000038024000100240F409002058600240C7
:1057000094090020A0600240000C024034090020EF
:105710002860024000180240D4080020286402409B
:1057200008B50B4B1A6842F400721A601A6842F40A
:1057300080621A601A6842F480721A60032000F0D6
:105740004FFC0F20FFF746FCFFF722FC002008BDAE
:10575000003C0240034A1168034B1B780B44136062
:10576000704700BF740B00207C010020014B1868BB
:10577000704700BF740B0020002800F0A18038B5EE
:10578000044690F82030D3B12268136843F0010337
:105790001360FFF7EBFF054623685A6812F0010F0C
:1057A00010D1FFF7E3FF401B0A28F5D9636A43F4E1
:1057B00000336362052384F82030012038BDFEF7F2
:1057C000B1FEE1E71A6822F002021A60FFF7CEFF8D
:1057D000054623685A6812F0020F0DD0FFF7C6FF86
:1057E000401B0A28F5D9636A43F40033636205233A
:1057F00084F820300120E1E7227E012A3DD01A689A
:1058000022F080021A60637E012B3BD0226813686D
:1058100023F040031360A37E012B39D02268136864
:1058200023F020031360E37E012B37D02268136836
:1058300043F010031360237F012B35D022681368D7
:1058400023F008031360637F012B33D022681368B1
:1058500023F004031360A368E2681343226913432F
:10586000626913436268013A21681343CB610020E7
:105870006062012384F82030A0E71A6842F08002B9
:105880001A60C0E72268136843F040031360C2E760
:105890002268136843F020031360C4E7226813688A
:1058A00023F010031360C6E72268136843F008036F
:1058B0001360C8E72268136843F004031360CAE763
:1058C0000120704790F82030013BDBB2012B05D955
:1058D000436A43F4802343620120704730B5464B4E
:1058E000D3F8002242F00102C3F80022D3F80022CC
:1058F00022F47C52C3F80022D3F80022486A42EA1C
:105900000022C3F800224A6902F01F02012000FAB7
:1059100002F2D3F81C026FEA020C20EA0200C3F87C
:105920001C02CB69C3B9344BD3F80C020CEA00005B
:10593000C3F80C028C884869CD6844EA05444830B5
:1059400043F830408C68088840EA04404C6904F110
:10595000480E03EBCE035860CB69012B1ED08B6938
:10596000002B33D12448D0F804320CEA0303C0F8EA
:1059700004320B698BBB2048D0F814320CEA0303C5
:10598000C0F814320B6A012B2ED01B4AD2F8003219
:1059900023F00103C2F80032002030BD164BD3F8CB
:1059A0000C021043C3F80C028C8848690D6844EA65
:1059B0000544483043F8304088894C698D6840EA96
:1059C0000540483403EBC4035860C8E70A48D0F8E0
:1059D00004321343C0F80432CBE70748D0F814323E
:1059E0001343C0F81432CDE70349D1F81C321343F6
:1059F000C1F81C32C9E700BF0064004070B504461E
:105A000090F82030012B06D0436A43F40023436210
:105A10000126304670BDDEB2022380F820300268D5
:105A2000136823F001031360FFF7A0FE0546236807
:105A30005B6813F0010F0CD0FFF798FE431B0A2B95
:105A4000F5D9636A43F400336362052384F8203098
:105A5000DFE700266662DCE730B590F820C0046816
:105A6000A4680CF1FF3C5FFA8CFCBCF1010F62D81A
:105A700014F0E05F59D0C4F3016C012404FA0CF473
:105A80001C608B68002B3DD10D68CB68046843EA2D
:105A900045550CF118031B01E55003680C690CF126
:105AA000180E03EB0E135C600B7D012B35D0D17902
:105AB00093791B0443EA0163517943EA0123147982
:105AC0000168234301EB0C11C1F88C31D178937834
:105AD0001B0443EA0163517843EA01231178026809
