:020000040800F2
:1000000000000320BD4A0008ED160008EF160008A6
:10001000F1160008F3160008F516000800000000AD
:10002000000000000000000000000000F7160008BB
:10003000F916000800000000FB160008FD16000875
:100040000D4B00080D4B00080D4B00080D4B000830
:100050000D4B00080D4B00080D4B00080D4B000820
:100060000D4B00080D4B00080D4B00080D4B000810
:100070000D4B00080D4B00080D4B00080D4B000800
:100080000D4B00080D4B00080D4B00080D4B0008F0
:10009000011700080D4B00080D4B00080D4B000820
:1000A0000D4B00080D4B00080D4B00080D4B0008D0
:1000B0000D4B00080D4B00080D4B00080D4B0008C0
:1000C0000D4B00080D4B00080D4B00080D4B0008B0
:1000D0000D4B00080D4B00081117000821170008F0
:1000E0000D4B00080D4B00080D4B00080D4B000890
:1000F0000D4B00080D4B00080D4B00080D4B000880
:100100000D4B00080D4B00080D4B00080D4B00086F
:100110000D4B00080D4B00080D4B0008311700086F
:100120000D4B0008411700080D4B00080D4B00084F
:100130000D4B00080D4B00080D4B00080D4B00083F
:100140000D4B00080D4B00080D4B00080D4B00082F
:100150000D4B00080D4B00080D4B00080D4B00081F
:100160000D4B00080D4B00080D4B00080D4B00080F
:100170000D4B00080D4B00080D4B0008000000005F
:100180000D4B00080D4B00080D4B00080D4B0008EF
:100190000D4B00080D4B00080D4B00080D4B0008DF
:0C01A00000000000000000000D4B0008F3
:1001B00001F0FF01102A2BDB10F0070F08D010F818
:1001C000013B013A8B422DD010F0070F42B3F6D11C
:1001D000F0B441EA012141EA014122F007047FF035
:1001E00000070023F0E80256083C85EA010586EA8C
:1001F000010685FA47F5A3FA87F586FA47F6A5FAC8
:1002000087F68EB9EED1F0BC01F0FF0102F00702D3
:1002100032B110F8013B013A83EA010313B1F8D17E
:100220000020704701387047002D06BF354603385F
:10023000073815F0010F07D1013015F4807F02BF98
:10024000013015F4C03F0130F0BC0138704700BFE9
:1002500081F0004102E000BF83F0004330B54FEA77
:1002600041044FEA430594EA050F08BF90EA020FE4
:100270001FBF54EA000C55EA020C7FEA645C7FEA77
:10028000655C00F0E2804FEA5454D4EB5555B8BF9A
:100290006D420CDD2C4480EA020281EA030382EA0B
:1002A000000083EA010180EA020281EA0303362D9D
:1002B00088BF30BD11F0004F4FEA01314FF4801C70
:1002C0004CEA113102D0404261EB410113F0004F82
:1002D0004FEA03334CEA133302D0524263EB430339
:1002E00094EA050F00F0A780A4F10104D5F1200ED7
:1002F0000DDB02FA0EFC22FA05F2801841F1000132
:1003000003FA0EF2801843FA05F359410EE0A5F105
:1003100020050EF1200E012A03FA0EFC28BF4CF036
:10032000020C43FA05F3C01851EBE37101F00045EC
:1003300007D54FF0000EDCF1000C7EEB00006EEBF9
:100340000101B1F5801F1BD3B1F5001F0CD3490883
:100350005FEA30004FEA3C0C04F101044FEA4452DA
:1003600012F5800F80F09A80BCF1004F08BF5FEA61
:10037000500C50F1000041EB045141EA050130BD41
:100380005FEA4C0C404141EB0101013C28BFB1F553
:10039000801FE9D291F0000F04BF01460020B1FA9E
:1003A00081F308BF2033A3F10B03B3F120020CDA71
:1003B0000C3208DD02F1140CC2F10C0201FA0CF04F
:1003C00021FA02F10CE002F11402D8BFC2F1200CB4
:1003D00001FA02F120FA0CFCDCBF41EA0C0190406A
:1003E000E41AA2BF01EB0451294330BD6FEA0404B3
:1003F0001F3C1CDA0C340EDC04F11404C4F120029E
:1004000020FA04F001FA02F340EA030021FA04F3AF
:1004100045EA030130BDC4F10C04C4F1200220FA06
:1004200002F001FA04F340EA0300294630BD21FA44
:1004300004F0294630BD94F0000F83F4801306BF0A
:1004400081F480110134013D4EE77FEA645C18BFFE
:100450007FEA655C29D094EA050F08BF90EA020F95
:1004600005D054EA000C04BF1946104630BD91EA8D
:10047000030F1EBF0021002030BD5FEA545C05D190
:100480004000494128BF41F0004130BD14F58004CF
:100490003CBF01F5801130BD01F0004545F0FE4143
:1004A00041F470014FF0000030BD7FEA645C1ABF78
:1004B000194610467FEA655C1CBF0B46024650EAAF
:1004C000013406BF52EA033591EA030F41F40021DB
:1004D00030BD00BF90F0000F04BF0021704730B561
:1004E0004FF4806404F132044FF000054FF0000136
:1004F00050E700BF90F0000F04BF0021704730B5F7
:100500004FF4806404F1320410F0004548BF4042CB
:100510004FF000013EE700BF42004FEAE2014FEA20
:1005200031014FEA02701FBF12F07F4393F07F4FFB
:1005300081F06051704732F07F4208BF704793F0FE
:100540007F4F04BF41F40021704730B54FF4607411
:1005500001F0004521F000411CE700BF50EA010214
:1005600008BF704730B54FF000050AE050EA0102BD
:1005700008BF704730B511F0004502D5404261EB2D
:1005800041014FF4806404F132045FEA915C3FF46E
:10059000D8AE4FF003025FEADC0C18BF03325FEA0B
:1005A000DC0C18BF033202EBDC02C2F1200300FABC
:1005B00003FC20FA02F001FA03FE40EA0E0021FAE1
:1005C00002F11444BDE600BF70B54FF0FF0C4CF4CF
:1005D000E06C1CEA11541DBF1CEA135594EA0C0F81
:1005E00095EA0C0F00F0DEF82C4481EA030621EABC
:1005F0004C5123EA4C5350EA013518BF52EA0335F7
:1006000041F4801143F4801338D0A0FB02CE4FF0A8
:100610000005E1FB02E506F00042E0FB03E54FF0D8
:100620000006E1FB03569CF0000F18BF4EF0010ED0
:10063000A4F1FF04B6F5007F64F5407404D25FEACC
:100640004E0E6D4146EB060642EAC62141EA55517F
:100650004FEAC52040EA5E504FEACE2EB4F1FD0CC1
:1006600088BFBCF5E06F1ED8BEF1004F08BF5FEA3F
:10067000500E50F1000041EB045170BD06F00046F1
:1006800046EA010140EA020081EA0301B4EB5C049E
:10069000C2BFD4EB0C0541EA045170BD41F4801196
:1006A0004FF0000E013C00F3AB8014F1360FDEBFBB
:1006B000002001F0004170BDC4F10004203C35DA97
:1006C0000C341BDC04F11404C4F1200500FA05F31A
:1006D00020FA04F001FA05F240EA020001F00042BB
:1006E00021F0004110EBD37021FA04F642EB060131
:1006F0005EEA430E08BF20EAD37070BDC4F10C045B
:10070000C4F1200500FA04F320FA05F001FA04F21E
:1007100040EA020001F0004110EBD37041F100010A
:100720005EEA430E08BF20EAD37070BDC4F1200515
:1007300000FA05F24EEA020E20FA04F301FA05F27D
:1007400043EA020321FA04F001F0004121FA04F225
:1007500020EA020000EBD3705EEA430E08BF20EAF5
:10076000D37070BD94F0000F0FD101F0004640002F
:1007700041EB010111F4801F08BF013CF7D041EAB1
:10078000060195F0000F18BF704703F000465200B5
:1007900043EB030313F4801F08BF013DF7D043EA86
:1007A0000603704794EA0C0F0CEA135518BF95EA3C
:1007B0000C0F0CD050EA410618BF52EA4306D1D1C3
:1007C00081EA030101F000414FF0000070BD50EAE2
:1007D000410606BF1046194652EA430619D094EA6C
:1007E0000C0F02D150EA013613D195EA0C0F05D156
:1007F00052EA03361CBF104619460AD181EA0301AA
:1008000001F0004141F0FE4141F470014FF0000061
:1008100070BD41F0FE4141F4780170BD70B54FF0FC
:10082000FF0C4CF4E06C1CEA11541DBF1CEA13557C
:1008300094EA0C0F95EA0C0F00F0A7F8A4EB05045E
:1008400081EA030E52EA03354FEA013100F0888055
:100850004FEA03334FF0805545EA131343EA12631E
:100860004FEA022245EA111545EA10654FEA0026D3
:100870000EF000419D4208BF964244F1FD0404F58C
:10088000407402D25B084FEA3202B61A65EB0305E8
:100890005B084FEA32024FF480104FF4002CB6EBA5
:1008A000020E75EB030E22BFB61A754640EA0C0025
:1008B0005B084FEA3202B6EB020E75EB030E22BF65
:1008C000B61A754640EA5C005B084FEA3202B6EBA6
:1008D000020E75EB030E22BFB61A754640EA9C0065
:1008E0005B084FEA3202B6EB020E75EB030E22BF35
:1008F000B61A754640EADC0055EA060E18D04FEAF3
:10090000051545EA16754FEA06164FEAC30343EA92
:1009100052734FEAC2025FEA1C1CC0D111F4801F5F
:100920000BD141EA00014FF000004FF0004CB6E758
:1009300011F4801F04BF01430020B4F1FD0C88BFF7
:10094000BCF5E06F3FF6AFAEB5EB030C04BFB6EB02
:10095000020C5FEA500C50F1000041EB045170BDF5
:100960000EF0004E4EEA113114EB5C04C2BFD4EB22
:100970000C0541EA045170BD41F480114FF0000EA6
:10098000013C90E645EA060E8DE60CEA135594EA22
:100990000C0F08BF95EA0C0F3FF43BAF94EA0C0F25
:1009A0000AD150EA01347FF434AF95EA0C0F7FF49A
:1009B00025AF104619462CE795EA0C0F06D152EAEE
:1009C00003353FF4FDAE1046194622E750EA4106D2
:1009D00018BF52EA43067FF4C5AE50EA41047FF4E3
:1009E0000DAF52EA43057FF4EBAE12E74FEA410246
:1009F000B2F1E04324BFB3F5001CDCF1FE5C0DD97D
:100A000001F0004C4FEAC0024CEA5070B2F1004FC6
:100A100040EB830008BF20F00100704711F0804FC9
:100A200021D113F13872BCBF01F00040704741F48E
:100A300080114FEA5252C2F11802C2F1200C10FA92
:100A40000CF320FA02F018BF40F001004FEAC12376
:100A50004FEAD32303FA0CFC40EA0C0023FA02F31A
:100A60004FEA4303CCE77FEA625307D150EA0133F0
:100A70001EBF4FF0FE4040F44000704701F00040C0
:100A800040F0FE4040F40000704700BF53B94AB93F
:100A9000002908BF00281CBF4FF0FF314FF0FF3086
:100AA00000F00CB8ADF1080C6DE904CE05F04CF87F
:100AB000DDF804E0DDE9022304B07047704700BFB1
:100AC0000348044B834202D0034B03B118477047DD
:100AD0007000002070000020000000000548064B58
:100AE0001B1AD90F01EBA301491002D0034B03B12C
:100AF00018477047700000207000002000000000C0
:100B000010B5064C237843B9FFF7DAFF044B13B155
:100B10000448AFF300800123237010BD7000002053
:100B200000000000045E000808B5054B1BB1054934
:100B30000548AFF30080BDE80840FFF7CFBF00BF16
:100B40000000000074000020045E000810B58AB0A8
:100B5000044601AB03AA002102F089F918B9226802
:100B6000064B9A4201D00AB010BD059B042BFAD166
:100B700001A9049801F000F9F5E700BF0064004006
:100B800038B57B4B984204D07A4B984200F0EC8009
:100B900038BD03F0E3FA784B1860784D784CAC46DA
:100BA000BCE80F000FC4BCE80F000FC4DCF8003035
:100BB000237021220021284604F06AFA002400E074
:100BC0000134202C12DC6E4B1B5D2E2BF8D1631CE4
:100BD0006B4AD35C2E2BF3D1A31CD35C2E2BEFD10D
:100BE00021220021664804F053FAE9E70023A6E039
:100BF000591C6348415C532940F0A880D91D415CD1
:100C0000090209B29C1D005D014307EE901AF8EE3F
:100C1000E77A9FED5C7A67EEC77A9FED5B7A67EEC5
:100C2000877A5A49C1ED007A5949D1ED007AF4EE3C
:100C3000C77AF1EE10FA45D59FED567AF4EEC77AF1
:100C4000F1EE10FA3EDD5149D1ED006A9FED527A86
:100C5000F4EEC76AF1EE10FA34D5D1ED006A9FEDDB
:100C60004F7AF4EEC76AF1EE10FA2BDD4C480168BA
:100C700001310160454991ED007ADFED437AB4EE30
:100C8000677AF1EE10FA61D091ED007ADFED437AE8
:100C9000B4EE677AF1EE10FA58D04149D1ED007AFE
:100CA000F8EEE77A9FED3F7A67EE877A374991ED64
:100CB000007A77EE877A3C48C0ED007A08683449BC
:100CC000086043E09FED347AF4EEC77AF1EE10FA53
:100CD000D0D59FED327AF4EEC77AF1EE10FAC9DD85
:100CE0002A4991ED007ADFED2B7AB4EEE77AF1EE46
:100CF00010FABFDD91ED007ADFED237AB4EEE77AEA
:100D0000F1EE10FAB6D52648016801390160B1E765
:100D1000DA1D8A5C120212B2981D095C0A4307EEC2
:100D2000902AF8EEE77A9FED177A67EEC77A9FED83
:100D30001F7A67EE877A1E4AC2ED007A0133192BBB
:100D40000CDC0F4AD25C552A3FF452AF552AF5D13C
:100D50005A1C0B498A5C522AF0D1D9E72122074953
:100D6000034803F08DFE13E7124B01221A700FE7C0
:100D700074010020DC02002094000020C800002044
:100D8000A40000200000003800003443A000002030
:100D9000900000200000B4420000B4C2000034C340
:100DA0008C0000200000B4439C0000200000FA44A6
:100DB00098000020E900002008B50268034B9A4221
:100DC00000D008BD03F0BEF9FBE700BF00140040EF
:100DD00072B6FEE700B595B03022002108A804F0F5
:100DE00057F9002303930493059306930793019304
:100DF000234A116C41F080511164126C02F0805250
:100E00000192019A02931F4B1A6842F440421A6001
:100E10001B6803F440430293029B012308934FF4A1
:100E20008033099302230E934FF480020F9206221F
:100E30001092B422119212930423139308A802F083
:100E400011FAB0B903F0BEF8A8B90F230393022337
:100E50000493002305934FF4A05306934FF480535B
:100E60000793052103A802F04DFC30B915B05DF8D9
:100E700004FBFFF7ADFFFFF7ABFFFFF7A9FF00BFD4
:100E8000003802400070004008B503F041F9FFF758
:100E9000A1FF00F05DF800F06BF900F0D5F900F06B
:100EA000EDF900F005FA00F09BF900F0B3F900F05D
:100EB00019FA00F0EBF821480268D36843F01003F8
:100EC000D36021221E4903F0DBFD00F03BF91D48F1
:100ED00001F02AFF08B1FFF77BFF0221194802F059
:100EE0007BF808B1FFF774FF00F050FB00F0EAFB5D
:100EF000642003F039F900F0F1FB642003F034F9C9
:100F000000F0E0FB642003F02FF900F0E7FB01F0B4
:100F100081F800F08BFCB2EE000A01F09DF801F0C0
:100F2000B9F80028FBD0084803F0D2FF4FF47A70DC
:100F300003F01AF9054803F017F9ECE774010020F3
:100F4000C8000020EC0000201C5E000800CA9A3B8C
:100F50002DE9F0418EB0002409940A940B940C946E
:100F60000D940194454B1A6B42F010021A631A6BF0
:100F700002F010020192019A02941A6B42F04002B0
:100F80001A631A6B02F040020292029A03941A6BDF
:100F900042F001021A631A6B02F001020392039AF3
:100FA00004941A6B42F002021A631A6B02F00202F6
:100FB0000492049A05941A6B42F008021A631A6BA1
:100FC00002F008020592059A06941A6B42F0040298
:100FD0001A631A6B02F004020692069A07941A6BBF
:100FE00042F020021A631A6B02F020020792079A5D
:100FF00008941A6B42F080021A631B6B03F08003A3
:101000000893089B1E4E22460121304602F072FDD5
:10101000DFF8748022464021404602F06BFD194FF4
:1010200001224FF40061384602F064FD01224FF4C2
:101030008041304602F05EFD44F201030993012530
:101040000A950B940C9409A9304602F04FFC4023FA
:1010500009930A950B940C9409A9404602F046FCAA
:101060004FF4006309930A950B940C9409A9384630
:1010700002F03CFC0EB0BDE8F08100BF0038024039
:101080000014024000100240001C024008B50C4849
:101090000C4B03600923436000238360C3604FF45B
:1010A000003202614361037643768376C376037729
:1010B000437701F0F7FC00B908BDFFF789FEFBE7B5
:1010C000EC0000200064004010B588B000230393BA
:1010D00004930593069307930268184B9A4201D034
:1010E00008B010BD0024019403F5EA331A6C42F0F5
:1010F00000721A641A6C02F000720192019A029452
:101100001A6B42F008021A631B6B03F00803029388
:10111000029B03230393022204920693092307935D
:1011200003A9074802F0E2FB22462146142002F000
:10113000DBFF142002F0E8FFD2E700BF00640040AC
:10114000000C024000B58BB00023059306930122EA
:1011500007920093019302930393049308926946C4
:10116000024801F045FD0BB05DF804FBEC000020E7
:1011700000B583B000210191094B1A6B42F4800243
:101180001A631B6B03F480030193019B0A46392009
:1011900002F0AAFF392002F0B7FF03B05DF804FBAC
:1011A0000038024000B583B001904FF6FF73012272
:1011B00001A9034803F055F9019803B05DF804FB59
:1011C000DC02002070B50C461646002504E014F839
:1011D000010BFFF7E7FF0135B542F8DB304670BD84
:1011E00008B50A480A4B03604FF4E133436000231B
:1011F0008360C36003610C2242618361C36103F0B9
:1012000000F900B908BDFFF7E3FDFBE7DC020020B1
:101210000078004008B50A480A4B03604FF4E133F8
:10122000436000238360C36003610C2242618361D9
:10123000C36103F0E6F800B908BDFFF7C9FDFBE79D
:1012400094020020007C004008B50A480A4B036065
:101250004FF4E133436000238360C36003610C22D9
:1012600042618361C36103F0CCF800B908BDFFF7A8
:10127000AFFDFBE74C0200200010014008B50A4812
:101280000A4B03604FF4E133436000238360C36083
:1012900003610C2242618361C36103F0B2F800B9BB
:1012A00008BDFFF795FDFBE7040200200044004065
:1012B00008B50A480A4B03604FF4E133436000234A
:1012C0008360C36003610C2242618361C36103F0E8
:1012D00098F800B908BDFFF77BFDFBE7BC010020D3
:1012E0000048004008B50A480A4B03604FF4E13358
:1012F000436000238360C36003610C224261836109
:10130000C36103F07EF800B908BDFFF761FDFBE79C
:10131000740100200014014030B593B000230D93F8
:101320000E930F931093119303688A4A934213D03C
:101330000446894A934233D0884A934252D0884A1D
:10134000934272D0874A934200F09A80864A934231
:1013500000F0C28013B030BD00210191834B1A6CA4
:1013600042F080421A641A6C02F080420192019AA3
:1013700002911A6B42F010021A631B6B03F0100308
:101380000293029B4FF4C0730D9302230E93032329
:101390001093082311930DA9754802F0A7FAD9E715
:1013A00000210391714B1A6C42F000421A641A6CCE
:1013B00002F000420392039A04911A6B42F0100269
:1013C0001A631B6B03F010030493049B03230D9318
:1013D00002220E921093082311930DA9644802F083
:1013E00085FAB7E700210591604B5A6C42F0100274
:1013F0005A645A6C02F010020592059A06911A6B13
:1014000042F002021A631B6B03F002030693069B71
:10141000C0230D9302230E930323109307231193EC
:101420000DA9544802F062FA94E7002407944F4B48
:101430001A6C42F400321A641A6C02F400320792F9
:10144000079A08941A6B42F008021A631B6B03F0A8
:1014500008030893089B60230D9302230E93032334
:101460001093072311930DA9434802F03FFA224637
:101470000621262002F038FE262002F045FE69E70C
:1014800000240994394B1A6C42F480221A641A6CB5
:1014900002F480220992099A0A941A6B42F004021B
:1014A0001A631B6B03F004030A930A9B4FF4406317
:1014B0000D9302230E9303231093072511950DA975
:1014C0002E4802F013FA22462946272002F00CFE8D
:1014D000272002F019FE3DE700250B95234B5A6C9F
:1014E00042F020025A645A6C02F020020B920B9ACE
:1014F0000C951A6B42F040021A631B6B03F0400319
:101500000C930C9B4FF484430D9302230E930323FF
:101510001093082311930DA9194802F0E7F919480F
:10152000194B03604FF0206343608560C5604FF442
:101530008063036145618561C5610562456202F0B2
:101540005BFB18B90F4BE3639C6303E7FFF740FCB9
:10155000F8E700BF00780040007C00400010014028
:1015600000440040004800400014014000380240A0
:101570000010024000040240000C0240000802403B
:1015800000180240140100202864024000B58FB00A
:1015900000230A930B930C930D93089309930193E3
:1015A0000293039304930593069307931F48204ADD
:1015B00002604360836048F23422C2600361836149
:1015C00000F0C6FF18BB4FF480530A930AA91748CE
:1015D00001F0C9F8F0B9154800F0E6FFE8B90023BA
:1015E0000893099308A9114801F014FAC0B96023BF
:1015F00001930E48C3685B08029300220392059290
:1016000001A901F035F870B90FB05DF804FBFFF7E0
:10161000DFFBD8E7FFF7DCFBDDE7FFF7D9FBDEE711
:10162000FFF7D6FBE3E7FFF7D3FBEDE7240300204A
:101630000018004000B589B000230393049305937C
:10164000069307930268144B9A4202D009B05DF8E2
:1016500004FB0021019103F508331A6C42F04002AB
:101660001A641A6C02F040020192019A02911A6BFC
:1016700042F080021A631B6B03F080030293029B0B
:10168000402303930223049306930923079303A99A
:10169000024802F02BF9D9E700180040001C024074
:1016A000642800D96420054BDA6802FB0000044A74
:1016B000A2FB002040091B685863704724030020E8
:1016C0001F85EB5108B53220FFF7EAFF00210248E1
:1016D00001F0D8F808BD00BF2403002008B50021A0
:1016E000014801F051F908BD24030020FEE7FEE7A0
:1016F000FEE7FEE7FEE7704770477047704700005F
:1017000008B5024801F086FC08BD00BFEC000020CF
:1017100008B5024802F0C4FF08BD00BF0402002063
:1017200008B5024802F0BCFF08BD00BFBC010020A4
:1017300008B5024800F0F1FD08BD00BF6C030020B1
:1017400008B5024802F050FB08BD00BF140100209C
:1017500082B0002100910B4B5A6C42F480425A64D3
:101760005A6C02F480420092009A01911A6C42F085
:1017700080521A641B6C03F080530193019B02B0EA
:10178000704700BF0038024030B589B004460023DE
:101790000193214B1A6C42F020021A641B6C03F077
:1017A00020030193019B02A903A802F081F8069B84
:1017B000CBB902F05DF80346184AA2FB03239B0C49
:1017C000013B1748174A026040F2E732C2604360AB
:1017D000002303618360836100F0BAFE054630B1E7
:1017E000284609B030BD02F043F84300E4E70C4856
:1017F00000F04AFD05460028F2D1372002F084FCB3
:101800000F2C01D90125EBE700222146372002F0F9
:101810006BFC054B1C60E3E70038024083DE1B4392
:101820006C030020001400400C00002008B500F0FC
:1018300005F800F01DF800F0F9FB08BD00B585B013
:1018400000230093019302930393FF238DF800304C
:10185000AA228DF801208DF8033064230522694601
:10186000024802F0FEFD05B05DF804FB74010020A3
:1018700008B56C2003F04CF9134B186010B300232B
:10188000036243628362C362036343638363C3632C
:1018900003600D4A126853609360D3601361536113
:1018A0009361D361136453649364D3641365536584
:1018B0009365D36513665366042382F8683000236A
:1018C00082F8693008BD00BFB403002082B08DEDFE
:1018D000010A019B0370C3F307214170C3F3074161
:1018E0008170C3F30763C37002B0704710B582B054
:1018F0000446124B08221A6104229A600022DA6020
:1019000082685A6005E000224FF400610C4802F042
:10191000F1F8224652F80C0B01AB084901F032FAFB
:101920000028F0D101224FF4006100F1804000F561
:10193000043002F0DFF802B010BD00BFBC0300208D
:101940000010024001600272064B1B78A0F80930BB
:10195000C37A23F0E003C372012380F854300023DC
:10196000837170470000002008B5C37A032262F338
:101970000403C3720B4B1B78A0F80930C37A23F021
:10198000E003C372002304E0C21800211173013385
:10199000DBB2072BF8D9FFF7A9FF0A2002F0E4FB1E
:1019A00008BD00BF0000002038B504460D46C37ACC
:1019B000122262F30403C3720D4B1B78A0F80930A6
:1019C000C37A23F0E003C372002303E0E21800208F
:1019D00010730133072BF9DD47F20503A38125744A
:1019E0002046FFF783FFA5710A2002F0BDFB38BD3A
:1019F0000000002008B5C37A042262F30403C37216
:101A00000B4B1B78A0F80930C37A23F0E003C372B4
:101A1000002304E0C218002111730133DBB2072B4D
:101A2000F8D9FFF763FF0A2002F09EFB08BD00BF54
:101A30000000002008B5C37A062262F30403C372D3
:101A40000B4B1B78A0F80930C37A23F0E003C37274
:101A50000123037304E0C218002111730133DBB2C8
:101A6000072BF8D9FFF742FF0A2002F07DFB08BDE3
:101A70000000002010B590F80BC0122464F3040C91
:101A800080F80BC0084C94F800C0A0F809C090F88A
:101A90000BC02CF0E00C80F80BC081811268026151
:101AA000FFF724FF10BD00BF0000002008B5C37A77
:101AB000112262F30403C3720B4B1B78A0F80930A8
:101AC000C37A23F0E003C3728181022304E0C218C9
:101AD000002111730133DBB2072BF8D9FFF706FFA2
:101AE000012002F041FB08BD0000002008B547F2CC
:101AF0001901FFF7DBFF012002F036FB08BD10B52E
:101B000082B0044601A8FFF7E1FE01AA47F21601E0
:101B10002046FFF7AFFF012002F026FB02B010BD08
:101B200010B582B0044601A8FFF7D0FE01AA47F223
:101B300017012046FFF79EFF0A2002F015FB02B0B6
:101B400010BD10B582B0044601A8FFF7BFFE01AA80
:101B500047F218012046FFF78DFF0A2002F004FB30
:101B600002B010BD10B504460B784A7843EA022350
:101B700047F21902934204D047F21B02934231D03C
:101B800010BDCA798B791B0443EA02634A7943EAA0
:101B900002230A79134307EE903A027A012A01D010
:101BA000032A03D107EE903AF1EE677AC4ED0E7A7C
:101BB0009FED1B7A67EE877AC4ED107A94F8543063
:101BC00023B1002384F85430C4ED117A94ED117AD6
:101BD00037EEC77A84ED137AC4ED117A02F0BEFABB
:101BE000E063CDE7CA798B791B0443EA02634A7943
:101BF00043EA02230A79134307EE903A027A012A54
:101C000001D0032A03D107EE903AF1EE677AC4EDD2
:101C10000B7A9FED037A67EE877AC4ED147AAFE70B
:101C2000000098420000000010B504463F2900F271
:101C300093800023037161711178537843EA012383
:101C40001BB283F400431BB2A3839178D37843EA99
:101C500001231BB283F400431BB2217A012901D076
:101C6000032901D15B421BB2E3831179537943EA23
:101C700001231BB283F400431BB2238493791B021C
:101C80001BB2D27913436384636AA362A08B00B250
:101C900007EE900AF8EEE77A17EE900AFEF73CFCA2
:101CA00000224FF07C53FEF78FFC00222E4BFEF7F4
:101CB0008BFC2BA3D3E90023FEF786FCFEF796FEF0
:101CC0006062E08B00B207EE900AF8EEE77A17EE5A
:101CD000900AFEF721FC00224FF07C53FEF774FCC3
:101CE0000022224BFEF770FCFEF780FEE062D4ED8E
:101CF0000B7A9FED1F7A67EE877AC4ED147A208CF9
:101D000000B207EE900AF8EEE77A17EE900AFEF7B7
:101D100003FC00224FF07C53FEF756FC0022154BCB
:101D2000FEF752FCFEF762FE2063638C1BB207EEE7
:101D3000903AF8EEE77AF2EE046A87EEA67A84ED3E
:101D40000D7A10BD49080133062B3FF774AF11F02F
:101D5000010FF7D02371F5E70123F5E7AFF300801A
:101D600000000060FB2109400000104000003E40E0
:101D7000000098420000284008B51F4B18601F4B18
:101D80000340FE2B08D01C4BDB7803F01F03022B13
:101D900012D0112B22D008BD174BB3F80130DBB2A3
:101DA0005A1ED2B2062AF6D8154A52F823300868CD
:101DB0004A6858619A61EEE70F4BB3F801C05FFAC9
:101DC0008CF0431EDBB2062BE5D80A464FEA1C21F5
:101DD0000B4B53F82000FFF727FFDCE7064BB3F867
:101DE0000130DBB25A1ED2B2062AD4D8044A52F8C5
:101DF0002300FFF7B7FECEE7B8030020FF00001F67
:101E0000D403002010B5012406E0054B53F824004C
:101E1000FFF7AAFD0134E4B2042CF6D910BD00BFCF
:101E2000D403002010B5012406E0054B53F824002C
:101E3000FFF7E0FD0134E4B2042CF6D910BD00BF79
:101E4000D403002010B5FFF7EDFF094C2046FFF743
:101E5000F1FD04F15800FFF7EDFD04F1B000FFF7CC
:101E6000E9FD04F58470FFF7E5FDFFF7CBFF10BD3A
:101E7000FC04002038B5174A174B536003F1580192
:101E8000916003F1B001D16003F584731361012403
:101E900008E0224611490F4B53F82400FFF752FD8A
:101EA0000134E4B2042CF4D9FFF7CCFF01240EE096
:101EB000084DB2EE080A55F82400FFF731FEB2EEE5
:101EC000040A55F82400FFF73CFE0134E4B2042C68
:101ED000EED938BDD4030020FC040020EC00002023
:101EE00038B50546052407E02946054B53F824007C
:101EF000FFF75AFD0134E4B2062CF5D938BD00BF16
:101F0000D403002010B5052406E0054B53F8240047
:101F1000FFF72AFD0134E4B2062CF6D910BD00BF4C
:101F2000D403002010B5052406E0054B53F8240027
:101F3000FFF760FD0134E4B2062CF6D910BD00BFF6
:101F4000D403002010B5FFF7EDFF054C2046FFF746
:101F500071FD04F15800FFF76DFDFFF7D3FF10BDD1
:101F60004C04002038B5154A154B53615833936122
:101F7000052408E022461349104B53F82400FFF7CC
:101F8000E1FC0134E4B2062CF4D9FFF7DBFF0524B1
:101F90000EE00A4DB1EE000A55F82400FFF7C0FD2F
:101FA000B2EE080A55F82400FFF7CBFD0134E4B285
:101FB000062CEED90120FFF793FF38BDD403002093
:101FC0004C040020EC00002008B50146024BD86903
:101FD000FFF7EAFC08BD00BFD403002010B50A4C8F
:101FE0000A48E06107220A49FFF7ACFCB0EE080A94
:101FF000E069FFF795FDB2EE080AE069FFF7A1FD81
:102000000120FFF7E1FF10BDD4030020F4030020FE
:10201000EC00002008B540F6B83002F0A5F8FFF754
:1020200029FFFFF79FFFFFF7D9FF08BD074B19688E
:1020300000220A601B685A6005499960DA60054A07
:102040001A6100221A7501225A7570470400002097
:1020500000006841CDCC4C3E10B5F0EE400A0B4B71
:102060001C680123237594ED020A03F0FDFCF0EED9
:10207000400A94ED030A03F0D9FC84ED010AB1EEA5
:10208000400A034BD869FFF73AFD10BD0400002059
:10209000D403002010B5154CE069FFF727FDE36974
:1020A000D3ED0E7A124C2368F1EE677AC3ED007A15
:1020B00023681868FEF730FA02460B460D4802F016
:1020C0009FFE2368D3ED017A93ED007A77EEC77A0D
:1020D000F0EEE77A93ED047AB4EEE77AF1EE10FAD7
:1020E00001DD012010BD0020FCE700BFD40300206B
:1020F00004000020305E000830B4036A026A22F057
:10210000010202624268846924F0730C0C6844EA9C
:102110000C0423F0020C8B6843EA0C03114DA84217
:1021200003D005F58065A84205D123F00803CD68EA
:102130002B4323F004030B4DA84203D005F5806523
:10214000A84207D122F440724D6945EA020C8A691F
:1021500042EA0C02426084614A684263036230BC16
:10216000704700BF0000014030B4036A026A22F4E5
:10217000807202624268C46924F0730C0C6844EAFD
:102180000C0523F400738C6843EA0423114CA0422D
:1021900003D004F58064A04206D123F40063CC6828
:1021A00043EA042323F480630A4CA04203D004F5DD
:1021B0008064A04207D122F440524C6942EA0412E2
:1021C0008C6942EA04124260C5614A68C2630362D4
:1021D00030BC70470000014030B4036A026A22F448
:1021E000805202624468C26922F4E6420D6842EA03
:1021F000052223F400538D6843EA0533094DA842B4
:1022000003D005F58065A84204D124F480444D69CB
:1022100044EA85144460C2614A680264036230BCC7
:10222000704700BF0000014010B4036A046A24F044
:1022300001040462846924F0F00C4CEA021223F0D9
:102240000A030B43826103625DF8044B704710B4CC
:10225000036A046A24F010040462846924F4704C54
:102260004CEA023223F0A00343EA011382610362C5
:102270005DF8044B7047836823F070030B4343F011
:10228000070383607047000090F83D30DBB2012BFC
:1022900037D1022380F83D300268D36843F0010350
:1022A000D3600368194A934220D0B3F1804F1DD008
:1022B000A2F57C42934219D002F58062934215D078
:1022C00002F58062934211D002F5784293420DD01C
:1022D00002F57052934209D0A2F59432934205D090
:1022E0001A6842F001021A60002070479A6802F0F2
:1022F0000702062A07D01A6842F001021A6000207D
:102300007047012070470020704700BF0000014067
:102310007047704770477047704770B50446036850
:10232000DE681D6915F0020F10D016F0020F0DD0F7
:102330006FF002021A610123037703689B6913F0AF
:10234000030F5ED0FFF7E6FF0023237715F0040F9D
:1023500012D016F0040F0FD023686FF004021A6138
:102360000223237723689B6913F4407F4FD02046D4
:10237000FFF7D0FF0023237715F0080F12D016F0D7
:10238000080F0FD023686FF008021A610423237727
:102390002368DB6913F0030F40D02046FFF7BAFF34
:1023A0000023237715F0100F12D016F0100F0FD066
:1023B00023686FF010021A61082323772368DB6912
:1023C00013F4407F31D02046FFF7A4FF002323778A
:1023D00015F0010F02D016F0010F2DD115F0800F6E
:1023E00002D016F0800F2FD115F0400F02D016F05A
:1023F000400F31D115F0200F02D016F0200F33D14D
:1024000070BDFFF786FF2046FFF785FF9CE720465B
:10241000FFF77FFF2046FFF77EFFABE72046FFF781
:1024200078FF2046FFF777FFBAE72046FFF771FFF6
:102430002046FFF770FFC9E723686FF001021A61B9
:102440002046FEF7B9FCC9E723686FF080021A61E5
:10245000204600F026FBC7E723686FF040021A61B0
:102460002046FFF759FFC5E723686FF020021A6185
:10247000204600F015FBC3E70368344A904212D0AF
:10248000B0F1804F0FD0A2F57C4290420BD002F504
:102490008062904207D002F58062904203D002F53C
:1024A0007842904203D123F070034A681343274ACD
:1024B00090422AD0B0F1804F27D0A2F57C429042C2
:1024C00023D002F5806290421FD002F580629042D4
:1024D0001BD002F57842904217D002F5705290421C
:1024E00013D002F5806290420FD002F580629042D4
:1024F0000BD0A2F59832904207D002F5806290424C
:1025000003D002F58062904203D123F44073CA687D
:10251000134323F080034A69134303608B68C3624B
:102520000B688362094B984203D003F5806398429D
:1025300001D10B69036301234361036913F0010FA8
:1025400003D0036923F001030361704700000140D9
:1025500040B310B5044690F83D30F3B1022384F83F
:102560003D30214651F8040BFFF786FF012384F824
:10257000463084F83E3084F83F3084F8403084F8A8
:10258000413084F8423084F8433084F8443084F891
:10259000453084F83D30002010BD80F83C30FFF716
:1025A00049F8DBE70120704740B310B5044690F8C6
:1025B0003D30F3B1022384F83D30214651F8040B3D
:1025C000FFF75AFF012384F8463084F83E3084F840
:1025D0003F3084F8403084F8413084F8423084F849
:1025E000433084F8443084F8453084F83D3000208E
:1025F00010BD80F83C30FFF78BFEDBE70120704711
:1026000030B4036A026A22F01002026244688269EE
:1026100022F4E6420D6842EA052223F020038D6889
:1026200043EA0513114DA84203D005F58065A84281
:1026300006D123F08003CD6843EA051323F040035D
:102640000A4DA84203D005F58065A84207D124F4BD
:1026500040644D6944EA85048D6944EA8504446018
:1026600082614A688263036230BC704700000140A7
:1026700038B590F83C30012B66D004460D46012356
:1026800080F83C300C2A5AD8DFE802F00759595933
:102690001B5959593059595944000068FFF72CFD0E
:1026A0002268936943F0080393612268936923F0D9
:1026B000040393612268936929690B4393610020A5
:1026C0003EE00068FFF79CFF2268936943F40063D3
:1026D00093612268936923F480639361226893690C
:1026E000296943EA01239361002029E00068FFF78C
:1026F0003BFD2268D36943F00803D3612268D369A4
:1027000023F00403D3612268D36929690B43D361A1
:10271000002015E00068FFF75FFD2268D36943F4ED
:102720000063D3612268D36923F48063D361226894
:10273000D369296943EA0123D361002000E0012025
:10274000002384F83C3038BD0220FCE710B48468D4
:1027500024F47F4C42EA03220A4342EA0C028260DC
:102760005DF8044B704790F83C30012B78D010B5E1
:102770000446012380F83C30022380F83D30026893
:10278000936823F47F4323F0770393600B68602BF7
:102790004CD023D8402B54D011D8202B03D00AD8AA
:1027A0000BB1102B05D119462068FFF764FD0020FE
:1027B00028E0012026E0302BF5D0012022E0502B2C
:1027C0000AD1CA6849680068FFF72EFD50212068C9
:1027D000FFF751FD002015E0012013E0B3F5805F05
:1027E0003AD0B3F5005F14D0702B37D1CB684A686C
:1027F00089680068FFF7AAFF2268936843F07703AF
:1028000093600020012384F83D30002384F83C309D
:1028100010BDCB684A6889680068FFF797FF226897
:10282000936843F4804393600020EBE7CA684968EB
:102830000068FFF70CFD60212068FFF71CFD0020F9
:10284000E0E7CA6849680068FFF7EEFC40212068AD
:10285000FFF711FD0020D5E70020D3E70120D1E7E5
:102860000220704701F01F014FF0010C0CFA01FC2F
:10287000036A23EA0C030362036A8A401343036278
:102880007047000010B504460846002942D194F86C
:102890003E30DBB2013B18BF0123002B6ED1002874
:1028A00051D1022384F83E30012201462068FFF70F
:1028B000D9FF2368334A934203D002F580629342E2
:1028C00003D15A6C42F400425A6423682D4A934261
:1028D00049D0B3F1804F46D0A2F57C42934242D01A
:1028E00002F5806293423ED002F5806293423AD074
:1028F00002F57842934236D002F57052934232D0BC
:10290000A2F5943293422ED01A6842F001021A6066
:10291000002032E0042908D008290DD094F8413075
:10292000DBB2013B18BF0123B7E794F83F30DBB2BD
:10293000013B18BF0123B0E794F84030DBB2013B04
:1029400018BF0123A9E7042805D0082807D00223CF
:1029500084F84130A8E7022384F83F30A4E702233B
:1029600084F84030A0E79A6802F00702062A07D0F0
:102970001A6842F001021A60002010BD0120FCE735
:102980000020FAE70000014038B504460D46002259
:102990000068FFF767FF23681D4A934218D002F5CD
:1029A0008062934214D02368196A41F211121142D5
:1029B00008D1196A40F24442114203D11A6822F048
:1029C00001021A609DB9012384F83E30002038BD11
:1029D000196A41F211121142E5D1196A40F24442DA
:1029E0001142E0D15A6C22F400425A64DBE7042D14
:1029F00005D0082D07D0012384F84130E6E70123F4
:102A000084F83F30E2E7012384F84030DEE700BF7E
:102A10000000014090F83C20012A3DD010B403464C
:102A2000012280F83C20022280F83D200268506894
:102A3000946820F0700C086840EA0C0050601A6836
:102A4000164882421AD0B2F1804F17D0A0F57C40D0
:102A5000824213D000F5806082420FD000F5806082
:102A600082420BD000F57840824207D000F57050CA
:102A7000824203D0A0F59430824204D124F0800435
:102A8000496821439160012283F83D20002083F8AA
:102A90003C005DF8044B7047022070470000014085
:102AA00070477047002800F0A18038B5044690F8C0
:102AB0002030D3B12268136843F00103136001F0A2
:102AC0004DFB054623685A6812F0010F10D101F042
:102AD00045FB401B0A28F5D9636A43F4003363625F
:102AE000052384F82030012038BDFEF7EDFAE1E738
:102AF0001A6822F002021A6001F030FB05462368D2
:102B00005A6812F0020F0DD001F028FB401B0A2872
:102B1000F5D9636A43F400336362052384F82030F7
:102B20000120E1E7227E012A3DD01A6822F08002CE
:102B30001A60637E012B3BD02268136823F04003A8
:102B40001360A37E012B39D02268136823F0200381
:102B50001360E37E012B37D02268136843F0100323
:102B60001360237F012B35D02268136823F00803FC
:102B70001360637F012B33D02268136823F00403B2
:102B80001360A368E2681343226913436269134325
:102B90006268013A21681343CB610020606201231F
:102BA00084F82030A0E71A6842F080021A60C0E77B
:102BB0002268136843F040031360C2E72268136879
:102BC00043F020031360C4E72268136823F0100366
:102BD0001360C6E72268136843F008031360C8E770
:102BE0002268136843F004031360CAE701207047AA
:102BF00090F82030013BDBB2012B05D9436A43F446
:102C0000802343620120704730B5464BD3F8002241
:102C100042F00102C3F80022D3F8002222F47C52D1
:102C2000C3F80022D3F80022486A42EA0022C3F81F
:102C300000224A6902F01F02012000FA02F2D3F8D2
:102C40001C026FEA020C20EA0200C3F81C02CB69E6
:102C5000C3B9344BD3F80C020CEA0000C3F80C02E1
:102C60008C884869CD6844EA0544483043F83040D0
:102C70008C68088840EA04404C6904F1480E03EB74
:102C8000CE035860CB69012B1ED08B69002B33D14A
:102C90002448D0F804320CEA0303C0F804320B696C
:102CA0008BBB2048D0F814320CEA0303C0F814326E
:102CB0000B6A012B2ED01B4AD2F8003223F00103FD
:102CC000C2F80032002030BD164BD3F80C0210437E
:102CD000C3F80C028C8848690D6844EA0544483002
:102CE00043F8304088894C698D6840EA0540483493
:102CF00003EBC4035860C8E70A48D0F80432134312
:102D0000C0F80432CBE70748D0F814321343C0F8B8
:102D10001432CDE70349D1F81C321343C1F81C32F9
:102D2000C9E700BF0064004070B5044690F8205029
:102D3000EDB2012D06D0436A43F40023436201251E
:102D4000284670BD022380F820300268136823F003
:102D50000103136001F002FA064623685B6813F072
:102D6000010F0CD001F0FAF9831B0A2BF5D9636A25
:102D700043F400336362052384F82030E0E7002544
:102D80006562DDE730B590F820C00468A4680CF1F6
:102D9000FF3C5FFA8CFCBCF1010F62D814F0E05FDD
:102DA00059D0C4F3016C012404FA0CF41C608B6844
:102DB000002B3DD10D68CB68046843EA45550CF102
:102DC00018031B01E55003680C690CF1180E03EBA6
:102DD0000E135C600B7D012B35D0D17993791B04E8
:102DE00043EA0163517943EA0123147901682343DB
:102DF00001EB0C11C1F88C31D17893781B0443EAB4
:102E00000163517843EA0123117802680B4302EB16
:102E10000C12C2F8883102680CF1180C4FEA0C1C35
:102E200052F80C3043F0010342F80C3000201DE052
:102E30004C6843EAC403CC6823430CF11804240112
:102E400005682B51BFE7036803EB0E13596841F483
:102E500080715960C1E7436A43F400134362012063
:102E600004E0436A43F480234362012030BD90F8BC
:102E700020C00CF1FF3C5FFA8CFCBCF1010F00F2AA
:102E8000A58030B451B90468E46814F0030F10D180
:102E9000436A43F40013436201207EE0046824691E
:102EA00014F0030F05D1436A43F400134362012079
:102EB00073E0056801F11B0424012C5904F004049B
:102EC0009460002C6BD1056801F11B0424012C597E
:102ED000640D1460046801F11B0C4FEA0C1C54F8DB
:102EE0000C4004F00204D4600468A444DCF80450EC
:102EF00015F0080F5BD008241461046801F11B0C65
:102F000004EB0C146468C4F307249461046804EBB4
:102F10000C146468240C5461026802EB0112D2F8AC
:102F2000B8211A70026802EB0112D2F8B821C2F37C
:102F300007225A70026802EB0112D2F8B821C2F3DC
:102F400007429A70026802EB0112D2F8B821120E01
:102F5000DA70026802EB0112D2F8BC211A71026821
:102F600002EB0112D2F8BC21C2F307225A710268A7
:102F700002EB0112D2F8BC21C2F307429A71026837
:102F800002EB0112D2F8BC21120EDA71C1B902684B
:102F9000D36843F02003D360002030BC704705683D
:102FA00001F11B0424012C59E408546092E701F15B
:102FB0001B0504EB0514646804F00F0414619CE71E
:102FC0000268136943F020031361E5E7436A43F4A1
:102FD000802343620120704790F82030013BDBB230
:102FE000012B05D9436A43F48023436201207047D3
:102FF000026853690B435361002070477047704764
:103000007047704770477047704770477047704708
:10301000704770472DE9F84F054603685C69D3F89F
:1030200004809F68D3F80CA0D3F81090D3F818B0A0
:1030300014F001063BD017F0010616D001229A6069
:1030400017F0020F08D117F0040F0CD117F0080683
:1030500006D04FF4805608E0FFF7D0FF002604E0CA
:10306000FFF7CFFF01E04FF4006617F4807F0DD02B
:103070002B684FF480729A6017F4007F40F09680BE
:1030800017F4806F00F0968046F4005617F4803FE6
:103090000DD02B684FF480329A6017F4003F40F057
:1030A000938017F4802F00F0938046F4004614F0CC
:1030B000080F07D01AF0100F04D046F400762B68E2
:1030C0001022DA6014F0040F03D01AF0080F40F059
:1030D000898014F0020F05D02B68DB6813F0030F12
:1030E00040F0878014F0400F07D019F0100F04D083
:1030F00046F480662B6810221A6114F0200F02D06B
:1031000019F0080F79D114F0100F04D02B681B6947
:1031100013F0030F78D114F4003F02D018F0100F11
:1031200076D114F4803F02D018F0080F77D114F450
:10313000004F37D018F0040F31D014F4807F04D042
:103140001BF0010F01D046F0010614F4007F04D0FB
:103150001BF0020F01D046F0020614F4806F04D079
:103160001BF0040F01D046F0040614F4006F16D0D3
:103170001BF0700B13D0BBF1400F66D056D8BBF1DB
:10318000200F5CD0BBF1300F5CD0BBF1100F01D130
:1031900046F008062A68936923F0700393612B6850
:1031A00004225A60002E56D1BDE8F88F2846FFF75A
:1031B00026FF6BE717F4006F02D046F4804665E700
:1031C0002846FFF71FFF61E72846FFF719FF6EE764
:1031D00017F4002F02D046F4803668E72846FFF740
:1031E00012FF64E72B680822DA602846FFF70CFF1D
:1031F0006FE72846FDF7AAFC74E72B6808221A61DE
:103200002846FFF703FF7EE72846FFF7FEFE82E72A
:103210002B6810225A602846FFF7F9FE81E72B68D9
:1032200008225A602846FFF7F3FE80E7BBF1500FF3
:103230000ED0BBF1600FADD146F48076AAE746F020
:103240001006A7E746F02006A4E746F04006A1E7EF
:1032500046F080069EE76B6A33436B622846FFF7B1
:10326000D8FEA1E7002800F0E08170B582B00446E6
:10327000036813F0010F3BD09F4B9B6803F00C03D6
:10328000042B2CD09C4B9B6803F00C03082B21D003
:103290006368B3F5803F4FD0B3F5A02F52D0964B63
:1032A0001A6822F480321A601A6822F480221A60A6
:1032B0006368002B50D000F051FF05468E4B1B6811
:1032C00013F4003F14D100F049FF401B6428F5D9E6
:1032D0000320B1E1884B5B6813F4800FD8D0864B94
:1032E0001B6813F4003F03D06368002B00F09F813C
:1032F000236813F0020F54D07F4B9B6813F00C0F20
:103300003ED07D4B9B6803F00C03082B33D0E36861
:10331000002B68D0794B01221A6000F01FFF054690
:10332000754B1B6813F0020F54D100F017FF401BC0
:103330000228F5D903207FE16F4A136843F48033F4
:103340001360B5E76C4B1A6842F480221A601A6861
:1033500042F480321A60ABE700F000FF0546664B8E
:103360001B6813F4003FC3D000F0F8FE401B642834
:10337000F5D9032060E1604B5B6813F4800FC6D180
:103380005D4B1B6813F0020F03D0E368012B40F084
:103390005081594A136823F0F803216943EAC103B5
:1033A0001360236813F0080F42D063696BB3534B6B
:1033B0000122C3F8802E00F0D1FE05464E4B5B6F14
:1033C00013F0020F34D100F0C9FE401B0228F5D9DA
:1033D000032031E1484A136823F0F803216943EAE6
:1033E000C1031360DDE7454B00221A6000F0B6FE12
:1033F0000546414B1B6813F0020FD2D000F0AEFE21
:10340000401B0228F5D9032016E13C4B0022C3F8EB
:10341000802E00F0A3FE0546374B5B6F13F0020FC2
:1034200006D000F09BFE401B0228F5D9032003E1E3
:10343000236813F0040F77D02F4B1B6C13F0805FC1
:1034400033D1002301932C4B1A6C42F080521A6442
:103450001B6C03F080530193019B0125284B1B68D3
:1034600013F4807F23D0A368012B34D0052B38D0F0
:10347000214B1A6F22F001021A671A6F22F0040220
:103480001A67A368002B3DD000F068FE06461A4B71
:103490001B6F13F0020F46D100F060FE801B41F25B
:1034A00088339842F3D90320C6E00025D6E7144AB2
:1034B000136843F48073136000F050FE0646104B0F
:1034C0001B6813F4807FCED100F048FE801B0228D9
:1034D000F5D90320B0E0084A136F43F001031367E6
:1034E000CFE7054B1A6F42F004021A671A6F42F0D9
:1034F00001021A67C5E700BF0038024000004742DA
:103500000070004000F02AFE0646524B1B6F13F07D
:10351000020F08D000F022FE801B41F2883398424F
:10352000F3D9032088E0EDB9A369002B00F0838074
:10353000484A926802F00C02082A51D0022B17D098
:10354000454B00221A6600F009FE0446414B1B68F9
:1035500013F0007F42D000F001FE001B0228F5D9D5
:10356000032069E03B4A136C23F080531364DBE7CC
:10357000394B00221A6600F0F1FD0546354B1B68F9
:1035800013F0007F06D000F0E9FD401B0228F5D9BA
:10359000032051E0E369226A1343626A43EA82131B
:1035A000A26A5208013A43EA0243E26A43EA02632A
:1035B000284A5360284B01221A6600F0CFFD0446CA
:1035C000244B1B6813F0007F06D100F0C7FD001BE1
:1035D0000228F5D903202FE000202DE000202BE069
:1035E000012B2BD01B4B5B6803F48001E2699142F5
:1035F00026D103F03F02216A8A4223D1616A47F64D
:10360000C0721A40B2EB811F1ED103F44031A26A8E
:103610005208013AB1EB024F18D103F07063E26A2D
:10362000B3EB026F14D1002006E0012070470120A7
:1036300002E0012000E0002002B070BD0120FBE7A5
:103640000120F9E70120F7E70120F5E70120F3E782
:103650000120F1E7003802400000474208B5264B40
:103660009B6803F00C03042B41D0082B41D1224B63
:103670005A6802F03F025B6813F4800F12D01E4BB1
:103680005968C1F388111D480023A1FB0001FDF713
:10369000FDF9194B5B68C3F3014301335B00B0FBD9
:1036A000F3F008BD144B5868C0F388104FEA401C73
:1036B000BCEB000C6EEB0E0E4FEA8E1343EA9C63DC
:1036C0004FEA8C11B1EB0C0163EB0E03DB0043EA14
:1036D0005173C90011EB000C43F100039902002360
:1036E0004FEA8C2041EA9C51FDF7D0F9D1E703481D
:1036F000D7E70348D5E700BF00380240001BB700FA
:103700000024F400002800F09B8070B50D460446AC
:103710004F4B1B6803F00F038B4208D2CBB24C4ACD
:103720001370136803F00F038B4240F08B80236803
:1037300013F0020F17D013F0040F04D0454A93681A
:1037400043F4E0539360236813F0080F04D0414A18
:10375000936843F4604393603E4A936823F0F00318
:10376000A1680B439360236813F0010F32D06368A4
:10377000012B21D09A1E012A25D9364A126812F04F
:10378000020F61D033498A6822F0030213438B6031
:1037900000F0E4FC06462F4B9B6803F00C036268C4
:1037A000B3EB820F16D000F0D9FC801B41F28833B6
:1037B0009842F0D9032042E0264A126812F4003FF2
:1037C000E0D101203BE0234A126812F0007FD9D1FA
:1037D000012034E01E4B1B6803F00F03AB4207D9F6
:1037E000EAB21B4B1A701B6803F00F03AB422DD1DA
:1037F000236813F0040F06D0164A936823F4E053AD
:10380000E1680B439360236813F0080F07D0114A57
:10381000936823F46043216943EAC1039360FFF78F
:103820001DFF0C4B9B68C3F303130B4AD35CD840BA
:103830000A4B18600A4B1868FDF7A6FF002070BD00
:10384000012070470120FAE70120F8E70120F6E7A0
:10385000003C024000380240585E00081000002082
:103860000C000020014B1868704700BF10000020BA
:1038700008B5FFF7F7FF044B9B68C3F38223034AA5
:10388000D35CD84008BD00BF00380240505E00083D
:1038900008B5FFF7E7FF044B9B68C3F34233034AC5
:1038A000D35CD84008BD00BF00380240505E00081D
:1038B0000F2303600B4B9A6802F0030242609A6880
:1038C00002F0F00282609A6802F4E052C2609B68E3
:1038D000DB0803F4E0530361034B1B6803F00F03A1
:1038E0000B60704700380240003C024000230F2B61
:1038F00000F2F68070B582B066E085684FEA430E4C
:10390000032404FA0EF425EA0405CC6804FA0EF444
:103910002C438460446824EA02044A68C2F300121B
:103920009A40224342605DE0DC08083450F82420CD
:1039300003F00705AD004FF00F0E0EFA05FE22EA68
:103940000E0E0A69AA4042EA0E0240F824205DE009
:10395000092200E0002202FA0EF22A430234614DED
:1039600045F82420604A94686FEA0C0224EA0C05AA
:103970004E6816F4801F01D04CEA04055A4CA5602D
:10398000E46802EA04054E6816F4001F01D04CEA10
:103990000405554CE560646802EA04054E6816F4B7
:1039A000003F01D04CEA04054F4C6560246822407A
:1039B0004D6815F4803F01D04CEA04024A4C226065
:1039C00001330F2B00F28A8001229A400C6804EA2E
:1039D000020C32EA0404F3D14C6804F00304013C05
:1039E000012C8AD94A6802F00302032A09D0C4686C
:1039F0005D000322AA4024EA02048A68AA40224306
:103A0000C2604A6802F00302022A8DD004684FEABD
:103A1000430E032202FA0EF224EA02044A6802F07C
:103A2000030202FA0EF2224302604A6812F4403F97
:103A3000C6D0002201922D4A546C44F48044546450
:103A4000526C02F480420192019A9C08A51C254AFE
:103A500052F8255003F0030E4FEA8E0E0F2202FAA1
:103A60000EF225EA0205224A90423FF473AF02F5B6
:103A70008062904222D002F58062904220D002F50E
:103A8000806290421ED002F5806290421CD002F506
:103A9000806290421AD002F58062904218D002F5FE
:103AA0008062904216D002F58062904214D002F5F6
:103AB000806290423FF44CAF0A224CE701224AE771
:103AC000022248E7032246E7042244E7052242E7B0
:103AD000062240E707223EE708223CE702B070BD1D
:103AE000704700BF00380140003C014000380240F0
:103AF000000002400AB1816170470904816170478A
:103B000030B405682C6824F480242C600468636059
:103B10008368402B05D0036899600368DA6030BC85
:103B2000704703689A600368D960F8E710B40368C7
:103B3000D9B210390A4AA2FB01421209094CA25C0F
:103B4000C2655F2907D96FF3090304338365806D6C
:103B50005DF8044B70476FF309038365F7E700BF17
:103B6000ABAAAAAA485E0008836A826992B9012BAF
:103B70000AD0022B02D00BB100207047C36A13F0A9
:103B8000807F28D100207047C36AB3F1C07F24D062
:103B900000207047B2F5005F09D0022B25D9032B16
:103BA00025D1C36A13F0807F23D100207047032BF7
:103BB00003D8DFE803F01404140A00207047C36A36
:103BC00013F0807F0DD100207047C36AB3F1C07F2E
:103BD00009D0002070470120704701207047012064
:103BE0007047012070470120704701207047002076
:103BF000704701207047000070B5044600F0AEFA2F
:103C0000002C5BD00546022384F83530002384F86D
:103C100034302268136823F00103136023681A68A4
:103C200012F0010F0AD000F099FA431B052BF5D9C9
:103C300020236365032084F8350070BD1A6820498D
:103C400011406268A0680243E068024320690243B1
:103C500060690243A0690243E0690243206A0243AB
:103C60000A43616A04291ED01A602668756925F026
:103C70000705636A1D43042B07D1A36A1D43E36A4A
:103C80001BB12046FFF770FF90B975612046FFF722
:103C90004DFFE26D3F239340836000206065012368
:103CA00084F83530C9E7E16A206B01430A43DBE75A
:103CB00040236365012084F83500BEE70120BCE79E
:103CC0003F8010F038B50446856D90F83400012827
:103CD0002BD0012084F8340094F83500C0B20128BC
:103CE00004D0002384F83430022038BD022084F848
:103CF0003500002060652046FFF702FFE26D3F239C
:103D00009340AB602268136843F016031360236C82
:103D100023B12268136843F0080313602268136814
:103D200043F0010313600020DFE70220DDE770B5F8
:103D30000446866D00F012FA94F83530DBB2022B9F
:103D400006D080236365002384F83430012070BDE1
:103D500005462268136823F016031360226853692E
:103D600023F080035361236CE3B12268136823F0CE
:103D7000080313602268136823F0010313602368AB
:103D80001B6813F0010F11D000F0E8F9431B052B5D
:103D9000F5D920236365032084F83500002384F8D7
:103DA0003430D4E7A36C002BDFD1E3E7E26D3F238F
:103DB0009340B360012384F83530002084F8340048
:103DC000C5E790F83530DBB2022B03D08023436582
:103DD00001207047052380F835300268136823F00E
:103DE0000103136000207047F0B583B00446002340
:103DF0000193724B1D68724BA3FB0535AD0A876DAD
:103E00003E68C26D08239340334210D003681A689D
:103E100012F0040F0BD01A6822F004021A60C26D6F
:103E200008239340BB60436D43F001034365E26D9B
:103E300001239340334209D02268526912F0800F67
:103E400004D0BB60636D43F002036365E26D04233D
:103E50009340334209D02268126812F0020F04D056
:103E6000BB60636D43F004036365E26D1023934010
:103E7000334224D02268126812F0080F1FD0BB60B2
:103E800023681A6812F4802F0DD01B6813F4002FDA
:103E900004D1236C9BB12046984710E0A36C73B10A
:103EA000204698470BE01A6812F4807F03D11A6805
:103EB00022F008021A60236C0BB120469847E26D8D
:103EC00020239340334255D02268126812F0100F1D
:103ED00050D0BB6094F83530DBB2052B0ED0236890
:103EE0001A6812F4802F33D01B6813F4002F2AD1E4
:103EF000636C002B3ED0204698473BE02268136855
:103F000023F0160313602268536923F08003536182
:103F1000236CA3B12268136823F008031360E26DD9
:103F20003F239340BB60012384F83530002384F89D
:103F30003430236D002B3FD0204698473CE0A36CE3
:103F4000002BE7D1EBE7E36BA3B12046984711E0E4
:103F50001A6812F4807F09D11A6822F010021A60E0
:103F6000012384F83530002384F83430E36B0BB13F
:103F700020469847636DFBB1636D13F0010F17D0B6
:103F8000052384F835302268136823F00103136099
:103F9000019B01330193AB4204D823681B6813F0E3
:103FA000010FF5D1012384F83530002384F8343033
:103FB000E36C0BB12046984703B0F0BD1000002021
:103FC000B5814E1B10B582B000230193194B1A6CBA
:103FD00042F080521A641B6C03F080530193019BE2
:103FE000154B01221A6400F0B9F80446134B5B68C4
:103FF00013F4803F08D100F0B1F8001BB0F57A7FD0
:10400000F4D9032002B010BD0B4B01225A6400F01A
:10401000A5F80446094B5B6813F4003F07D100F094
:104020009DF8001BB0F57A7FF4D90320EAE7002061
:10403000E8E700BF0038024000000E420070004078
:10404000002807DB00F01F02400901239340024AC9
:1040500042F82030704700BF00E100E0002808DB94
:104060000901C9B200F1604000F5614080F8001319
:10407000704700F00F000901C9B2014B1954704795
:1040800014ED00E000B500F00700C0F1070CBCF132
:10409000040F28BF4FF0040C031D062B0FD9C31EBD
:1040A0004FF0FF3E0EFA0CF021EA000199400EFAA3
:1040B00003FE22EA0E0241EA02005DF804FB00233F
:1040C000EEE70000074AD36823F4E0631B041B0CEF
:1040D000000200F4E060034343F0BF6343F40033A5
:1040E000D360704700ED00E010B50446054BD8687A
:1040F000C0F30220FFF7C6FF01462046FFF7AEFFE0
:1041000010BD00BF00ED00E008B5FFF799FF08BD46
:1041100008B50B4B1A6842F400721A601A6842F430
:1041200080621A601A6842F480721A600320FFF7F6
:10413000C9FF0F20FDF728FBFDF70AFB002008BD93
:10414000003C0240034A1168034B1B780B44136088
:10415000704700BF7406002008000020014B18685B
:10416000704700BF7406002038B50446FFF7F6FF1D
:104170000546B4F1FF3F02D0044B1B781C44FFF707
:10418000EDFF401BA042FAD338BD00BF080000205D
:10419000026802F10C0353E8003F23F0C0030C3225
:1041A00042E800310029F3D1202380F841307047E4
:1041B000026802F10C0353E8003F23F490730C32C1
:1041C00042E800310029F3D1026802F1140353E8F8
:1041D000003F23F00103143242E800310029F3D1FB
:1041E000036B012B05D0202380F8423000230363AA
:1041F0007047026802F10C0353E8003F23F01003FC
:104200000C3242E800310029F3D1ECE790F841305C
:10421000DBB2212B01D0022070478368B3F5805FA9
:1042200017D0036A5A1C02621A7803685A60C38C5A
:104230009BB2013B9BB2C3844BB90268D36823F0A5
:104240008003D3600268D36843F04003D36000204A
:1042500070470369002BE4D1036A1B880268C3F32B
:1042600008035360036A02330362E0E710B50446B3
:104270000268136923F44053C1680B4313618368D8
:1042800002691A4343691A43C3691A430168CB6838
:1042900023F4164323F00C031343CB6002685369E5
:1042A00023F4407381690B4353610368314A93429D
:1042B00006D002F58062934202D0FFF7D9FA01E0FE
:1042C000FFF7E6FAE369B3F5004F29D000210318A0
:1042D00049411B1841F10001C90041EA5371DB005B
:1042E000181863684FEA83024FEA937341F10001A3
:1042F000FCF7CCFB204AA2FB00314909642303FBF5
:1043000011031B013233A2FB03235B0903F0F0020C
:1043100002EB011203F00F03216813448B6010BD00
:104320000023021843EB0301121841F10001C900F8
:1043300041EA5271D200101841F1000162689218EE
:104340005B41FCF7A3FB0C4AA2FB00314909642343
:1043500003FB1103DB003233A2FB03235B095A008A
:1043600002F4F87202EB011203F007032168134410
:104370008B60D4E7001001401F85EB512DE9F0431D
:1043800083B005460E4617469946DDF828802B680F
:104390001C6836EA04040CBF01240024BC4228D166
:1043A000B8F1FF3FF3D0FFF7D9FEA0EB090040457D
:1043B00023D8B8F1000F22D02B68DA6812F0040F6E
:1043C000E5D0802EE3D0402EE1D01A6812F0080F1D
:1043D000DDD0002401941A6801925B680193019B6F
:1043E0002846FFF7E5FE08236B6485F8404001206E
:1043F00000E0002003B0BDE8F0830320FAE70320CB
:10440000F8E760B310B5044690F8413013B32423A5
:1044100084F841302268D36823F40053D3602046E7
:10442000FFF724FF2268136923F490431361226885
:10443000536923F02A0353612268D36843F400537D
:10444000D36000206064202384F8413084F8423037
:10445000606310BD80F84030FCF75EFFD7E70120B5
:1044600070472DE9F04182B01E4690F84130DBB232
:10447000202B56D104460D469046002955D00AB946
:1044800001204FE000234364212380F84130FFF7EF
:1044900065FE0746A4F82480A4F82680A368B3F537
:1044A000805F02D04FF0000814E023692BB34FF077
:1044B00000080FE0202384F84130032032E038F870
:1044C000023B2268C3F308035360E28C92B2013AC4
:1044D00092B2E284E38C9BB293B100963B460022F9
:1044E00080212046FFF74AFF0028E3D1002DE6D0C7
:1044F00015F8012B23685A60E7E7A8460025E9E78D
:1045000000963B46002240212046FFF737FF18B9AE
:10451000202384F8413005E0202384F84130032033
:1045200000E0022002B0BDE8F0810120FAE7704708
:1045300008B50168CA6822F04002CA60202280F8EB
:104540004120FFF7F4FF002008BD7047704710B509
:10455000846B23685A6994F84130DBB2212B10D068
:1045600023685A6902F0400294F84230DBB2222BF1
:1045700011D0636C43F0100363642046FFF7E6FF3D
:1045800010BD02F08002002AEAD00023E384204616
:10459000FFF7FEFDE4E7002AEBD00023E385204689
:1045A000FFF706FEE5E708B5806B0023C385C384EB
:1045B000FFF7CCFF08BD704790F84230DBB2222BEA
:1045C00069D18368B3F5805F4FD0826AB3F5805FAD
:1045D00004D0002B56D10369002B53D103685B68CC
:1045E0001370836A01338362C38D9BB2013B9BB21C
:1045F000C385002B51D100B583B00268D36823F086
:104600002003D3600268D36823F48073D360026808
:10461000536923F001035361202380F842300023C3
:104620004363036B012B33D100230363026802F160
:104630000C0353E8003F23F010030C3242E8003132
:104640000029F3D103681A6812F0100F06D0002277
:1046500001921A6801925B680193019B818DFFF7BB
:10466000AAFF002003B05DF804FB0269002AACD168
:10467000826A03685B68C3F308031380836A0233AA
:104680008362B1E703685B6803F07F031370A8E7F8
:10469000FCF776FAE5E7022070470020704700003B
:1046A00010B582B0044602681368D068516913F0EF
:1046B0000F0F09D113F0200F0CD010F0200F09D0EC
:1046C0002046FFF779FF16E011F0010115D110F433
:1046D000907F12D1216B012979D013F0800F03D084
:1046E00010F0800F40F0148113F0400F03D010F051
:1046F000400F40F0118102B010BD13F0010F06D041
:1047000010F4807F03D0626C42F00102626413F007
:10471000040F04D019B1626C42F00202626413F01B
:10472000020F04D019B1626C42F00402626413F00B
:10473000080F07D010F0200F00D119B1626C42F0C1
:1047400008026264626C002AD5D013F0200F02D0F8
:1047500010F0200F29D123685B6903F04003626CDD
:1047600012F0080F00D163B32046FFF721FD236844
:104770005B6913F0400F20D0226802F1140353E864
:10478000003F23F04003143242E800310029F3D106
:10479000E36B73B1624A1A65E06BFFF712FB002806
:1047A000A9D0E06B036D9847A5E72046FFF704FF0B
:1047B000D1E72046FFF7CAFE9DE72046FFF7C6FE79
:1047C00099E72046FFF7C2FE0023636493E713F0E6
:1047D000100F82D010F0100F3FF47FAF0023019331
:1047E0001368019353680193019B536913F0400FC1
:1047F00052D0E26B13685B689BB2002B3FF47BAF37
:10480000A18D99427FF677AFE385D369B3F5807FB9
:1048100037D0226802F10C0353E8003F23F4807381
:104820000C3242E800310029F3D1226802F114036E
:1048300053E8003F23F00103143242E8003100291D
:10484000F3D1226802F1140353E8003F23F0400340
:10485000143242E800310029F3D1202384F8423099
:1048600000232363226802F10C0353E8003F23F086
:1048700010030C3242E800310029F3D1E06BFFF75E
:1048800056FA02236363A18DE38D9BB2C91A89B2E4
:104890002046FFF790FE2EE7A18DE38D9BB2C91A4B
:1048A00089B2E38D9BB2002B3FF425AF00293FF482
:1048B00022AF226802F10C0353E8003F23F4907307
:1048C0000C3242E800300028F3D1226802F11403D0
:1048D00053E8003F23F00103143242E8003000287F
:1048E000F3D1202384F8423000232363226802F1AD
:1048F0000C0353E8003F23F010030C3242E8003071
:104900000028F3D1022363632046FFF754FEF2E64A
:104910002046FFF77BFCEEE62046FFF709FEEAE6BD
:10492000A745000808B5806B01234363036B012B87
:1049300002D0FFF70AFE08BD818D4908FFF73BFE54
:10494000F9E708B50346806B1B681B6813F4807F8A
:104950002BD10023C385026802F10C0353E8003F0A
:1049600023F480730C3242E800310029F3D102684D
:1049700002F1140353E8003F23F00103143242E82C
:1049800000310029F3D1026802F1140353E8003F1B
:1049900023F04003143242E800310029F3D12023F0
:1049A00080F84230036B012B07D000234363036B75
:1049B000012B0FD0FCF7E4F808BD026802F10C03EC
:1049C00053E8003F23F010030C3242E80031002985
:1049D000F3D1EAE7818DFFF7EEFDEDE730B583B067
:1049E000044613468162828500254564222280F8B0
:1049F0004220C26B1F48D063E26B1F481064E26B19
:104A00001E48D064E26B156520680A46011DE06B04
:104A1000FFF758F9019523681A6801925B680193C2
:104A2000019B23695BB1226802F10C0353E8003F4C
:104A300043F480730C3242E800310029F3D122683C
:104A400002F1140353E8003F43F00103143242E83B
:104A500000310029F3D1226802F1140353E8003F2A
:104A600043F04003143242E800310029F3D1002022
:104A700003B030BD43490008254900084F450008F0
:104A800008B590F84230DBB2202B08D149B10AB901
:104A9000012008BD00230363FFF7A0FFF9E7022010
:104AA000F7E70120F5E70000034AD2F8883043F425
:104AB0007003C2F88830704700ED00E0DFF834D0B2
:104AC000FFF7F2FF0C480D490D4A002302E0D458CD
:104AD000C4500433C4188C42F9D30A4A0A4C002348
:104AE00001E013600432A242FBD300F02FFBFCF77D
:104AF000CBF9704700000320000000207000002068
:104B0000AC5E000870000020C8070020FEE700002F
:104B1000024B0146186800F025B800BF20000020B5
:104B200070B50F4E0C463168054611B900F0ECFA2D
:104B300030602146284600F0E7FA431C03D14FF0CD
:104B4000FF34204670BDC41C24F00304A042F8D0FA
:104B5000211A284600F0D8FA0130F2D1EFE700BF61
:104B6000780600202DE9F843CD1C25F00305083513
:104B70000C2D38BF0C25002D064601DBA94204D9B7
:104B80000C2333600020BDE8F883DFF8D48000F008
:104B900069F8D8F800301C4644BB29463046FFF778
:104BA000BFFF431C044658D1D8F800402746002FC9
:104BB00043D1002C4BD023683946304604EB03091F
:104BC00000F0A2FA814542D121686D1A294630468B
:104BD000FFF7A6FF01303AD023682B442360D8F8B2
:104BE00000305A6862BBC8F800700FE02268521BA0
:104BF00020D40B2A17D96119A342256018BF596028
:104C0000636808BFC8F8001062514B60304600F07E
:104C10002FF804F10B00231D20F00700C21A1CBF5F
:104C20001B1AA350AFE76268A3420CBFC8F800206C
:104C30005A60EBE723466468AEE73C467F68B6E718
:104C40001A465B68A342FBD100235360DEE70C23C6
:104C50003360304600F00CF894E70560D6E700BFFB
:104C60007C060020014800F096BA00BFC007002073
:104C7000014800F091BA00BFC0070020002310B522
:104C80000446C0E90033C0E9043383608181436690
:104C9000C2818361194608225C3000F0F9F90D4B9E
:104CA00063620D4BA3620D4BE3620D4B23630D4B0F
:104CB00024629C4206D003F16802944202D0D033B1
:104CC0009C4205D104F15800BDE8104000F062BAE2
:104CD00010BD00BFE14E0008034F00083B4F000825
:104CE0005F4F000880060020024A0349034800F095
:104CF00069B800BF14000020D55800082400002027
:104D000041680C4B994210B5044601D000F0E2FD19
:104D1000A168094B994202D0204600F0DBFDE16812
:104D2000064B994204D02046BDE8104000F0D2BDA9
:104D300010BD00BF80060020E806002050070020BC
:104D400010B50B4B0B4C0C4A1A6020460022042174
:104D5000FFF794FF04F1680001220921FFF78EFF9D
:104D600004F1D0000222BDE810401221FFF786BFF7
:104D7000B807002080060020E94C0008014800F038
:104D80000ABA00BFC1070020014800F005BA00BF01
:104D9000C107002010B50446FFF7F0FF236A1BB1DE
:104DA000BDE81040FFF7F0BF044B2362044B1B68C3
:104DB000002BF5D1FFF7C4FFF2E700BF014D00085B
:104DC000B80700202DE9F843074688461446002618
:104DD000D4E90195B9F1010905D52468002CF7D172
:104DE0003046BDE8F883AB89012B07D9B5F90E3001
:104DF000013303D029463846C04706436835E9E702
:104E00000FB407B5064904AB086853F8042B816852
:104E1000019300F037FA03B05DF804EB04B070477B
:104E200020000020036A70B5846805460E460BB961
:104E3000FFF7B0FF636EDB0705D4A389980502D4A2
:104E4000A06D00F0A8F9A389190702D52369002BEA
:104E500035D12146284600F0C5F880B34FF0FF3524
:104E6000636EDA0705D4A3899B0502D4A06D00F018
:104E700093F9284670BD002B04DAA2699A4217DC28
:104E80000A2915D023685A1C22601970A36816F8E5
:104E9000011F013BA3600029EDD1002B11DA22464E
:104EA0000A21284600F05FF80130D7D00A25D7E75D
:104EB0002246284600F057F80130E7D1CEE7013E00
:104EC000E4E723685A1C22600A221A70EEE7000009
:104ED000024B01461868FFF7A5BF00BF2000002065
:104EE00010B50C46B1F90E1000F0FCF80028ABBF6D
:104EF000636DA3891B1823F48053ACBF6365A38142
:104F000010BD2DE9F0411F468B89DB0505460C4697
:104F1000164605D5B1F90E100223002200F0D0F894
:104F2000A389B4F90E1023F48053A38132463B4683
:104F30002846BDE8F04100F0F7B810B50C46B1F9CD
:104F40000E1000F0BDF8431CA38915BF606523F463
:104F5000805343F48053A38118BFA38110BDB1F9DE
:104F60000E1000F09DB8F8B50E461446054618B16F
:104F7000036A0BB9FFF70EFFA369A360A3891A07A1
:104F800001D5236943B92146284600F02BF818B112
:104F90004FF0FF373846F8BD23682269981A6369D5
:104FA000F6B28342374605DC2146284600F092FCE3
:104FB0000028EDD1A368013BA36023685A1C22603E
:104FC0001E706269431C9A4204D0A389DB07E1D5B5
:104FD0000A2EDFD12146284600F07CFC0028D9D0DB
:104FE000D6E7000038B5294B054618680C4618B1BD
:104FF000036A0BB9FFF7CEFEB4F90C30190722D4BF
:10500000DA0607D409222A6043F04003A3814FF057
:10501000FF3033E0580712D5616B41B104F144030E
:10502000994202D0284600F0B9F800236363A389AF
:1050300023F02403A3810023636023692360A389F1
:1050400043F00803A38123694BB9A38903F42073B8
:10505000B3F5007F03D02146284600F089FCB4F95F
:105060000C3013F001020AD00022A26062695242A1
:10507000A261226942B913F08000C5D138BD9907F9
:1050800058BF6269A260F4E70020F7E72000002023
:1050900002440346934200D1704703F8011BF9E72D
:1050A00038B5064D0023044608462B6000F016FD77
:1050B000431C02D12B6803B1236038BDBC0700201C
:1050C00038B5074D04460846114600222A601A46A4
:1050D00000F01CFD431C02D12B6803B1236038BDD6
:1050E000BC07002038B5074D04460846114600228B
:1050F0002A601A4600F012FD431C02D12B6803B14E
:10510000236038BDBC07002038B5064D0023044697
:1051100008462B6000F00AFD431C02D12B6803B146
:10512000236038BDBC07002038B5074D044608464B
:10513000114600222A601A46FCF744F8431C02D1AB
:105140002B6803B1236038BDBC07002070B50D4D3E
:105150000D4C641BA4100026A64209D10B4D0C4C2B
:1051600000F050FE641BA4100026A64205D170BDBD
:1051700055F8043B98470136EEE755F8043B98474D
:105180000136F2E7A45E0008A45E0008A45E0008F1
:10519000A85E0008704770477047000038B50546A4
:1051A000002941D051F8043C0C1F002BB8BFE41873
:1051B000FFF758FD1D4A136833B963601460284631
:1051C000BDE83840FFF754BDA34208D92068211834
:1051D0008B4201BF19685B6809182160EDE71A4628
:1051E0005B680BB1A342FAD911685018A0420BD1E9
:1051F00020680144501883421160E0D118685B6850
:10520000536008441060DAE702D90C232B60D6E71C
:10521000206821188B4204BF19685B68636004BF73
:10522000091821605460CAE738BD00BF7C06002021
:105230009368013B002B10B4936008DA9469A34291
:1052400001DB0A2903D15DF8044BFFF78CBE13681C
:10525000581C1060197008465DF8044B7047F8B58B
:1052600006460F461446D518AC4201D1002007E08F
:1052700014F8011B3A463046FFF7DAFF431CF3D11E
:10528000F8BD00002DE9F04F0D469DB0144698463C
:10529000064618B1036A0BB9FFF77CFD6B6ED907A0
:1052A00005D4AB899A0502D4A86DFFF774FFAB89CA
:1052B0001B0701D52B699BB929463046FFF792FEA3
:1052C00070B16B6EDC0704D54FF0FF301DB0BDE848
:1052D000F08FAB899805F7D4A86DFFF75DFFF3E772
:1052E0000023099320238DF82930CDF80C8030233A
:1052F000DFF8AC818DF82A304FF0010923469A4639
:1053000013F8012B0AB1252AF9D1BAEB040B0BD003
:105310005B46224629463046FFF7A1FF013000F0E8
:10532000A780099A5A4409929AF80030002B00F09D
:105330009F8000234FF0FF32CDE905230AF1010AD7
:10534000049307938DF853301A935446052214F8AA
:10535000011B5348FAF72CFF049AD8B9D10644BF71
:1053600020238DF85330130744BF2B238DF853307F
:105370009AF800302A2B15D0079A544600204FF097
:105380000A0C214611F8013B303B092B4BD9B0B137
:10539000079214E0A0EB080309FA03F31343049304
:1053A000A246D2E7039B191D1B680391002BBBBFCC
:1053B0005B4242F0020207930793B8BF049223783E
:1053C0002E2B0AD163782A2B32D1039B1A1D1B681E
:1053D000039243EAE37302340593DFF8D4A0217803
:1053E00003225046FAF7E4FE38B1049BA0EB0A0012
:1053F0004022824013430134049314F8011B2948CE
:105400008DF828100622FAF7D3FE00283FD0264B4D
:105410001BBB039B073323F0070308330393099B4C
:105420003B4409936AE70CFB02320C460120A8E7D3
:1054300000230134059319464FF00A0C204610F85A
:10544000012B303A092A03D9002BC6D00591C4E7B5
:105450000CFB012104460123F0E703AB00932A462D
:10546000124B04A93046AFF300800746781CD6D112
:105470006B6ED90705D4AB899A0502D4A86DFFF7E6
:105480008BFEAB895B063FF51FAF09981EE703ABA8
:1054900000932A46054B04A9304600F079F8E4E76A
:1054A000685E0008725E0008000000005F5200089D
:1054B0006E5E00082DE9F047164698468A680B692B
:1054C000DDF820909342B8BF1346336091F8432033
:1054D00007460C460AB1013333602368990642BF80
:1054E000336802333360256815F0060506D104F1F0
:1054F000190AE36832689B1AAB4226DC94F8433001
:105500002268003B18BF012392062BD404F143020A
:1055100041463846C84701301ED02368226903F04F
:105520000603042B02BFE5683368ED1AA3680CBFBD
:1055300025EAE57500259342C4BF9B1AED180026A5
:105540001A34B5421AD1002008E0012352464146E0
:105550003846C847013003D14FF0FF30BDE8F0872F
:105560000135C6E7E1185A1C302081F84300224477
:1055700094F8451082F843100233C7E7012322460E
:1055800041463846C8470130E6D00136D9E7000029
:105590002DE9FF470F7E0C9E782F914680460C46E2
:1055A0009A4601F1430207D8622F0AD8002F00F073
:1055B000D180582F00F0B88004F1420684F8427080
:1055C0003AE0A7F16303152BF6D801A151F823F0B7
:1055D000295600083D560008B9550008B95500087D
:1055E000B9550008B95500083D560008B9550008DE
:1055F000B9550008B9550008B95500083B570008CF
:1056000067560008F5560008B9550008B955000856
:105610005D570008B955000867560008B9550008DD
:10562000B9550008FD56000833681A1D1B68326022
:1056300004F1420684F8423001239CE0336820687C
:10564000191D3160060601D51D6803E04506FBD52E
:10565000B3F90050002D03DA2D236D4284F8433056
:1056600058480A2311E021683368080653F8045BA0
:1056700002D4490648BFADB26F2F5248336014BF01
:105680000A230823002184F843106668A660002ED0
:1056900005DB21682E4321F0040121604BD0164622
:1056A000B5FBF3F103FB1157C75D06F8017D2F46EB
:1056B000BB420D46F4D9082B0BD12368DF0708D570
:1056C000236961689942DEBF302306F8013C06F188
:1056D000FF36921B2261CDF800A04B4603AA21465B
:1056E0004046FFF7E7FE01304AD14FF0FF3004B0EB
:1056F000BDE8F087236843F0200323603248782711
:1057000084F84570236831681F0651F8045B02D4A1
:105710005F0648BFADB23160D90744BF43F02003F4
:1057200023601DB11023ADE72648E9E7236823F085
:1057300020032360F6E71646BDE7336825686169F4
:10574000181D30602E061B6801D5196002E068063E
:10575000FBD51980002323611646BCE733681A1D68
:1057600032601E68626800213046FAF721FD08B1F8
:10577000801B606063682361002384F84330AAE7DC
:105780002369324649464046D0470130ADD02368B0
:105790009B0713D4E068039B9842B8BF1846A6E75E
:1057A0000123324649464046D04701309DD001355D
:1057B000E36803995B1AAB42F2DCEBE7002504F1E6
:1057C0001906F5E7795E00088A5E0008B1F90C2039
:1057D0002DE9F041160705460C4654D44B68002BC2
:1057E00002DC0B6C002B48DDE66A002E45D000235E
:1057F00012F480522F68216A2B6030D0626DA38929
:10580000590705D56368D21A636B0BB1236CD21AA2
:105810000023E66A216A2846B047431CA38906D1C3
:1058200029681D292BD82A4ACA40D60727D5002225
:105830006260D9042269226004D5421C01D12B6820
:1058400003B96065616B2F60B9B104F144039942FB
:1058500002D02846FFF7A2FC002363630DE001237A
:105860002846B0470246501CC9D12B68002BC6D031
:105870001D2B01D0162B1ED12F60002022E043F0FB
:1058800040031BB21BE00F69002FF6D093070E6890
:1058900008BF4B690F6018BF0023A6EB07088B6099
:1058A000B8F1000FE9DD216AA66A43463A46284668
:1058B000B047002808DCB4F90C3043F04003A38162
:1058C0004FF0FF30BDE8F0810744A8EB0008E7E7A0
:1058D0000100402038B50B6905460C4613B9002578
:1058E000284638BD18B1036A0BB9FFF753FAB4F96B
:1058F0000C30002BF3D0626ED00704D4990502D48B
:10590000A06DFFF748FC28462146FFF75FFF636E56
:10591000DA070546E4D4A3899B05E1D4A06DFFF71F
:105920003BFCDDE770B50C46B1F90E10002996B0CE
:1059300015461E460DDAA38913F0800F4FF00001C3
:1059400014BF40234FF48063002031602B6016B0F9
:1059500070BD6A4600F048F80028ECDB019901F4BC
:105960007041A1F50053594259414FF48063EBE770
:105970008B89F7B59D0706460C4607D504F147030A
:10598000236023610123636103B0F0BD01AB6A466C
:10599000FFF7C8FF009F054639463046FFF7E2F89B
:1059A00048B9B4F90C309A05EED423F0030343F060
:1059B0000203A381E2E7A389206043F08003A3816F
:1059C000019BC4E904075BB1B4F90E10304600F046
:1059D0001DF828B1A38923F0030343F00103A38139
:1059E000A3891D43A581CFE738B5074D00230446A1
:1059F000084611462B6000F079F8431C02D12B6851
:105A000003B1236038BD00BFBC07002038B5064D88
:105A10000023044608462B6000F070F8431C02D1B6
:105A20002B6803B1236038BDBC07002008B52DEDFD
:105A3000028BF0EE408AB0EE608A00F033F820B9B5
:105A4000B0EE480ABDEC028B08BDB0EE480A00F08B
:105A500029F820B1F4EEC88AF1EE10FAF0DDB0EECC
:105A6000680ABDEC028B08BD08B52DED028BF0EE87
:105A7000408AB0EE608A00F015F820B9B0EE480A0E
:105A8000BDEC028B08BDB0EE480A00F00BF820B167
:105A9000F4EEC88AF1EE10FAF0D5B0EE680ABDEC6B
:105AA000028B08BD10EE103A33F000400ED0A0F586
:105AB0000003B3F1FE4F0DD3074B421E9A4207D9A4
:105AC000A0F1FF40B0FA80F0400970470220704713
:105AD0000320704704207047FEFF7F00024B5822CE
